{
	"contracts/pollio.sol": {
		"PollIO": {
			"abi": [
				{
					"inputs": [],
					"stateMutability": "nonpayable",
					"type": "constructor"
				},
				{
					"inputs": [
						{
							"internalType": "string",
							"name": "pollName",
							"type": "string"
						},
						{
							"internalType": "uint256",
							"name": "pollDuration",
							"type": "uint256"
						},
						{
							"internalType": "string[]",
							"name": "_candidates",
							"type": "string[]"
						},
						{
							"internalType": "string",
							"name": "_pollType",
							"type": "string"
						}
					],
					"name": "createPoll",
					"outputs": [],
					"stateMutability": "nonpayable",
					"type": "function"
				},
				{
					"inputs": [],
					"name": "getPreviousPolls",
					"outputs": [
						{
							"internalType": "contract Poll[]",
							"name": "",
							"type": "address[]"
						}
					],
					"stateMutability": "view",
					"type": "function"
				},
				{
					"inputs": [],
					"name": "owner",
					"outputs": [
						{
							"internalType": "address payable",
							"name": "",
							"type": "address"
						}
					],
					"stateMutability": "view",
					"type": "function"
				}
			],
			"devdoc": {
				"kind": "dev",
				"methods": {},
				"version": 1
			},
			"evm": {
				"assembly": "    /* \"contracts/pollio.sol\":70:773  contract PollIO {... */\n  mstore(0x40, 0x80)\n    /* \"contracts/pollio.sol\":171:229  constructor() {... */\n  callvalue\n  dup1\n  iszero\n  tag_1\n  jumpi\n  0x00\n  dup1\n  revert\ntag_1:\n  pop\n    /* \"contracts/pollio.sol\":211:221  msg.sender */\n  caller\n    /* \"contracts/pollio.sol\":195:200  owner */\n  0x00\n  dup1\n    /* \"contracts/pollio.sol\":195:222  owner = payable(msg.sender) */\n  0x0100\n  exp\n  dup2\n  sload\n  dup2\n  0xffffffffffffffffffffffffffffffffffffffff\n  mul\n  not\n  and\n  swap1\n  dup4\n  0xffffffffffffffffffffffffffffffffffffffff\n  and\n  mul\n  or\n  swap1\n  sstore\n  pop\n    /* \"contracts/pollio.sol\":70:773  contract PollIO {... */\n  dataSize(sub_0)\n  dup1\n  dataOffset(sub_0)\n  0x00\n  codecopy\n  0x00\n  return\nstop\n\nsub_0: assembly {\n        /* \"contracts/pollio.sol\":70:773  contract PollIO {... */\n      mstore(0x40, 0x80)\n      callvalue\n      dup1\n      iszero\n      tag_1\n      jumpi\n      0x00\n      dup1\n      revert\n    tag_1:\n      pop\n      jumpi(tag_2, lt(calldatasize, 0x04))\n      shr(0xe0, calldataload(0x00))\n      dup1\n      0x8da5cb5b\n      eq\n      tag_3\n      jumpi\n      dup1\n      0xa6c48b82\n      eq\n      tag_4\n      jumpi\n      dup1\n      0xf68673c2\n      eq\n      tag_5\n      jumpi\n    tag_2:\n      0x00\n      dup1\n      revert\n        /* \"contracts/pollio.sol\":92:120  address payable public owner */\n    tag_3:\n      tag_6\n      tag_7\n      jump\t// in\n    tag_6:\n      mload(0x40)\n      tag_8\n      swap2\n      swap1\n      tag_9\n      jump\t// in\n    tag_8:\n      mload(0x40)\n      dup1\n      swap2\n      sub\n      swap1\n      return\n        /* \"contracts/pollio.sol\":235:664  function createPoll (... */\n    tag_4:\n      tag_10\n      0x04\n      dup1\n      calldatasize\n      sub\n      dup2\n      add\n      swap1\n      tag_11\n      swap2\n      swap1\n      tag_12\n      jump\t// in\n    tag_11:\n      tag_13\n      jump\t// in\n    tag_10:\n      stop\n        /* \"contracts/pollio.sol\":670:771  function getPreviousPolls() public view returns(Poll[] memory) {... */\n    tag_5:\n      tag_14\n      tag_15\n      jump\t// in\n    tag_14:\n      mload(0x40)\n      tag_16\n      swap2\n      swap1\n      tag_17\n      jump\t// in\n    tag_16:\n      mload(0x40)\n      dup1\n      swap2\n      sub\n      swap1\n      return\n        /* \"contracts/pollio.sol\":92:120  address payable public owner */\n    tag_7:\n      0x00\n      dup1\n      sload\n      swap1\n      0x0100\n      exp\n      swap1\n      div\n      0xffffffffffffffffffffffffffffffffffffffff\n      and\n      dup2\n      jump\t// out\n        /* \"contracts/pollio.sol\":235:664  function createPoll (... */\n    tag_13:\n        /* \"contracts/pollio.sol\":410:422  Poll newPoll */\n      0x00\n        /* \"contracts/pollio.sol\":434:444  msg.sender */\n      caller\n        /* \"contracts/pollio.sol\":446:454  pollName */\n      dup6\n        /* \"contracts/pollio.sol\":456:468  pollDuration */\n      dup6\n        /* \"contracts/pollio.sol\":470:481  _candidates */\n      dup6\n        /* \"contracts/pollio.sol\":483:492  _pollType */\n      dup6\n        /* \"contracts/pollio.sol\":425:493  new Poll(msg.sender, pollName, pollDuration, _candidates, _pollType) */\n      mload(0x40)\n      tag_19\n      swap1\n      tag_20\n      jump\t// in\n    tag_19:\n      tag_21\n      swap6\n      swap5\n      swap4\n      swap3\n      swap2\n      swap1\n      tag_22\n      jump\t// in\n    tag_21:\n      mload(0x40)\n      dup1\n      swap2\n      sub\n      swap1\n      0x00\n      create\n      dup1\n      iszero\n      dup1\n      iszero\n      tag_23\n      jumpi\n      returndatasize\n      0x00\n      dup1\n      returndatacopy\n      revert(0x00, returndatasize)\n    tag_23:\n      pop\n        /* \"contracts/pollio.sol\":410:493  Poll newPoll = new Poll(msg.sender, pollName, pollDuration, _candidates, _pollType) */\n      swap1\n      pop\n        /* \"contracts/pollio.sol\":503:505  db */\n      0x01\n        /* \"contracts/pollio.sol\":503:517  db[msg.sender] */\n      0x00\n        /* \"contracts/pollio.sol\":506:516  msg.sender */\n      caller\n        /* \"contracts/pollio.sol\":503:517  db[msg.sender] */\n      0xffffffffffffffffffffffffffffffffffffffff\n      and\n      0xffffffffffffffffffffffffffffffffffffffff\n      and\n      dup2\n      mstore\n      0x20\n      add\n      swap1\n      dup2\n      mstore\n      0x20\n      add\n      0x00\n      keccak256\n        /* \"contracts/pollio.sol\":523:530  newPoll */\n      dup2\n        /* \"contracts/pollio.sol\":503:531  db[msg.sender].push(newPoll) */\n      swap1\n      dup1\n      0x01\n      dup2\n      sload\n      add\n      dup1\n      dup3\n      sstore\n      dup1\n      swap2\n      pop\n      pop\n      0x01\n      swap1\n      sub\n      swap1\n      0x00\n      mstore\n      keccak256(0x00, 0x20)\n      add\n      0x00\n      swap1\n      swap2\n      swap1\n      swap2\n      swap1\n      swap2\n      0x0100\n      exp\n      dup2\n      sload\n      dup2\n      0xffffffffffffffffffffffffffffffffffffffff\n      mul\n      not\n      and\n      swap1\n      dup4\n      0xffffffffffffffffffffffffffffffffffffffff\n      and\n      mul\n      or\n      swap1\n      sstore\n      pop\n        /* \"contracts/pollio.sol\":400:664  {... */\n      pop\n        /* \"contracts/pollio.sol\":235:664  function createPoll (... */\n      pop\n      pop\n      pop\n      pop\n      jump\t// out\n        /* \"contracts/pollio.sol\":670:771  function getPreviousPolls() public view returns(Poll[] memory) {... */\n    tag_15:\n        /* \"contracts/pollio.sol\":718:731  Poll[] memory */\n      0x60\n        /* \"contracts/pollio.sol\":750:752  db */\n      0x01\n        /* \"contracts/pollio.sol\":750:764  db[msg.sender] */\n      0x00\n        /* \"contracts/pollio.sol\":753:763  msg.sender */\n      caller\n        /* \"contracts/pollio.sol\":750:764  db[msg.sender] */\n      0xffffffffffffffffffffffffffffffffffffffff\n      and\n      0xffffffffffffffffffffffffffffffffffffffff\n      and\n      dup2\n      mstore\n      0x20\n      add\n      swap1\n      dup2\n      mstore\n      0x20\n      add\n      0x00\n      keccak256\n        /* \"contracts/pollio.sol\":743:764  return db[msg.sender] */\n      dup1\n      sload\n      dup1\n      0x20\n      mul\n      0x20\n      add\n      mload(0x40)\n      swap1\n      dup2\n      add\n      0x40\n      mstore\n      dup1\n      swap3\n      swap2\n      swap1\n      dup2\n      dup2\n      mstore\n      0x20\n      add\n      dup3\n      dup1\n      sload\n      dup1\n      iszero\n      tag_26\n      jumpi\n      0x20\n      mul\n      dup3\n      add\n      swap2\n      swap1\n      0x00\n      mstore\n      keccak256(0x00, 0x20)\n      swap1\n    tag_27:\n      dup2\n      0x00\n      swap1\n      sload\n      swap1\n      0x0100\n      exp\n      swap1\n      div\n      0xffffffffffffffffffffffffffffffffffffffff\n      and\n      0xffffffffffffffffffffffffffffffffffffffff\n      and\n      dup2\n      mstore\n      0x20\n      add\n      swap1\n      0x01\n      add\n      swap1\n      dup1\n      dup4\n      gt\n      tag_27\n      jumpi\n    tag_26:\n      pop\n      pop\n      pop\n      pop\n      pop\n      swap1\n      pop\n        /* \"contracts/pollio.sol\":670:771  function getPreviousPolls() public view returns(Poll[] memory) {... */\n      swap1\n      jump\t// out\n    tag_20:\n      dataSize(sub_0)\n      dup1\n      dataOffset(sub_0)\n      dup4\n      codecopy\n      add\n      swap1\n      jump\t// out\n        /* \"#utility.yul\":23:980   */\n    tag_29:\n        /* \"#utility.yul\":129:134   */\n      0x00\n        /* \"#utility.yul\":154:245   */\n      tag_31\n        /* \"#utility.yul\":170:244   */\n      tag_32\n        /* \"#utility.yul\":237:243   */\n      dup5\n        /* \"#utility.yul\":170:244   */\n      tag_33\n      jump\t// in\n    tag_32:\n        /* \"#utility.yul\":154:245   */\n      tag_34\n      jump\t// in\n    tag_31:\n        /* \"#utility.yul\":145:245   */\n      swap1\n      pop\n        /* \"#utility.yul\":265:270   */\n      dup1\n        /* \"#utility.yul\":294:300   */\n      dup4\n        /* \"#utility.yul\":287:292   */\n      dup3\n        /* \"#utility.yul\":280:301   */\n      mstore\n        /* \"#utility.yul\":328:332   */\n      0x20\n        /* \"#utility.yul\":321:326   */\n      dup3\n        /* \"#utility.yul\":317:333   */\n      add\n        /* \"#utility.yul\":310:333   */\n      swap1\n      pop\n        /* \"#utility.yul\":354:360   */\n      dup3\n        /* \"#utility.yul\":404:407   */\n      dup6\n        /* \"#utility.yul\":396:400   */\n      0x20\n        /* \"#utility.yul\":388:394   */\n      dup7\n        /* \"#utility.yul\":384:401   */\n      mul\n        /* \"#utility.yul\":379:382   */\n      dup3\n        /* \"#utility.yul\":375:402   */\n      add\n        /* \"#utility.yul\":372:408   */\n      gt\n        /* \"#utility.yul\":369:512   */\n      iszero\n      tag_35\n      jumpi\n        /* \"#utility.yul\":423:502   */\n      tag_36\n      tag_37\n      jump\t// in\n    tag_36:\n        /* \"#utility.yul\":369:512   */\n    tag_35:\n        /* \"#utility.yul\":536:537   */\n      0x00\n        /* \"#utility.yul\":521:974   */\n    tag_38:\n        /* \"#utility.yul\":546:552   */\n      dup6\n        /* \"#utility.yul\":543:544   */\n      dup2\n        /* \"#utility.yul\":540:553   */\n      lt\n        /* \"#utility.yul\":521:974   */\n      iszero\n      tag_40\n      jumpi\n        /* \"#utility.yul\":628:631   */\n      dup2\n        /* \"#utility.yul\":615:632   */\n      calldataload\n        /* \"#utility.yul\":664:682   */\n      0xffffffffffffffff\n        /* \"#utility.yul\":651:662   */\n      dup2\n        /* \"#utility.yul\":648:683   */\n      gt\n        /* \"#utility.yul\":645:767   */\n      iszero\n      tag_41\n      jumpi\n        /* \"#utility.yul\":686:765   */\n      tag_42\n      tag_43\n      jump\t// in\n    tag_42:\n        /* \"#utility.yul\":645:767   */\n    tag_41:\n        /* \"#utility.yul\":810:821   */\n      dup1\n        /* \"#utility.yul\":802:808   */\n      dup7\n        /* \"#utility.yul\":798:822   */\n      add\n        /* \"#utility.yul\":848:895   */\n      tag_44\n        /* \"#utility.yul\":891:894   */\n      dup10\n        /* \"#utility.yul\":879:889   */\n      dup3\n        /* \"#utility.yul\":848:895   */\n      tag_45\n      jump\t// in\n    tag_44:\n        /* \"#utility.yul\":843:846   */\n      dup6\n        /* \"#utility.yul\":836:896   */\n      mstore\n        /* \"#utility.yul\":925:929   */\n      0x20\n        /* \"#utility.yul\":920:923   */\n      dup6\n        /* \"#utility.yul\":916:930   */\n      add\n        /* \"#utility.yul\":909:930   */\n      swap5\n      pop\n        /* \"#utility.yul\":959:963   */\n      0x20\n        /* \"#utility.yul\":954:957   */\n      dup5\n        /* \"#utility.yul\":950:964   */\n      add\n        /* \"#utility.yul\":943:964   */\n      swap4\n      pop\n        /* \"#utility.yul\":581:974   */\n      pop\n      pop\n        /* \"#utility.yul\":568:569   */\n      0x01\n        /* \"#utility.yul\":565:566   */\n      dup2\n        /* \"#utility.yul\":561:570   */\n      add\n        /* \"#utility.yul\":556:570   */\n      swap1\n      pop\n        /* \"#utility.yul\":521:974   */\n      jump(tag_38)\n    tag_40:\n        /* \"#utility.yul\":525:539   */\n      pop\n        /* \"#utility.yul\":135:980   */\n      pop\n      pop\n        /* \"#utility.yul\":23:980   */\n      swap4\n      swap3\n      pop\n      pop\n      pop\n      jump\t// out\n        /* \"#utility.yul\":986:1398   */\n    tag_46:\n        /* \"#utility.yul\":1064:1069   */\n      0x00\n        /* \"#utility.yul\":1089:1155   */\n      tag_48\n        /* \"#utility.yul\":1105:1154   */\n      tag_49\n        /* \"#utility.yul\":1147:1153   */\n      dup5\n        /* \"#utility.yul\":1105:1154   */\n      tag_50\n      jump\t// in\n    tag_49:\n        /* \"#utility.yul\":1089:1155   */\n      tag_34\n      jump\t// in\n    tag_48:\n        /* \"#utility.yul\":1080:1155   */\n      swap1\n      pop\n        /* \"#utility.yul\":1178:1184   */\n      dup3\n        /* \"#utility.yul\":1171:1176   */\n      dup2\n        /* \"#utility.yul\":1164:1185   */\n      mstore\n        /* \"#utility.yul\":1216:1220   */\n      0x20\n        /* \"#utility.yul\":1209:1214   */\n      dup2\n        /* \"#utility.yul\":1205:1221   */\n      add\n        /* \"#utility.yul\":1254:1257   */\n      dup5\n        /* \"#utility.yul\":1245:1251   */\n      dup5\n        /* \"#utility.yul\":1240:1243   */\n      dup5\n        /* \"#utility.yul\":1236:1252   */\n      add\n        /* \"#utility.yul\":1233:1258   */\n      gt\n        /* \"#utility.yul\":1230:1342   */\n      iszero\n      tag_51\n      jumpi\n        /* \"#utility.yul\":1261:1340   */\n      tag_52\n      tag_53\n      jump\t// in\n    tag_52:\n        /* \"#utility.yul\":1230:1342   */\n    tag_51:\n        /* \"#utility.yul\":1351:1392   */\n      tag_54\n        /* \"#utility.yul\":1385:1391   */\n      dup5\n        /* \"#utility.yul\":1380:1383   */\n      dup3\n        /* \"#utility.yul\":1375:1378   */\n      dup6\n        /* \"#utility.yul\":1351:1392   */\n      tag_55\n      jump\t// in\n    tag_54:\n        /* \"#utility.yul\":1070:1398   */\n      pop\n        /* \"#utility.yul\":986:1398   */\n      swap4\n      swap3\n      pop\n      pop\n      pop\n      jump\t// out\n        /* \"#utility.yul\":1420:1810   */\n    tag_56:\n        /* \"#utility.yul\":1501:1506   */\n      0x00\n        /* \"#utility.yul\":1550:1553   */\n      dup3\n        /* \"#utility.yul\":1543:1547   */\n      0x1f\n        /* \"#utility.yul\":1535:1541   */\n      dup4\n        /* \"#utility.yul\":1531:1548   */\n      add\n        /* \"#utility.yul\":1527:1554   */\n      slt\n        /* \"#utility.yul\":1517:1639   */\n      tag_58\n      jumpi\n        /* \"#utility.yul\":1558:1637   */\n      tag_59\n      tag_43\n      jump\t// in\n    tag_59:\n        /* \"#utility.yul\":1517:1639   */\n    tag_58:\n        /* \"#utility.yul\":1675:1681   */\n      dup2\n        /* \"#utility.yul\":1662:1682   */\n      calldataload\n        /* \"#utility.yul\":1700:1804   */\n      tag_60\n        /* \"#utility.yul\":1800:1803   */\n      dup5\n        /* \"#utility.yul\":1792:1798   */\n      dup3\n        /* \"#utility.yul\":1785:1789   */\n      0x20\n        /* \"#utility.yul\":1777:1783   */\n      dup7\n        /* \"#utility.yul\":1773:1790   */\n      add\n        /* \"#utility.yul\":1700:1804   */\n      tag_29\n      jump\t// in\n    tag_60:\n        /* \"#utility.yul\":1691:1804   */\n      swap2\n      pop\n        /* \"#utility.yul\":1507:1810   */\n      pop\n        /* \"#utility.yul\":1420:1810   */\n      swap3\n      swap2\n      pop\n      pop\n      jump\t// out\n        /* \"#utility.yul\":1830:2170   */\n    tag_45:\n        /* \"#utility.yul\":1886:1891   */\n      0x00\n        /* \"#utility.yul\":1935:1938   */\n      dup3\n        /* \"#utility.yul\":1928:1932   */\n      0x1f\n        /* \"#utility.yul\":1920:1926   */\n      dup4\n        /* \"#utility.yul\":1916:1933   */\n      add\n        /* \"#utility.yul\":1912:1939   */\n      slt\n        /* \"#utility.yul\":1902:2024   */\n      tag_62\n      jumpi\n        /* \"#utility.yul\":1943:2022   */\n      tag_63\n      tag_43\n      jump\t// in\n    tag_63:\n        /* \"#utility.yul\":1902:2024   */\n    tag_62:\n        /* \"#utility.yul\":2060:2066   */\n      dup2\n        /* \"#utility.yul\":2047:2067   */\n      calldataload\n        /* \"#utility.yul\":2085:2164   */\n      tag_64\n        /* \"#utility.yul\":2160:2163   */\n      dup5\n        /* \"#utility.yul\":2152:2158   */\n      dup3\n        /* \"#utility.yul\":2145:2149   */\n      0x20\n        /* \"#utility.yul\":2137:2143   */\n      dup7\n        /* \"#utility.yul\":2133:2150   */\n      add\n        /* \"#utility.yul\":2085:2164   */\n      tag_46\n      jump\t// in\n    tag_64:\n        /* \"#utility.yul\":2076:2164   */\n      swap2\n      pop\n        /* \"#utility.yul\":1892:2170   */\n      pop\n        /* \"#utility.yul\":1830:2170   */\n      swap3\n      swap2\n      pop\n      pop\n      jump\t// out\n        /* \"#utility.yul\":2176:2315   */\n    tag_65:\n        /* \"#utility.yul\":2222:2227   */\n      0x00\n        /* \"#utility.yul\":2260:2266   */\n      dup2\n        /* \"#utility.yul\":2247:2267   */\n      calldataload\n        /* \"#utility.yul\":2238:2267   */\n      swap1\n      pop\n        /* \"#utility.yul\":2276:2309   */\n      tag_67\n        /* \"#utility.yul\":2303:2308   */\n      dup2\n        /* \"#utility.yul\":2276:2309   */\n      tag_68\n      jump\t// in\n    tag_67:\n        /* \"#utility.yul\":2176:2315   */\n      swap3\n      swap2\n      pop\n      pop\n      jump\t// out\n        /* \"#utility.yul\":2321:3676   */\n    tag_12:\n        /* \"#utility.yul\":2462:2468   */\n      0x00\n        /* \"#utility.yul\":2470:2476   */\n      dup1\n        /* \"#utility.yul\":2478:2484   */\n      0x00\n        /* \"#utility.yul\":2486:2492   */\n      dup1\n        /* \"#utility.yul\":2535:2538   */\n      0x80\n        /* \"#utility.yul\":2523:2532   */\n      dup6\n        /* \"#utility.yul\":2514:2521   */\n      dup8\n        /* \"#utility.yul\":2510:2533   */\n      sub\n        /* \"#utility.yul\":2506:2539   */\n      slt\n        /* \"#utility.yul\":2503:2623   */\n      iszero\n      tag_70\n      jumpi\n        /* \"#utility.yul\":2542:2621   */\n      tag_71\n      tag_72\n      jump\t// in\n    tag_71:\n        /* \"#utility.yul\":2503:2623   */\n    tag_70:\n        /* \"#utility.yul\":2690:2691   */\n      0x00\n        /* \"#utility.yul\":2679:2688   */\n      dup6\n        /* \"#utility.yul\":2675:2692   */\n      add\n        /* \"#utility.yul\":2662:2693   */\n      calldataload\n        /* \"#utility.yul\":2720:2738   */\n      0xffffffffffffffff\n        /* \"#utility.yul\":2712:2718   */\n      dup2\n        /* \"#utility.yul\":2709:2739   */\n      gt\n        /* \"#utility.yul\":2706:2823   */\n      iszero\n      tag_73\n      jumpi\n        /* \"#utility.yul\":2742:2821   */\n      tag_74\n      tag_75\n      jump\t// in\n    tag_74:\n        /* \"#utility.yul\":2706:2823   */\n    tag_73:\n        /* \"#utility.yul\":2847:2910   */\n      tag_76\n        /* \"#utility.yul\":2902:2909   */\n      dup8\n        /* \"#utility.yul\":2893:2899   */\n      dup3\n        /* \"#utility.yul\":2882:2891   */\n      dup9\n        /* \"#utility.yul\":2878:2900   */\n      add\n        /* \"#utility.yul\":2847:2910   */\n      tag_45\n      jump\t// in\n    tag_76:\n        /* \"#utility.yul\":2837:2910   */\n      swap5\n      pop\n        /* \"#utility.yul\":2633:2920   */\n      pop\n        /* \"#utility.yul\":2959:2961   */\n      0x20\n        /* \"#utility.yul\":2985:3038   */\n      tag_77\n        /* \"#utility.yul\":3030:3037   */\n      dup8\n        /* \"#utility.yul\":3021:3027   */\n      dup3\n        /* \"#utility.yul\":3010:3019   */\n      dup9\n        /* \"#utility.yul\":3006:3028   */\n      add\n        /* \"#utility.yul\":2985:3038   */\n      tag_65\n      jump\t// in\n    tag_77:\n        /* \"#utility.yul\":2975:3038   */\n      swap4\n      pop\n        /* \"#utility.yul\":2930:3048   */\n      pop\n        /* \"#utility.yul\":3115:3117   */\n      0x40\n        /* \"#utility.yul\":3104:3113   */\n      dup6\n        /* \"#utility.yul\":3100:3118   */\n      add\n        /* \"#utility.yul\":3087:3119   */\n      calldataload\n        /* \"#utility.yul\":3146:3164   */\n      0xffffffffffffffff\n        /* \"#utility.yul\":3138:3144   */\n      dup2\n        /* \"#utility.yul\":3135:3165   */\n      gt\n        /* \"#utility.yul\":3132:3249   */\n      iszero\n      tag_78\n      jumpi\n        /* \"#utility.yul\":3168:3247   */\n      tag_79\n      tag_75\n      jump\t// in\n    tag_79:\n        /* \"#utility.yul\":3132:3249   */\n    tag_78:\n        /* \"#utility.yul\":3273:3361   */\n      tag_80\n        /* \"#utility.yul\":3353:3360   */\n      dup8\n        /* \"#utility.yul\":3344:3350   */\n      dup3\n        /* \"#utility.yul\":3333:3342   */\n      dup9\n        /* \"#utility.yul\":3329:3351   */\n      add\n        /* \"#utility.yul\":3273:3361   */\n      tag_56\n      jump\t// in\n    tag_80:\n        /* \"#utility.yul\":3263:3361   */\n      swap3\n      pop\n        /* \"#utility.yul\":3058:3371   */\n      pop\n        /* \"#utility.yul\":3438:3440   */\n      0x60\n        /* \"#utility.yul\":3427:3436   */\n      dup6\n        /* \"#utility.yul\":3423:3441   */\n      add\n        /* \"#utility.yul\":3410:3442   */\n      calldataload\n        /* \"#utility.yul\":3469:3487   */\n      0xffffffffffffffff\n        /* \"#utility.yul\":3461:3467   */\n      dup2\n        /* \"#utility.yul\":3458:3488   */\n      gt\n        /* \"#utility.yul\":3455:3572   */\n      iszero\n      tag_81\n      jumpi\n        /* \"#utility.yul\":3491:3570   */\n      tag_82\n      tag_75\n      jump\t// in\n    tag_82:\n        /* \"#utility.yul\":3455:3572   */\n    tag_81:\n        /* \"#utility.yul\":3596:3659   */\n      tag_83\n        /* \"#utility.yul\":3651:3658   */\n      dup8\n        /* \"#utility.yul\":3642:3648   */\n      dup3\n        /* \"#utility.yul\":3631:3640   */\n      dup9\n        /* \"#utility.yul\":3627:3649   */\n      add\n        /* \"#utility.yul\":3596:3659   */\n      tag_45\n      jump\t// in\n    tag_83:\n        /* \"#utility.yul\":3586:3659   */\n      swap2\n      pop\n        /* \"#utility.yul\":3381:3669   */\n      pop\n        /* \"#utility.yul\":2321:3676   */\n      swap3\n      swap6\n      swap2\n      swap5\n      pop\n      swap3\n      pop\n      jump\t// out\n        /* \"#utility.yul\":3682:3885   */\n    tag_84:\n        /* \"#utility.yul\":3763:3773   */\n      0x00\n        /* \"#utility.yul\":3784:3842   */\n      tag_86\n        /* \"#utility.yul\":3838:3841   */\n      dup4\n        /* \"#utility.yul\":3830:3836   */\n      dup4\n        /* \"#utility.yul\":3784:3842   */\n      tag_87\n      jump\t// in\n    tag_86:\n        /* \"#utility.yul\":3874:3878   */\n      0x20\n        /* \"#utility.yul\":3869:3872   */\n      dup4\n        /* \"#utility.yul\":3865:3879   */\n      add\n        /* \"#utility.yul\":3851:3879   */\n      swap1\n      pop\n        /* \"#utility.yul\":3682:3885   */\n      swap3\n      swap2\n      pop\n      pop\n      jump\t// out\n        /* \"#utility.yul\":3891:4087   */\n    tag_88:\n        /* \"#utility.yul\":3980:3990   */\n      0x00\n        /* \"#utility.yul\":4015:4081   */\n      tag_90\n        /* \"#utility.yul\":4077:4080   */\n      dup4\n        /* \"#utility.yul\":4069:4075   */\n      dup4\n        /* \"#utility.yul\":4015:4081   */\n      tag_91\n      jump\t// in\n    tag_90:\n        /* \"#utility.yul\":4001:4081   */\n      swap1\n      pop\n        /* \"#utility.yul\":3891:4087   */\n      swap3\n      swap2\n      pop\n      pop\n      jump\t// out\n        /* \"#utility.yul\":4093:4235   */\n    tag_92:\n        /* \"#utility.yul\":4196:4228   */\n      tag_94\n        /* \"#utility.yul\":4222:4227   */\n      dup2\n        /* \"#utility.yul\":4196:4228   */\n      tag_95\n      jump\t// in\n    tag_94:\n        /* \"#utility.yul\":4191:4194   */\n      dup3\n        /* \"#utility.yul\":4184:4229   */\n      mstore\n        /* \"#utility.yul\":4093:4235   */\n      pop\n      pop\n      jump\t// out\n        /* \"#utility.yul\":4241:4359   */\n    tag_96:\n        /* \"#utility.yul\":4328:4352   */\n      tag_98\n        /* \"#utility.yul\":4346:4351   */\n      dup2\n        /* \"#utility.yul\":4328:4352   */\n      tag_99\n      jump\t// in\n    tag_98:\n        /* \"#utility.yul\":4323:4326   */\n      dup3\n        /* \"#utility.yul\":4316:4353   */\n      mstore\n        /* \"#utility.yul\":4241:4359   */\n      pop\n      pop\n      jump\t// out\n        /* \"#utility.yul\":4401:5193   */\n    tag_100:\n        /* \"#utility.yul\":4532:4535   */\n      0x00\n        /* \"#utility.yul\":4561:4627   */\n      tag_102\n        /* \"#utility.yul\":4621:4626   */\n      dup3\n        /* \"#utility.yul\":4561:4627   */\n      tag_103\n      jump\t// in\n    tag_102:\n        /* \"#utility.yul\":4643:4729   */\n      tag_104\n        /* \"#utility.yul\":4722:4728   */\n      dup2\n        /* \"#utility.yul\":4717:4720   */\n      dup6\n        /* \"#utility.yul\":4643:4729   */\n      tag_105\n      jump\t// in\n    tag_104:\n        /* \"#utility.yul\":4636:4729   */\n      swap4\n      pop\n        /* \"#utility.yul\":4753:4821   */\n      tag_106\n        /* \"#utility.yul\":4815:4820   */\n      dup4\n        /* \"#utility.yul\":4753:4821   */\n      tag_107\n      jump\t// in\n    tag_106:\n        /* \"#utility.yul\":4844:4851   */\n      dup1\n        /* \"#utility.yul\":4875:4876   */\n      0x00\n        /* \"#utility.yul\":4860:5168   */\n    tag_108:\n        /* \"#utility.yul\":4885:4891   */\n      dup4\n        /* \"#utility.yul\":4882:4883   */\n      dup2\n        /* \"#utility.yul\":4879:4892   */\n      lt\n        /* \"#utility.yul\":4860:5168   */\n      iszero\n      tag_110\n      jumpi\n        /* \"#utility.yul\":4961:4967   */\n      dup2\n        /* \"#utility.yul\":4955:4968   */\n      mload\n        /* \"#utility.yul\":4988:5063   */\n      tag_111\n        /* \"#utility.yul\":5059:5062   */\n      dup9\n        /* \"#utility.yul\":5044:5057   */\n      dup3\n        /* \"#utility.yul\":4988:5063   */\n      tag_84\n      jump\t// in\n    tag_111:\n        /* \"#utility.yul\":4981:5063   */\n      swap8\n      pop\n        /* \"#utility.yul\":5086:5158   */\n      tag_112\n        /* \"#utility.yul\":5151:5157   */\n      dup4\n        /* \"#utility.yul\":5086:5158   */\n      tag_113\n      jump\t// in\n    tag_112:\n        /* \"#utility.yul\":5076:5158   */\n      swap3\n      pop\n        /* \"#utility.yul\":4920:5168   */\n      pop\n        /* \"#utility.yul\":4907:4908   */\n      0x01\n        /* \"#utility.yul\":4904:4905   */\n      dup2\n        /* \"#utility.yul\":4900:4909   */\n      add\n        /* \"#utility.yul\":4895:4909   */\n      swap1\n      pop\n        /* \"#utility.yul\":4860:5168   */\n      jump(tag_108)\n    tag_110:\n        /* \"#utility.yul\":4864:4878   */\n      pop\n        /* \"#utility.yul\":5184:5187   */\n      dup6\n        /* \"#utility.yul\":5177:5187   */\n      swap4\n      pop\n        /* \"#utility.yul\":4537:5193   */\n      pop\n      pop\n      pop\n        /* \"#utility.yul\":4401:5193   */\n      swap3\n      swap2\n      pop\n      pop\n      jump\t// out\n        /* \"#utility.yul\":5227:6218   */\n    tag_114:\n        /* \"#utility.yul\":5366:5369   */\n      0x00\n        /* \"#utility.yul\":5395:5459   */\n      tag_116\n        /* \"#utility.yul\":5453:5458   */\n      dup3\n        /* \"#utility.yul\":5395:5459   */\n      tag_117\n      jump\t// in\n    tag_116:\n        /* \"#utility.yul\":5475:5571   */\n      tag_118\n        /* \"#utility.yul\":5564:5570   */\n      dup2\n        /* \"#utility.yul\":5559:5562   */\n      dup6\n        /* \"#utility.yul\":5475:5571   */\n      tag_119\n      jump\t// in\n    tag_118:\n        /* \"#utility.yul\":5468:5571   */\n      swap4\n      pop\n        /* \"#utility.yul\":5597:5600   */\n      dup4\n        /* \"#utility.yul\":5642:5646   */\n      0x20\n        /* \"#utility.yul\":5634:5640   */\n      dup3\n        /* \"#utility.yul\":5630:5647   */\n      mul\n        /* \"#utility.yul\":5625:5628   */\n      dup6\n        /* \"#utility.yul\":5621:5648   */\n      add\n        /* \"#utility.yul\":5672:5738   */\n      tag_120\n        /* \"#utility.yul\":5732:5737   */\n      dup6\n        /* \"#utility.yul\":5672:5738   */\n      tag_121\n      jump\t// in\n    tag_120:\n        /* \"#utility.yul\":5761:5768   */\n      dup1\n        /* \"#utility.yul\":5792:5793   */\n      0x00\n        /* \"#utility.yul\":5777:6173   */\n    tag_122:\n        /* \"#utility.yul\":5802:5808   */\n      dup6\n        /* \"#utility.yul\":5799:5800   */\n      dup2\n        /* \"#utility.yul\":5796:5809   */\n      lt\n        /* \"#utility.yul\":5777:6173   */\n      iszero\n      tag_124\n      jumpi\n        /* \"#utility.yul\":5873:5882   */\n      dup5\n        /* \"#utility.yul\":5867:5871   */\n      dup5\n        /* \"#utility.yul\":5863:5883   */\n      sub\n        /* \"#utility.yul\":5858:5861   */\n      dup10\n        /* \"#utility.yul\":5851:5884   */\n      mstore\n        /* \"#utility.yul\":5924:5930   */\n      dup2\n        /* \"#utility.yul\":5918:5931   */\n      mload\n        /* \"#utility.yul\":5952:6036   */\n      tag_125\n        /* \"#utility.yul\":6031:6035   */\n      dup6\n        /* \"#utility.yul\":6016:6029   */\n      dup3\n        /* \"#utility.yul\":5952:6036   */\n      tag_88\n      jump\t// in\n    tag_125:\n        /* \"#utility.yul\":5944:6036   */\n      swap5\n      pop\n        /* \"#utility.yul\":6059:6129   */\n      tag_126\n        /* \"#utility.yul\":6122:6128   */\n      dup4\n        /* \"#utility.yul\":6059:6129   */\n      tag_127\n      jump\t// in\n    tag_126:\n        /* \"#utility.yul\":6049:6129   */\n      swap3\n      pop\n        /* \"#utility.yul\":6158:6162   */\n      0x20\n        /* \"#utility.yul\":6153:6156   */\n      dup11\n        /* \"#utility.yul\":6149:6163   */\n      add\n        /* \"#utility.yul\":6142:6163   */\n      swap10\n      pop\n        /* \"#utility.yul\":5837:6173   */\n      pop\n        /* \"#utility.yul\":5824:5825   */\n      0x01\n        /* \"#utility.yul\":5821:5822   */\n      dup2\n        /* \"#utility.yul\":5817:5826   */\n      add\n        /* \"#utility.yul\":5812:5826   */\n      swap1\n      pop\n        /* \"#utility.yul\":5777:6173   */\n      jump(tag_122)\n    tag_124:\n        /* \"#utility.yul\":5781:5795   */\n      pop\n        /* \"#utility.yul\":6189:6193   */\n      dup3\n        /* \"#utility.yul\":6182:6193   */\n      swap8\n      pop\n        /* \"#utility.yul\":6209:6212   */\n      dup8\n        /* \"#utility.yul\":6202:6212   */\n      swap6\n      pop\n        /* \"#utility.yul\":5371:6218   */\n      pop\n      pop\n      pop\n      pop\n      pop\n        /* \"#utility.yul\":5227:6218   */\n      swap3\n      swap2\n      pop\n      pop\n      jump\t// out\n        /* \"#utility.yul\":6224:6369   */\n    tag_87:\n        /* \"#utility.yul\":6313:6362   */\n      tag_129\n        /* \"#utility.yul\":6356:6361   */\n      dup2\n        /* \"#utility.yul\":6313:6362   */\n      tag_130\n      jump\t// in\n    tag_129:\n        /* \"#utility.yul\":6308:6311   */\n      dup3\n        /* \"#utility.yul\":6301:6363   */\n      mstore\n        /* \"#utility.yul\":6224:6369   */\n      pop\n      pop\n      jump\t// out\n        /* \"#utility.yul\":6375:6719   */\n    tag_91:\n        /* \"#utility.yul\":6453:6456   */\n      0x00\n        /* \"#utility.yul\":6481:6520   */\n      tag_132\n        /* \"#utility.yul\":6514:6519   */\n      dup3\n        /* \"#utility.yul\":6481:6520   */\n      tag_133\n      jump\t// in\n    tag_132:\n        /* \"#utility.yul\":6536:6597   */\n      tag_134\n        /* \"#utility.yul\":6590:6596   */\n      dup2\n        /* \"#utility.yul\":6585:6588   */\n      dup6\n        /* \"#utility.yul\":6536:6597   */\n      tag_135\n      jump\t// in\n    tag_134:\n        /* \"#utility.yul\":6529:6597   */\n      swap4\n      pop\n        /* \"#utility.yul\":6606:6658   */\n      tag_136\n        /* \"#utility.yul\":6651:6657   */\n      dup2\n        /* \"#utility.yul\":6646:6649   */\n      dup6\n        /* \"#utility.yul\":6639:6643   */\n      0x20\n        /* \"#utility.yul\":6632:6637   */\n      dup7\n        /* \"#utility.yul\":6628:6644   */\n      add\n        /* \"#utility.yul\":6606:6658   */\n      tag_137\n      jump\t// in\n    tag_136:\n        /* \"#utility.yul\":6683:6712   */\n      tag_138\n        /* \"#utility.yul\":6705:6711   */\n      dup2\n        /* \"#utility.yul\":6683:6712   */\n      tag_139\n      jump\t// in\n    tag_138:\n        /* \"#utility.yul\":6678:6681   */\n      dup5\n        /* \"#utility.yul\":6674:6713   */\n      add\n        /* \"#utility.yul\":6667:6713   */\n      swap2\n      pop\n        /* \"#utility.yul\":6457:6719   */\n      pop\n        /* \"#utility.yul\":6375:6719   */\n      swap3\n      swap2\n      pop\n      pop\n      jump\t// out\n        /* \"#utility.yul\":6725:7089   */\n    tag_140:\n        /* \"#utility.yul\":6813:6816   */\n      0x00\n        /* \"#utility.yul\":6841:6880   */\n      tag_142\n        /* \"#utility.yul\":6874:6879   */\n      dup3\n        /* \"#utility.yul\":6841:6880   */\n      tag_133\n      jump\t// in\n    tag_142:\n        /* \"#utility.yul\":6896:6967   */\n      tag_143\n        /* \"#utility.yul\":6960:6966   */\n      dup2\n        /* \"#utility.yul\":6955:6958   */\n      dup6\n        /* \"#utility.yul\":6896:6967   */\n      tag_144\n      jump\t// in\n    tag_143:\n        /* \"#utility.yul\":6889:6967   */\n      swap4\n      pop\n        /* \"#utility.yul\":6976:7028   */\n      tag_145\n        /* \"#utility.yul\":7021:7027   */\n      dup2\n        /* \"#utility.yul\":7016:7019   */\n      dup6\n        /* \"#utility.yul\":7009:7013   */\n      0x20\n        /* \"#utility.yul\":7002:7007   */\n      dup7\n        /* \"#utility.yul\":6998:7014   */\n      add\n        /* \"#utility.yul\":6976:7028   */\n      tag_137\n      jump\t// in\n    tag_145:\n        /* \"#utility.yul\":7053:7082   */\n      tag_146\n        /* \"#utility.yul\":7075:7081   */\n      dup2\n        /* \"#utility.yul\":7053:7082   */\n      tag_139\n      jump\t// in\n    tag_146:\n        /* \"#utility.yul\":7048:7051   */\n      dup5\n        /* \"#utility.yul\":7044:7083   */\n      add\n        /* \"#utility.yul\":7037:7083   */\n      swap2\n      pop\n        /* \"#utility.yul\":6817:7089   */\n      pop\n        /* \"#utility.yul\":6725:7089   */\n      swap3\n      swap2\n      pop\n      pop\n      jump\t// out\n        /* \"#utility.yul\":7095:7213   */\n    tag_147:\n        /* \"#utility.yul\":7182:7206   */\n      tag_149\n        /* \"#utility.yul\":7200:7205   */\n      dup2\n        /* \"#utility.yul\":7182:7206   */\n      tag_150\n      jump\t// in\n    tag_149:\n        /* \"#utility.yul\":7177:7180   */\n      dup3\n        /* \"#utility.yul\":7170:7207   */\n      mstore\n        /* \"#utility.yul\":7095:7213   */\n      pop\n      pop\n      jump\t// out\n        /* \"#utility.yul\":7219:7473   */\n    tag_9:\n        /* \"#utility.yul\":7328:7332   */\n      0x00\n        /* \"#utility.yul\":7366:7368   */\n      0x20\n        /* \"#utility.yul\":7355:7364   */\n      dup3\n        /* \"#utility.yul\":7351:7369   */\n      add\n        /* \"#utility.yul\":7343:7369   */\n      swap1\n      pop\n        /* \"#utility.yul\":7379:7466   */\n      tag_152\n        /* \"#utility.yul\":7463:7464   */\n      0x00\n        /* \"#utility.yul\":7452:7461   */\n      dup4\n        /* \"#utility.yul\":7448:7465   */\n      add\n        /* \"#utility.yul\":7439:7445   */\n      dup5\n        /* \"#utility.yul\":7379:7466   */\n      tag_92\n      jump\t// in\n    tag_152:\n        /* \"#utility.yul\":7219:7473   */\n      swap3\n      swap2\n      pop\n      pop\n      jump\t// out\n        /* \"#utility.yul\":7479:8516   */\n    tag_22:\n        /* \"#utility.yul\":7794:7798   */\n      0x00\n        /* \"#utility.yul\":7832:7835   */\n      0xa0\n        /* \"#utility.yul\":7821:7830   */\n      dup3\n        /* \"#utility.yul\":7817:7836   */\n      add\n        /* \"#utility.yul\":7809:7836   */\n      swap1\n      pop\n        /* \"#utility.yul\":7846:7917   */\n      tag_154\n        /* \"#utility.yul\":7914:7915   */\n      0x00\n        /* \"#utility.yul\":7903:7912   */\n      dup4\n        /* \"#utility.yul\":7899:7916   */\n      add\n        /* \"#utility.yul\":7890:7896   */\n      dup9\n        /* \"#utility.yul\":7846:7917   */\n      tag_96\n      jump\t// in\n    tag_154:\n        /* \"#utility.yul\":7964:7973   */\n      dup2\n        /* \"#utility.yul\":7958:7962   */\n      dup2\n        /* \"#utility.yul\":7954:7974   */\n      sub\n        /* \"#utility.yul\":7949:7951   */\n      0x20\n        /* \"#utility.yul\":7938:7947   */\n      dup4\n        /* \"#utility.yul\":7934:7952   */\n      add\n        /* \"#utility.yul\":7927:7975   */\n      mstore\n        /* \"#utility.yul\":7992:8070   */\n      tag_155\n        /* \"#utility.yul\":8065:8069   */\n      dup2\n        /* \"#utility.yul\":8056:8062   */\n      dup8\n        /* \"#utility.yul\":7992:8070   */\n      tag_140\n      jump\t// in\n    tag_155:\n        /* \"#utility.yul\":7984:8070   */\n      swap1\n      pop\n        /* \"#utility.yul\":8080:8152   */\n      tag_156\n        /* \"#utility.yul\":8148:8150   */\n      0x40\n        /* \"#utility.yul\":8137:8146   */\n      dup4\n        /* \"#utility.yul\":8133:8151   */\n      add\n        /* \"#utility.yul\":8124:8130   */\n      dup7\n        /* \"#utility.yul\":8080:8152   */\n      tag_147\n      jump\t// in\n    tag_156:\n        /* \"#utility.yul\":8199:8208   */\n      dup2\n        /* \"#utility.yul\":8193:8197   */\n      dup2\n        /* \"#utility.yul\":8189:8209   */\n      sub\n        /* \"#utility.yul\":8184:8186   */\n      0x60\n        /* \"#utility.yul\":8173:8182   */\n      dup4\n        /* \"#utility.yul\":8169:8187   */\n      add\n        /* \"#utility.yul\":8162:8210   */\n      mstore\n        /* \"#utility.yul\":8227:8355   */\n      tag_157\n        /* \"#utility.yul\":8350:8354   */\n      dup2\n        /* \"#utility.yul\":8341:8347   */\n      dup6\n        /* \"#utility.yul\":8227:8355   */\n      tag_114\n      jump\t// in\n    tag_157:\n        /* \"#utility.yul\":8219:8355   */\n      swap1\n      pop\n        /* \"#utility.yul\":8403:8412   */\n      dup2\n        /* \"#utility.yul\":8397:8401   */\n      dup2\n        /* \"#utility.yul\":8393:8413   */\n      sub\n        /* \"#utility.yul\":8387:8390   */\n      0x80\n        /* \"#utility.yul\":8376:8385   */\n      dup4\n        /* \"#utility.yul\":8372:8391   */\n      add\n        /* \"#utility.yul\":8365:8414   */\n      mstore\n        /* \"#utility.yul\":8431:8509   */\n      tag_158\n        /* \"#utility.yul\":8504:8508   */\n      dup2\n        /* \"#utility.yul\":8495:8501   */\n      dup5\n        /* \"#utility.yul\":8431:8509   */\n      tag_140\n      jump\t// in\n    tag_158:\n        /* \"#utility.yul\":8423:8509   */\n      swap1\n      pop\n        /* \"#utility.yul\":7479:8516   */\n      swap7\n      swap6\n      pop\n      pop\n      pop\n      pop\n      pop\n      pop\n      jump\t// out\n        /* \"#utility.yul\":8522:8919   */\n    tag_17:\n        /* \"#utility.yul\":8677:8681   */\n      0x00\n        /* \"#utility.yul\":8715:8717   */\n      0x20\n        /* \"#utility.yul\":8704:8713   */\n      dup3\n        /* \"#utility.yul\":8700:8718   */\n      add\n        /* \"#utility.yul\":8692:8718   */\n      swap1\n      pop\n        /* \"#utility.yul\":8764:8773   */\n      dup2\n        /* \"#utility.yul\":8758:8762   */\n      dup2\n        /* \"#utility.yul\":8754:8774   */\n      sub\n        /* \"#utility.yul\":8750:8751   */\n      0x00\n        /* \"#utility.yul\":8739:8748   */\n      dup4\n        /* \"#utility.yul\":8735:8752   */\n      add\n        /* \"#utility.yul\":8728:8775   */\n      mstore\n        /* \"#utility.yul\":8792:8912   */\n      tag_160\n        /* \"#utility.yul\":8907:8911   */\n      dup2\n        /* \"#utility.yul\":8898:8904   */\n      dup5\n        /* \"#utility.yul\":8792:8912   */\n      tag_100\n      jump\t// in\n    tag_160:\n        /* \"#utility.yul\":8784:8912   */\n      swap1\n      pop\n        /* \"#utility.yul\":8522:8919   */\n      swap3\n      swap2\n      pop\n      pop\n      jump\t// out\n        /* \"#utility.yul\":8925:9054   */\n    tag_34:\n        /* \"#utility.yul\":8959:8965   */\n      0x00\n        /* \"#utility.yul\":8986:9006   */\n      tag_162\n      tag_163\n      jump\t// in\n    tag_162:\n        /* \"#utility.yul\":8976:9006   */\n      swap1\n      pop\n        /* \"#utility.yul\":9015:9048   */\n      tag_164\n        /* \"#utility.yul\":9043:9047   */\n      dup3\n        /* \"#utility.yul\":9035:9041   */\n      dup3\n        /* \"#utility.yul\":9015:9048   */\n      tag_165\n      jump\t// in\n    tag_164:\n        /* \"#utility.yul\":8925:9054   */\n      swap2\n      swap1\n      pop\n      jump\t// out\n        /* \"#utility.yul\":9060:9135   */\n    tag_163:\n        /* \"#utility.yul\":9093:9099   */\n      0x00\n        /* \"#utility.yul\":9126:9128   */\n      0x40\n        /* \"#utility.yul\":9120:9129   */\n      mload\n        /* \"#utility.yul\":9110:9129   */\n      swap1\n      pop\n        /* \"#utility.yul\":9060:9135   */\n      swap1\n      jump\t// out\n        /* \"#utility.yul\":9141:9462   */\n    tag_33:\n        /* \"#utility.yul\":9228:9232   */\n      0x00\n        /* \"#utility.yul\":9318:9336   */\n      0xffffffffffffffff\n        /* \"#utility.yul\":9310:9316   */\n      dup3\n        /* \"#utility.yul\":9307:9337   */\n      gt\n        /* \"#utility.yul\":9304:9360   */\n      iszero\n      tag_168\n      jumpi\n        /* \"#utility.yul\":9340:9358   */\n      tag_169\n      tag_170\n      jump\t// in\n    tag_169:\n        /* \"#utility.yul\":9304:9360   */\n    tag_168:\n        /* \"#utility.yul\":9390:9394   */\n      0x20\n        /* \"#utility.yul\":9382:9388   */\n      dup3\n        /* \"#utility.yul\":9378:9395   */\n      mul\n        /* \"#utility.yul\":9370:9395   */\n      swap1\n      pop\n        /* \"#utility.yul\":9450:9454   */\n      0x20\n        /* \"#utility.yul\":9444:9448   */\n      dup2\n        /* \"#utility.yul\":9440:9455   */\n      add\n        /* \"#utility.yul\":9432:9455   */\n      swap1\n      pop\n        /* \"#utility.yul\":9141:9462   */\n      swap2\n      swap1\n      pop\n      jump\t// out\n        /* \"#utility.yul\":9468:9776   */\n    tag_50:\n        /* \"#utility.yul\":9530:9534   */\n      0x00\n        /* \"#utility.yul\":9620:9638   */\n      0xffffffffffffffff\n        /* \"#utility.yul\":9612:9618   */\n      dup3\n        /* \"#utility.yul\":9609:9639   */\n      gt\n        /* \"#utility.yul\":9606:9662   */\n      iszero\n      tag_172\n      jumpi\n        /* \"#utility.yul\":9642:9660   */\n      tag_173\n      tag_170\n      jump\t// in\n    tag_173:\n        /* \"#utility.yul\":9606:9662   */\n    tag_172:\n        /* \"#utility.yul\":9680:9709   */\n      tag_174\n        /* \"#utility.yul\":9702:9708   */\n      dup3\n        /* \"#utility.yul\":9680:9709   */\n      tag_139\n      jump\t// in\n    tag_174:\n        /* \"#utility.yul\":9672:9709   */\n      swap1\n      pop\n        /* \"#utility.yul\":9764:9768   */\n      0x20\n        /* \"#utility.yul\":9758:9762   */\n      dup2\n        /* \"#utility.yul\":9754:9769   */\n      add\n        /* \"#utility.yul\":9746:9769   */\n      swap1\n      pop\n        /* \"#utility.yul\":9468:9776   */\n      swap2\n      swap1\n      pop\n      jump\t// out\n        /* \"#utility.yul\":9782:9926   */\n    tag_107:\n        /* \"#utility.yul\":9861:9865   */\n      0x00\n        /* \"#utility.yul\":9884:9887   */\n      dup2\n        /* \"#utility.yul\":9876:9887   */\n      swap1\n      pop\n        /* \"#utility.yul\":9914:9918   */\n      0x20\n        /* \"#utility.yul\":9909:9912   */\n      dup3\n        /* \"#utility.yul\":9905:9919   */\n      add\n        /* \"#utility.yul\":9897:9919   */\n      swap1\n      pop\n        /* \"#utility.yul\":9782:9926   */\n      swap2\n      swap1\n      pop\n      jump\t// out\n        /* \"#utility.yul\":9932:10074   */\n    tag_121:\n        /* \"#utility.yul\":10009:10013   */\n      0x00\n        /* \"#utility.yul\":10032:10035   */\n      dup2\n        /* \"#utility.yul\":10024:10035   */\n      swap1\n      pop\n        /* \"#utility.yul\":10062:10066   */\n      0x20\n        /* \"#utility.yul\":10057:10060   */\n      dup3\n        /* \"#utility.yul\":10053:10067   */\n      add\n        /* \"#utility.yul\":10045:10067   */\n      swap1\n      pop\n        /* \"#utility.yul\":9932:10074   */\n      swap2\n      swap1\n      pop\n      jump\t// out\n        /* \"#utility.yul\":10080:10206   */\n    tag_103:\n        /* \"#utility.yul\":10159:10165   */\n      0x00\n        /* \"#utility.yul\":10193:10198   */\n      dup2\n        /* \"#utility.yul\":10187:10199   */\n      mload\n        /* \"#utility.yul\":10177:10199   */\n      swap1\n      pop\n        /* \"#utility.yul\":10080:10206   */\n      swap2\n      swap1\n      pop\n      jump\t// out\n        /* \"#utility.yul\":10212:10336   */\n    tag_117:\n        /* \"#utility.yul\":10289:10295   */\n      0x00\n        /* \"#utility.yul\":10323:10328   */\n      dup2\n        /* \"#utility.yul\":10317:10329   */\n      mload\n        /* \"#utility.yul\":10307:10329   */\n      swap1\n      pop\n        /* \"#utility.yul\":10212:10336   */\n      swap2\n      swap1\n      pop\n      jump\t// out\n        /* \"#utility.yul\":10342:10441   */\n    tag_133:\n        /* \"#utility.yul\":10394:10400   */\n      0x00\n        /* \"#utility.yul\":10428:10433   */\n      dup2\n        /* \"#utility.yul\":10422:10434   */\n      mload\n        /* \"#utility.yul\":10412:10434   */\n      swap1\n      pop\n        /* \"#utility.yul\":10342:10441   */\n      swap2\n      swap1\n      pop\n      jump\t// out\n        /* \"#utility.yul\":10447:10572   */\n    tag_113:\n        /* \"#utility.yul\":10529:10533   */\n      0x00\n        /* \"#utility.yul\":10561:10565   */\n      0x20\n        /* \"#utility.yul\":10556:10559   */\n      dup3\n        /* \"#utility.yul\":10552:10566   */\n      add\n        /* \"#utility.yul\":10544:10566   */\n      swap1\n      pop\n        /* \"#utility.yul\":10447:10572   */\n      swap2\n      swap1\n      pop\n      jump\t// out\n        /* \"#utility.yul\":10578:10701   */\n    tag_127:\n        /* \"#utility.yul\":10658:10662   */\n      0x00\n        /* \"#utility.yul\":10690:10694   */\n      0x20\n        /* \"#utility.yul\":10685:10688   */\n      dup3\n        /* \"#utility.yul\":10681:10695   */\n      add\n        /* \"#utility.yul\":10673:10695   */\n      swap1\n      pop\n        /* \"#utility.yul\":10578:10701   */\n      swap2\n      swap1\n      pop\n      jump\t// out\n        /* \"#utility.yul\":10707:10891   */\n    tag_105:\n        /* \"#utility.yul\":10806:10817   */\n      0x00\n        /* \"#utility.yul\":10840:10846   */\n      dup3\n        /* \"#utility.yul\":10835:10838   */\n      dup3\n        /* \"#utility.yul\":10828:10847   */\n      mstore\n        /* \"#utility.yul\":10880:10884   */\n      0x20\n        /* \"#utility.yul\":10875:10878   */\n      dup3\n        /* \"#utility.yul\":10871:10885   */\n      add\n        /* \"#utility.yul\":10856:10885   */\n      swap1\n      pop\n        /* \"#utility.yul\":10707:10891   */\n      swap3\n      swap2\n      pop\n      pop\n      jump\t// out\n        /* \"#utility.yul\":10897:11091   */\n    tag_119:\n        /* \"#utility.yul\":11006:11017   */\n      0x00\n        /* \"#utility.yul\":11040:11046   */\n      dup3\n        /* \"#utility.yul\":11035:11038   */\n      dup3\n        /* \"#utility.yul\":11028:11047   */\n      mstore\n        /* \"#utility.yul\":11080:11084   */\n      0x20\n        /* \"#utility.yul\":11075:11078   */\n      dup3\n        /* \"#utility.yul\":11071:11085   */\n      add\n        /* \"#utility.yul\":11056:11085   */\n      swap1\n      pop\n        /* \"#utility.yul\":10897:11091   */\n      swap3\n      swap2\n      pop\n      pop\n      jump\t// out\n        /* \"#utility.yul\":11097:11256   */\n    tag_135:\n        /* \"#utility.yul\":11171:11182   */\n      0x00\n        /* \"#utility.yul\":11205:11211   */\n      dup3\n        /* \"#utility.yul\":11200:11203   */\n      dup3\n        /* \"#utility.yul\":11193:11212   */\n      mstore\n        /* \"#utility.yul\":11245:11249   */\n      0x20\n        /* \"#utility.yul\":11240:11243   */\n      dup3\n        /* \"#utility.yul\":11236:11250   */\n      add\n        /* \"#utility.yul\":11221:11250   */\n      swap1\n      pop\n        /* \"#utility.yul\":11097:11256   */\n      swap3\n      swap2\n      pop\n      pop\n      jump\t// out\n        /* \"#utility.yul\":11262:11431   */\n    tag_144:\n        /* \"#utility.yul\":11346:11357   */\n      0x00\n        /* \"#utility.yul\":11380:11386   */\n      dup3\n        /* \"#utility.yul\":11375:11378   */\n      dup3\n        /* \"#utility.yul\":11368:11387   */\n      mstore\n        /* \"#utility.yul\":11420:11424   */\n      0x20\n        /* \"#utility.yul\":11415:11418   */\n      dup3\n        /* \"#utility.yul\":11411:11425   */\n      add\n        /* \"#utility.yul\":11396:11425   */\n      swap1\n      pop\n        /* \"#utility.yul\":11262:11431   */\n      swap3\n      swap2\n      pop\n      pop\n      jump\t// out\n        /* \"#utility.yul\":11437:11533   */\n    tag_99:\n        /* \"#utility.yul\":11474:11481   */\n      0x00\n        /* \"#utility.yul\":11503:11527   */\n      tag_187\n        /* \"#utility.yul\":11521:11526   */\n      dup3\n        /* \"#utility.yul\":11503:11527   */\n      tag_188\n      jump\t// in\n    tag_187:\n        /* \"#utility.yul\":11492:11527   */\n      swap1\n      pop\n        /* \"#utility.yul\":11437:11533   */\n      swap2\n      swap1\n      pop\n      jump\t// out\n        /* \"#utility.yul\":11539:11643   */\n    tag_95:\n        /* \"#utility.yul\":11584:11591   */\n      0x00\n        /* \"#utility.yul\":11613:11637   */\n      tag_190\n        /* \"#utility.yul\":11631:11636   */\n      dup3\n        /* \"#utility.yul\":11613:11637   */\n      tag_188\n      jump\t// in\n    tag_190:\n        /* \"#utility.yul\":11602:11637   */\n      swap1\n      pop\n        /* \"#utility.yul\":11539:11643   */\n      swap2\n      swap1\n      pop\n      jump\t// out\n        /* \"#utility.yul\":11649:11775   */\n    tag_188:\n        /* \"#utility.yul\":11686:11693   */\n      0x00\n        /* \"#utility.yul\":11726:11768   */\n      0xffffffffffffffffffffffffffffffffffffffff\n        /* \"#utility.yul\":11719:11724   */\n      dup3\n        /* \"#utility.yul\":11715:11769   */\n      and\n        /* \"#utility.yul\":11704:11769   */\n      swap1\n      pop\n        /* \"#utility.yul\":11649:11775   */\n      swap2\n      swap1\n      pop\n      jump\t// out\n        /* \"#utility.yul\":11781:11858   */\n    tag_150:\n        /* \"#utility.yul\":11818:11825   */\n      0x00\n        /* \"#utility.yul\":11847:11852   */\n      dup2\n        /* \"#utility.yul\":11836:11852   */\n      swap1\n      pop\n        /* \"#utility.yul\":11781:11858   */\n      swap2\n      swap1\n      pop\n      jump\t// out\n        /* \"#utility.yul\":11864:12002   */\n    tag_130:\n        /* \"#utility.yul\":11926:11935   */\n      0x00\n        /* \"#utility.yul\":11959:11996   */\n      tag_194\n        /* \"#utility.yul\":11990:11995   */\n      dup3\n        /* \"#utility.yul\":11959:11996   */\n      tag_195\n      jump\t// in\n    tag_194:\n        /* \"#utility.yul\":11946:11996   */\n      swap1\n      pop\n        /* \"#utility.yul\":11864:12002   */\n      swap2\n      swap1\n      pop\n      jump\t// out\n        /* \"#utility.yul\":12008:12134   */\n    tag_195:\n        /* \"#utility.yul\":12058:12067   */\n      0x00\n        /* \"#utility.yul\":12091:12128   */\n      tag_197\n        /* \"#utility.yul\":12122:12127   */\n      dup3\n        /* \"#utility.yul\":12091:12128   */\n      tag_198\n      jump\t// in\n    tag_197:\n        /* \"#utility.yul\":12078:12128   */\n      swap1\n      pop\n        /* \"#utility.yul\":12008:12134   */\n      swap2\n      swap1\n      pop\n      jump\t// out\n        /* \"#utility.yul\":12140:12253   */\n    tag_198:\n        /* \"#utility.yul\":12190:12199   */\n      0x00\n        /* \"#utility.yul\":12223:12247   */\n      tag_200\n        /* \"#utility.yul\":12241:12246   */\n      dup3\n        /* \"#utility.yul\":12223:12247   */\n      tag_188\n      jump\t// in\n    tag_200:\n        /* \"#utility.yul\":12210:12247   */\n      swap1\n      pop\n        /* \"#utility.yul\":12140:12253   */\n      swap2\n      swap1\n      pop\n      jump\t// out\n        /* \"#utility.yul\":12259:12413   */\n    tag_55:\n        /* \"#utility.yul\":12343:12349   */\n      dup3\n        /* \"#utility.yul\":12338:12341   */\n      dup2\n        /* \"#utility.yul\":12333:12336   */\n      dup4\n        /* \"#utility.yul\":12320:12350   */\n      calldatacopy\n        /* \"#utility.yul\":12405:12406   */\n      0x00\n        /* \"#utility.yul\":12396:12402   */\n      dup4\n        /* \"#utility.yul\":12391:12394   */\n      dup4\n        /* \"#utility.yul\":12387:12403   */\n      add\n        /* \"#utility.yul\":12380:12407   */\n      mstore\n        /* \"#utility.yul\":12259:12413   */\n      pop\n      pop\n      pop\n      jump\t// out\n        /* \"#utility.yul\":12419:12726   */\n    tag_137:\n        /* \"#utility.yul\":12487:12488   */\n      0x00\n        /* \"#utility.yul\":12497:12610   */\n    tag_203:\n        /* \"#utility.yul\":12511:12517   */\n      dup4\n        /* \"#utility.yul\":12508:12509   */\n      dup2\n        /* \"#utility.yul\":12505:12518   */\n      lt\n        /* \"#utility.yul\":12497:12610   */\n      iszero\n      tag_205\n      jumpi\n        /* \"#utility.yul\":12596:12597   */\n      dup1\n        /* \"#utility.yul\":12591:12594   */\n      dup3\n        /* \"#utility.yul\":12587:12598   */\n      add\n        /* \"#utility.yul\":12581:12599   */\n      mload\n        /* \"#utility.yul\":12577:12578   */\n      dup2\n        /* \"#utility.yul\":12572:12575   */\n      dup5\n        /* \"#utility.yul\":12568:12579   */\n      add\n        /* \"#utility.yul\":12561:12600   */\n      mstore\n        /* \"#utility.yul\":12533:12535   */\n      0x20\n        /* \"#utility.yul\":12530:12531   */\n      dup2\n        /* \"#utility.yul\":12526:12536   */\n      add\n        /* \"#utility.yul\":12521:12536   */\n      swap1\n      pop\n        /* \"#utility.yul\":12497:12610   */\n      jump(tag_203)\n    tag_205:\n        /* \"#utility.yul\":12628:12634   */\n      dup4\n        /* \"#utility.yul\":12625:12626   */\n      dup2\n        /* \"#utility.yul\":12622:12635   */\n      gt\n        /* \"#utility.yul\":12619:12720   */\n      iszero\n      tag_206\n      jumpi\n        /* \"#utility.yul\":12708:12709   */\n      0x00\n        /* \"#utility.yul\":12699:12705   */\n      dup5\n        /* \"#utility.yul\":12694:12697   */\n      dup5\n        /* \"#utility.yul\":12690:12706   */\n      add\n        /* \"#utility.yul\":12683:12710   */\n      mstore\n        /* \"#utility.yul\":12619:12720   */\n    tag_206:\n        /* \"#utility.yul\":12468:12726   */\n      pop\n        /* \"#utility.yul\":12419:12726   */\n      pop\n      pop\n      pop\n      jump\t// out\n        /* \"#utility.yul\":12732:13013   */\n    tag_165:\n        /* \"#utility.yul\":12815:12842   */\n      tag_208\n        /* \"#utility.yul\":12837:12841   */\n      dup3\n        /* \"#utility.yul\":12815:12842   */\n      tag_139\n      jump\t// in\n    tag_208:\n        /* \"#utility.yul\":12807:12813   */\n      dup2\n        /* \"#utility.yul\":12803:12843   */\n      add\n        /* \"#utility.yul\":12945:12951   */\n      dup2\n        /* \"#utility.yul\":12933:12943   */\n      dup2\n        /* \"#utility.yul\":12930:12952   */\n      lt\n        /* \"#utility.yul\":12909:12927   */\n      0xffffffffffffffff\n        /* \"#utility.yul\":12897:12907   */\n      dup3\n        /* \"#utility.yul\":12894:12928   */\n      gt\n        /* \"#utility.yul\":12891:12953   */\n      or\n        /* \"#utility.yul\":12888:12976   */\n      iszero\n      tag_209\n      jumpi\n        /* \"#utility.yul\":12956:12974   */\n      tag_210\n      tag_170\n      jump\t// in\n    tag_210:\n        /* \"#utility.yul\":12888:12976   */\n    tag_209:\n        /* \"#utility.yul\":12996:13006   */\n      dup1\n        /* \"#utility.yul\":12992:12994   */\n      0x40\n        /* \"#utility.yul\":12985:13007   */\n      mstore\n        /* \"#utility.yul\":12775:13013   */\n      pop\n        /* \"#utility.yul\":12732:13013   */\n      pop\n      pop\n      jump\t// out\n        /* \"#utility.yul\":13019:13199   */\n    tag_170:\n        /* \"#utility.yul\":13067:13144   */\n      0x4e487b7100000000000000000000000000000000000000000000000000000000\n        /* \"#utility.yul\":13064:13065   */\n      0x00\n        /* \"#utility.yul\":13057:13145   */\n      mstore\n        /* \"#utility.yul\":13164:13168   */\n      0x41\n        /* \"#utility.yul\":13161:13162   */\n      0x04\n        /* \"#utility.yul\":13154:13169   */\n      mstore\n        /* \"#utility.yul\":13188:13192   */\n      0x24\n        /* \"#utility.yul\":13185:13186   */\n      0x00\n        /* \"#utility.yul\":13178:13193   */\n      revert\n        /* \"#utility.yul\":13205:13322   */\n    tag_43:\n        /* \"#utility.yul\":13314:13315   */\n      0x00\n        /* \"#utility.yul\":13311:13312   */\n      dup1\n        /* \"#utility.yul\":13304:13316   */\n      revert\n        /* \"#utility.yul\":13328:13445   */\n    tag_37:\n        /* \"#utility.yul\":13437:13438   */\n      0x00\n        /* \"#utility.yul\":13434:13435   */\n      dup1\n        /* \"#utility.yul\":13427:13439   */\n      revert\n        /* \"#utility.yul\":13451:13568   */\n    tag_53:\n        /* \"#utility.yul\":13560:13561   */\n      0x00\n        /* \"#utility.yul\":13557:13558   */\n      dup1\n        /* \"#utility.yul\":13550:13562   */\n      revert\n        /* \"#utility.yul\":13574:13691   */\n    tag_75:\n        /* \"#utility.yul\":13683:13684   */\n      0x00\n        /* \"#utility.yul\":13680:13681   */\n      dup1\n        /* \"#utility.yul\":13673:13685   */\n      revert\n        /* \"#utility.yul\":13697:13814   */\n    tag_72:\n        /* \"#utility.yul\":13806:13807   */\n      0x00\n        /* \"#utility.yul\":13803:13804   */\n      dup1\n        /* \"#utility.yul\":13796:13808   */\n      revert\n        /* \"#utility.yul\":13820:13922   */\n    tag_139:\n        /* \"#utility.yul\":13861:13867   */\n      0x00\n        /* \"#utility.yul\":13912:13914   */\n      0x1f\n        /* \"#utility.yul\":13908:13915   */\n      not\n        /* \"#utility.yul\":13903:13905   */\n      0x1f\n        /* \"#utility.yul\":13896:13901   */\n      dup4\n        /* \"#utility.yul\":13892:13906   */\n      add\n        /* \"#utility.yul\":13888:13916   */\n      and\n        /* \"#utility.yul\":13878:13916   */\n      swap1\n      pop\n        /* \"#utility.yul\":13820:13922   */\n      swap2\n      swap1\n      pop\n      jump\t// out\n        /* \"#utility.yul\":13928:14050   */\n    tag_68:\n        /* \"#utility.yul\":14001:14025   */\n      tag_219\n        /* \"#utility.yul\":14019:14024   */\n      dup2\n        /* \"#utility.yul\":14001:14025   */\n      tag_150\n      jump\t// in\n    tag_219:\n        /* \"#utility.yul\":13994:13999   */\n      dup2\n        /* \"#utility.yul\":13991:14026   */\n      eq\n        /* \"#utility.yul\":13981:14044   */\n      tag_220\n      jumpi\n        /* \"#utility.yul\":14040:14041   */\n      0x00\n        /* \"#utility.yul\":14037:14038   */\n      dup1\n        /* \"#utility.yul\":14030:14042   */\n      revert\n        /* \"#utility.yul\":13981:14044   */\n    tag_220:\n        /* \"#utility.yul\":13928:14050   */\n      pop\n      jump\t// out\n    stop\n\n    sub_0: assembly {\n            /* \"contracts/pollio.sol\":776:3067  contract Poll {... */\n          mstore(0x40, 0x80)\n            /* \"contracts/pollio.sol\":1176:1870  constructor (... */\n          callvalue\n          dup1\n          iszero\n          tag_1\n          jumpi\n          0x00\n          dup1\n          revert\n        tag_1:\n          pop\n          mload(0x40)\n          sub(codesize, bytecodeSize)\n          dup1\n          bytecodeSize\n          dup4\n          codecopy\n          dup2\n          dup2\n          add\n          0x40\n          mstore\n          dup2\n          add\n          swap1\n          tag_2\n          swap2\n          swap1\n          tag_3\n          jump\t// in\n        tag_2:\n            /* \"contracts/pollio.sol\":1373:1376  eoa */\n          dup5\n            /* \"contracts/pollio.sol\":1359:1362  org */\n          0x00\n          dup1\n            /* \"contracts/pollio.sol\":1359:1377  org = payable(eoa) */\n          0x0100\n          exp\n          dup2\n          sload\n          dup2\n          0xffffffffffffffffffffffffffffffffffffffff\n          mul\n          not\n          and\n          swap1\n          dup4\n          0xffffffffffffffffffffffffffffffffffffffff\n          and\n          mul\n          or\n          swap1\n          sstore\n          pop\n            /* \"contracts/pollio.sol\":1398:1407  _pollName */\n          dup4\n            /* \"contracts/pollio.sol\":1387:1395  pollName */\n          0x01\n            /* \"contracts/pollio.sol\":1387:1407  pollName = _pollName */\n          swap1\n          dup1\n          mload\n          swap1\n          0x20\n          add\n          swap1\n          tag_6\n          swap3\n          swap2\n          swap1\n          tag_7\n          jump\t// in\n        tag_6:\n          pop\n            /* \"contracts/pollio.sol\":1430:1441  _candidates */\n          dup2\n            /* \"contracts/pollio.sol\":1417:1427  candidates */\n          0x02\n            /* \"contracts/pollio.sol\":1417:1441  candidates = _candidates */\n          swap1\n          dup1\n          mload\n          swap1\n          0x20\n          add\n          swap1\n          tag_8\n          swap3\n          swap2\n          swap1\n          tag_9\n          jump\t// in\n        tag_8:\n          pop\n            /* \"contracts/pollio.sol\":1464:1476  block.number */\n          number\n            /* \"contracts/pollio.sol\":1451:1461  startBlock */\n          0x03\n            /* \"contracts/pollio.sol\":1451:1476  startBlock = block.number */\n          dup2\n          swap1\n          sstore\n          pop\n            /* \"contracts/pollio.sol\":1510:1522  pollDuration */\n          dup3\n            /* \"contracts/pollio.sol\":1497:1507  startBlock */\n          sload(0x03)\n            /* \"contracts/pollio.sol\":1497:1522  startBlock + pollDuration */\n          tag_10\n          swap2\n          swap1\n          tag_11\n          jump\t// in\n        tag_10:\n            /* \"contracts/pollio.sol\":1486:1494  endBlock */\n          0x04\n            /* \"contracts/pollio.sol\":1486:1522  endBlock = startBlock + pollDuration */\n          dup2\n          swap1\n          sstore\n          pop\n            /* \"contracts/pollio.sol\":1544:1557  State.Running */\n          0x01\n            /* \"contracts/pollio.sol\":1532:1541  pollState */\n          0x05\n          0x01\n            /* \"contracts/pollio.sol\":1532:1557  pollState = State.Running */\n          0x0100\n          exp\n          dup2\n          sload\n          dup2\n          0xff\n          mul\n          not\n          and\n          swap1\n          dup4\n          0x03\n          dup2\n          gt\n          iszero\n          tag_12\n          jumpi\n          tag_13\n          tag_14\n          jump\t// in\n        tag_13:\n        tag_12:\n          mul\n          or\n          swap1\n          sstore\n          pop\n            /* \"contracts/pollio.sol\":1626:1654  abi.encodePacked((\"Public\")) */\n          add(0x20, mload(0x40))\n          tag_15\n          swap1\n          tag_16\n          jump\t// in\n        tag_15:\n          mload(0x40)\n          0x20\n          dup2\n          dup4\n          sub\n          sub\n          dup2\n          mstore\n          swap1\n          0x40\n          mstore\n            /* \"contracts/pollio.sol\":1616:1655  keccak256(abi.encodePacked((\"Public\"))) */\n          dup1\n          mload\n          swap1\n          0x20\n          add\n          keccak256\n            /* \"contracts/pollio.sol\":1600:1609  _pollType */\n          dup2\n            /* \"contracts/pollio.sol\":1582:1611  abi.encodePacked((_pollType)) */\n          add(0x20, mload(0x40))\n          tag_17\n          swap2\n          swap1\n          tag_18\n          jump\t// in\n        tag_17:\n          mload(0x40)\n          0x20\n          dup2\n          dup4\n          sub\n          sub\n          dup2\n          mstore\n          swap1\n          0x40\n          mstore\n            /* \"contracts/pollio.sol\":1572:1612  keccak256(abi.encodePacked((_pollType))) */\n          dup1\n          mload\n          swap1\n          0x20\n          add\n          keccak256\n            /* \"contracts/pollio.sol\":1572:1655  keccak256(abi.encodePacked((_pollType))) == keccak256(abi.encodePacked((\"Public\"))) */\n          eq\n            /* \"contracts/pollio.sol\":1568:1759  if (keccak256(abi.encodePacked((_pollType))) == keccak256(abi.encodePacked((\"Public\")))) {... */\n          iszero\n          tag_19\n          jumpi\n            /* \"contracts/pollio.sol\":1682:1693  Type.Public */\n          0x00\n            /* \"contracts/pollio.sol\":1671:1679  pollType */\n          0x05\n          0x00\n            /* \"contracts/pollio.sol\":1671:1693  pollType = Type.Public */\n          0x0100\n          exp\n          dup2\n          sload\n          dup2\n          0xff\n          mul\n          not\n          and\n          swap1\n          dup4\n          0x01\n          dup2\n          gt\n          iszero\n          tag_20\n          jumpi\n          tag_21\n          tag_14\n          jump\t// in\n        tag_21:\n        tag_20:\n          mul\n          or\n          swap1\n          sstore\n          pop\n            /* \"contracts/pollio.sol\":1568:1759  if (keccak256(abi.encodePacked((_pollType))) == keccak256(abi.encodePacked((\"Public\")))) {... */\n          jump(tag_22)\n        tag_19:\n            /* \"contracts/pollio.sol\":1736:1748  Type.Private */\n          0x01\n            /* \"contracts/pollio.sol\":1724:1748  pollType == Type.Private */\n          dup1\n          dup2\n          gt\n          iszero\n          tag_23\n          jumpi\n          tag_24\n          tag_14\n          jump\t// in\n        tag_24:\n        tag_23:\n            /* \"contracts/pollio.sol\":1724:1732  pollType */\n          0x05\n          0x00\n          swap1\n          sload\n          swap1\n          0x0100\n          exp\n          swap1\n          div\n          0xff\n          and\n            /* \"contracts/pollio.sol\":1724:1748  pollType == Type.Private */\n          0x01\n          dup2\n          gt\n          iszero\n          tag_25\n          jumpi\n          tag_26\n          tag_14\n          jump\t// in\n        tag_26:\n        tag_25:\n          pop\n          pop\n            /* \"contracts/pollio.sol\":1568:1759  if (keccak256(abi.encodePacked((_pollType))) == keccak256(abi.encodePacked((\"Public\")))) {... */\n        tag_22:\n            /* \"contracts/pollio.sol\":1774:1780  uint i */\n          0x00\n            /* \"contracts/pollio.sol\":1769:1864  for (uint i = 0; i < candidates.length; i++) {... */\n        tag_27:\n            /* \"contracts/pollio.sol\":1790:1800  candidates */\n          0x02\n            /* \"contracts/pollio.sol\":1790:1807  candidates.length */\n          dup1\n          sload\n          swap1\n          pop\n            /* \"contracts/pollio.sol\":1786:1787  i */\n          dup2\n            /* \"contracts/pollio.sol\":1786:1807  i < candidates.length */\n          lt\n            /* \"contracts/pollio.sol\":1769:1864  for (uint i = 0; i < candidates.length; i++) {... */\n          iszero\n          tag_28\n          jumpi\n            /* \"contracts/pollio.sol\":1852:1853  0 */\n          0x00\n            /* \"contracts/pollio.sol\":1828:1834  result */\n          0x07\n            /* \"contracts/pollio.sol\":1835:1845  candidates */\n          0x02\n            /* \"contracts/pollio.sol\":1846:1847  i */\n          dup4\n            /* \"contracts/pollio.sol\":1835:1848  candidates[i] */\n          dup2\n          sload\n          dup2\n          lt\n          tag_30\n          jumpi\n          tag_31\n          tag_32\n          jump\t// in\n        tag_31:\n        tag_30:\n          swap1\n          0x00\n          mstore\n          keccak256(0x00, 0x20)\n          add\n            /* \"contracts/pollio.sol\":1828:1849  result[candidates[i]] */\n          mload(0x40)\n          tag_34\n          swap2\n          swap1\n          tag_35\n          jump\t// in\n        tag_34:\n          swap1\n          dup2\n          mstore\n          0x20\n          add\n          mload(0x40)\n          dup1\n          swap2\n          sub\n          swap1\n          keccak256\n            /* \"contracts/pollio.sol\":1828:1853  result[candidates[i]] = 0 */\n          dup2\n          swap1\n          sstore\n          pop\n            /* \"contracts/pollio.sol\":1809:1812  i++ */\n          dup1\n          dup1\n          tag_36\n          swap1\n          tag_37\n          jump\t// in\n        tag_36:\n          swap2\n          pop\n          pop\n            /* \"contracts/pollio.sol\":1769:1864  for (uint i = 0; i < candidates.length; i++) {... */\n          jump(tag_27)\n        tag_28:\n          pop\n            /* \"contracts/pollio.sol\":1176:1870  constructor (... */\n          pop\n          pop\n          pop\n          pop\n          pop\n            /* \"contracts/pollio.sol\":776:3067  contract Poll {... */\n          jump(tag_38)\n        tag_7:\n          dup3\n          dup1\n          sload\n          tag_39\n          swap1\n          tag_40\n          jump\t// in\n        tag_39:\n          swap1\n          0x00\n          mstore\n          keccak256(0x00, 0x20)\n          swap1\n          0x1f\n          add\n          0x20\n          swap1\n          div\n          dup2\n          add\n          swap3\n          dup3\n          tag_42\n          jumpi\n          0x00\n          dup6\n          sstore\n          jump(tag_41)\n        tag_42:\n          dup3\n          0x1f\n          lt\n          tag_43\n          jumpi\n          dup1\n          mload\n          not(0xff)\n          and\n          dup4\n          dup1\n          add\n          or\n          dup6\n          sstore\n          jump(tag_41)\n        tag_43:\n          dup3\n          dup1\n          add\n          0x01\n          add\n          dup6\n          sstore\n          dup3\n          iszero\n          tag_41\n          jumpi\n          swap2\n          dup3\n          add\n        tag_44:\n          dup3\n          dup2\n          gt\n          iszero\n          tag_45\n          jumpi\n          dup3\n          mload\n          dup3\n          sstore\n          swap2\n          0x20\n          add\n          swap2\n          swap1\n          0x01\n          add\n          swap1\n          jump(tag_44)\n        tag_45:\n        tag_41:\n          pop\n          swap1\n          pop\n          tag_46\n          swap2\n          swap1\n          tag_47\n          jump\t// in\n        tag_46:\n          pop\n          swap1\n          jump\t// out\n        tag_9:\n          dup3\n          dup1\n          sload\n          dup3\n          dup3\n          sstore\n          swap1\n          0x00\n          mstore\n          keccak256(0x00, 0x20)\n          swap1\n          dup2\n          add\n          swap3\n          dup3\n          iszero\n          tag_48\n          jumpi\n          swap2\n          0x20\n          mul\n          dup3\n          add\n        tag_49:\n          dup3\n          dup2\n          gt\n          iszero\n          tag_50\n          jumpi\n          dup3\n          mload\n          dup3\n          swap1\n          dup1\n          mload\n          swap1\n          0x20\n          add\n          swap1\n          tag_51\n          swap3\n          swap2\n          swap1\n          tag_7\n          jump\t// in\n        tag_51:\n          pop\n          swap2\n          0x20\n          add\n          swap2\n          swap1\n          0x01\n          add\n          swap1\n          jump(tag_49)\n        tag_50:\n        tag_48:\n          pop\n          swap1\n          pop\n          tag_52\n          swap2\n          swap1\n          tag_53\n          jump\t// in\n        tag_52:\n          pop\n          swap1\n          jump\t// out\n        tag_47:\n        tag_54:\n          dup1\n          dup3\n          gt\n          iszero\n          tag_55\n          jumpi\n          0x00\n          dup2\n          0x00\n          swap1\n          sstore\n          pop\n          0x01\n          add\n          jump(tag_54)\n        tag_55:\n          pop\n          swap1\n          jump\t// out\n        tag_53:\n        tag_56:\n          dup1\n          dup3\n          gt\n          iszero\n          tag_57\n          jumpi\n          0x00\n          dup2\n          dup2\n          tag_58\n          swap2\n          swap1\n          tag_59\n          jump\t// in\n        tag_58:\n          pop\n          0x01\n          add\n          jump(tag_56)\n        tag_57:\n          pop\n          swap1\n          jump\t// out\n        tag_59:\n          pop\n          dup1\n          sload\n          tag_60\n          swap1\n          tag_40\n          jump\t// in\n        tag_60:\n          0x00\n          dup3\n          sstore\n          dup1\n          0x1f\n          lt\n          tag_62\n          jumpi\n          pop\n          jump(tag_61)\n        tag_62:\n          0x1f\n          add\n          0x20\n          swap1\n          div\n          swap1\n          0x00\n          mstore\n          keccak256(0x00, 0x20)\n          swap1\n          dup2\n          add\n          swap1\n          tag_63\n          swap2\n          swap1\n          tag_47\n          jump\t// in\n        tag_63:\n        tag_61:\n          pop\n          jump\t// out\n            /* \"#utility.yul\":23:995   */\n        tag_65:\n            /* \"#utility.yul\":140:145   */\n          0x00\n            /* \"#utility.yul\":165:256   */\n          tag_67\n            /* \"#utility.yul\":181:255   */\n          tag_68\n            /* \"#utility.yul\":248:254   */\n          dup5\n            /* \"#utility.yul\":181:255   */\n          tag_69\n          jump\t// in\n        tag_68:\n            /* \"#utility.yul\":165:256   */\n          tag_70\n          jump\t// in\n        tag_67:\n            /* \"#utility.yul\":156:256   */\n          swap1\n          pop\n            /* \"#utility.yul\":276:281   */\n          dup1\n            /* \"#utility.yul\":305:311   */\n          dup4\n            /* \"#utility.yul\":298:303   */\n          dup3\n            /* \"#utility.yul\":291:312   */\n          mstore\n            /* \"#utility.yul\":339:343   */\n          0x20\n            /* \"#utility.yul\":332:337   */\n          dup3\n            /* \"#utility.yul\":328:344   */\n          add\n            /* \"#utility.yul\":321:344   */\n          swap1\n          pop\n            /* \"#utility.yul\":365:371   */\n          dup3\n            /* \"#utility.yul\":415:418   */\n          dup6\n            /* \"#utility.yul\":407:411   */\n          0x20\n            /* \"#utility.yul\":399:405   */\n          dup7\n            /* \"#utility.yul\":395:412   */\n          mul\n            /* \"#utility.yul\":390:393   */\n          dup3\n            /* \"#utility.yul\":386:413   */\n          add\n            /* \"#utility.yul\":383:419   */\n          gt\n            /* \"#utility.yul\":380:523   */\n          iszero\n          tag_71\n          jumpi\n            /* \"#utility.yul\":434:513   */\n          tag_72\n          tag_73\n          jump\t// in\n        tag_72:\n            /* \"#utility.yul\":380:523   */\n        tag_71:\n            /* \"#utility.yul\":547:548   */\n          0x00\n            /* \"#utility.yul\":532:989   */\n        tag_74:\n            /* \"#utility.yul\":557:563   */\n          dup6\n            /* \"#utility.yul\":554:555   */\n          dup2\n            /* \"#utility.yul\":551:564   */\n          lt\n            /* \"#utility.yul\":532:989   */\n          iszero\n          tag_76\n          jumpi\n            /* \"#utility.yul\":632:635   */\n          dup2\n            /* \"#utility.yul\":626:636   */\n          mload\n            /* \"#utility.yul\":668:686   */\n          0xffffffffffffffff\n            /* \"#utility.yul\":655:666   */\n          dup2\n            /* \"#utility.yul\":652:687   */\n          gt\n            /* \"#utility.yul\":649:771   */\n          iszero\n          tag_77\n          jumpi\n            /* \"#utility.yul\":690:769   */\n          tag_78\n          tag_79\n          jump\t// in\n        tag_78:\n            /* \"#utility.yul\":649:771   */\n        tag_77:\n            /* \"#utility.yul\":814:825   */\n          dup1\n            /* \"#utility.yul\":806:812   */\n          dup7\n            /* \"#utility.yul\":802:826   */\n          add\n            /* \"#utility.yul\":852:910   */\n          tag_80\n            /* \"#utility.yul\":906:909   */\n          dup10\n            /* \"#utility.yul\":894:904   */\n          dup3\n            /* \"#utility.yul\":852:910   */\n          tag_81\n          jump\t// in\n        tag_80:\n            /* \"#utility.yul\":847:850   */\n          dup6\n            /* \"#utility.yul\":840:911   */\n          mstore\n            /* \"#utility.yul\":940:944   */\n          0x20\n            /* \"#utility.yul\":935:938   */\n          dup6\n            /* \"#utility.yul\":931:945   */\n          add\n            /* \"#utility.yul\":924:945   */\n          swap5\n          pop\n            /* \"#utility.yul\":974:978   */\n          0x20\n            /* \"#utility.yul\":969:972   */\n          dup5\n            /* \"#utility.yul\":965:979   */\n          add\n            /* \"#utility.yul\":958:979   */\n          swap4\n          pop\n            /* \"#utility.yul\":592:989   */\n          pop\n          pop\n            /* \"#utility.yul\":579:580   */\n          0x01\n            /* \"#utility.yul\":576:577   */\n          dup2\n            /* \"#utility.yul\":572:581   */\n          add\n            /* \"#utility.yul\":567:581   */\n          swap1\n          pop\n            /* \"#utility.yul\":532:989   */\n          jump(tag_74)\n        tag_76:\n            /* \"#utility.yul\":536:550   */\n          pop\n            /* \"#utility.yul\":146:995   */\n          pop\n          pop\n            /* \"#utility.yul\":23:995   */\n          swap4\n          swap3\n          pop\n          pop\n          pop\n          jump\t// out\n            /* \"#utility.yul\":1001:1422   */\n        tag_82:\n            /* \"#utility.yul\":1090:1095   */\n          0x00\n            /* \"#utility.yul\":1115:1181   */\n          tag_84\n            /* \"#utility.yul\":1131:1180   */\n          tag_85\n            /* \"#utility.yul\":1173:1179   */\n          dup5\n            /* \"#utility.yul\":1131:1180   */\n          tag_86\n          jump\t// in\n        tag_85:\n            /* \"#utility.yul\":1115:1181   */\n          tag_70\n          jump\t// in\n        tag_84:\n            /* \"#utility.yul\":1106:1181   */\n          swap1\n          pop\n            /* \"#utility.yul\":1204:1210   */\n          dup3\n            /* \"#utility.yul\":1197:1202   */\n          dup2\n            /* \"#utility.yul\":1190:1211   */\n          mstore\n            /* \"#utility.yul\":1242:1246   */\n          0x20\n            /* \"#utility.yul\":1235:1240   */\n          dup2\n            /* \"#utility.yul\":1231:1247   */\n          add\n            /* \"#utility.yul\":1280:1283   */\n          dup5\n            /* \"#utility.yul\":1271:1277   */\n          dup5\n            /* \"#utility.yul\":1266:1269   */\n          dup5\n            /* \"#utility.yul\":1262:1278   */\n          add\n            /* \"#utility.yul\":1259:1284   */\n          gt\n            /* \"#utility.yul\":1256:1368   */\n          iszero\n          tag_87\n          jumpi\n            /* \"#utility.yul\":1287:1366   */\n          tag_88\n          tag_89\n          jump\t// in\n        tag_88:\n            /* \"#utility.yul\":1256:1368   */\n        tag_87:\n            /* \"#utility.yul\":1377:1416   */\n          tag_90\n            /* \"#utility.yul\":1409:1415   */\n          dup5\n            /* \"#utility.yul\":1404:1407   */\n          dup3\n            /* \"#utility.yul\":1399:1402   */\n          dup6\n            /* \"#utility.yul\":1377:1416   */\n          tag_91\n          jump\t// in\n        tag_90:\n            /* \"#utility.yul\":1096:1422   */\n          pop\n            /* \"#utility.yul\":1001:1422   */\n          swap4\n          swap3\n          pop\n          pop\n          pop\n          jump\t// out\n            /* \"#utility.yul\":1428:1571   */\n        tag_92:\n            /* \"#utility.yul\":1485:1490   */\n          0x00\n            /* \"#utility.yul\":1516:1522   */\n          dup2\n            /* \"#utility.yul\":1510:1523   */\n          mload\n            /* \"#utility.yul\":1501:1523   */\n          swap1\n          pop\n            /* \"#utility.yul\":1532:1565   */\n          tag_94\n            /* \"#utility.yul\":1559:1564   */\n          dup2\n            /* \"#utility.yul\":1532:1565   */\n          tag_95\n          jump\t// in\n        tag_94:\n            /* \"#utility.yul\":1428:1571   */\n          swap3\n          swap2\n          pop\n          pop\n          jump\t// out\n            /* \"#utility.yul\":1593:1998   */\n        tag_96:\n            /* \"#utility.yul\":1685:1690   */\n          0x00\n            /* \"#utility.yul\":1734:1737   */\n          dup3\n            /* \"#utility.yul\":1727:1731   */\n          0x1f\n            /* \"#utility.yul\":1719:1725   */\n          dup4\n            /* \"#utility.yul\":1715:1732   */\n          add\n            /* \"#utility.yul\":1711:1738   */\n          slt\n            /* \"#utility.yul\":1701:1823   */\n          tag_98\n          jumpi\n            /* \"#utility.yul\":1742:1821   */\n          tag_99\n          tag_79\n          jump\t// in\n        tag_99:\n            /* \"#utility.yul\":1701:1823   */\n        tag_98:\n            /* \"#utility.yul\":1852:1858   */\n          dup2\n            /* \"#utility.yul\":1846:1859   */\n          mload\n            /* \"#utility.yul\":1877:1992   */\n          tag_100\n            /* \"#utility.yul\":1988:1991   */\n          dup5\n            /* \"#utility.yul\":1980:1986   */\n          dup3\n            /* \"#utility.yul\":1973:1977   */\n          0x20\n            /* \"#utility.yul\":1965:1971   */\n          dup7\n            /* \"#utility.yul\":1961:1978   */\n          add\n            /* \"#utility.yul\":1877:1992   */\n          tag_65\n          jump\t// in\n        tag_100:\n            /* \"#utility.yul\":1868:1992   */\n          swap2\n          pop\n            /* \"#utility.yul\":1691:1998   */\n          pop\n            /* \"#utility.yul\":1593:1998   */\n          swap3\n          swap2\n          pop\n          pop\n          jump\t// out\n            /* \"#utility.yul\":2018:2373   */\n        tag_81:\n            /* \"#utility.yul\":2085:2090   */\n          0x00\n            /* \"#utility.yul\":2134:2137   */\n          dup3\n            /* \"#utility.yul\":2127:2131   */\n          0x1f\n            /* \"#utility.yul\":2119:2125   */\n          dup4\n            /* \"#utility.yul\":2115:2132   */\n          add\n            /* \"#utility.yul\":2111:2138   */\n          slt\n            /* \"#utility.yul\":2101:2223   */\n          tag_102\n          jumpi\n            /* \"#utility.yul\":2142:2221   */\n          tag_103\n          tag_79\n          jump\t// in\n        tag_103:\n            /* \"#utility.yul\":2101:2223   */\n        tag_102:\n            /* \"#utility.yul\":2252:2258   */\n          dup2\n            /* \"#utility.yul\":2246:2259   */\n          mload\n            /* \"#utility.yul\":2277:2367   */\n          tag_104\n            /* \"#utility.yul\":2363:2366   */\n          dup5\n            /* \"#utility.yul\":2355:2361   */\n          dup3\n            /* \"#utility.yul\":2348:2352   */\n          0x20\n            /* \"#utility.yul\":2340:2346   */\n          dup7\n            /* \"#utility.yul\":2336:2353   */\n          add\n            /* \"#utility.yul\":2277:2367   */\n          tag_82\n          jump\t// in\n        tag_104:\n            /* \"#utility.yul\":2268:2367   */\n          swap2\n          pop\n            /* \"#utility.yul\":2091:2373   */\n          pop\n            /* \"#utility.yul\":2018:2373   */\n          swap3\n          swap2\n          pop\n          pop\n          jump\t// out\n            /* \"#utility.yul\":2379:2522   */\n        tag_105:\n            /* \"#utility.yul\":2436:2441   */\n          0x00\n            /* \"#utility.yul\":2467:2473   */\n          dup2\n            /* \"#utility.yul\":2461:2474   */\n          mload\n            /* \"#utility.yul\":2452:2474   */\n          swap1\n          pop\n            /* \"#utility.yul\":2483:2516   */\n          tag_107\n            /* \"#utility.yul\":2510:2515   */\n          dup2\n            /* \"#utility.yul\":2483:2516   */\n          tag_108\n          jump\t// in\n        tag_107:\n            /* \"#utility.yul\":2379:2522   */\n          swap3\n          swap2\n          pop\n          pop\n          jump\t// out\n            /* \"#utility.yul\":2528:4074   */\n        tag_3:\n            /* \"#utility.yul\":2689:2695   */\n          0x00\n            /* \"#utility.yul\":2697:2703   */\n          dup1\n            /* \"#utility.yul\":2705:2711   */\n          0x00\n            /* \"#utility.yul\":2713:2719   */\n          dup1\n            /* \"#utility.yul\":2721:2727   */\n          0x00\n            /* \"#utility.yul\":2770:2773   */\n          0xa0\n            /* \"#utility.yul\":2758:2767   */\n          dup7\n            /* \"#utility.yul\":2749:2756   */\n          dup9\n            /* \"#utility.yul\":2745:2768   */\n          sub\n            /* \"#utility.yul\":2741:2774   */\n          slt\n            /* \"#utility.yul\":2738:2858   */\n          iszero\n          tag_110\n          jumpi\n            /* \"#utility.yul\":2777:2856   */\n          tag_111\n          tag_112\n          jump\t// in\n        tag_111:\n            /* \"#utility.yul\":2738:2858   */\n        tag_110:\n            /* \"#utility.yul\":2897:2898   */\n          0x00\n            /* \"#utility.yul\":2922:2986   */\n          tag_113\n            /* \"#utility.yul\":2978:2985   */\n          dup9\n            /* \"#utility.yul\":2969:2975   */\n          dup3\n            /* \"#utility.yul\":2958:2967   */\n          dup10\n            /* \"#utility.yul\":2954:2976   */\n          add\n            /* \"#utility.yul\":2922:2986   */\n          tag_92\n          jump\t// in\n        tag_113:\n            /* \"#utility.yul\":2912:2986   */\n          swap6\n          pop\n            /* \"#utility.yul\":2868:2996   */\n          pop\n            /* \"#utility.yul\":3056:3058   */\n          0x20\n            /* \"#utility.yul\":3045:3054   */\n          dup7\n            /* \"#utility.yul\":3041:3059   */\n          add\n            /* \"#utility.yul\":3035:3060   */\n          mload\n            /* \"#utility.yul\":3087:3105   */\n          0xffffffffffffffff\n            /* \"#utility.yul\":3079:3085   */\n          dup2\n            /* \"#utility.yul\":3076:3106   */\n          gt\n            /* \"#utility.yul\":3073:3190   */\n          iszero\n          tag_114\n          jumpi\n            /* \"#utility.yul\":3109:3188   */\n          tag_115\n          tag_116\n          jump\t// in\n        tag_115:\n            /* \"#utility.yul\":3073:3190   */\n        tag_114:\n            /* \"#utility.yul\":3214:3288   */\n          tag_117\n            /* \"#utility.yul\":3280:3287   */\n          dup9\n            /* \"#utility.yul\":3271:3277   */\n          dup3\n            /* \"#utility.yul\":3260:3269   */\n          dup10\n            /* \"#utility.yul\":3256:3278   */\n          add\n            /* \"#utility.yul\":3214:3288   */\n          tag_81\n          jump\t// in\n        tag_117:\n            /* \"#utility.yul\":3204:3288   */\n          swap5\n          pop\n            /* \"#utility.yul\":3006:3298   */\n          pop\n            /* \"#utility.yul\":3337:3339   */\n          0x40\n            /* \"#utility.yul\":3363:3427   */\n          tag_118\n            /* \"#utility.yul\":3419:3426   */\n          dup9\n            /* \"#utility.yul\":3410:3416   */\n          dup3\n            /* \"#utility.yul\":3399:3408   */\n          dup10\n            /* \"#utility.yul\":3395:3417   */\n          add\n            /* \"#utility.yul\":3363:3427   */\n          tag_105\n          jump\t// in\n        tag_118:\n            /* \"#utility.yul\":3353:3427   */\n          swap4\n          pop\n            /* \"#utility.yul\":3308:3437   */\n          pop\n            /* \"#utility.yul\":3497:3499   */\n          0x60\n            /* \"#utility.yul\":3486:3495   */\n          dup7\n            /* \"#utility.yul\":3482:3500   */\n          add\n            /* \"#utility.yul\":3476:3501   */\n          mload\n            /* \"#utility.yul\":3528:3546   */\n          0xffffffffffffffff\n            /* \"#utility.yul\":3520:3526   */\n          dup2\n            /* \"#utility.yul\":3517:3547   */\n          gt\n            /* \"#utility.yul\":3514:3631   */\n          iszero\n          tag_119\n          jumpi\n            /* \"#utility.yul\":3550:3629   */\n          tag_120\n          tag_116\n          jump\t// in\n        tag_120:\n            /* \"#utility.yul\":3514:3631   */\n        tag_119:\n            /* \"#utility.yul\":3655:3754   */\n          tag_121\n            /* \"#utility.yul\":3746:3753   */\n          dup9\n            /* \"#utility.yul\":3737:3743   */\n          dup3\n            /* \"#utility.yul\":3726:3735   */\n          dup10\n            /* \"#utility.yul\":3722:3744   */\n          add\n            /* \"#utility.yul\":3655:3754   */\n          tag_96\n          jump\t// in\n        tag_121:\n            /* \"#utility.yul\":3645:3754   */\n          swap3\n          pop\n            /* \"#utility.yul\":3447:3764   */\n          pop\n            /* \"#utility.yul\":3824:3827   */\n          0x80\n            /* \"#utility.yul\":3813:3822   */\n          dup7\n            /* \"#utility.yul\":3809:3828   */\n          add\n            /* \"#utility.yul\":3803:3829   */\n          mload\n            /* \"#utility.yul\":3856:3874   */\n          0xffffffffffffffff\n            /* \"#utility.yul\":3848:3854   */\n          dup2\n            /* \"#utility.yul\":3845:3875   */\n          gt\n            /* \"#utility.yul\":3842:3959   */\n          iszero\n          tag_122\n          jumpi\n            /* \"#utility.yul\":3878:3957   */\n          tag_123\n          tag_116\n          jump\t// in\n        tag_123:\n            /* \"#utility.yul\":3842:3959   */\n        tag_122:\n            /* \"#utility.yul\":3983:4057   */\n          tag_124\n            /* \"#utility.yul\":4049:4056   */\n          dup9\n            /* \"#utility.yul\":4040:4046   */\n          dup3\n            /* \"#utility.yul\":4029:4038   */\n          dup10\n            /* \"#utility.yul\":4025:4047   */\n          add\n            /* \"#utility.yul\":3983:4057   */\n          tag_81\n          jump\t// in\n        tag_124:\n            /* \"#utility.yul\":3973:4057   */\n          swap2\n          pop\n            /* \"#utility.yul\":3774:4067   */\n          pop\n            /* \"#utility.yul\":2528:4074   */\n          swap3\n          swap6\n          pop\n          swap3\n          swap6\n          swap1\n          swap4\n          pop\n          jump\t// out\n            /* \"#utility.yul\":4080:4457   */\n        tag_125:\n            /* \"#utility.yul\":4186:4189   */\n          0x00\n            /* \"#utility.yul\":4214:4253   */\n          tag_127\n            /* \"#utility.yul\":4247:4252   */\n          dup3\n            /* \"#utility.yul\":4214:4253   */\n          tag_128\n          jump\t// in\n        tag_127:\n            /* \"#utility.yul\":4269:4358   */\n          tag_129\n            /* \"#utility.yul\":4351:4357   */\n          dup2\n            /* \"#utility.yul\":4346:4349   */\n          dup6\n            /* \"#utility.yul\":4269:4358   */\n          tag_130\n          jump\t// in\n        tag_129:\n            /* \"#utility.yul\":4262:4358   */\n          swap4\n          pop\n            /* \"#utility.yul\":4367:4419   */\n          tag_131\n            /* \"#utility.yul\":4412:4418   */\n          dup2\n            /* \"#utility.yul\":4407:4410   */\n          dup6\n            /* \"#utility.yul\":4400:4404   */\n          0x20\n            /* \"#utility.yul\":4393:4398   */\n          dup7\n            /* \"#utility.yul\":4389:4405   */\n          add\n            /* \"#utility.yul\":4367:4419   */\n          tag_91\n          jump\t// in\n        tag_131:\n            /* \"#utility.yul\":4444:4450   */\n          dup1\n            /* \"#utility.yul\":4439:4442   */\n          dup5\n            /* \"#utility.yul\":4435:4451   */\n          add\n            /* \"#utility.yul\":4428:4451   */\n          swap2\n          pop\n            /* \"#utility.yul\":4190:4457   */\n          pop\n            /* \"#utility.yul\":4080:4457   */\n          swap3\n          swap2\n          pop\n          pop\n          jump\t// out\n            /* \"#utility.yul\":4487:5332   */\n        tag_132:\n            /* \"#utility.yul\":4590:4593   */\n          0x00\n            /* \"#utility.yul\":4627:4632   */\n          dup2\n            /* \"#utility.yul\":4621:4633   */\n          sload\n            /* \"#utility.yul\":4656:4692   */\n          tag_134\n            /* \"#utility.yul\":4682:4691   */\n          dup2\n            /* \"#utility.yul\":4656:4692   */\n          tag_40\n          jump\t// in\n        tag_134:\n            /* \"#utility.yul\":4708:4797   */\n          tag_135\n            /* \"#utility.yul\":4790:4796   */\n          dup2\n            /* \"#utility.yul\":4785:4788   */\n          dup7\n            /* \"#utility.yul\":4708:4797   */\n          tag_130\n          jump\t// in\n        tag_135:\n            /* \"#utility.yul\":4701:4797   */\n          swap5\n          pop\n            /* \"#utility.yul\":4828:4829   */\n          0x01\n            /* \"#utility.yul\":4817:4826   */\n          dup3\n            /* \"#utility.yul\":4813:4830   */\n          and\n            /* \"#utility.yul\":4844:4845   */\n          0x00\n            /* \"#utility.yul\":4839:4976   */\n          dup2\n          eq\n          tag_137\n          jumpi\n            /* \"#utility.yul\":4990:4991   */\n          0x01\n            /* \"#utility.yul\":4985:5326   */\n          dup2\n          eq\n          tag_138\n          jumpi\n            /* \"#utility.yul\":4806:5326   */\n          jump(tag_136)\n            /* \"#utility.yul\":4839:4976   */\n        tag_137:\n            /* \"#utility.yul\":4923:4927   */\n          0xff\n            /* \"#utility.yul\":4919:4928   */\n          not\n            /* \"#utility.yul\":4908:4917   */\n          dup4\n            /* \"#utility.yul\":4904:4929   */\n          and\n            /* \"#utility.yul\":4899:4902   */\n          dup7\n            /* \"#utility.yul\":4892:4930   */\n          mstore\n            /* \"#utility.yul\":4959:4965   */\n          dup2\n            /* \"#utility.yul\":4954:4957   */\n          dup7\n            /* \"#utility.yul\":4950:4966   */\n          add\n            /* \"#utility.yul\":4943:4966   */\n          swap4\n          pop\n            /* \"#utility.yul\":4839:4976   */\n          jump(tag_136)\n            /* \"#utility.yul\":4985:5326   */\n        tag_138:\n            /* \"#utility.yul\":5052:5090   */\n          tag_139\n            /* \"#utility.yul\":5084:5089   */\n          dup6\n            /* \"#utility.yul\":5052:5090   */\n          tag_140\n          jump\t// in\n        tag_139:\n            /* \"#utility.yul\":5112:5113   */\n          0x00\n            /* \"#utility.yul\":5126:5280   */\n        tag_141:\n            /* \"#utility.yul\":5140:5146   */\n          dup4\n            /* \"#utility.yul\":5137:5138   */\n          dup2\n            /* \"#utility.yul\":5134:5147   */\n          lt\n            /* \"#utility.yul\":5126:5280   */\n          iszero\n          tag_143\n          jumpi\n            /* \"#utility.yul\":5214:5221   */\n          dup2\n            /* \"#utility.yul\":5208:5222   */\n          sload\n            /* \"#utility.yul\":5204:5205   */\n          dup2\n            /* \"#utility.yul\":5199:5202   */\n          dup10\n            /* \"#utility.yul\":5195:5206   */\n          add\n            /* \"#utility.yul\":5188:5223   */\n          mstore\n            /* \"#utility.yul\":5264:5265   */\n          0x01\n            /* \"#utility.yul\":5255:5262   */\n          dup3\n            /* \"#utility.yul\":5251:5266   */\n          add\n            /* \"#utility.yul\":5240:5266   */\n          swap2\n          pop\n            /* \"#utility.yul\":5162:5166   */\n          0x20\n            /* \"#utility.yul\":5159:5160   */\n          dup2\n            /* \"#utility.yul\":5155:5167   */\n          add\n            /* \"#utility.yul\":5150:5167   */\n          swap1\n          pop\n            /* \"#utility.yul\":5126:5280   */\n          jump(tag_141)\n        tag_143:\n            /* \"#utility.yul\":5309:5315   */\n          dup4\n            /* \"#utility.yul\":5304:5307   */\n          dup9\n            /* \"#utility.yul\":5300:5316   */\n          add\n            /* \"#utility.yul\":5293:5316   */\n          swap6\n          pop\n            /* \"#utility.yul\":4992:5326   */\n          pop\n          pop\n            /* \"#utility.yul\":4806:5326   */\n        tag_136:\n          pop\n            /* \"#utility.yul\":4594:5332   */\n          pop\n          pop\n            /* \"#utility.yul\":4487:5332   */\n          swap3\n          swap2\n          pop\n          pop\n          jump\t// out\n            /* \"#utility.yul\":5338:5738   */\n        tag_144:\n            /* \"#utility.yul\":5498:5501   */\n          0x00\n            /* \"#utility.yul\":5519:5603   */\n          tag_146\n            /* \"#utility.yul\":5601:5602   */\n          0x06\n            /* \"#utility.yul\":5596:5599   */\n          dup4\n            /* \"#utility.yul\":5519:5603   */\n          tag_130\n          jump\t// in\n        tag_146:\n            /* \"#utility.yul\":5512:5603   */\n          swap2\n          pop\n            /* \"#utility.yul\":5612:5705   */\n          tag_147\n            /* \"#utility.yul\":5701:5704   */\n          dup3\n            /* \"#utility.yul\":5612:5705   */\n          tag_148\n          jump\t// in\n        tag_147:\n            /* \"#utility.yul\":5730:5731   */\n          0x06\n            /* \"#utility.yul\":5725:5728   */\n          dup3\n            /* \"#utility.yul\":5721:5732   */\n          add\n            /* \"#utility.yul\":5714:5732   */\n          swap1\n          pop\n            /* \"#utility.yul\":5338:5738   */\n          swap2\n          swap1\n          pop\n          jump\t// out\n            /* \"#utility.yul\":5744:6019   */\n        tag_18:\n            /* \"#utility.yul\":5876:5879   */\n          0x00\n            /* \"#utility.yul\":5898:5993   */\n          tag_150\n            /* \"#utility.yul\":5989:5992   */\n          dup3\n            /* \"#utility.yul\":5980:5986   */\n          dup5\n            /* \"#utility.yul\":5898:5993   */\n          tag_125\n          jump\t// in\n        tag_150:\n            /* \"#utility.yul\":5891:5993   */\n          swap2\n          pop\n            /* \"#utility.yul\":6010:6013   */\n          dup2\n            /* \"#utility.yul\":6003:6013   */\n          swap1\n          pop\n            /* \"#utility.yul\":5744:6019   */\n          swap3\n          swap2\n          pop\n          pop\n          jump\t// out\n            /* \"#utility.yul\":6025:6294   */\n        tag_35:\n            /* \"#utility.yul\":6154:6157   */\n          0x00\n            /* \"#utility.yul\":6176:6268   */\n          tag_152\n            /* \"#utility.yul\":6264:6267   */\n          dup3\n            /* \"#utility.yul\":6255:6261   */\n          dup5\n            /* \"#utility.yul\":6176:6268   */\n          tag_132\n          jump\t// in\n        tag_152:\n            /* \"#utility.yul\":6169:6268   */\n          swap2\n          pop\n            /* \"#utility.yul\":6285:6288   */\n          dup2\n            /* \"#utility.yul\":6278:6288   */\n          swap1\n          pop\n            /* \"#utility.yul\":6025:6294   */\n          swap3\n          swap2\n          pop\n          pop\n          jump\t// out\n            /* \"#utility.yul\":6300:6681   */\n        tag_16:\n            /* \"#utility.yul\":6485:6488   */\n          0x00\n            /* \"#utility.yul\":6507:6655   */\n          tag_154\n            /* \"#utility.yul\":6651:6654   */\n          dup3\n            /* \"#utility.yul\":6507:6655   */\n          tag_144\n          jump\t// in\n        tag_154:\n            /* \"#utility.yul\":6500:6655   */\n          swap2\n          pop\n            /* \"#utility.yul\":6672:6675   */\n          dup2\n            /* \"#utility.yul\":6665:6675   */\n          swap1\n          pop\n            /* \"#utility.yul\":6300:6681   */\n          swap2\n          swap1\n          pop\n          jump\t// out\n            /* \"#utility.yul\":6687:6816   */\n        tag_70:\n            /* \"#utility.yul\":6721:6727   */\n          0x00\n            /* \"#utility.yul\":6748:6768   */\n          tag_156\n          tag_157\n          jump\t// in\n        tag_156:\n            /* \"#utility.yul\":6738:6768   */\n          swap1\n          pop\n            /* \"#utility.yul\":6777:6810   */\n          tag_158\n            /* \"#utility.yul\":6805:6809   */\n          dup3\n            /* \"#utility.yul\":6797:6803   */\n          dup3\n            /* \"#utility.yul\":6777:6810   */\n          tag_159\n          jump\t// in\n        tag_158:\n            /* \"#utility.yul\":6687:6816   */\n          swap2\n          swap1\n          pop\n          jump\t// out\n            /* \"#utility.yul\":6822:6897   */\n        tag_157:\n            /* \"#utility.yul\":6855:6861   */\n          0x00\n            /* \"#utility.yul\":6888:6890   */\n          0x40\n            /* \"#utility.yul\":6882:6891   */\n          mload\n            /* \"#utility.yul\":6872:6891   */\n          swap1\n          pop\n            /* \"#utility.yul\":6822:6897   */\n          swap1\n          jump\t// out\n            /* \"#utility.yul\":6903:7224   */\n        tag_69:\n            /* \"#utility.yul\":6990:6994   */\n          0x00\n            /* \"#utility.yul\":7080:7098   */\n          0xffffffffffffffff\n            /* \"#utility.yul\":7072:7078   */\n          dup3\n            /* \"#utility.yul\":7069:7099   */\n          gt\n            /* \"#utility.yul\":7066:7122   */\n          iszero\n          tag_162\n          jumpi\n            /* \"#utility.yul\":7102:7120   */\n          tag_163\n          tag_164\n          jump\t// in\n        tag_163:\n            /* \"#utility.yul\":7066:7122   */\n        tag_162:\n            /* \"#utility.yul\":7152:7156   */\n          0x20\n            /* \"#utility.yul\":7144:7150   */\n          dup3\n            /* \"#utility.yul\":7140:7157   */\n          mul\n            /* \"#utility.yul\":7132:7157   */\n          swap1\n          pop\n            /* \"#utility.yul\":7212:7216   */\n          0x20\n            /* \"#utility.yul\":7206:7210   */\n          dup2\n            /* \"#utility.yul\":7202:7217   */\n          add\n            /* \"#utility.yul\":7194:7217   */\n          swap1\n          pop\n            /* \"#utility.yul\":6903:7224   */\n          swap2\n          swap1\n          pop\n          jump\t// out\n            /* \"#utility.yul\":7230:7538   */\n        tag_86:\n            /* \"#utility.yul\":7292:7296   */\n          0x00\n            /* \"#utility.yul\":7382:7400   */\n          0xffffffffffffffff\n            /* \"#utility.yul\":7374:7380   */\n          dup3\n            /* \"#utility.yul\":7371:7401   */\n          gt\n            /* \"#utility.yul\":7368:7424   */\n          iszero\n          tag_166\n          jumpi\n            /* \"#utility.yul\":7404:7422   */\n          tag_167\n          tag_164\n          jump\t// in\n        tag_167:\n            /* \"#utility.yul\":7368:7424   */\n        tag_166:\n            /* \"#utility.yul\":7442:7471   */\n          tag_168\n            /* \"#utility.yul\":7464:7470   */\n          dup3\n            /* \"#utility.yul\":7442:7471   */\n          tag_169\n          jump\t// in\n        tag_168:\n            /* \"#utility.yul\":7434:7471   */\n          swap1\n          pop\n            /* \"#utility.yul\":7526:7530   */\n          0x20\n            /* \"#utility.yul\":7520:7524   */\n          dup2\n            /* \"#utility.yul\":7516:7531   */\n          add\n            /* \"#utility.yul\":7508:7531   */\n          swap1\n          pop\n            /* \"#utility.yul\":7230:7538   */\n          swap2\n          swap1\n          pop\n          jump\t// out\n            /* \"#utility.yul\":7544:7685   */\n        tag_140:\n            /* \"#utility.yul\":7593:7597   */\n          0x00\n            /* \"#utility.yul\":7616:7619   */\n          dup2\n            /* \"#utility.yul\":7608:7619   */\n          swap1\n          pop\n            /* \"#utility.yul\":7639:7642   */\n          dup2\n            /* \"#utility.yul\":7636:7637   */\n          0x00\n            /* \"#utility.yul\":7629:7643   */\n          mstore\n            /* \"#utility.yul\":7673:7677   */\n          0x20\n            /* \"#utility.yul\":7670:7671   */\n          0x00\n            /* \"#utility.yul\":7660:7678   */\n          keccak256\n            /* \"#utility.yul\":7652:7678   */\n          swap1\n          pop\n            /* \"#utility.yul\":7544:7685   */\n          swap2\n          swap1\n          pop\n          jump\t// out\n            /* \"#utility.yul\":7691:7790   */\n        tag_128:\n            /* \"#utility.yul\":7743:7749   */\n          0x00\n            /* \"#utility.yul\":7777:7782   */\n          dup2\n            /* \"#utility.yul\":7771:7783   */\n          mload\n            /* \"#utility.yul\":7761:7783   */\n          swap1\n          pop\n            /* \"#utility.yul\":7691:7790   */\n          swap2\n          swap1\n          pop\n          jump\t// out\n            /* \"#utility.yul\":7796:7944   */\n        tag_130:\n            /* \"#utility.yul\":7898:7909   */\n          0x00\n            /* \"#utility.yul\":7935:7938   */\n          dup2\n            /* \"#utility.yul\":7920:7938   */\n          swap1\n          pop\n            /* \"#utility.yul\":7796:7944   */\n          swap3\n          swap2\n          pop\n          pop\n          jump\t// out\n            /* \"#utility.yul\":7950:8255   */\n        tag_11:\n            /* \"#utility.yul\":7990:7993   */\n          0x00\n            /* \"#utility.yul\":8009:8029   */\n          tag_174\n            /* \"#utility.yul\":8027:8028   */\n          dup3\n            /* \"#utility.yul\":8009:8029   */\n          tag_175\n          jump\t// in\n        tag_174:\n            /* \"#utility.yul\":8004:8029   */\n          swap2\n          pop\n            /* \"#utility.yul\":8043:8063   */\n          tag_176\n            /* \"#utility.yul\":8061:8062   */\n          dup4\n            /* \"#utility.yul\":8043:8063   */\n          tag_175\n          jump\t// in\n        tag_176:\n            /* \"#utility.yul\":8038:8063   */\n          swap3\n          pop\n            /* \"#utility.yul\":8197:8198   */\n          dup3\n            /* \"#utility.yul\":8129:8195   */\n          0xffffffffffffffffffffffffffffffffffffffffffffffffffffffffffffffff\n            /* \"#utility.yul\":8125:8199   */\n          sub\n            /* \"#utility.yul\":8122:8123   */\n          dup3\n            /* \"#utility.yul\":8119:8200   */\n          gt\n            /* \"#utility.yul\":8116:8223   */\n          iszero\n          tag_177\n          jumpi\n            /* \"#utility.yul\":8203:8221   */\n          tag_178\n          tag_179\n          jump\t// in\n        tag_178:\n            /* \"#utility.yul\":8116:8223   */\n        tag_177:\n            /* \"#utility.yul\":8247:8248   */\n          dup3\n            /* \"#utility.yul\":8244:8245   */\n          dup3\n            /* \"#utility.yul\":8240:8249   */\n          add\n            /* \"#utility.yul\":8233:8249   */\n          swap1\n          pop\n            /* \"#utility.yul\":7950:8255   */\n          swap3\n          swap2\n          pop\n          pop\n          jump\t// out\n            /* \"#utility.yul\":8261:8357   */\n        tag_180:\n            /* \"#utility.yul\":8298:8305   */\n          0x00\n            /* \"#utility.yul\":8327:8351   */\n          tag_182\n            /* \"#utility.yul\":8345:8350   */\n          dup3\n            /* \"#utility.yul\":8327:8351   */\n          tag_183\n          jump\t// in\n        tag_182:\n            /* \"#utility.yul\":8316:8351   */\n          swap1\n          pop\n            /* \"#utility.yul\":8261:8357   */\n          swap2\n          swap1\n          pop\n          jump\t// out\n            /* \"#utility.yul\":8363:8489   */\n        tag_183:\n            /* \"#utility.yul\":8400:8407   */\n          0x00\n            /* \"#utility.yul\":8440:8482   */\n          0xffffffffffffffffffffffffffffffffffffffff\n            /* \"#utility.yul\":8433:8438   */\n          dup3\n            /* \"#utility.yul\":8429:8483   */\n          and\n            /* \"#utility.yul\":8418:8483   */\n          swap1\n          pop\n            /* \"#utility.yul\":8363:8489   */\n          swap2\n          swap1\n          pop\n          jump\t// out\n            /* \"#utility.yul\":8495:8572   */\n        tag_175:\n            /* \"#utility.yul\":8532:8539   */\n          0x00\n            /* \"#utility.yul\":8561:8566   */\n          dup2\n            /* \"#utility.yul\":8550:8566   */\n          swap1\n          pop\n            /* \"#utility.yul\":8495:8572   */\n          swap2\n          swap1\n          pop\n          jump\t// out\n            /* \"#utility.yul\":8578:8885   */\n        tag_91:\n            /* \"#utility.yul\":8646:8647   */\n          0x00\n            /* \"#utility.yul\":8656:8769   */\n        tag_187:\n            /* \"#utility.yul\":8670:8676   */\n          dup4\n            /* \"#utility.yul\":8667:8668   */\n          dup2\n            /* \"#utility.yul\":8664:8677   */\n          lt\n            /* \"#utility.yul\":8656:8769   */\n          iszero\n          tag_189\n          jumpi\n            /* \"#utility.yul\":8755:8756   */\n          dup1\n            /* \"#utility.yul\":8750:8753   */\n          dup3\n            /* \"#utility.yul\":8746:8757   */\n          add\n            /* \"#utility.yul\":8740:8758   */\n          mload\n            /* \"#utility.yul\":8736:8737   */\n          dup2\n            /* \"#utility.yul\":8731:8734   */\n          dup5\n            /* \"#utility.yul\":8727:8738   */\n          add\n            /* \"#utility.yul\":8720:8759   */\n          mstore\n            /* \"#utility.yul\":8692:8694   */\n          0x20\n            /* \"#utility.yul\":8689:8690   */\n          dup2\n            /* \"#utility.yul\":8685:8695   */\n          add\n            /* \"#utility.yul\":8680:8695   */\n          swap1\n          pop\n            /* \"#utility.yul\":8656:8769   */\n          jump(tag_187)\n        tag_189:\n            /* \"#utility.yul\":8787:8793   */\n          dup4\n            /* \"#utility.yul\":8784:8785   */\n          dup2\n            /* \"#utility.yul\":8781:8794   */\n          gt\n            /* \"#utility.yul\":8778:8879   */\n          iszero\n          tag_190\n          jumpi\n            /* \"#utility.yul\":8867:8868   */\n          0x00\n            /* \"#utility.yul\":8858:8864   */\n          dup5\n            /* \"#utility.yul\":8853:8856   */\n          dup5\n            /* \"#utility.yul\":8849:8865   */\n          add\n            /* \"#utility.yul\":8842:8869   */\n          mstore\n            /* \"#utility.yul\":8778:8879   */\n        tag_190:\n            /* \"#utility.yul\":8627:8885   */\n          pop\n            /* \"#utility.yul\":8578:8885   */\n          pop\n          pop\n          pop\n          jump\t// out\n            /* \"#utility.yul\":8891:9211   */\n        tag_40:\n            /* \"#utility.yul\":8935:8941   */\n          0x00\n            /* \"#utility.yul\":8972:8973   */\n          0x02\n            /* \"#utility.yul\":8966:8970   */\n          dup3\n            /* \"#utility.yul\":8962:8974   */\n          div\n            /* \"#utility.yul\":8952:8974   */\n          swap1\n          pop\n            /* \"#utility.yul\":9019:9020   */\n          0x01\n            /* \"#utility.yul\":9013:9017   */\n          dup3\n            /* \"#utility.yul\":9009:9021   */\n          and\n            /* \"#utility.yul\":9040:9058   */\n          dup1\n            /* \"#utility.yul\":9030:9111   */\n          tag_192\n          jumpi\n            /* \"#utility.yul\":9096:9100   */\n          0x7f\n            /* \"#utility.yul\":9088:9094   */\n          dup3\n            /* \"#utility.yul\":9084:9101   */\n          and\n            /* \"#utility.yul\":9074:9101   */\n          swap2\n          pop\n            /* \"#utility.yul\":9030:9111   */\n        tag_192:\n            /* \"#utility.yul\":9158:9160   */\n          0x20\n            /* \"#utility.yul\":9150:9156   */\n          dup3\n            /* \"#utility.yul\":9147:9161   */\n          lt\n            /* \"#utility.yul\":9127:9145   */\n          dup2\n            /* \"#utility.yul\":9124:9162   */\n          eq\n            /* \"#utility.yul\":9121:9205   */\n          iszero\n          tag_193\n          jumpi\n            /* \"#utility.yul\":9177:9195   */\n          tag_194\n          tag_195\n          jump\t// in\n        tag_194:\n            /* \"#utility.yul\":9121:9205   */\n        tag_193:\n            /* \"#utility.yul\":8942:9211   */\n          pop\n            /* \"#utility.yul\":8891:9211   */\n          swap2\n          swap1\n          pop\n          jump\t// out\n            /* \"#utility.yul\":9217:9498   */\n        tag_159:\n            /* \"#utility.yul\":9300:9327   */\n          tag_197\n            /* \"#utility.yul\":9322:9326   */\n          dup3\n            /* \"#utility.yul\":9300:9327   */\n          tag_169\n          jump\t// in\n        tag_197:\n            /* \"#utility.yul\":9292:9298   */\n          dup2\n            /* \"#utility.yul\":9288:9328   */\n          add\n            /* \"#utility.yul\":9430:9436   */\n          dup2\n            /* \"#utility.yul\":9418:9428   */\n          dup2\n            /* \"#utility.yul\":9415:9437   */\n          lt\n            /* \"#utility.yul\":9394:9412   */\n          0xffffffffffffffff\n            /* \"#utility.yul\":9382:9392   */\n          dup3\n            /* \"#utility.yul\":9379:9413   */\n          gt\n            /* \"#utility.yul\":9376:9438   */\n          or\n            /* \"#utility.yul\":9373:9461   */\n          iszero\n          tag_198\n          jumpi\n            /* \"#utility.yul\":9441:9459   */\n          tag_199\n          tag_164\n          jump\t// in\n        tag_199:\n            /* \"#utility.yul\":9373:9461   */\n        tag_198:\n            /* \"#utility.yul\":9481:9491   */\n          dup1\n            /* \"#utility.yul\":9477:9479   */\n          0x40\n            /* \"#utility.yul\":9470:9492   */\n          mstore\n            /* \"#utility.yul\":9260:9498   */\n          pop\n            /* \"#utility.yul\":9217:9498   */\n          pop\n          pop\n          jump\t// out\n            /* \"#utility.yul\":9504:9737   */\n        tag_37:\n            /* \"#utility.yul\":9543:9546   */\n          0x00\n            /* \"#utility.yul\":9566:9590   */\n          tag_201\n            /* \"#utility.yul\":9584:9589   */\n          dup3\n            /* \"#utility.yul\":9566:9590   */\n          tag_175\n          jump\t// in\n        tag_201:\n            /* \"#utility.yul\":9557:9590   */\n          swap2\n          pop\n            /* \"#utility.yul\":9612:9678   */\n          0xffffffffffffffffffffffffffffffffffffffffffffffffffffffffffffffff\n            /* \"#utility.yul\":9605:9610   */\n          dup3\n            /* \"#utility.yul\":9602:9679   */\n          eq\n            /* \"#utility.yul\":9599:9702   */\n          iszero\n          tag_202\n          jumpi\n            /* \"#utility.yul\":9682:9700   */\n          tag_203\n          tag_179\n          jump\t// in\n        tag_203:\n            /* \"#utility.yul\":9599:9702   */\n        tag_202:\n            /* \"#utility.yul\":9729:9730   */\n          0x01\n            /* \"#utility.yul\":9722:9727   */\n          dup3\n            /* \"#utility.yul\":9718:9731   */\n          add\n            /* \"#utility.yul\":9711:9731   */\n          swap1\n          pop\n            /* \"#utility.yul\":9504:9737   */\n          swap2\n          swap1\n          pop\n          jump\t// out\n            /* \"#utility.yul\":9743:9923   */\n        tag_179:\n            /* \"#utility.yul\":9791:9868   */\n          0x4e487b7100000000000000000000000000000000000000000000000000000000\n            /* \"#utility.yul\":9788:9789   */\n          0x00\n            /* \"#utility.yul\":9781:9869   */\n          mstore\n            /* \"#utility.yul\":9888:9892   */\n          0x11\n            /* \"#utility.yul\":9885:9886   */\n          0x04\n            /* \"#utility.yul\":9878:9893   */\n          mstore\n            /* \"#utility.yul\":9912:9916   */\n          0x24\n            /* \"#utility.yul\":9909:9910   */\n          0x00\n            /* \"#utility.yul\":9902:9917   */\n          revert\n            /* \"#utility.yul\":9929:10109   */\n        tag_14:\n            /* \"#utility.yul\":9977:10054   */\n          0x4e487b7100000000000000000000000000000000000000000000000000000000\n            /* \"#utility.yul\":9974:9975   */\n          0x00\n            /* \"#utility.yul\":9967:10055   */\n          mstore\n            /* \"#utility.yul\":10074:10078   */\n          0x21\n            /* \"#utility.yul\":10071:10072   */\n          0x04\n            /* \"#utility.yul\":10064:10079   */\n          mstore\n            /* \"#utility.yul\":10098:10102   */\n          0x24\n            /* \"#utility.yul\":10095:10096   */\n          0x00\n            /* \"#utility.yul\":10088:10103   */\n          revert\n            /* \"#utility.yul\":10115:10295   */\n        tag_195:\n            /* \"#utility.yul\":10163:10240   */\n          0x4e487b7100000000000000000000000000000000000000000000000000000000\n            /* \"#utility.yul\":10160:10161   */\n          0x00\n            /* \"#utility.yul\":10153:10241   */\n          mstore\n            /* \"#utility.yul\":10260:10264   */\n          0x22\n            /* \"#utility.yul\":10257:10258   */\n          0x04\n            /* \"#utility.yul\":10250:10265   */\n          mstore\n            /* \"#utility.yul\":10284:10288   */\n          0x24\n            /* \"#utility.yul\":10281:10282   */\n          0x00\n            /* \"#utility.yul\":10274:10289   */\n          revert\n            /* \"#utility.yul\":10301:10481   */\n        tag_32:\n            /* \"#utility.yul\":10349:10426   */\n          0x4e487b7100000000000000000000000000000000000000000000000000000000\n            /* \"#utility.yul\":10346:10347   */\n          0x00\n            /* \"#utility.yul\":10339:10427   */\n          mstore\n            /* \"#utility.yul\":10446:10450   */\n          0x32\n            /* \"#utility.yul\":10443:10444   */\n          0x04\n            /* \"#utility.yul\":10436:10451   */\n          mstore\n            /* \"#utility.yul\":10470:10474   */\n          0x24\n            /* \"#utility.yul\":10467:10468   */\n          0x00\n            /* \"#utility.yul\":10460:10475   */\n          revert\n            /* \"#utility.yul\":10487:10667   */\n        tag_164:\n            /* \"#utility.yul\":10535:10612   */\n          0x4e487b7100000000000000000000000000000000000000000000000000000000\n            /* \"#utility.yul\":10532:10533   */\n          0x00\n            /* \"#utility.yul\":10525:10613   */\n          mstore\n            /* \"#utility.yul\":10632:10636   */\n          0x41\n            /* \"#utility.yul\":10629:10630   */\n          0x04\n            /* \"#utility.yul\":10622:10637   */\n          mstore\n            /* \"#utility.yul\":10656:10660   */\n          0x24\n            /* \"#utility.yul\":10653:10654   */\n          0x00\n            /* \"#utility.yul\":10646:10661   */\n          revert\n            /* \"#utility.yul\":10673:10790   */\n        tag_79:\n            /* \"#utility.yul\":10782:10783   */\n          0x00\n            /* \"#utility.yul\":10779:10780   */\n          dup1\n            /* \"#utility.yul\":10772:10784   */\n          revert\n            /* \"#utility.yul\":10796:10913   */\n        tag_73:\n            /* \"#utility.yul\":10905:10906   */\n          0x00\n            /* \"#utility.yul\":10902:10903   */\n          dup1\n            /* \"#utility.yul\":10895:10907   */\n          revert\n            /* \"#utility.yul\":10919:11036   */\n        tag_89:\n            /* \"#utility.yul\":11028:11029   */\n          0x00\n            /* \"#utility.yul\":11025:11026   */\n          dup1\n            /* \"#utility.yul\":11018:11030   */\n          revert\n            /* \"#utility.yul\":11042:11159   */\n        tag_116:\n            /* \"#utility.yul\":11151:11152   */\n          0x00\n            /* \"#utility.yul\":11148:11149   */\n          dup1\n            /* \"#utility.yul\":11141:11153   */\n          revert\n            /* \"#utility.yul\":11165:11282   */\n        tag_112:\n            /* \"#utility.yul\":11274:11275   */\n          0x00\n            /* \"#utility.yul\":11271:11272   */\n          dup1\n            /* \"#utility.yul\":11264:11276   */\n          revert\n            /* \"#utility.yul\":11288:11390   */\n        tag_169:\n            /* \"#utility.yul\":11329:11335   */\n          0x00\n            /* \"#utility.yul\":11380:11382   */\n          0x1f\n            /* \"#utility.yul\":11376:11383   */\n          not\n            /* \"#utility.yul\":11371:11373   */\n          0x1f\n            /* \"#utility.yul\":11364:11369   */\n          dup4\n            /* \"#utility.yul\":11360:11374   */\n          add\n            /* \"#utility.yul\":11356:11384   */\n          and\n            /* \"#utility.yul\":11346:11384   */\n          swap1\n          pop\n            /* \"#utility.yul\":11288:11390   */\n          swap2\n          swap1\n          pop\n          jump\t// out\n            /* \"#utility.yul\":11396:11552   */\n        tag_148:\n            /* \"#utility.yul\":11536:11544   */\n          0x5075626c69630000000000000000000000000000000000000000000000000000\n            /* \"#utility.yul\":11532:11533   */\n          0x00\n            /* \"#utility.yul\":11524:11530   */\n          dup3\n            /* \"#utility.yul\":11520:11534   */\n          add\n            /* \"#utility.yul\":11513:11545   */\n          mstore\n            /* \"#utility.yul\":11396:11552   */\n          pop\n          jump\t// out\n            /* \"#utility.yul\":11558:11680   */\n        tag_95:\n            /* \"#utility.yul\":11631:11655   */\n          tag_217\n            /* \"#utility.yul\":11649:11654   */\n          dup2\n            /* \"#utility.yul\":11631:11655   */\n          tag_180\n          jump\t// in\n        tag_217:\n            /* \"#utility.yul\":11624:11629   */\n          dup2\n            /* \"#utility.yul\":11621:11656   */\n          eq\n            /* \"#utility.yul\":11611:11674   */\n          tag_218\n          jumpi\n            /* \"#utility.yul\":11670:11671   */\n          0x00\n            /* \"#utility.yul\":11667:11668   */\n          dup1\n            /* \"#utility.yul\":11660:11672   */\n          revert\n            /* \"#utility.yul\":11611:11674   */\n        tag_218:\n            /* \"#utility.yul\":11558:11680   */\n          pop\n          jump\t// out\n            /* \"#utility.yul\":11686:11808   */\n        tag_108:\n            /* \"#utility.yul\":11759:11783   */\n          tag_220\n            /* \"#utility.yul\":11777:11782   */\n          dup2\n            /* \"#utility.yul\":11759:11783   */\n          tag_175\n          jump\t// in\n        tag_220:\n            /* \"#utility.yul\":11752:11757   */\n          dup2\n            /* \"#utility.yul\":11749:11784   */\n          eq\n            /* \"#utility.yul\":11739:11802   */\n          tag_221\n          jumpi\n            /* \"#utility.yul\":11798:11799   */\n          0x00\n            /* \"#utility.yul\":11795:11796   */\n          dup1\n            /* \"#utility.yul\":11788:11800   */\n          revert\n            /* \"#utility.yul\":11739:11802   */\n        tag_221:\n            /* \"#utility.yul\":11686:11808   */\n          pop\n          jump\t// out\n            /* \"contracts/pollio.sol\":776:3067  contract Poll {... */\n        tag_38:\n          dataSize(sub_0)\n          dup1\n          dataOffset(sub_0)\n          0x00\n          codecopy\n          0x00\n          return\n        stop\n\n        sub_0: assembly {\n                /* \"contracts/pollio.sol\":776:3067  contract Poll {... */\n              mstore(0x40, 0x80)\n              callvalue\n              dup1\n              iszero\n              tag_1\n              jumpi\n              0x00\n              dup1\n              revert\n            tag_1:\n              pop\n              jumpi(tag_2, lt(calldatasize, 0x04))\n              shr(0xe0, calldataload(0x00))\n              dup1\n              0x8f58d353\n              gt\n              tag_15\n              jumpi\n              dup1\n              0x8f58d353\n              eq\n              tag_9\n              jumpi\n              dup1\n              0xb73b396b\n              eq\n              tag_10\n              jumpi\n              dup1\n              0xba0c45c9\n              eq\n              tag_11\n              jumpi\n              dup1\n              0xc04752d8\n              eq\n              tag_12\n              jumpi\n              dup1\n              0xc308b0dc\n              eq\n              tag_13\n              jumpi\n              dup1\n              0xcc1e2cb0\n              eq\n              tag_14\n              jumpi\n              jump(tag_2)\n            tag_15:\n              dup1\n              0x083c6323\n              eq\n              tag_3\n              jumpi\n              dup1\n              0x18769765\n              eq\n              tag_4\n              jumpi\n              dup1\n              0x237637a8\n              eq\n              tag_5\n              jumpi\n              dup1\n              0x3477ee2e\n              eq\n              tag_6\n              jumpi\n              dup1\n              0x48cd4cb1\n              eq\n              tag_7\n              jumpi\n              dup1\n              0x498cc70d\n              eq\n              tag_8\n              jumpi\n            tag_2:\n              0x00\n              dup1\n              revert\n                /* \"contracts/pollio.sol\":916:936  uint public endBlock */\n            tag_3:\n              tag_16\n              tag_17\n              jump\t// in\n            tag_16:\n              mload(0x40)\n              tag_18\n              swap2\n              swap1\n              tag_19\n              jump\t// in\n            tag_18:\n              mload(0x40)\n              dup1\n              swap2\n              sub\n              swap1\n              return\n                /* \"contracts/pollio.sol\":828:850  string public pollName */\n            tag_4:\n              tag_20\n              tag_21\n              jump\t// in\n            tag_20:\n              mload(0x40)\n              tag_22\n              swap2\n              swap1\n              tag_23\n              jump\t// in\n            tag_22:\n              mload(0x40)\n              dup1\n              swap2\n              sub\n              swap1\n              return\n                /* \"contracts/pollio.sol\":975:995  Type public pollType */\n            tag_5:\n              tag_24\n              tag_25\n              jump\t// in\n            tag_24:\n              mload(0x40)\n              tag_26\n              swap2\n              swap1\n              tag_27\n              jump\t// in\n            tag_26:\n              mload(0x40)\n              dup1\n              swap2\n              sub\n              swap1\n              return\n                /* \"contracts/pollio.sol\":856:882  string[] public candidates */\n            tag_6:\n              tag_28\n              0x04\n              dup1\n              calldatasize\n              sub\n              dup2\n              add\n              swap1\n              tag_29\n              swap2\n              swap1\n              tag_30\n              jump\t// in\n            tag_29:\n              tag_31\n              jump\t// in\n            tag_28:\n              mload(0x40)\n              tag_32\n              swap2\n              swap1\n              tag_23\n              jump\t// in\n            tag_32:\n              mload(0x40)\n              dup1\n              swap2\n              sub\n              swap1\n              return\n                /* \"contracts/pollio.sol\":888:910  uint public startBlock */\n            tag_7:\n              tag_33\n              tag_34\n              jump\t// in\n            tag_33:\n              mload(0x40)\n              tag_35\n              swap2\n              swap1\n              tag_19\n              jump\t// in\n            tag_35:\n              mload(0x40)\n              dup1\n              swap2\n              sub\n              swap1\n              return\n                /* \"contracts/pollio.sol\":2922:3065  function getResult(... */\n            tag_8:\n              tag_36\n              0x04\n              dup1\n              calldatasize\n              sub\n              dup2\n              add\n              swap1\n              tag_37\n              swap2\n              swap1\n              tag_38\n              jump\t// in\n            tag_37:\n              tag_39\n              jump\t// in\n            tag_36:\n              mload(0x40)\n              tag_40\n              swap2\n              swap1\n              tag_19\n              jump\t// in\n            tag_40:\n              mload(0x40)\n              dup1\n              swap2\n              sub\n              swap1\n              return\n                /* \"contracts/pollio.sol\":1054:1076  State public pollState */\n            tag_9:\n              tag_41\n              tag_42\n              jump\t// in\n            tag_41:\n              mload(0x40)\n              tag_43\n              swap2\n              swap1\n              tag_44\n              jump\t// in\n            tag_43:\n              mload(0x40)\n              dup1\n              swap2\n              sub\n              swap1\n              return\n                /* \"contracts/pollio.sol\":2835:2916  function cancelPoll() public onlyOrg {... */\n            tag_10:\n              tag_45\n              tag_46\n              jump\t// in\n            tag_45:\n              stop\n                /* \"contracts/pollio.sol\":2423:2538  function increasePollDuration(uint pollDuration) public onlyOrg {... */\n            tag_11:\n              tag_47\n              0x04\n              dup1\n              calldatasize\n              sub\n              dup2\n              add\n              swap1\n              tag_48\n              swap2\n              swap1\n              tag_30\n              jump\t// in\n            tag_48:\n              tag_49\n              jump\t// in\n            tag_47:\n              stop\n                /* \"contracts/pollio.sol\":2544:2829  function voteFor(string memory candidate) public beforeEnd afterStart {... */\n            tag_12:\n              tag_50\n              0x04\n              dup1\n              calldatasize\n              sub\n              dup2\n              add\n              swap1\n              tag_51\n              swap2\n              swap1\n              tag_38\n              jump\t// in\n            tag_51:\n              tag_52\n              jump\t// in\n            tag_50:\n              stop\n                /* \"contracts/pollio.sol\":2330:2417  function renamePoll(string memory name) public onlyOrg {... */\n            tag_13:\n              tag_53\n              0x04\n              dup1\n              calldatasize\n              sub\n              dup2\n              add\n              swap1\n              tag_54\n              swap2\n              swap1\n              tag_38\n              jump\t// in\n            tag_54:\n              tag_55\n              jump\t// in\n            tag_53:\n              stop\n                /* \"contracts/pollio.sol\":796:822  address payable public org */\n            tag_14:\n              tag_56\n              tag_57\n              jump\t// in\n            tag_56:\n              mload(0x40)\n              tag_58\n              swap2\n              swap1\n              tag_59\n              jump\t// in\n            tag_58:\n              mload(0x40)\n              dup1\n              swap2\n              sub\n              swap1\n              return\n                /* \"contracts/pollio.sol\":916:936  uint public endBlock */\n            tag_17:\n              sload(0x04)\n              dup2\n              jump\t// out\n                /* \"contracts/pollio.sol\":828:850  string public pollName */\n            tag_21:\n              0x01\n              dup1\n              sload\n              tag_60\n              swap1\n              tag_61\n              jump\t// in\n            tag_60:\n              dup1\n              0x1f\n              add\n              0x20\n              dup1\n              swap2\n              div\n              mul\n              0x20\n              add\n              mload(0x40)\n              swap1\n              dup2\n              add\n              0x40\n              mstore\n              dup1\n              swap3\n              swap2\n              swap1\n              dup2\n              dup2\n              mstore\n              0x20\n              add\n              dup3\n              dup1\n              sload\n              tag_62\n              swap1\n              tag_61\n              jump\t// in\n            tag_62:\n              dup1\n              iszero\n              tag_63\n              jumpi\n              dup1\n              0x1f\n              lt\n              tag_64\n              jumpi\n              0x0100\n              dup1\n              dup4\n              sload\n              div\n              mul\n              dup4\n              mstore\n              swap2\n              0x20\n              add\n              swap2\n              jump(tag_63)\n            tag_64:\n              dup3\n              add\n              swap2\n              swap1\n              0x00\n              mstore\n              keccak256(0x00, 0x20)\n              swap1\n            tag_65:\n              dup2\n              sload\n              dup2\n              mstore\n              swap1\n              0x01\n              add\n              swap1\n              0x20\n              add\n              dup1\n              dup4\n              gt\n              tag_65\n              jumpi\n              dup3\n              swap1\n              sub\n              0x1f\n              and\n              dup3\n              add\n              swap2\n            tag_63:\n              pop\n              pop\n              pop\n              pop\n              pop\n              dup2\n              jump\t// out\n                /* \"contracts/pollio.sol\":975:995  Type public pollType */\n            tag_25:\n              0x05\n              0x00\n              swap1\n              sload\n              swap1\n              0x0100\n              exp\n              swap1\n              div\n              0xff\n              and\n              dup2\n              jump\t// out\n                /* \"contracts/pollio.sol\":856:882  string[] public candidates */\n            tag_31:\n              0x02\n              dup2\n              dup2\n              sload\n              dup2\n              lt\n              tag_66\n              jumpi\n              0x00\n              dup1\n              revert\n            tag_66:\n              swap1\n              0x00\n              mstore\n              keccak256(0x00, 0x20)\n              add\n              0x00\n              swap2\n              pop\n              swap1\n              pop\n              dup1\n              sload\n              tag_68\n              swap1\n              tag_61\n              jump\t// in\n            tag_68:\n              dup1\n              0x1f\n              add\n              0x20\n              dup1\n              swap2\n              div\n              mul\n              0x20\n              add\n              mload(0x40)\n              swap1\n              dup2\n              add\n              0x40\n              mstore\n              dup1\n              swap3\n              swap2\n              swap1\n              dup2\n              dup2\n              mstore\n              0x20\n              add\n              dup3\n              dup1\n              sload\n              tag_69\n              swap1\n              tag_61\n              jump\t// in\n            tag_69:\n              dup1\n              iszero\n              tag_70\n              jumpi\n              dup1\n              0x1f\n              lt\n              tag_71\n              jumpi\n              0x0100\n              dup1\n              dup4\n              sload\n              div\n              mul\n              dup4\n              mstore\n              swap2\n              0x20\n              add\n              swap2\n              jump(tag_70)\n            tag_71:\n              dup3\n              add\n              swap2\n              swap1\n              0x00\n              mstore\n              keccak256(0x00, 0x20)\n              swap1\n            tag_72:\n              dup2\n              sload\n              dup2\n              mstore\n              swap1\n              0x01\n              add\n              swap1\n              0x20\n              add\n              dup1\n              dup4\n              gt\n              tag_72\n              jumpi\n              dup3\n              swap1\n              sub\n              0x1f\n              and\n              dup3\n              add\n              swap2\n            tag_70:\n              pop\n              pop\n              pop\n              pop\n              pop\n              dup2\n              jump\t// out\n                /* \"contracts/pollio.sol\":888:910  uint public startBlock */\n            tag_34:\n              sload(0x03)\n              dup2\n              jump\t// out\n                /* \"contracts/pollio.sol\":2922:3065  function getResult(... */\n            tag_39:\n                /* \"contracts/pollio.sol\":3018:3022  uint */\n              0x00\n                /* \"contracts/pollio.sol\":2179:2191  Type.Private */\n              0x01\n                /* \"contracts/pollio.sol\":2167:2191  pollType == Type.Private */\n              dup1\n              dup2\n              gt\n              iszero\n              tag_74\n              jumpi\n              tag_75\n              tag_76\n              jump\t// in\n            tag_75:\n            tag_74:\n                /* \"contracts/pollio.sol\":2167:2175  pollType */\n              0x05\n              0x00\n              swap1\n              sload\n              swap1\n              0x0100\n              exp\n              swap1\n              div\n              0xff\n              and\n                /* \"contracts/pollio.sol\":2167:2191  pollType == Type.Private */\n              0x01\n              dup2\n              gt\n              iszero\n              tag_77\n              jumpi\n              tag_78\n              tag_76\n              jump\t// in\n            tag_78:\n            tag_77:\n              eq\n                /* \"contracts/pollio.sol\":2163:2318  if (pollType == Type.Private) {... */\n              iszero\n              tag_79\n              jumpi\n                /* \"contracts/pollio.sol\":2222:2232  msg.sender */\n              caller\n                /* \"contracts/pollio.sol\":2215:2232  org == msg.sender */\n              0xffffffffffffffffffffffffffffffffffffffff\n              and\n                /* \"contracts/pollio.sol\":2215:2218  org */\n              0x00\n              dup1\n              sload\n              swap1\n              0x0100\n              exp\n              swap1\n              div\n              0xffffffffffffffffffffffffffffffffffffffff\n              and\n                /* \"contracts/pollio.sol\":2215:2232  org == msg.sender */\n              0xffffffffffffffffffffffffffffffffffffffff\n              and\n              eq\n                /* \"contracts/pollio.sol\":2207:2260  require(org == msg.sender, \"This is a private poll.\") */\n              tag_80\n              jumpi\n              mload(0x40)\n              0x08c379a000000000000000000000000000000000000000000000000000000000\n              dup2\n              mstore\n              0x04\n              add\n              tag_81\n              swap1\n              tag_82\n              jump\t// in\n            tag_81:\n              mload(0x40)\n              dup1\n              swap2\n              sub\n              swap1\n              revert\n            tag_80:\n                /* \"contracts/pollio.sol\":3041:3047  result */\n              0x07\n                /* \"contracts/pollio.sol\":3048:3057  candidate */\n              dup3\n                /* \"contracts/pollio.sol\":3041:3058  result[candidate] */\n              mload(0x40)\n              tag_84\n              swap2\n              swap1\n              tag_85\n              jump\t// in\n            tag_84:\n              swap1\n              dup2\n              mstore\n              0x20\n              add\n              mload(0x40)\n              dup1\n              swap2\n              sub\n              swap1\n              keccak256\n              sload\n                /* \"contracts/pollio.sol\":3034:3058  return result[candidate] */\n              swap1\n              pop\n                /* \"contracts/pollio.sol\":2163:2318  if (pollType == Type.Private) {... */\n              jump(tag_86)\n            tag_79:\n                /* \"contracts/pollio.sol\":3041:3047  result */\n              0x07\n                /* \"contracts/pollio.sol\":3048:3057  candidate */\n              dup3\n                /* \"contracts/pollio.sol\":3041:3058  result[candidate] */\n              mload(0x40)\n              tag_88\n              swap2\n              swap1\n              tag_85\n              jump\t// in\n            tag_88:\n              swap1\n              dup2\n              mstore\n              0x20\n              add\n              mload(0x40)\n              dup1\n              swap2\n              sub\n              swap1\n              keccak256\n              sload\n                /* \"contracts/pollio.sol\":3034:3058  return result[candidate] */\n              swap1\n              pop\n                /* \"contracts/pollio.sol\":2163:2318  if (pollType == Type.Private) {... */\n            tag_86:\n                /* \"contracts/pollio.sol\":2922:3065  function getResult(... */\n              swap2\n              swap1\n              pop\n              jump\t// out\n                /* \"contracts/pollio.sol\":1054:1076  State public pollState */\n            tag_42:\n              0x05\n              0x01\n              swap1\n              sload\n              swap1\n              0x0100\n              exp\n              swap1\n              div\n              0xff\n              and\n              dup2\n              jump\t// out\n                /* \"contracts/pollio.sol\":2835:2916  function cancelPoll() public onlyOrg {... */\n            tag_46:\n                /* \"contracts/pollio.sol\":1918:1928  msg.sender */\n              caller\n                /* \"contracts/pollio.sol\":1911:1928  org == msg.sender */\n              0xffffffffffffffffffffffffffffffffffffffff\n              and\n                /* \"contracts/pollio.sol\":1911:1914  org */\n              0x00\n              dup1\n              sload\n              swap1\n              0x0100\n              exp\n              swap1\n              div\n              0xffffffffffffffffffffffffffffffffffffffff\n              and\n                /* \"contracts/pollio.sol\":1911:1928  org == msg.sender */\n              0xffffffffffffffffffffffffffffffffffffffff\n              and\n              eq\n                /* \"contracts/pollio.sol\":1903:1929  require(org == msg.sender) */\n              tag_90\n              jumpi\n              0x00\n              dup1\n              revert\n            tag_90:\n                /* \"contracts/pollio.sol\":2894:2909  State.Cancelled */\n              0x02\n                /* \"contracts/pollio.sol\":2882:2891  pollState */\n              0x05\n              0x01\n                /* \"contracts/pollio.sol\":2882:2909  pollState = State.Cancelled */\n              0x0100\n              exp\n              dup2\n              sload\n              dup2\n              0xff\n              mul\n              not\n              and\n              swap1\n              dup4\n              0x03\n              dup2\n              gt\n              iszero\n              tag_92\n              jumpi\n              tag_93\n              tag_76\n              jump\t// in\n            tag_93:\n            tag_92:\n              mul\n              or\n              swap1\n              sstore\n              pop\n                /* \"contracts/pollio.sol\":2835:2916  function cancelPoll() public onlyOrg {... */\n              jump\t// out\n                /* \"contracts/pollio.sol\":2423:2538  function increasePollDuration(uint pollDuration) public onlyOrg {... */\n            tag_49:\n                /* \"contracts/pollio.sol\":1918:1928  msg.sender */\n              caller\n                /* \"contracts/pollio.sol\":1911:1928  org == msg.sender */\n              0xffffffffffffffffffffffffffffffffffffffff\n              and\n                /* \"contracts/pollio.sol\":1911:1914  org */\n              0x00\n              dup1\n              sload\n              swap1\n              0x0100\n              exp\n              swap1\n              div\n              0xffffffffffffffffffffffffffffffffffffffff\n              and\n                /* \"contracts/pollio.sol\":1911:1928  org == msg.sender */\n              0xffffffffffffffffffffffffffffffffffffffff\n              and\n              eq\n                /* \"contracts/pollio.sol\":1903:1929  require(org == msg.sender) */\n              tag_95\n              jumpi\n              0x00\n              dup1\n              revert\n            tag_95:\n                /* \"contracts/pollio.sol\":2519:2531  pollDuration */\n              dup1\n                /* \"contracts/pollio.sol\":2508:2516  endBlock */\n              sload(0x04)\n                /* \"contracts/pollio.sol\":2508:2531  endBlock + pollDuration */\n              tag_97\n              swap2\n              swap1\n              tag_98\n              jump\t// in\n            tag_97:\n                /* \"contracts/pollio.sol\":2497:2505  endBlock */\n              0x04\n                /* \"contracts/pollio.sol\":2497:2531  endBlock = endBlock + pollDuration */\n              dup2\n              swap1\n              sstore\n              pop\n                /* \"contracts/pollio.sol\":2423:2538  function increasePollDuration(uint pollDuration) public onlyOrg {... */\n              pop\n              jump\t// out\n                /* \"contracts/pollio.sol\":2544:2829  function voteFor(string memory candidate) public beforeEnd afterStart {... */\n            tag_52:\n                /* \"contracts/pollio.sol\":2005:2013  endBlock */\n              sload(0x04)\n                /* \"contracts/pollio.sol\":1990:2002  block.number */\n              number\n                /* \"contracts/pollio.sol\":1990:2013  block.number < endBlock */\n              lt\n                /* \"contracts/pollio.sol\":1982:2014  require(block.number < endBlock) */\n              tag_100\n              jumpi\n              0x00\n              dup1\n              revert\n            tag_100:\n                /* \"contracts/pollio.sol\":2091:2101  startBlock */\n              sload(0x03)\n                /* \"contracts/pollio.sol\":2076:2088  block.number */\n              number\n                /* \"contracts/pollio.sol\":2076:2101  block.number > startBlock */\n              gt\n                /* \"contracts/pollio.sol\":2068:2102  require(block.number > startBlock) */\n              tag_102\n              jumpi\n              0x00\n              dup1\n              revert\n            tag_102:\n                /* \"contracts/pollio.sol\":2645:2660  State.Cancelled */\n              0x02\n                /* \"contracts/pollio.sol\":2632:2660  pollState != State.Cancelled */\n              0x03\n              dup2\n              gt\n              iszero\n              tag_104\n              jumpi\n              tag_105\n              tag_76\n              jump\t// in\n            tag_105:\n            tag_104:\n                /* \"contracts/pollio.sol\":2632:2641  pollState */\n              0x05\n              0x01\n              swap1\n              sload\n              swap1\n              0x0100\n              exp\n              swap1\n              div\n              0xff\n              and\n                /* \"contracts/pollio.sol\":2632:2660  pollState != State.Cancelled */\n              0x03\n              dup2\n              gt\n              iszero\n              tag_106\n              jumpi\n              tag_107\n              tag_76\n              jump\t// in\n            tag_107:\n            tag_106:\n              eq\n              iszero\n                /* \"contracts/pollio.sol\":2624:2661  require(pollState != State.Cancelled) */\n              tag_108\n              jumpi\n              0x00\n              dup1\n              revert\n            tag_108:\n                /* \"contracts/pollio.sol\":2671:2684  address voter */\n              0x00\n                /* \"contracts/pollio.sol\":2687:2697  msg.sender */\n              caller\n                /* \"contracts/pollio.sol\":2671:2697  address voter = msg.sender */\n              swap1\n              pop\n                /* \"contracts/pollio.sol\":2716:2723  isVoted */\n              0x06\n                /* \"contracts/pollio.sol\":2716:2730  isVoted[voter] */\n              0x00\n                /* \"contracts/pollio.sol\":2724:2729  voter */\n              dup3\n                /* \"contracts/pollio.sol\":2716:2730  isVoted[voter] */\n              0xffffffffffffffffffffffffffffffffffffffff\n              and\n              0xffffffffffffffffffffffffffffffffffffffff\n              and\n              dup2\n              mstore\n              0x20\n              add\n              swap1\n              dup2\n              mstore\n              0x20\n              add\n              0x00\n              keccak256\n              0x00\n              swap1\n              sload\n              swap1\n              0x0100\n              exp\n              swap1\n              div\n              0xff\n              and\n                /* \"contracts/pollio.sol\":2715:2730  !isVoted[voter] */\n              iszero\n                /* \"contracts/pollio.sol\":2707:2758  require(!isVoted[voter], \"You have already voted!\") */\n              tag_109\n              jumpi\n              mload(0x40)\n              0x08c379a000000000000000000000000000000000000000000000000000000000\n              dup2\n              mstore\n              0x04\n              add\n              tag_110\n              swap1\n              tag_111\n              jump\t// in\n            tag_110:\n              mload(0x40)\n              dup1\n              swap2\n              sub\n              swap1\n              revert\n            tag_109:\n                /* \"contracts/pollio.sol\":2786:2790  true */\n              0x01\n                /* \"contracts/pollio.sol\":2769:2776  isVoted */\n              0x06\n                /* \"contracts/pollio.sol\":2769:2783  isVoted[voter] */\n              0x00\n                /* \"contracts/pollio.sol\":2777:2782  voter */\n              dup4\n                /* \"contracts/pollio.sol\":2769:2783  isVoted[voter] */\n              0xffffffffffffffffffffffffffffffffffffffff\n              and\n              0xffffffffffffffffffffffffffffffffffffffff\n              and\n              dup2\n              mstore\n              0x20\n              add\n              swap1\n              dup2\n              mstore\n              0x20\n              add\n              0x00\n              keccak256\n              0x00\n                /* \"contracts/pollio.sol\":2769:2790  isVoted[voter] = true */\n              0x0100\n              exp\n              dup2\n              sload\n              dup2\n              0xff\n              mul\n              not\n              and\n              swap1\n              dup4\n              iszero\n              iszero\n              mul\n              or\n              swap1\n              sstore\n              pop\n                /* \"contracts/pollio.sol\":2821:2822  1 */\n              0x01\n                /* \"contracts/pollio.sol\":2800:2806  result */\n              0x07\n                /* \"contracts/pollio.sol\":2807:2816  candidate */\n              dup4\n                /* \"contracts/pollio.sol\":2800:2817  result[candidate] */\n              mload(0x40)\n              tag_112\n              swap2\n              swap1\n              tag_85\n              jump\t// in\n            tag_112:\n              swap1\n              dup2\n              mstore\n              0x20\n              add\n              mload(0x40)\n              dup1\n              swap2\n              sub\n              swap1\n              keccak256\n              0x00\n                /* \"contracts/pollio.sol\":2800:2822  result[candidate] += 1 */\n              dup3\n              dup3\n              sload\n              tag_113\n              swap2\n              swap1\n              tag_98\n              jump\t// in\n            tag_113:\n              swap3\n              pop\n              pop\n              dup2\n              swap1\n              sstore\n              pop\n                /* \"contracts/pollio.sol\":2614:2829  {... */\n              pop\n                /* \"contracts/pollio.sol\":2544:2829  function voteFor(string memory candidate) public beforeEnd afterStart {... */\n              pop\n              jump\t// out\n                /* \"contracts/pollio.sol\":2330:2417  function renamePoll(string memory name) public onlyOrg {... */\n            tag_55:\n                /* \"contracts/pollio.sol\":1918:1928  msg.sender */\n              caller\n                /* \"contracts/pollio.sol\":1911:1928  org == msg.sender */\n              0xffffffffffffffffffffffffffffffffffffffff\n              and\n                /* \"contracts/pollio.sol\":1911:1914  org */\n              0x00\n              dup1\n              sload\n              swap1\n              0x0100\n              exp\n              swap1\n              div\n              0xffffffffffffffffffffffffffffffffffffffff\n              and\n                /* \"contracts/pollio.sol\":1911:1928  org == msg.sender */\n              0xffffffffffffffffffffffffffffffffffffffff\n              and\n              eq\n                /* \"contracts/pollio.sol\":1903:1929  require(org == msg.sender) */\n              tag_115\n              jumpi\n              0x00\n              dup1\n              revert\n            tag_115:\n                /* \"contracts/pollio.sol\":2406:2410  name */\n              dup1\n                /* \"contracts/pollio.sol\":2395:2403  pollName */\n              0x01\n                /* \"contracts/pollio.sol\":2395:2410  pollName = name */\n              swap1\n              dup1\n              mload\n              swap1\n              0x20\n              add\n              swap1\n              tag_117\n              swap3\n              swap2\n              swap1\n              tag_118\n              jump\t// in\n            tag_117:\n              pop\n                /* \"contracts/pollio.sol\":2330:2417  function renamePoll(string memory name) public onlyOrg {... */\n              pop\n              jump\t// out\n                /* \"contracts/pollio.sol\":796:822  address payable public org */\n            tag_57:\n              0x00\n              dup1\n              sload\n              swap1\n              0x0100\n              exp\n              swap1\n              div\n              0xffffffffffffffffffffffffffffffffffffffff\n              and\n              dup2\n              jump\t// out\n            tag_118:\n              dup3\n              dup1\n              sload\n              tag_119\n              swap1\n              tag_61\n              jump\t// in\n            tag_119:\n              swap1\n              0x00\n              mstore\n              keccak256(0x00, 0x20)\n              swap1\n              0x1f\n              add\n              0x20\n              swap1\n              div\n              dup2\n              add\n              swap3\n              dup3\n              tag_121\n              jumpi\n              0x00\n              dup6\n              sstore\n              jump(tag_120)\n            tag_121:\n              dup3\n              0x1f\n              lt\n              tag_122\n              jumpi\n              dup1\n              mload\n              not(0xff)\n              and\n              dup4\n              dup1\n              add\n              or\n              dup6\n              sstore\n              jump(tag_120)\n            tag_122:\n              dup3\n              dup1\n              add\n              0x01\n              add\n              dup6\n              sstore\n              dup3\n              iszero\n              tag_120\n              jumpi\n              swap2\n              dup3\n              add\n            tag_123:\n              dup3\n              dup2\n              gt\n              iszero\n              tag_124\n              jumpi\n              dup3\n              mload\n              dup3\n              sstore\n              swap2\n              0x20\n              add\n              swap2\n              swap1\n              0x01\n              add\n              swap1\n              jump(tag_123)\n            tag_124:\n            tag_120:\n              pop\n              swap1\n              pop\n              tag_125\n              swap2\n              swap1\n              tag_126\n              jump\t// in\n            tag_125:\n              pop\n              swap1\n              jump\t// out\n            tag_126:\n            tag_127:\n              dup1\n              dup3\n              gt\n              iszero\n              tag_128\n              jumpi\n              0x00\n              dup2\n              0x00\n              swap1\n              sstore\n              pop\n              0x01\n              add\n              jump(tag_127)\n            tag_128:\n              pop\n              swap1\n              jump\t// out\n                /* \"#utility.yul\":7:419   */\n            tag_130:\n                /* \"#utility.yul\":85:90   */\n              0x00\n                /* \"#utility.yul\":110:176   */\n              tag_132\n                /* \"#utility.yul\":126:175   */\n              tag_133\n                /* \"#utility.yul\":168:174   */\n              dup5\n                /* \"#utility.yul\":126:175   */\n              tag_134\n              jump\t// in\n            tag_133:\n                /* \"#utility.yul\":110:176   */\n              tag_135\n              jump\t// in\n            tag_132:\n                /* \"#utility.yul\":101:176   */\n              swap1\n              pop\n                /* \"#utility.yul\":199:205   */\n              dup3\n                /* \"#utility.yul\":192:197   */\n              dup2\n                /* \"#utility.yul\":185:206   */\n              mstore\n                /* \"#utility.yul\":237:241   */\n              0x20\n                /* \"#utility.yul\":230:235   */\n              dup2\n                /* \"#utility.yul\":226:242   */\n              add\n                /* \"#utility.yul\":275:278   */\n              dup5\n                /* \"#utility.yul\":266:272   */\n              dup5\n                /* \"#utility.yul\":261:264   */\n              dup5\n                /* \"#utility.yul\":257:273   */\n              add\n                /* \"#utility.yul\":254:279   */\n              gt\n                /* \"#utility.yul\":251:363   */\n              iszero\n              tag_136\n              jumpi\n                /* \"#utility.yul\":282:361   */\n              tag_137\n              tag_138\n              jump\t// in\n            tag_137:\n                /* \"#utility.yul\":251:363   */\n            tag_136:\n                /* \"#utility.yul\":372:413   */\n              tag_139\n                /* \"#utility.yul\":406:412   */\n              dup5\n                /* \"#utility.yul\":401:404   */\n              dup3\n                /* \"#utility.yul\":396:399   */\n              dup6\n                /* \"#utility.yul\":372:413   */\n              tag_140\n              jump\t// in\n            tag_139:\n                /* \"#utility.yul\":91:419   */\n              pop\n                /* \"#utility.yul\":7:419   */\n              swap4\n              swap3\n              pop\n              pop\n              pop\n              jump\t// out\n                /* \"#utility.yul\":439:779   */\n            tag_141:\n                /* \"#utility.yul\":495:500   */\n              0x00\n                /* \"#utility.yul\":544:547   */\n              dup3\n                /* \"#utility.yul\":537:541   */\n              0x1f\n                /* \"#utility.yul\":529:535   */\n              dup4\n                /* \"#utility.yul\":525:542   */\n              add\n                /* \"#utility.yul\":521:548   */\n              slt\n                /* \"#utility.yul\":511:633   */\n              tag_143\n              jumpi\n                /* \"#utility.yul\":552:631   */\n              tag_144\n              tag_145\n              jump\t// in\n            tag_144:\n                /* \"#utility.yul\":511:633   */\n            tag_143:\n                /* \"#utility.yul\":669:675   */\n              dup2\n                /* \"#utility.yul\":656:676   */\n              calldataload\n                /* \"#utility.yul\":694:773   */\n              tag_146\n                /* \"#utility.yul\":769:772   */\n              dup5\n                /* \"#utility.yul\":761:767   */\n              dup3\n                /* \"#utility.yul\":754:758   */\n              0x20\n                /* \"#utility.yul\":746:752   */\n              dup7\n                /* \"#utility.yul\":742:759   */\n              add\n                /* \"#utility.yul\":694:773   */\n              tag_130\n              jump\t// in\n            tag_146:\n                /* \"#utility.yul\":685:773   */\n              swap2\n              pop\n                /* \"#utility.yul\":501:779   */\n              pop\n                /* \"#utility.yul\":439:779   */\n              swap3\n              swap2\n              pop\n              pop\n              jump\t// out\n                /* \"#utility.yul\":785:924   */\n            tag_147:\n                /* \"#utility.yul\":831:836   */\n              0x00\n                /* \"#utility.yul\":869:875   */\n              dup2\n                /* \"#utility.yul\":856:876   */\n              calldataload\n                /* \"#utility.yul\":847:876   */\n              swap1\n              pop\n                /* \"#utility.yul\":885:918   */\n              tag_149\n                /* \"#utility.yul\":912:917   */\n              dup2\n                /* \"#utility.yul\":885:918   */\n              tag_150\n              jump\t// in\n            tag_149:\n                /* \"#utility.yul\":785:924   */\n              swap3\n              swap2\n              pop\n              pop\n              jump\t// out\n                /* \"#utility.yul\":930:1439   */\n            tag_38:\n                /* \"#utility.yul\":999:1005   */\n              0x00\n                /* \"#utility.yul\":1048:1050   */\n              0x20\n                /* \"#utility.yul\":1036:1045   */\n              dup3\n                /* \"#utility.yul\":1027:1034   */\n              dup5\n                /* \"#utility.yul\":1023:1046   */\n              sub\n                /* \"#utility.yul\":1019:1051   */\n              slt\n                /* \"#utility.yul\":1016:1135   */\n              iszero\n              tag_152\n              jumpi\n                /* \"#utility.yul\":1054:1133   */\n              tag_153\n              tag_154\n              jump\t// in\n            tag_153:\n                /* \"#utility.yul\":1016:1135   */\n            tag_152:\n                /* \"#utility.yul\":1202:1203   */\n              0x00\n                /* \"#utility.yul\":1191:1200   */\n              dup3\n                /* \"#utility.yul\":1187:1204   */\n              add\n                /* \"#utility.yul\":1174:1205   */\n              calldataload\n                /* \"#utility.yul\":1232:1250   */\n              0xffffffffffffffff\n                /* \"#utility.yul\":1224:1230   */\n              dup2\n                /* \"#utility.yul\":1221:1251   */\n              gt\n                /* \"#utility.yul\":1218:1335   */\n              iszero\n              tag_155\n              jumpi\n                /* \"#utility.yul\":1254:1333   */\n              tag_156\n              tag_157\n              jump\t// in\n            tag_156:\n                /* \"#utility.yul\":1218:1335   */\n            tag_155:\n                /* \"#utility.yul\":1359:1422   */\n              tag_158\n                /* \"#utility.yul\":1414:1421   */\n              dup5\n                /* \"#utility.yul\":1405:1411   */\n              dup3\n                /* \"#utility.yul\":1394:1403   */\n              dup6\n                /* \"#utility.yul\":1390:1412   */\n              add\n                /* \"#utility.yul\":1359:1422   */\n              tag_141\n              jump\t// in\n            tag_158:\n                /* \"#utility.yul\":1349:1422   */\n              swap2\n              pop\n                /* \"#utility.yul\":1145:1432   */\n              pop\n                /* \"#utility.yul\":930:1439   */\n              swap3\n              swap2\n              pop\n              pop\n              jump\t// out\n                /* \"#utility.yul\":1445:1774   */\n            tag_30:\n                /* \"#utility.yul\":1504:1510   */\n              0x00\n                /* \"#utility.yul\":1553:1555   */\n              0x20\n                /* \"#utility.yul\":1541:1550   */\n              dup3\n                /* \"#utility.yul\":1532:1539   */\n              dup5\n                /* \"#utility.yul\":1528:1551   */\n              sub\n                /* \"#utility.yul\":1524:1556   */\n              slt\n                /* \"#utility.yul\":1521:1640   */\n              iszero\n              tag_160\n              jumpi\n                /* \"#utility.yul\":1559:1638   */\n              tag_161\n              tag_154\n              jump\t// in\n            tag_161:\n                /* \"#utility.yul\":1521:1640   */\n            tag_160:\n                /* \"#utility.yul\":1679:1680   */\n              0x00\n                /* \"#utility.yul\":1704:1757   */\n              tag_162\n                /* \"#utility.yul\":1749:1756   */\n              dup5\n                /* \"#utility.yul\":1740:1746   */\n              dup3\n                /* \"#utility.yul\":1729:1738   */\n              dup6\n                /* \"#utility.yul\":1725:1747   */\n              add\n                /* \"#utility.yul\":1704:1757   */\n              tag_147\n              jump\t// in\n            tag_162:\n                /* \"#utility.yul\":1694:1757   */\n              swap2\n              pop\n                /* \"#utility.yul\":1650:1767   */\n              pop\n                /* \"#utility.yul\":1445:1774   */\n              swap3\n              swap2\n              pop\n              pop\n              jump\t// out\n                /* \"#utility.yul\":1780:1922   */\n            tag_163:\n                /* \"#utility.yul\":1883:1915   */\n              tag_165\n                /* \"#utility.yul\":1909:1914   */\n              dup2\n                /* \"#utility.yul\":1883:1915   */\n              tag_166\n              jump\t// in\n            tag_165:\n                /* \"#utility.yul\":1878:1881   */\n              dup3\n                /* \"#utility.yul\":1871:1916   */\n              mstore\n                /* \"#utility.yul\":1780:1922   */\n              pop\n              pop\n              jump\t// out\n                /* \"#utility.yul\":1928:2071   */\n            tag_167:\n                /* \"#utility.yul\":2021:2064   */\n              tag_169\n                /* \"#utility.yul\":2058:2063   */\n              dup2\n                /* \"#utility.yul\":2021:2064   */\n              tag_170\n              jump\t// in\n            tag_169:\n                /* \"#utility.yul\":2016:2019   */\n              dup3\n                /* \"#utility.yul\":2009:2065   */\n              mstore\n                /* \"#utility.yul\":1928:2071   */\n              pop\n              pop\n              jump\t// out\n                /* \"#utility.yul\":2077:2218   */\n            tag_171:\n                /* \"#utility.yul\":2169:2211   */\n              tag_173\n                /* \"#utility.yul\":2205:2210   */\n              dup2\n                /* \"#utility.yul\":2169:2211   */\n              tag_174\n              jump\t// in\n            tag_173:\n                /* \"#utility.yul\":2164:2167   */\n              dup3\n                /* \"#utility.yul\":2157:2212   */\n              mstore\n                /* \"#utility.yul\":2077:2218   */\n              pop\n              pop\n              jump\t// out\n                /* \"#utility.yul\":2224:2588   */\n            tag_175:\n                /* \"#utility.yul\":2312:2315   */\n              0x00\n                /* \"#utility.yul\":2340:2379   */\n              tag_177\n                /* \"#utility.yul\":2373:2378   */\n              dup3\n                /* \"#utility.yul\":2340:2379   */\n              tag_178\n              jump\t// in\n            tag_177:\n                /* \"#utility.yul\":2395:2466   */\n              tag_179\n                /* \"#utility.yul\":2459:2465   */\n              dup2\n                /* \"#utility.yul\":2454:2457   */\n              dup6\n                /* \"#utility.yul\":2395:2466   */\n              tag_180\n              jump\t// in\n            tag_179:\n                /* \"#utility.yul\":2388:2466   */\n              swap4\n              pop\n                /* \"#utility.yul\":2475:2527   */\n              tag_181\n                /* \"#utility.yul\":2520:2526   */\n              dup2\n                /* \"#utility.yul\":2515:2518   */\n              dup6\n                /* \"#utility.yul\":2508:2512   */\n              0x20\n                /* \"#utility.yul\":2501:2506   */\n              dup7\n                /* \"#utility.yul\":2497:2513   */\n              add\n                /* \"#utility.yul\":2475:2527   */\n              tag_182\n              jump\t// in\n            tag_181:\n                /* \"#utility.yul\":2552:2581   */\n              tag_183\n                /* \"#utility.yul\":2574:2580   */\n              dup2\n                /* \"#utility.yul\":2552:2581   */\n              tag_184\n              jump\t// in\n            tag_183:\n                /* \"#utility.yul\":2547:2550   */\n              dup5\n                /* \"#utility.yul\":2543:2582   */\n              add\n                /* \"#utility.yul\":2536:2582   */\n              swap2\n              pop\n                /* \"#utility.yul\":2316:2588   */\n              pop\n                /* \"#utility.yul\":2224:2588   */\n              swap3\n              swap2\n              pop\n              pop\n              jump\t// out\n                /* \"#utility.yul\":2594:2971   */\n            tag_185:\n                /* \"#utility.yul\":2700:2703   */\n              0x00\n                /* \"#utility.yul\":2728:2767   */\n              tag_187\n                /* \"#utility.yul\":2761:2766   */\n              dup3\n                /* \"#utility.yul\":2728:2767   */\n              tag_178\n              jump\t// in\n            tag_187:\n                /* \"#utility.yul\":2783:2872   */\n              tag_188\n                /* \"#utility.yul\":2865:2871   */\n              dup2\n                /* \"#utility.yul\":2860:2863   */\n              dup6\n                /* \"#utility.yul\":2783:2872   */\n              tag_189\n              jump\t// in\n            tag_188:\n                /* \"#utility.yul\":2776:2872   */\n              swap4\n              pop\n                /* \"#utility.yul\":2881:2933   */\n              tag_190\n                /* \"#utility.yul\":2926:2932   */\n              dup2\n                /* \"#utility.yul\":2921:2924   */\n              dup6\n                /* \"#utility.yul\":2914:2918   */\n              0x20\n                /* \"#utility.yul\":2907:2912   */\n              dup7\n                /* \"#utility.yul\":2903:2919   */\n              add\n                /* \"#utility.yul\":2881:2933   */\n              tag_182\n              jump\t// in\n            tag_190:\n                /* \"#utility.yul\":2958:2964   */\n              dup1\n                /* \"#utility.yul\":2953:2956   */\n              dup5\n                /* \"#utility.yul\":2949:2965   */\n              add\n                /* \"#utility.yul\":2942:2965   */\n              swap2\n              pop\n                /* \"#utility.yul\":2704:2971   */\n              pop\n                /* \"#utility.yul\":2594:2971   */\n              swap3\n              swap2\n              pop\n              pop\n              jump\t// out\n                /* \"#utility.yul\":2977:3343   */\n            tag_191:\n                /* \"#utility.yul\":3119:3122   */\n              0x00\n                /* \"#utility.yul\":3140:3207   */\n              tag_193\n                /* \"#utility.yul\":3204:3206   */\n              0x17\n                /* \"#utility.yul\":3199:3202   */\n              dup4\n                /* \"#utility.yul\":3140:3207   */\n              tag_180\n              jump\t// in\n            tag_193:\n                /* \"#utility.yul\":3133:3207   */\n              swap2\n              pop\n                /* \"#utility.yul\":3216:3309   */\n              tag_194\n                /* \"#utility.yul\":3305:3308   */\n              dup3\n                /* \"#utility.yul\":3216:3309   */\n              tag_195\n              jump\t// in\n            tag_194:\n                /* \"#utility.yul\":3334:3336   */\n              0x20\n                /* \"#utility.yul\":3329:3332   */\n              dup3\n                /* \"#utility.yul\":3325:3337   */\n              add\n                /* \"#utility.yul\":3318:3337   */\n              swap1\n              pop\n                /* \"#utility.yul\":2977:3343   */\n              swap2\n              swap1\n              pop\n              jump\t// out\n                /* \"#utility.yul\":3349:3715   */\n            tag_196:\n                /* \"#utility.yul\":3491:3494   */\n              0x00\n                /* \"#utility.yul\":3512:3579   */\n              tag_198\n                /* \"#utility.yul\":3576:3578   */\n              0x17\n                /* \"#utility.yul\":3571:3574   */\n              dup4\n                /* \"#utility.yul\":3512:3579   */\n              tag_180\n              jump\t// in\n            tag_198:\n                /* \"#utility.yul\":3505:3579   */\n              swap2\n              pop\n                /* \"#utility.yul\":3588:3681   */\n              tag_199\n                /* \"#utility.yul\":3677:3680   */\n              dup3\n                /* \"#utility.yul\":3588:3681   */\n              tag_200\n              jump\t// in\n            tag_199:\n                /* \"#utility.yul\":3706:3708   */\n              0x20\n                /* \"#utility.yul\":3701:3704   */\n              dup3\n                /* \"#utility.yul\":3697:3709   */\n              add\n                /* \"#utility.yul\":3690:3709   */\n              swap1\n              pop\n                /* \"#utility.yul\":3349:3715   */\n              swap2\n              swap1\n              pop\n              jump\t// out\n                /* \"#utility.yul\":3721:3839   */\n            tag_201:\n                /* \"#utility.yul\":3808:3832   */\n              tag_203\n                /* \"#utility.yul\":3826:3831   */\n              dup2\n                /* \"#utility.yul\":3808:3832   */\n              tag_204\n              jump\t// in\n            tag_203:\n                /* \"#utility.yul\":3803:3806   */\n              dup3\n                /* \"#utility.yul\":3796:3833   */\n              mstore\n                /* \"#utility.yul\":3721:3839   */\n              pop\n              pop\n              jump\t// out\n                /* \"#utility.yul\":3845:4120   */\n            tag_85:\n                /* \"#utility.yul\":3977:3980   */\n              0x00\n                /* \"#utility.yul\":3999:4094   */\n              tag_206\n                /* \"#utility.yul\":4090:4093   */\n              dup3\n                /* \"#utility.yul\":4081:4087   */\n              dup5\n                /* \"#utility.yul\":3999:4094   */\n              tag_185\n              jump\t// in\n            tag_206:\n                /* \"#utility.yul\":3992:4094   */\n              swap2\n              pop\n                /* \"#utility.yul\":4111:4114   */\n              dup2\n                /* \"#utility.yul\":4104:4114   */\n              swap1\n              pop\n                /* \"#utility.yul\":3845:4120   */\n              swap3\n              swap2\n              pop\n              pop\n              jump\t// out\n                /* \"#utility.yul\":4126:4380   */\n            tag_59:\n                /* \"#utility.yul\":4235:4239   */\n              0x00\n                /* \"#utility.yul\":4273:4275   */\n              0x20\n                /* \"#utility.yul\":4262:4271   */\n              dup3\n                /* \"#utility.yul\":4258:4276   */\n              add\n                /* \"#utility.yul\":4250:4276   */\n              swap1\n              pop\n                /* \"#utility.yul\":4286:4373   */\n              tag_208\n                /* \"#utility.yul\":4370:4371   */\n              0x00\n                /* \"#utility.yul\":4359:4368   */\n              dup4\n                /* \"#utility.yul\":4355:4372   */\n              add\n                /* \"#utility.yul\":4346:4352   */\n              dup5\n                /* \"#utility.yul\":4286:4373   */\n              tag_163\n              jump\t// in\n            tag_208:\n                /* \"#utility.yul\":4126:4380   */\n              swap3\n              swap2\n              pop\n              pop\n              jump\t// out\n                /* \"#utility.yul\":4386:4620   */\n            tag_44:\n                /* \"#utility.yul\":4485:4489   */\n              0x00\n                /* \"#utility.yul\":4523:4525   */\n              0x20\n                /* \"#utility.yul\":4512:4521   */\n              dup3\n                /* \"#utility.yul\":4508:4526   */\n              add\n                /* \"#utility.yul\":4500:4526   */\n              swap1\n              pop\n                /* \"#utility.yul\":4536:4613   */\n              tag_210\n                /* \"#utility.yul\":4610:4611   */\n              0x00\n                /* \"#utility.yul\":4599:4608   */\n              dup4\n                /* \"#utility.yul\":4595:4612   */\n              add\n                /* \"#utility.yul\":4586:4592   */\n              dup5\n                /* \"#utility.yul\":4536:4613   */\n              tag_167\n              jump\t// in\n            tag_210:\n                /* \"#utility.yul\":4386:4620   */\n              swap3\n              swap2\n              pop\n              pop\n              jump\t// out\n                /* \"#utility.yul\":4626:4858   */\n            tag_27:\n                /* \"#utility.yul\":4724:4728   */\n              0x00\n                /* \"#utility.yul\":4762:4764   */\n              0x20\n                /* \"#utility.yul\":4751:4760   */\n              dup3\n                /* \"#utility.yul\":4747:4765   */\n              add\n                /* \"#utility.yul\":4739:4765   */\n              swap1\n              pop\n                /* \"#utility.yul\":4775:4851   */\n              tag_212\n                /* \"#utility.yul\":4848:4849   */\n              0x00\n                /* \"#utility.yul\":4837:4846   */\n              dup4\n                /* \"#utility.yul\":4833:4850   */\n              add\n                /* \"#utility.yul\":4824:4830   */\n              dup5\n                /* \"#utility.yul\":4775:4851   */\n              tag_171\n              jump\t// in\n            tag_212:\n                /* \"#utility.yul\":4626:4858   */\n              swap3\n              swap2\n              pop\n              pop\n              jump\t// out\n                /* \"#utility.yul\":4864:5177   */\n            tag_23:\n                /* \"#utility.yul\":4977:4981   */\n              0x00\n                /* \"#utility.yul\":5015:5017   */\n              0x20\n                /* \"#utility.yul\":5004:5013   */\n              dup3\n                /* \"#utility.yul\":5000:5018   */\n              add\n                /* \"#utility.yul\":4992:5018   */\n              swap1\n              pop\n                /* \"#utility.yul\":5064:5073   */\n              dup2\n                /* \"#utility.yul\":5058:5062   */\n              dup2\n                /* \"#utility.yul\":5054:5074   */\n              sub\n                /* \"#utility.yul\":5050:5051   */\n              0x00\n                /* \"#utility.yul\":5039:5048   */\n              dup4\n                /* \"#utility.yul\":5035:5052   */\n              add\n                /* \"#utility.yul\":5028:5075   */\n              mstore\n                /* \"#utility.yul\":5092:5170   */\n              tag_214\n                /* \"#utility.yul\":5165:5169   */\n              dup2\n                /* \"#utility.yul\":5156:5162   */\n              dup5\n                /* \"#utility.yul\":5092:5170   */\n              tag_175\n              jump\t// in\n            tag_214:\n                /* \"#utility.yul\":5084:5170   */\n              swap1\n              pop\n                /* \"#utility.yul\":4864:5177   */\n              swap3\n              swap2\n              pop\n              pop\n              jump\t// out\n                /* \"#utility.yul\":5183:5602   */\n            tag_82:\n                /* \"#utility.yul\":5349:5353   */\n              0x00\n                /* \"#utility.yul\":5387:5389   */\n              0x20\n                /* \"#utility.yul\":5376:5385   */\n              dup3\n                /* \"#utility.yul\":5372:5390   */\n              add\n                /* \"#utility.yul\":5364:5390   */\n              swap1\n              pop\n                /* \"#utility.yul\":5436:5445   */\n              dup2\n                /* \"#utility.yul\":5430:5434   */\n              dup2\n                /* \"#utility.yul\":5426:5446   */\n              sub\n                /* \"#utility.yul\":5422:5423   */\n              0x00\n                /* \"#utility.yul\":5411:5420   */\n              dup4\n                /* \"#utility.yul\":5407:5424   */\n              add\n                /* \"#utility.yul\":5400:5447   */\n              mstore\n                /* \"#utility.yul\":5464:5595   */\n              tag_216\n                /* \"#utility.yul\":5590:5594   */\n              dup2\n                /* \"#utility.yul\":5464:5595   */\n              tag_191\n              jump\t// in\n            tag_216:\n                /* \"#utility.yul\":5456:5595   */\n              swap1\n              pop\n                /* \"#utility.yul\":5183:5602   */\n              swap2\n              swap1\n              pop\n              jump\t// out\n                /* \"#utility.yul\":5608:6027   */\n            tag_111:\n                /* \"#utility.yul\":5774:5778   */\n              0x00\n                /* \"#utility.yul\":5812:5814   */\n              0x20\n                /* \"#utility.yul\":5801:5810   */\n              dup3\n                /* \"#utility.yul\":5797:5815   */\n              add\n                /* \"#utility.yul\":5789:5815   */\n              swap1\n              pop\n                /* \"#utility.yul\":5861:5870   */\n              dup2\n                /* \"#utility.yul\":5855:5859   */\n              dup2\n                /* \"#utility.yul\":5851:5871   */\n              sub\n                /* \"#utility.yul\":5847:5848   */\n              0x00\n                /* \"#utility.yul\":5836:5845   */\n              dup4\n                /* \"#utility.yul\":5832:5849   */\n              add\n                /* \"#utility.yul\":5825:5872   */\n              mstore\n                /* \"#utility.yul\":5889:6020   */\n              tag_218\n                /* \"#utility.yul\":6015:6019   */\n              dup2\n                /* \"#utility.yul\":5889:6020   */\n              tag_196\n              jump\t// in\n            tag_218:\n                /* \"#utility.yul\":5881:6020   */\n              swap1\n              pop\n                /* \"#utility.yul\":5608:6027   */\n              swap2\n              swap1\n              pop\n              jump\t// out\n                /* \"#utility.yul\":6033:6255   */\n            tag_19:\n                /* \"#utility.yul\":6126:6130   */\n              0x00\n                /* \"#utility.yul\":6164:6166   */\n              0x20\n                /* \"#utility.yul\":6153:6162   */\n              dup3\n                /* \"#utility.yul\":6149:6167   */\n              add\n                /* \"#utility.yul\":6141:6167   */\n              swap1\n              pop\n                /* \"#utility.yul\":6177:6248   */\n              tag_220\n                /* \"#utility.yul\":6245:6246   */\n              0x00\n                /* \"#utility.yul\":6234:6243   */\n              dup4\n                /* \"#utility.yul\":6230:6247   */\n              add\n                /* \"#utility.yul\":6221:6227   */\n              dup5\n                /* \"#utility.yul\":6177:6248   */\n              tag_201\n              jump\t// in\n            tag_220:\n                /* \"#utility.yul\":6033:6255   */\n              swap3\n              swap2\n              pop\n              pop\n              jump\t// out\n                /* \"#utility.yul\":6261:6390   */\n            tag_135:\n                /* \"#utility.yul\":6295:6301   */\n              0x00\n                /* \"#utility.yul\":6322:6342   */\n              tag_222\n              tag_223\n              jump\t// in\n            tag_222:\n                /* \"#utility.yul\":6312:6342   */\n              swap1\n              pop\n                /* \"#utility.yul\":6351:6384   */\n              tag_224\n                /* \"#utility.yul\":6379:6383   */\n              dup3\n                /* \"#utility.yul\":6371:6377   */\n              dup3\n                /* \"#utility.yul\":6351:6384   */\n              tag_225\n              jump\t// in\n            tag_224:\n                /* \"#utility.yul\":6261:6390   */\n              swap2\n              swap1\n              pop\n              jump\t// out\n                /* \"#utility.yul\":6396:6471   */\n            tag_223:\n                /* \"#utility.yul\":6429:6435   */\n              0x00\n                /* \"#utility.yul\":6462:6464   */\n              0x40\n                /* \"#utility.yul\":6456:6465   */\n              mload\n                /* \"#utility.yul\":6446:6465   */\n              swap1\n              pop\n                /* \"#utility.yul\":6396:6471   */\n              swap1\n              jump\t// out\n                /* \"#utility.yul\":6477:6785   */\n            tag_134:\n                /* \"#utility.yul\":6539:6543   */\n              0x00\n                /* \"#utility.yul\":6629:6647   */\n              0xffffffffffffffff\n                /* \"#utility.yul\":6621:6627   */\n              dup3\n                /* \"#utility.yul\":6618:6648   */\n              gt\n                /* \"#utility.yul\":6615:6671   */\n              iszero\n              tag_228\n              jumpi\n                /* \"#utility.yul\":6651:6669   */\n              tag_229\n              tag_230\n              jump\t// in\n            tag_229:\n                /* \"#utility.yul\":6615:6671   */\n            tag_228:\n                /* \"#utility.yul\":6689:6718   */\n              tag_231\n                /* \"#utility.yul\":6711:6717   */\n              dup3\n                /* \"#utility.yul\":6689:6718   */\n              tag_184\n              jump\t// in\n            tag_231:\n                /* \"#utility.yul\":6681:6718   */\n              swap1\n              pop\n                /* \"#utility.yul\":6773:6777   */\n              0x20\n                /* \"#utility.yul\":6767:6771   */\n              dup2\n                /* \"#utility.yul\":6763:6778   */\n              add\n                /* \"#utility.yul\":6755:6778   */\n              swap1\n              pop\n                /* \"#utility.yul\":6477:6785   */\n              swap2\n              swap1\n              pop\n              jump\t// out\n                /* \"#utility.yul\":6791:6890   */\n            tag_178:\n                /* \"#utility.yul\":6843:6849   */\n              0x00\n                /* \"#utility.yul\":6877:6882   */\n              dup2\n                /* \"#utility.yul\":6871:6883   */\n              mload\n                /* \"#utility.yul\":6861:6883   */\n              swap1\n              pop\n                /* \"#utility.yul\":6791:6890   */\n              swap2\n              swap1\n              pop\n              jump\t// out\n                /* \"#utility.yul\":6896:7065   */\n            tag_180:\n                /* \"#utility.yul\":6980:6991   */\n              0x00\n                /* \"#utility.yul\":7014:7020   */\n              dup3\n                /* \"#utility.yul\":7009:7012   */\n              dup3\n                /* \"#utility.yul\":7002:7021   */\n              mstore\n                /* \"#utility.yul\":7054:7058   */\n              0x20\n                /* \"#utility.yul\":7049:7052   */\n              dup3\n                /* \"#utility.yul\":7045:7059   */\n              add\n                /* \"#utility.yul\":7030:7059   */\n              swap1\n              pop\n                /* \"#utility.yul\":6896:7065   */\n              swap3\n              swap2\n              pop\n              pop\n              jump\t// out\n                /* \"#utility.yul\":7071:7219   */\n            tag_189:\n                /* \"#utility.yul\":7173:7184   */\n              0x00\n                /* \"#utility.yul\":7210:7213   */\n              dup2\n                /* \"#utility.yul\":7195:7213   */\n              swap1\n              pop\n                /* \"#utility.yul\":7071:7219   */\n              swap3\n              swap2\n              pop\n              pop\n              jump\t// out\n                /* \"#utility.yul\":7225:7530   */\n            tag_98:\n                /* \"#utility.yul\":7265:7268   */\n              0x00\n                /* \"#utility.yul\":7284:7304   */\n              tag_236\n                /* \"#utility.yul\":7302:7303   */\n              dup3\n                /* \"#utility.yul\":7284:7304   */\n              tag_204\n              jump\t// in\n            tag_236:\n                /* \"#utility.yul\":7279:7304   */\n              swap2\n              pop\n                /* \"#utility.yul\":7318:7338   */\n              tag_237\n                /* \"#utility.yul\":7336:7337   */\n              dup4\n                /* \"#utility.yul\":7318:7338   */\n              tag_204\n              jump\t// in\n            tag_237:\n                /* \"#utility.yul\":7313:7338   */\n              swap3\n              pop\n                /* \"#utility.yul\":7472:7473   */\n              dup3\n                /* \"#utility.yul\":7404:7470   */\n              0xffffffffffffffffffffffffffffffffffffffffffffffffffffffffffffffff\n                /* \"#utility.yul\":7400:7474   */\n              sub\n                /* \"#utility.yul\":7397:7398   */\n              dup3\n                /* \"#utility.yul\":7394:7475   */\n              gt\n                /* \"#utility.yul\":7391:7498   */\n              iszero\n              tag_238\n              jumpi\n                /* \"#utility.yul\":7478:7496   */\n              tag_239\n              tag_240\n              jump\t// in\n            tag_239:\n                /* \"#utility.yul\":7391:7498   */\n            tag_238:\n                /* \"#utility.yul\":7522:7523   */\n              dup3\n                /* \"#utility.yul\":7519:7520   */\n              dup3\n                /* \"#utility.yul\":7515:7524   */\n              add\n                /* \"#utility.yul\":7508:7524   */\n              swap1\n              pop\n                /* \"#utility.yul\":7225:7530   */\n              swap3\n              swap2\n              pop\n              pop\n              jump\t// out\n                /* \"#utility.yul\":7536:7640   */\n            tag_166:\n                /* \"#utility.yul\":7581:7588   */\n              0x00\n                /* \"#utility.yul\":7610:7634   */\n              tag_242\n                /* \"#utility.yul\":7628:7633   */\n              dup3\n                /* \"#utility.yul\":7610:7634   */\n              tag_243\n              jump\t// in\n            tag_242:\n                /* \"#utility.yul\":7599:7634   */\n              swap1\n              pop\n                /* \"#utility.yul\":7536:7640   */\n              swap2\n              swap1\n              pop\n              jump\t// out\n                /* \"#utility.yul\":7646:7773   */\n            tag_244:\n                /* \"#utility.yul\":7691:7698   */\n              0x00\n                /* \"#utility.yul\":7720:7725   */\n              dup2\n                /* \"#utility.yul\":7709:7725   */\n              swap1\n              pop\n                /* \"#utility.yul\":7726:7767   */\n              tag_246\n                /* \"#utility.yul\":7761:7766   */\n              dup3\n                /* \"#utility.yul\":7726:7767   */\n              tag_247\n              jump\t// in\n            tag_246:\n                /* \"#utility.yul\":7646:7773   */\n              swap2\n              swap1\n              pop\n              jump\t// out\n                /* \"#utility.yul\":7779:7904   */\n            tag_248:\n                /* \"#utility.yul\":7823:7830   */\n              0x00\n                /* \"#utility.yul\":7852:7857   */\n              dup2\n                /* \"#utility.yul\":7841:7857   */\n              swap1\n              pop\n                /* \"#utility.yul\":7858:7898   */\n              tag_250\n                /* \"#utility.yul\":7892:7897   */\n              dup3\n                /* \"#utility.yul\":7858:7898   */\n              tag_251\n              jump\t// in\n            tag_250:\n                /* \"#utility.yul\":7779:7904   */\n              swap2\n              swap1\n              pop\n              jump\t// out\n                /* \"#utility.yul\":7910:8036   */\n            tag_243:\n                /* \"#utility.yul\":7947:7954   */\n              0x00\n                /* \"#utility.yul\":7987:8029   */\n              0xffffffffffffffffffffffffffffffffffffffff\n                /* \"#utility.yul\":7980:7985   */\n              dup3\n                /* \"#utility.yul\":7976:8030   */\n              and\n                /* \"#utility.yul\":7965:8030   */\n              swap1\n              pop\n                /* \"#utility.yul\":7910:8036   */\n              swap2\n              swap1\n              pop\n              jump\t// out\n                /* \"#utility.yul\":8042:8119   */\n            tag_204:\n                /* \"#utility.yul\":8079:8086   */\n              0x00\n                /* \"#utility.yul\":8108:8113   */\n              dup2\n                /* \"#utility.yul\":8097:8113   */\n              swap1\n              pop\n                /* \"#utility.yul\":8042:8119   */\n              swap2\n              swap1\n              pop\n              jump\t// out\n                /* \"#utility.yul\":8125:8252   */\n            tag_170:\n                /* \"#utility.yul\":8181:8190   */\n              0x00\n                /* \"#utility.yul\":8214:8246   */\n              tag_255\n                /* \"#utility.yul\":8240:8245   */\n              dup3\n                /* \"#utility.yul\":8214:8246   */\n              tag_244\n              jump\t// in\n            tag_255:\n                /* \"#utility.yul\":8201:8246   */\n              swap1\n              pop\n                /* \"#utility.yul\":8125:8252   */\n              swap2\n              swap1\n              pop\n              jump\t// out\n                /* \"#utility.yul\":8258:8383   */\n            tag_174:\n                /* \"#utility.yul\":8313:8322   */\n              0x00\n                /* \"#utility.yul\":8346:8377   */\n              tag_257\n                /* \"#utility.yul\":8371:8376   */\n              dup3\n                /* \"#utility.yul\":8346:8377   */\n              tag_248\n              jump\t// in\n            tag_257:\n                /* \"#utility.yul\":8333:8377   */\n              swap1\n              pop\n                /* \"#utility.yul\":8258:8383   */\n              swap2\n              swap1\n              pop\n              jump\t// out\n                /* \"#utility.yul\":8389:8543   */\n            tag_140:\n                /* \"#utility.yul\":8473:8479   */\n              dup3\n                /* \"#utility.yul\":8468:8471   */\n              dup2\n                /* \"#utility.yul\":8463:8466   */\n              dup4\n                /* \"#utility.yul\":8450:8480   */\n              calldatacopy\n                /* \"#utility.yul\":8535:8536   */\n              0x00\n                /* \"#utility.yul\":8526:8532   */\n              dup4\n                /* \"#utility.yul\":8521:8524   */\n              dup4\n                /* \"#utility.yul\":8517:8533   */\n              add\n                /* \"#utility.yul\":8510:8537   */\n              mstore\n                /* \"#utility.yul\":8389:8543   */\n              pop\n              pop\n              pop\n              jump\t// out\n                /* \"#utility.yul\":8549:8856   */\n            tag_182:\n                /* \"#utility.yul\":8617:8618   */\n              0x00\n                /* \"#utility.yul\":8627:8740   */\n            tag_260:\n                /* \"#utility.yul\":8641:8647   */\n              dup4\n                /* \"#utility.yul\":8638:8639   */\n              dup2\n                /* \"#utility.yul\":8635:8648   */\n              lt\n                /* \"#utility.yul\":8627:8740   */\n              iszero\n              tag_262\n              jumpi\n                /* \"#utility.yul\":8726:8727   */\n              dup1\n                /* \"#utility.yul\":8721:8724   */\n              dup3\n                /* \"#utility.yul\":8717:8728   */\n              add\n                /* \"#utility.yul\":8711:8729   */\n              mload\n                /* \"#utility.yul\":8707:8708   */\n              dup2\n                /* \"#utility.yul\":8702:8705   */\n              dup5\n                /* \"#utility.yul\":8698:8709   */\n              add\n                /* \"#utility.yul\":8691:8730   */\n              mstore\n                /* \"#utility.yul\":8663:8665   */\n              0x20\n                /* \"#utility.yul\":8660:8661   */\n              dup2\n                /* \"#utility.yul\":8656:8666   */\n              add\n                /* \"#utility.yul\":8651:8666   */\n              swap1\n              pop\n                /* \"#utility.yul\":8627:8740   */\n              jump(tag_260)\n            tag_262:\n                /* \"#utility.yul\":8758:8764   */\n              dup4\n                /* \"#utility.yul\":8755:8756   */\n              dup2\n                /* \"#utility.yul\":8752:8765   */\n              gt\n                /* \"#utility.yul\":8749:8850   */\n              iszero\n              tag_263\n              jumpi\n                /* \"#utility.yul\":8838:8839   */\n              0x00\n                /* \"#utility.yul\":8829:8835   */\n              dup5\n                /* \"#utility.yul\":8824:8827   */\n              dup5\n                /* \"#utility.yul\":8820:8836   */\n              add\n                /* \"#utility.yul\":8813:8840   */\n              mstore\n                /* \"#utility.yul\":8749:8850   */\n            tag_263:\n                /* \"#utility.yul\":8598:8856   */\n              pop\n                /* \"#utility.yul\":8549:8856   */\n              pop\n              pop\n              pop\n              jump\t// out\n                /* \"#utility.yul\":8862:9182   */\n            tag_61:\n                /* \"#utility.yul\":8906:8912   */\n              0x00\n                /* \"#utility.yul\":8943:8944   */\n              0x02\n                /* \"#utility.yul\":8937:8941   */\n              dup3\n                /* \"#utility.yul\":8933:8945   */\n              div\n                /* \"#utility.yul\":8923:8945   */\n              swap1\n              pop\n                /* \"#utility.yul\":8990:8991   */\n              0x01\n                /* \"#utility.yul\":8984:8988   */\n              dup3\n                /* \"#utility.yul\":8980:8992   */\n              and\n                /* \"#utility.yul\":9011:9029   */\n              dup1\n                /* \"#utility.yul\":9001:9082   */\n              tag_265\n              jumpi\n                /* \"#utility.yul\":9067:9071   */\n              0x7f\n                /* \"#utility.yul\":9059:9065   */\n              dup3\n                /* \"#utility.yul\":9055:9072   */\n              and\n                /* \"#utility.yul\":9045:9072   */\n              swap2\n              pop\n                /* \"#utility.yul\":9001:9082   */\n            tag_265:\n                /* \"#utility.yul\":9129:9131   */\n              0x20\n                /* \"#utility.yul\":9121:9127   */\n              dup3\n                /* \"#utility.yul\":9118:9132   */\n              lt\n                /* \"#utility.yul\":9098:9116   */\n              dup2\n                /* \"#utility.yul\":9095:9133   */\n              eq\n                /* \"#utility.yul\":9092:9176   */\n              iszero\n              tag_266\n              jumpi\n                /* \"#utility.yul\":9148:9166   */\n              tag_267\n              tag_268\n              jump\t// in\n            tag_267:\n                /* \"#utility.yul\":9092:9176   */\n            tag_266:\n                /* \"#utility.yul\":8913:9182   */\n              pop\n                /* \"#utility.yul\":8862:9182   */\n              swap2\n              swap1\n              pop\n              jump\t// out\n                /* \"#utility.yul\":9188:9469   */\n            tag_225:\n                /* \"#utility.yul\":9271:9298   */\n              tag_270\n                /* \"#utility.yul\":9293:9297   */\n              dup3\n                /* \"#utility.yul\":9271:9298   */\n              tag_184\n              jump\t// in\n            tag_270:\n                /* \"#utility.yul\":9263:9269   */\n              dup2\n                /* \"#utility.yul\":9259:9299   */\n              add\n                /* \"#utility.yul\":9401:9407   */\n              dup2\n                /* \"#utility.yul\":9389:9399   */\n              dup2\n                /* \"#utility.yul\":9386:9408   */\n              lt\n                /* \"#utility.yul\":9365:9383   */\n              0xffffffffffffffff\n                /* \"#utility.yul\":9353:9363   */\n              dup3\n                /* \"#utility.yul\":9350:9384   */\n              gt\n                /* \"#utility.yul\":9347:9409   */\n              or\n                /* \"#utility.yul\":9344:9432   */\n              iszero\n              tag_271\n              jumpi\n                /* \"#utility.yul\":9412:9430   */\n              tag_272\n              tag_230\n              jump\t// in\n            tag_272:\n                /* \"#utility.yul\":9344:9432   */\n            tag_271:\n                /* \"#utility.yul\":9452:9462   */\n              dup1\n                /* \"#utility.yul\":9448:9450   */\n              0x40\n                /* \"#utility.yul\":9441:9463   */\n              mstore\n                /* \"#utility.yul\":9231:9469   */\n              pop\n                /* \"#utility.yul\":9188:9469   */\n              pop\n              pop\n              jump\t// out\n                /* \"#utility.yul\":9475:9655   */\n            tag_240:\n                /* \"#utility.yul\":9523:9600   */\n              0x4e487b7100000000000000000000000000000000000000000000000000000000\n                /* \"#utility.yul\":9520:9521   */\n              0x00\n                /* \"#utility.yul\":9513:9601   */\n              mstore\n                /* \"#utility.yul\":9620:9624   */\n              0x11\n                /* \"#utility.yul\":9617:9618   */\n              0x04\n                /* \"#utility.yul\":9610:9625   */\n              mstore\n                /* \"#utility.yul\":9644:9648   */\n              0x24\n                /* \"#utility.yul\":9641:9642   */\n              0x00\n                /* \"#utility.yul\":9634:9649   */\n              revert\n                /* \"#utility.yul\":9661:9841   */\n            tag_76:\n                /* \"#utility.yul\":9709:9786   */\n              0x4e487b7100000000000000000000000000000000000000000000000000000000\n                /* \"#utility.yul\":9706:9707   */\n              0x00\n                /* \"#utility.yul\":9699:9787   */\n              mstore\n                /* \"#utility.yul\":9806:9810   */\n              0x21\n                /* \"#utility.yul\":9803:9804   */\n              0x04\n                /* \"#utility.yul\":9796:9811   */\n              mstore\n                /* \"#utility.yul\":9830:9834   */\n              0x24\n                /* \"#utility.yul\":9827:9828   */\n              0x00\n                /* \"#utility.yul\":9820:9835   */\n              revert\n                /* \"#utility.yul\":9847:10027   */\n            tag_268:\n                /* \"#utility.yul\":9895:9972   */\n              0x4e487b7100000000000000000000000000000000000000000000000000000000\n                /* \"#utility.yul\":9892:9893   */\n              0x00\n                /* \"#utility.yul\":9885:9973   */\n              mstore\n                /* \"#utility.yul\":9992:9996   */\n              0x22\n                /* \"#utility.yul\":9989:9990   */\n              0x04\n                /* \"#utility.yul\":9982:9997   */\n              mstore\n                /* \"#utility.yul\":10016:10020   */\n              0x24\n                /* \"#utility.yul\":10013:10014   */\n              0x00\n                /* \"#utility.yul\":10006:10021   */\n              revert\n                /* \"#utility.yul\":10033:10213   */\n            tag_230:\n                /* \"#utility.yul\":10081:10158   */\n              0x4e487b7100000000000000000000000000000000000000000000000000000000\n                /* \"#utility.yul\":10078:10079   */\n              0x00\n                /* \"#utility.yul\":10071:10159   */\n              mstore\n                /* \"#utility.yul\":10178:10182   */\n              0x41\n                /* \"#utility.yul\":10175:10176   */\n              0x04\n                /* \"#utility.yul\":10168:10183   */\n              mstore\n                /* \"#utility.yul\":10202:10206   */\n              0x24\n                /* \"#utility.yul\":10199:10200   */\n              0x00\n                /* \"#utility.yul\":10192:10207   */\n              revert\n                /* \"#utility.yul\":10219:10336   */\n            tag_145:\n                /* \"#utility.yul\":10328:10329   */\n              0x00\n                /* \"#utility.yul\":10325:10326   */\n              dup1\n                /* \"#utility.yul\":10318:10330   */\n              revert\n                /* \"#utility.yul\":10342:10459   */\n            tag_138:\n                /* \"#utility.yul\":10451:10452   */\n              0x00\n                /* \"#utility.yul\":10448:10449   */\n              dup1\n                /* \"#utility.yul\":10441:10453   */\n              revert\n                /* \"#utility.yul\":10465:10582   */\n            tag_157:\n                /* \"#utility.yul\":10574:10575   */\n              0x00\n                /* \"#utility.yul\":10571:10572   */\n              dup1\n                /* \"#utility.yul\":10564:10576   */\n              revert\n                /* \"#utility.yul\":10588:10705   */\n            tag_154:\n                /* \"#utility.yul\":10697:10698   */\n              0x00\n                /* \"#utility.yul\":10694:10695   */\n              dup1\n                /* \"#utility.yul\":10687:10699   */\n              revert\n                /* \"#utility.yul\":10711:10813   */\n            tag_184:\n                /* \"#utility.yul\":10752:10758   */\n              0x00\n                /* \"#utility.yul\":10803:10805   */\n              0x1f\n                /* \"#utility.yul\":10799:10806   */\n              not\n                /* \"#utility.yul\":10794:10796   */\n              0x1f\n                /* \"#utility.yul\":10787:10792   */\n              dup4\n                /* \"#utility.yul\":10783:10797   */\n              add\n                /* \"#utility.yul\":10779:10807   */\n              and\n                /* \"#utility.yul\":10769:10807   */\n              swap1\n              pop\n                /* \"#utility.yul\":10711:10813   */\n              swap2\n              swap1\n              pop\n              jump\t// out\n                /* \"#utility.yul\":10819:10992   */\n            tag_195:\n                /* \"#utility.yul\":10959:10984   */\n              0x546869732069732061207072697661746520706f6c6c2e000000000000000000\n                /* \"#utility.yul\":10955:10956   */\n              0x00\n                /* \"#utility.yul\":10947:10953   */\n              dup3\n                /* \"#utility.yul\":10943:10957   */\n              add\n                /* \"#utility.yul\":10936:10985   */\n              mstore\n                /* \"#utility.yul\":10819:10992   */\n              pop\n              jump\t// out\n                /* \"#utility.yul\":10998:11171   */\n            tag_200:\n                /* \"#utility.yul\":11138:11163   */\n              0x596f75206861766520616c726561647920766f74656421000000000000000000\n                /* \"#utility.yul\":11134:11135   */\n              0x00\n                /* \"#utility.yul\":11126:11132   */\n              dup3\n                /* \"#utility.yul\":11122:11136   */\n              add\n                /* \"#utility.yul\":11115:11164   */\n              mstore\n                /* \"#utility.yul\":10998:11171   */\n              pop\n              jump\t// out\n                /* \"#utility.yul\":11177:11290   */\n            tag_247:\n                /* \"#utility.yul\":11258:11259   */\n              0x04\n                /* \"#utility.yul\":11251:11256   */\n              dup2\n                /* \"#utility.yul\":11248:11260   */\n              lt\n                /* \"#utility.yul\":11238:11284   */\n              tag_285\n              jumpi\n                /* \"#utility.yul\":11264:11282   */\n              tag_286\n              tag_76\n              jump\t// in\n            tag_286:\n                /* \"#utility.yul\":11238:11284   */\n            tag_285:\n                /* \"#utility.yul\":11177:11290   */\n              pop\n              jump\t// out\n                /* \"#utility.yul\":11296:11408   */\n            tag_251:\n                /* \"#utility.yul\":11376:11377   */\n              0x02\n                /* \"#utility.yul\":11369:11374   */\n              dup2\n                /* \"#utility.yul\":11366:11378   */\n              lt\n                /* \"#utility.yul\":11356:11402   */\n              tag_288\n              jumpi\n                /* \"#utility.yul\":11382:11400   */\n              tag_289\n              tag_76\n              jump\t// in\n            tag_289:\n                /* \"#utility.yul\":11356:11402   */\n            tag_288:\n                /* \"#utility.yul\":11296:11408   */\n              pop\n              jump\t// out\n                /* \"#utility.yul\":11414:11536   */\n            tag_150:\n                /* \"#utility.yul\":11487:11511   */\n              tag_291\n                /* \"#utility.yul\":11505:11510   */\n              dup2\n                /* \"#utility.yul\":11487:11511   */\n              tag_204\n              jump\t// in\n            tag_291:\n                /* \"#utility.yul\":11480:11485   */\n              dup2\n                /* \"#utility.yul\":11477:11512   */\n              eq\n                /* \"#utility.yul\":11467:11530   */\n              tag_292\n              jumpi\n                /* \"#utility.yul\":11526:11527   */\n              0x00\n                /* \"#utility.yul\":11523:11524   */\n              dup1\n                /* \"#utility.yul\":11516:11528   */\n              revert\n                /* \"#utility.yul\":11467:11530   */\n            tag_292:\n                /* \"#utility.yul\":11414:11536   */\n              pop\n              jump\t// out\n\n            auxdata: 0xa264697066735822122030b9b9fa0dddbffab2e0450f11902f203f9efaaec5e211b05f557d89faa1dacc64736f6c63430008070033\n        }\n    }\n\n    auxdata: 0xa2646970667358221220b34b2be76aed4a3a1df05634fa724d337ed60043d4c5ea9cfffa08fb46900e3f64736f6c63430008070033\n}\n",
				"bytecode": {
					"linkReferences": {},
					"object": "608060405234801561001057600080fd5b50336000806101000a81548173ffffffffffffffffffffffffffffffffffffffff021916908373ffffffffffffffffffffffffffffffffffffffff160217905550612422806100606000396000f3fe60806040523480156200001157600080fd5b5060043610620000465760003560e01c80638da5cb5b146200004b578063a6c48b82146200006d578063f68673c2146200008d575b600080fd5b62000055620000af565b604051620000649190620006ae565b60405180910390f35b6200008b6004803603810190620000859190620003fe565b620000d3565b005b62000097620001bf565b604051620000a691906200073d565b60405180910390f35b60008054906101000a900473ffffffffffffffffffffffffffffffffffffffff1681565b60003385858585604051620000e8906200028c565b620000f8959493929190620006cb565b604051809103906000f08015801562000115573d6000803e3d6000fd5b509050600160003373ffffffffffffffffffffffffffffffffffffffff1673ffffffffffffffffffffffffffffffffffffffff168152602001908152602001600020819080600181540180825580915050600190039060005260206000200160009091909190916101000a81548173ffffffffffffffffffffffffffffffffffffffff021916908373ffffffffffffffffffffffffffffffffffffffff1602179055505050505050565b6060600160003373ffffffffffffffffffffffffffffffffffffffff1673ffffffffffffffffffffffffffffffffffffffff1681526020019081526020016000208054806020026020016040519081016040528092919081815260200182805480156200028257602002820191906000526020600020905b8160009054906101000a900473ffffffffffffffffffffffffffffffffffffffff1673ffffffffffffffffffffffffffffffffffffffff168152602001906001019080831162000237575b5050505050905090565b6119e28062000a0b83390190565b6000620002b1620002ab846200078a565b62000761565b90508083825260208201905082856020860282011115620002d757620002d6620009cb565b5b60005b858110156200032c57813567ffffffffffffffff811115620003015762000300620009c6565b5b808601620003108982620003b4565b85526020850194506020840193505050600181019050620002da565b5050509392505050565b60006200034d6200034784620007b9565b62000761565b9050828152602081018484840111156200036c576200036b620009d0565b5b620003798482856200091c565b509392505050565b600082601f830112620003995762000398620009c6565b5b8135620003ab8482602086016200029a565b91505092915050565b600082601f830112620003cc57620003cb620009c6565b5b8135620003de84826020860162000336565b91505092915050565b600081359050620003f881620009f0565b92915050565b600080600080608085870312156200041b576200041a620009da565b5b600085013567ffffffffffffffff8111156200043c576200043b620009d5565b5b6200044a87828801620003b4565b94505060206200045d87828801620003e7565b935050604085013567ffffffffffffffff811115620004815762000480620009d5565b5b6200048f8782880162000381565b925050606085013567ffffffffffffffff811115620004b357620004b2620009d5565b5b620004c187828801620003b4565b91505092959194509250565b6000620004db83836200060a565b60208301905092915050565b6000620004f583836200061b565b905092915050565b6200050881620008a2565b82525050565b62000519816200088e565b82525050565b60006200052c826200080f565b6200053881856200084a565b93506200054583620007ef565b8060005b838110156200057c578151620005608882620004cd565b97506200056d8362000830565b92505060018101905062000549565b5085935050505092915050565b600062000596826200081a565b620005a281856200085b565b935083602082028501620005b685620007ff565b8060005b85811015620005f85784840389528151620005d68582620004e7565b9450620005e3836200083d565b925060208a01995050600181019050620005ba565b50829750879550505050505092915050565b6200061581620008e0565b82525050565b6000620006288262000825565b6200063481856200086c565b9350620006468185602086016200092b565b6200065181620009df565b840191505092915050565b6000620006698262000825565b6200067581856200087d565b9350620006878185602086016200092b565b6200069281620009df565b840191505092915050565b620006a881620008d6565b82525050565b6000602082019050620006c56000830184620004fd565b92915050565b600060a082019050620006e260008301886200050e565b8181036020830152620006f681876200065c565b90506200070760408301866200069d565b81810360608301526200071b818562000589565b905081810360808301526200073181846200065c565b90509695505050505050565b600060208201905081810360008301526200075981846200051f565b905092915050565b60006200076d62000780565b90506200077b828262000961565b919050565b6000604051905090565b600067ffffffffffffffff821115620007a857620007a762000997565b5b602082029050602081019050919050565b600067ffffffffffffffff821115620007d757620007d662000997565b5b620007e282620009df565b9050602081019050919050565b6000819050602082019050919050565b6000819050602082019050919050565b600081519050919050565b600081519050919050565b600081519050919050565b6000602082019050919050565b6000602082019050919050565b600082825260208201905092915050565b600082825260208201905092915050565b600082825260208201905092915050565b600082825260208201905092915050565b60006200089b82620008b6565b9050919050565b6000620008af82620008b6565b9050919050565b600073ffffffffffffffffffffffffffffffffffffffff82169050919050565b6000819050919050565b6000620008ed82620008f4565b9050919050565b6000620009018262000908565b9050919050565b60006200091582620008b6565b9050919050565b82818337600083830152505050565b60005b838110156200094b5780820151818401526020810190506200092e565b838111156200095b576000848401525b50505050565b6200096c82620009df565b810181811067ffffffffffffffff821117156200098e576200098d62000997565b5b80604052505050565b7f4e487b7100000000000000000000000000000000000000000000000000000000600052604160045260246000fd5b600080fd5b600080fd5b600080fd5b600080fd5b600080fd5b6000601f19601f8301169050919050565b620009fb81620008d6565b811462000a0757600080fd5b5056fe60806040523480156200001157600080fd5b50604051620019e2380380620019e2833981810160405281019062000037919062000536565b846000806101000a81548173ffffffffffffffffffffffffffffffffffffffff021916908373ffffffffffffffffffffffffffffffffffffffff16021790555083600190805190602001906200008f92919062000236565b508160029080519060200190620000a8929190620002c7565b504360038190555082600354620000c0919062000806565b6004819055506001600560016101000a81548160ff02191690836003811115620000ef57620000ee620009c0565b5b0217905550604051602001620001059062000736565b60405160208183030381529060405280519060200120816040516020016200012e919062000704565b6040516020818303038152906040528051906020012014156200017f576000600560006101000a81548160ff02191690836001811115620001745762000173620009c0565b5b0217905550620001bd565b600180811115620001955762000194620009c0565b5b600560009054906101000a900460ff166001811115620001ba57620001b9620009c0565b5b50505b60005b6002805490508110156200022a576000600760028381548110620001e957620001e862000a1e565b5b906000526020600020016040516200020291906200071d565b9081526020016040518091039020819055508080620002219062000943565b915050620001c0565b50505050505062000b03565b8280546200024490620008d7565b90600052602060002090601f016020900481019282620002685760008555620002b4565b82601f106200028357805160ff1916838001178555620002b4565b82800160010185558215620002b4579182015b82811115620002b357825182559160200191906001019062000296565b5b509050620002c391906200032e565b5090565b8280548282559060005260206000209081019282156200031b579160200282015b828111156200031a5782518290805190602001906200030992919062000236565b5091602001919060010190620002e8565b5b5090506200032a91906200034d565b5090565b5b80821115620003495760008160009055506001016200032f565b5090565b5b8082111562000371576000818162000367919062000375565b506001016200034e565b5090565b5080546200038390620008d7565b6000825580601f10620003975750620003b8565b601f016020900490600052602060002090810190620003b791906200032e565b5b50565b6000620003d2620003cc8462000776565b6200074d565b90508083825260208201905082856020860282011115620003f857620003f762000a81565b5b60005b858110156200044d57815167ffffffffffffffff81111562000422576200042162000a7c565b5b808601620004318982620004ec565b85526020850194506020840193505050600181019050620003fb565b5050509392505050565b60006200046e6200046884620007a5565b6200074d565b9050828152602081018484840111156200048d576200048c62000a86565b5b6200049a848285620008a1565b509392505050565b600081519050620004b38162000acf565b92915050565b600082601f830112620004d157620004d062000a7c565b5b8151620004e3848260208601620003bb565b91505092915050565b600082601f83011262000504576200050362000a7c565b5b81516200051684826020860162000457565b91505092915050565b600081519050620005308162000ae9565b92915050565b600080600080600060a0868803121562000555576200055462000a90565b5b60006200056588828901620004a2565b955050602086015167ffffffffffffffff81111562000589576200058862000a8b565b5b6200059788828901620004ec565b9450506040620005aa888289016200051f565b935050606086015167ffffffffffffffff811115620005ce57620005cd62000a8b565b5b620005dc88828901620004b9565b925050608086015167ffffffffffffffff8111156200060057620005ff62000a8b565b5b6200060e88828901620004ec565b9150509295509295909350565b60006200062882620007f0565b620006348185620007fb565b935062000646818560208601620008a1565b80840191505092915050565b600081546200066181620008d7565b6200066d8186620007fb565b945060018216600081146200068b57600181146200069d57620006d4565b60ff19831686528186019350620006d4565b620006a885620007db565b60005b83811015620006cc57815481890152600182019150602081019050620006ab565b838801955050505b50505092915050565b6000620006ec600683620007fb565b9150620006f98262000aa6565b600682019050919050565b60006200071282846200061b565b915081905092915050565b60006200072b828462000652565b915081905092915050565b60006200074382620006dd565b9150819050919050565b6000620007596200076c565b90506200076782826200090d565b919050565b6000604051905090565b600067ffffffffffffffff82111562000794576200079362000a4d565b5b602082029050602081019050919050565b600067ffffffffffffffff821115620007c357620007c262000a4d565b5b620007ce8262000a95565b9050602081019050919050565b60008190508160005260206000209050919050565b600081519050919050565b600081905092915050565b6000620008138262000897565b9150620008208362000897565b9250827fffffffffffffffffffffffffffffffffffffffffffffffffffffffffffffffff0382111562000858576200085762000991565b5b828201905092915050565b6000620008708262000877565b9050919050565b600073ffffffffffffffffffffffffffffffffffffffff82169050919050565b6000819050919050565b60005b83811015620008c1578082015181840152602081019050620008a4565b83811115620008d1576000848401525b50505050565b60006002820490506001821680620008f057607f821691505b60208210811415620009075762000906620009ef565b5b50919050565b620009188262000a95565b810181811067ffffffffffffffff821117156200093a576200093962000a4d565b5b80604052505050565b6000620009508262000897565b91507fffffffffffffffffffffffffffffffffffffffffffffffffffffffffffffffff82141562000986576200098562000991565b5b600182019050919050565b7f4e487b7100000000000000000000000000000000000000000000000000000000600052601160045260246000fd5b7f4e487b7100000000000000000000000000000000000000000000000000000000600052602160045260246000fd5b7f4e487b7100000000000000000000000000000000000000000000000000000000600052602260045260246000fd5b7f4e487b7100000000000000000000000000000000000000000000000000000000600052603260045260246000fd5b7f4e487b7100000000000000000000000000000000000000000000000000000000600052604160045260246000fd5b600080fd5b600080fd5b600080fd5b600080fd5b600080fd5b6000601f19601f8301169050919050565b7f5075626c69630000000000000000000000000000000000000000000000000000600082015250565b62000ada8162000863565b811462000ae657600080fd5b50565b62000af48162000897565b811462000b0057600080fd5b50565b610ecf8062000b136000396000f3fe608060405234801561001057600080fd5b50600436106100b45760003560e01c80638f58d353116100715780638f58d35314610191578063b73b396b146101af578063ba0c45c9146101b9578063c04752d8146101d5578063c308b0dc146101f1578063cc1e2cb01461020d576100b4565b8063083c6323146100b957806318769765146100d7578063237637a8146100f55780633477ee2e1461011357806348cd4cb114610143578063498cc70d14610161575b600080fd5b6100c161022b565b6040516100ce9190610b0e565b60405180910390f35b6100df610231565b6040516100ec9190610aac565b60405180910390f35b6100fd6102bf565b60405161010a9190610a91565b60405180910390f35b61012d6004803603810190610128919061092b565b6102d2565b60405161013a9190610aac565b60405180910390f35b61014b61037e565b6040516101589190610b0e565b60405180910390f35b61017b600480360381019061017691906108e2565b610384565b6040516101889190610b0e565b60405180910390f35b61019961049c565b6040516101a69190610a76565b60405180910390f35b6101b76104af565b005b6101d360048036038101906101ce919061092b565b610534565b005b6101ef60048036038101906101ea91906108e2565b6105a3565b005b61020b600480360381019061020691906108e2565b610724565b005b610215610796565b6040516102229190610a5b565b60405180910390f35b60045481565b6001805461023e90610cc4565b80601f016020809104026020016040519081016040528092919081815260200182805461026a90610cc4565b80156102b75780601f1061028c576101008083540402835291602001916102b7565b820191906000526020600020905b81548152906001019060200180831161029a57829003601f168201915b505050505081565b600560009054906101000a900460ff1681565b600281815481106102e257600080fd5b9060005260206000200160009150905080546102fd90610cc4565b80601f016020809104026020016040519081016040528092919081815260200182805461032990610cc4565b80156103765780601f1061034b57610100808354040283529160200191610376565b820191906000526020600020905b81548152906001019060200180831161035957829003601f168201915b505050505081565b60035481565b600060018081111561039957610398610d56565b5b600560009054906101000a900460ff1660018111156103bb576103ba610d56565b5b1415610475573373ffffffffffffffffffffffffffffffffffffffff1660008054906101000a900473ffffffffffffffffffffffffffffffffffffffff1673ffffffffffffffffffffffffffffffffffffffff161461044f576040517f08c379a000000000000000000000000000000000000000000000000000000000815260040161044690610ace565b60405180910390fd5b60078260405161045f9190610a44565b9081526020016040518091039020549050610497565b6007826040516104859190610a44565b90815260200160405180910390205490505b919050565b600560019054906101000a900460ff1681565b3373ffffffffffffffffffffffffffffffffffffffff1660008054906101000a900473ffffffffffffffffffffffffffffffffffffffff1673ffffffffffffffffffffffffffffffffffffffff161461050757600080fd5b6002600560016101000a81548160ff0219169083600381111561052d5761052c610d56565b5b0217905550565b3373ffffffffffffffffffffffffffffffffffffffff1660008054906101000a900473ffffffffffffffffffffffffffffffffffffffff1673ffffffffffffffffffffffffffffffffffffffff161461058c57600080fd5b8060045461059a9190610ba6565b60048190555050565b60045443106105b157600080fd5b60035443116105bf57600080fd5b600260038111156105d3576105d2610d56565b5b600560019054906101000a900460ff1660038111156105f5576105f4610d56565b5b141561060057600080fd5b6000339050600660008273ffffffffffffffffffffffffffffffffffffffff1673ffffffffffffffffffffffffffffffffffffffff16815260200190815260200160002060009054906101000a900460ff1615610692576040517f08c379a000000000000000000000000000000000000000000000000000000000815260040161068990610aee565b60405180910390fd5b6001600660008373ffffffffffffffffffffffffffffffffffffffff1673ffffffffffffffffffffffffffffffffffffffff16815260200190815260200160002060006101000a81548160ff02191690831515021790555060016007836040516106fc9190610a44565b908152602001604051809103902060008282546107199190610ba6565b925050819055505050565b3373ffffffffffffffffffffffffffffffffffffffff1660008054906101000a900473ffffffffffffffffffffffffffffffffffffffff1673ffffffffffffffffffffffffffffffffffffffff161461077c57600080fd5b80600190805190602001906107929291906107ba565b5050565b60008054906101000a900473ffffffffffffffffffffffffffffffffffffffff1681565b8280546107c690610cc4565b90600052602060002090601f0160209004810192826107e8576000855561082f565b82601f1061080157805160ff191683800117855561082f565b8280016001018555821561082f579182015b8281111561082e578251825591602001919060010190610813565b5b50905061083c9190610840565b5090565b5b80821115610859576000816000905550600101610841565b5090565b600061087061086b84610b4e565b610b29565b90508281526020810184848401111561088c5761088b610de8565b5b610897848285610c82565b509392505050565b600082601f8301126108b4576108b3610de3565b5b81356108c484826020860161085d565b91505092915050565b6000813590506108dc81610e82565b92915050565b6000602082840312156108f8576108f7610df2565b5b600082013567ffffffffffffffff81111561091657610915610ded565b5b6109228482850161089f565b91505092915050565b60006020828403121561094157610940610df2565b5b600061094f848285016108cd565b91505092915050565b61096181610bfc565b82525050565b61097081610c5e565b82525050565b61097f81610c70565b82525050565b600061099082610b7f565b61099a8185610b8a565b93506109aa818560208601610c91565b6109b381610df7565b840191505092915050565b60006109c982610b7f565b6109d38185610b9b565b93506109e3818560208601610c91565b80840191505092915050565b60006109fc601783610b8a565b9150610a0782610e08565b602082019050919050565b6000610a1f601783610b8a565b9150610a2a82610e31565b602082019050919050565b610a3e81610c54565b82525050565b6000610a5082846109be565b915081905092915050565b6000602082019050610a706000830184610958565b92915050565b6000602082019050610a8b6000830184610967565b92915050565b6000602082019050610aa66000830184610976565b92915050565b60006020820190508181036000830152610ac68184610985565b905092915050565b60006020820190508181036000830152610ae7816109ef565b9050919050565b60006020820190508181036000830152610b0781610a12565b9050919050565b6000602082019050610b236000830184610a35565b92915050565b6000610b33610b44565b9050610b3f8282610cf6565b919050565b6000604051905090565b600067ffffffffffffffff821115610b6957610b68610db4565b5b610b7282610df7565b9050602081019050919050565b600081519050919050565b600082825260208201905092915050565b600081905092915050565b6000610bb182610c54565b9150610bbc83610c54565b9250827fffffffffffffffffffffffffffffffffffffffffffffffffffffffffffffffff03821115610bf157610bf0610d27565b5b828201905092915050565b6000610c0782610c34565b9050919050565b6000819050610c1c82610e5a565b919050565b6000819050610c2f82610e6e565b919050565b600073ffffffffffffffffffffffffffffffffffffffff82169050919050565b6000819050919050565b6000610c6982610c0e565b9050919050565b6000610c7b82610c21565b9050919050565b82818337600083830152505050565b60005b83811015610caf578082015181840152602081019050610c94565b83811115610cbe576000848401525b50505050565b60006002820490506001821680610cdc57607f821691505b60208210811415610cf057610cef610d85565b5b50919050565b610cff82610df7565b810181811067ffffffffffffffff82111715610d1e57610d1d610db4565b5b80604052505050565b7f4e487b7100000000000000000000000000000000000000000000000000000000600052601160045260246000fd5b7f4e487b7100000000000000000000000000000000000000000000000000000000600052602160045260246000fd5b7f4e487b7100000000000000000000000000000000000000000000000000000000600052602260045260246000fd5b7f4e487b7100000000000000000000000000000000000000000000000000000000600052604160045260246000fd5b600080fd5b600080fd5b600080fd5b600080fd5b6000601f19601f8301169050919050565b7f546869732069732061207072697661746520706f6c6c2e000000000000000000600082015250565b7f596f75206861766520616c726561647920766f74656421000000000000000000600082015250565b60048110610e6b57610e6a610d56565b5b50565b60028110610e7f57610e7e610d56565b5b50565b610e8b81610c54565b8114610e9657600080fd5b5056fea264697066735822122030b9b9fa0dddbffab2e0450f11902f203f9efaaec5e211b05f557d89faa1dacc64736f6c63430008070033a2646970667358221220b34b2be76aed4a3a1df05634fa724d337ed60043d4c5ea9cfffa08fb46900e3f64736f6c63430008070033",
					"opcodes": "PUSH1 0x80 PUSH1 0x40 MSTORE CALLVALUE DUP1 ISZERO PUSH2 0x10 JUMPI PUSH1 0x0 DUP1 REVERT JUMPDEST POP CALLER PUSH1 0x0 DUP1 PUSH2 0x100 EXP DUP2 SLOAD DUP2 PUSH20 0xFFFFFFFFFFFFFFFFFFFFFFFFFFFFFFFFFFFFFFFF MUL NOT AND SWAP1 DUP4 PUSH20 0xFFFFFFFFFFFFFFFFFFFFFFFFFFFFFFFFFFFFFFFF AND MUL OR SWAP1 SSTORE POP PUSH2 0x2422 DUP1 PUSH2 0x60 PUSH1 0x0 CODECOPY PUSH1 0x0 RETURN INVALID PUSH1 0x80 PUSH1 0x40 MSTORE CALLVALUE DUP1 ISZERO PUSH3 0x11 JUMPI PUSH1 0x0 DUP1 REVERT JUMPDEST POP PUSH1 0x4 CALLDATASIZE LT PUSH3 0x46 JUMPI PUSH1 0x0 CALLDATALOAD PUSH1 0xE0 SHR DUP1 PUSH4 0x8DA5CB5B EQ PUSH3 0x4B JUMPI DUP1 PUSH4 0xA6C48B82 EQ PUSH3 0x6D JUMPI DUP1 PUSH4 0xF68673C2 EQ PUSH3 0x8D JUMPI JUMPDEST PUSH1 0x0 DUP1 REVERT JUMPDEST PUSH3 0x55 PUSH3 0xAF JUMP JUMPDEST PUSH1 0x40 MLOAD PUSH3 0x64 SWAP2 SWAP1 PUSH3 0x6AE JUMP JUMPDEST PUSH1 0x40 MLOAD DUP1 SWAP2 SUB SWAP1 RETURN JUMPDEST PUSH3 0x8B PUSH1 0x4 DUP1 CALLDATASIZE SUB DUP2 ADD SWAP1 PUSH3 0x85 SWAP2 SWAP1 PUSH3 0x3FE JUMP JUMPDEST PUSH3 0xD3 JUMP JUMPDEST STOP JUMPDEST PUSH3 0x97 PUSH3 0x1BF JUMP JUMPDEST PUSH1 0x40 MLOAD PUSH3 0xA6 SWAP2 SWAP1 PUSH3 0x73D JUMP JUMPDEST PUSH1 0x40 MLOAD DUP1 SWAP2 SUB SWAP1 RETURN JUMPDEST PUSH1 0x0 DUP1 SLOAD SWAP1 PUSH2 0x100 EXP SWAP1 DIV PUSH20 0xFFFFFFFFFFFFFFFFFFFFFFFFFFFFFFFFFFFFFFFF AND DUP2 JUMP JUMPDEST PUSH1 0x0 CALLER DUP6 DUP6 DUP6 DUP6 PUSH1 0x40 MLOAD PUSH3 0xE8 SWAP1 PUSH3 0x28C JUMP JUMPDEST PUSH3 0xF8 SWAP6 SWAP5 SWAP4 SWAP3 SWAP2 SWAP1 PUSH3 0x6CB JUMP JUMPDEST PUSH1 0x40 MLOAD DUP1 SWAP2 SUB SWAP1 PUSH1 0x0 CREATE DUP1 ISZERO DUP1 ISZERO PUSH3 0x115 JUMPI RETURNDATASIZE PUSH1 0x0 DUP1 RETURNDATACOPY RETURNDATASIZE PUSH1 0x0 REVERT JUMPDEST POP SWAP1 POP PUSH1 0x1 PUSH1 0x0 CALLER PUSH20 0xFFFFFFFFFFFFFFFFFFFFFFFFFFFFFFFFFFFFFFFF AND PUSH20 0xFFFFFFFFFFFFFFFFFFFFFFFFFFFFFFFFFFFFFFFF AND DUP2 MSTORE PUSH1 0x20 ADD SWAP1 DUP2 MSTORE PUSH1 0x20 ADD PUSH1 0x0 KECCAK256 DUP2 SWAP1 DUP1 PUSH1 0x1 DUP2 SLOAD ADD DUP1 DUP3 SSTORE DUP1 SWAP2 POP POP PUSH1 0x1 SWAP1 SUB SWAP1 PUSH1 0x0 MSTORE PUSH1 0x20 PUSH1 0x0 KECCAK256 ADD PUSH1 0x0 SWAP1 SWAP2 SWAP1 SWAP2 SWAP1 SWAP2 PUSH2 0x100 EXP DUP2 SLOAD DUP2 PUSH20 0xFFFFFFFFFFFFFFFFFFFFFFFFFFFFFFFFFFFFFFFF MUL NOT AND SWAP1 DUP4 PUSH20 0xFFFFFFFFFFFFFFFFFFFFFFFFFFFFFFFFFFFFFFFF AND MUL OR SWAP1 SSTORE POP POP POP POP POP POP JUMP JUMPDEST PUSH1 0x60 PUSH1 0x1 PUSH1 0x0 CALLER PUSH20 0xFFFFFFFFFFFFFFFFFFFFFFFFFFFFFFFFFFFFFFFF AND PUSH20 0xFFFFFFFFFFFFFFFFFFFFFFFFFFFFFFFFFFFFFFFF AND DUP2 MSTORE PUSH1 0x20 ADD SWAP1 DUP2 MSTORE PUSH1 0x20 ADD PUSH1 0x0 KECCAK256 DUP1 SLOAD DUP1 PUSH1 0x20 MUL PUSH1 0x20 ADD PUSH1 0x40 MLOAD SWAP1 DUP2 ADD PUSH1 0x40 MSTORE DUP1 SWAP3 SWAP2 SWAP1 DUP2 DUP2 MSTORE PUSH1 0x20 ADD DUP3 DUP1 SLOAD DUP1 ISZERO PUSH3 0x282 JUMPI PUSH1 0x20 MUL DUP3 ADD SWAP2 SWAP1 PUSH1 0x0 MSTORE PUSH1 0x20 PUSH1 0x0 KECCAK256 SWAP1 JUMPDEST DUP2 PUSH1 0x0 SWAP1 SLOAD SWAP1 PUSH2 0x100 EXP SWAP1 DIV PUSH20 0xFFFFFFFFFFFFFFFFFFFFFFFFFFFFFFFFFFFFFFFF AND PUSH20 0xFFFFFFFFFFFFFFFFFFFFFFFFFFFFFFFFFFFFFFFF AND DUP2 MSTORE PUSH1 0x20 ADD SWAP1 PUSH1 0x1 ADD SWAP1 DUP1 DUP4 GT PUSH3 0x237 JUMPI JUMPDEST POP POP POP POP POP SWAP1 POP SWAP1 JUMP JUMPDEST PUSH2 0x19E2 DUP1 PUSH3 0xA0B DUP4 CODECOPY ADD SWAP1 JUMP JUMPDEST PUSH1 0x0 PUSH3 0x2B1 PUSH3 0x2AB DUP5 PUSH3 0x78A JUMP JUMPDEST PUSH3 0x761 JUMP JUMPDEST SWAP1 POP DUP1 DUP4 DUP3 MSTORE PUSH1 0x20 DUP3 ADD SWAP1 POP DUP3 DUP6 PUSH1 0x20 DUP7 MUL DUP3 ADD GT ISZERO PUSH3 0x2D7 JUMPI PUSH3 0x2D6 PUSH3 0x9CB JUMP JUMPDEST JUMPDEST PUSH1 0x0 JUMPDEST DUP6 DUP2 LT ISZERO PUSH3 0x32C JUMPI DUP2 CALLDATALOAD PUSH8 0xFFFFFFFFFFFFFFFF DUP2 GT ISZERO PUSH3 0x301 JUMPI PUSH3 0x300 PUSH3 0x9C6 JUMP JUMPDEST JUMPDEST DUP1 DUP7 ADD PUSH3 0x310 DUP10 DUP3 PUSH3 0x3B4 JUMP JUMPDEST DUP6 MSTORE PUSH1 0x20 DUP6 ADD SWAP5 POP PUSH1 0x20 DUP5 ADD SWAP4 POP POP POP PUSH1 0x1 DUP2 ADD SWAP1 POP PUSH3 0x2DA JUMP JUMPDEST POP POP POP SWAP4 SWAP3 POP POP POP JUMP JUMPDEST PUSH1 0x0 PUSH3 0x34D PUSH3 0x347 DUP5 PUSH3 0x7B9 JUMP JUMPDEST PUSH3 0x761 JUMP JUMPDEST SWAP1 POP DUP3 DUP2 MSTORE PUSH1 0x20 DUP2 ADD DUP5 DUP5 DUP5 ADD GT ISZERO PUSH3 0x36C JUMPI PUSH3 0x36B PUSH3 0x9D0 JUMP JUMPDEST JUMPDEST PUSH3 0x379 DUP5 DUP3 DUP6 PUSH3 0x91C JUMP JUMPDEST POP SWAP4 SWAP3 POP POP POP JUMP JUMPDEST PUSH1 0x0 DUP3 PUSH1 0x1F DUP4 ADD SLT PUSH3 0x399 JUMPI PUSH3 0x398 PUSH3 0x9C6 JUMP JUMPDEST JUMPDEST DUP2 CALLDATALOAD PUSH3 0x3AB DUP5 DUP3 PUSH1 0x20 DUP7 ADD PUSH3 0x29A JUMP JUMPDEST SWAP2 POP POP SWAP3 SWAP2 POP POP JUMP JUMPDEST PUSH1 0x0 DUP3 PUSH1 0x1F DUP4 ADD SLT PUSH3 0x3CC JUMPI PUSH3 0x3CB PUSH3 0x9C6 JUMP JUMPDEST JUMPDEST DUP2 CALLDATALOAD PUSH3 0x3DE DUP5 DUP3 PUSH1 0x20 DUP7 ADD PUSH3 0x336 JUMP JUMPDEST SWAP2 POP POP SWAP3 SWAP2 POP POP JUMP JUMPDEST PUSH1 0x0 DUP2 CALLDATALOAD SWAP1 POP PUSH3 0x3F8 DUP2 PUSH3 0x9F0 JUMP JUMPDEST SWAP3 SWAP2 POP POP JUMP JUMPDEST PUSH1 0x0 DUP1 PUSH1 0x0 DUP1 PUSH1 0x80 DUP6 DUP8 SUB SLT ISZERO PUSH3 0x41B JUMPI PUSH3 0x41A PUSH3 0x9DA JUMP JUMPDEST JUMPDEST PUSH1 0x0 DUP6 ADD CALLDATALOAD PUSH8 0xFFFFFFFFFFFFFFFF DUP2 GT ISZERO PUSH3 0x43C JUMPI PUSH3 0x43B PUSH3 0x9D5 JUMP JUMPDEST JUMPDEST PUSH3 0x44A DUP8 DUP3 DUP9 ADD PUSH3 0x3B4 JUMP JUMPDEST SWAP5 POP POP PUSH1 0x20 PUSH3 0x45D DUP8 DUP3 DUP9 ADD PUSH3 0x3E7 JUMP JUMPDEST SWAP4 POP POP PUSH1 0x40 DUP6 ADD CALLDATALOAD PUSH8 0xFFFFFFFFFFFFFFFF DUP2 GT ISZERO PUSH3 0x481 JUMPI PUSH3 0x480 PUSH3 0x9D5 JUMP JUMPDEST JUMPDEST PUSH3 0x48F DUP8 DUP3 DUP9 ADD PUSH3 0x381 JUMP JUMPDEST SWAP3 POP POP PUSH1 0x60 DUP6 ADD CALLDATALOAD PUSH8 0xFFFFFFFFFFFFFFFF DUP2 GT ISZERO PUSH3 0x4B3 JUMPI PUSH3 0x4B2 PUSH3 0x9D5 JUMP JUMPDEST JUMPDEST PUSH3 0x4C1 DUP8 DUP3 DUP9 ADD PUSH3 0x3B4 JUMP JUMPDEST SWAP2 POP POP SWAP3 SWAP6 SWAP2 SWAP5 POP SWAP3 POP JUMP JUMPDEST PUSH1 0x0 PUSH3 0x4DB DUP4 DUP4 PUSH3 0x60A JUMP JUMPDEST PUSH1 0x20 DUP4 ADD SWAP1 POP SWAP3 SWAP2 POP POP JUMP JUMPDEST PUSH1 0x0 PUSH3 0x4F5 DUP4 DUP4 PUSH3 0x61B JUMP JUMPDEST SWAP1 POP SWAP3 SWAP2 POP POP JUMP JUMPDEST PUSH3 0x508 DUP2 PUSH3 0x8A2 JUMP JUMPDEST DUP3 MSTORE POP POP JUMP JUMPDEST PUSH3 0x519 DUP2 PUSH3 0x88E JUMP JUMPDEST DUP3 MSTORE POP POP JUMP JUMPDEST PUSH1 0x0 PUSH3 0x52C DUP3 PUSH3 0x80F JUMP JUMPDEST PUSH3 0x538 DUP2 DUP6 PUSH3 0x84A JUMP JUMPDEST SWAP4 POP PUSH3 0x545 DUP4 PUSH3 0x7EF JUMP JUMPDEST DUP1 PUSH1 0x0 JUMPDEST DUP4 DUP2 LT ISZERO PUSH3 0x57C JUMPI DUP2 MLOAD PUSH3 0x560 DUP9 DUP3 PUSH3 0x4CD JUMP JUMPDEST SWAP8 POP PUSH3 0x56D DUP4 PUSH3 0x830 JUMP JUMPDEST SWAP3 POP POP PUSH1 0x1 DUP2 ADD SWAP1 POP PUSH3 0x549 JUMP JUMPDEST POP DUP6 SWAP4 POP POP POP POP SWAP3 SWAP2 POP POP JUMP JUMPDEST PUSH1 0x0 PUSH3 0x596 DUP3 PUSH3 0x81A JUMP JUMPDEST PUSH3 0x5A2 DUP2 DUP6 PUSH3 0x85B JUMP JUMPDEST SWAP4 POP DUP4 PUSH1 0x20 DUP3 MUL DUP6 ADD PUSH3 0x5B6 DUP6 PUSH3 0x7FF JUMP JUMPDEST DUP1 PUSH1 0x0 JUMPDEST DUP6 DUP2 LT ISZERO PUSH3 0x5F8 JUMPI DUP5 DUP5 SUB DUP10 MSTORE DUP2 MLOAD PUSH3 0x5D6 DUP6 DUP3 PUSH3 0x4E7 JUMP JUMPDEST SWAP5 POP PUSH3 0x5E3 DUP4 PUSH3 0x83D JUMP JUMPDEST SWAP3 POP PUSH1 0x20 DUP11 ADD SWAP10 POP POP PUSH1 0x1 DUP2 ADD SWAP1 POP PUSH3 0x5BA JUMP JUMPDEST POP DUP3 SWAP8 POP DUP8 SWAP6 POP POP POP POP POP POP SWAP3 SWAP2 POP POP JUMP JUMPDEST PUSH3 0x615 DUP2 PUSH3 0x8E0 JUMP JUMPDEST DUP3 MSTORE POP POP JUMP JUMPDEST PUSH1 0x0 PUSH3 0x628 DUP3 PUSH3 0x825 JUMP JUMPDEST PUSH3 0x634 DUP2 DUP6 PUSH3 0x86C JUMP JUMPDEST SWAP4 POP PUSH3 0x646 DUP2 DUP6 PUSH1 0x20 DUP7 ADD PUSH3 0x92B JUMP JUMPDEST PUSH3 0x651 DUP2 PUSH3 0x9DF JUMP JUMPDEST DUP5 ADD SWAP2 POP POP SWAP3 SWAP2 POP POP JUMP JUMPDEST PUSH1 0x0 PUSH3 0x669 DUP3 PUSH3 0x825 JUMP JUMPDEST PUSH3 0x675 DUP2 DUP6 PUSH3 0x87D JUMP JUMPDEST SWAP4 POP PUSH3 0x687 DUP2 DUP6 PUSH1 0x20 DUP7 ADD PUSH3 0x92B JUMP JUMPDEST PUSH3 0x692 DUP2 PUSH3 0x9DF JUMP JUMPDEST DUP5 ADD SWAP2 POP POP SWAP3 SWAP2 POP POP JUMP JUMPDEST PUSH3 0x6A8 DUP2 PUSH3 0x8D6 JUMP JUMPDEST DUP3 MSTORE POP POP JUMP JUMPDEST PUSH1 0x0 PUSH1 0x20 DUP3 ADD SWAP1 POP PUSH3 0x6C5 PUSH1 0x0 DUP4 ADD DUP5 PUSH3 0x4FD JUMP JUMPDEST SWAP3 SWAP2 POP POP JUMP JUMPDEST PUSH1 0x0 PUSH1 0xA0 DUP3 ADD SWAP1 POP PUSH3 0x6E2 PUSH1 0x0 DUP4 ADD DUP9 PUSH3 0x50E JUMP JUMPDEST DUP2 DUP2 SUB PUSH1 0x20 DUP4 ADD MSTORE PUSH3 0x6F6 DUP2 DUP8 PUSH3 0x65C JUMP JUMPDEST SWAP1 POP PUSH3 0x707 PUSH1 0x40 DUP4 ADD DUP7 PUSH3 0x69D JUMP JUMPDEST DUP2 DUP2 SUB PUSH1 0x60 DUP4 ADD MSTORE PUSH3 0x71B DUP2 DUP6 PUSH3 0x589 JUMP JUMPDEST SWAP1 POP DUP2 DUP2 SUB PUSH1 0x80 DUP4 ADD MSTORE PUSH3 0x731 DUP2 DUP5 PUSH3 0x65C JUMP JUMPDEST SWAP1 POP SWAP7 SWAP6 POP POP POP POP POP POP JUMP JUMPDEST PUSH1 0x0 PUSH1 0x20 DUP3 ADD SWAP1 POP DUP2 DUP2 SUB PUSH1 0x0 DUP4 ADD MSTORE PUSH3 0x759 DUP2 DUP5 PUSH3 0x51F JUMP JUMPDEST SWAP1 POP SWAP3 SWAP2 POP POP JUMP JUMPDEST PUSH1 0x0 PUSH3 0x76D PUSH3 0x780 JUMP JUMPDEST SWAP1 POP PUSH3 0x77B DUP3 DUP3 PUSH3 0x961 JUMP JUMPDEST SWAP2 SWAP1 POP JUMP JUMPDEST PUSH1 0x0 PUSH1 0x40 MLOAD SWAP1 POP SWAP1 JUMP JUMPDEST PUSH1 0x0 PUSH8 0xFFFFFFFFFFFFFFFF DUP3 GT ISZERO PUSH3 0x7A8 JUMPI PUSH3 0x7A7 PUSH3 0x997 JUMP JUMPDEST JUMPDEST PUSH1 0x20 DUP3 MUL SWAP1 POP PUSH1 0x20 DUP2 ADD SWAP1 POP SWAP2 SWAP1 POP JUMP JUMPDEST PUSH1 0x0 PUSH8 0xFFFFFFFFFFFFFFFF DUP3 GT ISZERO PUSH3 0x7D7 JUMPI PUSH3 0x7D6 PUSH3 0x997 JUMP JUMPDEST JUMPDEST PUSH3 0x7E2 DUP3 PUSH3 0x9DF JUMP JUMPDEST SWAP1 POP PUSH1 0x20 DUP2 ADD SWAP1 POP SWAP2 SWAP1 POP JUMP JUMPDEST PUSH1 0x0 DUP2 SWAP1 POP PUSH1 0x20 DUP3 ADD SWAP1 POP SWAP2 SWAP1 POP JUMP JUMPDEST PUSH1 0x0 DUP2 SWAP1 POP PUSH1 0x20 DUP3 ADD SWAP1 POP SWAP2 SWAP1 POP JUMP JUMPDEST PUSH1 0x0 DUP2 MLOAD SWAP1 POP SWAP2 SWAP1 POP JUMP JUMPDEST PUSH1 0x0 DUP2 MLOAD SWAP1 POP SWAP2 SWAP1 POP JUMP JUMPDEST PUSH1 0x0 DUP2 MLOAD SWAP1 POP SWAP2 SWAP1 POP JUMP JUMPDEST PUSH1 0x0 PUSH1 0x20 DUP3 ADD SWAP1 POP SWAP2 SWAP1 POP JUMP JUMPDEST PUSH1 0x0 PUSH1 0x20 DUP3 ADD SWAP1 POP SWAP2 SWAP1 POP JUMP JUMPDEST PUSH1 0x0 DUP3 DUP3 MSTORE PUSH1 0x20 DUP3 ADD SWAP1 POP SWAP3 SWAP2 POP POP JUMP JUMPDEST PUSH1 0x0 DUP3 DUP3 MSTORE PUSH1 0x20 DUP3 ADD SWAP1 POP SWAP3 SWAP2 POP POP JUMP JUMPDEST PUSH1 0x0 DUP3 DUP3 MSTORE PUSH1 0x20 DUP3 ADD SWAP1 POP SWAP3 SWAP2 POP POP JUMP JUMPDEST PUSH1 0x0 DUP3 DUP3 MSTORE PUSH1 0x20 DUP3 ADD SWAP1 POP SWAP3 SWAP2 POP POP JUMP JUMPDEST PUSH1 0x0 PUSH3 0x89B DUP3 PUSH3 0x8B6 JUMP JUMPDEST SWAP1 POP SWAP2 SWAP1 POP JUMP JUMPDEST PUSH1 0x0 PUSH3 0x8AF DUP3 PUSH3 0x8B6 JUMP JUMPDEST SWAP1 POP SWAP2 SWAP1 POP JUMP JUMPDEST PUSH1 0x0 PUSH20 0xFFFFFFFFFFFFFFFFFFFFFFFFFFFFFFFFFFFFFFFF DUP3 AND SWAP1 POP SWAP2 SWAP1 POP JUMP JUMPDEST PUSH1 0x0 DUP2 SWAP1 POP SWAP2 SWAP1 POP JUMP JUMPDEST PUSH1 0x0 PUSH3 0x8ED DUP3 PUSH3 0x8F4 JUMP JUMPDEST SWAP1 POP SWAP2 SWAP1 POP JUMP JUMPDEST PUSH1 0x0 PUSH3 0x901 DUP3 PUSH3 0x908 JUMP JUMPDEST SWAP1 POP SWAP2 SWAP1 POP JUMP JUMPDEST PUSH1 0x0 PUSH3 0x915 DUP3 PUSH3 0x8B6 JUMP JUMPDEST SWAP1 POP SWAP2 SWAP1 POP JUMP JUMPDEST DUP3 DUP2 DUP4 CALLDATACOPY PUSH1 0x0 DUP4 DUP4 ADD MSTORE POP POP POP JUMP JUMPDEST PUSH1 0x0 JUMPDEST DUP4 DUP2 LT ISZERO PUSH3 0x94B JUMPI DUP1 DUP3 ADD MLOAD DUP2 DUP5 ADD MSTORE PUSH1 0x20 DUP2 ADD SWAP1 POP PUSH3 0x92E JUMP JUMPDEST DUP4 DUP2 GT ISZERO PUSH3 0x95B JUMPI PUSH1 0x0 DUP5 DUP5 ADD MSTORE JUMPDEST POP POP POP POP JUMP JUMPDEST PUSH3 0x96C DUP3 PUSH3 0x9DF JUMP JUMPDEST DUP2 ADD DUP2 DUP2 LT PUSH8 0xFFFFFFFFFFFFFFFF DUP3 GT OR ISZERO PUSH3 0x98E JUMPI PUSH3 0x98D PUSH3 0x997 JUMP JUMPDEST JUMPDEST DUP1 PUSH1 0x40 MSTORE POP POP POP JUMP JUMPDEST PUSH32 0x4E487B7100000000000000000000000000000000000000000000000000000000 PUSH1 0x0 MSTORE PUSH1 0x41 PUSH1 0x4 MSTORE PUSH1 0x24 PUSH1 0x0 REVERT JUMPDEST PUSH1 0x0 DUP1 REVERT JUMPDEST PUSH1 0x0 DUP1 REVERT JUMPDEST PUSH1 0x0 DUP1 REVERT JUMPDEST PUSH1 0x0 DUP1 REVERT JUMPDEST PUSH1 0x0 DUP1 REVERT JUMPDEST PUSH1 0x0 PUSH1 0x1F NOT PUSH1 0x1F DUP4 ADD AND SWAP1 POP SWAP2 SWAP1 POP JUMP JUMPDEST PUSH3 0x9FB DUP2 PUSH3 0x8D6 JUMP JUMPDEST DUP2 EQ PUSH3 0xA07 JUMPI PUSH1 0x0 DUP1 REVERT JUMPDEST POP JUMP INVALID PUSH1 0x80 PUSH1 0x40 MSTORE CALLVALUE DUP1 ISZERO PUSH3 0x11 JUMPI PUSH1 0x0 DUP1 REVERT JUMPDEST POP PUSH1 0x40 MLOAD PUSH3 0x19E2 CODESIZE SUB DUP1 PUSH3 0x19E2 DUP4 CODECOPY DUP2 DUP2 ADD PUSH1 0x40 MSTORE DUP2 ADD SWAP1 PUSH3 0x37 SWAP2 SWAP1 PUSH3 0x536 JUMP JUMPDEST DUP5 PUSH1 0x0 DUP1 PUSH2 0x100 EXP DUP2 SLOAD DUP2 PUSH20 0xFFFFFFFFFFFFFFFFFFFFFFFFFFFFFFFFFFFFFFFF MUL NOT AND SWAP1 DUP4 PUSH20 0xFFFFFFFFFFFFFFFFFFFFFFFFFFFFFFFFFFFFFFFF AND MUL OR SWAP1 SSTORE POP DUP4 PUSH1 0x1 SWAP1 DUP1 MLOAD SWAP1 PUSH1 0x20 ADD SWAP1 PUSH3 0x8F SWAP3 SWAP2 SWAP1 PUSH3 0x236 JUMP JUMPDEST POP DUP2 PUSH1 0x2 SWAP1 DUP1 MLOAD SWAP1 PUSH1 0x20 ADD SWAP1 PUSH3 0xA8 SWAP3 SWAP2 SWAP1 PUSH3 0x2C7 JUMP JUMPDEST POP NUMBER PUSH1 0x3 DUP2 SWAP1 SSTORE POP DUP3 PUSH1 0x3 SLOAD PUSH3 0xC0 SWAP2 SWAP1 PUSH3 0x806 JUMP JUMPDEST PUSH1 0x4 DUP2 SWAP1 SSTORE POP PUSH1 0x1 PUSH1 0x5 PUSH1 0x1 PUSH2 0x100 EXP DUP2 SLOAD DUP2 PUSH1 0xFF MUL NOT AND SWAP1 DUP4 PUSH1 0x3 DUP2 GT ISZERO PUSH3 0xEF JUMPI PUSH3 0xEE PUSH3 0x9C0 JUMP JUMPDEST JUMPDEST MUL OR SWAP1 SSTORE POP PUSH1 0x40 MLOAD PUSH1 0x20 ADD PUSH3 0x105 SWAP1 PUSH3 0x736 JUMP JUMPDEST PUSH1 0x40 MLOAD PUSH1 0x20 DUP2 DUP4 SUB SUB DUP2 MSTORE SWAP1 PUSH1 0x40 MSTORE DUP1 MLOAD SWAP1 PUSH1 0x20 ADD KECCAK256 DUP2 PUSH1 0x40 MLOAD PUSH1 0x20 ADD PUSH3 0x12E SWAP2 SWAP1 PUSH3 0x704 JUMP JUMPDEST PUSH1 0x40 MLOAD PUSH1 0x20 DUP2 DUP4 SUB SUB DUP2 MSTORE SWAP1 PUSH1 0x40 MSTORE DUP1 MLOAD SWAP1 PUSH1 0x20 ADD KECCAK256 EQ ISZERO PUSH3 0x17F JUMPI PUSH1 0x0 PUSH1 0x5 PUSH1 0x0 PUSH2 0x100 EXP DUP2 SLOAD DUP2 PUSH1 0xFF MUL NOT AND SWAP1 DUP4 PUSH1 0x1 DUP2 GT ISZERO PUSH3 0x174 JUMPI PUSH3 0x173 PUSH3 0x9C0 JUMP JUMPDEST JUMPDEST MUL OR SWAP1 SSTORE POP PUSH3 0x1BD JUMP JUMPDEST PUSH1 0x1 DUP1 DUP2 GT ISZERO PUSH3 0x195 JUMPI PUSH3 0x194 PUSH3 0x9C0 JUMP JUMPDEST JUMPDEST PUSH1 0x5 PUSH1 0x0 SWAP1 SLOAD SWAP1 PUSH2 0x100 EXP SWAP1 DIV PUSH1 0xFF AND PUSH1 0x1 DUP2 GT ISZERO PUSH3 0x1BA JUMPI PUSH3 0x1B9 PUSH3 0x9C0 JUMP JUMPDEST JUMPDEST POP POP JUMPDEST PUSH1 0x0 JUMPDEST PUSH1 0x2 DUP1 SLOAD SWAP1 POP DUP2 LT ISZERO PUSH3 0x22A JUMPI PUSH1 0x0 PUSH1 0x7 PUSH1 0x2 DUP4 DUP2 SLOAD DUP2 LT PUSH3 0x1E9 JUMPI PUSH3 0x1E8 PUSH3 0xA1E JUMP JUMPDEST JUMPDEST SWAP1 PUSH1 0x0 MSTORE PUSH1 0x20 PUSH1 0x0 KECCAK256 ADD PUSH1 0x40 MLOAD PUSH3 0x202 SWAP2 SWAP1 PUSH3 0x71D JUMP JUMPDEST SWAP1 DUP2 MSTORE PUSH1 0x20 ADD PUSH1 0x40 MLOAD DUP1 SWAP2 SUB SWAP1 KECCAK256 DUP2 SWAP1 SSTORE POP DUP1 DUP1 PUSH3 0x221 SWAP1 PUSH3 0x943 JUMP JUMPDEST SWAP2 POP POP PUSH3 0x1C0 JUMP JUMPDEST POP POP POP POP POP POP PUSH3 0xB03 JUMP JUMPDEST DUP3 DUP1 SLOAD PUSH3 0x244 SWAP1 PUSH3 0x8D7 JUMP JUMPDEST SWAP1 PUSH1 0x0 MSTORE PUSH1 0x20 PUSH1 0x0 KECCAK256 SWAP1 PUSH1 0x1F ADD PUSH1 0x20 SWAP1 DIV DUP2 ADD SWAP3 DUP3 PUSH3 0x268 JUMPI PUSH1 0x0 DUP6 SSTORE PUSH3 0x2B4 JUMP JUMPDEST DUP3 PUSH1 0x1F LT PUSH3 0x283 JUMPI DUP1 MLOAD PUSH1 0xFF NOT AND DUP4 DUP1 ADD OR DUP6 SSTORE PUSH3 0x2B4 JUMP JUMPDEST DUP3 DUP1 ADD PUSH1 0x1 ADD DUP6 SSTORE DUP3 ISZERO PUSH3 0x2B4 JUMPI SWAP2 DUP3 ADD JUMPDEST DUP3 DUP2 GT ISZERO PUSH3 0x2B3 JUMPI DUP3 MLOAD DUP3 SSTORE SWAP2 PUSH1 0x20 ADD SWAP2 SWAP1 PUSH1 0x1 ADD SWAP1 PUSH3 0x296 JUMP JUMPDEST JUMPDEST POP SWAP1 POP PUSH3 0x2C3 SWAP2 SWAP1 PUSH3 0x32E JUMP JUMPDEST POP SWAP1 JUMP JUMPDEST DUP3 DUP1 SLOAD DUP3 DUP3 SSTORE SWAP1 PUSH1 0x0 MSTORE PUSH1 0x20 PUSH1 0x0 KECCAK256 SWAP1 DUP2 ADD SWAP3 DUP3 ISZERO PUSH3 0x31B JUMPI SWAP2 PUSH1 0x20 MUL DUP3 ADD JUMPDEST DUP3 DUP2 GT ISZERO PUSH3 0x31A JUMPI DUP3 MLOAD DUP3 SWAP1 DUP1 MLOAD SWAP1 PUSH1 0x20 ADD SWAP1 PUSH3 0x309 SWAP3 SWAP2 SWAP1 PUSH3 0x236 JUMP JUMPDEST POP SWAP2 PUSH1 0x20 ADD SWAP2 SWAP1 PUSH1 0x1 ADD SWAP1 PUSH3 0x2E8 JUMP JUMPDEST JUMPDEST POP SWAP1 POP PUSH3 0x32A SWAP2 SWAP1 PUSH3 0x34D JUMP JUMPDEST POP SWAP1 JUMP JUMPDEST JUMPDEST DUP1 DUP3 GT ISZERO PUSH3 0x349 JUMPI PUSH1 0x0 DUP2 PUSH1 0x0 SWAP1 SSTORE POP PUSH1 0x1 ADD PUSH3 0x32F JUMP JUMPDEST POP SWAP1 JUMP JUMPDEST JUMPDEST DUP1 DUP3 GT ISZERO PUSH3 0x371 JUMPI PUSH1 0x0 DUP2 DUP2 PUSH3 0x367 SWAP2 SWAP1 PUSH3 0x375 JUMP JUMPDEST POP PUSH1 0x1 ADD PUSH3 0x34E JUMP JUMPDEST POP SWAP1 JUMP JUMPDEST POP DUP1 SLOAD PUSH3 0x383 SWAP1 PUSH3 0x8D7 JUMP JUMPDEST PUSH1 0x0 DUP3 SSTORE DUP1 PUSH1 0x1F LT PUSH3 0x397 JUMPI POP PUSH3 0x3B8 JUMP JUMPDEST PUSH1 0x1F ADD PUSH1 0x20 SWAP1 DIV SWAP1 PUSH1 0x0 MSTORE PUSH1 0x20 PUSH1 0x0 KECCAK256 SWAP1 DUP2 ADD SWAP1 PUSH3 0x3B7 SWAP2 SWAP1 PUSH3 0x32E JUMP JUMPDEST JUMPDEST POP JUMP JUMPDEST PUSH1 0x0 PUSH3 0x3D2 PUSH3 0x3CC DUP5 PUSH3 0x776 JUMP JUMPDEST PUSH3 0x74D JUMP JUMPDEST SWAP1 POP DUP1 DUP4 DUP3 MSTORE PUSH1 0x20 DUP3 ADD SWAP1 POP DUP3 DUP6 PUSH1 0x20 DUP7 MUL DUP3 ADD GT ISZERO PUSH3 0x3F8 JUMPI PUSH3 0x3F7 PUSH3 0xA81 JUMP JUMPDEST JUMPDEST PUSH1 0x0 JUMPDEST DUP6 DUP2 LT ISZERO PUSH3 0x44D JUMPI DUP2 MLOAD PUSH8 0xFFFFFFFFFFFFFFFF DUP2 GT ISZERO PUSH3 0x422 JUMPI PUSH3 0x421 PUSH3 0xA7C JUMP JUMPDEST JUMPDEST DUP1 DUP7 ADD PUSH3 0x431 DUP10 DUP3 PUSH3 0x4EC JUMP JUMPDEST DUP6 MSTORE PUSH1 0x20 DUP6 ADD SWAP5 POP PUSH1 0x20 DUP5 ADD SWAP4 POP POP POP PUSH1 0x1 DUP2 ADD SWAP1 POP PUSH3 0x3FB JUMP JUMPDEST POP POP POP SWAP4 SWAP3 POP POP POP JUMP JUMPDEST PUSH1 0x0 PUSH3 0x46E PUSH3 0x468 DUP5 PUSH3 0x7A5 JUMP JUMPDEST PUSH3 0x74D JUMP JUMPDEST SWAP1 POP DUP3 DUP2 MSTORE PUSH1 0x20 DUP2 ADD DUP5 DUP5 DUP5 ADD GT ISZERO PUSH3 0x48D JUMPI PUSH3 0x48C PUSH3 0xA86 JUMP JUMPDEST JUMPDEST PUSH3 0x49A DUP5 DUP3 DUP6 PUSH3 0x8A1 JUMP JUMPDEST POP SWAP4 SWAP3 POP POP POP JUMP JUMPDEST PUSH1 0x0 DUP2 MLOAD SWAP1 POP PUSH3 0x4B3 DUP2 PUSH3 0xACF JUMP JUMPDEST SWAP3 SWAP2 POP POP JUMP JUMPDEST PUSH1 0x0 DUP3 PUSH1 0x1F DUP4 ADD SLT PUSH3 0x4D1 JUMPI PUSH3 0x4D0 PUSH3 0xA7C JUMP JUMPDEST JUMPDEST DUP2 MLOAD PUSH3 0x4E3 DUP5 DUP3 PUSH1 0x20 DUP7 ADD PUSH3 0x3BB JUMP JUMPDEST SWAP2 POP POP SWAP3 SWAP2 POP POP JUMP JUMPDEST PUSH1 0x0 DUP3 PUSH1 0x1F DUP4 ADD SLT PUSH3 0x504 JUMPI PUSH3 0x503 PUSH3 0xA7C JUMP JUMPDEST JUMPDEST DUP2 MLOAD PUSH3 0x516 DUP5 DUP3 PUSH1 0x20 DUP7 ADD PUSH3 0x457 JUMP JUMPDEST SWAP2 POP POP SWAP3 SWAP2 POP POP JUMP JUMPDEST PUSH1 0x0 DUP2 MLOAD SWAP1 POP PUSH3 0x530 DUP2 PUSH3 0xAE9 JUMP JUMPDEST SWAP3 SWAP2 POP POP JUMP JUMPDEST PUSH1 0x0 DUP1 PUSH1 0x0 DUP1 PUSH1 0x0 PUSH1 0xA0 DUP7 DUP9 SUB SLT ISZERO PUSH3 0x555 JUMPI PUSH3 0x554 PUSH3 0xA90 JUMP JUMPDEST JUMPDEST PUSH1 0x0 PUSH3 0x565 DUP9 DUP3 DUP10 ADD PUSH3 0x4A2 JUMP JUMPDEST SWAP6 POP POP PUSH1 0x20 DUP7 ADD MLOAD PUSH8 0xFFFFFFFFFFFFFFFF DUP2 GT ISZERO PUSH3 0x589 JUMPI PUSH3 0x588 PUSH3 0xA8B JUMP JUMPDEST JUMPDEST PUSH3 0x597 DUP9 DUP3 DUP10 ADD PUSH3 0x4EC JUMP JUMPDEST SWAP5 POP POP PUSH1 0x40 PUSH3 0x5AA DUP9 DUP3 DUP10 ADD PUSH3 0x51F JUMP JUMPDEST SWAP4 POP POP PUSH1 0x60 DUP7 ADD MLOAD PUSH8 0xFFFFFFFFFFFFFFFF DUP2 GT ISZERO PUSH3 0x5CE JUMPI PUSH3 0x5CD PUSH3 0xA8B JUMP JUMPDEST JUMPDEST PUSH3 0x5DC DUP9 DUP3 DUP10 ADD PUSH3 0x4B9 JUMP JUMPDEST SWAP3 POP POP PUSH1 0x80 DUP7 ADD MLOAD PUSH8 0xFFFFFFFFFFFFFFFF DUP2 GT ISZERO PUSH3 0x600 JUMPI PUSH3 0x5FF PUSH3 0xA8B JUMP JUMPDEST JUMPDEST PUSH3 0x60E DUP9 DUP3 DUP10 ADD PUSH3 0x4EC JUMP JUMPDEST SWAP2 POP POP SWAP3 SWAP6 POP SWAP3 SWAP6 SWAP1 SWAP4 POP JUMP JUMPDEST PUSH1 0x0 PUSH3 0x628 DUP3 PUSH3 0x7F0 JUMP JUMPDEST PUSH3 0x634 DUP2 DUP6 PUSH3 0x7FB JUMP JUMPDEST SWAP4 POP PUSH3 0x646 DUP2 DUP6 PUSH1 0x20 DUP7 ADD PUSH3 0x8A1 JUMP JUMPDEST DUP1 DUP5 ADD SWAP2 POP POP SWAP3 SWAP2 POP POP JUMP JUMPDEST PUSH1 0x0 DUP2 SLOAD PUSH3 0x661 DUP2 PUSH3 0x8D7 JUMP JUMPDEST PUSH3 0x66D DUP2 DUP7 PUSH3 0x7FB JUMP JUMPDEST SWAP5 POP PUSH1 0x1 DUP3 AND PUSH1 0x0 DUP2 EQ PUSH3 0x68B JUMPI PUSH1 0x1 DUP2 EQ PUSH3 0x69D JUMPI PUSH3 0x6D4 JUMP JUMPDEST PUSH1 0xFF NOT DUP4 AND DUP7 MSTORE DUP2 DUP7 ADD SWAP4 POP PUSH3 0x6D4 JUMP JUMPDEST PUSH3 0x6A8 DUP6 PUSH3 0x7DB JUMP JUMPDEST PUSH1 0x0 JUMPDEST DUP4 DUP2 LT ISZERO PUSH3 0x6CC JUMPI DUP2 SLOAD DUP2 DUP10 ADD MSTORE PUSH1 0x1 DUP3 ADD SWAP2 POP PUSH1 0x20 DUP2 ADD SWAP1 POP PUSH3 0x6AB JUMP JUMPDEST DUP4 DUP9 ADD SWAP6 POP POP POP JUMPDEST POP POP POP SWAP3 SWAP2 POP POP JUMP JUMPDEST PUSH1 0x0 PUSH3 0x6EC PUSH1 0x6 DUP4 PUSH3 0x7FB JUMP JUMPDEST SWAP2 POP PUSH3 0x6F9 DUP3 PUSH3 0xAA6 JUMP JUMPDEST PUSH1 0x6 DUP3 ADD SWAP1 POP SWAP2 SWAP1 POP JUMP JUMPDEST PUSH1 0x0 PUSH3 0x712 DUP3 DUP5 PUSH3 0x61B JUMP JUMPDEST SWAP2 POP DUP2 SWAP1 POP SWAP3 SWAP2 POP POP JUMP JUMPDEST PUSH1 0x0 PUSH3 0x72B DUP3 DUP5 PUSH3 0x652 JUMP JUMPDEST SWAP2 POP DUP2 SWAP1 POP SWAP3 SWAP2 POP POP JUMP JUMPDEST PUSH1 0x0 PUSH3 0x743 DUP3 PUSH3 0x6DD JUMP JUMPDEST SWAP2 POP DUP2 SWAP1 POP SWAP2 SWAP1 POP JUMP JUMPDEST PUSH1 0x0 PUSH3 0x759 PUSH3 0x76C JUMP JUMPDEST SWAP1 POP PUSH3 0x767 DUP3 DUP3 PUSH3 0x90D JUMP JUMPDEST SWAP2 SWAP1 POP JUMP JUMPDEST PUSH1 0x0 PUSH1 0x40 MLOAD SWAP1 POP SWAP1 JUMP JUMPDEST PUSH1 0x0 PUSH8 0xFFFFFFFFFFFFFFFF DUP3 GT ISZERO PUSH3 0x794 JUMPI PUSH3 0x793 PUSH3 0xA4D JUMP JUMPDEST JUMPDEST PUSH1 0x20 DUP3 MUL SWAP1 POP PUSH1 0x20 DUP2 ADD SWAP1 POP SWAP2 SWAP1 POP JUMP JUMPDEST PUSH1 0x0 PUSH8 0xFFFFFFFFFFFFFFFF DUP3 GT ISZERO PUSH3 0x7C3 JUMPI PUSH3 0x7C2 PUSH3 0xA4D JUMP JUMPDEST JUMPDEST PUSH3 0x7CE DUP3 PUSH3 0xA95 JUMP JUMPDEST SWAP1 POP PUSH1 0x20 DUP2 ADD SWAP1 POP SWAP2 SWAP1 POP JUMP JUMPDEST PUSH1 0x0 DUP2 SWAP1 POP DUP2 PUSH1 0x0 MSTORE PUSH1 0x20 PUSH1 0x0 KECCAK256 SWAP1 POP SWAP2 SWAP1 POP JUMP JUMPDEST PUSH1 0x0 DUP2 MLOAD SWAP1 POP SWAP2 SWAP1 POP JUMP JUMPDEST PUSH1 0x0 DUP2 SWAP1 POP SWAP3 SWAP2 POP POP JUMP JUMPDEST PUSH1 0x0 PUSH3 0x813 DUP3 PUSH3 0x897 JUMP JUMPDEST SWAP2 POP PUSH3 0x820 DUP4 PUSH3 0x897 JUMP JUMPDEST SWAP3 POP DUP3 PUSH32 0xFFFFFFFFFFFFFFFFFFFFFFFFFFFFFFFFFFFFFFFFFFFFFFFFFFFFFFFFFFFFFFFF SUB DUP3 GT ISZERO PUSH3 0x858 JUMPI PUSH3 0x857 PUSH3 0x991 JUMP JUMPDEST JUMPDEST DUP3 DUP3 ADD SWAP1 POP SWAP3 SWAP2 POP POP JUMP JUMPDEST PUSH1 0x0 PUSH3 0x870 DUP3 PUSH3 0x877 JUMP JUMPDEST SWAP1 POP SWAP2 SWAP1 POP JUMP JUMPDEST PUSH1 0x0 PUSH20 0xFFFFFFFFFFFFFFFFFFFFFFFFFFFFFFFFFFFFFFFF DUP3 AND SWAP1 POP SWAP2 SWAP1 POP JUMP JUMPDEST PUSH1 0x0 DUP2 SWAP1 POP SWAP2 SWAP1 POP JUMP JUMPDEST PUSH1 0x0 JUMPDEST DUP4 DUP2 LT ISZERO PUSH3 0x8C1 JUMPI DUP1 DUP3 ADD MLOAD DUP2 DUP5 ADD MSTORE PUSH1 0x20 DUP2 ADD SWAP1 POP PUSH3 0x8A4 JUMP JUMPDEST DUP4 DUP2 GT ISZERO PUSH3 0x8D1 JUMPI PUSH1 0x0 DUP5 DUP5 ADD MSTORE JUMPDEST POP POP POP POP JUMP JUMPDEST PUSH1 0x0 PUSH1 0x2 DUP3 DIV SWAP1 POP PUSH1 0x1 DUP3 AND DUP1 PUSH3 0x8F0 JUMPI PUSH1 0x7F DUP3 AND SWAP2 POP JUMPDEST PUSH1 0x20 DUP3 LT DUP2 EQ ISZERO PUSH3 0x907 JUMPI PUSH3 0x906 PUSH3 0x9EF JUMP JUMPDEST JUMPDEST POP SWAP2 SWAP1 POP JUMP JUMPDEST PUSH3 0x918 DUP3 PUSH3 0xA95 JUMP JUMPDEST DUP2 ADD DUP2 DUP2 LT PUSH8 0xFFFFFFFFFFFFFFFF DUP3 GT OR ISZERO PUSH3 0x93A JUMPI PUSH3 0x939 PUSH3 0xA4D JUMP JUMPDEST JUMPDEST DUP1 PUSH1 0x40 MSTORE POP POP POP JUMP JUMPDEST PUSH1 0x0 PUSH3 0x950 DUP3 PUSH3 0x897 JUMP JUMPDEST SWAP2 POP PUSH32 0xFFFFFFFFFFFFFFFFFFFFFFFFFFFFFFFFFFFFFFFFFFFFFFFFFFFFFFFFFFFFFFFF DUP3 EQ ISZERO PUSH3 0x986 JUMPI PUSH3 0x985 PUSH3 0x991 JUMP JUMPDEST JUMPDEST PUSH1 0x1 DUP3 ADD SWAP1 POP SWAP2 SWAP1 POP JUMP JUMPDEST PUSH32 0x4E487B7100000000000000000000000000000000000000000000000000000000 PUSH1 0x0 MSTORE PUSH1 0x11 PUSH1 0x4 MSTORE PUSH1 0x24 PUSH1 0x0 REVERT JUMPDEST PUSH32 0x4E487B7100000000000000000000000000000000000000000000000000000000 PUSH1 0x0 MSTORE PUSH1 0x21 PUSH1 0x4 MSTORE PUSH1 0x24 PUSH1 0x0 REVERT JUMPDEST PUSH32 0x4E487B7100000000000000000000000000000000000000000000000000000000 PUSH1 0x0 MSTORE PUSH1 0x22 PUSH1 0x4 MSTORE PUSH1 0x24 PUSH1 0x0 REVERT JUMPDEST PUSH32 0x4E487B7100000000000000000000000000000000000000000000000000000000 PUSH1 0x0 MSTORE PUSH1 0x32 PUSH1 0x4 MSTORE PUSH1 0x24 PUSH1 0x0 REVERT JUMPDEST PUSH32 0x4E487B7100000000000000000000000000000000000000000000000000000000 PUSH1 0x0 MSTORE PUSH1 0x41 PUSH1 0x4 MSTORE PUSH1 0x24 PUSH1 0x0 REVERT JUMPDEST PUSH1 0x0 DUP1 REVERT JUMPDEST PUSH1 0x0 DUP1 REVERT JUMPDEST PUSH1 0x0 DUP1 REVERT JUMPDEST PUSH1 0x0 DUP1 REVERT JUMPDEST PUSH1 0x0 DUP1 REVERT JUMPDEST PUSH1 0x0 PUSH1 0x1F NOT PUSH1 0x1F DUP4 ADD AND SWAP1 POP SWAP2 SWAP1 POP JUMP JUMPDEST PUSH32 0x5075626C69630000000000000000000000000000000000000000000000000000 PUSH1 0x0 DUP3 ADD MSTORE POP JUMP JUMPDEST PUSH3 0xADA DUP2 PUSH3 0x863 JUMP JUMPDEST DUP2 EQ PUSH3 0xAE6 JUMPI PUSH1 0x0 DUP1 REVERT JUMPDEST POP JUMP JUMPDEST PUSH3 0xAF4 DUP2 PUSH3 0x897 JUMP JUMPDEST DUP2 EQ PUSH3 0xB00 JUMPI PUSH1 0x0 DUP1 REVERT JUMPDEST POP JUMP JUMPDEST PUSH2 0xECF DUP1 PUSH3 0xB13 PUSH1 0x0 CODECOPY PUSH1 0x0 RETURN INVALID PUSH1 0x80 PUSH1 0x40 MSTORE CALLVALUE DUP1 ISZERO PUSH2 0x10 JUMPI PUSH1 0x0 DUP1 REVERT JUMPDEST POP PUSH1 0x4 CALLDATASIZE LT PUSH2 0xB4 JUMPI PUSH1 0x0 CALLDATALOAD PUSH1 0xE0 SHR DUP1 PUSH4 0x8F58D353 GT PUSH2 0x71 JUMPI DUP1 PUSH4 0x8F58D353 EQ PUSH2 0x191 JUMPI DUP1 PUSH4 0xB73B396B EQ PUSH2 0x1AF JUMPI DUP1 PUSH4 0xBA0C45C9 EQ PUSH2 0x1B9 JUMPI DUP1 PUSH4 0xC04752D8 EQ PUSH2 0x1D5 JUMPI DUP1 PUSH4 0xC308B0DC EQ PUSH2 0x1F1 JUMPI DUP1 PUSH4 0xCC1E2CB0 EQ PUSH2 0x20D JUMPI PUSH2 0xB4 JUMP JUMPDEST DUP1 PUSH4 0x83C6323 EQ PUSH2 0xB9 JUMPI DUP1 PUSH4 0x18769765 EQ PUSH2 0xD7 JUMPI DUP1 PUSH4 0x237637A8 EQ PUSH2 0xF5 JUMPI DUP1 PUSH4 0x3477EE2E EQ PUSH2 0x113 JUMPI DUP1 PUSH4 0x48CD4CB1 EQ PUSH2 0x143 JUMPI DUP1 PUSH4 0x498CC70D EQ PUSH2 0x161 JUMPI JUMPDEST PUSH1 0x0 DUP1 REVERT JUMPDEST PUSH2 0xC1 PUSH2 0x22B JUMP JUMPDEST PUSH1 0x40 MLOAD PUSH2 0xCE SWAP2 SWAP1 PUSH2 0xB0E JUMP JUMPDEST PUSH1 0x40 MLOAD DUP1 SWAP2 SUB SWAP1 RETURN JUMPDEST PUSH2 0xDF PUSH2 0x231 JUMP JUMPDEST PUSH1 0x40 MLOAD PUSH2 0xEC SWAP2 SWAP1 PUSH2 0xAAC JUMP JUMPDEST PUSH1 0x40 MLOAD DUP1 SWAP2 SUB SWAP1 RETURN JUMPDEST PUSH2 0xFD PUSH2 0x2BF JUMP JUMPDEST PUSH1 0x40 MLOAD PUSH2 0x10A SWAP2 SWAP1 PUSH2 0xA91 JUMP JUMPDEST PUSH1 0x40 MLOAD DUP1 SWAP2 SUB SWAP1 RETURN JUMPDEST PUSH2 0x12D PUSH1 0x4 DUP1 CALLDATASIZE SUB DUP2 ADD SWAP1 PUSH2 0x128 SWAP2 SWAP1 PUSH2 0x92B JUMP JUMPDEST PUSH2 0x2D2 JUMP JUMPDEST PUSH1 0x40 MLOAD PUSH2 0x13A SWAP2 SWAP1 PUSH2 0xAAC JUMP JUMPDEST PUSH1 0x40 MLOAD DUP1 SWAP2 SUB SWAP1 RETURN JUMPDEST PUSH2 0x14B PUSH2 0x37E JUMP JUMPDEST PUSH1 0x40 MLOAD PUSH2 0x158 SWAP2 SWAP1 PUSH2 0xB0E JUMP JUMPDEST PUSH1 0x40 MLOAD DUP1 SWAP2 SUB SWAP1 RETURN JUMPDEST PUSH2 0x17B PUSH1 0x4 DUP1 CALLDATASIZE SUB DUP2 ADD SWAP1 PUSH2 0x176 SWAP2 SWAP1 PUSH2 0x8E2 JUMP JUMPDEST PUSH2 0x384 JUMP JUMPDEST PUSH1 0x40 MLOAD PUSH2 0x188 SWAP2 SWAP1 PUSH2 0xB0E JUMP JUMPDEST PUSH1 0x40 MLOAD DUP1 SWAP2 SUB SWAP1 RETURN JUMPDEST PUSH2 0x199 PUSH2 0x49C JUMP JUMPDEST PUSH1 0x40 MLOAD PUSH2 0x1A6 SWAP2 SWAP1 PUSH2 0xA76 JUMP JUMPDEST PUSH1 0x40 MLOAD DUP1 SWAP2 SUB SWAP1 RETURN JUMPDEST PUSH2 0x1B7 PUSH2 0x4AF JUMP JUMPDEST STOP JUMPDEST PUSH2 0x1D3 PUSH1 0x4 DUP1 CALLDATASIZE SUB DUP2 ADD SWAP1 PUSH2 0x1CE SWAP2 SWAP1 PUSH2 0x92B JUMP JUMPDEST PUSH2 0x534 JUMP JUMPDEST STOP JUMPDEST PUSH2 0x1EF PUSH1 0x4 DUP1 CALLDATASIZE SUB DUP2 ADD SWAP1 PUSH2 0x1EA SWAP2 SWAP1 PUSH2 0x8E2 JUMP JUMPDEST PUSH2 0x5A3 JUMP JUMPDEST STOP JUMPDEST PUSH2 0x20B PUSH1 0x4 DUP1 CALLDATASIZE SUB DUP2 ADD SWAP1 PUSH2 0x206 SWAP2 SWAP1 PUSH2 0x8E2 JUMP JUMPDEST PUSH2 0x724 JUMP JUMPDEST STOP JUMPDEST PUSH2 0x215 PUSH2 0x796 JUMP JUMPDEST PUSH1 0x40 MLOAD PUSH2 0x222 SWAP2 SWAP1 PUSH2 0xA5B JUMP JUMPDEST PUSH1 0x40 MLOAD DUP1 SWAP2 SUB SWAP1 RETURN JUMPDEST PUSH1 0x4 SLOAD DUP2 JUMP JUMPDEST PUSH1 0x1 DUP1 SLOAD PUSH2 0x23E SWAP1 PUSH2 0xCC4 JUMP JUMPDEST DUP1 PUSH1 0x1F ADD PUSH1 0x20 DUP1 SWAP2 DIV MUL PUSH1 0x20 ADD PUSH1 0x40 MLOAD SWAP1 DUP2 ADD PUSH1 0x40 MSTORE DUP1 SWAP3 SWAP2 SWAP1 DUP2 DUP2 MSTORE PUSH1 0x20 ADD DUP3 DUP1 SLOAD PUSH2 0x26A SWAP1 PUSH2 0xCC4 JUMP JUMPDEST DUP1 ISZERO PUSH2 0x2B7 JUMPI DUP1 PUSH1 0x1F LT PUSH2 0x28C JUMPI PUSH2 0x100 DUP1 DUP4 SLOAD DIV MUL DUP4 MSTORE SWAP2 PUSH1 0x20 ADD SWAP2 PUSH2 0x2B7 JUMP JUMPDEST DUP3 ADD SWAP2 SWAP1 PUSH1 0x0 MSTORE PUSH1 0x20 PUSH1 0x0 KECCAK256 SWAP1 JUMPDEST DUP2 SLOAD DUP2 MSTORE SWAP1 PUSH1 0x1 ADD SWAP1 PUSH1 0x20 ADD DUP1 DUP4 GT PUSH2 0x29A JUMPI DUP3 SWAP1 SUB PUSH1 0x1F AND DUP3 ADD SWAP2 JUMPDEST POP POP POP POP POP DUP2 JUMP JUMPDEST PUSH1 0x5 PUSH1 0x0 SWAP1 SLOAD SWAP1 PUSH2 0x100 EXP SWAP1 DIV PUSH1 0xFF AND DUP2 JUMP JUMPDEST PUSH1 0x2 DUP2 DUP2 SLOAD DUP2 LT PUSH2 0x2E2 JUMPI PUSH1 0x0 DUP1 REVERT JUMPDEST SWAP1 PUSH1 0x0 MSTORE PUSH1 0x20 PUSH1 0x0 KECCAK256 ADD PUSH1 0x0 SWAP2 POP SWAP1 POP DUP1 SLOAD PUSH2 0x2FD SWAP1 PUSH2 0xCC4 JUMP JUMPDEST DUP1 PUSH1 0x1F ADD PUSH1 0x20 DUP1 SWAP2 DIV MUL PUSH1 0x20 ADD PUSH1 0x40 MLOAD SWAP1 DUP2 ADD PUSH1 0x40 MSTORE DUP1 SWAP3 SWAP2 SWAP1 DUP2 DUP2 MSTORE PUSH1 0x20 ADD DUP3 DUP1 SLOAD PUSH2 0x329 SWAP1 PUSH2 0xCC4 JUMP JUMPDEST DUP1 ISZERO PUSH2 0x376 JUMPI DUP1 PUSH1 0x1F LT PUSH2 0x34B JUMPI PUSH2 0x100 DUP1 DUP4 SLOAD DIV MUL DUP4 MSTORE SWAP2 PUSH1 0x20 ADD SWAP2 PUSH2 0x376 JUMP JUMPDEST DUP3 ADD SWAP2 SWAP1 PUSH1 0x0 MSTORE PUSH1 0x20 PUSH1 0x0 KECCAK256 SWAP1 JUMPDEST DUP2 SLOAD DUP2 MSTORE SWAP1 PUSH1 0x1 ADD SWAP1 PUSH1 0x20 ADD DUP1 DUP4 GT PUSH2 0x359 JUMPI DUP3 SWAP1 SUB PUSH1 0x1F AND DUP3 ADD SWAP2 JUMPDEST POP POP POP POP POP DUP2 JUMP JUMPDEST PUSH1 0x3 SLOAD DUP2 JUMP JUMPDEST PUSH1 0x0 PUSH1 0x1 DUP1 DUP2 GT ISZERO PUSH2 0x399 JUMPI PUSH2 0x398 PUSH2 0xD56 JUMP JUMPDEST JUMPDEST PUSH1 0x5 PUSH1 0x0 SWAP1 SLOAD SWAP1 PUSH2 0x100 EXP SWAP1 DIV PUSH1 0xFF AND PUSH1 0x1 DUP2 GT ISZERO PUSH2 0x3BB JUMPI PUSH2 0x3BA PUSH2 0xD56 JUMP JUMPDEST JUMPDEST EQ ISZERO PUSH2 0x475 JUMPI CALLER PUSH20 0xFFFFFFFFFFFFFFFFFFFFFFFFFFFFFFFFFFFFFFFF AND PUSH1 0x0 DUP1 SLOAD SWAP1 PUSH2 0x100 EXP SWAP1 DIV PUSH20 0xFFFFFFFFFFFFFFFFFFFFFFFFFFFFFFFFFFFFFFFF AND PUSH20 0xFFFFFFFFFFFFFFFFFFFFFFFFFFFFFFFFFFFFFFFF AND EQ PUSH2 0x44F JUMPI PUSH1 0x40 MLOAD PUSH32 0x8C379A000000000000000000000000000000000000000000000000000000000 DUP2 MSTORE PUSH1 0x4 ADD PUSH2 0x446 SWAP1 PUSH2 0xACE JUMP JUMPDEST PUSH1 0x40 MLOAD DUP1 SWAP2 SUB SWAP1 REVERT JUMPDEST PUSH1 0x7 DUP3 PUSH1 0x40 MLOAD PUSH2 0x45F SWAP2 SWAP1 PUSH2 0xA44 JUMP JUMPDEST SWAP1 DUP2 MSTORE PUSH1 0x20 ADD PUSH1 0x40 MLOAD DUP1 SWAP2 SUB SWAP1 KECCAK256 SLOAD SWAP1 POP PUSH2 0x497 JUMP JUMPDEST PUSH1 0x7 DUP3 PUSH1 0x40 MLOAD PUSH2 0x485 SWAP2 SWAP1 PUSH2 0xA44 JUMP JUMPDEST SWAP1 DUP2 MSTORE PUSH1 0x20 ADD PUSH1 0x40 MLOAD DUP1 SWAP2 SUB SWAP1 KECCAK256 SLOAD SWAP1 POP JUMPDEST SWAP2 SWAP1 POP JUMP JUMPDEST PUSH1 0x5 PUSH1 0x1 SWAP1 SLOAD SWAP1 PUSH2 0x100 EXP SWAP1 DIV PUSH1 0xFF AND DUP2 JUMP JUMPDEST CALLER PUSH20 0xFFFFFFFFFFFFFFFFFFFFFFFFFFFFFFFFFFFFFFFF AND PUSH1 0x0 DUP1 SLOAD SWAP1 PUSH2 0x100 EXP SWAP1 DIV PUSH20 0xFFFFFFFFFFFFFFFFFFFFFFFFFFFFFFFFFFFFFFFF AND PUSH20 0xFFFFFFFFFFFFFFFFFFFFFFFFFFFFFFFFFFFFFFFF AND EQ PUSH2 0x507 JUMPI PUSH1 0x0 DUP1 REVERT JUMPDEST PUSH1 0x2 PUSH1 0x5 PUSH1 0x1 PUSH2 0x100 EXP DUP2 SLOAD DUP2 PUSH1 0xFF MUL NOT AND SWAP1 DUP4 PUSH1 0x3 DUP2 GT ISZERO PUSH2 0x52D JUMPI PUSH2 0x52C PUSH2 0xD56 JUMP JUMPDEST JUMPDEST MUL OR SWAP1 SSTORE POP JUMP JUMPDEST CALLER PUSH20 0xFFFFFFFFFFFFFFFFFFFFFFFFFFFFFFFFFFFFFFFF AND PUSH1 0x0 DUP1 SLOAD SWAP1 PUSH2 0x100 EXP SWAP1 DIV PUSH20 0xFFFFFFFFFFFFFFFFFFFFFFFFFFFFFFFFFFFFFFFF AND PUSH20 0xFFFFFFFFFFFFFFFFFFFFFFFFFFFFFFFFFFFFFFFF AND EQ PUSH2 0x58C JUMPI PUSH1 0x0 DUP1 REVERT JUMPDEST DUP1 PUSH1 0x4 SLOAD PUSH2 0x59A SWAP2 SWAP1 PUSH2 0xBA6 JUMP JUMPDEST PUSH1 0x4 DUP2 SWAP1 SSTORE POP POP JUMP JUMPDEST PUSH1 0x4 SLOAD NUMBER LT PUSH2 0x5B1 JUMPI PUSH1 0x0 DUP1 REVERT JUMPDEST PUSH1 0x3 SLOAD NUMBER GT PUSH2 0x5BF JUMPI PUSH1 0x0 DUP1 REVERT JUMPDEST PUSH1 0x2 PUSH1 0x3 DUP2 GT ISZERO PUSH2 0x5D3 JUMPI PUSH2 0x5D2 PUSH2 0xD56 JUMP JUMPDEST JUMPDEST PUSH1 0x5 PUSH1 0x1 SWAP1 SLOAD SWAP1 PUSH2 0x100 EXP SWAP1 DIV PUSH1 0xFF AND PUSH1 0x3 DUP2 GT ISZERO PUSH2 0x5F5 JUMPI PUSH2 0x5F4 PUSH2 0xD56 JUMP JUMPDEST JUMPDEST EQ ISZERO PUSH2 0x600 JUMPI PUSH1 0x0 DUP1 REVERT JUMPDEST PUSH1 0x0 CALLER SWAP1 POP PUSH1 0x6 PUSH1 0x0 DUP3 PUSH20 0xFFFFFFFFFFFFFFFFFFFFFFFFFFFFFFFFFFFFFFFF AND PUSH20 0xFFFFFFFFFFFFFFFFFFFFFFFFFFFFFFFFFFFFFFFF AND DUP2 MSTORE PUSH1 0x20 ADD SWAP1 DUP2 MSTORE PUSH1 0x20 ADD PUSH1 0x0 KECCAK256 PUSH1 0x0 SWAP1 SLOAD SWAP1 PUSH2 0x100 EXP SWAP1 DIV PUSH1 0xFF AND ISZERO PUSH2 0x692 JUMPI PUSH1 0x40 MLOAD PUSH32 0x8C379A000000000000000000000000000000000000000000000000000000000 DUP2 MSTORE PUSH1 0x4 ADD PUSH2 0x689 SWAP1 PUSH2 0xAEE JUMP JUMPDEST PUSH1 0x40 MLOAD DUP1 SWAP2 SUB SWAP1 REVERT JUMPDEST PUSH1 0x1 PUSH1 0x6 PUSH1 0x0 DUP4 PUSH20 0xFFFFFFFFFFFFFFFFFFFFFFFFFFFFFFFFFFFFFFFF AND PUSH20 0xFFFFFFFFFFFFFFFFFFFFFFFFFFFFFFFFFFFFFFFF AND DUP2 MSTORE PUSH1 0x20 ADD SWAP1 DUP2 MSTORE PUSH1 0x20 ADD PUSH1 0x0 KECCAK256 PUSH1 0x0 PUSH2 0x100 EXP DUP2 SLOAD DUP2 PUSH1 0xFF MUL NOT AND SWAP1 DUP4 ISZERO ISZERO MUL OR SWAP1 SSTORE POP PUSH1 0x1 PUSH1 0x7 DUP4 PUSH1 0x40 MLOAD PUSH2 0x6FC SWAP2 SWAP1 PUSH2 0xA44 JUMP JUMPDEST SWAP1 DUP2 MSTORE PUSH1 0x20 ADD PUSH1 0x40 MLOAD DUP1 SWAP2 SUB SWAP1 KECCAK256 PUSH1 0x0 DUP3 DUP3 SLOAD PUSH2 0x719 SWAP2 SWAP1 PUSH2 0xBA6 JUMP JUMPDEST SWAP3 POP POP DUP2 SWAP1 SSTORE POP POP POP JUMP JUMPDEST CALLER PUSH20 0xFFFFFFFFFFFFFFFFFFFFFFFFFFFFFFFFFFFFFFFF AND PUSH1 0x0 DUP1 SLOAD SWAP1 PUSH2 0x100 EXP SWAP1 DIV PUSH20 0xFFFFFFFFFFFFFFFFFFFFFFFFFFFFFFFFFFFFFFFF AND PUSH20 0xFFFFFFFFFFFFFFFFFFFFFFFFFFFFFFFFFFFFFFFF AND EQ PUSH2 0x77C JUMPI PUSH1 0x0 DUP1 REVERT JUMPDEST DUP1 PUSH1 0x1 SWAP1 DUP1 MLOAD SWAP1 PUSH1 0x20 ADD SWAP1 PUSH2 0x792 SWAP3 SWAP2 SWAP1 PUSH2 0x7BA JUMP JUMPDEST POP POP JUMP JUMPDEST PUSH1 0x0 DUP1 SLOAD SWAP1 PUSH2 0x100 EXP SWAP1 DIV PUSH20 0xFFFFFFFFFFFFFFFFFFFFFFFFFFFFFFFFFFFFFFFF AND DUP2 JUMP JUMPDEST DUP3 DUP1 SLOAD PUSH2 0x7C6 SWAP1 PUSH2 0xCC4 JUMP JUMPDEST SWAP1 PUSH1 0x0 MSTORE PUSH1 0x20 PUSH1 0x0 KECCAK256 SWAP1 PUSH1 0x1F ADD PUSH1 0x20 SWAP1 DIV DUP2 ADD SWAP3 DUP3 PUSH2 0x7E8 JUMPI PUSH1 0x0 DUP6 SSTORE PUSH2 0x82F JUMP JUMPDEST DUP3 PUSH1 0x1F LT PUSH2 0x801 JUMPI DUP1 MLOAD PUSH1 0xFF NOT AND DUP4 DUP1 ADD OR DUP6 SSTORE PUSH2 0x82F JUMP JUMPDEST DUP3 DUP1 ADD PUSH1 0x1 ADD DUP6 SSTORE DUP3 ISZERO PUSH2 0x82F JUMPI SWAP2 DUP3 ADD JUMPDEST DUP3 DUP2 GT ISZERO PUSH2 0x82E JUMPI DUP3 MLOAD DUP3 SSTORE SWAP2 PUSH1 0x20 ADD SWAP2 SWAP1 PUSH1 0x1 ADD SWAP1 PUSH2 0x813 JUMP JUMPDEST JUMPDEST POP SWAP1 POP PUSH2 0x83C SWAP2 SWAP1 PUSH2 0x840 JUMP JUMPDEST POP SWAP1 JUMP JUMPDEST JUMPDEST DUP1 DUP3 GT ISZERO PUSH2 0x859 JUMPI PUSH1 0x0 DUP2 PUSH1 0x0 SWAP1 SSTORE POP PUSH1 0x1 ADD PUSH2 0x841 JUMP JUMPDEST POP SWAP1 JUMP JUMPDEST PUSH1 0x0 PUSH2 0x870 PUSH2 0x86B DUP5 PUSH2 0xB4E JUMP JUMPDEST PUSH2 0xB29 JUMP JUMPDEST SWAP1 POP DUP3 DUP2 MSTORE PUSH1 0x20 DUP2 ADD DUP5 DUP5 DUP5 ADD GT ISZERO PUSH2 0x88C JUMPI PUSH2 0x88B PUSH2 0xDE8 JUMP JUMPDEST JUMPDEST PUSH2 0x897 DUP5 DUP3 DUP6 PUSH2 0xC82 JUMP JUMPDEST POP SWAP4 SWAP3 POP POP POP JUMP JUMPDEST PUSH1 0x0 DUP3 PUSH1 0x1F DUP4 ADD SLT PUSH2 0x8B4 JUMPI PUSH2 0x8B3 PUSH2 0xDE3 JUMP JUMPDEST JUMPDEST DUP2 CALLDATALOAD PUSH2 0x8C4 DUP5 DUP3 PUSH1 0x20 DUP7 ADD PUSH2 0x85D JUMP JUMPDEST SWAP2 POP POP SWAP3 SWAP2 POP POP JUMP JUMPDEST PUSH1 0x0 DUP2 CALLDATALOAD SWAP1 POP PUSH2 0x8DC DUP2 PUSH2 0xE82 JUMP JUMPDEST SWAP3 SWAP2 POP POP JUMP JUMPDEST PUSH1 0x0 PUSH1 0x20 DUP3 DUP5 SUB SLT ISZERO PUSH2 0x8F8 JUMPI PUSH2 0x8F7 PUSH2 0xDF2 JUMP JUMPDEST JUMPDEST PUSH1 0x0 DUP3 ADD CALLDATALOAD PUSH8 0xFFFFFFFFFFFFFFFF DUP2 GT ISZERO PUSH2 0x916 JUMPI PUSH2 0x915 PUSH2 0xDED JUMP JUMPDEST JUMPDEST PUSH2 0x922 DUP5 DUP3 DUP6 ADD PUSH2 0x89F JUMP JUMPDEST SWAP2 POP POP SWAP3 SWAP2 POP POP JUMP JUMPDEST PUSH1 0x0 PUSH1 0x20 DUP3 DUP5 SUB SLT ISZERO PUSH2 0x941 JUMPI PUSH2 0x940 PUSH2 0xDF2 JUMP JUMPDEST JUMPDEST PUSH1 0x0 PUSH2 0x94F DUP5 DUP3 DUP6 ADD PUSH2 0x8CD JUMP JUMPDEST SWAP2 POP POP SWAP3 SWAP2 POP POP JUMP JUMPDEST PUSH2 0x961 DUP2 PUSH2 0xBFC JUMP JUMPDEST DUP3 MSTORE POP POP JUMP JUMPDEST PUSH2 0x970 DUP2 PUSH2 0xC5E JUMP JUMPDEST DUP3 MSTORE POP POP JUMP JUMPDEST PUSH2 0x97F DUP2 PUSH2 0xC70 JUMP JUMPDEST DUP3 MSTORE POP POP JUMP JUMPDEST PUSH1 0x0 PUSH2 0x990 DUP3 PUSH2 0xB7F JUMP JUMPDEST PUSH2 0x99A DUP2 DUP6 PUSH2 0xB8A JUMP JUMPDEST SWAP4 POP PUSH2 0x9AA DUP2 DUP6 PUSH1 0x20 DUP7 ADD PUSH2 0xC91 JUMP JUMPDEST PUSH2 0x9B3 DUP2 PUSH2 0xDF7 JUMP JUMPDEST DUP5 ADD SWAP2 POP POP SWAP3 SWAP2 POP POP JUMP JUMPDEST PUSH1 0x0 PUSH2 0x9C9 DUP3 PUSH2 0xB7F JUMP JUMPDEST PUSH2 0x9D3 DUP2 DUP6 PUSH2 0xB9B JUMP JUMPDEST SWAP4 POP PUSH2 0x9E3 DUP2 DUP6 PUSH1 0x20 DUP7 ADD PUSH2 0xC91 JUMP JUMPDEST DUP1 DUP5 ADD SWAP2 POP POP SWAP3 SWAP2 POP POP JUMP JUMPDEST PUSH1 0x0 PUSH2 0x9FC PUSH1 0x17 DUP4 PUSH2 0xB8A JUMP JUMPDEST SWAP2 POP PUSH2 0xA07 DUP3 PUSH2 0xE08 JUMP JUMPDEST PUSH1 0x20 DUP3 ADD SWAP1 POP SWAP2 SWAP1 POP JUMP JUMPDEST PUSH1 0x0 PUSH2 0xA1F PUSH1 0x17 DUP4 PUSH2 0xB8A JUMP JUMPDEST SWAP2 POP PUSH2 0xA2A DUP3 PUSH2 0xE31 JUMP JUMPDEST PUSH1 0x20 DUP3 ADD SWAP1 POP SWAP2 SWAP1 POP JUMP JUMPDEST PUSH2 0xA3E DUP2 PUSH2 0xC54 JUMP JUMPDEST DUP3 MSTORE POP POP JUMP JUMPDEST PUSH1 0x0 PUSH2 0xA50 DUP3 DUP5 PUSH2 0x9BE JUMP JUMPDEST SWAP2 POP DUP2 SWAP1 POP SWAP3 SWAP2 POP POP JUMP JUMPDEST PUSH1 0x0 PUSH1 0x20 DUP3 ADD SWAP1 POP PUSH2 0xA70 PUSH1 0x0 DUP4 ADD DUP5 PUSH2 0x958 JUMP JUMPDEST SWAP3 SWAP2 POP POP JUMP JUMPDEST PUSH1 0x0 PUSH1 0x20 DUP3 ADD SWAP1 POP PUSH2 0xA8B PUSH1 0x0 DUP4 ADD DUP5 PUSH2 0x967 JUMP JUMPDEST SWAP3 SWAP2 POP POP JUMP JUMPDEST PUSH1 0x0 PUSH1 0x20 DUP3 ADD SWAP1 POP PUSH2 0xAA6 PUSH1 0x0 DUP4 ADD DUP5 PUSH2 0x976 JUMP JUMPDEST SWAP3 SWAP2 POP POP JUMP JUMPDEST PUSH1 0x0 PUSH1 0x20 DUP3 ADD SWAP1 POP DUP2 DUP2 SUB PUSH1 0x0 DUP4 ADD MSTORE PUSH2 0xAC6 DUP2 DUP5 PUSH2 0x985 JUMP JUMPDEST SWAP1 POP SWAP3 SWAP2 POP POP JUMP JUMPDEST PUSH1 0x0 PUSH1 0x20 DUP3 ADD SWAP1 POP DUP2 DUP2 SUB PUSH1 0x0 DUP4 ADD MSTORE PUSH2 0xAE7 DUP2 PUSH2 0x9EF JUMP JUMPDEST SWAP1 POP SWAP2 SWAP1 POP JUMP JUMPDEST PUSH1 0x0 PUSH1 0x20 DUP3 ADD SWAP1 POP DUP2 DUP2 SUB PUSH1 0x0 DUP4 ADD MSTORE PUSH2 0xB07 DUP2 PUSH2 0xA12 JUMP JUMPDEST SWAP1 POP SWAP2 SWAP1 POP JUMP JUMPDEST PUSH1 0x0 PUSH1 0x20 DUP3 ADD SWAP1 POP PUSH2 0xB23 PUSH1 0x0 DUP4 ADD DUP5 PUSH2 0xA35 JUMP JUMPDEST SWAP3 SWAP2 POP POP JUMP JUMPDEST PUSH1 0x0 PUSH2 0xB33 PUSH2 0xB44 JUMP JUMPDEST SWAP1 POP PUSH2 0xB3F DUP3 DUP3 PUSH2 0xCF6 JUMP JUMPDEST SWAP2 SWAP1 POP JUMP JUMPDEST PUSH1 0x0 PUSH1 0x40 MLOAD SWAP1 POP SWAP1 JUMP JUMPDEST PUSH1 0x0 PUSH8 0xFFFFFFFFFFFFFFFF DUP3 GT ISZERO PUSH2 0xB69 JUMPI PUSH2 0xB68 PUSH2 0xDB4 JUMP JUMPDEST JUMPDEST PUSH2 0xB72 DUP3 PUSH2 0xDF7 JUMP JUMPDEST SWAP1 POP PUSH1 0x20 DUP2 ADD SWAP1 POP SWAP2 SWAP1 POP JUMP JUMPDEST PUSH1 0x0 DUP2 MLOAD SWAP1 POP SWAP2 SWAP1 POP JUMP JUMPDEST PUSH1 0x0 DUP3 DUP3 MSTORE PUSH1 0x20 DUP3 ADD SWAP1 POP SWAP3 SWAP2 POP POP JUMP JUMPDEST PUSH1 0x0 DUP2 SWAP1 POP SWAP3 SWAP2 POP POP JUMP JUMPDEST PUSH1 0x0 PUSH2 0xBB1 DUP3 PUSH2 0xC54 JUMP JUMPDEST SWAP2 POP PUSH2 0xBBC DUP4 PUSH2 0xC54 JUMP JUMPDEST SWAP3 POP DUP3 PUSH32 0xFFFFFFFFFFFFFFFFFFFFFFFFFFFFFFFFFFFFFFFFFFFFFFFFFFFFFFFFFFFFFFFF SUB DUP3 GT ISZERO PUSH2 0xBF1 JUMPI PUSH2 0xBF0 PUSH2 0xD27 JUMP JUMPDEST JUMPDEST DUP3 DUP3 ADD SWAP1 POP SWAP3 SWAP2 POP POP JUMP JUMPDEST PUSH1 0x0 PUSH2 0xC07 DUP3 PUSH2 0xC34 JUMP JUMPDEST SWAP1 POP SWAP2 SWAP1 POP JUMP JUMPDEST PUSH1 0x0 DUP2 SWAP1 POP PUSH2 0xC1C DUP3 PUSH2 0xE5A JUMP JUMPDEST SWAP2 SWAP1 POP JUMP JUMPDEST PUSH1 0x0 DUP2 SWAP1 POP PUSH2 0xC2F DUP3 PUSH2 0xE6E JUMP JUMPDEST SWAP2 SWAP1 POP JUMP JUMPDEST PUSH1 0x0 PUSH20 0xFFFFFFFFFFFFFFFFFFFFFFFFFFFFFFFFFFFFFFFF DUP3 AND SWAP1 POP SWAP2 SWAP1 POP JUMP JUMPDEST PUSH1 0x0 DUP2 SWAP1 POP SWAP2 SWAP1 POP JUMP JUMPDEST PUSH1 0x0 PUSH2 0xC69 DUP3 PUSH2 0xC0E JUMP JUMPDEST SWAP1 POP SWAP2 SWAP1 POP JUMP JUMPDEST PUSH1 0x0 PUSH2 0xC7B DUP3 PUSH2 0xC21 JUMP JUMPDEST SWAP1 POP SWAP2 SWAP1 POP JUMP JUMPDEST DUP3 DUP2 DUP4 CALLDATACOPY PUSH1 0x0 DUP4 DUP4 ADD MSTORE POP POP POP JUMP JUMPDEST PUSH1 0x0 JUMPDEST DUP4 DUP2 LT ISZERO PUSH2 0xCAF JUMPI DUP1 DUP3 ADD MLOAD DUP2 DUP5 ADD MSTORE PUSH1 0x20 DUP2 ADD SWAP1 POP PUSH2 0xC94 JUMP JUMPDEST DUP4 DUP2 GT ISZERO PUSH2 0xCBE JUMPI PUSH1 0x0 DUP5 DUP5 ADD MSTORE JUMPDEST POP POP POP POP JUMP JUMPDEST PUSH1 0x0 PUSH1 0x2 DUP3 DIV SWAP1 POP PUSH1 0x1 DUP3 AND DUP1 PUSH2 0xCDC JUMPI PUSH1 0x7F DUP3 AND SWAP2 POP JUMPDEST PUSH1 0x20 DUP3 LT DUP2 EQ ISZERO PUSH2 0xCF0 JUMPI PUSH2 0xCEF PUSH2 0xD85 JUMP JUMPDEST JUMPDEST POP SWAP2 SWAP1 POP JUMP JUMPDEST PUSH2 0xCFF DUP3 PUSH2 0xDF7 JUMP JUMPDEST DUP2 ADD DUP2 DUP2 LT PUSH8 0xFFFFFFFFFFFFFFFF DUP3 GT OR ISZERO PUSH2 0xD1E JUMPI PUSH2 0xD1D PUSH2 0xDB4 JUMP JUMPDEST JUMPDEST DUP1 PUSH1 0x40 MSTORE POP POP POP JUMP JUMPDEST PUSH32 0x4E487B7100000000000000000000000000000000000000000000000000000000 PUSH1 0x0 MSTORE PUSH1 0x11 PUSH1 0x4 MSTORE PUSH1 0x24 PUSH1 0x0 REVERT JUMPDEST PUSH32 0x4E487B7100000000000000000000000000000000000000000000000000000000 PUSH1 0x0 MSTORE PUSH1 0x21 PUSH1 0x4 MSTORE PUSH1 0x24 PUSH1 0x0 REVERT JUMPDEST PUSH32 0x4E487B7100000000000000000000000000000000000000000000000000000000 PUSH1 0x0 MSTORE PUSH1 0x22 PUSH1 0x4 MSTORE PUSH1 0x24 PUSH1 0x0 REVERT JUMPDEST PUSH32 0x4E487B7100000000000000000000000000000000000000000000000000000000 PUSH1 0x0 MSTORE PUSH1 0x41 PUSH1 0x4 MSTORE PUSH1 0x24 PUSH1 0x0 REVERT JUMPDEST PUSH1 0x0 DUP1 REVERT JUMPDEST PUSH1 0x0 DUP1 REVERT JUMPDEST PUSH1 0x0 DUP1 REVERT JUMPDEST PUSH1 0x0 DUP1 REVERT JUMPDEST PUSH1 0x0 PUSH1 0x1F NOT PUSH1 0x1F DUP4 ADD AND SWAP1 POP SWAP2 SWAP1 POP JUMP JUMPDEST PUSH32 0x546869732069732061207072697661746520706F6C6C2E000000000000000000 PUSH1 0x0 DUP3 ADD MSTORE POP JUMP JUMPDEST PUSH32 0x596F75206861766520616C726561647920766F74656421000000000000000000 PUSH1 0x0 DUP3 ADD MSTORE POP JUMP JUMPDEST PUSH1 0x4 DUP2 LT PUSH2 0xE6B JUMPI PUSH2 0xE6A PUSH2 0xD56 JUMP JUMPDEST JUMPDEST POP JUMP JUMPDEST PUSH1 0x2 DUP2 LT PUSH2 0xE7F JUMPI PUSH2 0xE7E PUSH2 0xD56 JUMP JUMPDEST JUMPDEST POP JUMP JUMPDEST PUSH2 0xE8B DUP2 PUSH2 0xC54 JUMP JUMPDEST DUP2 EQ PUSH2 0xE96 JUMPI PUSH1 0x0 DUP1 REVERT JUMPDEST POP JUMP INVALID LOG2 PUSH5 0x6970667358 0x22 SLT KECCAK256 ADDRESS 0xB9 0xB9 STATICCALL 0xD 0xDD 0xBF STATICCALL 0xB2 0xE0 GASLIMIT 0xF GT SWAP1 0x2F KECCAK256 EXTCODEHASH SWAP15 STATICCALL 0xAE 0xC5 0xE2 GT 0xB0 0x5F SSTORE PUSH30 0x89FAA1DACC64736F6C63430008070033A2646970667358221220B34B2BE7 PUSH11 0xED4A3A1DF05634FA724D33 PUSH31 0xD60043D4C5EA9CFFFA08FB46900E3F64736F6C634300080700330000000000 "
				},
				"gasEstimates": {
					"creation": {
						"codeDepositCost": "1850000",
						"executionCost": "26221",
						"totalCost": "1876221"
					},
					"external": {
						"createPoll(string,uint256,string[],string)": "infinite",
						"getPreviousPolls()": "infinite",
						"owner()": "2489"
					}
				},
				"methodIdentifiers": {
					"createPoll(string,uint256,string[],string)": "a6c48b82",
					"getPreviousPolls()": "f68673c2",
					"owner()": "8da5cb5b"
				}
			},
			"storageLayout": {
				"storage": [
					{
						"astId": 3,
						"contract": "contracts/pollio.sol:PollIO",
						"label": "owner",
						"offset": 0,
						"slot": "0",
						"type": "t_address_payable"
					},
					{
						"astId": 9,
						"contract": "contracts/pollio.sol:PollIO",
						"label": "db",
						"offset": 0,
						"slot": "1",
						"type": "t_mapping(t_address,t_array(t_contract(Poll)345)dyn_storage)"
					}
				],
				"types": {
					"t_address": {
						"encoding": "inplace",
						"label": "address",
						"numberOfBytes": "20"
					},
					"t_address_payable": {
						"encoding": "inplace",
						"label": "address payable",
						"numberOfBytes": "20"
					},
					"t_array(t_contract(Poll)345)dyn_storage": {
						"base": "t_contract(Poll)345",
						"encoding": "dynamic_array",
						"label": "contract Poll[]",
						"numberOfBytes": "32"
					},
					"t_contract(Poll)345": {
						"encoding": "inplace",
						"label": "contract Poll",
						"numberOfBytes": "20"
					},
					"t_mapping(t_address,t_array(t_contract(Poll)345)dyn_storage)": {
						"encoding": "mapping",
						"key": "t_address",
						"label": "mapping(address => contract Poll[])",
						"numberOfBytes": "32",
						"value": "t_array(t_contract(Poll)345)dyn_storage"
					}
				}
			},
			"userdoc": {
				"kind": "user",
				"methods": {},
				"version": 1
			}
		}
	}
}