{
	"contracts/pollio.sol": {
		"Poll": {
			"abi": [
				{
					"inputs": [
						{
							"internalType": "address",
							"name": "eoa",
							"type": "address"
						},
						{
							"internalType": "string",
							"name": "_pollName",
							"type": "string"
						},
						{
							"internalType": "uint256",
							"name": "pollDuration",
							"type": "uint256"
						},
						{
							"internalType": "string[]",
							"name": "_candidates",
							"type": "string[]"
						},
						{
							"internalType": "string",
							"name": "_pollType",
							"type": "string"
						}
					],
					"stateMutability": "nonpayable",
					"type": "constructor"
				},
				{
					"inputs": [],
					"name": "cancelPoll",
					"outputs": [],
					"stateMutability": "nonpayable",
					"type": "function"
				},
				{
					"inputs": [],
					"name": "endBlock",
					"outputs": [
						{
							"internalType": "uint256",
							"name": "",
							"type": "uint256"
						}
					],
					"stateMutability": "view",
					"type": "function"
				},
				{
					"inputs": [],
					"name": "endPoll",
					"outputs": [],
					"stateMutability": "nonpayable",
					"type": "function"
				},
				{
					"inputs": [],
					"name": "getPollType",
					"outputs": [
						{
							"internalType": "string",
							"name": "",
							"type": "string"
						}
					],
					"stateMutability": "view",
					"type": "function"
				},
				{
					"inputs": [
						{
							"internalType": "string",
							"name": "candidate",
							"type": "string"
						}
					],
					"name": "getResultOf",
					"outputs": [
						{
							"internalType": "uint256",
							"name": "",
							"type": "uint256"
						}
					],
					"stateMutability": "view",
					"type": "function"
				},
				{
					"inputs": [
						{
							"internalType": "uint256",
							"name": "pollDuration",
							"type": "uint256"
						}
					],
					"name": "increasePollDuration",
					"outputs": [],
					"stateMutability": "nonpayable",
					"type": "function"
				},
				{
					"inputs": [],
					"name": "org",
					"outputs": [
						{
							"internalType": "address payable",
							"name": "",
							"type": "address"
						}
					],
					"stateMutability": "view",
					"type": "function"
				},
				{
					"inputs": [],
					"name": "pollName",
					"outputs": [
						{
							"internalType": "string",
							"name": "",
							"type": "string"
						}
					],
					"stateMutability": "view",
					"type": "function"
				},
				{
					"inputs": [],
					"name": "pollState",
					"outputs": [
						{
							"internalType": "enum Poll.PollState",
							"name": "",
							"type": "uint8"
						}
					],
					"stateMutability": "view",
					"type": "function"
				},
				{
					"inputs": [],
					"name": "pollType",
					"outputs": [
						{
							"internalType": "enum Poll.PollType",
							"name": "",
							"type": "uint8"
						}
					],
					"stateMutability": "view",
					"type": "function"
				},
				{
					"inputs": [
						{
							"internalType": "string",
							"name": "name",
							"type": "string"
						}
					],
					"name": "renamePoll",
					"outputs": [],
					"stateMutability": "nonpayable",
					"type": "function"
				},
				{
					"inputs": [],
					"name": "startBlock",
					"outputs": [
						{
							"internalType": "uint256",
							"name": "",
							"type": "uint256"
						}
					],
					"stateMutability": "view",
					"type": "function"
				},
				{
					"inputs": [
						{
							"internalType": "string",
							"name": "candidate",
							"type": "string"
						}
					],
					"name": "voteFor",
					"outputs": [],
					"stateMutability": "nonpayable",
					"type": "function"
				}
			],
			"devdoc": {
				"author": "Soumajit Das",
				"kind": "dev",
				"methods": {
					"cancelPoll()": {
						"details": "Change the pollState to PollState.Canceled"
					},
					"constructor": {
						"details": "Creates Poll with given data",
						"params": {
							"_candidates": "The array of the candidate IDs",
							"_pollName": "The name of the poll",
							"_pollType": "The type of the poll (Public/Private)",
							"eoa": "The Org account address",
							"pollDuration": "It counts the average block numbers between the start and end date"
						}
					},
					"endPoll()": {
						"details": "Change the pollState to PollState.Ended"
					},
					"getResultOf(string)": {
						"params": {
							"candidate": "The ID of the candidate whose score we want to get"
						},
						"returns": {
							"_0": "result[candidate] The count of the votes of the candidate"
						}
					},
					"increasePollDuration(uint256)": {
						"params": {
							"pollDuration": "The number of blocks that we want to add with end block to increase the duration"
						}
					},
					"renamePoll(string)": {
						"params": {
							"name": "The new name that the org wants to set for the poll"
						}
					},
					"voteFor(string)": {
						"details": "The address of the voter gets stored in isVoted mappingThe count of the votes of the candidate increases by 1",
						"params": {
							"candidate": "The ID of the candidate whom the voters want to give their vote"
						}
					}
				},
				"title": "The Poll Contract",
				"version": 1
			},
			"evm": {
				"assembly": "    /* \"contracts/pollio.sol\":1518:6572  contract Poll {... */\n  mstore(0x40, 0x80)\n    /* \"contracts/pollio.sol\":2251:3165  constructor (... */\n  callvalue\n  dup1\n  iszero\n  tag_1\n  jumpi\n  0x00\n  dup1\n  revert\ntag_1:\n  pop\n  mload(0x40)\n  sub(codesize, bytecodeSize)\n  dup1\n  bytecodeSize\n  dup4\n  codecopy\n  dup2\n  dup2\n  add\n  0x40\n  mstore\n  dup2\n  add\n  swap1\n  tag_2\n  swap2\n  swap1\n  tag_3\n  jump\t// in\ntag_2:\n    /* \"contracts/pollio.sol\":2448:2451  eoa */\n  dup5\n    /* \"contracts/pollio.sol\":2434:2437  org */\n  0x00\n  dup1\n    /* \"contracts/pollio.sol\":2434:2452  org = payable(eoa) */\n  0x0100\n  exp\n  dup2\n  sload\n  dup2\n  0xffffffffffffffffffffffffffffffffffffffff\n  mul\n  not\n  and\n  swap1\n  dup4\n  0xffffffffffffffffffffffffffffffffffffffff\n  and\n  mul\n  or\n  swap1\n  sstore\n  pop\n    /* \"contracts/pollio.sol\":2473:2482  _pollName */\n  dup4\n    /* \"contracts/pollio.sol\":2462:2470  pollName */\n  0x01\n    /* \"contracts/pollio.sol\":2462:2482  pollName = _pollName */\n  swap1\n  dup1\n  mload\n  swap1\n  0x20\n  add\n  swap1\n  tag_6\n  swap3\n  swap2\n  swap1\n  tag_7\n  jump\t// in\ntag_6:\n  pop\n    /* \"contracts/pollio.sol\":2505:2517  block.number */\n  number\n    /* \"contracts/pollio.sol\":2492:2502  startBlock */\n  0x02\n    /* \"contracts/pollio.sol\":2492:2517  startBlock = block.number */\n  dup2\n  swap1\n  sstore\n  pop\n    /* \"contracts/pollio.sol\":2551:2563  pollDuration */\n  dup3\n    /* \"contracts/pollio.sol\":2538:2548  startBlock */\n  sload(0x02)\n    /* \"contracts/pollio.sol\":2538:2563  startBlock + pollDuration */\n  tag_8\n  swap2\n  swap1\n  tag_9\n  jump\t// in\ntag_8:\n    /* \"contracts/pollio.sol\":2527:2535  endBlock */\n  0x03\n    /* \"contracts/pollio.sol\":2527:2563  endBlock = startBlock + pollDuration */\n  dup2\n  swap1\n  sstore\n  pop\n    /* \"contracts/pollio.sol\":2585:2602  PollState.Running */\n  0x01\n    /* \"contracts/pollio.sol\":2573:2582  pollState */\n  0x04\n  0x01\n    /* \"contracts/pollio.sol\":2573:2602  pollState = PollState.Running */\n  0x0100\n  exp\n  dup2\n  sload\n  dup2\n  0xff\n  mul\n  not\n  and\n  swap1\n  dup4\n  0x03\n  dup2\n  gt\n  iszero\n  tag_10\n  jumpi\n  tag_11\n  tag_12\n  jump\t// in\ntag_11:\ntag_10:\n  mul\n  or\n  swap1\n  sstore\n  pop\n    /* \"contracts/pollio.sol\":2767:2795  abi.encodePacked((\"Public\")) */\n  add(0x20, mload(0x40))\n  tag_13\n  swap1\n  tag_14\n  jump\t// in\ntag_13:\n  mload(0x40)\n  0x20\n  dup2\n  dup4\n  sub\n  sub\n  dup2\n  mstore\n  swap1\n  0x40\n  mstore\n    /* \"contracts/pollio.sol\":2757:2796  keccak256(abi.encodePacked((\"Public\"))) */\n  dup1\n  mload\n  swap1\n  0x20\n  add\n  keccak256\n    /* \"contracts/pollio.sol\":2741:2750  _pollType */\n  dup2\n    /* \"contracts/pollio.sol\":2723:2752  abi.encodePacked((_pollType)) */\n  add(0x20, mload(0x40))\n  tag_15\n  swap2\n  swap1\n  tag_16\n  jump\t// in\ntag_15:\n  mload(0x40)\n  0x20\n  dup2\n  dup4\n  sub\n  sub\n  dup2\n  mstore\n  swap1\n  0x40\n  mstore\n    /* \"contracts/pollio.sol\":2713:2753  keccak256(abi.encodePacked((_pollType))) */\n  dup1\n  mload\n  swap1\n  0x20\n  add\n  keccak256\n    /* \"contracts/pollio.sol\":2713:2796  keccak256(abi.encodePacked((_pollType))) == keccak256(abi.encodePacked((\"Public\"))) */\n  eq\n    /* \"contracts/pollio.sol\":2709:2908  if (keccak256(abi.encodePacked((_pollType))) == keccak256(abi.encodePacked((\"Public\")))) {... */\n  iszero\n  tag_17\n  jumpi\n    /* \"contracts/pollio.sol\":2823:2838  PollType.Public */\n  0x00\n    /* \"contracts/pollio.sol\":2812:2820  pollType */\n  0x04\n  0x00\n    /* \"contracts/pollio.sol\":2812:2838  pollType = PollType.Public */\n  0x0100\n  exp\n  dup2\n  sload\n  dup2\n  0xff\n  mul\n  not\n  and\n  swap1\n  dup4\n  0x01\n  dup2\n  gt\n  iszero\n  tag_18\n  jumpi\n  tag_19\n  tag_12\n  jump\t// in\ntag_19:\ntag_18:\n  mul\n  or\n  swap1\n  sstore\n  pop\n    /* \"contracts/pollio.sol\":2709:2908  if (keccak256(abi.encodePacked((_pollType))) == keccak256(abi.encodePacked((\"Public\")))) {... */\n  jump(tag_20)\ntag_17:\n    /* \"contracts/pollio.sol\":2881:2897  PollType.Private */\n  0x01\n    /* \"contracts/pollio.sol\":2869:2897  pollType == PollType.Private */\n  dup1\n  dup2\n  gt\n  iszero\n  tag_21\n  jumpi\n  tag_22\n  tag_12\n  jump\t// in\ntag_22:\ntag_21:\n    /* \"contracts/pollio.sol\":2869:2877  pollType */\n  0x04\n  0x00\n  swap1\n  sload\n  swap1\n  0x0100\n  exp\n  swap1\n  div\n  0xff\n  and\n    /* \"contracts/pollio.sol\":2869:2897  pollType == PollType.Private */\n  0x01\n  dup2\n  gt\n  iszero\n  tag_23\n  jumpi\n  tag_24\n  tag_12\n  jump\t// in\ntag_24:\ntag_23:\n  pop\n  pop\n    /* \"contracts/pollio.sol\":2709:2908  if (keccak256(abi.encodePacked((_pollType))) == keccak256(abi.encodePacked((\"Public\")))) {... */\ntag_20:\n    /* \"contracts/pollio.sol\":3067:3073  uint i */\n  0x00\n    /* \"contracts/pollio.sol\":3062:3159  for (uint i = 0; i < _candidates.length; i++) {... */\ntag_25:\n    /* \"contracts/pollio.sol\":3083:3094  _candidates */\n  dup3\n    /* \"contracts/pollio.sol\":3083:3101  _candidates.length */\n  mload\n    /* \"contracts/pollio.sol\":3079:3080  i */\n  dup2\n    /* \"contracts/pollio.sol\":3079:3101  i < _candidates.length */\n  lt\n    /* \"contracts/pollio.sol\":3062:3159  for (uint i = 0; i < _candidates.length; i++) {... */\n  iszero\n  tag_26\n  jumpi\n    /* \"contracts/pollio.sol\":3147:3148  0 */\n  0x00\n    /* \"contracts/pollio.sol\":3122:3128  result */\n  0x06\n    /* \"contracts/pollio.sol\":3129:3140  _candidates */\n  dup5\n    /* \"contracts/pollio.sol\":3141:3142  i */\n  dup4\n    /* \"contracts/pollio.sol\":3129:3143  _candidates[i] */\n  dup2\n  mload\n  dup2\n  lt\n  tag_28\n  jumpi\n  tag_29\n  tag_30\n  jump\t// in\ntag_29:\ntag_28:\n  0x20\n  mul\n  0x20\n  add\n  add\n  mload\n    /* \"contracts/pollio.sol\":3122:3144  result[_candidates[i]] */\n  mload(0x40)\n  tag_31\n  swap2\n  swap1\n  tag_16\n  jump\t// in\ntag_31:\n  swap1\n  dup2\n  mstore\n  0x20\n  add\n  mload(0x40)\n  dup1\n  swap2\n  sub\n  swap1\n  keccak256\n    /* \"contracts/pollio.sol\":3122:3148  result[_candidates[i]] = 0 */\n  dup2\n  swap1\n  sstore\n  pop\n    /* \"contracts/pollio.sol\":3103:3106  i++ */\n  dup1\n  dup1\n  tag_32\n  swap1\n  tag_33\n  jump\t// in\ntag_32:\n  swap2\n  pop\n  pop\n    /* \"contracts/pollio.sol\":3062:3159  for (uint i = 0; i < _candidates.length; i++) {... */\n  jump(tag_25)\ntag_26:\n  pop\n    /* \"contracts/pollio.sol\":2251:3165  constructor (... */\n  pop\n  pop\n  pop\n  pop\n  pop\n    /* \"contracts/pollio.sol\":1518:6572  contract Poll {... */\n  jump(tag_34)\ntag_7:\n  dup3\n  dup1\n  sload\n  tag_35\n  swap1\n  tag_36\n  jump\t// in\ntag_35:\n  swap1\n  0x00\n  mstore\n  keccak256(0x00, 0x20)\n  swap1\n  0x1f\n  add\n  0x20\n  swap1\n  div\n  dup2\n  add\n  swap3\n  dup3\n  tag_38\n  jumpi\n  0x00\n  dup6\n  sstore\n  jump(tag_37)\ntag_38:\n  dup3\n  0x1f\n  lt\n  tag_39\n  jumpi\n  dup1\n  mload\n  not(0xff)\n  and\n  dup4\n  dup1\n  add\n  or\n  dup6\n  sstore\n  jump(tag_37)\ntag_39:\n  dup3\n  dup1\n  add\n  0x01\n  add\n  dup6\n  sstore\n  dup3\n  iszero\n  tag_37\n  jumpi\n  swap2\n  dup3\n  add\ntag_40:\n  dup3\n  dup2\n  gt\n  iszero\n  tag_41\n  jumpi\n  dup3\n  mload\n  dup3\n  sstore\n  swap2\n  0x20\n  add\n  swap2\n  swap1\n  0x01\n  add\n  swap1\n  jump(tag_40)\ntag_41:\ntag_37:\n  pop\n  swap1\n  pop\n  tag_42\n  swap2\n  swap1\n  tag_43\n  jump\t// in\ntag_42:\n  pop\n  swap1\n  jump\t// out\ntag_43:\ntag_44:\n  dup1\n  dup3\n  gt\n  iszero\n  tag_45\n  jumpi\n  0x00\n  dup2\n  0x00\n  swap1\n  sstore\n  pop\n  0x01\n  add\n  jump(tag_44)\ntag_45:\n  pop\n  swap1\n  jump\t// out\n    /* \"#utility.yul\":23:995   */\ntag_47:\n    /* \"#utility.yul\":140:145   */\n  0x00\n    /* \"#utility.yul\":165:256   */\n  tag_49\n    /* \"#utility.yul\":181:255   */\n  tag_50\n    /* \"#utility.yul\":248:254   */\n  dup5\n    /* \"#utility.yul\":181:255   */\n  tag_51\n  jump\t// in\ntag_50:\n    /* \"#utility.yul\":165:256   */\n  tag_52\n  jump\t// in\ntag_49:\n    /* \"#utility.yul\":156:256   */\n  swap1\n  pop\n    /* \"#utility.yul\":276:281   */\n  dup1\n    /* \"#utility.yul\":305:311   */\n  dup4\n    /* \"#utility.yul\":298:303   */\n  dup3\n    /* \"#utility.yul\":291:312   */\n  mstore\n    /* \"#utility.yul\":339:343   */\n  0x20\n    /* \"#utility.yul\":332:337   */\n  dup3\n    /* \"#utility.yul\":328:344   */\n  add\n    /* \"#utility.yul\":321:344   */\n  swap1\n  pop\n    /* \"#utility.yul\":365:371   */\n  dup3\n    /* \"#utility.yul\":415:418   */\n  dup6\n    /* \"#utility.yul\":407:411   */\n  0x20\n    /* \"#utility.yul\":399:405   */\n  dup7\n    /* \"#utility.yul\":395:412   */\n  mul\n    /* \"#utility.yul\":390:393   */\n  dup3\n    /* \"#utility.yul\":386:413   */\n  add\n    /* \"#utility.yul\":383:419   */\n  gt\n    /* \"#utility.yul\":380:523   */\n  iszero\n  tag_53\n  jumpi\n    /* \"#utility.yul\":434:513   */\n  tag_54\n  tag_55\n  jump\t// in\ntag_54:\n    /* \"#utility.yul\":380:523   */\ntag_53:\n    /* \"#utility.yul\":547:548   */\n  0x00\n    /* \"#utility.yul\":532:989   */\ntag_56:\n    /* \"#utility.yul\":557:563   */\n  dup6\n    /* \"#utility.yul\":554:555   */\n  dup2\n    /* \"#utility.yul\":551:564   */\n  lt\n    /* \"#utility.yul\":532:989   */\n  iszero\n  tag_58\n  jumpi\n    /* \"#utility.yul\":632:635   */\n  dup2\n    /* \"#utility.yul\":626:636   */\n  mload\n    /* \"#utility.yul\":668:686   */\n  0xffffffffffffffff\n    /* \"#utility.yul\":655:666   */\n  dup2\n    /* \"#utility.yul\":652:687   */\n  gt\n    /* \"#utility.yul\":649:771   */\n  iszero\n  tag_59\n  jumpi\n    /* \"#utility.yul\":690:769   */\n  tag_60\n  tag_61\n  jump\t// in\ntag_60:\n    /* \"#utility.yul\":649:771   */\ntag_59:\n    /* \"#utility.yul\":814:825   */\n  dup1\n    /* \"#utility.yul\":806:812   */\n  dup7\n    /* \"#utility.yul\":802:826   */\n  add\n    /* \"#utility.yul\":852:910   */\n  tag_62\n    /* \"#utility.yul\":906:909   */\n  dup10\n    /* \"#utility.yul\":894:904   */\n  dup3\n    /* \"#utility.yul\":852:910   */\n  tag_63\n  jump\t// in\ntag_62:\n    /* \"#utility.yul\":847:850   */\n  dup6\n    /* \"#utility.yul\":840:911   */\n  mstore\n    /* \"#utility.yul\":940:944   */\n  0x20\n    /* \"#utility.yul\":935:938   */\n  dup6\n    /* \"#utility.yul\":931:945   */\n  add\n    /* \"#utility.yul\":924:945   */\n  swap5\n  pop\n    /* \"#utility.yul\":974:978   */\n  0x20\n    /* \"#utility.yul\":969:972   */\n  dup5\n    /* \"#utility.yul\":965:979   */\n  add\n    /* \"#utility.yul\":958:979   */\n  swap4\n  pop\n    /* \"#utility.yul\":592:989   */\n  pop\n  pop\n    /* \"#utility.yul\":579:580   */\n  0x01\n    /* \"#utility.yul\":576:577   */\n  dup2\n    /* \"#utility.yul\":572:581   */\n  add\n    /* \"#utility.yul\":567:581   */\n  swap1\n  pop\n    /* \"#utility.yul\":532:989   */\n  jump(tag_56)\ntag_58:\n    /* \"#utility.yul\":536:550   */\n  pop\n    /* \"#utility.yul\":146:995   */\n  pop\n  pop\n    /* \"#utility.yul\":23:995   */\n  swap4\n  swap3\n  pop\n  pop\n  pop\n  jump\t// out\n    /* \"#utility.yul\":1001:1422   */\ntag_64:\n    /* \"#utility.yul\":1090:1095   */\n  0x00\n    /* \"#utility.yul\":1115:1181   */\n  tag_66\n    /* \"#utility.yul\":1131:1180   */\n  tag_67\n    /* \"#utility.yul\":1173:1179   */\n  dup5\n    /* \"#utility.yul\":1131:1180   */\n  tag_68\n  jump\t// in\ntag_67:\n    /* \"#utility.yul\":1115:1181   */\n  tag_52\n  jump\t// in\ntag_66:\n    /* \"#utility.yul\":1106:1181   */\n  swap1\n  pop\n    /* \"#utility.yul\":1204:1210   */\n  dup3\n    /* \"#utility.yul\":1197:1202   */\n  dup2\n    /* \"#utility.yul\":1190:1211   */\n  mstore\n    /* \"#utility.yul\":1242:1246   */\n  0x20\n    /* \"#utility.yul\":1235:1240   */\n  dup2\n    /* \"#utility.yul\":1231:1247   */\n  add\n    /* \"#utility.yul\":1280:1283   */\n  dup5\n    /* \"#utility.yul\":1271:1277   */\n  dup5\n    /* \"#utility.yul\":1266:1269   */\n  dup5\n    /* \"#utility.yul\":1262:1278   */\n  add\n    /* \"#utility.yul\":1259:1284   */\n  gt\n    /* \"#utility.yul\":1256:1368   */\n  iszero\n  tag_69\n  jumpi\n    /* \"#utility.yul\":1287:1366   */\n  tag_70\n  tag_71\n  jump\t// in\ntag_70:\n    /* \"#utility.yul\":1256:1368   */\ntag_69:\n    /* \"#utility.yul\":1377:1416   */\n  tag_72\n    /* \"#utility.yul\":1409:1415   */\n  dup5\n    /* \"#utility.yul\":1404:1407   */\n  dup3\n    /* \"#utility.yul\":1399:1402   */\n  dup6\n    /* \"#utility.yul\":1377:1416   */\n  tag_73\n  jump\t// in\ntag_72:\n    /* \"#utility.yul\":1096:1422   */\n  pop\n    /* \"#utility.yul\":1001:1422   */\n  swap4\n  swap3\n  pop\n  pop\n  pop\n  jump\t// out\n    /* \"#utility.yul\":1428:1571   */\ntag_74:\n    /* \"#utility.yul\":1485:1490   */\n  0x00\n    /* \"#utility.yul\":1516:1522   */\n  dup2\n    /* \"#utility.yul\":1510:1523   */\n  mload\n    /* \"#utility.yul\":1501:1523   */\n  swap1\n  pop\n    /* \"#utility.yul\":1532:1565   */\n  tag_76\n    /* \"#utility.yul\":1559:1564   */\n  dup2\n    /* \"#utility.yul\":1532:1565   */\n  tag_77\n  jump\t// in\ntag_76:\n    /* \"#utility.yul\":1428:1571   */\n  swap3\n  swap2\n  pop\n  pop\n  jump\t// out\n    /* \"#utility.yul\":1593:1998   */\ntag_78:\n    /* \"#utility.yul\":1685:1690   */\n  0x00\n    /* \"#utility.yul\":1734:1737   */\n  dup3\n    /* \"#utility.yul\":1727:1731   */\n  0x1f\n    /* \"#utility.yul\":1719:1725   */\n  dup4\n    /* \"#utility.yul\":1715:1732   */\n  add\n    /* \"#utility.yul\":1711:1738   */\n  slt\n    /* \"#utility.yul\":1701:1823   */\n  tag_80\n  jumpi\n    /* \"#utility.yul\":1742:1821   */\n  tag_81\n  tag_61\n  jump\t// in\ntag_81:\n    /* \"#utility.yul\":1701:1823   */\ntag_80:\n    /* \"#utility.yul\":1852:1858   */\n  dup2\n    /* \"#utility.yul\":1846:1859   */\n  mload\n    /* \"#utility.yul\":1877:1992   */\n  tag_82\n    /* \"#utility.yul\":1988:1991   */\n  dup5\n    /* \"#utility.yul\":1980:1986   */\n  dup3\n    /* \"#utility.yul\":1973:1977   */\n  0x20\n    /* \"#utility.yul\":1965:1971   */\n  dup7\n    /* \"#utility.yul\":1961:1978   */\n  add\n    /* \"#utility.yul\":1877:1992   */\n  tag_47\n  jump\t// in\ntag_82:\n    /* \"#utility.yul\":1868:1992   */\n  swap2\n  pop\n    /* \"#utility.yul\":1691:1998   */\n  pop\n    /* \"#utility.yul\":1593:1998   */\n  swap3\n  swap2\n  pop\n  pop\n  jump\t// out\n    /* \"#utility.yul\":2018:2373   */\ntag_63:\n    /* \"#utility.yul\":2085:2090   */\n  0x00\n    /* \"#utility.yul\":2134:2137   */\n  dup3\n    /* \"#utility.yul\":2127:2131   */\n  0x1f\n    /* \"#utility.yul\":2119:2125   */\n  dup4\n    /* \"#utility.yul\":2115:2132   */\n  add\n    /* \"#utility.yul\":2111:2138   */\n  slt\n    /* \"#utility.yul\":2101:2223   */\n  tag_84\n  jumpi\n    /* \"#utility.yul\":2142:2221   */\n  tag_85\n  tag_61\n  jump\t// in\ntag_85:\n    /* \"#utility.yul\":2101:2223   */\ntag_84:\n    /* \"#utility.yul\":2252:2258   */\n  dup2\n    /* \"#utility.yul\":2246:2259   */\n  mload\n    /* \"#utility.yul\":2277:2367   */\n  tag_86\n    /* \"#utility.yul\":2363:2366   */\n  dup5\n    /* \"#utility.yul\":2355:2361   */\n  dup3\n    /* \"#utility.yul\":2348:2352   */\n  0x20\n    /* \"#utility.yul\":2340:2346   */\n  dup7\n    /* \"#utility.yul\":2336:2353   */\n  add\n    /* \"#utility.yul\":2277:2367   */\n  tag_64\n  jump\t// in\ntag_86:\n    /* \"#utility.yul\":2268:2367   */\n  swap2\n  pop\n    /* \"#utility.yul\":2091:2373   */\n  pop\n    /* \"#utility.yul\":2018:2373   */\n  swap3\n  swap2\n  pop\n  pop\n  jump\t// out\n    /* \"#utility.yul\":2379:2522   */\ntag_87:\n    /* \"#utility.yul\":2436:2441   */\n  0x00\n    /* \"#utility.yul\":2467:2473   */\n  dup2\n    /* \"#utility.yul\":2461:2474   */\n  mload\n    /* \"#utility.yul\":2452:2474   */\n  swap1\n  pop\n    /* \"#utility.yul\":2483:2516   */\n  tag_89\n    /* \"#utility.yul\":2510:2515   */\n  dup2\n    /* \"#utility.yul\":2483:2516   */\n  tag_90\n  jump\t// in\ntag_89:\n    /* \"#utility.yul\":2379:2522   */\n  swap3\n  swap2\n  pop\n  pop\n  jump\t// out\n    /* \"#utility.yul\":2528:4074   */\ntag_3:\n    /* \"#utility.yul\":2689:2695   */\n  0x00\n    /* \"#utility.yul\":2697:2703   */\n  dup1\n    /* \"#utility.yul\":2705:2711   */\n  0x00\n    /* \"#utility.yul\":2713:2719   */\n  dup1\n    /* \"#utility.yul\":2721:2727   */\n  0x00\n    /* \"#utility.yul\":2770:2773   */\n  0xa0\n    /* \"#utility.yul\":2758:2767   */\n  dup7\n    /* \"#utility.yul\":2749:2756   */\n  dup9\n    /* \"#utility.yul\":2745:2768   */\n  sub\n    /* \"#utility.yul\":2741:2774   */\n  slt\n    /* \"#utility.yul\":2738:2858   */\n  iszero\n  tag_92\n  jumpi\n    /* \"#utility.yul\":2777:2856   */\n  tag_93\n  tag_94\n  jump\t// in\ntag_93:\n    /* \"#utility.yul\":2738:2858   */\ntag_92:\n    /* \"#utility.yul\":2897:2898   */\n  0x00\n    /* \"#utility.yul\":2922:2986   */\n  tag_95\n    /* \"#utility.yul\":2978:2985   */\n  dup9\n    /* \"#utility.yul\":2969:2975   */\n  dup3\n    /* \"#utility.yul\":2958:2967   */\n  dup10\n    /* \"#utility.yul\":2954:2976   */\n  add\n    /* \"#utility.yul\":2922:2986   */\n  tag_74\n  jump\t// in\ntag_95:\n    /* \"#utility.yul\":2912:2986   */\n  swap6\n  pop\n    /* \"#utility.yul\":2868:2996   */\n  pop\n    /* \"#utility.yul\":3056:3058   */\n  0x20\n    /* \"#utility.yul\":3045:3054   */\n  dup7\n    /* \"#utility.yul\":3041:3059   */\n  add\n    /* \"#utility.yul\":3035:3060   */\n  mload\n    /* \"#utility.yul\":3087:3105   */\n  0xffffffffffffffff\n    /* \"#utility.yul\":3079:3085   */\n  dup2\n    /* \"#utility.yul\":3076:3106   */\n  gt\n    /* \"#utility.yul\":3073:3190   */\n  iszero\n  tag_96\n  jumpi\n    /* \"#utility.yul\":3109:3188   */\n  tag_97\n  tag_98\n  jump\t// in\ntag_97:\n    /* \"#utility.yul\":3073:3190   */\ntag_96:\n    /* \"#utility.yul\":3214:3288   */\n  tag_99\n    /* \"#utility.yul\":3280:3287   */\n  dup9\n    /* \"#utility.yul\":3271:3277   */\n  dup3\n    /* \"#utility.yul\":3260:3269   */\n  dup10\n    /* \"#utility.yul\":3256:3278   */\n  add\n    /* \"#utility.yul\":3214:3288   */\n  tag_63\n  jump\t// in\ntag_99:\n    /* \"#utility.yul\":3204:3288   */\n  swap5\n  pop\n    /* \"#utility.yul\":3006:3298   */\n  pop\n    /* \"#utility.yul\":3337:3339   */\n  0x40\n    /* \"#utility.yul\":3363:3427   */\n  tag_100\n    /* \"#utility.yul\":3419:3426   */\n  dup9\n    /* \"#utility.yul\":3410:3416   */\n  dup3\n    /* \"#utility.yul\":3399:3408   */\n  dup10\n    /* \"#utility.yul\":3395:3417   */\n  add\n    /* \"#utility.yul\":3363:3427   */\n  tag_87\n  jump\t// in\ntag_100:\n    /* \"#utility.yul\":3353:3427   */\n  swap4\n  pop\n    /* \"#utility.yul\":3308:3437   */\n  pop\n    /* \"#utility.yul\":3497:3499   */\n  0x60\n    /* \"#utility.yul\":3486:3495   */\n  dup7\n    /* \"#utility.yul\":3482:3500   */\n  add\n    /* \"#utility.yul\":3476:3501   */\n  mload\n    /* \"#utility.yul\":3528:3546   */\n  0xffffffffffffffff\n    /* \"#utility.yul\":3520:3526   */\n  dup2\n    /* \"#utility.yul\":3517:3547   */\n  gt\n    /* \"#utility.yul\":3514:3631   */\n  iszero\n  tag_101\n  jumpi\n    /* \"#utility.yul\":3550:3629   */\n  tag_102\n  tag_98\n  jump\t// in\ntag_102:\n    /* \"#utility.yul\":3514:3631   */\ntag_101:\n    /* \"#utility.yul\":3655:3754   */\n  tag_103\n    /* \"#utility.yul\":3746:3753   */\n  dup9\n    /* \"#utility.yul\":3737:3743   */\n  dup3\n    /* \"#utility.yul\":3726:3735   */\n  dup10\n    /* \"#utility.yul\":3722:3744   */\n  add\n    /* \"#utility.yul\":3655:3754   */\n  tag_78\n  jump\t// in\ntag_103:\n    /* \"#utility.yul\":3645:3754   */\n  swap3\n  pop\n    /* \"#utility.yul\":3447:3764   */\n  pop\n    /* \"#utility.yul\":3824:3827   */\n  0x80\n    /* \"#utility.yul\":3813:3822   */\n  dup7\n    /* \"#utility.yul\":3809:3828   */\n  add\n    /* \"#utility.yul\":3803:3829   */\n  mload\n    /* \"#utility.yul\":3856:3874   */\n  0xffffffffffffffff\n    /* \"#utility.yul\":3848:3854   */\n  dup2\n    /* \"#utility.yul\":3845:3875   */\n  gt\n    /* \"#utility.yul\":3842:3959   */\n  iszero\n  tag_104\n  jumpi\n    /* \"#utility.yul\":3878:3957   */\n  tag_105\n  tag_98\n  jump\t// in\ntag_105:\n    /* \"#utility.yul\":3842:3959   */\ntag_104:\n    /* \"#utility.yul\":3983:4057   */\n  tag_106\n    /* \"#utility.yul\":4049:4056   */\n  dup9\n    /* \"#utility.yul\":4040:4046   */\n  dup3\n    /* \"#utility.yul\":4029:4038   */\n  dup10\n    /* \"#utility.yul\":4025:4047   */\n  add\n    /* \"#utility.yul\":3983:4057   */\n  tag_63\n  jump\t// in\ntag_106:\n    /* \"#utility.yul\":3973:4057   */\n  swap2\n  pop\n    /* \"#utility.yul\":3774:4067   */\n  pop\n    /* \"#utility.yul\":2528:4074   */\n  swap3\n  swap6\n  pop\n  swap3\n  swap6\n  swap1\n  swap4\n  pop\n  jump\t// out\n    /* \"#utility.yul\":4080:4457   */\ntag_107:\n    /* \"#utility.yul\":4186:4189   */\n  0x00\n    /* \"#utility.yul\":4214:4253   */\n  tag_109\n    /* \"#utility.yul\":4247:4252   */\n  dup3\n    /* \"#utility.yul\":4214:4253   */\n  tag_110\n  jump\t// in\ntag_109:\n    /* \"#utility.yul\":4269:4358   */\n  tag_111\n    /* \"#utility.yul\":4351:4357   */\n  dup2\n    /* \"#utility.yul\":4346:4349   */\n  dup6\n    /* \"#utility.yul\":4269:4358   */\n  tag_112\n  jump\t// in\ntag_111:\n    /* \"#utility.yul\":4262:4358   */\n  swap4\n  pop\n    /* \"#utility.yul\":4367:4419   */\n  tag_113\n    /* \"#utility.yul\":4412:4418   */\n  dup2\n    /* \"#utility.yul\":4407:4410   */\n  dup6\n    /* \"#utility.yul\":4400:4404   */\n  0x20\n    /* \"#utility.yul\":4393:4398   */\n  dup7\n    /* \"#utility.yul\":4389:4405   */\n  add\n    /* \"#utility.yul\":4367:4419   */\n  tag_73\n  jump\t// in\ntag_113:\n    /* \"#utility.yul\":4444:4450   */\n  dup1\n    /* \"#utility.yul\":4439:4442   */\n  dup5\n    /* \"#utility.yul\":4435:4451   */\n  add\n    /* \"#utility.yul\":4428:4451   */\n  swap2\n  pop\n    /* \"#utility.yul\":4190:4457   */\n  pop\n    /* \"#utility.yul\":4080:4457   */\n  swap3\n  swap2\n  pop\n  pop\n  jump\t// out\n    /* \"#utility.yul\":4463:4863   */\ntag_114:\n    /* \"#utility.yul\":4623:4626   */\n  0x00\n    /* \"#utility.yul\":4644:4728   */\n  tag_116\n    /* \"#utility.yul\":4726:4727   */\n  0x06\n    /* \"#utility.yul\":4721:4724   */\n  dup4\n    /* \"#utility.yul\":4644:4728   */\n  tag_112\n  jump\t// in\ntag_116:\n    /* \"#utility.yul\":4637:4728   */\n  swap2\n  pop\n    /* \"#utility.yul\":4737:4830   */\n  tag_117\n    /* \"#utility.yul\":4826:4829   */\n  dup3\n    /* \"#utility.yul\":4737:4830   */\n  tag_118\n  jump\t// in\ntag_117:\n    /* \"#utility.yul\":4855:4856   */\n  0x06\n    /* \"#utility.yul\":4850:4853   */\n  dup3\n    /* \"#utility.yul\":4846:4857   */\n  add\n    /* \"#utility.yul\":4839:4857   */\n  swap1\n  pop\n    /* \"#utility.yul\":4463:4863   */\n  swap2\n  swap1\n  pop\n  jump\t// out\n    /* \"#utility.yul\":4869:5144   */\ntag_16:\n    /* \"#utility.yul\":5001:5004   */\n  0x00\n    /* \"#utility.yul\":5023:5118   */\n  tag_120\n    /* \"#utility.yul\":5114:5117   */\n  dup3\n    /* \"#utility.yul\":5105:5111   */\n  dup5\n    /* \"#utility.yul\":5023:5118   */\n  tag_107\n  jump\t// in\ntag_120:\n    /* \"#utility.yul\":5016:5118   */\n  swap2\n  pop\n    /* \"#utility.yul\":5135:5138   */\n  dup2\n    /* \"#utility.yul\":5128:5138   */\n  swap1\n  pop\n    /* \"#utility.yul\":4869:5144   */\n  swap3\n  swap2\n  pop\n  pop\n  jump\t// out\n    /* \"#utility.yul\":5150:5531   */\ntag_14:\n    /* \"#utility.yul\":5335:5338   */\n  0x00\n    /* \"#utility.yul\":5357:5505   */\n  tag_122\n    /* \"#utility.yul\":5501:5504   */\n  dup3\n    /* \"#utility.yul\":5357:5505   */\n  tag_114\n  jump\t// in\ntag_122:\n    /* \"#utility.yul\":5350:5505   */\n  swap2\n  pop\n    /* \"#utility.yul\":5522:5525   */\n  dup2\n    /* \"#utility.yul\":5515:5525   */\n  swap1\n  pop\n    /* \"#utility.yul\":5150:5531   */\n  swap2\n  swap1\n  pop\n  jump\t// out\n    /* \"#utility.yul\":5537:5666   */\ntag_52:\n    /* \"#utility.yul\":5571:5577   */\n  0x00\n    /* \"#utility.yul\":5598:5618   */\n  tag_124\n  tag_125\n  jump\t// in\ntag_124:\n    /* \"#utility.yul\":5588:5618   */\n  swap1\n  pop\n    /* \"#utility.yul\":5627:5660   */\n  tag_126\n    /* \"#utility.yul\":5655:5659   */\n  dup3\n    /* \"#utility.yul\":5647:5653   */\n  dup3\n    /* \"#utility.yul\":5627:5660   */\n  tag_127\n  jump\t// in\ntag_126:\n    /* \"#utility.yul\":5537:5666   */\n  swap2\n  swap1\n  pop\n  jump\t// out\n    /* \"#utility.yul\":5672:5747   */\ntag_125:\n    /* \"#utility.yul\":5705:5711   */\n  0x00\n    /* \"#utility.yul\":5738:5740   */\n  0x40\n    /* \"#utility.yul\":5732:5741   */\n  mload\n    /* \"#utility.yul\":5722:5741   */\n  swap1\n  pop\n    /* \"#utility.yul\":5672:5747   */\n  swap1\n  jump\t// out\n    /* \"#utility.yul\":5753:6074   */\ntag_51:\n    /* \"#utility.yul\":5840:5844   */\n  0x00\n    /* \"#utility.yul\":5930:5948   */\n  0xffffffffffffffff\n    /* \"#utility.yul\":5922:5928   */\n  dup3\n    /* \"#utility.yul\":5919:5949   */\n  gt\n    /* \"#utility.yul\":5916:5972   */\n  iszero\n  tag_130\n  jumpi\n    /* \"#utility.yul\":5952:5970   */\n  tag_131\n  tag_132\n  jump\t// in\ntag_131:\n    /* \"#utility.yul\":5916:5972   */\ntag_130:\n    /* \"#utility.yul\":6002:6006   */\n  0x20\n    /* \"#utility.yul\":5994:6000   */\n  dup3\n    /* \"#utility.yul\":5990:6007   */\n  mul\n    /* \"#utility.yul\":5982:6007   */\n  swap1\n  pop\n    /* \"#utility.yul\":6062:6066   */\n  0x20\n    /* \"#utility.yul\":6056:6060   */\n  dup2\n    /* \"#utility.yul\":6052:6067   */\n  add\n    /* \"#utility.yul\":6044:6067   */\n  swap1\n  pop\n    /* \"#utility.yul\":5753:6074   */\n  swap2\n  swap1\n  pop\n  jump\t// out\n    /* \"#utility.yul\":6080:6388   */\ntag_68:\n    /* \"#utility.yul\":6142:6146   */\n  0x00\n    /* \"#utility.yul\":6232:6250   */\n  0xffffffffffffffff\n    /* \"#utility.yul\":6224:6230   */\n  dup3\n    /* \"#utility.yul\":6221:6251   */\n  gt\n    /* \"#utility.yul\":6218:6274   */\n  iszero\n  tag_134\n  jumpi\n    /* \"#utility.yul\":6254:6272   */\n  tag_135\n  tag_132\n  jump\t// in\ntag_135:\n    /* \"#utility.yul\":6218:6274   */\ntag_134:\n    /* \"#utility.yul\":6292:6321   */\n  tag_136\n    /* \"#utility.yul\":6314:6320   */\n  dup3\n    /* \"#utility.yul\":6292:6321   */\n  tag_137\n  jump\t// in\ntag_136:\n    /* \"#utility.yul\":6284:6321   */\n  swap1\n  pop\n    /* \"#utility.yul\":6376:6380   */\n  0x20\n    /* \"#utility.yul\":6370:6374   */\n  dup2\n    /* \"#utility.yul\":6366:6381   */\n  add\n    /* \"#utility.yul\":6358:6381   */\n  swap1\n  pop\n    /* \"#utility.yul\":6080:6388   */\n  swap2\n  swap1\n  pop\n  jump\t// out\n    /* \"#utility.yul\":6394:6493   */\ntag_110:\n    /* \"#utility.yul\":6446:6452   */\n  0x00\n    /* \"#utility.yul\":6480:6485   */\n  dup2\n    /* \"#utility.yul\":6474:6486   */\n  mload\n    /* \"#utility.yul\":6464:6486   */\n  swap1\n  pop\n    /* \"#utility.yul\":6394:6493   */\n  swap2\n  swap1\n  pop\n  jump\t// out\n    /* \"#utility.yul\":6499:6647   */\ntag_112:\n    /* \"#utility.yul\":6601:6612   */\n  0x00\n    /* \"#utility.yul\":6638:6641   */\n  dup2\n    /* \"#utility.yul\":6623:6641   */\n  swap1\n  pop\n    /* \"#utility.yul\":6499:6647   */\n  swap3\n  swap2\n  pop\n  pop\n  jump\t// out\n    /* \"#utility.yul\":6653:6958   */\ntag_9:\n    /* \"#utility.yul\":6693:6696   */\n  0x00\n    /* \"#utility.yul\":6712:6732   */\n  tag_141\n    /* \"#utility.yul\":6730:6731   */\n  dup3\n    /* \"#utility.yul\":6712:6732   */\n  tag_142\n  jump\t// in\ntag_141:\n    /* \"#utility.yul\":6707:6732   */\n  swap2\n  pop\n    /* \"#utility.yul\":6746:6766   */\n  tag_143\n    /* \"#utility.yul\":6764:6765   */\n  dup4\n    /* \"#utility.yul\":6746:6766   */\n  tag_142\n  jump\t// in\ntag_143:\n    /* \"#utility.yul\":6741:6766   */\n  swap3\n  pop\n    /* \"#utility.yul\":6900:6901   */\n  dup3\n    /* \"#utility.yul\":6832:6898   */\n  0xffffffffffffffffffffffffffffffffffffffffffffffffffffffffffffffff\n    /* \"#utility.yul\":6828:6902   */\n  sub\n    /* \"#utility.yul\":6825:6826   */\n  dup3\n    /* \"#utility.yul\":6822:6903   */\n  gt\n    /* \"#utility.yul\":6819:6926   */\n  iszero\n  tag_144\n  jumpi\n    /* \"#utility.yul\":6906:6924   */\n  tag_145\n  tag_146\n  jump\t// in\ntag_145:\n    /* \"#utility.yul\":6819:6926   */\ntag_144:\n    /* \"#utility.yul\":6950:6951   */\n  dup3\n    /* \"#utility.yul\":6947:6948   */\n  dup3\n    /* \"#utility.yul\":6943:6952   */\n  add\n    /* \"#utility.yul\":6936:6952   */\n  swap1\n  pop\n    /* \"#utility.yul\":6653:6958   */\n  swap3\n  swap2\n  pop\n  pop\n  jump\t// out\n    /* \"#utility.yul\":6964:7060   */\ntag_147:\n    /* \"#utility.yul\":7001:7008   */\n  0x00\n    /* \"#utility.yul\":7030:7054   */\n  tag_149\n    /* \"#utility.yul\":7048:7053   */\n  dup3\n    /* \"#utility.yul\":7030:7054   */\n  tag_150\n  jump\t// in\ntag_149:\n    /* \"#utility.yul\":7019:7054   */\n  swap1\n  pop\n    /* \"#utility.yul\":6964:7060   */\n  swap2\n  swap1\n  pop\n  jump\t// out\n    /* \"#utility.yul\":7066:7192   */\ntag_150:\n    /* \"#utility.yul\":7103:7110   */\n  0x00\n    /* \"#utility.yul\":7143:7185   */\n  0xffffffffffffffffffffffffffffffffffffffff\n    /* \"#utility.yul\":7136:7141   */\n  dup3\n    /* \"#utility.yul\":7132:7186   */\n  and\n    /* \"#utility.yul\":7121:7186   */\n  swap1\n  pop\n    /* \"#utility.yul\":7066:7192   */\n  swap2\n  swap1\n  pop\n  jump\t// out\n    /* \"#utility.yul\":7198:7275   */\ntag_142:\n    /* \"#utility.yul\":7235:7242   */\n  0x00\n    /* \"#utility.yul\":7264:7269   */\n  dup2\n    /* \"#utility.yul\":7253:7269   */\n  swap1\n  pop\n    /* \"#utility.yul\":7198:7275   */\n  swap2\n  swap1\n  pop\n  jump\t// out\n    /* \"#utility.yul\":7281:7588   */\ntag_73:\n    /* \"#utility.yul\":7349:7350   */\n  0x00\n    /* \"#utility.yul\":7359:7472   */\ntag_154:\n    /* \"#utility.yul\":7373:7379   */\n  dup4\n    /* \"#utility.yul\":7370:7371   */\n  dup2\n    /* \"#utility.yul\":7367:7380   */\n  lt\n    /* \"#utility.yul\":7359:7472   */\n  iszero\n  tag_156\n  jumpi\n    /* \"#utility.yul\":7458:7459   */\n  dup1\n    /* \"#utility.yul\":7453:7456   */\n  dup3\n    /* \"#utility.yul\":7449:7460   */\n  add\n    /* \"#utility.yul\":7443:7461   */\n  mload\n    /* \"#utility.yul\":7439:7440   */\n  dup2\n    /* \"#utility.yul\":7434:7437   */\n  dup5\n    /* \"#utility.yul\":7430:7441   */\n  add\n    /* \"#utility.yul\":7423:7462   */\n  mstore\n    /* \"#utility.yul\":7395:7397   */\n  0x20\n    /* \"#utility.yul\":7392:7393   */\n  dup2\n    /* \"#utility.yul\":7388:7398   */\n  add\n    /* \"#utility.yul\":7383:7398   */\n  swap1\n  pop\n    /* \"#utility.yul\":7359:7472   */\n  jump(tag_154)\ntag_156:\n    /* \"#utility.yul\":7490:7496   */\n  dup4\n    /* \"#utility.yul\":7487:7488   */\n  dup2\n    /* \"#utility.yul\":7484:7497   */\n  gt\n    /* \"#utility.yul\":7481:7582   */\n  iszero\n  tag_157\n  jumpi\n    /* \"#utility.yul\":7570:7571   */\n  0x00\n    /* \"#utility.yul\":7561:7567   */\n  dup5\n    /* \"#utility.yul\":7556:7559   */\n  dup5\n    /* \"#utility.yul\":7552:7568   */\n  add\n    /* \"#utility.yul\":7545:7572   */\n  mstore\n    /* \"#utility.yul\":7481:7582   */\ntag_157:\n    /* \"#utility.yul\":7330:7588   */\n  pop\n    /* \"#utility.yul\":7281:7588   */\n  pop\n  pop\n  pop\n  jump\t// out\n    /* \"#utility.yul\":7594:7914   */\ntag_36:\n    /* \"#utility.yul\":7638:7644   */\n  0x00\n    /* \"#utility.yul\":7675:7676   */\n  0x02\n    /* \"#utility.yul\":7669:7673   */\n  dup3\n    /* \"#utility.yul\":7665:7677   */\n  div\n    /* \"#utility.yul\":7655:7677   */\n  swap1\n  pop\n    /* \"#utility.yul\":7722:7723   */\n  0x01\n    /* \"#utility.yul\":7716:7720   */\n  dup3\n    /* \"#utility.yul\":7712:7724   */\n  and\n    /* \"#utility.yul\":7743:7761   */\n  dup1\n    /* \"#utility.yul\":7733:7814   */\n  tag_159\n  jumpi\n    /* \"#utility.yul\":7799:7803   */\n  0x7f\n    /* \"#utility.yul\":7791:7797   */\n  dup3\n    /* \"#utility.yul\":7787:7804   */\n  and\n    /* \"#utility.yul\":7777:7804   */\n  swap2\n  pop\n    /* \"#utility.yul\":7733:7814   */\ntag_159:\n    /* \"#utility.yul\":7861:7863   */\n  0x20\n    /* \"#utility.yul\":7853:7859   */\n  dup3\n    /* \"#utility.yul\":7850:7864   */\n  lt\n    /* \"#utility.yul\":7830:7848   */\n  dup2\n    /* \"#utility.yul\":7827:7865   */\n  eq\n    /* \"#utility.yul\":7824:7908   */\n  iszero\n  tag_160\n  jumpi\n    /* \"#utility.yul\":7880:7898   */\n  tag_161\n  tag_162\n  jump\t// in\ntag_161:\n    /* \"#utility.yul\":7824:7908   */\ntag_160:\n    /* \"#utility.yul\":7645:7914   */\n  pop\n    /* \"#utility.yul\":7594:7914   */\n  swap2\n  swap1\n  pop\n  jump\t// out\n    /* \"#utility.yul\":7920:8201   */\ntag_127:\n    /* \"#utility.yul\":8003:8030   */\n  tag_164\n    /* \"#utility.yul\":8025:8029   */\n  dup3\n    /* \"#utility.yul\":8003:8030   */\n  tag_137\n  jump\t// in\ntag_164:\n    /* \"#utility.yul\":7995:8001   */\n  dup2\n    /* \"#utility.yul\":7991:8031   */\n  add\n    /* \"#utility.yul\":8133:8139   */\n  dup2\n    /* \"#utility.yul\":8121:8131   */\n  dup2\n    /* \"#utility.yul\":8118:8140   */\n  lt\n    /* \"#utility.yul\":8097:8115   */\n  0xffffffffffffffff\n    /* \"#utility.yul\":8085:8095   */\n  dup3\n    /* \"#utility.yul\":8082:8116   */\n  gt\n    /* \"#utility.yul\":8079:8141   */\n  or\n    /* \"#utility.yul\":8076:8164   */\n  iszero\n  tag_165\n  jumpi\n    /* \"#utility.yul\":8144:8162   */\n  tag_166\n  tag_132\n  jump\t// in\ntag_166:\n    /* \"#utility.yul\":8076:8164   */\ntag_165:\n    /* \"#utility.yul\":8184:8194   */\n  dup1\n    /* \"#utility.yul\":8180:8182   */\n  0x40\n    /* \"#utility.yul\":8173:8195   */\n  mstore\n    /* \"#utility.yul\":7963:8201   */\n  pop\n    /* \"#utility.yul\":7920:8201   */\n  pop\n  pop\n  jump\t// out\n    /* \"#utility.yul\":8207:8440   */\ntag_33:\n    /* \"#utility.yul\":8246:8249   */\n  0x00\n    /* \"#utility.yul\":8269:8293   */\n  tag_168\n    /* \"#utility.yul\":8287:8292   */\n  dup3\n    /* \"#utility.yul\":8269:8293   */\n  tag_142\n  jump\t// in\ntag_168:\n    /* \"#utility.yul\":8260:8293   */\n  swap2\n  pop\n    /* \"#utility.yul\":8315:8381   */\n  0xffffffffffffffffffffffffffffffffffffffffffffffffffffffffffffffff\n    /* \"#utility.yul\":8308:8313   */\n  dup3\n    /* \"#utility.yul\":8305:8382   */\n  eq\n    /* \"#utility.yul\":8302:8405   */\n  iszero\n  tag_169\n  jumpi\n    /* \"#utility.yul\":8385:8403   */\n  tag_170\n  tag_146\n  jump\t// in\ntag_170:\n    /* \"#utility.yul\":8302:8405   */\ntag_169:\n    /* \"#utility.yul\":8432:8433   */\n  0x01\n    /* \"#utility.yul\":8425:8430   */\n  dup3\n    /* \"#utility.yul\":8421:8434   */\n  add\n    /* \"#utility.yul\":8414:8434   */\n  swap1\n  pop\n    /* \"#utility.yul\":8207:8440   */\n  swap2\n  swap1\n  pop\n  jump\t// out\n    /* \"#utility.yul\":8446:8626   */\ntag_146:\n    /* \"#utility.yul\":8494:8571   */\n  0x4e487b7100000000000000000000000000000000000000000000000000000000\n    /* \"#utility.yul\":8491:8492   */\n  0x00\n    /* \"#utility.yul\":8484:8572   */\n  mstore\n    /* \"#utility.yul\":8591:8595   */\n  0x11\n    /* \"#utility.yul\":8588:8589   */\n  0x04\n    /* \"#utility.yul\":8581:8596   */\n  mstore\n    /* \"#utility.yul\":8615:8619   */\n  0x24\n    /* \"#utility.yul\":8612:8613   */\n  0x00\n    /* \"#utility.yul\":8605:8620   */\n  revert\n    /* \"#utility.yul\":8632:8812   */\ntag_12:\n    /* \"#utility.yul\":8680:8757   */\n  0x4e487b7100000000000000000000000000000000000000000000000000000000\n    /* \"#utility.yul\":8677:8678   */\n  0x00\n    /* \"#utility.yul\":8670:8758   */\n  mstore\n    /* \"#utility.yul\":8777:8781   */\n  0x21\n    /* \"#utility.yul\":8774:8775   */\n  0x04\n    /* \"#utility.yul\":8767:8782   */\n  mstore\n    /* \"#utility.yul\":8801:8805   */\n  0x24\n    /* \"#utility.yul\":8798:8799   */\n  0x00\n    /* \"#utility.yul\":8791:8806   */\n  revert\n    /* \"#utility.yul\":8818:8998   */\ntag_162:\n    /* \"#utility.yul\":8866:8943   */\n  0x4e487b7100000000000000000000000000000000000000000000000000000000\n    /* \"#utility.yul\":8863:8864   */\n  0x00\n    /* \"#utility.yul\":8856:8944   */\n  mstore\n    /* \"#utility.yul\":8963:8967   */\n  0x22\n    /* \"#utility.yul\":8960:8961   */\n  0x04\n    /* \"#utility.yul\":8953:8968   */\n  mstore\n    /* \"#utility.yul\":8987:8991   */\n  0x24\n    /* \"#utility.yul\":8984:8985   */\n  0x00\n    /* \"#utility.yul\":8977:8992   */\n  revert\n    /* \"#utility.yul\":9004:9184   */\ntag_30:\n    /* \"#utility.yul\":9052:9129   */\n  0x4e487b7100000000000000000000000000000000000000000000000000000000\n    /* \"#utility.yul\":9049:9050   */\n  0x00\n    /* \"#utility.yul\":9042:9130   */\n  mstore\n    /* \"#utility.yul\":9149:9153   */\n  0x32\n    /* \"#utility.yul\":9146:9147   */\n  0x04\n    /* \"#utility.yul\":9139:9154   */\n  mstore\n    /* \"#utility.yul\":9173:9177   */\n  0x24\n    /* \"#utility.yul\":9170:9171   */\n  0x00\n    /* \"#utility.yul\":9163:9178   */\n  revert\n    /* \"#utility.yul\":9190:9370   */\ntag_132:\n    /* \"#utility.yul\":9238:9315   */\n  0x4e487b7100000000000000000000000000000000000000000000000000000000\n    /* \"#utility.yul\":9235:9236   */\n  0x00\n    /* \"#utility.yul\":9228:9316   */\n  mstore\n    /* \"#utility.yul\":9335:9339   */\n  0x41\n    /* \"#utility.yul\":9332:9333   */\n  0x04\n    /* \"#utility.yul\":9325:9340   */\n  mstore\n    /* \"#utility.yul\":9359:9363   */\n  0x24\n    /* \"#utility.yul\":9356:9357   */\n  0x00\n    /* \"#utility.yul\":9349:9364   */\n  revert\n    /* \"#utility.yul\":9376:9493   */\ntag_61:\n    /* \"#utility.yul\":9485:9486   */\n  0x00\n    /* \"#utility.yul\":9482:9483   */\n  dup1\n    /* \"#utility.yul\":9475:9487   */\n  revert\n    /* \"#utility.yul\":9499:9616   */\ntag_55:\n    /* \"#utility.yul\":9608:9609   */\n  0x00\n    /* \"#utility.yul\":9605:9606   */\n  dup1\n    /* \"#utility.yul\":9598:9610   */\n  revert\n    /* \"#utility.yul\":9622:9739   */\ntag_71:\n    /* \"#utility.yul\":9731:9732   */\n  0x00\n    /* \"#utility.yul\":9728:9729   */\n  dup1\n    /* \"#utility.yul\":9721:9733   */\n  revert\n    /* \"#utility.yul\":9745:9862   */\ntag_98:\n    /* \"#utility.yul\":9854:9855   */\n  0x00\n    /* \"#utility.yul\":9851:9852   */\n  dup1\n    /* \"#utility.yul\":9844:9856   */\n  revert\n    /* \"#utility.yul\":9868:9985   */\ntag_94:\n    /* \"#utility.yul\":9977:9978   */\n  0x00\n    /* \"#utility.yul\":9974:9975   */\n  dup1\n    /* \"#utility.yul\":9967:9979   */\n  revert\n    /* \"#utility.yul\":9991:10093   */\ntag_137:\n    /* \"#utility.yul\":10032:10038   */\n  0x00\n    /* \"#utility.yul\":10083:10085   */\n  0x1f\n    /* \"#utility.yul\":10079:10086   */\n  not\n    /* \"#utility.yul\":10074:10076   */\n  0x1f\n    /* \"#utility.yul\":10067:10072   */\n  dup4\n    /* \"#utility.yul\":10063:10077   */\n  add\n    /* \"#utility.yul\":10059:10087   */\n  and\n    /* \"#utility.yul\":10049:10087   */\n  swap1\n  pop\n    /* \"#utility.yul\":9991:10093   */\n  swap2\n  swap1\n  pop\n  jump\t// out\n    /* \"#utility.yul\":10099:10255   */\ntag_118:\n    /* \"#utility.yul\":10239:10247   */\n  0x5075626c69630000000000000000000000000000000000000000000000000000\n    /* \"#utility.yul\":10235:10236   */\n  0x00\n    /* \"#utility.yul\":10227:10233   */\n  dup3\n    /* \"#utility.yul\":10223:10237   */\n  add\n    /* \"#utility.yul\":10216:10248   */\n  mstore\n    /* \"#utility.yul\":10099:10255   */\n  pop\n  jump\t// out\n    /* \"#utility.yul\":10261:10383   */\ntag_77:\n    /* \"#utility.yul\":10334:10358   */\n  tag_184\n    /* \"#utility.yul\":10352:10357   */\n  dup2\n    /* \"#utility.yul\":10334:10358   */\n  tag_147\n  jump\t// in\ntag_184:\n    /* \"#utility.yul\":10327:10332   */\n  dup2\n    /* \"#utility.yul\":10324:10359   */\n  eq\n    /* \"#utility.yul\":10314:10377   */\n  tag_185\n  jumpi\n    /* \"#utility.yul\":10373:10374   */\n  0x00\n    /* \"#utility.yul\":10370:10371   */\n  dup1\n    /* \"#utility.yul\":10363:10375   */\n  revert\n    /* \"#utility.yul\":10314:10377   */\ntag_185:\n    /* \"#utility.yul\":10261:10383   */\n  pop\n  jump\t// out\n    /* \"#utility.yul\":10389:10511   */\ntag_90:\n    /* \"#utility.yul\":10462:10486   */\n  tag_187\n    /* \"#utility.yul\":10480:10485   */\n  dup2\n    /* \"#utility.yul\":10462:10486   */\n  tag_142\n  jump\t// in\ntag_187:\n    /* \"#utility.yul\":10455:10460   */\n  dup2\n    /* \"#utility.yul\":10452:10487   */\n  eq\n    /* \"#utility.yul\":10442:10505   */\n  tag_188\n  jumpi\n    /* \"#utility.yul\":10501:10502   */\n  0x00\n    /* \"#utility.yul\":10498:10499   */\n  dup1\n    /* \"#utility.yul\":10491:10503   */\n  revert\n    /* \"#utility.yul\":10442:10505   */\ntag_188:\n    /* \"#utility.yul\":10389:10511   */\n  pop\n  jump\t// out\n    /* \"contracts/pollio.sol\":1518:6572  contract Poll {... */\ntag_34:\n  dataSize(sub_0)\n  dup1\n  dataOffset(sub_0)\n  0x00\n  codecopy\n  0x00\n  return\nstop\n\nsub_0: assembly {\n        /* \"contracts/pollio.sol\":1518:6572  contract Poll {... */\n      mstore(0x40, 0x80)\n      callvalue\n      dup1\n      iszero\n      tag_1\n      jumpi\n      0x00\n      dup1\n      revert\n    tag_1:\n      pop\n      jumpi(tag_2, lt(calldatasize, 0x04))\n      shr(0xe0, calldataload(0x00))\n      dup1\n      0x8f58d353\n      gt\n      tag_16\n      jumpi\n      dup1\n      0xba0c45c9\n      gt\n      tag_17\n      jumpi\n      dup1\n      0xba0c45c9\n      eq\n      tag_12\n      jumpi\n      dup1\n      0xc04752d8\n      eq\n      tag_13\n      jumpi\n      dup1\n      0xc308b0dc\n      eq\n      tag_14\n      jumpi\n      dup1\n      0xcc1e2cb0\n      eq\n      tag_15\n      jumpi\n      jump(tag_2)\n    tag_17:\n      dup1\n      0x8f58d353\n      eq\n      tag_9\n      jumpi\n      dup1\n      0xb6d325a3\n      eq\n      tag_10\n      jumpi\n      dup1\n      0xb73b396b\n      eq\n      tag_11\n      jumpi\n      jump(tag_2)\n    tag_16:\n      dup1\n      0x083c6323\n      eq\n      tag_3\n      jumpi\n      dup1\n      0x18769765\n      eq\n      tag_4\n      jumpi\n      dup1\n      0x20ee04f5\n      eq\n      tag_5\n      jumpi\n      dup1\n      0x237637a8\n      eq\n      tag_6\n      jumpi\n      dup1\n      0x48cd4cb1\n      eq\n      tag_7\n      jumpi\n      dup1\n      0x8d99b2eb\n      eq\n      tag_8\n      jumpi\n    tag_2:\n      0x00\n      dup1\n      revert\n        /* \"contracts/pollio.sol\":1626:1646  uint public endBlock */\n    tag_3:\n      tag_18\n      tag_19\n      jump\t// in\n    tag_18:\n      mload(0x40)\n      tag_20\n      swap2\n      swap1\n      tag_21\n      jump\t// in\n    tag_20:\n      mload(0x40)\n      dup1\n      swap2\n      sub\n      swap1\n      return\n        /* \"contracts/pollio.sol\":1570:1592  string public pollName */\n    tag_4:\n      tag_22\n      tag_23\n      jump\t// in\n    tag_22:\n      mload(0x40)\n      tag_24\n      swap2\n      swap1\n      tag_25\n      jump\t// in\n    tag_24:\n      mload(0x40)\n      dup1\n      swap2\n      sub\n      swap1\n      return\n        /* \"contracts/pollio.sol\":6425:6570  function getResultOf(... */\n    tag_5:\n      tag_26\n      0x04\n      dup1\n      calldatasize\n      sub\n      dup2\n      add\n      swap1\n      tag_27\n      swap2\n      swap1\n      tag_28\n      jump\t// in\n    tag_27:\n      tag_29\n      jump\t// in\n    tag_26:\n      mload(0x40)\n      tag_30\n      swap2\n      swap1\n      tag_21\n      jump\t// in\n    tag_30:\n      mload(0x40)\n      dup1\n      swap2\n      sub\n      swap1\n      return\n        /* \"contracts/pollio.sol\":1689:1713  PollType public pollType */\n    tag_6:\n      tag_31\n      tag_32\n      jump\t// in\n    tag_31:\n      mload(0x40)\n      tag_33\n      swap2\n      swap1\n      tag_34\n      jump\t// in\n    tag_33:\n      mload(0x40)\n      dup1\n      swap2\n      sub\n      swap1\n      return\n        /* \"contracts/pollio.sol\":1598:1620  uint public startBlock */\n    tag_7:\n      tag_35\n      tag_36\n      jump\t// in\n    tag_35:\n      mload(0x40)\n      tag_37\n      swap2\n      swap1\n      tag_21\n      jump\t// in\n    tag_37:\n      mload(0x40)\n      dup1\n      swap2\n      sub\n      swap1\n      return\n        /* \"contracts/pollio.sol\":6006:6109  function endPoll() public beforeEnd onlyOrg ifPollNotEnded {... */\n    tag_8:\n      tag_38\n      tag_39\n      jump\t// in\n    tag_38:\n      stop\n        /* \"contracts/pollio.sol\":1775:1801  PollState public pollState */\n    tag_9:\n      tag_40\n      tag_41\n      jump\t// in\n    tag_40:\n      mload(0x40)\n      tag_42\n      swap2\n      swap1\n      tag_43\n      jump\t// in\n    tag_42:\n      mload(0x40)\n      dup1\n      swap2\n      sub\n      swap1\n      return\n        /* \"contracts/pollio.sol\":5375:5625  function getPollType() public view returns(string memory) {... */\n    tag_10:\n      tag_44\n      tag_45\n      jump\t// in\n    tag_44:\n      mload(0x40)\n      tag_46\n      swap2\n      swap1\n      tag_25\n      jump\t// in\n    tag_46:\n      mload(0x40)\n      dup1\n      swap2\n      sub\n      swap1\n      return\n        /* \"contracts/pollio.sol\":5764:5873  function cancelPoll() public beforeEnd onlyOrg ifPollNotEnded {... */\n    tag_11:\n      tag_47\n      tag_48\n      jump\t// in\n    tag_47:\n      stop\n        /* \"contracts/pollio.sol\":4688:4803  function increasePollDuration(uint pollDuration) public onlyOrg {... */\n    tag_12:\n      tag_49\n      0x04\n      dup1\n      calldatasize\n      sub\n      dup2\n      add\n      swap1\n      tag_50\n      swap2\n      swap1\n      tag_51\n      jump\t// in\n    tag_50:\n      tag_52\n      jump\t// in\n    tag_49:\n      stop\n        /* \"contracts/pollio.sol\":5116:5369  function voteFor(string memory candidate) public beforeEnd afterStart ifPollNotEnded {... */\n    tag_13:\n      tag_53\n      0x04\n      dup1\n      calldatasize\n      sub\n      dup2\n      add\n      swap1\n      tag_54\n      swap2\n      swap1\n      tag_28\n      jump\t// in\n    tag_54:\n      tag_55\n      jump\t// in\n    tag_53:\n      stop\n        /* \"contracts/pollio.sol\":4402:4489  function renamePoll(string memory name) public onlyOrg {... */\n    tag_14:\n      tag_56\n      0x04\n      dup1\n      calldatasize\n      sub\n      dup2\n      add\n      swap1\n      tag_57\n      swap2\n      swap1\n      tag_28\n      jump\t// in\n    tag_57:\n      tag_58\n      jump\t// in\n    tag_56:\n      stop\n        /* \"contracts/pollio.sol\":1538:1564  address payable public org */\n    tag_15:\n      tag_59\n      tag_60\n      jump\t// in\n    tag_59:\n      mload(0x40)\n      tag_61\n      swap2\n      swap1\n      tag_62\n      jump\t// in\n    tag_61:\n      mload(0x40)\n      dup1\n      swap2\n      sub\n      swap1\n      return\n        /* \"contracts/pollio.sol\":1626:1646  uint public endBlock */\n    tag_19:\n      sload(0x03)\n      dup2\n      jump\t// out\n        /* \"contracts/pollio.sol\":1570:1592  string public pollName */\n    tag_23:\n      0x01\n      dup1\n      sload\n      tag_63\n      swap1\n      tag_64\n      jump\t// in\n    tag_63:\n      dup1\n      0x1f\n      add\n      0x20\n      dup1\n      swap2\n      div\n      mul\n      0x20\n      add\n      mload(0x40)\n      swap1\n      dup2\n      add\n      0x40\n      mstore\n      dup1\n      swap3\n      swap2\n      swap1\n      dup2\n      dup2\n      mstore\n      0x20\n      add\n      dup3\n      dup1\n      sload\n      tag_65\n      swap1\n      tag_64\n      jump\t// in\n    tag_65:\n      dup1\n      iszero\n      tag_66\n      jumpi\n      dup1\n      0x1f\n      lt\n      tag_67\n      jumpi\n      0x0100\n      dup1\n      dup4\n      sload\n      div\n      mul\n      dup4\n      mstore\n      swap2\n      0x20\n      add\n      swap2\n      jump(tag_66)\n    tag_67:\n      dup3\n      add\n      swap2\n      swap1\n      0x00\n      mstore\n      keccak256(0x00, 0x20)\n      swap1\n    tag_68:\n      dup2\n      sload\n      dup2\n      mstore\n      swap1\n      0x01\n      add\n      swap1\n      0x20\n      add\n      dup1\n      dup4\n      gt\n      tag_68\n      jumpi\n      dup3\n      swap1\n      sub\n      0x1f\n      and\n      dup3\n      add\n      swap2\n    tag_66:\n      pop\n      pop\n      pop\n      pop\n      pop\n      dup2\n      jump\t// out\n        /* \"contracts/pollio.sol\":6425:6570  function getResultOf(... */\n    tag_29:\n        /* \"contracts/pollio.sol\":6523:6527  uint */\n      0x00\n        /* \"contracts/pollio.sol\":4113:4129  PollType.Private */\n      0x01\n        /* \"contracts/pollio.sol\":4101:4129  pollType == PollType.Private */\n      dup1\n      dup2\n      gt\n      iszero\n      tag_70\n      jumpi\n      tag_71\n      tag_72\n      jump\t// in\n    tag_71:\n    tag_70:\n        /* \"contracts/pollio.sol\":4101:4109  pollType */\n      0x04\n      0x00\n      swap1\n      sload\n      swap1\n      0x0100\n      exp\n      swap1\n      div\n      0xff\n      and\n        /* \"contracts/pollio.sol\":4101:4129  pollType == PollType.Private */\n      0x01\n      dup2\n      gt\n      iszero\n      tag_73\n      jumpi\n      tag_74\n      tag_72\n      jump\t// in\n    tag_74:\n    tag_73:\n      eq\n        /* \"contracts/pollio.sol\":4097:4256  if (pollType == PollType.Private) {... */\n      iszero\n      tag_75\n      jumpi\n        /* \"contracts/pollio.sol\":4160:4170  msg.sender */\n      caller\n        /* \"contracts/pollio.sol\":4153:4170  org == msg.sender */\n      0xffffffffffffffffffffffffffffffffffffffff\n      and\n        /* \"contracts/pollio.sol\":4153:4156  org */\n      0x00\n      dup1\n      sload\n      swap1\n      0x0100\n      exp\n      swap1\n      div\n      0xffffffffffffffffffffffffffffffffffffffff\n      and\n        /* \"contracts/pollio.sol\":4153:4170  org == msg.sender */\n      0xffffffffffffffffffffffffffffffffffffffff\n      and\n      eq\n        /* \"contracts/pollio.sol\":4145:4198  require(org == msg.sender, \"This is a private poll.\") */\n      tag_76\n      jumpi\n      mload(0x40)\n      0x08c379a000000000000000000000000000000000000000000000000000000000\n      dup2\n      mstore\n      0x04\n      add\n      tag_77\n      swap1\n      tag_78\n      jump\t// in\n    tag_77:\n      mload(0x40)\n      dup1\n      swap2\n      sub\n      swap1\n      revert\n    tag_76:\n        /* \"contracts/pollio.sol\":6546:6552  result */\n      0x06\n        /* \"contracts/pollio.sol\":6553:6562  candidate */\n      dup3\n        /* \"contracts/pollio.sol\":6546:6563  result[candidate] */\n      mload(0x40)\n      tag_80\n      swap2\n      swap1\n      tag_81\n      jump\t// in\n    tag_80:\n      swap1\n      dup2\n      mstore\n      0x20\n      add\n      mload(0x40)\n      dup1\n      swap2\n      sub\n      swap1\n      keccak256\n      sload\n        /* \"contracts/pollio.sol\":6539:6563  return result[candidate] */\n      swap1\n      pop\n        /* \"contracts/pollio.sol\":4097:4256  if (pollType == PollType.Private) {... */\n      jump(tag_82)\n    tag_75:\n        /* \"contracts/pollio.sol\":6546:6552  result */\n      0x06\n        /* \"contracts/pollio.sol\":6553:6562  candidate */\n      dup3\n        /* \"contracts/pollio.sol\":6546:6563  result[candidate] */\n      mload(0x40)\n      tag_84\n      swap2\n      swap1\n      tag_81\n      jump\t// in\n    tag_84:\n      swap1\n      dup2\n      mstore\n      0x20\n      add\n      mload(0x40)\n      dup1\n      swap2\n      sub\n      swap1\n      keccak256\n      sload\n        /* \"contracts/pollio.sol\":6539:6563  return result[candidate] */\n      swap1\n      pop\n        /* \"contracts/pollio.sol\":4097:4256  if (pollType == PollType.Private) {... */\n    tag_82:\n        /* \"contracts/pollio.sol\":6425:6570  function getResultOf(... */\n      swap2\n      swap1\n      pop\n      jump\t// out\n        /* \"contracts/pollio.sol\":1689:1713  PollType public pollType */\n    tag_32:\n      0x04\n      0x00\n      swap1\n      sload\n      swap1\n      0x0100\n      exp\n      swap1\n      div\n      0xff\n      and\n      dup2\n      jump\t// out\n        /* \"contracts/pollio.sol\":1598:1620  uint public startBlock */\n    tag_36:\n      sload(0x02)\n      dup2\n      jump\t// out\n        /* \"contracts/pollio.sol\":6006:6109  function endPoll() public beforeEnd onlyOrg ifPollNotEnded {... */\n    tag_39:\n        /* \"contracts/pollio.sol\":3512:3520  endBlock */\n      sload(0x03)\n        /* \"contracts/pollio.sol\":3497:3509  block.number */\n      number\n        /* \"contracts/pollio.sol\":3497:3520  block.number < endBlock */\n      lt\n        /* \"contracts/pollio.sol\":3489:3548  require(block.number < endBlock, \"The poll already ended.\") */\n      tag_86\n      jumpi\n      mload(0x40)\n      0x08c379a000000000000000000000000000000000000000000000000000000000\n      dup2\n      mstore\n      0x04\n      add\n      tag_87\n      swap1\n      tag_88\n      jump\t// in\n    tag_87:\n      mload(0x40)\n      dup1\n      swap2\n      sub\n      swap1\n      revert\n    tag_86:\n        /* \"contracts/pollio.sol\":3280:3290  msg.sender */\n      caller\n        /* \"contracts/pollio.sol\":3273:3290  org == msg.sender */\n      0xffffffffffffffffffffffffffffffffffffffff\n      and\n        /* \"contracts/pollio.sol\":3273:3276  org */\n      0x00\n      dup1\n      sload\n      swap1\n      0x0100\n      exp\n      swap1\n      div\n      0xffffffffffffffffffffffffffffffffffffffff\n      and\n        /* \"contracts/pollio.sol\":3273:3290  org == msg.sender */\n      0xffffffffffffffffffffffffffffffffffffffff\n      and\n      eq\n        /* \"contracts/pollio.sol\":3265:3344  require(org == msg.sender, \"Only the creater of this poll has this privilege.\") */\n      tag_90\n      jumpi\n      mload(0x40)\n      0x08c379a000000000000000000000000000000000000000000000000000000000\n      dup2\n      mstore\n      0x04\n      add\n      tag_91\n      swap1\n      tag_92\n      jump\t// in\n    tag_91:\n      mload(0x40)\n      dup1\n      swap2\n      sub\n      swap1\n      revert\n    tag_90:\n        /* \"contracts/pollio.sol\":3841:3856  PollState.Ended */\n      0x03\n        /* \"contracts/pollio.sol\":3828:3856  pollState != PollState.Ended */\n      dup1\n      dup2\n      gt\n      iszero\n      tag_94\n      jumpi\n      tag_95\n      tag_72\n      jump\t// in\n    tag_95:\n    tag_94:\n        /* \"contracts/pollio.sol\":3828:3837  pollState */\n      0x04\n      0x01\n      swap1\n      sload\n      swap1\n      0x0100\n      exp\n      swap1\n      div\n      0xff\n      and\n        /* \"contracts/pollio.sol\":3828:3856  pollState != PollState.Ended */\n      0x03\n      dup2\n      gt\n      iszero\n      tag_96\n      jumpi\n      tag_97\n      tag_72\n      jump\t// in\n    tag_97:\n    tag_96:\n      eq\n      iszero\n        /* \"contracts/pollio.sol\":3820:3884  require(pollState != PollState.Ended, \"The poll already ended.\") */\n      tag_98\n      jumpi\n      mload(0x40)\n      0x08c379a000000000000000000000000000000000000000000000000000000000\n      dup2\n      mstore\n      0x04\n      add\n      tag_99\n      swap1\n      tag_88\n      jump\t// in\n    tag_99:\n      mload(0x40)\n      dup1\n      swap2\n      sub\n      swap1\n      revert\n    tag_98:\n        /* \"contracts/pollio.sol\":3915:3933  PollState.Canceled */\n      0x02\n        /* \"contracts/pollio.sol\":3902:3933  pollState != PollState.Canceled */\n      0x03\n      dup2\n      gt\n      iszero\n      tag_100\n      jumpi\n      tag_101\n      tag_72\n      jump\t// in\n    tag_101:\n    tag_100:\n        /* \"contracts/pollio.sol\":3902:3911  pollState */\n      0x04\n      0x01\n      swap1\n      sload\n      swap1\n      0x0100\n      exp\n      swap1\n      div\n      0xff\n      and\n        /* \"contracts/pollio.sol\":3902:3933  pollState != PollState.Canceled */\n      0x03\n      dup2\n      gt\n      iszero\n      tag_102\n      jumpi\n      tag_103\n      tag_72\n      jump\t// in\n    tag_103:\n    tag_102:\n      eq\n      iszero\n        /* \"contracts/pollio.sol\":3894:3965  require(pollState != PollState.Canceled, \"The poll has been cancelled\") */\n      tag_104\n      jumpi\n      mload(0x40)\n      0x08c379a000000000000000000000000000000000000000000000000000000000\n      dup2\n      mstore\n      0x04\n      add\n      tag_105\n      swap1\n      tag_106\n      jump\t// in\n    tag_105:\n      mload(0x40)\n      dup1\n      swap2\n      sub\n      swap1\n      revert\n    tag_104:\n        /* \"contracts/pollio.sol\":6087:6102  PollState.Ended */\n      0x03\n        /* \"contracts/pollio.sol\":6075:6084  pollState */\n      0x04\n      0x01\n        /* \"contracts/pollio.sol\":6075:6102  pollState = PollState.Ended */\n      0x0100\n      exp\n      dup2\n      sload\n      dup2\n      0xff\n      mul\n      not\n      and\n      swap1\n      dup4\n      0x03\n      dup2\n      gt\n      iszero\n      tag_108\n      jumpi\n      tag_109\n      tag_72\n      jump\t// in\n    tag_109:\n    tag_108:\n      mul\n      or\n      swap1\n      sstore\n      pop\n        /* \"contracts/pollio.sol\":6006:6109  function endPoll() public beforeEnd onlyOrg ifPollNotEnded {... */\n      jump\t// out\n        /* \"contracts/pollio.sol\":1775:1801  PollState public pollState */\n    tag_41:\n      0x04\n      0x01\n      swap1\n      sload\n      swap1\n      0x0100\n      exp\n      swap1\n      div\n      0xff\n      and\n      dup2\n      jump\t// out\n        /* \"contracts/pollio.sol\":5375:5625  function getPollType() public view returns(string memory) {... */\n    tag_45:\n        /* \"contracts/pollio.sol\":5418:5431  string memory */\n      0x60\n        /* \"contracts/pollio.sol\":5443:5459  string memory pt */\n      0x00\n        /* \"contracts/pollio.sol\":5443:5464  string memory pt = \"\" */\n      mload(0x40)\n      dup1\n      0x20\n      add\n      0x40\n      mstore\n      dup1\n      0x00\n      dup2\n      mstore\n      pop\n      swap1\n      pop\n        /* \"contracts/pollio.sol\":5493:5501  pollType */\n      0x04\n      0x00\n      swap1\n      sload\n      swap1\n      0x0100\n      exp\n      swap1\n      div\n      0xff\n      and\n        /* \"contracts/pollio.sol\":5478:5501  PollType(0) == pollType */\n      0x01\n      dup2\n      gt\n      iszero\n      tag_111\n      jumpi\n      tag_112\n      tag_72\n      jump\t// in\n    tag_112:\n    tag_111:\n        /* \"contracts/pollio.sol\":5487:5488  0 */\n      0x00\n        /* \"contracts/pollio.sol\":5478:5489  PollType(0) */\n      0x01\n      dup2\n      gt\n      iszero\n      tag_113\n      jumpi\n      tag_114\n      tag_72\n      jump\t// in\n    tag_114:\n    tag_113:\n        /* \"contracts/pollio.sol\":5478:5501  PollType(0) == pollType */\n      0x01\n      dup2\n      gt\n      iszero\n      tag_115\n      jumpi\n      tag_116\n      tag_72\n      jump\t// in\n    tag_116:\n    tag_115:\n      eq\n        /* \"contracts/pollio.sol\":5474:5619  if (PollType(0) == pollType) {... */\n      iszero\n      tag_117\n      jumpi\n        /* \"contracts/pollio.sol\":5517:5532  return \"Public\" */\n      mload(0x40)\n      dup1\n      0x40\n      add\n      0x40\n      mstore\n      dup1\n      0x06\n      dup2\n      mstore\n      0x20\n      add\n      0x5075626c69630000000000000000000000000000000000000000000000000000\n      dup2\n      mstore\n      pop\n      swap2\n      pop\n      pop\n      jump(tag_110)\n        /* \"contracts/pollio.sol\":5474:5619  if (PollType(0) == pollType) {... */\n    tag_117:\n        /* \"contracts/pollio.sol\":5568:5576  pollType */\n      0x04\n      0x00\n      swap1\n      sload\n      swap1\n      0x0100\n      exp\n      swap1\n      div\n      0xff\n      and\n        /* \"contracts/pollio.sol\":5553:5576  PollType(1) == pollType */\n      0x01\n      dup2\n      gt\n      iszero\n      tag_119\n      jumpi\n      tag_120\n      tag_72\n      jump\t// in\n    tag_120:\n    tag_119:\n        /* \"contracts/pollio.sol\":5562:5563  1 */\n      0x01\n        /* \"contracts/pollio.sol\":5553:5564  PollType(1) */\n      dup1\n      dup2\n      gt\n      iszero\n      tag_121\n      jumpi\n      tag_122\n      tag_72\n      jump\t// in\n    tag_122:\n    tag_121:\n        /* \"contracts/pollio.sol\":5553:5576  PollType(1) == pollType */\n      0x01\n      dup2\n      gt\n      iszero\n      tag_123\n      jumpi\n      tag_124\n      tag_72\n      jump\t// in\n    tag_124:\n    tag_123:\n      eq\n        /* \"contracts/pollio.sol\":5549:5619  if (PollType(1) == pollType) {... */\n      iszero\n      tag_125\n      jumpi\n        /* \"contracts/pollio.sol\":5592:5608  return \"Private\" */\n      mload(0x40)\n      dup1\n      0x40\n      add\n      0x40\n      mstore\n      dup1\n      0x07\n      dup2\n      mstore\n      0x20\n      add\n      0x5072697661746500000000000000000000000000000000000000000000000000\n      dup2\n      mstore\n      pop\n      swap2\n      pop\n      pop\n      jump(tag_110)\n        /* \"contracts/pollio.sol\":5549:5619  if (PollType(1) == pollType) {... */\n    tag_125:\n        /* \"contracts/pollio.sol\":5433:5625  {... */\n      pop\n        /* \"contracts/pollio.sol\":5375:5625  function getPollType() public view returns(string memory) {... */\n    tag_110:\n      swap1\n      jump\t// out\n        /* \"contracts/pollio.sol\":5764:5873  function cancelPoll() public beforeEnd onlyOrg ifPollNotEnded {... */\n    tag_48:\n        /* \"contracts/pollio.sol\":3512:3520  endBlock */\n      sload(0x03)\n        /* \"contracts/pollio.sol\":3497:3509  block.number */\n      number\n        /* \"contracts/pollio.sol\":3497:3520  block.number < endBlock */\n      lt\n        /* \"contracts/pollio.sol\":3489:3548  require(block.number < endBlock, \"The poll already ended.\") */\n      tag_127\n      jumpi\n      mload(0x40)\n      0x08c379a000000000000000000000000000000000000000000000000000000000\n      dup2\n      mstore\n      0x04\n      add\n      tag_128\n      swap1\n      tag_88\n      jump\t// in\n    tag_128:\n      mload(0x40)\n      dup1\n      swap2\n      sub\n      swap1\n      revert\n    tag_127:\n        /* \"contracts/pollio.sol\":3280:3290  msg.sender */\n      caller\n        /* \"contracts/pollio.sol\":3273:3290  org == msg.sender */\n      0xffffffffffffffffffffffffffffffffffffffff\n      and\n        /* \"contracts/pollio.sol\":3273:3276  org */\n      0x00\n      dup1\n      sload\n      swap1\n      0x0100\n      exp\n      swap1\n      div\n      0xffffffffffffffffffffffffffffffffffffffff\n      and\n        /* \"contracts/pollio.sol\":3273:3290  org == msg.sender */\n      0xffffffffffffffffffffffffffffffffffffffff\n      and\n      eq\n        /* \"contracts/pollio.sol\":3265:3344  require(org == msg.sender, \"Only the creater of this poll has this privilege.\") */\n      tag_130\n      jumpi\n      mload(0x40)\n      0x08c379a000000000000000000000000000000000000000000000000000000000\n      dup2\n      mstore\n      0x04\n      add\n      tag_131\n      swap1\n      tag_92\n      jump\t// in\n    tag_131:\n      mload(0x40)\n      dup1\n      swap2\n      sub\n      swap1\n      revert\n    tag_130:\n        /* \"contracts/pollio.sol\":3841:3856  PollState.Ended */\n      0x03\n        /* \"contracts/pollio.sol\":3828:3856  pollState != PollState.Ended */\n      dup1\n      dup2\n      gt\n      iszero\n      tag_133\n      jumpi\n      tag_134\n      tag_72\n      jump\t// in\n    tag_134:\n    tag_133:\n        /* \"contracts/pollio.sol\":3828:3837  pollState */\n      0x04\n      0x01\n      swap1\n      sload\n      swap1\n      0x0100\n      exp\n      swap1\n      div\n      0xff\n      and\n        /* \"contracts/pollio.sol\":3828:3856  pollState != PollState.Ended */\n      0x03\n      dup2\n      gt\n      iszero\n      tag_135\n      jumpi\n      tag_136\n      tag_72\n      jump\t// in\n    tag_136:\n    tag_135:\n      eq\n      iszero\n        /* \"contracts/pollio.sol\":3820:3884  require(pollState != PollState.Ended, \"The poll already ended.\") */\n      tag_137\n      jumpi\n      mload(0x40)\n      0x08c379a000000000000000000000000000000000000000000000000000000000\n      dup2\n      mstore\n      0x04\n      add\n      tag_138\n      swap1\n      tag_88\n      jump\t// in\n    tag_138:\n      mload(0x40)\n      dup1\n      swap2\n      sub\n      swap1\n      revert\n    tag_137:\n        /* \"contracts/pollio.sol\":3915:3933  PollState.Canceled */\n      0x02\n        /* \"contracts/pollio.sol\":3902:3933  pollState != PollState.Canceled */\n      0x03\n      dup2\n      gt\n      iszero\n      tag_139\n      jumpi\n      tag_140\n      tag_72\n      jump\t// in\n    tag_140:\n    tag_139:\n        /* \"contracts/pollio.sol\":3902:3911  pollState */\n      0x04\n      0x01\n      swap1\n      sload\n      swap1\n      0x0100\n      exp\n      swap1\n      div\n      0xff\n      and\n        /* \"contracts/pollio.sol\":3902:3933  pollState != PollState.Canceled */\n      0x03\n      dup2\n      gt\n      iszero\n      tag_141\n      jumpi\n      tag_142\n      tag_72\n      jump\t// in\n    tag_142:\n    tag_141:\n      eq\n      iszero\n        /* \"contracts/pollio.sol\":3894:3965  require(pollState != PollState.Canceled, \"The poll has been cancelled\") */\n      tag_143\n      jumpi\n      mload(0x40)\n      0x08c379a000000000000000000000000000000000000000000000000000000000\n      dup2\n      mstore\n      0x04\n      add\n      tag_144\n      swap1\n      tag_106\n      jump\t// in\n    tag_144:\n      mload(0x40)\n      dup1\n      swap2\n      sub\n      swap1\n      revert\n    tag_143:\n        /* \"contracts/pollio.sol\":5848:5866  PollState.Canceled */\n      0x02\n        /* \"contracts/pollio.sol\":5836:5845  pollState */\n      0x04\n      0x01\n        /* \"contracts/pollio.sol\":5836:5866  pollState = PollState.Canceled */\n      0x0100\n      exp\n      dup2\n      sload\n      dup2\n      0xff\n      mul\n      not\n      and\n      swap1\n      dup4\n      0x03\n      dup2\n      gt\n      iszero\n      tag_146\n      jumpi\n      tag_147\n      tag_72\n      jump\t// in\n    tag_147:\n    tag_146:\n      mul\n      or\n      swap1\n      sstore\n      pop\n        /* \"contracts/pollio.sol\":5764:5873  function cancelPoll() public beforeEnd onlyOrg ifPollNotEnded {... */\n      jump\t// out\n        /* \"contracts/pollio.sol\":4688:4803  function increasePollDuration(uint pollDuration) public onlyOrg {... */\n    tag_52:\n        /* \"contracts/pollio.sol\":3280:3290  msg.sender */\n      caller\n        /* \"contracts/pollio.sol\":3273:3290  org == msg.sender */\n      0xffffffffffffffffffffffffffffffffffffffff\n      and\n        /* \"contracts/pollio.sol\":3273:3276  org */\n      0x00\n      dup1\n      sload\n      swap1\n      0x0100\n      exp\n      swap1\n      div\n      0xffffffffffffffffffffffffffffffffffffffff\n      and\n        /* \"contracts/pollio.sol\":3273:3290  org == msg.sender */\n      0xffffffffffffffffffffffffffffffffffffffff\n      and\n      eq\n        /* \"contracts/pollio.sol\":3265:3344  require(org == msg.sender, \"Only the creater of this poll has this privilege.\") */\n      tag_149\n      jumpi\n      mload(0x40)\n      0x08c379a000000000000000000000000000000000000000000000000000000000\n      dup2\n      mstore\n      0x04\n      add\n      tag_150\n      swap1\n      tag_92\n      jump\t// in\n    tag_150:\n      mload(0x40)\n      dup1\n      swap2\n      sub\n      swap1\n      revert\n    tag_149:\n        /* \"contracts/pollio.sol\":4784:4796  pollDuration */\n      dup1\n        /* \"contracts/pollio.sol\":4773:4781  endBlock */\n      sload(0x03)\n        /* \"contracts/pollio.sol\":4773:4796  endBlock + pollDuration */\n      tag_152\n      swap2\n      swap1\n      tag_153\n      jump\t// in\n    tag_152:\n        /* \"contracts/pollio.sol\":4762:4770  endBlock */\n      0x03\n        /* \"contracts/pollio.sol\":4762:4796  endBlock = endBlock + pollDuration */\n      dup2\n      swap1\n      sstore\n      pop\n        /* \"contracts/pollio.sol\":4688:4803  function increasePollDuration(uint pollDuration) public onlyOrg {... */\n      pop\n      jump\t// out\n        /* \"contracts/pollio.sol\":5116:5369  function voteFor(string memory candidate) public beforeEnd afterStart ifPollNotEnded {... */\n    tag_55:\n        /* \"contracts/pollio.sol\":3512:3520  endBlock */\n      sload(0x03)\n        /* \"contracts/pollio.sol\":3497:3509  block.number */\n      number\n        /* \"contracts/pollio.sol\":3497:3520  block.number < endBlock */\n      lt\n        /* \"contracts/pollio.sol\":3489:3548  require(block.number < endBlock, \"The poll already ended.\") */\n      tag_155\n      jumpi\n      mload(0x40)\n      0x08c379a000000000000000000000000000000000000000000000000000000000\n      dup2\n      mstore\n      0x04\n      add\n      tag_156\n      swap1\n      tag_88\n      jump\t// in\n    tag_156:\n      mload(0x40)\n      dup1\n      swap2\n      sub\n      swap1\n      revert\n    tag_155:\n        /* \"contracts/pollio.sol\":3718:3728  startBlock */\n      sload(0x02)\n        /* \"contracts/pollio.sol\":3703:3715  block.number */\n      number\n        /* \"contracts/pollio.sol\":3703:3728  block.number > startBlock */\n      gt\n        /* \"contracts/pollio.sol\":3695:3762  require(block.number > startBlock, \"The poll has not started yet.\") */\n      tag_158\n      jumpi\n      mload(0x40)\n      0x08c379a000000000000000000000000000000000000000000000000000000000\n      dup2\n      mstore\n      0x04\n      add\n      tag_159\n      swap1\n      tag_160\n      jump\t// in\n    tag_159:\n      mload(0x40)\n      dup1\n      swap2\n      sub\n      swap1\n      revert\n    tag_158:\n        /* \"contracts/pollio.sol\":3841:3856  PollState.Ended */\n      0x03\n        /* \"contracts/pollio.sol\":3828:3856  pollState != PollState.Ended */\n      dup1\n      dup2\n      gt\n      iszero\n      tag_162\n      jumpi\n      tag_163\n      tag_72\n      jump\t// in\n    tag_163:\n    tag_162:\n        /* \"contracts/pollio.sol\":3828:3837  pollState */\n      0x04\n      0x01\n      swap1\n      sload\n      swap1\n      0x0100\n      exp\n      swap1\n      div\n      0xff\n      and\n        /* \"contracts/pollio.sol\":3828:3856  pollState != PollState.Ended */\n      0x03\n      dup2\n      gt\n      iszero\n      tag_164\n      jumpi\n      tag_165\n      tag_72\n      jump\t// in\n    tag_165:\n    tag_164:\n      eq\n      iszero\n        /* \"contracts/pollio.sol\":3820:3884  require(pollState != PollState.Ended, \"The poll already ended.\") */\n      tag_166\n      jumpi\n      mload(0x40)\n      0x08c379a000000000000000000000000000000000000000000000000000000000\n      dup2\n      mstore\n      0x04\n      add\n      tag_167\n      swap1\n      tag_88\n      jump\t// in\n    tag_167:\n      mload(0x40)\n      dup1\n      swap2\n      sub\n      swap1\n      revert\n    tag_166:\n        /* \"contracts/pollio.sol\":3915:3933  PollState.Canceled */\n      0x02\n        /* \"contracts/pollio.sol\":3902:3933  pollState != PollState.Canceled */\n      0x03\n      dup2\n      gt\n      iszero\n      tag_168\n      jumpi\n      tag_169\n      tag_72\n      jump\t// in\n    tag_169:\n    tag_168:\n        /* \"contracts/pollio.sol\":3902:3911  pollState */\n      0x04\n      0x01\n      swap1\n      sload\n      swap1\n      0x0100\n      exp\n      swap1\n      div\n      0xff\n      and\n        /* \"contracts/pollio.sol\":3902:3933  pollState != PollState.Canceled */\n      0x03\n      dup2\n      gt\n      iszero\n      tag_170\n      jumpi\n      tag_171\n      tag_72\n      jump\t// in\n    tag_171:\n    tag_170:\n      eq\n      iszero\n        /* \"contracts/pollio.sol\":3894:3965  require(pollState != PollState.Canceled, \"The poll has been cancelled\") */\n      tag_172\n      jumpi\n      mload(0x40)\n      0x08c379a000000000000000000000000000000000000000000000000000000000\n      dup2\n      mstore\n      0x04\n      add\n      tag_173\n      swap1\n      tag_106\n      jump\t// in\n    tag_173:\n      mload(0x40)\n      dup1\n      swap2\n      sub\n      swap1\n      revert\n    tag_172:\n        /* \"contracts/pollio.sol\":5211:5224  address voter */\n      0x00\n        /* \"contracts/pollio.sol\":5227:5237  msg.sender */\n      caller\n        /* \"contracts/pollio.sol\":5211:5237  address voter = msg.sender */\n      swap1\n      pop\n        /* \"contracts/pollio.sol\":5256:5263  isVoted */\n      0x05\n        /* \"contracts/pollio.sol\":5256:5270  isVoted[voter] */\n      0x00\n        /* \"contracts/pollio.sol\":5264:5269  voter */\n      dup3\n        /* \"contracts/pollio.sol\":5256:5270  isVoted[voter] */\n      0xffffffffffffffffffffffffffffffffffffffff\n      and\n      0xffffffffffffffffffffffffffffffffffffffff\n      and\n      dup2\n      mstore\n      0x20\n      add\n      swap1\n      dup2\n      mstore\n      0x20\n      add\n      0x00\n      keccak256\n      0x00\n      swap1\n      sload\n      swap1\n      0x0100\n      exp\n      swap1\n      div\n      0xff\n      and\n        /* \"contracts/pollio.sol\":5255:5270  !isVoted[voter] */\n      iszero\n        /* \"contracts/pollio.sol\":5247:5298  require(!isVoted[voter], \"You have already voted!\") */\n      tag_175\n      jumpi\n      mload(0x40)\n      0x08c379a000000000000000000000000000000000000000000000000000000000\n      dup2\n      mstore\n      0x04\n      add\n      tag_176\n      swap1\n      tag_177\n      jump\t// in\n    tag_176:\n      mload(0x40)\n      dup1\n      swap2\n      sub\n      swap1\n      revert\n    tag_175:\n        /* \"contracts/pollio.sol\":5326:5330  true */\n      0x01\n        /* \"contracts/pollio.sol\":5309:5316  isVoted */\n      0x05\n        /* \"contracts/pollio.sol\":5309:5323  isVoted[voter] */\n      0x00\n        /* \"contracts/pollio.sol\":5317:5322  voter */\n      dup4\n        /* \"contracts/pollio.sol\":5309:5323  isVoted[voter] */\n      0xffffffffffffffffffffffffffffffffffffffff\n      and\n      0xffffffffffffffffffffffffffffffffffffffff\n      and\n      dup2\n      mstore\n      0x20\n      add\n      swap1\n      dup2\n      mstore\n      0x20\n      add\n      0x00\n      keccak256\n      0x00\n        /* \"contracts/pollio.sol\":5309:5330  isVoted[voter] = true */\n      0x0100\n      exp\n      dup2\n      sload\n      dup2\n      0xff\n      mul\n      not\n      and\n      swap1\n      dup4\n      iszero\n      iszero\n      mul\n      or\n      swap1\n      sstore\n      pop\n        /* \"contracts/pollio.sol\":5361:5362  1 */\n      0x01\n        /* \"contracts/pollio.sol\":5340:5346  result */\n      0x06\n        /* \"contracts/pollio.sol\":5347:5356  candidate */\n      dup4\n        /* \"contracts/pollio.sol\":5340:5357  result[candidate] */\n      mload(0x40)\n      tag_178\n      swap2\n      swap1\n      tag_81\n      jump\t// in\n    tag_178:\n      swap1\n      dup2\n      mstore\n      0x20\n      add\n      mload(0x40)\n      dup1\n      swap2\n      sub\n      swap1\n      keccak256\n      0x00\n        /* \"contracts/pollio.sol\":5340:5362  result[candidate] += 1 */\n      dup3\n      dup3\n      sload\n      tag_179\n      swap2\n      swap1\n      tag_153\n      jump\t// in\n    tag_179:\n      swap3\n      pop\n      pop\n      dup2\n      swap1\n      sstore\n      pop\n        /* \"contracts/pollio.sol\":5201:5369  {... */\n      pop\n        /* \"contracts/pollio.sol\":5116:5369  function voteFor(string memory candidate) public beforeEnd afterStart ifPollNotEnded {... */\n      pop\n      jump\t// out\n        /* \"contracts/pollio.sol\":4402:4489  function renamePoll(string memory name) public onlyOrg {... */\n    tag_58:\n        /* \"contracts/pollio.sol\":3280:3290  msg.sender */\n      caller\n        /* \"contracts/pollio.sol\":3273:3290  org == msg.sender */\n      0xffffffffffffffffffffffffffffffffffffffff\n      and\n        /* \"contracts/pollio.sol\":3273:3276  org */\n      0x00\n      dup1\n      sload\n      swap1\n      0x0100\n      exp\n      swap1\n      div\n      0xffffffffffffffffffffffffffffffffffffffff\n      and\n        /* \"contracts/pollio.sol\":3273:3290  org == msg.sender */\n      0xffffffffffffffffffffffffffffffffffffffff\n      and\n      eq\n        /* \"contracts/pollio.sol\":3265:3344  require(org == msg.sender, \"Only the creater of this poll has this privilege.\") */\n      tag_181\n      jumpi\n      mload(0x40)\n      0x08c379a000000000000000000000000000000000000000000000000000000000\n      dup2\n      mstore\n      0x04\n      add\n      tag_182\n      swap1\n      tag_92\n      jump\t// in\n    tag_182:\n      mload(0x40)\n      dup1\n      swap2\n      sub\n      swap1\n      revert\n    tag_181:\n        /* \"contracts/pollio.sol\":4478:4482  name */\n      dup1\n        /* \"contracts/pollio.sol\":4467:4475  pollName */\n      0x01\n        /* \"contracts/pollio.sol\":4467:4482  pollName = name */\n      swap1\n      dup1\n      mload\n      swap1\n      0x20\n      add\n      swap1\n      tag_184\n      swap3\n      swap2\n      swap1\n      tag_185\n      jump\t// in\n    tag_184:\n      pop\n        /* \"contracts/pollio.sol\":4402:4489  function renamePoll(string memory name) public onlyOrg {... */\n      pop\n      jump\t// out\n        /* \"contracts/pollio.sol\":1538:1564  address payable public org */\n    tag_60:\n      0x00\n      dup1\n      sload\n      swap1\n      0x0100\n      exp\n      swap1\n      div\n      0xffffffffffffffffffffffffffffffffffffffff\n      and\n      dup2\n      jump\t// out\n    tag_185:\n      dup3\n      dup1\n      sload\n      tag_186\n      swap1\n      tag_64\n      jump\t// in\n    tag_186:\n      swap1\n      0x00\n      mstore\n      keccak256(0x00, 0x20)\n      swap1\n      0x1f\n      add\n      0x20\n      swap1\n      div\n      dup2\n      add\n      swap3\n      dup3\n      tag_188\n      jumpi\n      0x00\n      dup6\n      sstore\n      jump(tag_187)\n    tag_188:\n      dup3\n      0x1f\n      lt\n      tag_189\n      jumpi\n      dup1\n      mload\n      not(0xff)\n      and\n      dup4\n      dup1\n      add\n      or\n      dup6\n      sstore\n      jump(tag_187)\n    tag_189:\n      dup3\n      dup1\n      add\n      0x01\n      add\n      dup6\n      sstore\n      dup3\n      iszero\n      tag_187\n      jumpi\n      swap2\n      dup3\n      add\n    tag_190:\n      dup3\n      dup2\n      gt\n      iszero\n      tag_191\n      jumpi\n      dup3\n      mload\n      dup3\n      sstore\n      swap2\n      0x20\n      add\n      swap2\n      swap1\n      0x01\n      add\n      swap1\n      jump(tag_190)\n    tag_191:\n    tag_187:\n      pop\n      swap1\n      pop\n      tag_192\n      swap2\n      swap1\n      tag_193\n      jump\t// in\n    tag_192:\n      pop\n      swap1\n      jump\t// out\n    tag_193:\n    tag_194:\n      dup1\n      dup3\n      gt\n      iszero\n      tag_195\n      jumpi\n      0x00\n      dup2\n      0x00\n      swap1\n      sstore\n      pop\n      0x01\n      add\n      jump(tag_194)\n    tag_195:\n      pop\n      swap1\n      jump\t// out\n        /* \"#utility.yul\":7:419   */\n    tag_197:\n        /* \"#utility.yul\":85:90   */\n      0x00\n        /* \"#utility.yul\":110:176   */\n      tag_199\n        /* \"#utility.yul\":126:175   */\n      tag_200\n        /* \"#utility.yul\":168:174   */\n      dup5\n        /* \"#utility.yul\":126:175   */\n      tag_201\n      jump\t// in\n    tag_200:\n        /* \"#utility.yul\":110:176   */\n      tag_202\n      jump\t// in\n    tag_199:\n        /* \"#utility.yul\":101:176   */\n      swap1\n      pop\n        /* \"#utility.yul\":199:205   */\n      dup3\n        /* \"#utility.yul\":192:197   */\n      dup2\n        /* \"#utility.yul\":185:206   */\n      mstore\n        /* \"#utility.yul\":237:241   */\n      0x20\n        /* \"#utility.yul\":230:235   */\n      dup2\n        /* \"#utility.yul\":226:242   */\n      add\n        /* \"#utility.yul\":275:278   */\n      dup5\n        /* \"#utility.yul\":266:272   */\n      dup5\n        /* \"#utility.yul\":261:264   */\n      dup5\n        /* \"#utility.yul\":257:273   */\n      add\n        /* \"#utility.yul\":254:279   */\n      gt\n        /* \"#utility.yul\":251:363   */\n      iszero\n      tag_203\n      jumpi\n        /* \"#utility.yul\":282:361   */\n      tag_204\n      tag_205\n      jump\t// in\n    tag_204:\n        /* \"#utility.yul\":251:363   */\n    tag_203:\n        /* \"#utility.yul\":372:413   */\n      tag_206\n        /* \"#utility.yul\":406:412   */\n      dup5\n        /* \"#utility.yul\":401:404   */\n      dup3\n        /* \"#utility.yul\":396:399   */\n      dup6\n        /* \"#utility.yul\":372:413   */\n      tag_207\n      jump\t// in\n    tag_206:\n        /* \"#utility.yul\":91:419   */\n      pop\n        /* \"#utility.yul\":7:419   */\n      swap4\n      swap3\n      pop\n      pop\n      pop\n      jump\t// out\n        /* \"#utility.yul\":439:779   */\n    tag_208:\n        /* \"#utility.yul\":495:500   */\n      0x00\n        /* \"#utility.yul\":544:547   */\n      dup3\n        /* \"#utility.yul\":537:541   */\n      0x1f\n        /* \"#utility.yul\":529:535   */\n      dup4\n        /* \"#utility.yul\":525:542   */\n      add\n        /* \"#utility.yul\":521:548   */\n      slt\n        /* \"#utility.yul\":511:633   */\n      tag_210\n      jumpi\n        /* \"#utility.yul\":552:631   */\n      tag_211\n      tag_212\n      jump\t// in\n    tag_211:\n        /* \"#utility.yul\":511:633   */\n    tag_210:\n        /* \"#utility.yul\":669:675   */\n      dup2\n        /* \"#utility.yul\":656:676   */\n      calldataload\n        /* \"#utility.yul\":694:773   */\n      tag_213\n        /* \"#utility.yul\":769:772   */\n      dup5\n        /* \"#utility.yul\":761:767   */\n      dup3\n        /* \"#utility.yul\":754:758   */\n      0x20\n        /* \"#utility.yul\":746:752   */\n      dup7\n        /* \"#utility.yul\":742:759   */\n      add\n        /* \"#utility.yul\":694:773   */\n      tag_197\n      jump\t// in\n    tag_213:\n        /* \"#utility.yul\":685:773   */\n      swap2\n      pop\n        /* \"#utility.yul\":501:779   */\n      pop\n        /* \"#utility.yul\":439:779   */\n      swap3\n      swap2\n      pop\n      pop\n      jump\t// out\n        /* \"#utility.yul\":785:924   */\n    tag_214:\n        /* \"#utility.yul\":831:836   */\n      0x00\n        /* \"#utility.yul\":869:875   */\n      dup2\n        /* \"#utility.yul\":856:876   */\n      calldataload\n        /* \"#utility.yul\":847:876   */\n      swap1\n      pop\n        /* \"#utility.yul\":885:918   */\n      tag_216\n        /* \"#utility.yul\":912:917   */\n      dup2\n        /* \"#utility.yul\":885:918   */\n      tag_217\n      jump\t// in\n    tag_216:\n        /* \"#utility.yul\":785:924   */\n      swap3\n      swap2\n      pop\n      pop\n      jump\t// out\n        /* \"#utility.yul\":930:1439   */\n    tag_28:\n        /* \"#utility.yul\":999:1005   */\n      0x00\n        /* \"#utility.yul\":1048:1050   */\n      0x20\n        /* \"#utility.yul\":1036:1045   */\n      dup3\n        /* \"#utility.yul\":1027:1034   */\n      dup5\n        /* \"#utility.yul\":1023:1046   */\n      sub\n        /* \"#utility.yul\":1019:1051   */\n      slt\n        /* \"#utility.yul\":1016:1135   */\n      iszero\n      tag_219\n      jumpi\n        /* \"#utility.yul\":1054:1133   */\n      tag_220\n      tag_221\n      jump\t// in\n    tag_220:\n        /* \"#utility.yul\":1016:1135   */\n    tag_219:\n        /* \"#utility.yul\":1202:1203   */\n      0x00\n        /* \"#utility.yul\":1191:1200   */\n      dup3\n        /* \"#utility.yul\":1187:1204   */\n      add\n        /* \"#utility.yul\":1174:1205   */\n      calldataload\n        /* \"#utility.yul\":1232:1250   */\n      0xffffffffffffffff\n        /* \"#utility.yul\":1224:1230   */\n      dup2\n        /* \"#utility.yul\":1221:1251   */\n      gt\n        /* \"#utility.yul\":1218:1335   */\n      iszero\n      tag_222\n      jumpi\n        /* \"#utility.yul\":1254:1333   */\n      tag_223\n      tag_224\n      jump\t// in\n    tag_223:\n        /* \"#utility.yul\":1218:1335   */\n    tag_222:\n        /* \"#utility.yul\":1359:1422   */\n      tag_225\n        /* \"#utility.yul\":1414:1421   */\n      dup5\n        /* \"#utility.yul\":1405:1411   */\n      dup3\n        /* \"#utility.yul\":1394:1403   */\n      dup6\n        /* \"#utility.yul\":1390:1412   */\n      add\n        /* \"#utility.yul\":1359:1422   */\n      tag_208\n      jump\t// in\n    tag_225:\n        /* \"#utility.yul\":1349:1422   */\n      swap2\n      pop\n        /* \"#utility.yul\":1145:1432   */\n      pop\n        /* \"#utility.yul\":930:1439   */\n      swap3\n      swap2\n      pop\n      pop\n      jump\t// out\n        /* \"#utility.yul\":1445:1774   */\n    tag_51:\n        /* \"#utility.yul\":1504:1510   */\n      0x00\n        /* \"#utility.yul\":1553:1555   */\n      0x20\n        /* \"#utility.yul\":1541:1550   */\n      dup3\n        /* \"#utility.yul\":1532:1539   */\n      dup5\n        /* \"#utility.yul\":1528:1551   */\n      sub\n        /* \"#utility.yul\":1524:1556   */\n      slt\n        /* \"#utility.yul\":1521:1640   */\n      iszero\n      tag_227\n      jumpi\n        /* \"#utility.yul\":1559:1638   */\n      tag_228\n      tag_221\n      jump\t// in\n    tag_228:\n        /* \"#utility.yul\":1521:1640   */\n    tag_227:\n        /* \"#utility.yul\":1679:1680   */\n      0x00\n        /* \"#utility.yul\":1704:1757   */\n      tag_229\n        /* \"#utility.yul\":1749:1756   */\n      dup5\n        /* \"#utility.yul\":1740:1746   */\n      dup3\n        /* \"#utility.yul\":1729:1738   */\n      dup6\n        /* \"#utility.yul\":1725:1747   */\n      add\n        /* \"#utility.yul\":1704:1757   */\n      tag_214\n      jump\t// in\n    tag_229:\n        /* \"#utility.yul\":1694:1757   */\n      swap2\n      pop\n        /* \"#utility.yul\":1650:1767   */\n      pop\n        /* \"#utility.yul\":1445:1774   */\n      swap3\n      swap2\n      pop\n      pop\n      jump\t// out\n        /* \"#utility.yul\":1780:1922   */\n    tag_230:\n        /* \"#utility.yul\":1883:1915   */\n      tag_232\n        /* \"#utility.yul\":1909:1914   */\n      dup2\n        /* \"#utility.yul\":1883:1915   */\n      tag_233\n      jump\t// in\n    tag_232:\n        /* \"#utility.yul\":1878:1881   */\n      dup3\n        /* \"#utility.yul\":1871:1916   */\n      mstore\n        /* \"#utility.yul\":1780:1922   */\n      pop\n      pop\n      jump\t// out\n        /* \"#utility.yul\":1928:2079   */\n    tag_234:\n        /* \"#utility.yul\":2025:2072   */\n      tag_236\n        /* \"#utility.yul\":2066:2071   */\n      dup2\n        /* \"#utility.yul\":2025:2072   */\n      tag_237\n      jump\t// in\n    tag_236:\n        /* \"#utility.yul\":2020:2023   */\n      dup3\n        /* \"#utility.yul\":2013:2073   */\n      mstore\n        /* \"#utility.yul\":1928:2079   */\n      pop\n      pop\n      jump\t// out\n        /* \"#utility.yul\":2085:2234   */\n    tag_238:\n        /* \"#utility.yul\":2181:2227   */\n      tag_240\n        /* \"#utility.yul\":2221:2226   */\n      dup2\n        /* \"#utility.yul\":2181:2227   */\n      tag_241\n      jump\t// in\n    tag_240:\n        /* \"#utility.yul\":2176:2179   */\n      dup3\n        /* \"#utility.yul\":2169:2228   */\n      mstore\n        /* \"#utility.yul\":2085:2234   */\n      pop\n      pop\n      jump\t// out\n        /* \"#utility.yul\":2240:2604   */\n    tag_242:\n        /* \"#utility.yul\":2328:2331   */\n      0x00\n        /* \"#utility.yul\":2356:2395   */\n      tag_244\n        /* \"#utility.yul\":2389:2394   */\n      dup3\n        /* \"#utility.yul\":2356:2395   */\n      tag_245\n      jump\t// in\n    tag_244:\n        /* \"#utility.yul\":2411:2482   */\n      tag_246\n        /* \"#utility.yul\":2475:2481   */\n      dup2\n        /* \"#utility.yul\":2470:2473   */\n      dup6\n        /* \"#utility.yul\":2411:2482   */\n      tag_247\n      jump\t// in\n    tag_246:\n        /* \"#utility.yul\":2404:2482   */\n      swap4\n      pop\n        /* \"#utility.yul\":2491:2543   */\n      tag_248\n        /* \"#utility.yul\":2536:2542   */\n      dup2\n        /* \"#utility.yul\":2531:2534   */\n      dup6\n        /* \"#utility.yul\":2524:2528   */\n      0x20\n        /* \"#utility.yul\":2517:2522   */\n      dup7\n        /* \"#utility.yul\":2513:2529   */\n      add\n        /* \"#utility.yul\":2491:2543   */\n      tag_249\n      jump\t// in\n    tag_248:\n        /* \"#utility.yul\":2568:2597   */\n      tag_250\n        /* \"#utility.yul\":2590:2596   */\n      dup2\n        /* \"#utility.yul\":2568:2597   */\n      tag_251\n      jump\t// in\n    tag_250:\n        /* \"#utility.yul\":2563:2566   */\n      dup5\n        /* \"#utility.yul\":2559:2598   */\n      add\n        /* \"#utility.yul\":2552:2598   */\n      swap2\n      pop\n        /* \"#utility.yul\":2332:2604   */\n      pop\n        /* \"#utility.yul\":2240:2604   */\n      swap3\n      swap2\n      pop\n      pop\n      jump\t// out\n        /* \"#utility.yul\":2610:2987   */\n    tag_252:\n        /* \"#utility.yul\":2716:2719   */\n      0x00\n        /* \"#utility.yul\":2744:2783   */\n      tag_254\n        /* \"#utility.yul\":2777:2782   */\n      dup3\n        /* \"#utility.yul\":2744:2783   */\n      tag_245\n      jump\t// in\n    tag_254:\n        /* \"#utility.yul\":2799:2888   */\n      tag_255\n        /* \"#utility.yul\":2881:2887   */\n      dup2\n        /* \"#utility.yul\":2876:2879   */\n      dup6\n        /* \"#utility.yul\":2799:2888   */\n      tag_256\n      jump\t// in\n    tag_255:\n        /* \"#utility.yul\":2792:2888   */\n      swap4\n      pop\n        /* \"#utility.yul\":2897:2949   */\n      tag_257\n        /* \"#utility.yul\":2942:2948   */\n      dup2\n        /* \"#utility.yul\":2937:2940   */\n      dup6\n        /* \"#utility.yul\":2930:2934   */\n      0x20\n        /* \"#utility.yul\":2923:2928   */\n      dup7\n        /* \"#utility.yul\":2919:2935   */\n      add\n        /* \"#utility.yul\":2897:2949   */\n      tag_249\n      jump\t// in\n    tag_257:\n        /* \"#utility.yul\":2974:2980   */\n      dup1\n        /* \"#utility.yul\":2969:2972   */\n      dup5\n        /* \"#utility.yul\":2965:2981   */\n      add\n        /* \"#utility.yul\":2958:2981   */\n      swap2\n      pop\n        /* \"#utility.yul\":2720:2987   */\n      pop\n        /* \"#utility.yul\":2610:2987   */\n      swap3\n      swap2\n      pop\n      pop\n      jump\t// out\n        /* \"#utility.yul\":2993:3359   */\n    tag_258:\n        /* \"#utility.yul\":3135:3138   */\n      0x00\n        /* \"#utility.yul\":3156:3223   */\n      tag_260\n        /* \"#utility.yul\":3220:3222   */\n      0x17\n        /* \"#utility.yul\":3215:3218   */\n      dup4\n        /* \"#utility.yul\":3156:3223   */\n      tag_247\n      jump\t// in\n    tag_260:\n        /* \"#utility.yul\":3149:3223   */\n      swap2\n      pop\n        /* \"#utility.yul\":3232:3325   */\n      tag_261\n        /* \"#utility.yul\":3321:3324   */\n      dup3\n        /* \"#utility.yul\":3232:3325   */\n      tag_262\n      jump\t// in\n    tag_261:\n        /* \"#utility.yul\":3350:3352   */\n      0x20\n        /* \"#utility.yul\":3345:3348   */\n      dup3\n        /* \"#utility.yul\":3341:3353   */\n      add\n        /* \"#utility.yul\":3334:3353   */\n      swap1\n      pop\n        /* \"#utility.yul\":2993:3359   */\n      swap2\n      swap1\n      pop\n      jump\t// out\n        /* \"#utility.yul\":3365:3731   */\n    tag_263:\n        /* \"#utility.yul\":3507:3510   */\n      0x00\n        /* \"#utility.yul\":3528:3595   */\n      tag_265\n        /* \"#utility.yul\":3592:3594   */\n      0x17\n        /* \"#utility.yul\":3587:3590   */\n      dup4\n        /* \"#utility.yul\":3528:3595   */\n      tag_247\n      jump\t// in\n    tag_265:\n        /* \"#utility.yul\":3521:3595   */\n      swap2\n      pop\n        /* \"#utility.yul\":3604:3697   */\n      tag_266\n        /* \"#utility.yul\":3693:3696   */\n      dup3\n        /* \"#utility.yul\":3604:3697   */\n      tag_267\n      jump\t// in\n    tag_266:\n        /* \"#utility.yul\":3722:3724   */\n      0x20\n        /* \"#utility.yul\":3717:3720   */\n      dup3\n        /* \"#utility.yul\":3713:3725   */\n      add\n        /* \"#utility.yul\":3706:3725   */\n      swap1\n      pop\n        /* \"#utility.yul\":3365:3731   */\n      swap2\n      swap1\n      pop\n      jump\t// out\n        /* \"#utility.yul\":3737:4103   */\n    tag_268:\n        /* \"#utility.yul\":3879:3882   */\n      0x00\n        /* \"#utility.yul\":3900:3967   */\n      tag_270\n        /* \"#utility.yul\":3964:3966   */\n      0x17\n        /* \"#utility.yul\":3959:3962   */\n      dup4\n        /* \"#utility.yul\":3900:3967   */\n      tag_247\n      jump\t// in\n    tag_270:\n        /* \"#utility.yul\":3893:3967   */\n      swap2\n      pop\n        /* \"#utility.yul\":3976:4069   */\n      tag_271\n        /* \"#utility.yul\":4065:4068   */\n      dup3\n        /* \"#utility.yul\":3976:4069   */\n      tag_272\n      jump\t// in\n    tag_271:\n        /* \"#utility.yul\":4094:4096   */\n      0x20\n        /* \"#utility.yul\":4089:4092   */\n      dup3\n        /* \"#utility.yul\":4085:4097   */\n      add\n        /* \"#utility.yul\":4078:4097   */\n      swap1\n      pop\n        /* \"#utility.yul\":3737:4103   */\n      swap2\n      swap1\n      pop\n      jump\t// out\n        /* \"#utility.yul\":4109:4475   */\n    tag_273:\n        /* \"#utility.yul\":4251:4254   */\n      0x00\n        /* \"#utility.yul\":4272:4339   */\n      tag_275\n        /* \"#utility.yul\":4336:4338   */\n      0x1b\n        /* \"#utility.yul\":4331:4334   */\n      dup4\n        /* \"#utility.yul\":4272:4339   */\n      tag_247\n      jump\t// in\n    tag_275:\n        /* \"#utility.yul\":4265:4339   */\n      swap2\n      pop\n        /* \"#utility.yul\":4348:4441   */\n      tag_276\n        /* \"#utility.yul\":4437:4440   */\n      dup3\n        /* \"#utility.yul\":4348:4441   */\n      tag_277\n      jump\t// in\n    tag_276:\n        /* \"#utility.yul\":4466:4468   */\n      0x20\n        /* \"#utility.yul\":4461:4464   */\n      dup3\n        /* \"#utility.yul\":4457:4469   */\n      add\n        /* \"#utility.yul\":4450:4469   */\n      swap1\n      pop\n        /* \"#utility.yul\":4109:4475   */\n      swap2\n      swap1\n      pop\n      jump\t// out\n        /* \"#utility.yul\":4481:4847   */\n    tag_278:\n        /* \"#utility.yul\":4623:4626   */\n      0x00\n        /* \"#utility.yul\":4644:4711   */\n      tag_280\n        /* \"#utility.yul\":4708:4710   */\n      0x1d\n        /* \"#utility.yul\":4703:4706   */\n      dup4\n        /* \"#utility.yul\":4644:4711   */\n      tag_247\n      jump\t// in\n    tag_280:\n        /* \"#utility.yul\":4637:4711   */\n      swap2\n      pop\n        /* \"#utility.yul\":4720:4813   */\n      tag_281\n        /* \"#utility.yul\":4809:4812   */\n      dup3\n        /* \"#utility.yul\":4720:4813   */\n      tag_282\n      jump\t// in\n    tag_281:\n        /* \"#utility.yul\":4838:4840   */\n      0x20\n        /* \"#utility.yul\":4833:4836   */\n      dup3\n        /* \"#utility.yul\":4829:4841   */\n      add\n        /* \"#utility.yul\":4822:4841   */\n      swap1\n      pop\n        /* \"#utility.yul\":4481:4847   */\n      swap2\n      swap1\n      pop\n      jump\t// out\n        /* \"#utility.yul\":4853:5219   */\n    tag_283:\n        /* \"#utility.yul\":4995:4998   */\n      0x00\n        /* \"#utility.yul\":5016:5083   */\n      tag_285\n        /* \"#utility.yul\":5080:5082   */\n      0x31\n        /* \"#utility.yul\":5075:5078   */\n      dup4\n        /* \"#utility.yul\":5016:5083   */\n      tag_247\n      jump\t// in\n    tag_285:\n        /* \"#utility.yul\":5009:5083   */\n      swap2\n      pop\n        /* \"#utility.yul\":5092:5185   */\n      tag_286\n        /* \"#utility.yul\":5181:5184   */\n      dup3\n        /* \"#utility.yul\":5092:5185   */\n      tag_287\n      jump\t// in\n    tag_286:\n        /* \"#utility.yul\":5210:5212   */\n      0x40\n        /* \"#utility.yul\":5205:5208   */\n      dup3\n        /* \"#utility.yul\":5201:5213   */\n      add\n        /* \"#utility.yul\":5194:5213   */\n      swap1\n      pop\n        /* \"#utility.yul\":4853:5219   */\n      swap2\n      swap1\n      pop\n      jump\t// out\n        /* \"#utility.yul\":5225:5343   */\n    tag_288:\n        /* \"#utility.yul\":5312:5336   */\n      tag_290\n        /* \"#utility.yul\":5330:5335   */\n      dup2\n        /* \"#utility.yul\":5312:5336   */\n      tag_291\n      jump\t// in\n    tag_290:\n        /* \"#utility.yul\":5307:5310   */\n      dup3\n        /* \"#utility.yul\":5300:5337   */\n      mstore\n        /* \"#utility.yul\":5225:5343   */\n      pop\n      pop\n      jump\t// out\n        /* \"#utility.yul\":5349:5624   */\n    tag_81:\n        /* \"#utility.yul\":5481:5484   */\n      0x00\n        /* \"#utility.yul\":5503:5598   */\n      tag_293\n        /* \"#utility.yul\":5594:5597   */\n      dup3\n        /* \"#utility.yul\":5585:5591   */\n      dup5\n        /* \"#utility.yul\":5503:5598   */\n      tag_252\n      jump\t// in\n    tag_293:\n        /* \"#utility.yul\":5496:5598   */\n      swap2\n      pop\n        /* \"#utility.yul\":5615:5618   */\n      dup2\n        /* \"#utility.yul\":5608:5618   */\n      swap1\n      pop\n        /* \"#utility.yul\":5349:5624   */\n      swap3\n      swap2\n      pop\n      pop\n      jump\t// out\n        /* \"#utility.yul\":5630:5884   */\n    tag_62:\n        /* \"#utility.yul\":5739:5743   */\n      0x00\n        /* \"#utility.yul\":5777:5779   */\n      0x20\n        /* \"#utility.yul\":5766:5775   */\n      dup3\n        /* \"#utility.yul\":5762:5780   */\n      add\n        /* \"#utility.yul\":5754:5780   */\n      swap1\n      pop\n        /* \"#utility.yul\":5790:5877   */\n      tag_295\n        /* \"#utility.yul\":5874:5875   */\n      0x00\n        /* \"#utility.yul\":5863:5872   */\n      dup4\n        /* \"#utility.yul\":5859:5876   */\n      add\n        /* \"#utility.yul\":5850:5856   */\n      dup5\n        /* \"#utility.yul\":5790:5877   */\n      tag_230\n      jump\t// in\n    tag_295:\n        /* \"#utility.yul\":5630:5884   */\n      swap3\n      swap2\n      pop\n      pop\n      jump\t// out\n        /* \"#utility.yul\":5890:6132   */\n    tag_43:\n        /* \"#utility.yul\":5993:5997   */\n      0x00\n        /* \"#utility.yul\":6031:6033   */\n      0x20\n        /* \"#utility.yul\":6020:6029   */\n      dup3\n        /* \"#utility.yul\":6016:6034   */\n      add\n        /* \"#utility.yul\":6008:6034   */\n      swap1\n      pop\n        /* \"#utility.yul\":6044:6125   */\n      tag_297\n        /* \"#utility.yul\":6122:6123   */\n      0x00\n        /* \"#utility.yul\":6111:6120   */\n      dup4\n        /* \"#utility.yul\":6107:6124   */\n      add\n        /* \"#utility.yul\":6098:6104   */\n      dup5\n        /* \"#utility.yul\":6044:6125   */\n      tag_234\n      jump\t// in\n    tag_297:\n        /* \"#utility.yul\":5890:6132   */\n      swap3\n      swap2\n      pop\n      pop\n      jump\t// out\n        /* \"#utility.yul\":6138:6378   */\n    tag_34:\n        /* \"#utility.yul\":6240:6244   */\n      0x00\n        /* \"#utility.yul\":6278:6280   */\n      0x20\n        /* \"#utility.yul\":6267:6276   */\n      dup3\n        /* \"#utility.yul\":6263:6281   */\n      add\n        /* \"#utility.yul\":6255:6281   */\n      swap1\n      pop\n        /* \"#utility.yul\":6291:6371   */\n      tag_299\n        /* \"#utility.yul\":6368:6369   */\n      0x00\n        /* \"#utility.yul\":6357:6366   */\n      dup4\n        /* \"#utility.yul\":6353:6370   */\n      add\n        /* \"#utility.yul\":6344:6350   */\n      dup5\n        /* \"#utility.yul\":6291:6371   */\n      tag_238\n      jump\t// in\n    tag_299:\n        /* \"#utility.yul\":6138:6378   */\n      swap3\n      swap2\n      pop\n      pop\n      jump\t// out\n        /* \"#utility.yul\":6384:6697   */\n    tag_25:\n        /* \"#utility.yul\":6497:6501   */\n      0x00\n        /* \"#utility.yul\":6535:6537   */\n      0x20\n        /* \"#utility.yul\":6524:6533   */\n      dup3\n        /* \"#utility.yul\":6520:6538   */\n      add\n        /* \"#utility.yul\":6512:6538   */\n      swap1\n      pop\n        /* \"#utility.yul\":6584:6593   */\n      dup2\n        /* \"#utility.yul\":6578:6582   */\n      dup2\n        /* \"#utility.yul\":6574:6594   */\n      sub\n        /* \"#utility.yul\":6570:6571   */\n      0x00\n        /* \"#utility.yul\":6559:6568   */\n      dup4\n        /* \"#utility.yul\":6555:6572   */\n      add\n        /* \"#utility.yul\":6548:6595   */\n      mstore\n        /* \"#utility.yul\":6612:6690   */\n      tag_301\n        /* \"#utility.yul\":6685:6689   */\n      dup2\n        /* \"#utility.yul\":6676:6682   */\n      dup5\n        /* \"#utility.yul\":6612:6690   */\n      tag_242\n      jump\t// in\n    tag_301:\n        /* \"#utility.yul\":6604:6690   */\n      swap1\n      pop\n        /* \"#utility.yul\":6384:6697   */\n      swap3\n      swap2\n      pop\n      pop\n      jump\t// out\n        /* \"#utility.yul\":6703:7122   */\n    tag_88:\n        /* \"#utility.yul\":6869:6873   */\n      0x00\n        /* \"#utility.yul\":6907:6909   */\n      0x20\n        /* \"#utility.yul\":6896:6905   */\n      dup3\n        /* \"#utility.yul\":6892:6910   */\n      add\n        /* \"#utility.yul\":6884:6910   */\n      swap1\n      pop\n        /* \"#utility.yul\":6956:6965   */\n      dup2\n        /* \"#utility.yul\":6950:6954   */\n      dup2\n        /* \"#utility.yul\":6946:6966   */\n      sub\n        /* \"#utility.yul\":6942:6943   */\n      0x00\n        /* \"#utility.yul\":6931:6940   */\n      dup4\n        /* \"#utility.yul\":6927:6944   */\n      add\n        /* \"#utility.yul\":6920:6967   */\n      mstore\n        /* \"#utility.yul\":6984:7115   */\n      tag_303\n        /* \"#utility.yul\":7110:7114   */\n      dup2\n        /* \"#utility.yul\":6984:7115   */\n      tag_258\n      jump\t// in\n    tag_303:\n        /* \"#utility.yul\":6976:7115   */\n      swap1\n      pop\n        /* \"#utility.yul\":6703:7122   */\n      swap2\n      swap1\n      pop\n      jump\t// out\n        /* \"#utility.yul\":7128:7547   */\n    tag_78:\n        /* \"#utility.yul\":7294:7298   */\n      0x00\n        /* \"#utility.yul\":7332:7334   */\n      0x20\n        /* \"#utility.yul\":7321:7330   */\n      dup3\n        /* \"#utility.yul\":7317:7335   */\n      add\n        /* \"#utility.yul\":7309:7335   */\n      swap1\n      pop\n        /* \"#utility.yul\":7381:7390   */\n      dup2\n        /* \"#utility.yul\":7375:7379   */\n      dup2\n        /* \"#utility.yul\":7371:7391   */\n      sub\n        /* \"#utility.yul\":7367:7368   */\n      0x00\n        /* \"#utility.yul\":7356:7365   */\n      dup4\n        /* \"#utility.yul\":7352:7369   */\n      add\n        /* \"#utility.yul\":7345:7392   */\n      mstore\n        /* \"#utility.yul\":7409:7540   */\n      tag_305\n        /* \"#utility.yul\":7535:7539   */\n      dup2\n        /* \"#utility.yul\":7409:7540   */\n      tag_263\n      jump\t// in\n    tag_305:\n        /* \"#utility.yul\":7401:7540   */\n      swap1\n      pop\n        /* \"#utility.yul\":7128:7547   */\n      swap2\n      swap1\n      pop\n      jump\t// out\n        /* \"#utility.yul\":7553:7972   */\n    tag_177:\n        /* \"#utility.yul\":7719:7723   */\n      0x00\n        /* \"#utility.yul\":7757:7759   */\n      0x20\n        /* \"#utility.yul\":7746:7755   */\n      dup3\n        /* \"#utility.yul\":7742:7760   */\n      add\n        /* \"#utility.yul\":7734:7760   */\n      swap1\n      pop\n        /* \"#utility.yul\":7806:7815   */\n      dup2\n        /* \"#utility.yul\":7800:7804   */\n      dup2\n        /* \"#utility.yul\":7796:7816   */\n      sub\n        /* \"#utility.yul\":7792:7793   */\n      0x00\n        /* \"#utility.yul\":7781:7790   */\n      dup4\n        /* \"#utility.yul\":7777:7794   */\n      add\n        /* \"#utility.yul\":7770:7817   */\n      mstore\n        /* \"#utility.yul\":7834:7965   */\n      tag_307\n        /* \"#utility.yul\":7960:7964   */\n      dup2\n        /* \"#utility.yul\":7834:7965   */\n      tag_268\n      jump\t// in\n    tag_307:\n        /* \"#utility.yul\":7826:7965   */\n      swap1\n      pop\n        /* \"#utility.yul\":7553:7972   */\n      swap2\n      swap1\n      pop\n      jump\t// out\n        /* \"#utility.yul\":7978:8397   */\n    tag_106:\n        /* \"#utility.yul\":8144:8148   */\n      0x00\n        /* \"#utility.yul\":8182:8184   */\n      0x20\n        /* \"#utility.yul\":8171:8180   */\n      dup3\n        /* \"#utility.yul\":8167:8185   */\n      add\n        /* \"#utility.yul\":8159:8185   */\n      swap1\n      pop\n        /* \"#utility.yul\":8231:8240   */\n      dup2\n        /* \"#utility.yul\":8225:8229   */\n      dup2\n        /* \"#utility.yul\":8221:8241   */\n      sub\n        /* \"#utility.yul\":8217:8218   */\n      0x00\n        /* \"#utility.yul\":8206:8215   */\n      dup4\n        /* \"#utility.yul\":8202:8219   */\n      add\n        /* \"#utility.yul\":8195:8242   */\n      mstore\n        /* \"#utility.yul\":8259:8390   */\n      tag_309\n        /* \"#utility.yul\":8385:8389   */\n      dup2\n        /* \"#utility.yul\":8259:8390   */\n      tag_273\n      jump\t// in\n    tag_309:\n        /* \"#utility.yul\":8251:8390   */\n      swap1\n      pop\n        /* \"#utility.yul\":7978:8397   */\n      swap2\n      swap1\n      pop\n      jump\t// out\n        /* \"#utility.yul\":8403:8822   */\n    tag_160:\n        /* \"#utility.yul\":8569:8573   */\n      0x00\n        /* \"#utility.yul\":8607:8609   */\n      0x20\n        /* \"#utility.yul\":8596:8605   */\n      dup3\n        /* \"#utility.yul\":8592:8610   */\n      add\n        /* \"#utility.yul\":8584:8610   */\n      swap1\n      pop\n        /* \"#utility.yul\":8656:8665   */\n      dup2\n        /* \"#utility.yul\":8650:8654   */\n      dup2\n        /* \"#utility.yul\":8646:8666   */\n      sub\n        /* \"#utility.yul\":8642:8643   */\n      0x00\n        /* \"#utility.yul\":8631:8640   */\n      dup4\n        /* \"#utility.yul\":8627:8644   */\n      add\n        /* \"#utility.yul\":8620:8667   */\n      mstore\n        /* \"#utility.yul\":8684:8815   */\n      tag_311\n        /* \"#utility.yul\":8810:8814   */\n      dup2\n        /* \"#utility.yul\":8684:8815   */\n      tag_278\n      jump\t// in\n    tag_311:\n        /* \"#utility.yul\":8676:8815   */\n      swap1\n      pop\n        /* \"#utility.yul\":8403:8822   */\n      swap2\n      swap1\n      pop\n      jump\t// out\n        /* \"#utility.yul\":8828:9247   */\n    tag_92:\n        /* \"#utility.yul\":8994:8998   */\n      0x00\n        /* \"#utility.yul\":9032:9034   */\n      0x20\n        /* \"#utility.yul\":9021:9030   */\n      dup3\n        /* \"#utility.yul\":9017:9035   */\n      add\n        /* \"#utility.yul\":9009:9035   */\n      swap1\n      pop\n        /* \"#utility.yul\":9081:9090   */\n      dup2\n        /* \"#utility.yul\":9075:9079   */\n      dup2\n        /* \"#utility.yul\":9071:9091   */\n      sub\n        /* \"#utility.yul\":9067:9068   */\n      0x00\n        /* \"#utility.yul\":9056:9065   */\n      dup4\n        /* \"#utility.yul\":9052:9069   */\n      add\n        /* \"#utility.yul\":9045:9092   */\n      mstore\n        /* \"#utility.yul\":9109:9240   */\n      tag_313\n        /* \"#utility.yul\":9235:9239   */\n      dup2\n        /* \"#utility.yul\":9109:9240   */\n      tag_283\n      jump\t// in\n    tag_313:\n        /* \"#utility.yul\":9101:9240   */\n      swap1\n      pop\n        /* \"#utility.yul\":8828:9247   */\n      swap2\n      swap1\n      pop\n      jump\t// out\n        /* \"#utility.yul\":9253:9475   */\n    tag_21:\n        /* \"#utility.yul\":9346:9350   */\n      0x00\n        /* \"#utility.yul\":9384:9386   */\n      0x20\n        /* \"#utility.yul\":9373:9382   */\n      dup3\n        /* \"#utility.yul\":9369:9387   */\n      add\n        /* \"#utility.yul\":9361:9387   */\n      swap1\n      pop\n        /* \"#utility.yul\":9397:9468   */\n      tag_315\n        /* \"#utility.yul\":9465:9466   */\n      0x00\n        /* \"#utility.yul\":9454:9463   */\n      dup4\n        /* \"#utility.yul\":9450:9467   */\n      add\n        /* \"#utility.yul\":9441:9447   */\n      dup5\n        /* \"#utility.yul\":9397:9468   */\n      tag_288\n      jump\t// in\n    tag_315:\n        /* \"#utility.yul\":9253:9475   */\n      swap3\n      swap2\n      pop\n      pop\n      jump\t// out\n        /* \"#utility.yul\":9481:9610   */\n    tag_202:\n        /* \"#utility.yul\":9515:9521   */\n      0x00\n        /* \"#utility.yul\":9542:9562   */\n      tag_317\n      tag_318\n      jump\t// in\n    tag_317:\n        /* \"#utility.yul\":9532:9562   */\n      swap1\n      pop\n        /* \"#utility.yul\":9571:9604   */\n      tag_319\n        /* \"#utility.yul\":9599:9603   */\n      dup3\n        /* \"#utility.yul\":9591:9597   */\n      dup3\n        /* \"#utility.yul\":9571:9604   */\n      tag_320\n      jump\t// in\n    tag_319:\n        /* \"#utility.yul\":9481:9610   */\n      swap2\n      swap1\n      pop\n      jump\t// out\n        /* \"#utility.yul\":9616:9691   */\n    tag_318:\n        /* \"#utility.yul\":9649:9655   */\n      0x00\n        /* \"#utility.yul\":9682:9684   */\n      0x40\n        /* \"#utility.yul\":9676:9685   */\n      mload\n        /* \"#utility.yul\":9666:9685   */\n      swap1\n      pop\n        /* \"#utility.yul\":9616:9691   */\n      swap1\n      jump\t// out\n        /* \"#utility.yul\":9697:10005   */\n    tag_201:\n        /* \"#utility.yul\":9759:9763   */\n      0x00\n        /* \"#utility.yul\":9849:9867   */\n      0xffffffffffffffff\n        /* \"#utility.yul\":9841:9847   */\n      dup3\n        /* \"#utility.yul\":9838:9868   */\n      gt\n        /* \"#utility.yul\":9835:9891   */\n      iszero\n      tag_323\n      jumpi\n        /* \"#utility.yul\":9871:9889   */\n      tag_324\n      tag_325\n      jump\t// in\n    tag_324:\n        /* \"#utility.yul\":9835:9891   */\n    tag_323:\n        /* \"#utility.yul\":9909:9938   */\n      tag_326\n        /* \"#utility.yul\":9931:9937   */\n      dup3\n        /* \"#utility.yul\":9909:9938   */\n      tag_251\n      jump\t// in\n    tag_326:\n        /* \"#utility.yul\":9901:9938   */\n      swap1\n      pop\n        /* \"#utility.yul\":9993:9997   */\n      0x20\n        /* \"#utility.yul\":9987:9991   */\n      dup2\n        /* \"#utility.yul\":9983:9998   */\n      add\n        /* \"#utility.yul\":9975:9998   */\n      swap1\n      pop\n        /* \"#utility.yul\":9697:10005   */\n      swap2\n      swap1\n      pop\n      jump\t// out\n        /* \"#utility.yul\":10011:10110   */\n    tag_245:\n        /* \"#utility.yul\":10063:10069   */\n      0x00\n        /* \"#utility.yul\":10097:10102   */\n      dup2\n        /* \"#utility.yul\":10091:10103   */\n      mload\n        /* \"#utility.yul\":10081:10103   */\n      swap1\n      pop\n        /* \"#utility.yul\":10011:10110   */\n      swap2\n      swap1\n      pop\n      jump\t// out\n        /* \"#utility.yul\":10116:10285   */\n    tag_247:\n        /* \"#utility.yul\":10200:10211   */\n      0x00\n        /* \"#utility.yul\":10234:10240   */\n      dup3\n        /* \"#utility.yul\":10229:10232   */\n      dup3\n        /* \"#utility.yul\":10222:10241   */\n      mstore\n        /* \"#utility.yul\":10274:10278   */\n      0x20\n        /* \"#utility.yul\":10269:10272   */\n      dup3\n        /* \"#utility.yul\":10265:10279   */\n      add\n        /* \"#utility.yul\":10250:10279   */\n      swap1\n      pop\n        /* \"#utility.yul\":10116:10285   */\n      swap3\n      swap2\n      pop\n      pop\n      jump\t// out\n        /* \"#utility.yul\":10291:10439   */\n    tag_256:\n        /* \"#utility.yul\":10393:10404   */\n      0x00\n        /* \"#utility.yul\":10430:10433   */\n      dup2\n        /* \"#utility.yul\":10415:10433   */\n      swap1\n      pop\n        /* \"#utility.yul\":10291:10439   */\n      swap3\n      swap2\n      pop\n      pop\n      jump\t// out\n        /* \"#utility.yul\":10445:10750   */\n    tag_153:\n        /* \"#utility.yul\":10485:10488   */\n      0x00\n        /* \"#utility.yul\":10504:10524   */\n      tag_331\n        /* \"#utility.yul\":10522:10523   */\n      dup3\n        /* \"#utility.yul\":10504:10524   */\n      tag_291\n      jump\t// in\n    tag_331:\n        /* \"#utility.yul\":10499:10524   */\n      swap2\n      pop\n        /* \"#utility.yul\":10538:10558   */\n      tag_332\n        /* \"#utility.yul\":10556:10557   */\n      dup4\n        /* \"#utility.yul\":10538:10558   */\n      tag_291\n      jump\t// in\n    tag_332:\n        /* \"#utility.yul\":10533:10558   */\n      swap3\n      pop\n        /* \"#utility.yul\":10692:10693   */\n      dup3\n        /* \"#utility.yul\":10624:10690   */\n      0xffffffffffffffffffffffffffffffffffffffffffffffffffffffffffffffff\n        /* \"#utility.yul\":10620:10694   */\n      sub\n        /* \"#utility.yul\":10617:10618   */\n      dup3\n        /* \"#utility.yul\":10614:10695   */\n      gt\n        /* \"#utility.yul\":10611:10718   */\n      iszero\n      tag_333\n      jumpi\n        /* \"#utility.yul\":10698:10716   */\n      tag_334\n      tag_335\n      jump\t// in\n    tag_334:\n        /* \"#utility.yul\":10611:10718   */\n    tag_333:\n        /* \"#utility.yul\":10742:10743   */\n      dup3\n        /* \"#utility.yul\":10739:10740   */\n      dup3\n        /* \"#utility.yul\":10735:10744   */\n      add\n        /* \"#utility.yul\":10728:10744   */\n      swap1\n      pop\n        /* \"#utility.yul\":10445:10750   */\n      swap3\n      swap2\n      pop\n      pop\n      jump\t// out\n        /* \"#utility.yul\":10756:10860   */\n    tag_233:\n        /* \"#utility.yul\":10801:10808   */\n      0x00\n        /* \"#utility.yul\":10830:10854   */\n      tag_337\n        /* \"#utility.yul\":10848:10853   */\n      dup3\n        /* \"#utility.yul\":10830:10854   */\n      tag_338\n      jump\t// in\n    tag_337:\n        /* \"#utility.yul\":10819:10854   */\n      swap1\n      pop\n        /* \"#utility.yul\":10756:10860   */\n      swap2\n      swap1\n      pop\n      jump\t// out\n        /* \"#utility.yul\":10866:11001   */\n    tag_339:\n        /* \"#utility.yul\":10915:10922   */\n      0x00\n        /* \"#utility.yul\":10944:10949   */\n      dup2\n        /* \"#utility.yul\":10933:10949   */\n      swap1\n      pop\n        /* \"#utility.yul\":10950:10995   */\n      tag_341\n        /* \"#utility.yul\":10989:10994   */\n      dup3\n        /* \"#utility.yul\":10950:10995   */\n      tag_342\n      jump\t// in\n    tag_341:\n        /* \"#utility.yul\":10866:11001   */\n      swap2\n      swap1\n      pop\n      jump\t// out\n        /* \"#utility.yul\":11007:11140   */\n    tag_343:\n        /* \"#utility.yul\":11055:11062   */\n      0x00\n        /* \"#utility.yul\":11084:11089   */\n      dup2\n        /* \"#utility.yul\":11073:11089   */\n      swap1\n      pop\n        /* \"#utility.yul\":11090:11134   */\n      tag_345\n        /* \"#utility.yul\":11128:11133   */\n      dup3\n        /* \"#utility.yul\":11090:11134   */\n      tag_346\n      jump\t// in\n    tag_345:\n        /* \"#utility.yul\":11007:11140   */\n      swap2\n      swap1\n      pop\n      jump\t// out\n        /* \"#utility.yul\":11146:11272   */\n    tag_338:\n        /* \"#utility.yul\":11183:11190   */\n      0x00\n        /* \"#utility.yul\":11223:11265   */\n      0xffffffffffffffffffffffffffffffffffffffff\n        /* \"#utility.yul\":11216:11221   */\n      dup3\n        /* \"#utility.yul\":11212:11266   */\n      and\n        /* \"#utility.yul\":11201:11266   */\n      swap1\n      pop\n        /* \"#utility.yul\":11146:11272   */\n      swap2\n      swap1\n      pop\n      jump\t// out\n        /* \"#utility.yul\":11278:11355   */\n    tag_291:\n        /* \"#utility.yul\":11315:11322   */\n      0x00\n        /* \"#utility.yul\":11344:11349   */\n      dup2\n        /* \"#utility.yul\":11333:11349   */\n      swap1\n      pop\n        /* \"#utility.yul\":11278:11355   */\n      swap2\n      swap1\n      pop\n      jump\t// out\n        /* \"#utility.yul\":11361:11496   */\n    tag_237:\n        /* \"#utility.yul\":11421:11430   */\n      0x00\n        /* \"#utility.yul\":11454:11490   */\n      tag_350\n        /* \"#utility.yul\":11484:11489   */\n      dup3\n        /* \"#utility.yul\":11454:11490   */\n      tag_339\n      jump\t// in\n    tag_350:\n        /* \"#utility.yul\":11441:11490   */\n      swap1\n      pop\n        /* \"#utility.yul\":11361:11496   */\n      swap2\n      swap1\n      pop\n      jump\t// out\n        /* \"#utility.yul\":11502:11635   */\n    tag_241:\n        /* \"#utility.yul\":11561:11570   */\n      0x00\n        /* \"#utility.yul\":11594:11629   */\n      tag_352\n        /* \"#utility.yul\":11623:11628   */\n      dup3\n        /* \"#utility.yul\":11594:11629   */\n      tag_343\n      jump\t// in\n    tag_352:\n        /* \"#utility.yul\":11581:11629   */\n      swap1\n      pop\n        /* \"#utility.yul\":11502:11635   */\n      swap2\n      swap1\n      pop\n      jump\t// out\n        /* \"#utility.yul\":11641:11795   */\n    tag_207:\n        /* \"#utility.yul\":11725:11731   */\n      dup3\n        /* \"#utility.yul\":11720:11723   */\n      dup2\n        /* \"#utility.yul\":11715:11718   */\n      dup4\n        /* \"#utility.yul\":11702:11732   */\n      calldatacopy\n        /* \"#utility.yul\":11787:11788   */\n      0x00\n        /* \"#utility.yul\":11778:11784   */\n      dup4\n        /* \"#utility.yul\":11773:11776   */\n      dup4\n        /* \"#utility.yul\":11769:11785   */\n      add\n        /* \"#utility.yul\":11762:11789   */\n      mstore\n        /* \"#utility.yul\":11641:11795   */\n      pop\n      pop\n      pop\n      jump\t// out\n        /* \"#utility.yul\":11801:12108   */\n    tag_249:\n        /* \"#utility.yul\":11869:11870   */\n      0x00\n        /* \"#utility.yul\":11879:11992   */\n    tag_355:\n        /* \"#utility.yul\":11893:11899   */\n      dup4\n        /* \"#utility.yul\":11890:11891   */\n      dup2\n        /* \"#utility.yul\":11887:11900   */\n      lt\n        /* \"#utility.yul\":11879:11992   */\n      iszero\n      tag_357\n      jumpi\n        /* \"#utility.yul\":11978:11979   */\n      dup1\n        /* \"#utility.yul\":11973:11976   */\n      dup3\n        /* \"#utility.yul\":11969:11980   */\n      add\n        /* \"#utility.yul\":11963:11981   */\n      mload\n        /* \"#utility.yul\":11959:11960   */\n      dup2\n        /* \"#utility.yul\":11954:11957   */\n      dup5\n        /* \"#utility.yul\":11950:11961   */\n      add\n        /* \"#utility.yul\":11943:11982   */\n      mstore\n        /* \"#utility.yul\":11915:11917   */\n      0x20\n        /* \"#utility.yul\":11912:11913   */\n      dup2\n        /* \"#utility.yul\":11908:11918   */\n      add\n        /* \"#utility.yul\":11903:11918   */\n      swap1\n      pop\n        /* \"#utility.yul\":11879:11992   */\n      jump(tag_355)\n    tag_357:\n        /* \"#utility.yul\":12010:12016   */\n      dup4\n        /* \"#utility.yul\":12007:12008   */\n      dup2\n        /* \"#utility.yul\":12004:12017   */\n      gt\n        /* \"#utility.yul\":12001:12102   */\n      iszero\n      tag_358\n      jumpi\n        /* \"#utility.yul\":12090:12091   */\n      0x00\n        /* \"#utility.yul\":12081:12087   */\n      dup5\n        /* \"#utility.yul\":12076:12079   */\n      dup5\n        /* \"#utility.yul\":12072:12088   */\n      add\n        /* \"#utility.yul\":12065:12092   */\n      mstore\n        /* \"#utility.yul\":12001:12102   */\n    tag_358:\n        /* \"#utility.yul\":11850:12108   */\n      pop\n        /* \"#utility.yul\":11801:12108   */\n      pop\n      pop\n      pop\n      jump\t// out\n        /* \"#utility.yul\":12114:12434   */\n    tag_64:\n        /* \"#utility.yul\":12158:12164   */\n      0x00\n        /* \"#utility.yul\":12195:12196   */\n      0x02\n        /* \"#utility.yul\":12189:12193   */\n      dup3\n        /* \"#utility.yul\":12185:12197   */\n      div\n        /* \"#utility.yul\":12175:12197   */\n      swap1\n      pop\n        /* \"#utility.yul\":12242:12243   */\n      0x01\n        /* \"#utility.yul\":12236:12240   */\n      dup3\n        /* \"#utility.yul\":12232:12244   */\n      and\n        /* \"#utility.yul\":12263:12281   */\n      dup1\n        /* \"#utility.yul\":12253:12334   */\n      tag_360\n      jumpi\n        /* \"#utility.yul\":12319:12323   */\n      0x7f\n        /* \"#utility.yul\":12311:12317   */\n      dup3\n        /* \"#utility.yul\":12307:12324   */\n      and\n        /* \"#utility.yul\":12297:12324   */\n      swap2\n      pop\n        /* \"#utility.yul\":12253:12334   */\n    tag_360:\n        /* \"#utility.yul\":12381:12383   */\n      0x20\n        /* \"#utility.yul\":12373:12379   */\n      dup3\n        /* \"#utility.yul\":12370:12384   */\n      lt\n        /* \"#utility.yul\":12350:12368   */\n      dup2\n        /* \"#utility.yul\":12347:12385   */\n      eq\n        /* \"#utility.yul\":12344:12428   */\n      iszero\n      tag_361\n      jumpi\n        /* \"#utility.yul\":12400:12418   */\n      tag_362\n      tag_363\n      jump\t// in\n    tag_362:\n        /* \"#utility.yul\":12344:12428   */\n    tag_361:\n        /* \"#utility.yul\":12165:12434   */\n      pop\n        /* \"#utility.yul\":12114:12434   */\n      swap2\n      swap1\n      pop\n      jump\t// out\n        /* \"#utility.yul\":12440:12721   */\n    tag_320:\n        /* \"#utility.yul\":12523:12550   */\n      tag_365\n        /* \"#utility.yul\":12545:12549   */\n      dup3\n        /* \"#utility.yul\":12523:12550   */\n      tag_251\n      jump\t// in\n    tag_365:\n        /* \"#utility.yul\":12515:12521   */\n      dup2\n        /* \"#utility.yul\":12511:12551   */\n      add\n        /* \"#utility.yul\":12653:12659   */\n      dup2\n        /* \"#utility.yul\":12641:12651   */\n      dup2\n        /* \"#utility.yul\":12638:12660   */\n      lt\n        /* \"#utility.yul\":12617:12635   */\n      0xffffffffffffffff\n        /* \"#utility.yul\":12605:12615   */\n      dup3\n        /* \"#utility.yul\":12602:12636   */\n      gt\n        /* \"#utility.yul\":12599:12661   */\n      or\n        /* \"#utility.yul\":12596:12684   */\n      iszero\n      tag_366\n      jumpi\n        /* \"#utility.yul\":12664:12682   */\n      tag_367\n      tag_325\n      jump\t// in\n    tag_367:\n        /* \"#utility.yul\":12596:12684   */\n    tag_366:\n        /* \"#utility.yul\":12704:12714   */\n      dup1\n        /* \"#utility.yul\":12700:12702   */\n      0x40\n        /* \"#utility.yul\":12693:12715   */\n      mstore\n        /* \"#utility.yul\":12483:12721   */\n      pop\n        /* \"#utility.yul\":12440:12721   */\n      pop\n      pop\n      jump\t// out\n        /* \"#utility.yul\":12727:12907   */\n    tag_335:\n        /* \"#utility.yul\":12775:12852   */\n      0x4e487b7100000000000000000000000000000000000000000000000000000000\n        /* \"#utility.yul\":12772:12773   */\n      0x00\n        /* \"#utility.yul\":12765:12853   */\n      mstore\n        /* \"#utility.yul\":12872:12876   */\n      0x11\n        /* \"#utility.yul\":12869:12870   */\n      0x04\n        /* \"#utility.yul\":12862:12877   */\n      mstore\n        /* \"#utility.yul\":12896:12900   */\n      0x24\n        /* \"#utility.yul\":12893:12894   */\n      0x00\n        /* \"#utility.yul\":12886:12901   */\n      revert\n        /* \"#utility.yul\":12913:13093   */\n    tag_72:\n        /* \"#utility.yul\":12961:13038   */\n      0x4e487b7100000000000000000000000000000000000000000000000000000000\n        /* \"#utility.yul\":12958:12959   */\n      0x00\n        /* \"#utility.yul\":12951:13039   */\n      mstore\n        /* \"#utility.yul\":13058:13062   */\n      0x21\n        /* \"#utility.yul\":13055:13056   */\n      0x04\n        /* \"#utility.yul\":13048:13063   */\n      mstore\n        /* \"#utility.yul\":13082:13086   */\n      0x24\n        /* \"#utility.yul\":13079:13080   */\n      0x00\n        /* \"#utility.yul\":13072:13087   */\n      revert\n        /* \"#utility.yul\":13099:13279   */\n    tag_363:\n        /* \"#utility.yul\":13147:13224   */\n      0x4e487b7100000000000000000000000000000000000000000000000000000000\n        /* \"#utility.yul\":13144:13145   */\n      0x00\n        /* \"#utility.yul\":13137:13225   */\n      mstore\n        /* \"#utility.yul\":13244:13248   */\n      0x22\n        /* \"#utility.yul\":13241:13242   */\n      0x04\n        /* \"#utility.yul\":13234:13249   */\n      mstore\n        /* \"#utility.yul\":13268:13272   */\n      0x24\n        /* \"#utility.yul\":13265:13266   */\n      0x00\n        /* \"#utility.yul\":13258:13273   */\n      revert\n        /* \"#utility.yul\":13285:13465   */\n    tag_325:\n        /* \"#utility.yul\":13333:13410   */\n      0x4e487b7100000000000000000000000000000000000000000000000000000000\n        /* \"#utility.yul\":13330:13331   */\n      0x00\n        /* \"#utility.yul\":13323:13411   */\n      mstore\n        /* \"#utility.yul\":13430:13434   */\n      0x41\n        /* \"#utility.yul\":13427:13428   */\n      0x04\n        /* \"#utility.yul\":13420:13435   */\n      mstore\n        /* \"#utility.yul\":13454:13458   */\n      0x24\n        /* \"#utility.yul\":13451:13452   */\n      0x00\n        /* \"#utility.yul\":13444:13459   */\n      revert\n        /* \"#utility.yul\":13471:13588   */\n    tag_212:\n        /* \"#utility.yul\":13580:13581   */\n      0x00\n        /* \"#utility.yul\":13577:13578   */\n      dup1\n        /* \"#utility.yul\":13570:13582   */\n      revert\n        /* \"#utility.yul\":13594:13711   */\n    tag_205:\n        /* \"#utility.yul\":13703:13704   */\n      0x00\n        /* \"#utility.yul\":13700:13701   */\n      dup1\n        /* \"#utility.yul\":13693:13705   */\n      revert\n        /* \"#utility.yul\":13717:13834   */\n    tag_224:\n        /* \"#utility.yul\":13826:13827   */\n      0x00\n        /* \"#utility.yul\":13823:13824   */\n      dup1\n        /* \"#utility.yul\":13816:13828   */\n      revert\n        /* \"#utility.yul\":13840:13957   */\n    tag_221:\n        /* \"#utility.yul\":13949:13950   */\n      0x00\n        /* \"#utility.yul\":13946:13947   */\n      dup1\n        /* \"#utility.yul\":13939:13951   */\n      revert\n        /* \"#utility.yul\":13963:14065   */\n    tag_251:\n        /* \"#utility.yul\":14004:14010   */\n      0x00\n        /* \"#utility.yul\":14055:14057   */\n      0x1f\n        /* \"#utility.yul\":14051:14058   */\n      not\n        /* \"#utility.yul\":14046:14048   */\n      0x1f\n        /* \"#utility.yul\":14039:14044   */\n      dup4\n        /* \"#utility.yul\":14035:14049   */\n      add\n        /* \"#utility.yul\":14031:14059   */\n      and\n        /* \"#utility.yul\":14021:14059   */\n      swap1\n      pop\n        /* \"#utility.yul\":13963:14065   */\n      swap2\n      swap1\n      pop\n      jump\t// out\n        /* \"#utility.yul\":14071:14244   */\n    tag_262:\n        /* \"#utility.yul\":14211:14236   */\n      0x54686520706f6c6c20616c726561647920656e6465642e000000000000000000\n        /* \"#utility.yul\":14207:14208   */\n      0x00\n        /* \"#utility.yul\":14199:14205   */\n      dup3\n        /* \"#utility.yul\":14195:14209   */\n      add\n        /* \"#utility.yul\":14188:14237   */\n      mstore\n        /* \"#utility.yul\":14071:14244   */\n      pop\n      jump\t// out\n        /* \"#utility.yul\":14250:14423   */\n    tag_267:\n        /* \"#utility.yul\":14390:14415   */\n      0x546869732069732061207072697661746520706f6c6c2e000000000000000000\n        /* \"#utility.yul\":14386:14387   */\n      0x00\n        /* \"#utility.yul\":14378:14384   */\n      dup3\n        /* \"#utility.yul\":14374:14388   */\n      add\n        /* \"#utility.yul\":14367:14416   */\n      mstore\n        /* \"#utility.yul\":14250:14423   */\n      pop\n      jump\t// out\n        /* \"#utility.yul\":14429:14602   */\n    tag_272:\n        /* \"#utility.yul\":14569:14594   */\n      0x596f75206861766520616c726561647920766f74656421000000000000000000\n        /* \"#utility.yul\":14565:14566   */\n      0x00\n        /* \"#utility.yul\":14557:14563   */\n      dup3\n        /* \"#utility.yul\":14553:14567   */\n      add\n        /* \"#utility.yul\":14546:14595   */\n      mstore\n        /* \"#utility.yul\":14429:14602   */\n      pop\n      jump\t// out\n        /* \"#utility.yul\":14608:14785   */\n    tag_277:\n        /* \"#utility.yul\":14748:14777   */\n      0x54686520706f6c6c20686173206265656e2063616e63656c6c65640000000000\n        /* \"#utility.yul\":14744:14745   */\n      0x00\n        /* \"#utility.yul\":14736:14742   */\n      dup3\n        /* \"#utility.yul\":14732:14746   */\n      add\n        /* \"#utility.yul\":14725:14778   */\n      mstore\n        /* \"#utility.yul\":14608:14785   */\n      pop\n      jump\t// out\n        /* \"#utility.yul\":14791:14970   */\n    tag_282:\n        /* \"#utility.yul\":14931:14962   */\n      0x54686520706f6c6c20686173206e6f742073746172746564207965742e000000\n        /* \"#utility.yul\":14927:14928   */\n      0x00\n        /* \"#utility.yul\":14919:14925   */\n      dup3\n        /* \"#utility.yul\":14915:14929   */\n      add\n        /* \"#utility.yul\":14908:14963   */\n      mstore\n        /* \"#utility.yul\":14791:14970   */\n      pop\n      jump\t// out\n        /* \"#utility.yul\":14976:15212   */\n    tag_287:\n        /* \"#utility.yul\":15116:15150   */\n      0x4f6e6c79207468652063726561746572206f66207468697320706f6c6c206861\n        /* \"#utility.yul\":15112:15113   */\n      0x00\n        /* \"#utility.yul\":15104:15110   */\n      dup3\n        /* \"#utility.yul\":15100:15114   */\n      add\n        /* \"#utility.yul\":15093:15151   */\n      mstore\n        /* \"#utility.yul\":15185:15204   */\n      0x7320746869732070726976696c6567652e000000000000000000000000000000\n        /* \"#utility.yul\":15180:15182   */\n      0x20\n        /* \"#utility.yul\":15172:15178   */\n      dup3\n        /* \"#utility.yul\":15168:15183   */\n      add\n        /* \"#utility.yul\":15161:15205   */\n      mstore\n        /* \"#utility.yul\":14976:15212   */\n      pop\n      jump\t// out\n        /* \"#utility.yul\":15218:15335   */\n    tag_342:\n        /* \"#utility.yul\":15303:15304   */\n      0x04\n        /* \"#utility.yul\":15296:15301   */\n      dup2\n        /* \"#utility.yul\":15293:15305   */\n      lt\n        /* \"#utility.yul\":15283:15329   */\n      tag_384\n      jumpi\n        /* \"#utility.yul\":15309:15327   */\n      tag_385\n      tag_72\n      jump\t// in\n    tag_385:\n        /* \"#utility.yul\":15283:15329   */\n    tag_384:\n        /* \"#utility.yul\":15218:15335   */\n      pop\n      jump\t// out\n        /* \"#utility.yul\":15341:15457   */\n    tag_346:\n        /* \"#utility.yul\":15425:15426   */\n      0x02\n        /* \"#utility.yul\":15418:15423   */\n      dup2\n        /* \"#utility.yul\":15415:15427   */\n      lt\n        /* \"#utility.yul\":15405:15451   */\n      tag_387\n      jumpi\n        /* \"#utility.yul\":15431:15449   */\n      tag_388\n      tag_72\n      jump\t// in\n    tag_388:\n        /* \"#utility.yul\":15405:15451   */\n    tag_387:\n        /* \"#utility.yul\":15341:15457   */\n      pop\n      jump\t// out\n        /* \"#utility.yul\":15463:15585   */\n    tag_217:\n        /* \"#utility.yul\":15536:15560   */\n      tag_390\n        /* \"#utility.yul\":15554:15559   */\n      dup2\n        /* \"#utility.yul\":15536:15560   */\n      tag_291\n      jump\t// in\n    tag_390:\n        /* \"#utility.yul\":15529:15534   */\n      dup2\n        /* \"#utility.yul\":15526:15561   */\n      eq\n        /* \"#utility.yul\":15516:15579   */\n      tag_391\n      jumpi\n        /* \"#utility.yul\":15575:15576   */\n      0x00\n        /* \"#utility.yul\":15572:15573   */\n      dup1\n        /* \"#utility.yul\":15565:15577   */\n      revert\n        /* \"#utility.yul\":15516:15579   */\n    tag_391:\n        /* \"#utility.yul\":15463:15585   */\n      pop\n      jump\t// out\n\n    auxdata: 0xa26469706673582212205e259b0340b85cd0ca8e06b744e4fc29273720882fbcf6d209b143bfcb0d437d64736f6c63430008070033\n}\n",
				"bytecode": {
					"linkReferences": {},
					"object": "60806040523480156200001157600080fd5b5060405162001f7a38038062001f7a833981810160405281019062000037919062000441565b846000806101000a81548173ffffffffffffffffffffffffffffffffffffffff021916908373ffffffffffffffffffffffffffffffffffffffff16021790555083600190805190602001906200008f92919062000216565b504360028190555082600254620000a7919062000658565b6003819055506001600460016101000a81548160ff02191690836003811115620000d657620000d562000812565b5b0217905550604051602001620000ec906200059d565b604051602081830303815290604052805190602001208160405160200162000115919062000584565b60405160208183030381529060405280519060200120141562000166576000600460006101000a81548160ff021916908360018111156200015b576200015a62000812565b5b0217905550620001a4565b6001808111156200017c576200017b62000812565b5b600460009054906101000a900460ff166001811115620001a157620001a062000812565b5b50505b60005b82518110156200020a5760006006848381518110620001cb57620001ca62000870565b5b6020026020010151604051620001e2919062000584565b9081526020016040518091039020819055508080620002019062000795565b915050620001a7565b50505050505062000955565b828054620002249062000729565b90600052602060002090601f01602090048101928262000248576000855562000294565b82601f106200026357805160ff191683800117855562000294565b8280016001018555821562000294579182015b828111156200029357825182559160200191906001019062000276565b5b509050620002a39190620002a7565b5090565b5b80821115620002c2576000816000905550600101620002a8565b5090565b6000620002dd620002d784620005dd565b620005b4565b90508083825260208201905082856020860282011115620003035762000302620008d3565b5b60005b858110156200035857815167ffffffffffffffff8111156200032d576200032c620008ce565b5b8086016200033c8982620003f7565b8552602085019450602084019350505060018101905062000306565b5050509392505050565b60006200037962000373846200060c565b620005b4565b905082815260208101848484011115620003985762000397620008d8565b5b620003a5848285620006f3565b509392505050565b600081519050620003be8162000921565b92915050565b600082601f830112620003dc57620003db620008ce565b5b8151620003ee848260208601620002c6565b91505092915050565b600082601f8301126200040f576200040e620008ce565b5b81516200042184826020860162000362565b91505092915050565b6000815190506200043b816200093b565b92915050565b600080600080600060a0868803121562000460576200045f620008e2565b5b60006200047088828901620003ad565b955050602086015167ffffffffffffffff811115620004945762000493620008dd565b5b620004a288828901620003f7565b9450506040620004b5888289016200042a565b935050606086015167ffffffffffffffff811115620004d957620004d8620008dd565b5b620004e788828901620003c4565b925050608086015167ffffffffffffffff8111156200050b576200050a620008dd565b5b6200051988828901620003f7565b9150509295509295909350565b6000620005338262000642565b6200053f81856200064d565b935062000551818560208601620006f3565b80840191505092915050565b60006200056c6006836200064d565b91506200057982620008f8565b600682019050919050565b600062000592828462000526565b915081905092915050565b6000620005aa826200055d565b9150819050919050565b6000620005c0620005d3565b9050620005ce82826200075f565b919050565b6000604051905090565b600067ffffffffffffffff821115620005fb57620005fa6200089f565b5b602082029050602081019050919050565b600067ffffffffffffffff8211156200062a57620006296200089f565b5b6200063582620008e7565b9050602081019050919050565b600081519050919050565b600081905092915050565b60006200066582620006e9565b91506200067283620006e9565b9250827fffffffffffffffffffffffffffffffffffffffffffffffffffffffffffffffff03821115620006aa57620006a9620007e3565b5b828201905092915050565b6000620006c282620006c9565b9050919050565b600073ffffffffffffffffffffffffffffffffffffffff82169050919050565b6000819050919050565b60005b8381101562000713578082015181840152602081019050620006f6565b8381111562000723576000848401525b50505050565b600060028204905060018216806200074257607f821691505b6020821081141562000759576200075862000841565b5b50919050565b6200076a82620008e7565b810181811067ffffffffffffffff821117156200078c576200078b6200089f565b5b80604052505050565b6000620007a282620006e9565b91507fffffffffffffffffffffffffffffffffffffffffffffffffffffffffffffffff821415620007d857620007d7620007e3565b5b600182019050919050565b7f4e487b7100000000000000000000000000000000000000000000000000000000600052601160045260246000fd5b7f4e487b7100000000000000000000000000000000000000000000000000000000600052602160045260246000fd5b7f4e487b7100000000000000000000000000000000000000000000000000000000600052602260045260246000fd5b7f4e487b7100000000000000000000000000000000000000000000000000000000600052603260045260246000fd5b7f4e487b7100000000000000000000000000000000000000000000000000000000600052604160045260246000fd5b600080fd5b600080fd5b600080fd5b600080fd5b600080fd5b6000601f19601f8301169050919050565b7f5075626c69630000000000000000000000000000000000000000000000000000600082015250565b6200092c81620006b5565b81146200093857600080fd5b50565b6200094681620006e9565b81146200095257600080fd5b50565b61161580620009656000396000f3fe608060405234801561001057600080fd5b50600436106100cf5760003560e01c80638f58d3531161008c578063ba0c45c911610066578063ba0c45c9146101cc578063c04752d8146101e8578063c308b0dc14610204578063cc1e2cb014610220576100cf565b80638f58d35314610186578063b6d325a3146101a4578063b73b396b146101c2576100cf565b8063083c6323146100d457806318769765146100f257806320ee04f514610110578063237637a81461014057806348cd4cb11461015e5780638d99b2eb1461017c575b600080fd5b6100dc61023e565b6040516100e9919061118a565b60405180910390f35b6100fa610244565b60405161010791906110a8565b60405180910390f35b61012a60048036038101906101259190610e52565b6102d2565b604051610137919061118a565b60405180910390f35b6101486103ea565b604051610155919061108d565b60405180910390f35b6101666103fd565b604051610173919061118a565b60405180910390f35b610184610403565b005b61018e6105ef565b60405161019b9190611072565b60405180910390f35b6101ac610602565b6040516101b991906110a8565b60405180910390f35b6101ca610734565b005b6101e660048036038101906101e19190610e9b565b610920565b005b61020260048036038101906101fd9190610e52565b6109c5565b005b61021e60048036038101906102199190610e52565b610c5e565b005b610228610d06565b6040516102359190611057565b60405180910390f35b60035481565b6001805461025190611340565b80601f016020809104026020016040519081016040528092919081815260200182805461027d90611340565b80156102ca5780601f1061029f576101008083540402835291602001916102ca565b820191906000526020600020905b8154815290600101906020018083116102ad57829003601f168201915b505050505081565b60006001808111156102e7576102e66113d2565b5b600460009054906101000a900460ff166001811115610309576103086113d2565b5b14156103c3573373ffffffffffffffffffffffffffffffffffffffff1660008054906101000a900473ffffffffffffffffffffffffffffffffffffffff1673ffffffffffffffffffffffffffffffffffffffff161461039d576040517f08c379a0000000000000000000000000000000000000000000000000000000008152600401610394906110ea565b60405180910390fd5b6006826040516103ad9190611040565b90815260200160405180910390205490506103e5565b6006826040516103d39190611040565b90815260200160405180910390205490505b919050565b600460009054906101000a900460ff1681565b60025481565b6003544310610447576040517f08c379a000000000000000000000000000000000000000000000000000000000815260040161043e906110ca565b60405180910390fd5b3373ffffffffffffffffffffffffffffffffffffffff1660008054906101000a900473ffffffffffffffffffffffffffffffffffffffff1673ffffffffffffffffffffffffffffffffffffffff16146104d5576040517f08c379a00000000000000000000000000000000000000000000000000000000081526004016104cc9061116a565b60405180910390fd5b6003808111156104e8576104e76113d2565b5b600460019054906101000a900460ff16600381111561050a576105096113d2565b5b141561054b576040517f08c379a0000000000000000000000000000000000000000000000000000000008152600401610542906110ca565b60405180910390fd5b6002600381111561055f5761055e6113d2565b5b600460019054906101000a900460ff166003811115610581576105806113d2565b5b14156105c2576040517f08c379a00000000000000000000000000000000000000000000000000000000081526004016105b99061112a565b60405180910390fd5b6003600460016101000a81548160ff021916908360038111156105e8576105e76113d2565b5b0217905550565b600460019054906101000a900460ff1681565b60606000604051806020016040528060008152509050600460009054906101000a900460ff16600181111561063a576106396113d2565b5b6000600181111561064e5761064d6113d2565b5b60018111156106605761065f6113d2565b5b14156106a4576040518060400160405280600681526020017f5075626c69630000000000000000000000000000000000000000000000000000815250915050610731565b600460009054906101000a900460ff1660018111156106c6576106c56113d2565b5b6001808111156106d9576106d86113d2565b5b60018111156106eb576106ea6113d2565b5b141561072f576040518060400160405280600781526020017f5072697661746500000000000000000000000000000000000000000000000000815250915050610731565b505b90565b6003544310610778576040517f08c379a000000000000000000000000000000000000000000000000000000000815260040161076f906110ca565b60405180910390fd5b3373ffffffffffffffffffffffffffffffffffffffff1660008054906101000a900473ffffffffffffffffffffffffffffffffffffffff1673ffffffffffffffffffffffffffffffffffffffff1614610806576040517f08c379a00000000000000000000000000000000000000000000000000000000081526004016107fd9061116a565b60405180910390fd5b600380811115610819576108186113d2565b5b600460019054906101000a900460ff16600381111561083b5761083a6113d2565b5b141561087c576040517f08c379a0000000000000000000000000000000000000000000000000000000008152600401610873906110ca565b60405180910390fd5b600260038111156108905761088f6113d2565b5b600460019054906101000a900460ff1660038111156108b2576108b16113d2565b5b14156108f3576040517f08c379a00000000000000000000000000000000000000000000000000000000081526004016108ea9061112a565b60405180910390fd5b6002600460016101000a81548160ff02191690836003811115610919576109186113d2565b5b0217905550565b3373ffffffffffffffffffffffffffffffffffffffff1660008054906101000a900473ffffffffffffffffffffffffffffffffffffffff1673ffffffffffffffffffffffffffffffffffffffff16146109ae576040517f08c379a00000000000000000000000000000000000000000000000000000000081526004016109a59061116a565b60405180910390fd5b806003546109bc9190611222565b60038190555050565b6003544310610a09576040517f08c379a0000000000000000000000000000000000000000000000000000000008152600401610a00906110ca565b60405180910390fd5b6002544311610a4d576040517f08c379a0000000000000000000000000000000000000000000000000000000008152600401610a449061114a565b60405180910390fd5b600380811115610a6057610a5f6113d2565b5b600460019054906101000a900460ff166003811115610a8257610a816113d2565b5b1415610ac3576040517f08c379a0000000000000000000000000000000000000000000000000000000008152600401610aba906110ca565b60405180910390fd5b60026003811115610ad757610ad66113d2565b5b600460019054906101000a900460ff166003811115610af957610af86113d2565b5b1415610b3a576040517f08c379a0000000000000000000000000000000000000000000000000000000008152600401610b319061112a565b60405180910390fd5b6000339050600560008273ffffffffffffffffffffffffffffffffffffffff1673ffffffffffffffffffffffffffffffffffffffff16815260200190815260200160002060009054906101000a900460ff1615610bcc576040517f08c379a0000000000000000000000000000000000000000000000000000000008152600401610bc39061110a565b60405180910390fd5b6001600560008373ffffffffffffffffffffffffffffffffffffffff1673ffffffffffffffffffffffffffffffffffffffff16815260200190815260200160002060006101000a81548160ff0219169083151502179055506001600683604051610c369190611040565b90815260200160405180910390206000828254610c539190611222565b925050819055505050565b3373ffffffffffffffffffffffffffffffffffffffff1660008054906101000a900473ffffffffffffffffffffffffffffffffffffffff1673ffffffffffffffffffffffffffffffffffffffff1614610cec576040517f08c379a0000000000000000000000000000000000000000000000000000000008152600401610ce39061116a565b60405180910390fd5b8060019080519060200190610d02929190610d2a565b5050565b60008054906101000a900473ffffffffffffffffffffffffffffffffffffffff1681565b828054610d3690611340565b90600052602060002090601f016020900481019282610d585760008555610d9f565b82601f10610d7157805160ff1916838001178555610d9f565b82800160010185558215610d9f579182015b82811115610d9e578251825591602001919060010190610d83565b5b509050610dac9190610db0565b5090565b5b80821115610dc9576000816000905550600101610db1565b5090565b6000610de0610ddb846111ca565b6111a5565b905082815260208101848484011115610dfc57610dfb611464565b5b610e078482856112fe565b509392505050565b600082601f830112610e2457610e2361145f565b5b8135610e34848260208601610dcd565b91505092915050565b600081359050610e4c816115c8565b92915050565b600060208284031215610e6857610e6761146e565b5b600082013567ffffffffffffffff811115610e8657610e85611469565b5b610e9284828501610e0f565b91505092915050565b600060208284031215610eb157610eb061146e565b5b6000610ebf84828501610e3d565b91505092915050565b610ed181611278565b82525050565b610ee0816112da565b82525050565b610eef816112ec565b82525050565b6000610f00826111fb565b610f0a8185611206565b9350610f1a81856020860161130d565b610f2381611473565b840191505092915050565b6000610f39826111fb565b610f438185611217565b9350610f5381856020860161130d565b80840191505092915050565b6000610f6c601783611206565b9150610f7782611484565b602082019050919050565b6000610f8f601783611206565b9150610f9a826114ad565b602082019050919050565b6000610fb2601783611206565b9150610fbd826114d6565b602082019050919050565b6000610fd5601b83611206565b9150610fe0826114ff565b602082019050919050565b6000610ff8601d83611206565b915061100382611528565b602082019050919050565b600061101b603183611206565b915061102682611551565b604082019050919050565b61103a816112d0565b82525050565b600061104c8284610f2e565b915081905092915050565b600060208201905061106c6000830184610ec8565b92915050565b60006020820190506110876000830184610ed7565b92915050565b60006020820190506110a26000830184610ee6565b92915050565b600060208201905081810360008301526110c28184610ef5565b905092915050565b600060208201905081810360008301526110e381610f5f565b9050919050565b6000602082019050818103600083015261110381610f82565b9050919050565b6000602082019050818103600083015261112381610fa5565b9050919050565b6000602082019050818103600083015261114381610fc8565b9050919050565b6000602082019050818103600083015261116381610feb565b9050919050565b600060208201905081810360008301526111838161100e565b9050919050565b600060208201905061119f6000830184611031565b92915050565b60006111af6111c0565b90506111bb8282611372565b919050565b6000604051905090565b600067ffffffffffffffff8211156111e5576111e4611430565b5b6111ee82611473565b9050602081019050919050565b600081519050919050565b600082825260208201905092915050565b600081905092915050565b600061122d826112d0565b9150611238836112d0565b9250827fffffffffffffffffffffffffffffffffffffffffffffffffffffffffffffffff0382111561126d5761126c6113a3565b5b828201905092915050565b6000611283826112b0565b9050919050565b6000819050611298826115a0565b919050565b60008190506112ab826115b4565b919050565b600073ffffffffffffffffffffffffffffffffffffffff82169050919050565b6000819050919050565b60006112e58261128a565b9050919050565b60006112f78261129d565b9050919050565b82818337600083830152505050565b60005b8381101561132b578082015181840152602081019050611310565b8381111561133a576000848401525b50505050565b6000600282049050600182168061135857607f821691505b6020821081141561136c5761136b611401565b5b50919050565b61137b82611473565b810181811067ffffffffffffffff8211171561139a57611399611430565b5b80604052505050565b7f4e487b7100000000000000000000000000000000000000000000000000000000600052601160045260246000fd5b7f4e487b7100000000000000000000000000000000000000000000000000000000600052602160045260246000fd5b7f4e487b7100000000000000000000000000000000000000000000000000000000600052602260045260246000fd5b7f4e487b7100000000000000000000000000000000000000000000000000000000600052604160045260246000fd5b600080fd5b600080fd5b600080fd5b600080fd5b6000601f19601f8301169050919050565b7f54686520706f6c6c20616c726561647920656e6465642e000000000000000000600082015250565b7f546869732069732061207072697661746520706f6c6c2e000000000000000000600082015250565b7f596f75206861766520616c726561647920766f74656421000000000000000000600082015250565b7f54686520706f6c6c20686173206265656e2063616e63656c6c65640000000000600082015250565b7f54686520706f6c6c20686173206e6f742073746172746564207965742e000000600082015250565b7f4f6e6c79207468652063726561746572206f66207468697320706f6c6c20686160008201527f7320746869732070726976696c6567652e000000000000000000000000000000602082015250565b600481106115b1576115b06113d2565b5b50565b600281106115c5576115c46113d2565b5b50565b6115d1816112d0565b81146115dc57600080fd5b5056fea26469706673582212205e259b0340b85cd0ca8e06b744e4fc29273720882fbcf6d209b143bfcb0d437d64736f6c63430008070033",
					"opcodes": "PUSH1 0x80 PUSH1 0x40 MSTORE CALLVALUE DUP1 ISZERO PUSH3 0x11 JUMPI PUSH1 0x0 DUP1 REVERT JUMPDEST POP PUSH1 0x40 MLOAD PUSH3 0x1F7A CODESIZE SUB DUP1 PUSH3 0x1F7A DUP4 CODECOPY DUP2 DUP2 ADD PUSH1 0x40 MSTORE DUP2 ADD SWAP1 PUSH3 0x37 SWAP2 SWAP1 PUSH3 0x441 JUMP JUMPDEST DUP5 PUSH1 0x0 DUP1 PUSH2 0x100 EXP DUP2 SLOAD DUP2 PUSH20 0xFFFFFFFFFFFFFFFFFFFFFFFFFFFFFFFFFFFFFFFF MUL NOT AND SWAP1 DUP4 PUSH20 0xFFFFFFFFFFFFFFFFFFFFFFFFFFFFFFFFFFFFFFFF AND MUL OR SWAP1 SSTORE POP DUP4 PUSH1 0x1 SWAP1 DUP1 MLOAD SWAP1 PUSH1 0x20 ADD SWAP1 PUSH3 0x8F SWAP3 SWAP2 SWAP1 PUSH3 0x216 JUMP JUMPDEST POP NUMBER PUSH1 0x2 DUP2 SWAP1 SSTORE POP DUP3 PUSH1 0x2 SLOAD PUSH3 0xA7 SWAP2 SWAP1 PUSH3 0x658 JUMP JUMPDEST PUSH1 0x3 DUP2 SWAP1 SSTORE POP PUSH1 0x1 PUSH1 0x4 PUSH1 0x1 PUSH2 0x100 EXP DUP2 SLOAD DUP2 PUSH1 0xFF MUL NOT AND SWAP1 DUP4 PUSH1 0x3 DUP2 GT ISZERO PUSH3 0xD6 JUMPI PUSH3 0xD5 PUSH3 0x812 JUMP JUMPDEST JUMPDEST MUL OR SWAP1 SSTORE POP PUSH1 0x40 MLOAD PUSH1 0x20 ADD PUSH3 0xEC SWAP1 PUSH3 0x59D JUMP JUMPDEST PUSH1 0x40 MLOAD PUSH1 0x20 DUP2 DUP4 SUB SUB DUP2 MSTORE SWAP1 PUSH1 0x40 MSTORE DUP1 MLOAD SWAP1 PUSH1 0x20 ADD KECCAK256 DUP2 PUSH1 0x40 MLOAD PUSH1 0x20 ADD PUSH3 0x115 SWAP2 SWAP1 PUSH3 0x584 JUMP JUMPDEST PUSH1 0x40 MLOAD PUSH1 0x20 DUP2 DUP4 SUB SUB DUP2 MSTORE SWAP1 PUSH1 0x40 MSTORE DUP1 MLOAD SWAP1 PUSH1 0x20 ADD KECCAK256 EQ ISZERO PUSH3 0x166 JUMPI PUSH1 0x0 PUSH1 0x4 PUSH1 0x0 PUSH2 0x100 EXP DUP2 SLOAD DUP2 PUSH1 0xFF MUL NOT AND SWAP1 DUP4 PUSH1 0x1 DUP2 GT ISZERO PUSH3 0x15B JUMPI PUSH3 0x15A PUSH3 0x812 JUMP JUMPDEST JUMPDEST MUL OR SWAP1 SSTORE POP PUSH3 0x1A4 JUMP JUMPDEST PUSH1 0x1 DUP1 DUP2 GT ISZERO PUSH3 0x17C JUMPI PUSH3 0x17B PUSH3 0x812 JUMP JUMPDEST JUMPDEST PUSH1 0x4 PUSH1 0x0 SWAP1 SLOAD SWAP1 PUSH2 0x100 EXP SWAP1 DIV PUSH1 0xFF AND PUSH1 0x1 DUP2 GT ISZERO PUSH3 0x1A1 JUMPI PUSH3 0x1A0 PUSH3 0x812 JUMP JUMPDEST JUMPDEST POP POP JUMPDEST PUSH1 0x0 JUMPDEST DUP3 MLOAD DUP2 LT ISZERO PUSH3 0x20A JUMPI PUSH1 0x0 PUSH1 0x6 DUP5 DUP4 DUP2 MLOAD DUP2 LT PUSH3 0x1CB JUMPI PUSH3 0x1CA PUSH3 0x870 JUMP JUMPDEST JUMPDEST PUSH1 0x20 MUL PUSH1 0x20 ADD ADD MLOAD PUSH1 0x40 MLOAD PUSH3 0x1E2 SWAP2 SWAP1 PUSH3 0x584 JUMP JUMPDEST SWAP1 DUP2 MSTORE PUSH1 0x20 ADD PUSH1 0x40 MLOAD DUP1 SWAP2 SUB SWAP1 KECCAK256 DUP2 SWAP1 SSTORE POP DUP1 DUP1 PUSH3 0x201 SWAP1 PUSH3 0x795 JUMP JUMPDEST SWAP2 POP POP PUSH3 0x1A7 JUMP JUMPDEST POP POP POP POP POP POP PUSH3 0x955 JUMP JUMPDEST DUP3 DUP1 SLOAD PUSH3 0x224 SWAP1 PUSH3 0x729 JUMP JUMPDEST SWAP1 PUSH1 0x0 MSTORE PUSH1 0x20 PUSH1 0x0 KECCAK256 SWAP1 PUSH1 0x1F ADD PUSH1 0x20 SWAP1 DIV DUP2 ADD SWAP3 DUP3 PUSH3 0x248 JUMPI PUSH1 0x0 DUP6 SSTORE PUSH3 0x294 JUMP JUMPDEST DUP3 PUSH1 0x1F LT PUSH3 0x263 JUMPI DUP1 MLOAD PUSH1 0xFF NOT AND DUP4 DUP1 ADD OR DUP6 SSTORE PUSH3 0x294 JUMP JUMPDEST DUP3 DUP1 ADD PUSH1 0x1 ADD DUP6 SSTORE DUP3 ISZERO PUSH3 0x294 JUMPI SWAP2 DUP3 ADD JUMPDEST DUP3 DUP2 GT ISZERO PUSH3 0x293 JUMPI DUP3 MLOAD DUP3 SSTORE SWAP2 PUSH1 0x20 ADD SWAP2 SWAP1 PUSH1 0x1 ADD SWAP1 PUSH3 0x276 JUMP JUMPDEST JUMPDEST POP SWAP1 POP PUSH3 0x2A3 SWAP2 SWAP1 PUSH3 0x2A7 JUMP JUMPDEST POP SWAP1 JUMP JUMPDEST JUMPDEST DUP1 DUP3 GT ISZERO PUSH3 0x2C2 JUMPI PUSH1 0x0 DUP2 PUSH1 0x0 SWAP1 SSTORE POP PUSH1 0x1 ADD PUSH3 0x2A8 JUMP JUMPDEST POP SWAP1 JUMP JUMPDEST PUSH1 0x0 PUSH3 0x2DD PUSH3 0x2D7 DUP5 PUSH3 0x5DD JUMP JUMPDEST PUSH3 0x5B4 JUMP JUMPDEST SWAP1 POP DUP1 DUP4 DUP3 MSTORE PUSH1 0x20 DUP3 ADD SWAP1 POP DUP3 DUP6 PUSH1 0x20 DUP7 MUL DUP3 ADD GT ISZERO PUSH3 0x303 JUMPI PUSH3 0x302 PUSH3 0x8D3 JUMP JUMPDEST JUMPDEST PUSH1 0x0 JUMPDEST DUP6 DUP2 LT ISZERO PUSH3 0x358 JUMPI DUP2 MLOAD PUSH8 0xFFFFFFFFFFFFFFFF DUP2 GT ISZERO PUSH3 0x32D JUMPI PUSH3 0x32C PUSH3 0x8CE JUMP JUMPDEST JUMPDEST DUP1 DUP7 ADD PUSH3 0x33C DUP10 DUP3 PUSH3 0x3F7 JUMP JUMPDEST DUP6 MSTORE PUSH1 0x20 DUP6 ADD SWAP5 POP PUSH1 0x20 DUP5 ADD SWAP4 POP POP POP PUSH1 0x1 DUP2 ADD SWAP1 POP PUSH3 0x306 JUMP JUMPDEST POP POP POP SWAP4 SWAP3 POP POP POP JUMP JUMPDEST PUSH1 0x0 PUSH3 0x379 PUSH3 0x373 DUP5 PUSH3 0x60C JUMP JUMPDEST PUSH3 0x5B4 JUMP JUMPDEST SWAP1 POP DUP3 DUP2 MSTORE PUSH1 0x20 DUP2 ADD DUP5 DUP5 DUP5 ADD GT ISZERO PUSH3 0x398 JUMPI PUSH3 0x397 PUSH3 0x8D8 JUMP JUMPDEST JUMPDEST PUSH3 0x3A5 DUP5 DUP3 DUP6 PUSH3 0x6F3 JUMP JUMPDEST POP SWAP4 SWAP3 POP POP POP JUMP JUMPDEST PUSH1 0x0 DUP2 MLOAD SWAP1 POP PUSH3 0x3BE DUP2 PUSH3 0x921 JUMP JUMPDEST SWAP3 SWAP2 POP POP JUMP JUMPDEST PUSH1 0x0 DUP3 PUSH1 0x1F DUP4 ADD SLT PUSH3 0x3DC JUMPI PUSH3 0x3DB PUSH3 0x8CE JUMP JUMPDEST JUMPDEST DUP2 MLOAD PUSH3 0x3EE DUP5 DUP3 PUSH1 0x20 DUP7 ADD PUSH3 0x2C6 JUMP JUMPDEST SWAP2 POP POP SWAP3 SWAP2 POP POP JUMP JUMPDEST PUSH1 0x0 DUP3 PUSH1 0x1F DUP4 ADD SLT PUSH3 0x40F JUMPI PUSH3 0x40E PUSH3 0x8CE JUMP JUMPDEST JUMPDEST DUP2 MLOAD PUSH3 0x421 DUP5 DUP3 PUSH1 0x20 DUP7 ADD PUSH3 0x362 JUMP JUMPDEST SWAP2 POP POP SWAP3 SWAP2 POP POP JUMP JUMPDEST PUSH1 0x0 DUP2 MLOAD SWAP1 POP PUSH3 0x43B DUP2 PUSH3 0x93B JUMP JUMPDEST SWAP3 SWAP2 POP POP JUMP JUMPDEST PUSH1 0x0 DUP1 PUSH1 0x0 DUP1 PUSH1 0x0 PUSH1 0xA0 DUP7 DUP9 SUB SLT ISZERO PUSH3 0x460 JUMPI PUSH3 0x45F PUSH3 0x8E2 JUMP JUMPDEST JUMPDEST PUSH1 0x0 PUSH3 0x470 DUP9 DUP3 DUP10 ADD PUSH3 0x3AD JUMP JUMPDEST SWAP6 POP POP PUSH1 0x20 DUP7 ADD MLOAD PUSH8 0xFFFFFFFFFFFFFFFF DUP2 GT ISZERO PUSH3 0x494 JUMPI PUSH3 0x493 PUSH3 0x8DD JUMP JUMPDEST JUMPDEST PUSH3 0x4A2 DUP9 DUP3 DUP10 ADD PUSH3 0x3F7 JUMP JUMPDEST SWAP5 POP POP PUSH1 0x40 PUSH3 0x4B5 DUP9 DUP3 DUP10 ADD PUSH3 0x42A JUMP JUMPDEST SWAP4 POP POP PUSH1 0x60 DUP7 ADD MLOAD PUSH8 0xFFFFFFFFFFFFFFFF DUP2 GT ISZERO PUSH3 0x4D9 JUMPI PUSH3 0x4D8 PUSH3 0x8DD JUMP JUMPDEST JUMPDEST PUSH3 0x4E7 DUP9 DUP3 DUP10 ADD PUSH3 0x3C4 JUMP JUMPDEST SWAP3 POP POP PUSH1 0x80 DUP7 ADD MLOAD PUSH8 0xFFFFFFFFFFFFFFFF DUP2 GT ISZERO PUSH3 0x50B JUMPI PUSH3 0x50A PUSH3 0x8DD JUMP JUMPDEST JUMPDEST PUSH3 0x519 DUP9 DUP3 DUP10 ADD PUSH3 0x3F7 JUMP JUMPDEST SWAP2 POP POP SWAP3 SWAP6 POP SWAP3 SWAP6 SWAP1 SWAP4 POP JUMP JUMPDEST PUSH1 0x0 PUSH3 0x533 DUP3 PUSH3 0x642 JUMP JUMPDEST PUSH3 0x53F DUP2 DUP6 PUSH3 0x64D JUMP JUMPDEST SWAP4 POP PUSH3 0x551 DUP2 DUP6 PUSH1 0x20 DUP7 ADD PUSH3 0x6F3 JUMP JUMPDEST DUP1 DUP5 ADD SWAP2 POP POP SWAP3 SWAP2 POP POP JUMP JUMPDEST PUSH1 0x0 PUSH3 0x56C PUSH1 0x6 DUP4 PUSH3 0x64D JUMP JUMPDEST SWAP2 POP PUSH3 0x579 DUP3 PUSH3 0x8F8 JUMP JUMPDEST PUSH1 0x6 DUP3 ADD SWAP1 POP SWAP2 SWAP1 POP JUMP JUMPDEST PUSH1 0x0 PUSH3 0x592 DUP3 DUP5 PUSH3 0x526 JUMP JUMPDEST SWAP2 POP DUP2 SWAP1 POP SWAP3 SWAP2 POP POP JUMP JUMPDEST PUSH1 0x0 PUSH3 0x5AA DUP3 PUSH3 0x55D JUMP JUMPDEST SWAP2 POP DUP2 SWAP1 POP SWAP2 SWAP1 POP JUMP JUMPDEST PUSH1 0x0 PUSH3 0x5C0 PUSH3 0x5D3 JUMP JUMPDEST SWAP1 POP PUSH3 0x5CE DUP3 DUP3 PUSH3 0x75F JUMP JUMPDEST SWAP2 SWAP1 POP JUMP JUMPDEST PUSH1 0x0 PUSH1 0x40 MLOAD SWAP1 POP SWAP1 JUMP JUMPDEST PUSH1 0x0 PUSH8 0xFFFFFFFFFFFFFFFF DUP3 GT ISZERO PUSH3 0x5FB JUMPI PUSH3 0x5FA PUSH3 0x89F JUMP JUMPDEST JUMPDEST PUSH1 0x20 DUP3 MUL SWAP1 POP PUSH1 0x20 DUP2 ADD SWAP1 POP SWAP2 SWAP1 POP JUMP JUMPDEST PUSH1 0x0 PUSH8 0xFFFFFFFFFFFFFFFF DUP3 GT ISZERO PUSH3 0x62A JUMPI PUSH3 0x629 PUSH3 0x89F JUMP JUMPDEST JUMPDEST PUSH3 0x635 DUP3 PUSH3 0x8E7 JUMP JUMPDEST SWAP1 POP PUSH1 0x20 DUP2 ADD SWAP1 POP SWAP2 SWAP1 POP JUMP JUMPDEST PUSH1 0x0 DUP2 MLOAD SWAP1 POP SWAP2 SWAP1 POP JUMP JUMPDEST PUSH1 0x0 DUP2 SWAP1 POP SWAP3 SWAP2 POP POP JUMP JUMPDEST PUSH1 0x0 PUSH3 0x665 DUP3 PUSH3 0x6E9 JUMP JUMPDEST SWAP2 POP PUSH3 0x672 DUP4 PUSH3 0x6E9 JUMP JUMPDEST SWAP3 POP DUP3 PUSH32 0xFFFFFFFFFFFFFFFFFFFFFFFFFFFFFFFFFFFFFFFFFFFFFFFFFFFFFFFFFFFFFFFF SUB DUP3 GT ISZERO PUSH3 0x6AA JUMPI PUSH3 0x6A9 PUSH3 0x7E3 JUMP JUMPDEST JUMPDEST DUP3 DUP3 ADD SWAP1 POP SWAP3 SWAP2 POP POP JUMP JUMPDEST PUSH1 0x0 PUSH3 0x6C2 DUP3 PUSH3 0x6C9 JUMP JUMPDEST SWAP1 POP SWAP2 SWAP1 POP JUMP JUMPDEST PUSH1 0x0 PUSH20 0xFFFFFFFFFFFFFFFFFFFFFFFFFFFFFFFFFFFFFFFF DUP3 AND SWAP1 POP SWAP2 SWAP1 POP JUMP JUMPDEST PUSH1 0x0 DUP2 SWAP1 POP SWAP2 SWAP1 POP JUMP JUMPDEST PUSH1 0x0 JUMPDEST DUP4 DUP2 LT ISZERO PUSH3 0x713 JUMPI DUP1 DUP3 ADD MLOAD DUP2 DUP5 ADD MSTORE PUSH1 0x20 DUP2 ADD SWAP1 POP PUSH3 0x6F6 JUMP JUMPDEST DUP4 DUP2 GT ISZERO PUSH3 0x723 JUMPI PUSH1 0x0 DUP5 DUP5 ADD MSTORE JUMPDEST POP POP POP POP JUMP JUMPDEST PUSH1 0x0 PUSH1 0x2 DUP3 DIV SWAP1 POP PUSH1 0x1 DUP3 AND DUP1 PUSH3 0x742 JUMPI PUSH1 0x7F DUP3 AND SWAP2 POP JUMPDEST PUSH1 0x20 DUP3 LT DUP2 EQ ISZERO PUSH3 0x759 JUMPI PUSH3 0x758 PUSH3 0x841 JUMP JUMPDEST JUMPDEST POP SWAP2 SWAP1 POP JUMP JUMPDEST PUSH3 0x76A DUP3 PUSH3 0x8E7 JUMP JUMPDEST DUP2 ADD DUP2 DUP2 LT PUSH8 0xFFFFFFFFFFFFFFFF DUP3 GT OR ISZERO PUSH3 0x78C JUMPI PUSH3 0x78B PUSH3 0x89F JUMP JUMPDEST JUMPDEST DUP1 PUSH1 0x40 MSTORE POP POP POP JUMP JUMPDEST PUSH1 0x0 PUSH3 0x7A2 DUP3 PUSH3 0x6E9 JUMP JUMPDEST SWAP2 POP PUSH32 0xFFFFFFFFFFFFFFFFFFFFFFFFFFFFFFFFFFFFFFFFFFFFFFFFFFFFFFFFFFFFFFFF DUP3 EQ ISZERO PUSH3 0x7D8 JUMPI PUSH3 0x7D7 PUSH3 0x7E3 JUMP JUMPDEST JUMPDEST PUSH1 0x1 DUP3 ADD SWAP1 POP SWAP2 SWAP1 POP JUMP JUMPDEST PUSH32 0x4E487B7100000000000000000000000000000000000000000000000000000000 PUSH1 0x0 MSTORE PUSH1 0x11 PUSH1 0x4 MSTORE PUSH1 0x24 PUSH1 0x0 REVERT JUMPDEST PUSH32 0x4E487B7100000000000000000000000000000000000000000000000000000000 PUSH1 0x0 MSTORE PUSH1 0x21 PUSH1 0x4 MSTORE PUSH1 0x24 PUSH1 0x0 REVERT JUMPDEST PUSH32 0x4E487B7100000000000000000000000000000000000000000000000000000000 PUSH1 0x0 MSTORE PUSH1 0x22 PUSH1 0x4 MSTORE PUSH1 0x24 PUSH1 0x0 REVERT JUMPDEST PUSH32 0x4E487B7100000000000000000000000000000000000000000000000000000000 PUSH1 0x0 MSTORE PUSH1 0x32 PUSH1 0x4 MSTORE PUSH1 0x24 PUSH1 0x0 REVERT JUMPDEST PUSH32 0x4E487B7100000000000000000000000000000000000000000000000000000000 PUSH1 0x0 MSTORE PUSH1 0x41 PUSH1 0x4 MSTORE PUSH1 0x24 PUSH1 0x0 REVERT JUMPDEST PUSH1 0x0 DUP1 REVERT JUMPDEST PUSH1 0x0 DUP1 REVERT JUMPDEST PUSH1 0x0 DUP1 REVERT JUMPDEST PUSH1 0x0 DUP1 REVERT JUMPDEST PUSH1 0x0 DUP1 REVERT JUMPDEST PUSH1 0x0 PUSH1 0x1F NOT PUSH1 0x1F DUP4 ADD AND SWAP1 POP SWAP2 SWAP1 POP JUMP JUMPDEST PUSH32 0x5075626C69630000000000000000000000000000000000000000000000000000 PUSH1 0x0 DUP3 ADD MSTORE POP JUMP JUMPDEST PUSH3 0x92C DUP2 PUSH3 0x6B5 JUMP JUMPDEST DUP2 EQ PUSH3 0x938 JUMPI PUSH1 0x0 DUP1 REVERT JUMPDEST POP JUMP JUMPDEST PUSH3 0x946 DUP2 PUSH3 0x6E9 JUMP JUMPDEST DUP2 EQ PUSH3 0x952 JUMPI PUSH1 0x0 DUP1 REVERT JUMPDEST POP JUMP JUMPDEST PUSH2 0x1615 DUP1 PUSH3 0x965 PUSH1 0x0 CODECOPY PUSH1 0x0 RETURN INVALID PUSH1 0x80 PUSH1 0x40 MSTORE CALLVALUE DUP1 ISZERO PUSH2 0x10 JUMPI PUSH1 0x0 DUP1 REVERT JUMPDEST POP PUSH1 0x4 CALLDATASIZE LT PUSH2 0xCF JUMPI PUSH1 0x0 CALLDATALOAD PUSH1 0xE0 SHR DUP1 PUSH4 0x8F58D353 GT PUSH2 0x8C JUMPI DUP1 PUSH4 0xBA0C45C9 GT PUSH2 0x66 JUMPI DUP1 PUSH4 0xBA0C45C9 EQ PUSH2 0x1CC JUMPI DUP1 PUSH4 0xC04752D8 EQ PUSH2 0x1E8 JUMPI DUP1 PUSH4 0xC308B0DC EQ PUSH2 0x204 JUMPI DUP1 PUSH4 0xCC1E2CB0 EQ PUSH2 0x220 JUMPI PUSH2 0xCF JUMP JUMPDEST DUP1 PUSH4 0x8F58D353 EQ PUSH2 0x186 JUMPI DUP1 PUSH4 0xB6D325A3 EQ PUSH2 0x1A4 JUMPI DUP1 PUSH4 0xB73B396B EQ PUSH2 0x1C2 JUMPI PUSH2 0xCF JUMP JUMPDEST DUP1 PUSH4 0x83C6323 EQ PUSH2 0xD4 JUMPI DUP1 PUSH4 0x18769765 EQ PUSH2 0xF2 JUMPI DUP1 PUSH4 0x20EE04F5 EQ PUSH2 0x110 JUMPI DUP1 PUSH4 0x237637A8 EQ PUSH2 0x140 JUMPI DUP1 PUSH4 0x48CD4CB1 EQ PUSH2 0x15E JUMPI DUP1 PUSH4 0x8D99B2EB EQ PUSH2 0x17C JUMPI JUMPDEST PUSH1 0x0 DUP1 REVERT JUMPDEST PUSH2 0xDC PUSH2 0x23E JUMP JUMPDEST PUSH1 0x40 MLOAD PUSH2 0xE9 SWAP2 SWAP1 PUSH2 0x118A JUMP JUMPDEST PUSH1 0x40 MLOAD DUP1 SWAP2 SUB SWAP1 RETURN JUMPDEST PUSH2 0xFA PUSH2 0x244 JUMP JUMPDEST PUSH1 0x40 MLOAD PUSH2 0x107 SWAP2 SWAP1 PUSH2 0x10A8 JUMP JUMPDEST PUSH1 0x40 MLOAD DUP1 SWAP2 SUB SWAP1 RETURN JUMPDEST PUSH2 0x12A PUSH1 0x4 DUP1 CALLDATASIZE SUB DUP2 ADD SWAP1 PUSH2 0x125 SWAP2 SWAP1 PUSH2 0xE52 JUMP JUMPDEST PUSH2 0x2D2 JUMP JUMPDEST PUSH1 0x40 MLOAD PUSH2 0x137 SWAP2 SWAP1 PUSH2 0x118A JUMP JUMPDEST PUSH1 0x40 MLOAD DUP1 SWAP2 SUB SWAP1 RETURN JUMPDEST PUSH2 0x148 PUSH2 0x3EA JUMP JUMPDEST PUSH1 0x40 MLOAD PUSH2 0x155 SWAP2 SWAP1 PUSH2 0x108D JUMP JUMPDEST PUSH1 0x40 MLOAD DUP1 SWAP2 SUB SWAP1 RETURN JUMPDEST PUSH2 0x166 PUSH2 0x3FD JUMP JUMPDEST PUSH1 0x40 MLOAD PUSH2 0x173 SWAP2 SWAP1 PUSH2 0x118A JUMP JUMPDEST PUSH1 0x40 MLOAD DUP1 SWAP2 SUB SWAP1 RETURN JUMPDEST PUSH2 0x184 PUSH2 0x403 JUMP JUMPDEST STOP JUMPDEST PUSH2 0x18E PUSH2 0x5EF JUMP JUMPDEST PUSH1 0x40 MLOAD PUSH2 0x19B SWAP2 SWAP1 PUSH2 0x1072 JUMP JUMPDEST PUSH1 0x40 MLOAD DUP1 SWAP2 SUB SWAP1 RETURN JUMPDEST PUSH2 0x1AC PUSH2 0x602 JUMP JUMPDEST PUSH1 0x40 MLOAD PUSH2 0x1B9 SWAP2 SWAP1 PUSH2 0x10A8 JUMP JUMPDEST PUSH1 0x40 MLOAD DUP1 SWAP2 SUB SWAP1 RETURN JUMPDEST PUSH2 0x1CA PUSH2 0x734 JUMP JUMPDEST STOP JUMPDEST PUSH2 0x1E6 PUSH1 0x4 DUP1 CALLDATASIZE SUB DUP2 ADD SWAP1 PUSH2 0x1E1 SWAP2 SWAP1 PUSH2 0xE9B JUMP JUMPDEST PUSH2 0x920 JUMP JUMPDEST STOP JUMPDEST PUSH2 0x202 PUSH1 0x4 DUP1 CALLDATASIZE SUB DUP2 ADD SWAP1 PUSH2 0x1FD SWAP2 SWAP1 PUSH2 0xE52 JUMP JUMPDEST PUSH2 0x9C5 JUMP JUMPDEST STOP JUMPDEST PUSH2 0x21E PUSH1 0x4 DUP1 CALLDATASIZE SUB DUP2 ADD SWAP1 PUSH2 0x219 SWAP2 SWAP1 PUSH2 0xE52 JUMP JUMPDEST PUSH2 0xC5E JUMP JUMPDEST STOP JUMPDEST PUSH2 0x228 PUSH2 0xD06 JUMP JUMPDEST PUSH1 0x40 MLOAD PUSH2 0x235 SWAP2 SWAP1 PUSH2 0x1057 JUMP JUMPDEST PUSH1 0x40 MLOAD DUP1 SWAP2 SUB SWAP1 RETURN JUMPDEST PUSH1 0x3 SLOAD DUP2 JUMP JUMPDEST PUSH1 0x1 DUP1 SLOAD PUSH2 0x251 SWAP1 PUSH2 0x1340 JUMP JUMPDEST DUP1 PUSH1 0x1F ADD PUSH1 0x20 DUP1 SWAP2 DIV MUL PUSH1 0x20 ADD PUSH1 0x40 MLOAD SWAP1 DUP2 ADD PUSH1 0x40 MSTORE DUP1 SWAP3 SWAP2 SWAP1 DUP2 DUP2 MSTORE PUSH1 0x20 ADD DUP3 DUP1 SLOAD PUSH2 0x27D SWAP1 PUSH2 0x1340 JUMP JUMPDEST DUP1 ISZERO PUSH2 0x2CA JUMPI DUP1 PUSH1 0x1F LT PUSH2 0x29F JUMPI PUSH2 0x100 DUP1 DUP4 SLOAD DIV MUL DUP4 MSTORE SWAP2 PUSH1 0x20 ADD SWAP2 PUSH2 0x2CA JUMP JUMPDEST DUP3 ADD SWAP2 SWAP1 PUSH1 0x0 MSTORE PUSH1 0x20 PUSH1 0x0 KECCAK256 SWAP1 JUMPDEST DUP2 SLOAD DUP2 MSTORE SWAP1 PUSH1 0x1 ADD SWAP1 PUSH1 0x20 ADD DUP1 DUP4 GT PUSH2 0x2AD JUMPI DUP3 SWAP1 SUB PUSH1 0x1F AND DUP3 ADD SWAP2 JUMPDEST POP POP POP POP POP DUP2 JUMP JUMPDEST PUSH1 0x0 PUSH1 0x1 DUP1 DUP2 GT ISZERO PUSH2 0x2E7 JUMPI PUSH2 0x2E6 PUSH2 0x13D2 JUMP JUMPDEST JUMPDEST PUSH1 0x4 PUSH1 0x0 SWAP1 SLOAD SWAP1 PUSH2 0x100 EXP SWAP1 DIV PUSH1 0xFF AND PUSH1 0x1 DUP2 GT ISZERO PUSH2 0x309 JUMPI PUSH2 0x308 PUSH2 0x13D2 JUMP JUMPDEST JUMPDEST EQ ISZERO PUSH2 0x3C3 JUMPI CALLER PUSH20 0xFFFFFFFFFFFFFFFFFFFFFFFFFFFFFFFFFFFFFFFF AND PUSH1 0x0 DUP1 SLOAD SWAP1 PUSH2 0x100 EXP SWAP1 DIV PUSH20 0xFFFFFFFFFFFFFFFFFFFFFFFFFFFFFFFFFFFFFFFF AND PUSH20 0xFFFFFFFFFFFFFFFFFFFFFFFFFFFFFFFFFFFFFFFF AND EQ PUSH2 0x39D JUMPI PUSH1 0x40 MLOAD PUSH32 0x8C379A000000000000000000000000000000000000000000000000000000000 DUP2 MSTORE PUSH1 0x4 ADD PUSH2 0x394 SWAP1 PUSH2 0x10EA JUMP JUMPDEST PUSH1 0x40 MLOAD DUP1 SWAP2 SUB SWAP1 REVERT JUMPDEST PUSH1 0x6 DUP3 PUSH1 0x40 MLOAD PUSH2 0x3AD SWAP2 SWAP1 PUSH2 0x1040 JUMP JUMPDEST SWAP1 DUP2 MSTORE PUSH1 0x20 ADD PUSH1 0x40 MLOAD DUP1 SWAP2 SUB SWAP1 KECCAK256 SLOAD SWAP1 POP PUSH2 0x3E5 JUMP JUMPDEST PUSH1 0x6 DUP3 PUSH1 0x40 MLOAD PUSH2 0x3D3 SWAP2 SWAP1 PUSH2 0x1040 JUMP JUMPDEST SWAP1 DUP2 MSTORE PUSH1 0x20 ADD PUSH1 0x40 MLOAD DUP1 SWAP2 SUB SWAP1 KECCAK256 SLOAD SWAP1 POP JUMPDEST SWAP2 SWAP1 POP JUMP JUMPDEST PUSH1 0x4 PUSH1 0x0 SWAP1 SLOAD SWAP1 PUSH2 0x100 EXP SWAP1 DIV PUSH1 0xFF AND DUP2 JUMP JUMPDEST PUSH1 0x2 SLOAD DUP2 JUMP JUMPDEST PUSH1 0x3 SLOAD NUMBER LT PUSH2 0x447 JUMPI PUSH1 0x40 MLOAD PUSH32 0x8C379A000000000000000000000000000000000000000000000000000000000 DUP2 MSTORE PUSH1 0x4 ADD PUSH2 0x43E SWAP1 PUSH2 0x10CA JUMP JUMPDEST PUSH1 0x40 MLOAD DUP1 SWAP2 SUB SWAP1 REVERT JUMPDEST CALLER PUSH20 0xFFFFFFFFFFFFFFFFFFFFFFFFFFFFFFFFFFFFFFFF AND PUSH1 0x0 DUP1 SLOAD SWAP1 PUSH2 0x100 EXP SWAP1 DIV PUSH20 0xFFFFFFFFFFFFFFFFFFFFFFFFFFFFFFFFFFFFFFFF AND PUSH20 0xFFFFFFFFFFFFFFFFFFFFFFFFFFFFFFFFFFFFFFFF AND EQ PUSH2 0x4D5 JUMPI PUSH1 0x40 MLOAD PUSH32 0x8C379A000000000000000000000000000000000000000000000000000000000 DUP2 MSTORE PUSH1 0x4 ADD PUSH2 0x4CC SWAP1 PUSH2 0x116A JUMP JUMPDEST PUSH1 0x40 MLOAD DUP1 SWAP2 SUB SWAP1 REVERT JUMPDEST PUSH1 0x3 DUP1 DUP2 GT ISZERO PUSH2 0x4E8 JUMPI PUSH2 0x4E7 PUSH2 0x13D2 JUMP JUMPDEST JUMPDEST PUSH1 0x4 PUSH1 0x1 SWAP1 SLOAD SWAP1 PUSH2 0x100 EXP SWAP1 DIV PUSH1 0xFF AND PUSH1 0x3 DUP2 GT ISZERO PUSH2 0x50A JUMPI PUSH2 0x509 PUSH2 0x13D2 JUMP JUMPDEST JUMPDEST EQ ISZERO PUSH2 0x54B JUMPI PUSH1 0x40 MLOAD PUSH32 0x8C379A000000000000000000000000000000000000000000000000000000000 DUP2 MSTORE PUSH1 0x4 ADD PUSH2 0x542 SWAP1 PUSH2 0x10CA JUMP JUMPDEST PUSH1 0x40 MLOAD DUP1 SWAP2 SUB SWAP1 REVERT JUMPDEST PUSH1 0x2 PUSH1 0x3 DUP2 GT ISZERO PUSH2 0x55F JUMPI PUSH2 0x55E PUSH2 0x13D2 JUMP JUMPDEST JUMPDEST PUSH1 0x4 PUSH1 0x1 SWAP1 SLOAD SWAP1 PUSH2 0x100 EXP SWAP1 DIV PUSH1 0xFF AND PUSH1 0x3 DUP2 GT ISZERO PUSH2 0x581 JUMPI PUSH2 0x580 PUSH2 0x13D2 JUMP JUMPDEST JUMPDEST EQ ISZERO PUSH2 0x5C2 JUMPI PUSH1 0x40 MLOAD PUSH32 0x8C379A000000000000000000000000000000000000000000000000000000000 DUP2 MSTORE PUSH1 0x4 ADD PUSH2 0x5B9 SWAP1 PUSH2 0x112A JUMP JUMPDEST PUSH1 0x40 MLOAD DUP1 SWAP2 SUB SWAP1 REVERT JUMPDEST PUSH1 0x3 PUSH1 0x4 PUSH1 0x1 PUSH2 0x100 EXP DUP2 SLOAD DUP2 PUSH1 0xFF MUL NOT AND SWAP1 DUP4 PUSH1 0x3 DUP2 GT ISZERO PUSH2 0x5E8 JUMPI PUSH2 0x5E7 PUSH2 0x13D2 JUMP JUMPDEST JUMPDEST MUL OR SWAP1 SSTORE POP JUMP JUMPDEST PUSH1 0x4 PUSH1 0x1 SWAP1 SLOAD SWAP1 PUSH2 0x100 EXP SWAP1 DIV PUSH1 0xFF AND DUP2 JUMP JUMPDEST PUSH1 0x60 PUSH1 0x0 PUSH1 0x40 MLOAD DUP1 PUSH1 0x20 ADD PUSH1 0x40 MSTORE DUP1 PUSH1 0x0 DUP2 MSTORE POP SWAP1 POP PUSH1 0x4 PUSH1 0x0 SWAP1 SLOAD SWAP1 PUSH2 0x100 EXP SWAP1 DIV PUSH1 0xFF AND PUSH1 0x1 DUP2 GT ISZERO PUSH2 0x63A JUMPI PUSH2 0x639 PUSH2 0x13D2 JUMP JUMPDEST JUMPDEST PUSH1 0x0 PUSH1 0x1 DUP2 GT ISZERO PUSH2 0x64E JUMPI PUSH2 0x64D PUSH2 0x13D2 JUMP JUMPDEST JUMPDEST PUSH1 0x1 DUP2 GT ISZERO PUSH2 0x660 JUMPI PUSH2 0x65F PUSH2 0x13D2 JUMP JUMPDEST JUMPDEST EQ ISZERO PUSH2 0x6A4 JUMPI PUSH1 0x40 MLOAD DUP1 PUSH1 0x40 ADD PUSH1 0x40 MSTORE DUP1 PUSH1 0x6 DUP2 MSTORE PUSH1 0x20 ADD PUSH32 0x5075626C69630000000000000000000000000000000000000000000000000000 DUP2 MSTORE POP SWAP2 POP POP PUSH2 0x731 JUMP JUMPDEST PUSH1 0x4 PUSH1 0x0 SWAP1 SLOAD SWAP1 PUSH2 0x100 EXP SWAP1 DIV PUSH1 0xFF AND PUSH1 0x1 DUP2 GT ISZERO PUSH2 0x6C6 JUMPI PUSH2 0x6C5 PUSH2 0x13D2 JUMP JUMPDEST JUMPDEST PUSH1 0x1 DUP1 DUP2 GT ISZERO PUSH2 0x6D9 JUMPI PUSH2 0x6D8 PUSH2 0x13D2 JUMP JUMPDEST JUMPDEST PUSH1 0x1 DUP2 GT ISZERO PUSH2 0x6EB JUMPI PUSH2 0x6EA PUSH2 0x13D2 JUMP JUMPDEST JUMPDEST EQ ISZERO PUSH2 0x72F JUMPI PUSH1 0x40 MLOAD DUP1 PUSH1 0x40 ADD PUSH1 0x40 MSTORE DUP1 PUSH1 0x7 DUP2 MSTORE PUSH1 0x20 ADD PUSH32 0x5072697661746500000000000000000000000000000000000000000000000000 DUP2 MSTORE POP SWAP2 POP POP PUSH2 0x731 JUMP JUMPDEST POP JUMPDEST SWAP1 JUMP JUMPDEST PUSH1 0x3 SLOAD NUMBER LT PUSH2 0x778 JUMPI PUSH1 0x40 MLOAD PUSH32 0x8C379A000000000000000000000000000000000000000000000000000000000 DUP2 MSTORE PUSH1 0x4 ADD PUSH2 0x76F SWAP1 PUSH2 0x10CA JUMP JUMPDEST PUSH1 0x40 MLOAD DUP1 SWAP2 SUB SWAP1 REVERT JUMPDEST CALLER PUSH20 0xFFFFFFFFFFFFFFFFFFFFFFFFFFFFFFFFFFFFFFFF AND PUSH1 0x0 DUP1 SLOAD SWAP1 PUSH2 0x100 EXP SWAP1 DIV PUSH20 0xFFFFFFFFFFFFFFFFFFFFFFFFFFFFFFFFFFFFFFFF AND PUSH20 0xFFFFFFFFFFFFFFFFFFFFFFFFFFFFFFFFFFFFFFFF AND EQ PUSH2 0x806 JUMPI PUSH1 0x40 MLOAD PUSH32 0x8C379A000000000000000000000000000000000000000000000000000000000 DUP2 MSTORE PUSH1 0x4 ADD PUSH2 0x7FD SWAP1 PUSH2 0x116A JUMP JUMPDEST PUSH1 0x40 MLOAD DUP1 SWAP2 SUB SWAP1 REVERT JUMPDEST PUSH1 0x3 DUP1 DUP2 GT ISZERO PUSH2 0x819 JUMPI PUSH2 0x818 PUSH2 0x13D2 JUMP JUMPDEST JUMPDEST PUSH1 0x4 PUSH1 0x1 SWAP1 SLOAD SWAP1 PUSH2 0x100 EXP SWAP1 DIV PUSH1 0xFF AND PUSH1 0x3 DUP2 GT ISZERO PUSH2 0x83B JUMPI PUSH2 0x83A PUSH2 0x13D2 JUMP JUMPDEST JUMPDEST EQ ISZERO PUSH2 0x87C JUMPI PUSH1 0x40 MLOAD PUSH32 0x8C379A000000000000000000000000000000000000000000000000000000000 DUP2 MSTORE PUSH1 0x4 ADD PUSH2 0x873 SWAP1 PUSH2 0x10CA JUMP JUMPDEST PUSH1 0x40 MLOAD DUP1 SWAP2 SUB SWAP1 REVERT JUMPDEST PUSH1 0x2 PUSH1 0x3 DUP2 GT ISZERO PUSH2 0x890 JUMPI PUSH2 0x88F PUSH2 0x13D2 JUMP JUMPDEST JUMPDEST PUSH1 0x4 PUSH1 0x1 SWAP1 SLOAD SWAP1 PUSH2 0x100 EXP SWAP1 DIV PUSH1 0xFF AND PUSH1 0x3 DUP2 GT ISZERO PUSH2 0x8B2 JUMPI PUSH2 0x8B1 PUSH2 0x13D2 JUMP JUMPDEST JUMPDEST EQ ISZERO PUSH2 0x8F3 JUMPI PUSH1 0x40 MLOAD PUSH32 0x8C379A000000000000000000000000000000000000000000000000000000000 DUP2 MSTORE PUSH1 0x4 ADD PUSH2 0x8EA SWAP1 PUSH2 0x112A JUMP JUMPDEST PUSH1 0x40 MLOAD DUP1 SWAP2 SUB SWAP1 REVERT JUMPDEST PUSH1 0x2 PUSH1 0x4 PUSH1 0x1 PUSH2 0x100 EXP DUP2 SLOAD DUP2 PUSH1 0xFF MUL NOT AND SWAP1 DUP4 PUSH1 0x3 DUP2 GT ISZERO PUSH2 0x919 JUMPI PUSH2 0x918 PUSH2 0x13D2 JUMP JUMPDEST JUMPDEST MUL OR SWAP1 SSTORE POP JUMP JUMPDEST CALLER PUSH20 0xFFFFFFFFFFFFFFFFFFFFFFFFFFFFFFFFFFFFFFFF AND PUSH1 0x0 DUP1 SLOAD SWAP1 PUSH2 0x100 EXP SWAP1 DIV PUSH20 0xFFFFFFFFFFFFFFFFFFFFFFFFFFFFFFFFFFFFFFFF AND PUSH20 0xFFFFFFFFFFFFFFFFFFFFFFFFFFFFFFFFFFFFFFFF AND EQ PUSH2 0x9AE JUMPI PUSH1 0x40 MLOAD PUSH32 0x8C379A000000000000000000000000000000000000000000000000000000000 DUP2 MSTORE PUSH1 0x4 ADD PUSH2 0x9A5 SWAP1 PUSH2 0x116A JUMP JUMPDEST PUSH1 0x40 MLOAD DUP1 SWAP2 SUB SWAP1 REVERT JUMPDEST DUP1 PUSH1 0x3 SLOAD PUSH2 0x9BC SWAP2 SWAP1 PUSH2 0x1222 JUMP JUMPDEST PUSH1 0x3 DUP2 SWAP1 SSTORE POP POP JUMP JUMPDEST PUSH1 0x3 SLOAD NUMBER LT PUSH2 0xA09 JUMPI PUSH1 0x40 MLOAD PUSH32 0x8C379A000000000000000000000000000000000000000000000000000000000 DUP2 MSTORE PUSH1 0x4 ADD PUSH2 0xA00 SWAP1 PUSH2 0x10CA JUMP JUMPDEST PUSH1 0x40 MLOAD DUP1 SWAP2 SUB SWAP1 REVERT JUMPDEST PUSH1 0x2 SLOAD NUMBER GT PUSH2 0xA4D JUMPI PUSH1 0x40 MLOAD PUSH32 0x8C379A000000000000000000000000000000000000000000000000000000000 DUP2 MSTORE PUSH1 0x4 ADD PUSH2 0xA44 SWAP1 PUSH2 0x114A JUMP JUMPDEST PUSH1 0x40 MLOAD DUP1 SWAP2 SUB SWAP1 REVERT JUMPDEST PUSH1 0x3 DUP1 DUP2 GT ISZERO PUSH2 0xA60 JUMPI PUSH2 0xA5F PUSH2 0x13D2 JUMP JUMPDEST JUMPDEST PUSH1 0x4 PUSH1 0x1 SWAP1 SLOAD SWAP1 PUSH2 0x100 EXP SWAP1 DIV PUSH1 0xFF AND PUSH1 0x3 DUP2 GT ISZERO PUSH2 0xA82 JUMPI PUSH2 0xA81 PUSH2 0x13D2 JUMP JUMPDEST JUMPDEST EQ ISZERO PUSH2 0xAC3 JUMPI PUSH1 0x40 MLOAD PUSH32 0x8C379A000000000000000000000000000000000000000000000000000000000 DUP2 MSTORE PUSH1 0x4 ADD PUSH2 0xABA SWAP1 PUSH2 0x10CA JUMP JUMPDEST PUSH1 0x40 MLOAD DUP1 SWAP2 SUB SWAP1 REVERT JUMPDEST PUSH1 0x2 PUSH1 0x3 DUP2 GT ISZERO PUSH2 0xAD7 JUMPI PUSH2 0xAD6 PUSH2 0x13D2 JUMP JUMPDEST JUMPDEST PUSH1 0x4 PUSH1 0x1 SWAP1 SLOAD SWAP1 PUSH2 0x100 EXP SWAP1 DIV PUSH1 0xFF AND PUSH1 0x3 DUP2 GT ISZERO PUSH2 0xAF9 JUMPI PUSH2 0xAF8 PUSH2 0x13D2 JUMP JUMPDEST JUMPDEST EQ ISZERO PUSH2 0xB3A JUMPI PUSH1 0x40 MLOAD PUSH32 0x8C379A000000000000000000000000000000000000000000000000000000000 DUP2 MSTORE PUSH1 0x4 ADD PUSH2 0xB31 SWAP1 PUSH2 0x112A JUMP JUMPDEST PUSH1 0x40 MLOAD DUP1 SWAP2 SUB SWAP1 REVERT JUMPDEST PUSH1 0x0 CALLER SWAP1 POP PUSH1 0x5 PUSH1 0x0 DUP3 PUSH20 0xFFFFFFFFFFFFFFFFFFFFFFFFFFFFFFFFFFFFFFFF AND PUSH20 0xFFFFFFFFFFFFFFFFFFFFFFFFFFFFFFFFFFFFFFFF AND DUP2 MSTORE PUSH1 0x20 ADD SWAP1 DUP2 MSTORE PUSH1 0x20 ADD PUSH1 0x0 KECCAK256 PUSH1 0x0 SWAP1 SLOAD SWAP1 PUSH2 0x100 EXP SWAP1 DIV PUSH1 0xFF AND ISZERO PUSH2 0xBCC JUMPI PUSH1 0x40 MLOAD PUSH32 0x8C379A000000000000000000000000000000000000000000000000000000000 DUP2 MSTORE PUSH1 0x4 ADD PUSH2 0xBC3 SWAP1 PUSH2 0x110A JUMP JUMPDEST PUSH1 0x40 MLOAD DUP1 SWAP2 SUB SWAP1 REVERT JUMPDEST PUSH1 0x1 PUSH1 0x5 PUSH1 0x0 DUP4 PUSH20 0xFFFFFFFFFFFFFFFFFFFFFFFFFFFFFFFFFFFFFFFF AND PUSH20 0xFFFFFFFFFFFFFFFFFFFFFFFFFFFFFFFFFFFFFFFF AND DUP2 MSTORE PUSH1 0x20 ADD SWAP1 DUP2 MSTORE PUSH1 0x20 ADD PUSH1 0x0 KECCAK256 PUSH1 0x0 PUSH2 0x100 EXP DUP2 SLOAD DUP2 PUSH1 0xFF MUL NOT AND SWAP1 DUP4 ISZERO ISZERO MUL OR SWAP1 SSTORE POP PUSH1 0x1 PUSH1 0x6 DUP4 PUSH1 0x40 MLOAD PUSH2 0xC36 SWAP2 SWAP1 PUSH2 0x1040 JUMP JUMPDEST SWAP1 DUP2 MSTORE PUSH1 0x20 ADD PUSH1 0x40 MLOAD DUP1 SWAP2 SUB SWAP1 KECCAK256 PUSH1 0x0 DUP3 DUP3 SLOAD PUSH2 0xC53 SWAP2 SWAP1 PUSH2 0x1222 JUMP JUMPDEST SWAP3 POP POP DUP2 SWAP1 SSTORE POP POP POP JUMP JUMPDEST CALLER PUSH20 0xFFFFFFFFFFFFFFFFFFFFFFFFFFFFFFFFFFFFFFFF AND PUSH1 0x0 DUP1 SLOAD SWAP1 PUSH2 0x100 EXP SWAP1 DIV PUSH20 0xFFFFFFFFFFFFFFFFFFFFFFFFFFFFFFFFFFFFFFFF AND PUSH20 0xFFFFFFFFFFFFFFFFFFFFFFFFFFFFFFFFFFFFFFFF AND EQ PUSH2 0xCEC JUMPI PUSH1 0x40 MLOAD PUSH32 0x8C379A000000000000000000000000000000000000000000000000000000000 DUP2 MSTORE PUSH1 0x4 ADD PUSH2 0xCE3 SWAP1 PUSH2 0x116A JUMP JUMPDEST PUSH1 0x40 MLOAD DUP1 SWAP2 SUB SWAP1 REVERT JUMPDEST DUP1 PUSH1 0x1 SWAP1 DUP1 MLOAD SWAP1 PUSH1 0x20 ADD SWAP1 PUSH2 0xD02 SWAP3 SWAP2 SWAP1 PUSH2 0xD2A JUMP JUMPDEST POP POP JUMP JUMPDEST PUSH1 0x0 DUP1 SLOAD SWAP1 PUSH2 0x100 EXP SWAP1 DIV PUSH20 0xFFFFFFFFFFFFFFFFFFFFFFFFFFFFFFFFFFFFFFFF AND DUP2 JUMP JUMPDEST DUP3 DUP1 SLOAD PUSH2 0xD36 SWAP1 PUSH2 0x1340 JUMP JUMPDEST SWAP1 PUSH1 0x0 MSTORE PUSH1 0x20 PUSH1 0x0 KECCAK256 SWAP1 PUSH1 0x1F ADD PUSH1 0x20 SWAP1 DIV DUP2 ADD SWAP3 DUP3 PUSH2 0xD58 JUMPI PUSH1 0x0 DUP6 SSTORE PUSH2 0xD9F JUMP JUMPDEST DUP3 PUSH1 0x1F LT PUSH2 0xD71 JUMPI DUP1 MLOAD PUSH1 0xFF NOT AND DUP4 DUP1 ADD OR DUP6 SSTORE PUSH2 0xD9F JUMP JUMPDEST DUP3 DUP1 ADD PUSH1 0x1 ADD DUP6 SSTORE DUP3 ISZERO PUSH2 0xD9F JUMPI SWAP2 DUP3 ADD JUMPDEST DUP3 DUP2 GT ISZERO PUSH2 0xD9E JUMPI DUP3 MLOAD DUP3 SSTORE SWAP2 PUSH1 0x20 ADD SWAP2 SWAP1 PUSH1 0x1 ADD SWAP1 PUSH2 0xD83 JUMP JUMPDEST JUMPDEST POP SWAP1 POP PUSH2 0xDAC SWAP2 SWAP1 PUSH2 0xDB0 JUMP JUMPDEST POP SWAP1 JUMP JUMPDEST JUMPDEST DUP1 DUP3 GT ISZERO PUSH2 0xDC9 JUMPI PUSH1 0x0 DUP2 PUSH1 0x0 SWAP1 SSTORE POP PUSH1 0x1 ADD PUSH2 0xDB1 JUMP JUMPDEST POP SWAP1 JUMP JUMPDEST PUSH1 0x0 PUSH2 0xDE0 PUSH2 0xDDB DUP5 PUSH2 0x11CA JUMP JUMPDEST PUSH2 0x11A5 JUMP JUMPDEST SWAP1 POP DUP3 DUP2 MSTORE PUSH1 0x20 DUP2 ADD DUP5 DUP5 DUP5 ADD GT ISZERO PUSH2 0xDFC JUMPI PUSH2 0xDFB PUSH2 0x1464 JUMP JUMPDEST JUMPDEST PUSH2 0xE07 DUP5 DUP3 DUP6 PUSH2 0x12FE JUMP JUMPDEST POP SWAP4 SWAP3 POP POP POP JUMP JUMPDEST PUSH1 0x0 DUP3 PUSH1 0x1F DUP4 ADD SLT PUSH2 0xE24 JUMPI PUSH2 0xE23 PUSH2 0x145F JUMP JUMPDEST JUMPDEST DUP2 CALLDATALOAD PUSH2 0xE34 DUP5 DUP3 PUSH1 0x20 DUP7 ADD PUSH2 0xDCD JUMP JUMPDEST SWAP2 POP POP SWAP3 SWAP2 POP POP JUMP JUMPDEST PUSH1 0x0 DUP2 CALLDATALOAD SWAP1 POP PUSH2 0xE4C DUP2 PUSH2 0x15C8 JUMP JUMPDEST SWAP3 SWAP2 POP POP JUMP JUMPDEST PUSH1 0x0 PUSH1 0x20 DUP3 DUP5 SUB SLT ISZERO PUSH2 0xE68 JUMPI PUSH2 0xE67 PUSH2 0x146E JUMP JUMPDEST JUMPDEST PUSH1 0x0 DUP3 ADD CALLDATALOAD PUSH8 0xFFFFFFFFFFFFFFFF DUP2 GT ISZERO PUSH2 0xE86 JUMPI PUSH2 0xE85 PUSH2 0x1469 JUMP JUMPDEST JUMPDEST PUSH2 0xE92 DUP5 DUP3 DUP6 ADD PUSH2 0xE0F JUMP JUMPDEST SWAP2 POP POP SWAP3 SWAP2 POP POP JUMP JUMPDEST PUSH1 0x0 PUSH1 0x20 DUP3 DUP5 SUB SLT ISZERO PUSH2 0xEB1 JUMPI PUSH2 0xEB0 PUSH2 0x146E JUMP JUMPDEST JUMPDEST PUSH1 0x0 PUSH2 0xEBF DUP5 DUP3 DUP6 ADD PUSH2 0xE3D JUMP JUMPDEST SWAP2 POP POP SWAP3 SWAP2 POP POP JUMP JUMPDEST PUSH2 0xED1 DUP2 PUSH2 0x1278 JUMP JUMPDEST DUP3 MSTORE POP POP JUMP JUMPDEST PUSH2 0xEE0 DUP2 PUSH2 0x12DA JUMP JUMPDEST DUP3 MSTORE POP POP JUMP JUMPDEST PUSH2 0xEEF DUP2 PUSH2 0x12EC JUMP JUMPDEST DUP3 MSTORE POP POP JUMP JUMPDEST PUSH1 0x0 PUSH2 0xF00 DUP3 PUSH2 0x11FB JUMP JUMPDEST PUSH2 0xF0A DUP2 DUP6 PUSH2 0x1206 JUMP JUMPDEST SWAP4 POP PUSH2 0xF1A DUP2 DUP6 PUSH1 0x20 DUP7 ADD PUSH2 0x130D JUMP JUMPDEST PUSH2 0xF23 DUP2 PUSH2 0x1473 JUMP JUMPDEST DUP5 ADD SWAP2 POP POP SWAP3 SWAP2 POP POP JUMP JUMPDEST PUSH1 0x0 PUSH2 0xF39 DUP3 PUSH2 0x11FB JUMP JUMPDEST PUSH2 0xF43 DUP2 DUP6 PUSH2 0x1217 JUMP JUMPDEST SWAP4 POP PUSH2 0xF53 DUP2 DUP6 PUSH1 0x20 DUP7 ADD PUSH2 0x130D JUMP JUMPDEST DUP1 DUP5 ADD SWAP2 POP POP SWAP3 SWAP2 POP POP JUMP JUMPDEST PUSH1 0x0 PUSH2 0xF6C PUSH1 0x17 DUP4 PUSH2 0x1206 JUMP JUMPDEST SWAP2 POP PUSH2 0xF77 DUP3 PUSH2 0x1484 JUMP JUMPDEST PUSH1 0x20 DUP3 ADD SWAP1 POP SWAP2 SWAP1 POP JUMP JUMPDEST PUSH1 0x0 PUSH2 0xF8F PUSH1 0x17 DUP4 PUSH2 0x1206 JUMP JUMPDEST SWAP2 POP PUSH2 0xF9A DUP3 PUSH2 0x14AD JUMP JUMPDEST PUSH1 0x20 DUP3 ADD SWAP1 POP SWAP2 SWAP1 POP JUMP JUMPDEST PUSH1 0x0 PUSH2 0xFB2 PUSH1 0x17 DUP4 PUSH2 0x1206 JUMP JUMPDEST SWAP2 POP PUSH2 0xFBD DUP3 PUSH2 0x14D6 JUMP JUMPDEST PUSH1 0x20 DUP3 ADD SWAP1 POP SWAP2 SWAP1 POP JUMP JUMPDEST PUSH1 0x0 PUSH2 0xFD5 PUSH1 0x1B DUP4 PUSH2 0x1206 JUMP JUMPDEST SWAP2 POP PUSH2 0xFE0 DUP3 PUSH2 0x14FF JUMP JUMPDEST PUSH1 0x20 DUP3 ADD SWAP1 POP SWAP2 SWAP1 POP JUMP JUMPDEST PUSH1 0x0 PUSH2 0xFF8 PUSH1 0x1D DUP4 PUSH2 0x1206 JUMP JUMPDEST SWAP2 POP PUSH2 0x1003 DUP3 PUSH2 0x1528 JUMP JUMPDEST PUSH1 0x20 DUP3 ADD SWAP1 POP SWAP2 SWAP1 POP JUMP JUMPDEST PUSH1 0x0 PUSH2 0x101B PUSH1 0x31 DUP4 PUSH2 0x1206 JUMP JUMPDEST SWAP2 POP PUSH2 0x1026 DUP3 PUSH2 0x1551 JUMP JUMPDEST PUSH1 0x40 DUP3 ADD SWAP1 POP SWAP2 SWAP1 POP JUMP JUMPDEST PUSH2 0x103A DUP2 PUSH2 0x12D0 JUMP JUMPDEST DUP3 MSTORE POP POP JUMP JUMPDEST PUSH1 0x0 PUSH2 0x104C DUP3 DUP5 PUSH2 0xF2E JUMP JUMPDEST SWAP2 POP DUP2 SWAP1 POP SWAP3 SWAP2 POP POP JUMP JUMPDEST PUSH1 0x0 PUSH1 0x20 DUP3 ADD SWAP1 POP PUSH2 0x106C PUSH1 0x0 DUP4 ADD DUP5 PUSH2 0xEC8 JUMP JUMPDEST SWAP3 SWAP2 POP POP JUMP JUMPDEST PUSH1 0x0 PUSH1 0x20 DUP3 ADD SWAP1 POP PUSH2 0x1087 PUSH1 0x0 DUP4 ADD DUP5 PUSH2 0xED7 JUMP JUMPDEST SWAP3 SWAP2 POP POP JUMP JUMPDEST PUSH1 0x0 PUSH1 0x20 DUP3 ADD SWAP1 POP PUSH2 0x10A2 PUSH1 0x0 DUP4 ADD DUP5 PUSH2 0xEE6 JUMP JUMPDEST SWAP3 SWAP2 POP POP JUMP JUMPDEST PUSH1 0x0 PUSH1 0x20 DUP3 ADD SWAP1 POP DUP2 DUP2 SUB PUSH1 0x0 DUP4 ADD MSTORE PUSH2 0x10C2 DUP2 DUP5 PUSH2 0xEF5 JUMP JUMPDEST SWAP1 POP SWAP3 SWAP2 POP POP JUMP JUMPDEST PUSH1 0x0 PUSH1 0x20 DUP3 ADD SWAP1 POP DUP2 DUP2 SUB PUSH1 0x0 DUP4 ADD MSTORE PUSH2 0x10E3 DUP2 PUSH2 0xF5F JUMP JUMPDEST SWAP1 POP SWAP2 SWAP1 POP JUMP JUMPDEST PUSH1 0x0 PUSH1 0x20 DUP3 ADD SWAP1 POP DUP2 DUP2 SUB PUSH1 0x0 DUP4 ADD MSTORE PUSH2 0x1103 DUP2 PUSH2 0xF82 JUMP JUMPDEST SWAP1 POP SWAP2 SWAP1 POP JUMP JUMPDEST PUSH1 0x0 PUSH1 0x20 DUP3 ADD SWAP1 POP DUP2 DUP2 SUB PUSH1 0x0 DUP4 ADD MSTORE PUSH2 0x1123 DUP2 PUSH2 0xFA5 JUMP JUMPDEST SWAP1 POP SWAP2 SWAP1 POP JUMP JUMPDEST PUSH1 0x0 PUSH1 0x20 DUP3 ADD SWAP1 POP DUP2 DUP2 SUB PUSH1 0x0 DUP4 ADD MSTORE PUSH2 0x1143 DUP2 PUSH2 0xFC8 JUMP JUMPDEST SWAP1 POP SWAP2 SWAP1 POP JUMP JUMPDEST PUSH1 0x0 PUSH1 0x20 DUP3 ADD SWAP1 POP DUP2 DUP2 SUB PUSH1 0x0 DUP4 ADD MSTORE PUSH2 0x1163 DUP2 PUSH2 0xFEB JUMP JUMPDEST SWAP1 POP SWAP2 SWAP1 POP JUMP JUMPDEST PUSH1 0x0 PUSH1 0x20 DUP3 ADD SWAP1 POP DUP2 DUP2 SUB PUSH1 0x0 DUP4 ADD MSTORE PUSH2 0x1183 DUP2 PUSH2 0x100E JUMP JUMPDEST SWAP1 POP SWAP2 SWAP1 POP JUMP JUMPDEST PUSH1 0x0 PUSH1 0x20 DUP3 ADD SWAP1 POP PUSH2 0x119F PUSH1 0x0 DUP4 ADD DUP5 PUSH2 0x1031 JUMP JUMPDEST SWAP3 SWAP2 POP POP JUMP JUMPDEST PUSH1 0x0 PUSH2 0x11AF PUSH2 0x11C0 JUMP JUMPDEST SWAP1 POP PUSH2 0x11BB DUP3 DUP3 PUSH2 0x1372 JUMP JUMPDEST SWAP2 SWAP1 POP JUMP JUMPDEST PUSH1 0x0 PUSH1 0x40 MLOAD SWAP1 POP SWAP1 JUMP JUMPDEST PUSH1 0x0 PUSH8 0xFFFFFFFFFFFFFFFF DUP3 GT ISZERO PUSH2 0x11E5 JUMPI PUSH2 0x11E4 PUSH2 0x1430 JUMP JUMPDEST JUMPDEST PUSH2 0x11EE DUP3 PUSH2 0x1473 JUMP JUMPDEST SWAP1 POP PUSH1 0x20 DUP2 ADD SWAP1 POP SWAP2 SWAP1 POP JUMP JUMPDEST PUSH1 0x0 DUP2 MLOAD SWAP1 POP SWAP2 SWAP1 POP JUMP JUMPDEST PUSH1 0x0 DUP3 DUP3 MSTORE PUSH1 0x20 DUP3 ADD SWAP1 POP SWAP3 SWAP2 POP POP JUMP JUMPDEST PUSH1 0x0 DUP2 SWAP1 POP SWAP3 SWAP2 POP POP JUMP JUMPDEST PUSH1 0x0 PUSH2 0x122D DUP3 PUSH2 0x12D0 JUMP JUMPDEST SWAP2 POP PUSH2 0x1238 DUP4 PUSH2 0x12D0 JUMP JUMPDEST SWAP3 POP DUP3 PUSH32 0xFFFFFFFFFFFFFFFFFFFFFFFFFFFFFFFFFFFFFFFFFFFFFFFFFFFFFFFFFFFFFFFF SUB DUP3 GT ISZERO PUSH2 0x126D JUMPI PUSH2 0x126C PUSH2 0x13A3 JUMP JUMPDEST JUMPDEST DUP3 DUP3 ADD SWAP1 POP SWAP3 SWAP2 POP POP JUMP JUMPDEST PUSH1 0x0 PUSH2 0x1283 DUP3 PUSH2 0x12B0 JUMP JUMPDEST SWAP1 POP SWAP2 SWAP1 POP JUMP JUMPDEST PUSH1 0x0 DUP2 SWAP1 POP PUSH2 0x1298 DUP3 PUSH2 0x15A0 JUMP JUMPDEST SWAP2 SWAP1 POP JUMP JUMPDEST PUSH1 0x0 DUP2 SWAP1 POP PUSH2 0x12AB DUP3 PUSH2 0x15B4 JUMP JUMPDEST SWAP2 SWAP1 POP JUMP JUMPDEST PUSH1 0x0 PUSH20 0xFFFFFFFFFFFFFFFFFFFFFFFFFFFFFFFFFFFFFFFF DUP3 AND SWAP1 POP SWAP2 SWAP1 POP JUMP JUMPDEST PUSH1 0x0 DUP2 SWAP1 POP SWAP2 SWAP1 POP JUMP JUMPDEST PUSH1 0x0 PUSH2 0x12E5 DUP3 PUSH2 0x128A JUMP JUMPDEST SWAP1 POP SWAP2 SWAP1 POP JUMP JUMPDEST PUSH1 0x0 PUSH2 0x12F7 DUP3 PUSH2 0x129D JUMP JUMPDEST SWAP1 POP SWAP2 SWAP1 POP JUMP JUMPDEST DUP3 DUP2 DUP4 CALLDATACOPY PUSH1 0x0 DUP4 DUP4 ADD MSTORE POP POP POP JUMP JUMPDEST PUSH1 0x0 JUMPDEST DUP4 DUP2 LT ISZERO PUSH2 0x132B JUMPI DUP1 DUP3 ADD MLOAD DUP2 DUP5 ADD MSTORE PUSH1 0x20 DUP2 ADD SWAP1 POP PUSH2 0x1310 JUMP JUMPDEST DUP4 DUP2 GT ISZERO PUSH2 0x133A JUMPI PUSH1 0x0 DUP5 DUP5 ADD MSTORE JUMPDEST POP POP POP POP JUMP JUMPDEST PUSH1 0x0 PUSH1 0x2 DUP3 DIV SWAP1 POP PUSH1 0x1 DUP3 AND DUP1 PUSH2 0x1358 JUMPI PUSH1 0x7F DUP3 AND SWAP2 POP JUMPDEST PUSH1 0x20 DUP3 LT DUP2 EQ ISZERO PUSH2 0x136C JUMPI PUSH2 0x136B PUSH2 0x1401 JUMP JUMPDEST JUMPDEST POP SWAP2 SWAP1 POP JUMP JUMPDEST PUSH2 0x137B DUP3 PUSH2 0x1473 JUMP JUMPDEST DUP2 ADD DUP2 DUP2 LT PUSH8 0xFFFFFFFFFFFFFFFF DUP3 GT OR ISZERO PUSH2 0x139A JUMPI PUSH2 0x1399 PUSH2 0x1430 JUMP JUMPDEST JUMPDEST DUP1 PUSH1 0x40 MSTORE POP POP POP JUMP JUMPDEST PUSH32 0x4E487B7100000000000000000000000000000000000000000000000000000000 PUSH1 0x0 MSTORE PUSH1 0x11 PUSH1 0x4 MSTORE PUSH1 0x24 PUSH1 0x0 REVERT JUMPDEST PUSH32 0x4E487B7100000000000000000000000000000000000000000000000000000000 PUSH1 0x0 MSTORE PUSH1 0x21 PUSH1 0x4 MSTORE PUSH1 0x24 PUSH1 0x0 REVERT JUMPDEST PUSH32 0x4E487B7100000000000000000000000000000000000000000000000000000000 PUSH1 0x0 MSTORE PUSH1 0x22 PUSH1 0x4 MSTORE PUSH1 0x24 PUSH1 0x0 REVERT JUMPDEST PUSH32 0x4E487B7100000000000000000000000000000000000000000000000000000000 PUSH1 0x0 MSTORE PUSH1 0x41 PUSH1 0x4 MSTORE PUSH1 0x24 PUSH1 0x0 REVERT JUMPDEST PUSH1 0x0 DUP1 REVERT JUMPDEST PUSH1 0x0 DUP1 REVERT JUMPDEST PUSH1 0x0 DUP1 REVERT JUMPDEST PUSH1 0x0 DUP1 REVERT JUMPDEST PUSH1 0x0 PUSH1 0x1F NOT PUSH1 0x1F DUP4 ADD AND SWAP1 POP SWAP2 SWAP1 POP JUMP JUMPDEST PUSH32 0x54686520706F6C6C20616C726561647920656E6465642E000000000000000000 PUSH1 0x0 DUP3 ADD MSTORE POP JUMP JUMPDEST PUSH32 0x546869732069732061207072697661746520706F6C6C2E000000000000000000 PUSH1 0x0 DUP3 ADD MSTORE POP JUMP JUMPDEST PUSH32 0x596F75206861766520616C726561647920766F74656421000000000000000000 PUSH1 0x0 DUP3 ADD MSTORE POP JUMP JUMPDEST PUSH32 0x54686520706F6C6C20686173206265656E2063616E63656C6C65640000000000 PUSH1 0x0 DUP3 ADD MSTORE POP JUMP JUMPDEST PUSH32 0x54686520706F6C6C20686173206E6F742073746172746564207965742E000000 PUSH1 0x0 DUP3 ADD MSTORE POP JUMP JUMPDEST PUSH32 0x4F6E6C79207468652063726561746572206F66207468697320706F6C6C206861 PUSH1 0x0 DUP3 ADD MSTORE PUSH32 0x7320746869732070726976696C6567652E000000000000000000000000000000 PUSH1 0x20 DUP3 ADD MSTORE POP JUMP JUMPDEST PUSH1 0x4 DUP2 LT PUSH2 0x15B1 JUMPI PUSH2 0x15B0 PUSH2 0x13D2 JUMP JUMPDEST JUMPDEST POP JUMP JUMPDEST PUSH1 0x2 DUP2 LT PUSH2 0x15C5 JUMPI PUSH2 0x15C4 PUSH2 0x13D2 JUMP JUMPDEST JUMPDEST POP JUMP JUMPDEST PUSH2 0x15D1 DUP2 PUSH2 0x12D0 JUMP JUMPDEST DUP2 EQ PUSH2 0x15DC JUMPI PUSH1 0x0 DUP1 REVERT JUMPDEST POP JUMP INVALID LOG2 PUSH5 0x6970667358 0x22 SLT KECCAK256 0x5E 0x25 SWAP12 SUB BLOCKHASH 0xB8 0x5C 0xD0 0xCA DUP15 MOD 0xB7 DIFFICULTY 0xE4 0xFC 0x29 0x27 CALLDATACOPY KECCAK256 DUP9 0x2F 0xBC 0xF6 0xD2 MULMOD 0xB1 NUMBER 0xBF 0xCB 0xD NUMBER PUSH30 0x64736F6C6343000807003300000000000000000000000000000000000000 "
				},
				"gasEstimates": {
					"creation": {
						"codeDepositCost": "1130600",
						"executionCost": "infinite",
						"totalCost": "infinite"
					},
					"external": {
						"cancelPoll()": "33365",
						"endBlock()": "2430",
						"endPoll()": "33409",
						"getPollType()": "infinite",
						"getResultOf(string)": "infinite",
						"increasePollDuration(uint256)": "infinite",
						"org()": "2599",
						"pollName()": "infinite",
						"pollState()": "2633",
						"pollType()": "2627",
						"renamePoll(string)": "infinite",
						"startBlock()": "2518",
						"voteFor(string)": "infinite"
					}
				},
				"methodIdentifiers": {
					"cancelPoll()": "b73b396b",
					"endBlock()": "083c6323",
					"endPoll()": "8d99b2eb",
					"getPollType()": "b6d325a3",
					"getResultOf(string)": "20ee04f5",
					"increasePollDuration(uint256)": "ba0c45c9",
					"org()": "cc1e2cb0",
					"pollName()": "18769765",
					"pollState()": "8f58d353",
					"pollType()": "237637a8",
					"renamePoll(string)": "c308b0dc",
					"startBlock()": "48cd4cb1",
					"voteFor(string)": "c04752d8"
				}
			},
			"storageLayout": {
				"storage": [
					{
						"astId": 77,
						"contract": "contracts/pollio.sol:Poll",
						"label": "org",
						"offset": 0,
						"slot": "0",
						"type": "t_address_payable"
					},
					{
						"astId": 79,
						"contract": "contracts/pollio.sol:Poll",
						"label": "pollName",
						"offset": 0,
						"slot": "1",
						"type": "t_string_storage"
					},
					{
						"astId": 81,
						"contract": "contracts/pollio.sol:Poll",
						"label": "startBlock",
						"offset": 0,
						"slot": "2",
						"type": "t_uint256"
					},
					{
						"astId": 83,
						"contract": "contracts/pollio.sol:Poll",
						"label": "endBlock",
						"offset": 0,
						"slot": "3",
						"type": "t_uint256"
					},
					{
						"astId": 89,
						"contract": "contracts/pollio.sol:Poll",
						"label": "pollType",
						"offset": 0,
						"slot": "4",
						"type": "t_enum(PollType)86"
					},
					{
						"astId": 97,
						"contract": "contracts/pollio.sol:Poll",
						"label": "pollState",
						"offset": 1,
						"slot": "4",
						"type": "t_enum(PollState)94"
					},
					{
						"astId": 101,
						"contract": "contracts/pollio.sol:Poll",
						"label": "isVoted",
						"offset": 0,
						"slot": "5",
						"type": "t_mapping(t_address,t_bool)"
					},
					{
						"astId": 105,
						"contract": "contracts/pollio.sol:Poll",
						"label": "result",
						"offset": 0,
						"slot": "6",
						"type": "t_mapping(t_string_memory_ptr,t_uint256)"
					}
				],
				"types": {
					"t_address": {
						"encoding": "inplace",
						"label": "address",
						"numberOfBytes": "20"
					},
					"t_address_payable": {
						"encoding": "inplace",
						"label": "address payable",
						"numberOfBytes": "20"
					},
					"t_bool": {
						"encoding": "inplace",
						"label": "bool",
						"numberOfBytes": "1"
					},
					"t_enum(PollState)94": {
						"encoding": "inplace",
						"label": "enum Poll.PollState",
						"numberOfBytes": "1"
					},
					"t_enum(PollType)86": {
						"encoding": "inplace",
						"label": "enum Poll.PollType",
						"numberOfBytes": "1"
					},
					"t_mapping(t_address,t_bool)": {
						"encoding": "mapping",
						"key": "t_address",
						"label": "mapping(address => bool)",
						"numberOfBytes": "32",
						"value": "t_bool"
					},
					"t_mapping(t_string_memory_ptr,t_uint256)": {
						"encoding": "mapping",
						"key": "t_string_memory_ptr",
						"label": "mapping(string => uint256)",
						"numberOfBytes": "32",
						"value": "t_uint256"
					},
					"t_string_memory_ptr": {
						"encoding": "bytes",
						"label": "string",
						"numberOfBytes": "32"
					},
					"t_string_storage": {
						"encoding": "bytes",
						"label": "string",
						"numberOfBytes": "32"
					},
					"t_uint256": {
						"encoding": "inplace",
						"label": "uint256",
						"numberOfBytes": "32"
					}
				}
			},
			"userdoc": {
				"kind": "user",
				"methods": {
					"cancelPoll()": {
						"notice": "Only Org can cancel the poll before the end date"
					},
					"endPoll()": {
						"notice": "Only Org can end the poll before the end date"
					},
					"getResultOf(string)": {
						"notice": "If the poll is Public then it returns the result to allElse if the poll is private then only Org can access the result"
					},
					"increasePollDuration(uint256)": {
						"notice": "Only the Org can increase the Poll duration (End Date)"
					},
					"renamePoll(string)": {
						"notice": "Only the Org can rename the Poll"
					},
					"voteFor(string)": {
						"notice": "Voters can vote between the start date and the end date"
					}
				},
				"notice": "Every time an org creates a new poll, an instance of this contract gets created",
				"version": 1
			}
		}
	}
}