{
	"contracts/pollio.sol": {
		"Poll": {
			"abi": [
				{
					"inputs": [
						{
							"internalType": "address",
							"name": "eoa",
							"type": "address"
						},
						{
							"internalType": "string",
							"name": "_pollName",
							"type": "string"
						},
						{
							"internalType": "uint256",
							"name": "pollDuration",
							"type": "uint256"
						},
						{
							"internalType": "string[]",
							"name": "_candidates",
							"type": "string[]"
						},
						{
							"internalType": "string",
							"name": "_pollType",
							"type": "string"
						}
					],
					"stateMutability": "nonpayable",
					"type": "constructor"
				},
				{
					"inputs": [],
					"name": "cancelPoll",
					"outputs": [],
					"stateMutability": "nonpayable",
					"type": "function"
				},
				{
					"inputs": [],
					"name": "endBlock",
					"outputs": [
						{
							"internalType": "uint256",
							"name": "",
							"type": "uint256"
						}
					],
					"stateMutability": "view",
					"type": "function"
				},
				{
					"inputs": [
						{
							"internalType": "string",
							"name": "candidate",
							"type": "string"
						}
					],
					"name": "getResult",
					"outputs": [
						{
							"internalType": "uint256",
							"name": "",
							"type": "uint256"
						}
					],
					"stateMutability": "view",
					"type": "function"
				},
				{
					"inputs": [
						{
							"internalType": "uint256",
							"name": "pollDuration",
							"type": "uint256"
						}
					],
					"name": "increasePollDuration",
					"outputs": [],
					"stateMutability": "nonpayable",
					"type": "function"
				},
				{
					"inputs": [],
					"name": "org",
					"outputs": [
						{
							"internalType": "address payable",
							"name": "",
							"type": "address"
						}
					],
					"stateMutability": "view",
					"type": "function"
				},
				{
					"inputs": [],
					"name": "pollName",
					"outputs": [
						{
							"internalType": "string",
							"name": "",
							"type": "string"
						}
					],
					"stateMutability": "view",
					"type": "function"
				},
				{
					"inputs": [],
					"name": "pollState",
					"outputs": [
						{
							"internalType": "enum Poll.State",
							"name": "",
							"type": "uint8"
						}
					],
					"stateMutability": "view",
					"type": "function"
				},
				{
					"inputs": [],
					"name": "pollType",
					"outputs": [
						{
							"internalType": "enum Poll.Type",
							"name": "",
							"type": "uint8"
						}
					],
					"stateMutability": "view",
					"type": "function"
				},
				{
					"inputs": [
						{
							"internalType": "string",
							"name": "name",
							"type": "string"
						}
					],
					"name": "renamePoll",
					"outputs": [],
					"stateMutability": "nonpayable",
					"type": "function"
				},
				{
					"inputs": [],
					"name": "startBlock",
					"outputs": [
						{
							"internalType": "uint256",
							"name": "",
							"type": "uint256"
						}
					],
					"stateMutability": "view",
					"type": "function"
				},
				{
					"inputs": [
						{
							"internalType": "string",
							"name": "candidate",
							"type": "string"
						}
					],
					"name": "voteFor",
					"outputs": [],
					"stateMutability": "nonpayable",
					"type": "function"
				}
			],
			"devdoc": {
				"author": "Soumajit Das",
				"kind": "dev",
				"methods": {
					"cancelPoll()": {
						"details": "Change the pollState to State.Cancelled"
					},
					"constructor": {
						"details": "Creates Poll with given data",
						"params": {
							"_candidates": "The array of the candidate IDs",
							"_pollName": "The name of the poll",
							"_pollType": "The type of the poll (Public/Private)",
							"eoa": "The Org account address",
							"pollDuration": "It counts the average block numbers between start and end date"
						}
					},
					"getResult(string)": {
						"params": {
							"candidate": "The ID of the candidate whose score we want to get"
						},
						"returns": {
							"_0": "result[candidate] The count of the votes of the candidate"
						}
					},
					"increasePollDuration(uint256)": {
						"params": {
							"pollDuration": "The number of blocks that we want to add with end block to increase the duration"
						}
					},
					"renamePoll(string)": {
						"params": {
							"name": "The new name that the org want to set for the poll"
						}
					},
					"voteFor(string)": {
						"details": "The address of the voter get stored in isVoted mappingThe count of the votes of the candidate increases by 1",
						"params": {
							"candidate": "The ID of the candidate whome the voters want to give there vote"
						}
					}
				},
				"title": "The Poll Contract",
				"version": 1
			},
			"evm": {
				"assembly": "    /* \"contracts/pollio.sol\":1510:5842  contract Poll {... */\n  mstore(0x40, 0x80)\n    /* \"contracts/pollio.sol\":2224:3126  constructor (... */\n  callvalue\n  dup1\n  iszero\n  tag_1\n  jumpi\n  0x00\n  dup1\n  revert\ntag_1:\n  pop\n  mload(0x40)\n  sub(codesize, bytecodeSize)\n  dup1\n  bytecodeSize\n  dup4\n  codecopy\n  dup2\n  dup2\n  add\n  0x40\n  mstore\n  dup2\n  add\n  swap1\n  tag_2\n  swap2\n  swap1\n  tag_3\n  jump\t// in\ntag_2:\n    /* \"contracts/pollio.sol\":2421:2424  eoa */\n  dup5\n    /* \"contracts/pollio.sol\":2407:2410  org */\n  0x00\n  dup1\n    /* \"contracts/pollio.sol\":2407:2425  org = payable(eoa) */\n  0x0100\n  exp\n  dup2\n  sload\n  dup2\n  0xffffffffffffffffffffffffffffffffffffffff\n  mul\n  not\n  and\n  swap1\n  dup4\n  0xffffffffffffffffffffffffffffffffffffffff\n  and\n  mul\n  or\n  swap1\n  sstore\n  pop\n    /* \"contracts/pollio.sol\":2446:2455  _pollName */\n  dup4\n    /* \"contracts/pollio.sol\":2435:2443  pollName */\n  0x01\n    /* \"contracts/pollio.sol\":2435:2455  pollName = _pollName */\n  swap1\n  dup1\n  mload\n  swap1\n  0x20\n  add\n  swap1\n  tag_6\n  swap3\n  swap2\n  swap1\n  tag_7\n  jump\t// in\ntag_6:\n  pop\n    /* \"contracts/pollio.sol\":2478:2490  block.number */\n  number\n    /* \"contracts/pollio.sol\":2465:2475  startBlock */\n  0x02\n    /* \"contracts/pollio.sol\":2465:2490  startBlock = block.number */\n  dup2\n  swap1\n  sstore\n  pop\n    /* \"contracts/pollio.sol\":2524:2536  pollDuration */\n  dup3\n    /* \"contracts/pollio.sol\":2511:2521  startBlock */\n  sload(0x02)\n    /* \"contracts/pollio.sol\":2511:2536  startBlock + pollDuration */\n  tag_8\n  swap2\n  swap1\n  tag_9\n  jump\t// in\ntag_8:\n    /* \"contracts/pollio.sol\":2500:2508  endBlock */\n  0x03\n    /* \"contracts/pollio.sol\":2500:2536  endBlock = startBlock + pollDuration */\n  dup2\n  swap1\n  sstore\n  pop\n    /* \"contracts/pollio.sol\":2558:2571  State.Running */\n  0x01\n    /* \"contracts/pollio.sol\":2546:2555  pollState */\n  0x04\n  0x01\n    /* \"contracts/pollio.sol\":2546:2571  pollState = State.Running */\n  0x0100\n  exp\n  dup2\n  sload\n  dup2\n  0xff\n  mul\n  not\n  and\n  swap1\n  dup4\n  0x03\n  dup2\n  gt\n  iszero\n  tag_10\n  jumpi\n  tag_11\n  tag_12\n  jump\t// in\ntag_11:\ntag_10:\n  mul\n  or\n  swap1\n  sstore\n  pop\n    /* \"contracts/pollio.sol\":2736:2764  abi.encodePacked((\"Public\")) */\n  add(0x20, mload(0x40))\n  tag_13\n  swap1\n  tag_14\n  jump\t// in\ntag_13:\n  mload(0x40)\n  0x20\n  dup2\n  dup4\n  sub\n  sub\n  dup2\n  mstore\n  swap1\n  0x40\n  mstore\n    /* \"contracts/pollio.sol\":2726:2765  keccak256(abi.encodePacked((\"Public\"))) */\n  dup1\n  mload\n  swap1\n  0x20\n  add\n  keccak256\n    /* \"contracts/pollio.sol\":2710:2719  _pollType */\n  dup2\n    /* \"contracts/pollio.sol\":2692:2721  abi.encodePacked((_pollType)) */\n  add(0x20, mload(0x40))\n  tag_15\n  swap2\n  swap1\n  tag_16\n  jump\t// in\ntag_15:\n  mload(0x40)\n  0x20\n  dup2\n  dup4\n  sub\n  sub\n  dup2\n  mstore\n  swap1\n  0x40\n  mstore\n    /* \"contracts/pollio.sol\":2682:2722  keccak256(abi.encodePacked((_pollType))) */\n  dup1\n  mload\n  swap1\n  0x20\n  add\n  keccak256\n    /* \"contracts/pollio.sol\":2682:2765  keccak256(abi.encodePacked((_pollType))) == keccak256(abi.encodePacked((\"Public\"))) */\n  eq\n    /* \"contracts/pollio.sol\":2678:2869  if (keccak256(abi.encodePacked((_pollType))) == keccak256(abi.encodePacked((\"Public\")))) {... */\n  iszero\n  tag_17\n  jumpi\n    /* \"contracts/pollio.sol\":2792:2803  Type.Public */\n  0x00\n    /* \"contracts/pollio.sol\":2781:2789  pollType */\n  0x04\n  0x00\n    /* \"contracts/pollio.sol\":2781:2803  pollType = Type.Public */\n  0x0100\n  exp\n  dup2\n  sload\n  dup2\n  0xff\n  mul\n  not\n  and\n  swap1\n  dup4\n  0x01\n  dup2\n  gt\n  iszero\n  tag_18\n  jumpi\n  tag_19\n  tag_12\n  jump\t// in\ntag_19:\ntag_18:\n  mul\n  or\n  swap1\n  sstore\n  pop\n    /* \"contracts/pollio.sol\":2678:2869  if (keccak256(abi.encodePacked((_pollType))) == keccak256(abi.encodePacked((\"Public\")))) {... */\n  jump(tag_20)\ntag_17:\n    /* \"contracts/pollio.sol\":2846:2858  Type.Private */\n  0x01\n    /* \"contracts/pollio.sol\":2834:2858  pollType == Type.Private */\n  dup1\n  dup2\n  gt\n  iszero\n  tag_21\n  jumpi\n  tag_22\n  tag_12\n  jump\t// in\ntag_22:\ntag_21:\n    /* \"contracts/pollio.sol\":2834:2842  pollType */\n  0x04\n  0x00\n  swap1\n  sload\n  swap1\n  0x0100\n  exp\n  swap1\n  div\n  0xff\n  and\n    /* \"contracts/pollio.sol\":2834:2858  pollType == Type.Private */\n  0x01\n  dup2\n  gt\n  iszero\n  tag_23\n  jumpi\n  tag_24\n  tag_12\n  jump\t// in\ntag_24:\ntag_23:\n  pop\n  pop\n    /* \"contracts/pollio.sol\":2678:2869  if (keccak256(abi.encodePacked((_pollType))) == keccak256(abi.encodePacked((\"Public\")))) {... */\ntag_20:\n    /* \"contracts/pollio.sol\":3028:3034  uint i */\n  0x00\n    /* \"contracts/pollio.sol\":3023:3120  for (uint i = 0; i < _candidates.length; i++) {... */\ntag_25:\n    /* \"contracts/pollio.sol\":3044:3055  _candidates */\n  dup3\n    /* \"contracts/pollio.sol\":3044:3062  _candidates.length */\n  mload\n    /* \"contracts/pollio.sol\":3040:3041  i */\n  dup2\n    /* \"contracts/pollio.sol\":3040:3062  i < _candidates.length */\n  lt\n    /* \"contracts/pollio.sol\":3023:3120  for (uint i = 0; i < _candidates.length; i++) {... */\n  iszero\n  tag_26\n  jumpi\n    /* \"contracts/pollio.sol\":3108:3109  0 */\n  0x00\n    /* \"contracts/pollio.sol\":3083:3089  result */\n  0x06\n    /* \"contracts/pollio.sol\":3090:3101  _candidates */\n  dup5\n    /* \"contracts/pollio.sol\":3102:3103  i */\n  dup4\n    /* \"contracts/pollio.sol\":3090:3104  _candidates[i] */\n  dup2\n  mload\n  dup2\n  lt\n  tag_28\n  jumpi\n  tag_29\n  tag_30\n  jump\t// in\ntag_29:\ntag_28:\n  0x20\n  mul\n  0x20\n  add\n  add\n  mload\n    /* \"contracts/pollio.sol\":3083:3105  result[_candidates[i]] */\n  mload(0x40)\n  tag_31\n  swap2\n  swap1\n  tag_16\n  jump\t// in\ntag_31:\n  swap1\n  dup2\n  mstore\n  0x20\n  add\n  mload(0x40)\n  dup1\n  swap2\n  sub\n  swap1\n  keccak256\n    /* \"contracts/pollio.sol\":3083:3109  result[_candidates[i]] = 0 */\n  dup2\n  swap1\n  sstore\n  pop\n    /* \"contracts/pollio.sol\":3064:3067  i++ */\n  dup1\n  dup1\n  tag_32\n  swap1\n  tag_33\n  jump\t// in\ntag_32:\n  swap2\n  pop\n  pop\n    /* \"contracts/pollio.sol\":3023:3120  for (uint i = 0; i < _candidates.length; i++) {... */\n  jump(tag_25)\ntag_26:\n  pop\n    /* \"contracts/pollio.sol\":2224:3126  constructor (... */\n  pop\n  pop\n  pop\n  pop\n  pop\n    /* \"contracts/pollio.sol\":1510:5842  contract Poll {... */\n  jump(tag_34)\ntag_7:\n  dup3\n  dup1\n  sload\n  tag_35\n  swap1\n  tag_36\n  jump\t// in\ntag_35:\n  swap1\n  0x00\n  mstore\n  keccak256(0x00, 0x20)\n  swap1\n  0x1f\n  add\n  0x20\n  swap1\n  div\n  dup2\n  add\n  swap3\n  dup3\n  tag_38\n  jumpi\n  0x00\n  dup6\n  sstore\n  jump(tag_37)\ntag_38:\n  dup3\n  0x1f\n  lt\n  tag_39\n  jumpi\n  dup1\n  mload\n  not(0xff)\n  and\n  dup4\n  dup1\n  add\n  or\n  dup6\n  sstore\n  jump(tag_37)\ntag_39:\n  dup3\n  dup1\n  add\n  0x01\n  add\n  dup6\n  sstore\n  dup3\n  iszero\n  tag_37\n  jumpi\n  swap2\n  dup3\n  add\ntag_40:\n  dup3\n  dup2\n  gt\n  iszero\n  tag_41\n  jumpi\n  dup3\n  mload\n  dup3\n  sstore\n  swap2\n  0x20\n  add\n  swap2\n  swap1\n  0x01\n  add\n  swap1\n  jump(tag_40)\ntag_41:\ntag_37:\n  pop\n  swap1\n  pop\n  tag_42\n  swap2\n  swap1\n  tag_43\n  jump\t// in\ntag_42:\n  pop\n  swap1\n  jump\t// out\ntag_43:\ntag_44:\n  dup1\n  dup3\n  gt\n  iszero\n  tag_45\n  jumpi\n  0x00\n  dup2\n  0x00\n  swap1\n  sstore\n  pop\n  0x01\n  add\n  jump(tag_44)\ntag_45:\n  pop\n  swap1\n  jump\t// out\n    /* \"#utility.yul\":23:995   */\ntag_47:\n    /* \"#utility.yul\":140:145   */\n  0x00\n    /* \"#utility.yul\":165:256   */\n  tag_49\n    /* \"#utility.yul\":181:255   */\n  tag_50\n    /* \"#utility.yul\":248:254   */\n  dup5\n    /* \"#utility.yul\":181:255   */\n  tag_51\n  jump\t// in\ntag_50:\n    /* \"#utility.yul\":165:256   */\n  tag_52\n  jump\t// in\ntag_49:\n    /* \"#utility.yul\":156:256   */\n  swap1\n  pop\n    /* \"#utility.yul\":276:281   */\n  dup1\n    /* \"#utility.yul\":305:311   */\n  dup4\n    /* \"#utility.yul\":298:303   */\n  dup3\n    /* \"#utility.yul\":291:312   */\n  mstore\n    /* \"#utility.yul\":339:343   */\n  0x20\n    /* \"#utility.yul\":332:337   */\n  dup3\n    /* \"#utility.yul\":328:344   */\n  add\n    /* \"#utility.yul\":321:344   */\n  swap1\n  pop\n    /* \"#utility.yul\":365:371   */\n  dup3\n    /* \"#utility.yul\":415:418   */\n  dup6\n    /* \"#utility.yul\":407:411   */\n  0x20\n    /* \"#utility.yul\":399:405   */\n  dup7\n    /* \"#utility.yul\":395:412   */\n  mul\n    /* \"#utility.yul\":390:393   */\n  dup3\n    /* \"#utility.yul\":386:413   */\n  add\n    /* \"#utility.yul\":383:419   */\n  gt\n    /* \"#utility.yul\":380:523   */\n  iszero\n  tag_53\n  jumpi\n    /* \"#utility.yul\":434:513   */\n  tag_54\n  tag_55\n  jump\t// in\ntag_54:\n    /* \"#utility.yul\":380:523   */\ntag_53:\n    /* \"#utility.yul\":547:548   */\n  0x00\n    /* \"#utility.yul\":532:989   */\ntag_56:\n    /* \"#utility.yul\":557:563   */\n  dup6\n    /* \"#utility.yul\":554:555   */\n  dup2\n    /* \"#utility.yul\":551:564   */\n  lt\n    /* \"#utility.yul\":532:989   */\n  iszero\n  tag_58\n  jumpi\n    /* \"#utility.yul\":632:635   */\n  dup2\n    /* \"#utility.yul\":626:636   */\n  mload\n    /* \"#utility.yul\":668:686   */\n  0xffffffffffffffff\n    /* \"#utility.yul\":655:666   */\n  dup2\n    /* \"#utility.yul\":652:687   */\n  gt\n    /* \"#utility.yul\":649:771   */\n  iszero\n  tag_59\n  jumpi\n    /* \"#utility.yul\":690:769   */\n  tag_60\n  tag_61\n  jump\t// in\ntag_60:\n    /* \"#utility.yul\":649:771   */\ntag_59:\n    /* \"#utility.yul\":814:825   */\n  dup1\n    /* \"#utility.yul\":806:812   */\n  dup7\n    /* \"#utility.yul\":802:826   */\n  add\n    /* \"#utility.yul\":852:910   */\n  tag_62\n    /* \"#utility.yul\":906:909   */\n  dup10\n    /* \"#utility.yul\":894:904   */\n  dup3\n    /* \"#utility.yul\":852:910   */\n  tag_63\n  jump\t// in\ntag_62:\n    /* \"#utility.yul\":847:850   */\n  dup6\n    /* \"#utility.yul\":840:911   */\n  mstore\n    /* \"#utility.yul\":940:944   */\n  0x20\n    /* \"#utility.yul\":935:938   */\n  dup6\n    /* \"#utility.yul\":931:945   */\n  add\n    /* \"#utility.yul\":924:945   */\n  swap5\n  pop\n    /* \"#utility.yul\":974:978   */\n  0x20\n    /* \"#utility.yul\":969:972   */\n  dup5\n    /* \"#utility.yul\":965:979   */\n  add\n    /* \"#utility.yul\":958:979   */\n  swap4\n  pop\n    /* \"#utility.yul\":592:989   */\n  pop\n  pop\n    /* \"#utility.yul\":579:580   */\n  0x01\n    /* \"#utility.yul\":576:577   */\n  dup2\n    /* \"#utility.yul\":572:581   */\n  add\n    /* \"#utility.yul\":567:581   */\n  swap1\n  pop\n    /* \"#utility.yul\":532:989   */\n  jump(tag_56)\ntag_58:\n    /* \"#utility.yul\":536:550   */\n  pop\n    /* \"#utility.yul\":146:995   */\n  pop\n  pop\n    /* \"#utility.yul\":23:995   */\n  swap4\n  swap3\n  pop\n  pop\n  pop\n  jump\t// out\n    /* \"#utility.yul\":1001:1422   */\ntag_64:\n    /* \"#utility.yul\":1090:1095   */\n  0x00\n    /* \"#utility.yul\":1115:1181   */\n  tag_66\n    /* \"#utility.yul\":1131:1180   */\n  tag_67\n    /* \"#utility.yul\":1173:1179   */\n  dup5\n    /* \"#utility.yul\":1131:1180   */\n  tag_68\n  jump\t// in\ntag_67:\n    /* \"#utility.yul\":1115:1181   */\n  tag_52\n  jump\t// in\ntag_66:\n    /* \"#utility.yul\":1106:1181   */\n  swap1\n  pop\n    /* \"#utility.yul\":1204:1210   */\n  dup3\n    /* \"#utility.yul\":1197:1202   */\n  dup2\n    /* \"#utility.yul\":1190:1211   */\n  mstore\n    /* \"#utility.yul\":1242:1246   */\n  0x20\n    /* \"#utility.yul\":1235:1240   */\n  dup2\n    /* \"#utility.yul\":1231:1247   */\n  add\n    /* \"#utility.yul\":1280:1283   */\n  dup5\n    /* \"#utility.yul\":1271:1277   */\n  dup5\n    /* \"#utility.yul\":1266:1269   */\n  dup5\n    /* \"#utility.yul\":1262:1278   */\n  add\n    /* \"#utility.yul\":1259:1284   */\n  gt\n    /* \"#utility.yul\":1256:1368   */\n  iszero\n  tag_69\n  jumpi\n    /* \"#utility.yul\":1287:1366   */\n  tag_70\n  tag_71\n  jump\t// in\ntag_70:\n    /* \"#utility.yul\":1256:1368   */\ntag_69:\n    /* \"#utility.yul\":1377:1416   */\n  tag_72\n    /* \"#utility.yul\":1409:1415   */\n  dup5\n    /* \"#utility.yul\":1404:1407   */\n  dup3\n    /* \"#utility.yul\":1399:1402   */\n  dup6\n    /* \"#utility.yul\":1377:1416   */\n  tag_73\n  jump\t// in\ntag_72:\n    /* \"#utility.yul\":1096:1422   */\n  pop\n    /* \"#utility.yul\":1001:1422   */\n  swap4\n  swap3\n  pop\n  pop\n  pop\n  jump\t// out\n    /* \"#utility.yul\":1428:1571   */\ntag_74:\n    /* \"#utility.yul\":1485:1490   */\n  0x00\n    /* \"#utility.yul\":1516:1522   */\n  dup2\n    /* \"#utility.yul\":1510:1523   */\n  mload\n    /* \"#utility.yul\":1501:1523   */\n  swap1\n  pop\n    /* \"#utility.yul\":1532:1565   */\n  tag_76\n    /* \"#utility.yul\":1559:1564   */\n  dup2\n    /* \"#utility.yul\":1532:1565   */\n  tag_77\n  jump\t// in\ntag_76:\n    /* \"#utility.yul\":1428:1571   */\n  swap3\n  swap2\n  pop\n  pop\n  jump\t// out\n    /* \"#utility.yul\":1593:1998   */\ntag_78:\n    /* \"#utility.yul\":1685:1690   */\n  0x00\n    /* \"#utility.yul\":1734:1737   */\n  dup3\n    /* \"#utility.yul\":1727:1731   */\n  0x1f\n    /* \"#utility.yul\":1719:1725   */\n  dup4\n    /* \"#utility.yul\":1715:1732   */\n  add\n    /* \"#utility.yul\":1711:1738   */\n  slt\n    /* \"#utility.yul\":1701:1823   */\n  tag_80\n  jumpi\n    /* \"#utility.yul\":1742:1821   */\n  tag_81\n  tag_61\n  jump\t// in\ntag_81:\n    /* \"#utility.yul\":1701:1823   */\ntag_80:\n    /* \"#utility.yul\":1852:1858   */\n  dup2\n    /* \"#utility.yul\":1846:1859   */\n  mload\n    /* \"#utility.yul\":1877:1992   */\n  tag_82\n    /* \"#utility.yul\":1988:1991   */\n  dup5\n    /* \"#utility.yul\":1980:1986   */\n  dup3\n    /* \"#utility.yul\":1973:1977   */\n  0x20\n    /* \"#utility.yul\":1965:1971   */\n  dup7\n    /* \"#utility.yul\":1961:1978   */\n  add\n    /* \"#utility.yul\":1877:1992   */\n  tag_47\n  jump\t// in\ntag_82:\n    /* \"#utility.yul\":1868:1992   */\n  swap2\n  pop\n    /* \"#utility.yul\":1691:1998   */\n  pop\n    /* \"#utility.yul\":1593:1998   */\n  swap3\n  swap2\n  pop\n  pop\n  jump\t// out\n    /* \"#utility.yul\":2018:2373   */\ntag_63:\n    /* \"#utility.yul\":2085:2090   */\n  0x00\n    /* \"#utility.yul\":2134:2137   */\n  dup3\n    /* \"#utility.yul\":2127:2131   */\n  0x1f\n    /* \"#utility.yul\":2119:2125   */\n  dup4\n    /* \"#utility.yul\":2115:2132   */\n  add\n    /* \"#utility.yul\":2111:2138   */\n  slt\n    /* \"#utility.yul\":2101:2223   */\n  tag_84\n  jumpi\n    /* \"#utility.yul\":2142:2221   */\n  tag_85\n  tag_61\n  jump\t// in\ntag_85:\n    /* \"#utility.yul\":2101:2223   */\ntag_84:\n    /* \"#utility.yul\":2252:2258   */\n  dup2\n    /* \"#utility.yul\":2246:2259   */\n  mload\n    /* \"#utility.yul\":2277:2367   */\n  tag_86\n    /* \"#utility.yul\":2363:2366   */\n  dup5\n    /* \"#utility.yul\":2355:2361   */\n  dup3\n    /* \"#utility.yul\":2348:2352   */\n  0x20\n    /* \"#utility.yul\":2340:2346   */\n  dup7\n    /* \"#utility.yul\":2336:2353   */\n  add\n    /* \"#utility.yul\":2277:2367   */\n  tag_64\n  jump\t// in\ntag_86:\n    /* \"#utility.yul\":2268:2367   */\n  swap2\n  pop\n    /* \"#utility.yul\":2091:2373   */\n  pop\n    /* \"#utility.yul\":2018:2373   */\n  swap3\n  swap2\n  pop\n  pop\n  jump\t// out\n    /* \"#utility.yul\":2379:2522   */\ntag_87:\n    /* \"#utility.yul\":2436:2441   */\n  0x00\n    /* \"#utility.yul\":2467:2473   */\n  dup2\n    /* \"#utility.yul\":2461:2474   */\n  mload\n    /* \"#utility.yul\":2452:2474   */\n  swap1\n  pop\n    /* \"#utility.yul\":2483:2516   */\n  tag_89\n    /* \"#utility.yul\":2510:2515   */\n  dup2\n    /* \"#utility.yul\":2483:2516   */\n  tag_90\n  jump\t// in\ntag_89:\n    /* \"#utility.yul\":2379:2522   */\n  swap3\n  swap2\n  pop\n  pop\n  jump\t// out\n    /* \"#utility.yul\":2528:4074   */\ntag_3:\n    /* \"#utility.yul\":2689:2695   */\n  0x00\n    /* \"#utility.yul\":2697:2703   */\n  dup1\n    /* \"#utility.yul\":2705:2711   */\n  0x00\n    /* \"#utility.yul\":2713:2719   */\n  dup1\n    /* \"#utility.yul\":2721:2727   */\n  0x00\n    /* \"#utility.yul\":2770:2773   */\n  0xa0\n    /* \"#utility.yul\":2758:2767   */\n  dup7\n    /* \"#utility.yul\":2749:2756   */\n  dup9\n    /* \"#utility.yul\":2745:2768   */\n  sub\n    /* \"#utility.yul\":2741:2774   */\n  slt\n    /* \"#utility.yul\":2738:2858   */\n  iszero\n  tag_92\n  jumpi\n    /* \"#utility.yul\":2777:2856   */\n  tag_93\n  tag_94\n  jump\t// in\ntag_93:\n    /* \"#utility.yul\":2738:2858   */\ntag_92:\n    /* \"#utility.yul\":2897:2898   */\n  0x00\n    /* \"#utility.yul\":2922:2986   */\n  tag_95\n    /* \"#utility.yul\":2978:2985   */\n  dup9\n    /* \"#utility.yul\":2969:2975   */\n  dup3\n    /* \"#utility.yul\":2958:2967   */\n  dup10\n    /* \"#utility.yul\":2954:2976   */\n  add\n    /* \"#utility.yul\":2922:2986   */\n  tag_74\n  jump\t// in\ntag_95:\n    /* \"#utility.yul\":2912:2986   */\n  swap6\n  pop\n    /* \"#utility.yul\":2868:2996   */\n  pop\n    /* \"#utility.yul\":3056:3058   */\n  0x20\n    /* \"#utility.yul\":3045:3054   */\n  dup7\n    /* \"#utility.yul\":3041:3059   */\n  add\n    /* \"#utility.yul\":3035:3060   */\n  mload\n    /* \"#utility.yul\":3087:3105   */\n  0xffffffffffffffff\n    /* \"#utility.yul\":3079:3085   */\n  dup2\n    /* \"#utility.yul\":3076:3106   */\n  gt\n    /* \"#utility.yul\":3073:3190   */\n  iszero\n  tag_96\n  jumpi\n    /* \"#utility.yul\":3109:3188   */\n  tag_97\n  tag_98\n  jump\t// in\ntag_97:\n    /* \"#utility.yul\":3073:3190   */\ntag_96:\n    /* \"#utility.yul\":3214:3288   */\n  tag_99\n    /* \"#utility.yul\":3280:3287   */\n  dup9\n    /* \"#utility.yul\":3271:3277   */\n  dup3\n    /* \"#utility.yul\":3260:3269   */\n  dup10\n    /* \"#utility.yul\":3256:3278   */\n  add\n    /* \"#utility.yul\":3214:3288   */\n  tag_63\n  jump\t// in\ntag_99:\n    /* \"#utility.yul\":3204:3288   */\n  swap5\n  pop\n    /* \"#utility.yul\":3006:3298   */\n  pop\n    /* \"#utility.yul\":3337:3339   */\n  0x40\n    /* \"#utility.yul\":3363:3427   */\n  tag_100\n    /* \"#utility.yul\":3419:3426   */\n  dup9\n    /* \"#utility.yul\":3410:3416   */\n  dup3\n    /* \"#utility.yul\":3399:3408   */\n  dup10\n    /* \"#utility.yul\":3395:3417   */\n  add\n    /* \"#utility.yul\":3363:3427   */\n  tag_87\n  jump\t// in\ntag_100:\n    /* \"#utility.yul\":3353:3427   */\n  swap4\n  pop\n    /* \"#utility.yul\":3308:3437   */\n  pop\n    /* \"#utility.yul\":3497:3499   */\n  0x60\n    /* \"#utility.yul\":3486:3495   */\n  dup7\n    /* \"#utility.yul\":3482:3500   */\n  add\n    /* \"#utility.yul\":3476:3501   */\n  mload\n    /* \"#utility.yul\":3528:3546   */\n  0xffffffffffffffff\n    /* \"#utility.yul\":3520:3526   */\n  dup2\n    /* \"#utility.yul\":3517:3547   */\n  gt\n    /* \"#utility.yul\":3514:3631   */\n  iszero\n  tag_101\n  jumpi\n    /* \"#utility.yul\":3550:3629   */\n  tag_102\n  tag_98\n  jump\t// in\ntag_102:\n    /* \"#utility.yul\":3514:3631   */\ntag_101:\n    /* \"#utility.yul\":3655:3754   */\n  tag_103\n    /* \"#utility.yul\":3746:3753   */\n  dup9\n    /* \"#utility.yul\":3737:3743   */\n  dup3\n    /* \"#utility.yul\":3726:3735   */\n  dup10\n    /* \"#utility.yul\":3722:3744   */\n  add\n    /* \"#utility.yul\":3655:3754   */\n  tag_78\n  jump\t// in\ntag_103:\n    /* \"#utility.yul\":3645:3754   */\n  swap3\n  pop\n    /* \"#utility.yul\":3447:3764   */\n  pop\n    /* \"#utility.yul\":3824:3827   */\n  0x80\n    /* \"#utility.yul\":3813:3822   */\n  dup7\n    /* \"#utility.yul\":3809:3828   */\n  add\n    /* \"#utility.yul\":3803:3829   */\n  mload\n    /* \"#utility.yul\":3856:3874   */\n  0xffffffffffffffff\n    /* \"#utility.yul\":3848:3854   */\n  dup2\n    /* \"#utility.yul\":3845:3875   */\n  gt\n    /* \"#utility.yul\":3842:3959   */\n  iszero\n  tag_104\n  jumpi\n    /* \"#utility.yul\":3878:3957   */\n  tag_105\n  tag_98\n  jump\t// in\ntag_105:\n    /* \"#utility.yul\":3842:3959   */\ntag_104:\n    /* \"#utility.yul\":3983:4057   */\n  tag_106\n    /* \"#utility.yul\":4049:4056   */\n  dup9\n    /* \"#utility.yul\":4040:4046   */\n  dup3\n    /* \"#utility.yul\":4029:4038   */\n  dup10\n    /* \"#utility.yul\":4025:4047   */\n  add\n    /* \"#utility.yul\":3983:4057   */\n  tag_63\n  jump\t// in\ntag_106:\n    /* \"#utility.yul\":3973:4057   */\n  swap2\n  pop\n    /* \"#utility.yul\":3774:4067   */\n  pop\n    /* \"#utility.yul\":2528:4074   */\n  swap3\n  swap6\n  pop\n  swap3\n  swap6\n  swap1\n  swap4\n  pop\n  jump\t// out\n    /* \"#utility.yul\":4080:4457   */\ntag_107:\n    /* \"#utility.yul\":4186:4189   */\n  0x00\n    /* \"#utility.yul\":4214:4253   */\n  tag_109\n    /* \"#utility.yul\":4247:4252   */\n  dup3\n    /* \"#utility.yul\":4214:4253   */\n  tag_110\n  jump\t// in\ntag_109:\n    /* \"#utility.yul\":4269:4358   */\n  tag_111\n    /* \"#utility.yul\":4351:4357   */\n  dup2\n    /* \"#utility.yul\":4346:4349   */\n  dup6\n    /* \"#utility.yul\":4269:4358   */\n  tag_112\n  jump\t// in\ntag_111:\n    /* \"#utility.yul\":4262:4358   */\n  swap4\n  pop\n    /* \"#utility.yul\":4367:4419   */\n  tag_113\n    /* \"#utility.yul\":4412:4418   */\n  dup2\n    /* \"#utility.yul\":4407:4410   */\n  dup6\n    /* \"#utility.yul\":4400:4404   */\n  0x20\n    /* \"#utility.yul\":4393:4398   */\n  dup7\n    /* \"#utility.yul\":4389:4405   */\n  add\n    /* \"#utility.yul\":4367:4419   */\n  tag_73\n  jump\t// in\ntag_113:\n    /* \"#utility.yul\":4444:4450   */\n  dup1\n    /* \"#utility.yul\":4439:4442   */\n  dup5\n    /* \"#utility.yul\":4435:4451   */\n  add\n    /* \"#utility.yul\":4428:4451   */\n  swap2\n  pop\n    /* \"#utility.yul\":4190:4457   */\n  pop\n    /* \"#utility.yul\":4080:4457   */\n  swap3\n  swap2\n  pop\n  pop\n  jump\t// out\n    /* \"#utility.yul\":4463:4863   */\ntag_114:\n    /* \"#utility.yul\":4623:4626   */\n  0x00\n    /* \"#utility.yul\":4644:4728   */\n  tag_116\n    /* \"#utility.yul\":4726:4727   */\n  0x06\n    /* \"#utility.yul\":4721:4724   */\n  dup4\n    /* \"#utility.yul\":4644:4728   */\n  tag_112\n  jump\t// in\ntag_116:\n    /* \"#utility.yul\":4637:4728   */\n  swap2\n  pop\n    /* \"#utility.yul\":4737:4830   */\n  tag_117\n    /* \"#utility.yul\":4826:4829   */\n  dup3\n    /* \"#utility.yul\":4737:4830   */\n  tag_118\n  jump\t// in\ntag_117:\n    /* \"#utility.yul\":4855:4856   */\n  0x06\n    /* \"#utility.yul\":4850:4853   */\n  dup3\n    /* \"#utility.yul\":4846:4857   */\n  add\n    /* \"#utility.yul\":4839:4857   */\n  swap1\n  pop\n    /* \"#utility.yul\":4463:4863   */\n  swap2\n  swap1\n  pop\n  jump\t// out\n    /* \"#utility.yul\":4869:5144   */\ntag_16:\n    /* \"#utility.yul\":5001:5004   */\n  0x00\n    /* \"#utility.yul\":5023:5118   */\n  tag_120\n    /* \"#utility.yul\":5114:5117   */\n  dup3\n    /* \"#utility.yul\":5105:5111   */\n  dup5\n    /* \"#utility.yul\":5023:5118   */\n  tag_107\n  jump\t// in\ntag_120:\n    /* \"#utility.yul\":5016:5118   */\n  swap2\n  pop\n    /* \"#utility.yul\":5135:5138   */\n  dup2\n    /* \"#utility.yul\":5128:5138   */\n  swap1\n  pop\n    /* \"#utility.yul\":4869:5144   */\n  swap3\n  swap2\n  pop\n  pop\n  jump\t// out\n    /* \"#utility.yul\":5150:5531   */\ntag_14:\n    /* \"#utility.yul\":5335:5338   */\n  0x00\n    /* \"#utility.yul\":5357:5505   */\n  tag_122\n    /* \"#utility.yul\":5501:5504   */\n  dup3\n    /* \"#utility.yul\":5357:5505   */\n  tag_114\n  jump\t// in\ntag_122:\n    /* \"#utility.yul\":5350:5505   */\n  swap2\n  pop\n    /* \"#utility.yul\":5522:5525   */\n  dup2\n    /* \"#utility.yul\":5515:5525   */\n  swap1\n  pop\n    /* \"#utility.yul\":5150:5531   */\n  swap2\n  swap1\n  pop\n  jump\t// out\n    /* \"#utility.yul\":5537:5666   */\ntag_52:\n    /* \"#utility.yul\":5571:5577   */\n  0x00\n    /* \"#utility.yul\":5598:5618   */\n  tag_124\n  tag_125\n  jump\t// in\ntag_124:\n    /* \"#utility.yul\":5588:5618   */\n  swap1\n  pop\n    /* \"#utility.yul\":5627:5660   */\n  tag_126\n    /* \"#utility.yul\":5655:5659   */\n  dup3\n    /* \"#utility.yul\":5647:5653   */\n  dup3\n    /* \"#utility.yul\":5627:5660   */\n  tag_127\n  jump\t// in\ntag_126:\n    /* \"#utility.yul\":5537:5666   */\n  swap2\n  swap1\n  pop\n  jump\t// out\n    /* \"#utility.yul\":5672:5747   */\ntag_125:\n    /* \"#utility.yul\":5705:5711   */\n  0x00\n    /* \"#utility.yul\":5738:5740   */\n  0x40\n    /* \"#utility.yul\":5732:5741   */\n  mload\n    /* \"#utility.yul\":5722:5741   */\n  swap1\n  pop\n    /* \"#utility.yul\":5672:5747   */\n  swap1\n  jump\t// out\n    /* \"#utility.yul\":5753:6074   */\ntag_51:\n    /* \"#utility.yul\":5840:5844   */\n  0x00\n    /* \"#utility.yul\":5930:5948   */\n  0xffffffffffffffff\n    /* \"#utility.yul\":5922:5928   */\n  dup3\n    /* \"#utility.yul\":5919:5949   */\n  gt\n    /* \"#utility.yul\":5916:5972   */\n  iszero\n  tag_130\n  jumpi\n    /* \"#utility.yul\":5952:5970   */\n  tag_131\n  tag_132\n  jump\t// in\ntag_131:\n    /* \"#utility.yul\":5916:5972   */\ntag_130:\n    /* \"#utility.yul\":6002:6006   */\n  0x20\n    /* \"#utility.yul\":5994:6000   */\n  dup3\n    /* \"#utility.yul\":5990:6007   */\n  mul\n    /* \"#utility.yul\":5982:6007   */\n  swap1\n  pop\n    /* \"#utility.yul\":6062:6066   */\n  0x20\n    /* \"#utility.yul\":6056:6060   */\n  dup2\n    /* \"#utility.yul\":6052:6067   */\n  add\n    /* \"#utility.yul\":6044:6067   */\n  swap1\n  pop\n    /* \"#utility.yul\":5753:6074   */\n  swap2\n  swap1\n  pop\n  jump\t// out\n    /* \"#utility.yul\":6080:6388   */\ntag_68:\n    /* \"#utility.yul\":6142:6146   */\n  0x00\n    /* \"#utility.yul\":6232:6250   */\n  0xffffffffffffffff\n    /* \"#utility.yul\":6224:6230   */\n  dup3\n    /* \"#utility.yul\":6221:6251   */\n  gt\n    /* \"#utility.yul\":6218:6274   */\n  iszero\n  tag_134\n  jumpi\n    /* \"#utility.yul\":6254:6272   */\n  tag_135\n  tag_132\n  jump\t// in\ntag_135:\n    /* \"#utility.yul\":6218:6274   */\ntag_134:\n    /* \"#utility.yul\":6292:6321   */\n  tag_136\n    /* \"#utility.yul\":6314:6320   */\n  dup3\n    /* \"#utility.yul\":6292:6321   */\n  tag_137\n  jump\t// in\ntag_136:\n    /* \"#utility.yul\":6284:6321   */\n  swap1\n  pop\n    /* \"#utility.yul\":6376:6380   */\n  0x20\n    /* \"#utility.yul\":6370:6374   */\n  dup2\n    /* \"#utility.yul\":6366:6381   */\n  add\n    /* \"#utility.yul\":6358:6381   */\n  swap1\n  pop\n    /* \"#utility.yul\":6080:6388   */\n  swap2\n  swap1\n  pop\n  jump\t// out\n    /* \"#utility.yul\":6394:6493   */\ntag_110:\n    /* \"#utility.yul\":6446:6452   */\n  0x00\n    /* \"#utility.yul\":6480:6485   */\n  dup2\n    /* \"#utility.yul\":6474:6486   */\n  mload\n    /* \"#utility.yul\":6464:6486   */\n  swap1\n  pop\n    /* \"#utility.yul\":6394:6493   */\n  swap2\n  swap1\n  pop\n  jump\t// out\n    /* \"#utility.yul\":6499:6647   */\ntag_112:\n    /* \"#utility.yul\":6601:6612   */\n  0x00\n    /* \"#utility.yul\":6638:6641   */\n  dup2\n    /* \"#utility.yul\":6623:6641   */\n  swap1\n  pop\n    /* \"#utility.yul\":6499:6647   */\n  swap3\n  swap2\n  pop\n  pop\n  jump\t// out\n    /* \"#utility.yul\":6653:6958   */\ntag_9:\n    /* \"#utility.yul\":6693:6696   */\n  0x00\n    /* \"#utility.yul\":6712:6732   */\n  tag_141\n    /* \"#utility.yul\":6730:6731   */\n  dup3\n    /* \"#utility.yul\":6712:6732   */\n  tag_142\n  jump\t// in\ntag_141:\n    /* \"#utility.yul\":6707:6732   */\n  swap2\n  pop\n    /* \"#utility.yul\":6746:6766   */\n  tag_143\n    /* \"#utility.yul\":6764:6765   */\n  dup4\n    /* \"#utility.yul\":6746:6766   */\n  tag_142\n  jump\t// in\ntag_143:\n    /* \"#utility.yul\":6741:6766   */\n  swap3\n  pop\n    /* \"#utility.yul\":6900:6901   */\n  dup3\n    /* \"#utility.yul\":6832:6898   */\n  0xffffffffffffffffffffffffffffffffffffffffffffffffffffffffffffffff\n    /* \"#utility.yul\":6828:6902   */\n  sub\n    /* \"#utility.yul\":6825:6826   */\n  dup3\n    /* \"#utility.yul\":6822:6903   */\n  gt\n    /* \"#utility.yul\":6819:6926   */\n  iszero\n  tag_144\n  jumpi\n    /* \"#utility.yul\":6906:6924   */\n  tag_145\n  tag_146\n  jump\t// in\ntag_145:\n    /* \"#utility.yul\":6819:6926   */\ntag_144:\n    /* \"#utility.yul\":6950:6951   */\n  dup3\n    /* \"#utility.yul\":6947:6948   */\n  dup3\n    /* \"#utility.yul\":6943:6952   */\n  add\n    /* \"#utility.yul\":6936:6952   */\n  swap1\n  pop\n    /* \"#utility.yul\":6653:6958   */\n  swap3\n  swap2\n  pop\n  pop\n  jump\t// out\n    /* \"#utility.yul\":6964:7060   */\ntag_147:\n    /* \"#utility.yul\":7001:7008   */\n  0x00\n    /* \"#utility.yul\":7030:7054   */\n  tag_149\n    /* \"#utility.yul\":7048:7053   */\n  dup3\n    /* \"#utility.yul\":7030:7054   */\n  tag_150\n  jump\t// in\ntag_149:\n    /* \"#utility.yul\":7019:7054   */\n  swap1\n  pop\n    /* \"#utility.yul\":6964:7060   */\n  swap2\n  swap1\n  pop\n  jump\t// out\n    /* \"#utility.yul\":7066:7192   */\ntag_150:\n    /* \"#utility.yul\":7103:7110   */\n  0x00\n    /* \"#utility.yul\":7143:7185   */\n  0xffffffffffffffffffffffffffffffffffffffff\n    /* \"#utility.yul\":7136:7141   */\n  dup3\n    /* \"#utility.yul\":7132:7186   */\n  and\n    /* \"#utility.yul\":7121:7186   */\n  swap1\n  pop\n    /* \"#utility.yul\":7066:7192   */\n  swap2\n  swap1\n  pop\n  jump\t// out\n    /* \"#utility.yul\":7198:7275   */\ntag_142:\n    /* \"#utility.yul\":7235:7242   */\n  0x00\n    /* \"#utility.yul\":7264:7269   */\n  dup2\n    /* \"#utility.yul\":7253:7269   */\n  swap1\n  pop\n    /* \"#utility.yul\":7198:7275   */\n  swap2\n  swap1\n  pop\n  jump\t// out\n    /* \"#utility.yul\":7281:7588   */\ntag_73:\n    /* \"#utility.yul\":7349:7350   */\n  0x00\n    /* \"#utility.yul\":7359:7472   */\ntag_154:\n    /* \"#utility.yul\":7373:7379   */\n  dup4\n    /* \"#utility.yul\":7370:7371   */\n  dup2\n    /* \"#utility.yul\":7367:7380   */\n  lt\n    /* \"#utility.yul\":7359:7472   */\n  iszero\n  tag_156\n  jumpi\n    /* \"#utility.yul\":7458:7459   */\n  dup1\n    /* \"#utility.yul\":7453:7456   */\n  dup3\n    /* \"#utility.yul\":7449:7460   */\n  add\n    /* \"#utility.yul\":7443:7461   */\n  mload\n    /* \"#utility.yul\":7439:7440   */\n  dup2\n    /* \"#utility.yul\":7434:7437   */\n  dup5\n    /* \"#utility.yul\":7430:7441   */\n  add\n    /* \"#utility.yul\":7423:7462   */\n  mstore\n    /* \"#utility.yul\":7395:7397   */\n  0x20\n    /* \"#utility.yul\":7392:7393   */\n  dup2\n    /* \"#utility.yul\":7388:7398   */\n  add\n    /* \"#utility.yul\":7383:7398   */\n  swap1\n  pop\n    /* \"#utility.yul\":7359:7472   */\n  jump(tag_154)\ntag_156:\n    /* \"#utility.yul\":7490:7496   */\n  dup4\n    /* \"#utility.yul\":7487:7488   */\n  dup2\n    /* \"#utility.yul\":7484:7497   */\n  gt\n    /* \"#utility.yul\":7481:7582   */\n  iszero\n  tag_157\n  jumpi\n    /* \"#utility.yul\":7570:7571   */\n  0x00\n    /* \"#utility.yul\":7561:7567   */\n  dup5\n    /* \"#utility.yul\":7556:7559   */\n  dup5\n    /* \"#utility.yul\":7552:7568   */\n  add\n    /* \"#utility.yul\":7545:7572   */\n  mstore\n    /* \"#utility.yul\":7481:7582   */\ntag_157:\n    /* \"#utility.yul\":7330:7588   */\n  pop\n    /* \"#utility.yul\":7281:7588   */\n  pop\n  pop\n  pop\n  jump\t// out\n    /* \"#utility.yul\":7594:7914   */\ntag_36:\n    /* \"#utility.yul\":7638:7644   */\n  0x00\n    /* \"#utility.yul\":7675:7676   */\n  0x02\n    /* \"#utility.yul\":7669:7673   */\n  dup3\n    /* \"#utility.yul\":7665:7677   */\n  div\n    /* \"#utility.yul\":7655:7677   */\n  swap1\n  pop\n    /* \"#utility.yul\":7722:7723   */\n  0x01\n    /* \"#utility.yul\":7716:7720   */\n  dup3\n    /* \"#utility.yul\":7712:7724   */\n  and\n    /* \"#utility.yul\":7743:7761   */\n  dup1\n    /* \"#utility.yul\":7733:7814   */\n  tag_159\n  jumpi\n    /* \"#utility.yul\":7799:7803   */\n  0x7f\n    /* \"#utility.yul\":7791:7797   */\n  dup3\n    /* \"#utility.yul\":7787:7804   */\n  and\n    /* \"#utility.yul\":7777:7804   */\n  swap2\n  pop\n    /* \"#utility.yul\":7733:7814   */\ntag_159:\n    /* \"#utility.yul\":7861:7863   */\n  0x20\n    /* \"#utility.yul\":7853:7859   */\n  dup3\n    /* \"#utility.yul\":7850:7864   */\n  lt\n    /* \"#utility.yul\":7830:7848   */\n  dup2\n    /* \"#utility.yul\":7827:7865   */\n  eq\n    /* \"#utility.yul\":7824:7908   */\n  iszero\n  tag_160\n  jumpi\n    /* \"#utility.yul\":7880:7898   */\n  tag_161\n  tag_162\n  jump\t// in\ntag_161:\n    /* \"#utility.yul\":7824:7908   */\ntag_160:\n    /* \"#utility.yul\":7645:7914   */\n  pop\n    /* \"#utility.yul\":7594:7914   */\n  swap2\n  swap1\n  pop\n  jump\t// out\n    /* \"#utility.yul\":7920:8201   */\ntag_127:\n    /* \"#utility.yul\":8003:8030   */\n  tag_164\n    /* \"#utility.yul\":8025:8029   */\n  dup3\n    /* \"#utility.yul\":8003:8030   */\n  tag_137\n  jump\t// in\ntag_164:\n    /* \"#utility.yul\":7995:8001   */\n  dup2\n    /* \"#utility.yul\":7991:8031   */\n  add\n    /* \"#utility.yul\":8133:8139   */\n  dup2\n    /* \"#utility.yul\":8121:8131   */\n  dup2\n    /* \"#utility.yul\":8118:8140   */\n  lt\n    /* \"#utility.yul\":8097:8115   */\n  0xffffffffffffffff\n    /* \"#utility.yul\":8085:8095   */\n  dup3\n    /* \"#utility.yul\":8082:8116   */\n  gt\n    /* \"#utility.yul\":8079:8141   */\n  or\n    /* \"#utility.yul\":8076:8164   */\n  iszero\n  tag_165\n  jumpi\n    /* \"#utility.yul\":8144:8162   */\n  tag_166\n  tag_132\n  jump\t// in\ntag_166:\n    /* \"#utility.yul\":8076:8164   */\ntag_165:\n    /* \"#utility.yul\":8184:8194   */\n  dup1\n    /* \"#utility.yul\":8180:8182   */\n  0x40\n    /* \"#utility.yul\":8173:8195   */\n  mstore\n    /* \"#utility.yul\":7963:8201   */\n  pop\n    /* \"#utility.yul\":7920:8201   */\n  pop\n  pop\n  jump\t// out\n    /* \"#utility.yul\":8207:8440   */\ntag_33:\n    /* \"#utility.yul\":8246:8249   */\n  0x00\n    /* \"#utility.yul\":8269:8293   */\n  tag_168\n    /* \"#utility.yul\":8287:8292   */\n  dup3\n    /* \"#utility.yul\":8269:8293   */\n  tag_142\n  jump\t// in\ntag_168:\n    /* \"#utility.yul\":8260:8293   */\n  swap2\n  pop\n    /* \"#utility.yul\":8315:8381   */\n  0xffffffffffffffffffffffffffffffffffffffffffffffffffffffffffffffff\n    /* \"#utility.yul\":8308:8313   */\n  dup3\n    /* \"#utility.yul\":8305:8382   */\n  eq\n    /* \"#utility.yul\":8302:8405   */\n  iszero\n  tag_169\n  jumpi\n    /* \"#utility.yul\":8385:8403   */\n  tag_170\n  tag_146\n  jump\t// in\ntag_170:\n    /* \"#utility.yul\":8302:8405   */\ntag_169:\n    /* \"#utility.yul\":8432:8433   */\n  0x01\n    /* \"#utility.yul\":8425:8430   */\n  dup3\n    /* \"#utility.yul\":8421:8434   */\n  add\n    /* \"#utility.yul\":8414:8434   */\n  swap1\n  pop\n    /* \"#utility.yul\":8207:8440   */\n  swap2\n  swap1\n  pop\n  jump\t// out\n    /* \"#utility.yul\":8446:8626   */\ntag_146:\n    /* \"#utility.yul\":8494:8571   */\n  0x4e487b7100000000000000000000000000000000000000000000000000000000\n    /* \"#utility.yul\":8491:8492   */\n  0x00\n    /* \"#utility.yul\":8484:8572   */\n  mstore\n    /* \"#utility.yul\":8591:8595   */\n  0x11\n    /* \"#utility.yul\":8588:8589   */\n  0x04\n    /* \"#utility.yul\":8581:8596   */\n  mstore\n    /* \"#utility.yul\":8615:8619   */\n  0x24\n    /* \"#utility.yul\":8612:8613   */\n  0x00\n    /* \"#utility.yul\":8605:8620   */\n  revert\n    /* \"#utility.yul\":8632:8812   */\ntag_12:\n    /* \"#utility.yul\":8680:8757   */\n  0x4e487b7100000000000000000000000000000000000000000000000000000000\n    /* \"#utility.yul\":8677:8678   */\n  0x00\n    /* \"#utility.yul\":8670:8758   */\n  mstore\n    /* \"#utility.yul\":8777:8781   */\n  0x21\n    /* \"#utility.yul\":8774:8775   */\n  0x04\n    /* \"#utility.yul\":8767:8782   */\n  mstore\n    /* \"#utility.yul\":8801:8805   */\n  0x24\n    /* \"#utility.yul\":8798:8799   */\n  0x00\n    /* \"#utility.yul\":8791:8806   */\n  revert\n    /* \"#utility.yul\":8818:8998   */\ntag_162:\n    /* \"#utility.yul\":8866:8943   */\n  0x4e487b7100000000000000000000000000000000000000000000000000000000\n    /* \"#utility.yul\":8863:8864   */\n  0x00\n    /* \"#utility.yul\":8856:8944   */\n  mstore\n    /* \"#utility.yul\":8963:8967   */\n  0x22\n    /* \"#utility.yul\":8960:8961   */\n  0x04\n    /* \"#utility.yul\":8953:8968   */\n  mstore\n    /* \"#utility.yul\":8987:8991   */\n  0x24\n    /* \"#utility.yul\":8984:8985   */\n  0x00\n    /* \"#utility.yul\":8977:8992   */\n  revert\n    /* \"#utility.yul\":9004:9184   */\ntag_30:\n    /* \"#utility.yul\":9052:9129   */\n  0x4e487b7100000000000000000000000000000000000000000000000000000000\n    /* \"#utility.yul\":9049:9050   */\n  0x00\n    /* \"#utility.yul\":9042:9130   */\n  mstore\n    /* \"#utility.yul\":9149:9153   */\n  0x32\n    /* \"#utility.yul\":9146:9147   */\n  0x04\n    /* \"#utility.yul\":9139:9154   */\n  mstore\n    /* \"#utility.yul\":9173:9177   */\n  0x24\n    /* \"#utility.yul\":9170:9171   */\n  0x00\n    /* \"#utility.yul\":9163:9178   */\n  revert\n    /* \"#utility.yul\":9190:9370   */\ntag_132:\n    /* \"#utility.yul\":9238:9315   */\n  0x4e487b7100000000000000000000000000000000000000000000000000000000\n    /* \"#utility.yul\":9235:9236   */\n  0x00\n    /* \"#utility.yul\":9228:9316   */\n  mstore\n    /* \"#utility.yul\":9335:9339   */\n  0x41\n    /* \"#utility.yul\":9332:9333   */\n  0x04\n    /* \"#utility.yul\":9325:9340   */\n  mstore\n    /* \"#utility.yul\":9359:9363   */\n  0x24\n    /* \"#utility.yul\":9356:9357   */\n  0x00\n    /* \"#utility.yul\":9349:9364   */\n  revert\n    /* \"#utility.yul\":9376:9493   */\ntag_61:\n    /* \"#utility.yul\":9485:9486   */\n  0x00\n    /* \"#utility.yul\":9482:9483   */\n  dup1\n    /* \"#utility.yul\":9475:9487   */\n  revert\n    /* \"#utility.yul\":9499:9616   */\ntag_55:\n    /* \"#utility.yul\":9608:9609   */\n  0x00\n    /* \"#utility.yul\":9605:9606   */\n  dup1\n    /* \"#utility.yul\":9598:9610   */\n  revert\n    /* \"#utility.yul\":9622:9739   */\ntag_71:\n    /* \"#utility.yul\":9731:9732   */\n  0x00\n    /* \"#utility.yul\":9728:9729   */\n  dup1\n    /* \"#utility.yul\":9721:9733   */\n  revert\n    /* \"#utility.yul\":9745:9862   */\ntag_98:\n    /* \"#utility.yul\":9854:9855   */\n  0x00\n    /* \"#utility.yul\":9851:9852   */\n  dup1\n    /* \"#utility.yul\":9844:9856   */\n  revert\n    /* \"#utility.yul\":9868:9985   */\ntag_94:\n    /* \"#utility.yul\":9977:9978   */\n  0x00\n    /* \"#utility.yul\":9974:9975   */\n  dup1\n    /* \"#utility.yul\":9967:9979   */\n  revert\n    /* \"#utility.yul\":9991:10093   */\ntag_137:\n    /* \"#utility.yul\":10032:10038   */\n  0x00\n    /* \"#utility.yul\":10083:10085   */\n  0x1f\n    /* \"#utility.yul\":10079:10086   */\n  not\n    /* \"#utility.yul\":10074:10076   */\n  0x1f\n    /* \"#utility.yul\":10067:10072   */\n  dup4\n    /* \"#utility.yul\":10063:10077   */\n  add\n    /* \"#utility.yul\":10059:10087   */\n  and\n    /* \"#utility.yul\":10049:10087   */\n  swap1\n  pop\n    /* \"#utility.yul\":9991:10093   */\n  swap2\n  swap1\n  pop\n  jump\t// out\n    /* \"#utility.yul\":10099:10255   */\ntag_118:\n    /* \"#utility.yul\":10239:10247   */\n  0x5075626c69630000000000000000000000000000000000000000000000000000\n    /* \"#utility.yul\":10235:10236   */\n  0x00\n    /* \"#utility.yul\":10227:10233   */\n  dup3\n    /* \"#utility.yul\":10223:10237   */\n  add\n    /* \"#utility.yul\":10216:10248   */\n  mstore\n    /* \"#utility.yul\":10099:10255   */\n  pop\n  jump\t// out\n    /* \"#utility.yul\":10261:10383   */\ntag_77:\n    /* \"#utility.yul\":10334:10358   */\n  tag_184\n    /* \"#utility.yul\":10352:10357   */\n  dup2\n    /* \"#utility.yul\":10334:10358   */\n  tag_147\n  jump\t// in\ntag_184:\n    /* \"#utility.yul\":10327:10332   */\n  dup2\n    /* \"#utility.yul\":10324:10359   */\n  eq\n    /* \"#utility.yul\":10314:10377   */\n  tag_185\n  jumpi\n    /* \"#utility.yul\":10373:10374   */\n  0x00\n    /* \"#utility.yul\":10370:10371   */\n  dup1\n    /* \"#utility.yul\":10363:10375   */\n  revert\n    /* \"#utility.yul\":10314:10377   */\ntag_185:\n    /* \"#utility.yul\":10261:10383   */\n  pop\n  jump\t// out\n    /* \"#utility.yul\":10389:10511   */\ntag_90:\n    /* \"#utility.yul\":10462:10486   */\n  tag_187\n    /* \"#utility.yul\":10480:10485   */\n  dup2\n    /* \"#utility.yul\":10462:10486   */\n  tag_142\n  jump\t// in\ntag_187:\n    /* \"#utility.yul\":10455:10460   */\n  dup2\n    /* \"#utility.yul\":10452:10487   */\n  eq\n    /* \"#utility.yul\":10442:10505   */\n  tag_188\n  jumpi\n    /* \"#utility.yul\":10501:10502   */\n  0x00\n    /* \"#utility.yul\":10498:10499   */\n  dup1\n    /* \"#utility.yul\":10491:10503   */\n  revert\n    /* \"#utility.yul\":10442:10505   */\ntag_188:\n    /* \"#utility.yul\":10389:10511   */\n  pop\n  jump\t// out\n    /* \"contracts/pollio.sol\":1510:5842  contract Poll {... */\ntag_34:\n  dataSize(sub_0)\n  dup1\n  dataOffset(sub_0)\n  0x00\n  codecopy\n  0x00\n  return\nstop\n\nsub_0: assembly {\n        /* \"contracts/pollio.sol\":1510:5842  contract Poll {... */\n      mstore(0x40, 0x80)\n      callvalue\n      dup1\n      iszero\n      tag_1\n      jumpi\n      0x00\n      dup1\n      revert\n    tag_1:\n      pop\n      jumpi(tag_2, lt(calldatasize, 0x04))\n      shr(0xe0, calldataload(0x00))\n      dup1\n      0x8f58d353\n      gt\n      tag_14\n      jumpi\n      dup1\n      0x8f58d353\n      eq\n      tag_8\n      jumpi\n      dup1\n      0xb73b396b\n      eq\n      tag_9\n      jumpi\n      dup1\n      0xba0c45c9\n      eq\n      tag_10\n      jumpi\n      dup1\n      0xc04752d8\n      eq\n      tag_11\n      jumpi\n      dup1\n      0xc308b0dc\n      eq\n      tag_12\n      jumpi\n      dup1\n      0xcc1e2cb0\n      eq\n      tag_13\n      jumpi\n      jump(tag_2)\n    tag_14:\n      dup1\n      0x083c6323\n      eq\n      tag_3\n      jumpi\n      dup1\n      0x18769765\n      eq\n      tag_4\n      jumpi\n      dup1\n      0x237637a8\n      eq\n      tag_5\n      jumpi\n      dup1\n      0x48cd4cb1\n      eq\n      tag_6\n      jumpi\n      dup1\n      0x498cc70d\n      eq\n      tag_7\n      jumpi\n    tag_2:\n      0x00\n      dup1\n      revert\n        /* \"contracts/pollio.sol\":1618:1638  uint public endBlock */\n    tag_3:\n      tag_15\n      tag_16\n      jump\t// in\n    tag_15:\n      mload(0x40)\n      tag_17\n      swap2\n      swap1\n      tag_18\n      jump\t// in\n    tag_17:\n      mload(0x40)\n      dup1\n      swap2\n      sub\n      swap1\n      return\n        /* \"contracts/pollio.sol\":1562:1584  string public pollName */\n    tag_4:\n      tag_19\n      tag_20\n      jump\t// in\n    tag_19:\n      mload(0x40)\n      tag_21\n      swap2\n      swap1\n      tag_22\n      jump\t// in\n    tag_21:\n      mload(0x40)\n      dup1\n      swap2\n      sub\n      swap1\n      return\n        /* \"contracts/pollio.sol\":1677:1697  Type public pollType */\n    tag_5:\n      tag_23\n      tag_24\n      jump\t// in\n    tag_23:\n      mload(0x40)\n      tag_25\n      swap2\n      swap1\n      tag_26\n      jump\t// in\n    tag_25:\n      mload(0x40)\n      dup1\n      swap2\n      sub\n      swap1\n      return\n        /* \"contracts/pollio.sol\":1590:1612  uint public startBlock */\n    tag_6:\n      tag_27\n      tag_28\n      jump\t// in\n    tag_27:\n      mload(0x40)\n      tag_29\n      swap2\n      swap1\n      tag_18\n      jump\t// in\n    tag_29:\n      mload(0x40)\n      dup1\n      swap2\n      sub\n      swap1\n      return\n        /* \"contracts/pollio.sol\":5697:5840  function getResult(... */\n    tag_7:\n      tag_30\n      0x04\n      dup1\n      calldatasize\n      sub\n      dup2\n      add\n      swap1\n      tag_31\n      swap2\n      swap1\n      tag_32\n      jump\t// in\n    tag_31:\n      tag_33\n      jump\t// in\n    tag_30:\n      mload(0x40)\n      tag_34\n      swap2\n      swap1\n      tag_18\n      jump\t// in\n    tag_34:\n      mload(0x40)\n      dup1\n      swap2\n      sub\n      swap1\n      return\n        /* \"contracts/pollio.sol\":1756:1778  State public pollState */\n    tag_8:\n      tag_35\n      tag_36\n      jump\t// in\n    tag_35:\n      mload(0x40)\n      tag_37\n      swap2\n      swap1\n      tag_38\n      jump\t// in\n    tag_37:\n      mload(0x40)\n      dup1\n      swap2\n      sub\n      swap1\n      return\n        /* \"contracts/pollio.sol\":5290:5381  function cancelPoll() public beforeEnd onlyOrg {... */\n    tag_9:\n      tag_39\n      tag_40\n      jump\t// in\n    tag_39:\n      stop\n        /* \"contracts/pollio.sol\":4441:4556  function increasePollDuration(uint pollDuration) public onlyOrg {... */\n    tag_10:\n      tag_41\n      0x04\n      dup1\n      calldatasize\n      sub\n      dup2\n      add\n      swap1\n      tag_42\n      swap2\n      swap1\n      tag_43\n      jump\t// in\n    tag_42:\n      tag_44\n      jump\t// in\n    tag_41:\n      stop\n        /* \"contracts/pollio.sol\":4869:5154  function voteFor(string memory candidate) public beforeEnd afterStart {... */\n    tag_11:\n      tag_45\n      0x04\n      dup1\n      calldatasize\n      sub\n      dup2\n      add\n      swap1\n      tag_46\n      swap2\n      swap1\n      tag_32\n      jump\t// in\n    tag_46:\n      tag_47\n      jump\t// in\n    tag_45:\n      stop\n        /* \"contracts/pollio.sol\":4155:4242  function renamePoll(string memory name) public onlyOrg {... */\n    tag_12:\n      tag_48\n      0x04\n      dup1\n      calldatasize\n      sub\n      dup2\n      add\n      swap1\n      tag_49\n      swap2\n      swap1\n      tag_32\n      jump\t// in\n    tag_49:\n      tag_50\n      jump\t// in\n    tag_48:\n      stop\n        /* \"contracts/pollio.sol\":1530:1556  address payable public org */\n    tag_13:\n      tag_51\n      tag_52\n      jump\t// in\n    tag_51:\n      mload(0x40)\n      tag_53\n      swap2\n      swap1\n      tag_54\n      jump\t// in\n    tag_53:\n      mload(0x40)\n      dup1\n      swap2\n      sub\n      swap1\n      return\n        /* \"contracts/pollio.sol\":1618:1638  uint public endBlock */\n    tag_16:\n      sload(0x03)\n      dup2\n      jump\t// out\n        /* \"contracts/pollio.sol\":1562:1584  string public pollName */\n    tag_20:\n      0x01\n      dup1\n      sload\n      tag_55\n      swap1\n      tag_56\n      jump\t// in\n    tag_55:\n      dup1\n      0x1f\n      add\n      0x20\n      dup1\n      swap2\n      div\n      mul\n      0x20\n      add\n      mload(0x40)\n      swap1\n      dup2\n      add\n      0x40\n      mstore\n      dup1\n      swap3\n      swap2\n      swap1\n      dup2\n      dup2\n      mstore\n      0x20\n      add\n      dup3\n      dup1\n      sload\n      tag_57\n      swap1\n      tag_56\n      jump\t// in\n    tag_57:\n      dup1\n      iszero\n      tag_58\n      jumpi\n      dup1\n      0x1f\n      lt\n      tag_59\n      jumpi\n      0x0100\n      dup1\n      dup4\n      sload\n      div\n      mul\n      dup4\n      mstore\n      swap2\n      0x20\n      add\n      swap2\n      jump(tag_58)\n    tag_59:\n      dup3\n      add\n      swap2\n      swap1\n      0x00\n      mstore\n      keccak256(0x00, 0x20)\n      swap1\n    tag_60:\n      dup2\n      sload\n      dup2\n      mstore\n      swap1\n      0x01\n      add\n      swap1\n      0x20\n      add\n      dup1\n      dup4\n      gt\n      tag_60\n      jumpi\n      dup3\n      swap1\n      sub\n      0x1f\n      and\n      dup3\n      add\n      swap2\n    tag_58:\n      pop\n      pop\n      pop\n      pop\n      pop\n      dup2\n      jump\t// out\n        /* \"contracts/pollio.sol\":1677:1697  Type public pollType */\n    tag_24:\n      0x04\n      0x00\n      swap1\n      sload\n      swap1\n      0x0100\n      exp\n      swap1\n      div\n      0xff\n      and\n      dup2\n      jump\t// out\n        /* \"contracts/pollio.sol\":1590:1612  uint public startBlock */\n    tag_28:\n      sload(0x02)\n      dup2\n      jump\t// out\n        /* \"contracts/pollio.sol\":5697:5840  function getResult(... */\n    tag_33:\n        /* \"contracts/pollio.sol\":5793:5797  uint */\n      0x00\n        /* \"contracts/pollio.sol\":3871:3883  Type.Private */\n      0x01\n        /* \"contracts/pollio.sol\":3859:3883  pollType == Type.Private */\n      dup1\n      dup2\n      gt\n      iszero\n      tag_62\n      jumpi\n      tag_63\n      tag_64\n      jump\t// in\n    tag_63:\n    tag_62:\n        /* \"contracts/pollio.sol\":3859:3867  pollType */\n      0x04\n      0x00\n      swap1\n      sload\n      swap1\n      0x0100\n      exp\n      swap1\n      div\n      0xff\n      and\n        /* \"contracts/pollio.sol\":3859:3883  pollType == Type.Private */\n      0x01\n      dup2\n      gt\n      iszero\n      tag_65\n      jumpi\n      tag_66\n      tag_64\n      jump\t// in\n    tag_66:\n    tag_65:\n      eq\n        /* \"contracts/pollio.sol\":3855:4010  if (pollType == Type.Private) {... */\n      iszero\n      tag_67\n      jumpi\n        /* \"contracts/pollio.sol\":3914:3924  msg.sender */\n      caller\n        /* \"contracts/pollio.sol\":3907:3924  org == msg.sender */\n      0xffffffffffffffffffffffffffffffffffffffff\n      and\n        /* \"contracts/pollio.sol\":3907:3910  org */\n      0x00\n      dup1\n      sload\n      swap1\n      0x0100\n      exp\n      swap1\n      div\n      0xffffffffffffffffffffffffffffffffffffffff\n      and\n        /* \"contracts/pollio.sol\":3907:3924  org == msg.sender */\n      0xffffffffffffffffffffffffffffffffffffffff\n      and\n      eq\n        /* \"contracts/pollio.sol\":3899:3952  require(org == msg.sender, \"This is a private poll.\") */\n      tag_68\n      jumpi\n      mload(0x40)\n      0x08c379a000000000000000000000000000000000000000000000000000000000\n      dup2\n      mstore\n      0x04\n      add\n      tag_69\n      swap1\n      tag_70\n      jump\t// in\n    tag_69:\n      mload(0x40)\n      dup1\n      swap2\n      sub\n      swap1\n      revert\n    tag_68:\n        /* \"contracts/pollio.sol\":5816:5822  result */\n      0x06\n        /* \"contracts/pollio.sol\":5823:5832  candidate */\n      dup3\n        /* \"contracts/pollio.sol\":5816:5833  result[candidate] */\n      mload(0x40)\n      tag_72\n      swap2\n      swap1\n      tag_73\n      jump\t// in\n    tag_72:\n      swap1\n      dup2\n      mstore\n      0x20\n      add\n      mload(0x40)\n      dup1\n      swap2\n      sub\n      swap1\n      keccak256\n      sload\n        /* \"contracts/pollio.sol\":5809:5833  return result[candidate] */\n      swap1\n      pop\n        /* \"contracts/pollio.sol\":3855:4010  if (pollType == Type.Private) {... */\n      jump(tag_74)\n    tag_67:\n        /* \"contracts/pollio.sol\":5816:5822  result */\n      0x06\n        /* \"contracts/pollio.sol\":5823:5832  candidate */\n      dup3\n        /* \"contracts/pollio.sol\":5816:5833  result[candidate] */\n      mload(0x40)\n      tag_76\n      swap2\n      swap1\n      tag_73\n      jump\t// in\n    tag_76:\n      swap1\n      dup2\n      mstore\n      0x20\n      add\n      mload(0x40)\n      dup1\n      swap2\n      sub\n      swap1\n      keccak256\n      sload\n        /* \"contracts/pollio.sol\":5809:5833  return result[candidate] */\n      swap1\n      pop\n        /* \"contracts/pollio.sol\":3855:4010  if (pollType == Type.Private) {... */\n    tag_74:\n        /* \"contracts/pollio.sol\":5697:5840  function getResult(... */\n      swap2\n      swap1\n      pop\n      jump\t// out\n        /* \"contracts/pollio.sol\":1756:1778  State public pollState */\n    tag_36:\n      0x04\n      0x01\n      swap1\n      sload\n      swap1\n      0x0100\n      exp\n      swap1\n      div\n      0xff\n      and\n      dup2\n      jump\t// out\n        /* \"contracts/pollio.sol\":5290:5381  function cancelPoll() public beforeEnd onlyOrg {... */\n    tag_40:\n        /* \"contracts/pollio.sol\":3473:3481  endBlock */\n      sload(0x03)\n        /* \"contracts/pollio.sol\":3458:3470  block.number */\n      number\n        /* \"contracts/pollio.sol\":3458:3481  block.number < endBlock */\n      lt\n        /* \"contracts/pollio.sol\":3450:3509  require(block.number < endBlock, \"The poll already ended.\") */\n      tag_78\n      jumpi\n      mload(0x40)\n      0x08c379a000000000000000000000000000000000000000000000000000000000\n      dup2\n      mstore\n      0x04\n      add\n      tag_79\n      swap1\n      tag_80\n      jump\t// in\n    tag_79:\n      mload(0x40)\n      dup1\n      swap2\n      sub\n      swap1\n      revert\n    tag_78:\n        /* \"contracts/pollio.sol\":3241:3251  msg.sender */\n      caller\n        /* \"contracts/pollio.sol\":3234:3251  org == msg.sender */\n      0xffffffffffffffffffffffffffffffffffffffff\n      and\n        /* \"contracts/pollio.sol\":3234:3237  org */\n      0x00\n      dup1\n      sload\n      swap1\n      0x0100\n      exp\n      swap1\n      div\n      0xffffffffffffffffffffffffffffffffffffffff\n      and\n        /* \"contracts/pollio.sol\":3234:3251  org == msg.sender */\n      0xffffffffffffffffffffffffffffffffffffffff\n      and\n      eq\n        /* \"contracts/pollio.sol\":3226:3305  require(org == msg.sender, \"Only the creater of this poll has this privilege.\") */\n      tag_82\n      jumpi\n      mload(0x40)\n      0x08c379a000000000000000000000000000000000000000000000000000000000\n      dup2\n      mstore\n      0x04\n      add\n      tag_83\n      swap1\n      tag_84\n      jump\t// in\n    tag_83:\n      mload(0x40)\n      dup1\n      swap2\n      sub\n      swap1\n      revert\n    tag_82:\n        /* \"contracts/pollio.sol\":5359:5374  State.Cancelled */\n      0x02\n        /* \"contracts/pollio.sol\":5347:5356  pollState */\n      0x04\n      0x01\n        /* \"contracts/pollio.sol\":5347:5374  pollState = State.Cancelled */\n      0x0100\n      exp\n      dup2\n      sload\n      dup2\n      0xff\n      mul\n      not\n      and\n      swap1\n      dup4\n      0x03\n      dup2\n      gt\n      iszero\n      tag_86\n      jumpi\n      tag_87\n      tag_64\n      jump\t// in\n    tag_87:\n    tag_86:\n      mul\n      or\n      swap1\n      sstore\n      pop\n        /* \"contracts/pollio.sol\":5290:5381  function cancelPoll() public beforeEnd onlyOrg {... */\n      jump\t// out\n        /* \"contracts/pollio.sol\":4441:4556  function increasePollDuration(uint pollDuration) public onlyOrg {... */\n    tag_44:\n        /* \"contracts/pollio.sol\":3241:3251  msg.sender */\n      caller\n        /* \"contracts/pollio.sol\":3234:3251  org == msg.sender */\n      0xffffffffffffffffffffffffffffffffffffffff\n      and\n        /* \"contracts/pollio.sol\":3234:3237  org */\n      0x00\n      dup1\n      sload\n      swap1\n      0x0100\n      exp\n      swap1\n      div\n      0xffffffffffffffffffffffffffffffffffffffff\n      and\n        /* \"contracts/pollio.sol\":3234:3251  org == msg.sender */\n      0xffffffffffffffffffffffffffffffffffffffff\n      and\n      eq\n        /* \"contracts/pollio.sol\":3226:3305  require(org == msg.sender, \"Only the creater of this poll has this privilege.\") */\n      tag_89\n      jumpi\n      mload(0x40)\n      0x08c379a000000000000000000000000000000000000000000000000000000000\n      dup2\n      mstore\n      0x04\n      add\n      tag_90\n      swap1\n      tag_84\n      jump\t// in\n    tag_90:\n      mload(0x40)\n      dup1\n      swap2\n      sub\n      swap1\n      revert\n    tag_89:\n        /* \"contracts/pollio.sol\":4537:4549  pollDuration */\n      dup1\n        /* \"contracts/pollio.sol\":4526:4534  endBlock */\n      sload(0x03)\n        /* \"contracts/pollio.sol\":4526:4549  endBlock + pollDuration */\n      tag_92\n      swap2\n      swap1\n      tag_93\n      jump\t// in\n    tag_92:\n        /* \"contracts/pollio.sol\":4515:4523  endBlock */\n      0x03\n        /* \"contracts/pollio.sol\":4515:4549  endBlock = endBlock + pollDuration */\n      dup2\n      swap1\n      sstore\n      pop\n        /* \"contracts/pollio.sol\":4441:4556  function increasePollDuration(uint pollDuration) public onlyOrg {... */\n      pop\n      jump\t// out\n        /* \"contracts/pollio.sol\":4869:5154  function voteFor(string memory candidate) public beforeEnd afterStart {... */\n    tag_47:\n        /* \"contracts/pollio.sol\":3473:3481  endBlock */\n      sload(0x03)\n        /* \"contracts/pollio.sol\":3458:3470  block.number */\n      number\n        /* \"contracts/pollio.sol\":3458:3481  block.number < endBlock */\n      lt\n        /* \"contracts/pollio.sol\":3450:3509  require(block.number < endBlock, \"The poll already ended.\") */\n      tag_95\n      jumpi\n      mload(0x40)\n      0x08c379a000000000000000000000000000000000000000000000000000000000\n      dup2\n      mstore\n      0x04\n      add\n      tag_96\n      swap1\n      tag_80\n      jump\t// in\n    tag_96:\n      mload(0x40)\n      dup1\n      swap2\n      sub\n      swap1\n      revert\n    tag_95:\n        /* \"contracts/pollio.sol\":3679:3689  startBlock */\n      sload(0x02)\n        /* \"contracts/pollio.sol\":3664:3676  block.number */\n      number\n        /* \"contracts/pollio.sol\":3664:3689  block.number > startBlock */\n      gt\n        /* \"contracts/pollio.sol\":3656:3723  require(block.number > startBlock, \"The poll has not started yet.\") */\n      tag_98\n      jumpi\n      mload(0x40)\n      0x08c379a000000000000000000000000000000000000000000000000000000000\n      dup2\n      mstore\n      0x04\n      add\n      tag_99\n      swap1\n      tag_100\n      jump\t// in\n    tag_99:\n      mload(0x40)\n      dup1\n      swap2\n      sub\n      swap1\n      revert\n    tag_98:\n        /* \"contracts/pollio.sol\":4970:4985  State.Cancelled */\n      0x02\n        /* \"contracts/pollio.sol\":4957:4985  pollState != State.Cancelled */\n      0x03\n      dup2\n      gt\n      iszero\n      tag_102\n      jumpi\n      tag_103\n      tag_64\n      jump\t// in\n    tag_103:\n    tag_102:\n        /* \"contracts/pollio.sol\":4957:4966  pollState */\n      0x04\n      0x01\n      swap1\n      sload\n      swap1\n      0x0100\n      exp\n      swap1\n      div\n      0xff\n      and\n        /* \"contracts/pollio.sol\":4957:4985  pollState != State.Cancelled */\n      0x03\n      dup2\n      gt\n      iszero\n      tag_104\n      jumpi\n      tag_105\n      tag_64\n      jump\t// in\n    tag_105:\n    tag_104:\n      eq\n      iszero\n        /* \"contracts/pollio.sol\":4949:4986  require(pollState != State.Cancelled) */\n      tag_106\n      jumpi\n      0x00\n      dup1\n      revert\n    tag_106:\n        /* \"contracts/pollio.sol\":4996:5009  address voter */\n      0x00\n        /* \"contracts/pollio.sol\":5012:5022  msg.sender */\n      caller\n        /* \"contracts/pollio.sol\":4996:5022  address voter = msg.sender */\n      swap1\n      pop\n        /* \"contracts/pollio.sol\":5041:5048  isVoted */\n      0x05\n        /* \"contracts/pollio.sol\":5041:5055  isVoted[voter] */\n      0x00\n        /* \"contracts/pollio.sol\":5049:5054  voter */\n      dup3\n        /* \"contracts/pollio.sol\":5041:5055  isVoted[voter] */\n      0xffffffffffffffffffffffffffffffffffffffff\n      and\n      0xffffffffffffffffffffffffffffffffffffffff\n      and\n      dup2\n      mstore\n      0x20\n      add\n      swap1\n      dup2\n      mstore\n      0x20\n      add\n      0x00\n      keccak256\n      0x00\n      swap1\n      sload\n      swap1\n      0x0100\n      exp\n      swap1\n      div\n      0xff\n      and\n        /* \"contracts/pollio.sol\":5040:5055  !isVoted[voter] */\n      iszero\n        /* \"contracts/pollio.sol\":5032:5083  require(!isVoted[voter], \"You have already voted!\") */\n      tag_107\n      jumpi\n      mload(0x40)\n      0x08c379a000000000000000000000000000000000000000000000000000000000\n      dup2\n      mstore\n      0x04\n      add\n      tag_108\n      swap1\n      tag_109\n      jump\t// in\n    tag_108:\n      mload(0x40)\n      dup1\n      swap2\n      sub\n      swap1\n      revert\n    tag_107:\n        /* \"contracts/pollio.sol\":5111:5115  true */\n      0x01\n        /* \"contracts/pollio.sol\":5094:5101  isVoted */\n      0x05\n        /* \"contracts/pollio.sol\":5094:5108  isVoted[voter] */\n      0x00\n        /* \"contracts/pollio.sol\":5102:5107  voter */\n      dup4\n        /* \"contracts/pollio.sol\":5094:5108  isVoted[voter] */\n      0xffffffffffffffffffffffffffffffffffffffff\n      and\n      0xffffffffffffffffffffffffffffffffffffffff\n      and\n      dup2\n      mstore\n      0x20\n      add\n      swap1\n      dup2\n      mstore\n      0x20\n      add\n      0x00\n      keccak256\n      0x00\n        /* \"contracts/pollio.sol\":5094:5115  isVoted[voter] = true */\n      0x0100\n      exp\n      dup2\n      sload\n      dup2\n      0xff\n      mul\n      not\n      and\n      swap1\n      dup4\n      iszero\n      iszero\n      mul\n      or\n      swap1\n      sstore\n      pop\n        /* \"contracts/pollio.sol\":5146:5147  1 */\n      0x01\n        /* \"contracts/pollio.sol\":5125:5131  result */\n      0x06\n        /* \"contracts/pollio.sol\":5132:5141  candidate */\n      dup4\n        /* \"contracts/pollio.sol\":5125:5142  result[candidate] */\n      mload(0x40)\n      tag_110\n      swap2\n      swap1\n      tag_73\n      jump\t// in\n    tag_110:\n      swap1\n      dup2\n      mstore\n      0x20\n      add\n      mload(0x40)\n      dup1\n      swap2\n      sub\n      swap1\n      keccak256\n      0x00\n        /* \"contracts/pollio.sol\":5125:5147  result[candidate] += 1 */\n      dup3\n      dup3\n      sload\n      tag_111\n      swap2\n      swap1\n      tag_93\n      jump\t// in\n    tag_111:\n      swap3\n      pop\n      pop\n      dup2\n      swap1\n      sstore\n      pop\n        /* \"contracts/pollio.sol\":4939:5154  {... */\n      pop\n        /* \"contracts/pollio.sol\":4869:5154  function voteFor(string memory candidate) public beforeEnd afterStart {... */\n      pop\n      jump\t// out\n        /* \"contracts/pollio.sol\":4155:4242  function renamePoll(string memory name) public onlyOrg {... */\n    tag_50:\n        /* \"contracts/pollio.sol\":3241:3251  msg.sender */\n      caller\n        /* \"contracts/pollio.sol\":3234:3251  org == msg.sender */\n      0xffffffffffffffffffffffffffffffffffffffff\n      and\n        /* \"contracts/pollio.sol\":3234:3237  org */\n      0x00\n      dup1\n      sload\n      swap1\n      0x0100\n      exp\n      swap1\n      div\n      0xffffffffffffffffffffffffffffffffffffffff\n      and\n        /* \"contracts/pollio.sol\":3234:3251  org == msg.sender */\n      0xffffffffffffffffffffffffffffffffffffffff\n      and\n      eq\n        /* \"contracts/pollio.sol\":3226:3305  require(org == msg.sender, \"Only the creater of this poll has this privilege.\") */\n      tag_113\n      jumpi\n      mload(0x40)\n      0x08c379a000000000000000000000000000000000000000000000000000000000\n      dup2\n      mstore\n      0x04\n      add\n      tag_114\n      swap1\n      tag_84\n      jump\t// in\n    tag_114:\n      mload(0x40)\n      dup1\n      swap2\n      sub\n      swap1\n      revert\n    tag_113:\n        /* \"contracts/pollio.sol\":4231:4235  name */\n      dup1\n        /* \"contracts/pollio.sol\":4220:4228  pollName */\n      0x01\n        /* \"contracts/pollio.sol\":4220:4235  pollName = name */\n      swap1\n      dup1\n      mload\n      swap1\n      0x20\n      add\n      swap1\n      tag_116\n      swap3\n      swap2\n      swap1\n      tag_117\n      jump\t// in\n    tag_116:\n      pop\n        /* \"contracts/pollio.sol\":4155:4242  function renamePoll(string memory name) public onlyOrg {... */\n      pop\n      jump\t// out\n        /* \"contracts/pollio.sol\":1530:1556  address payable public org */\n    tag_52:\n      0x00\n      dup1\n      sload\n      swap1\n      0x0100\n      exp\n      swap1\n      div\n      0xffffffffffffffffffffffffffffffffffffffff\n      and\n      dup2\n      jump\t// out\n    tag_117:\n      dup3\n      dup1\n      sload\n      tag_118\n      swap1\n      tag_56\n      jump\t// in\n    tag_118:\n      swap1\n      0x00\n      mstore\n      keccak256(0x00, 0x20)\n      swap1\n      0x1f\n      add\n      0x20\n      swap1\n      div\n      dup2\n      add\n      swap3\n      dup3\n      tag_120\n      jumpi\n      0x00\n      dup6\n      sstore\n      jump(tag_119)\n    tag_120:\n      dup3\n      0x1f\n      lt\n      tag_121\n      jumpi\n      dup1\n      mload\n      not(0xff)\n      and\n      dup4\n      dup1\n      add\n      or\n      dup6\n      sstore\n      jump(tag_119)\n    tag_121:\n      dup3\n      dup1\n      add\n      0x01\n      add\n      dup6\n      sstore\n      dup3\n      iszero\n      tag_119\n      jumpi\n      swap2\n      dup3\n      add\n    tag_122:\n      dup3\n      dup2\n      gt\n      iszero\n      tag_123\n      jumpi\n      dup3\n      mload\n      dup3\n      sstore\n      swap2\n      0x20\n      add\n      swap2\n      swap1\n      0x01\n      add\n      swap1\n      jump(tag_122)\n    tag_123:\n    tag_119:\n      pop\n      swap1\n      pop\n      tag_124\n      swap2\n      swap1\n      tag_125\n      jump\t// in\n    tag_124:\n      pop\n      swap1\n      jump\t// out\n    tag_125:\n    tag_126:\n      dup1\n      dup3\n      gt\n      iszero\n      tag_127\n      jumpi\n      0x00\n      dup2\n      0x00\n      swap1\n      sstore\n      pop\n      0x01\n      add\n      jump(tag_126)\n    tag_127:\n      pop\n      swap1\n      jump\t// out\n        /* \"#utility.yul\":7:419   */\n    tag_129:\n        /* \"#utility.yul\":85:90   */\n      0x00\n        /* \"#utility.yul\":110:176   */\n      tag_131\n        /* \"#utility.yul\":126:175   */\n      tag_132\n        /* \"#utility.yul\":168:174   */\n      dup5\n        /* \"#utility.yul\":126:175   */\n      tag_133\n      jump\t// in\n    tag_132:\n        /* \"#utility.yul\":110:176   */\n      tag_134\n      jump\t// in\n    tag_131:\n        /* \"#utility.yul\":101:176   */\n      swap1\n      pop\n        /* \"#utility.yul\":199:205   */\n      dup3\n        /* \"#utility.yul\":192:197   */\n      dup2\n        /* \"#utility.yul\":185:206   */\n      mstore\n        /* \"#utility.yul\":237:241   */\n      0x20\n        /* \"#utility.yul\":230:235   */\n      dup2\n        /* \"#utility.yul\":226:242   */\n      add\n        /* \"#utility.yul\":275:278   */\n      dup5\n        /* \"#utility.yul\":266:272   */\n      dup5\n        /* \"#utility.yul\":261:264   */\n      dup5\n        /* \"#utility.yul\":257:273   */\n      add\n        /* \"#utility.yul\":254:279   */\n      gt\n        /* \"#utility.yul\":251:363   */\n      iszero\n      tag_135\n      jumpi\n        /* \"#utility.yul\":282:361   */\n      tag_136\n      tag_137\n      jump\t// in\n    tag_136:\n        /* \"#utility.yul\":251:363   */\n    tag_135:\n        /* \"#utility.yul\":372:413   */\n      tag_138\n        /* \"#utility.yul\":406:412   */\n      dup5\n        /* \"#utility.yul\":401:404   */\n      dup3\n        /* \"#utility.yul\":396:399   */\n      dup6\n        /* \"#utility.yul\":372:413   */\n      tag_139\n      jump\t// in\n    tag_138:\n        /* \"#utility.yul\":91:419   */\n      pop\n        /* \"#utility.yul\":7:419   */\n      swap4\n      swap3\n      pop\n      pop\n      pop\n      jump\t// out\n        /* \"#utility.yul\":439:779   */\n    tag_140:\n        /* \"#utility.yul\":495:500   */\n      0x00\n        /* \"#utility.yul\":544:547   */\n      dup3\n        /* \"#utility.yul\":537:541   */\n      0x1f\n        /* \"#utility.yul\":529:535   */\n      dup4\n        /* \"#utility.yul\":525:542   */\n      add\n        /* \"#utility.yul\":521:548   */\n      slt\n        /* \"#utility.yul\":511:633   */\n      tag_142\n      jumpi\n        /* \"#utility.yul\":552:631   */\n      tag_143\n      tag_144\n      jump\t// in\n    tag_143:\n        /* \"#utility.yul\":511:633   */\n    tag_142:\n        /* \"#utility.yul\":669:675   */\n      dup2\n        /* \"#utility.yul\":656:676   */\n      calldataload\n        /* \"#utility.yul\":694:773   */\n      tag_145\n        /* \"#utility.yul\":769:772   */\n      dup5\n        /* \"#utility.yul\":761:767   */\n      dup3\n        /* \"#utility.yul\":754:758   */\n      0x20\n        /* \"#utility.yul\":746:752   */\n      dup7\n        /* \"#utility.yul\":742:759   */\n      add\n        /* \"#utility.yul\":694:773   */\n      tag_129\n      jump\t// in\n    tag_145:\n        /* \"#utility.yul\":685:773   */\n      swap2\n      pop\n        /* \"#utility.yul\":501:779   */\n      pop\n        /* \"#utility.yul\":439:779   */\n      swap3\n      swap2\n      pop\n      pop\n      jump\t// out\n        /* \"#utility.yul\":785:924   */\n    tag_146:\n        /* \"#utility.yul\":831:836   */\n      0x00\n        /* \"#utility.yul\":869:875   */\n      dup2\n        /* \"#utility.yul\":856:876   */\n      calldataload\n        /* \"#utility.yul\":847:876   */\n      swap1\n      pop\n        /* \"#utility.yul\":885:918   */\n      tag_148\n        /* \"#utility.yul\":912:917   */\n      dup2\n        /* \"#utility.yul\":885:918   */\n      tag_149\n      jump\t// in\n    tag_148:\n        /* \"#utility.yul\":785:924   */\n      swap3\n      swap2\n      pop\n      pop\n      jump\t// out\n        /* \"#utility.yul\":930:1439   */\n    tag_32:\n        /* \"#utility.yul\":999:1005   */\n      0x00\n        /* \"#utility.yul\":1048:1050   */\n      0x20\n        /* \"#utility.yul\":1036:1045   */\n      dup3\n        /* \"#utility.yul\":1027:1034   */\n      dup5\n        /* \"#utility.yul\":1023:1046   */\n      sub\n        /* \"#utility.yul\":1019:1051   */\n      slt\n        /* \"#utility.yul\":1016:1135   */\n      iszero\n      tag_151\n      jumpi\n        /* \"#utility.yul\":1054:1133   */\n      tag_152\n      tag_153\n      jump\t// in\n    tag_152:\n        /* \"#utility.yul\":1016:1135   */\n    tag_151:\n        /* \"#utility.yul\":1202:1203   */\n      0x00\n        /* \"#utility.yul\":1191:1200   */\n      dup3\n        /* \"#utility.yul\":1187:1204   */\n      add\n        /* \"#utility.yul\":1174:1205   */\n      calldataload\n        /* \"#utility.yul\":1232:1250   */\n      0xffffffffffffffff\n        /* \"#utility.yul\":1224:1230   */\n      dup2\n        /* \"#utility.yul\":1221:1251   */\n      gt\n        /* \"#utility.yul\":1218:1335   */\n      iszero\n      tag_154\n      jumpi\n        /* \"#utility.yul\":1254:1333   */\n      tag_155\n      tag_156\n      jump\t// in\n    tag_155:\n        /* \"#utility.yul\":1218:1335   */\n    tag_154:\n        /* \"#utility.yul\":1359:1422   */\n      tag_157\n        /* \"#utility.yul\":1414:1421   */\n      dup5\n        /* \"#utility.yul\":1405:1411   */\n      dup3\n        /* \"#utility.yul\":1394:1403   */\n      dup6\n        /* \"#utility.yul\":1390:1412   */\n      add\n        /* \"#utility.yul\":1359:1422   */\n      tag_140\n      jump\t// in\n    tag_157:\n        /* \"#utility.yul\":1349:1422   */\n      swap2\n      pop\n        /* \"#utility.yul\":1145:1432   */\n      pop\n        /* \"#utility.yul\":930:1439   */\n      swap3\n      swap2\n      pop\n      pop\n      jump\t// out\n        /* \"#utility.yul\":1445:1774   */\n    tag_43:\n        /* \"#utility.yul\":1504:1510   */\n      0x00\n        /* \"#utility.yul\":1553:1555   */\n      0x20\n        /* \"#utility.yul\":1541:1550   */\n      dup3\n        /* \"#utility.yul\":1532:1539   */\n      dup5\n        /* \"#utility.yul\":1528:1551   */\n      sub\n        /* \"#utility.yul\":1524:1556   */\n      slt\n        /* \"#utility.yul\":1521:1640   */\n      iszero\n      tag_159\n      jumpi\n        /* \"#utility.yul\":1559:1638   */\n      tag_160\n      tag_153\n      jump\t// in\n    tag_160:\n        /* \"#utility.yul\":1521:1640   */\n    tag_159:\n        /* \"#utility.yul\":1679:1680   */\n      0x00\n        /* \"#utility.yul\":1704:1757   */\n      tag_161\n        /* \"#utility.yul\":1749:1756   */\n      dup5\n        /* \"#utility.yul\":1740:1746   */\n      dup3\n        /* \"#utility.yul\":1729:1738   */\n      dup6\n        /* \"#utility.yul\":1725:1747   */\n      add\n        /* \"#utility.yul\":1704:1757   */\n      tag_146\n      jump\t// in\n    tag_161:\n        /* \"#utility.yul\":1694:1757   */\n      swap2\n      pop\n        /* \"#utility.yul\":1650:1767   */\n      pop\n        /* \"#utility.yul\":1445:1774   */\n      swap3\n      swap2\n      pop\n      pop\n      jump\t// out\n        /* \"#utility.yul\":1780:1922   */\n    tag_162:\n        /* \"#utility.yul\":1883:1915   */\n      tag_164\n        /* \"#utility.yul\":1909:1914   */\n      dup2\n        /* \"#utility.yul\":1883:1915   */\n      tag_165\n      jump\t// in\n    tag_164:\n        /* \"#utility.yul\":1878:1881   */\n      dup3\n        /* \"#utility.yul\":1871:1916   */\n      mstore\n        /* \"#utility.yul\":1780:1922   */\n      pop\n      pop\n      jump\t// out\n        /* \"#utility.yul\":1928:2071   */\n    tag_166:\n        /* \"#utility.yul\":2021:2064   */\n      tag_168\n        /* \"#utility.yul\":2058:2063   */\n      dup2\n        /* \"#utility.yul\":2021:2064   */\n      tag_169\n      jump\t// in\n    tag_168:\n        /* \"#utility.yul\":2016:2019   */\n      dup3\n        /* \"#utility.yul\":2009:2065   */\n      mstore\n        /* \"#utility.yul\":1928:2071   */\n      pop\n      pop\n      jump\t// out\n        /* \"#utility.yul\":2077:2218   */\n    tag_170:\n        /* \"#utility.yul\":2169:2211   */\n      tag_172\n        /* \"#utility.yul\":2205:2210   */\n      dup2\n        /* \"#utility.yul\":2169:2211   */\n      tag_173\n      jump\t// in\n    tag_172:\n        /* \"#utility.yul\":2164:2167   */\n      dup3\n        /* \"#utility.yul\":2157:2212   */\n      mstore\n        /* \"#utility.yul\":2077:2218   */\n      pop\n      pop\n      jump\t// out\n        /* \"#utility.yul\":2224:2588   */\n    tag_174:\n        /* \"#utility.yul\":2312:2315   */\n      0x00\n        /* \"#utility.yul\":2340:2379   */\n      tag_176\n        /* \"#utility.yul\":2373:2378   */\n      dup3\n        /* \"#utility.yul\":2340:2379   */\n      tag_177\n      jump\t// in\n    tag_176:\n        /* \"#utility.yul\":2395:2466   */\n      tag_178\n        /* \"#utility.yul\":2459:2465   */\n      dup2\n        /* \"#utility.yul\":2454:2457   */\n      dup6\n        /* \"#utility.yul\":2395:2466   */\n      tag_179\n      jump\t// in\n    tag_178:\n        /* \"#utility.yul\":2388:2466   */\n      swap4\n      pop\n        /* \"#utility.yul\":2475:2527   */\n      tag_180\n        /* \"#utility.yul\":2520:2526   */\n      dup2\n        /* \"#utility.yul\":2515:2518   */\n      dup6\n        /* \"#utility.yul\":2508:2512   */\n      0x20\n        /* \"#utility.yul\":2501:2506   */\n      dup7\n        /* \"#utility.yul\":2497:2513   */\n      add\n        /* \"#utility.yul\":2475:2527   */\n      tag_181\n      jump\t// in\n    tag_180:\n        /* \"#utility.yul\":2552:2581   */\n      tag_182\n        /* \"#utility.yul\":2574:2580   */\n      dup2\n        /* \"#utility.yul\":2552:2581   */\n      tag_183\n      jump\t// in\n    tag_182:\n        /* \"#utility.yul\":2547:2550   */\n      dup5\n        /* \"#utility.yul\":2543:2582   */\n      add\n        /* \"#utility.yul\":2536:2582   */\n      swap2\n      pop\n        /* \"#utility.yul\":2316:2588   */\n      pop\n        /* \"#utility.yul\":2224:2588   */\n      swap3\n      swap2\n      pop\n      pop\n      jump\t// out\n        /* \"#utility.yul\":2594:2971   */\n    tag_184:\n        /* \"#utility.yul\":2700:2703   */\n      0x00\n        /* \"#utility.yul\":2728:2767   */\n      tag_186\n        /* \"#utility.yul\":2761:2766   */\n      dup3\n        /* \"#utility.yul\":2728:2767   */\n      tag_177\n      jump\t// in\n    tag_186:\n        /* \"#utility.yul\":2783:2872   */\n      tag_187\n        /* \"#utility.yul\":2865:2871   */\n      dup2\n        /* \"#utility.yul\":2860:2863   */\n      dup6\n        /* \"#utility.yul\":2783:2872   */\n      tag_188\n      jump\t// in\n    tag_187:\n        /* \"#utility.yul\":2776:2872   */\n      swap4\n      pop\n        /* \"#utility.yul\":2881:2933   */\n      tag_189\n        /* \"#utility.yul\":2926:2932   */\n      dup2\n        /* \"#utility.yul\":2921:2924   */\n      dup6\n        /* \"#utility.yul\":2914:2918   */\n      0x20\n        /* \"#utility.yul\":2907:2912   */\n      dup7\n        /* \"#utility.yul\":2903:2919   */\n      add\n        /* \"#utility.yul\":2881:2933   */\n      tag_181\n      jump\t// in\n    tag_189:\n        /* \"#utility.yul\":2958:2964   */\n      dup1\n        /* \"#utility.yul\":2953:2956   */\n      dup5\n        /* \"#utility.yul\":2949:2965   */\n      add\n        /* \"#utility.yul\":2942:2965   */\n      swap2\n      pop\n        /* \"#utility.yul\":2704:2971   */\n      pop\n        /* \"#utility.yul\":2594:2971   */\n      swap3\n      swap2\n      pop\n      pop\n      jump\t// out\n        /* \"#utility.yul\":2977:3343   */\n    tag_190:\n        /* \"#utility.yul\":3119:3122   */\n      0x00\n        /* \"#utility.yul\":3140:3207   */\n      tag_192\n        /* \"#utility.yul\":3204:3206   */\n      0x17\n        /* \"#utility.yul\":3199:3202   */\n      dup4\n        /* \"#utility.yul\":3140:3207   */\n      tag_179\n      jump\t// in\n    tag_192:\n        /* \"#utility.yul\":3133:3207   */\n      swap2\n      pop\n        /* \"#utility.yul\":3216:3309   */\n      tag_193\n        /* \"#utility.yul\":3305:3308   */\n      dup3\n        /* \"#utility.yul\":3216:3309   */\n      tag_194\n      jump\t// in\n    tag_193:\n        /* \"#utility.yul\":3334:3336   */\n      0x20\n        /* \"#utility.yul\":3329:3332   */\n      dup3\n        /* \"#utility.yul\":3325:3337   */\n      add\n        /* \"#utility.yul\":3318:3337   */\n      swap1\n      pop\n        /* \"#utility.yul\":2977:3343   */\n      swap2\n      swap1\n      pop\n      jump\t// out\n        /* \"#utility.yul\":3349:3715   */\n    tag_195:\n        /* \"#utility.yul\":3491:3494   */\n      0x00\n        /* \"#utility.yul\":3512:3579   */\n      tag_197\n        /* \"#utility.yul\":3576:3578   */\n      0x17\n        /* \"#utility.yul\":3571:3574   */\n      dup4\n        /* \"#utility.yul\":3512:3579   */\n      tag_179\n      jump\t// in\n    tag_197:\n        /* \"#utility.yul\":3505:3579   */\n      swap2\n      pop\n        /* \"#utility.yul\":3588:3681   */\n      tag_198\n        /* \"#utility.yul\":3677:3680   */\n      dup3\n        /* \"#utility.yul\":3588:3681   */\n      tag_199\n      jump\t// in\n    tag_198:\n        /* \"#utility.yul\":3706:3708   */\n      0x20\n        /* \"#utility.yul\":3701:3704   */\n      dup3\n        /* \"#utility.yul\":3697:3709   */\n      add\n        /* \"#utility.yul\":3690:3709   */\n      swap1\n      pop\n        /* \"#utility.yul\":3349:3715   */\n      swap2\n      swap1\n      pop\n      jump\t// out\n        /* \"#utility.yul\":3721:4087   */\n    tag_200:\n        /* \"#utility.yul\":3863:3866   */\n      0x00\n        /* \"#utility.yul\":3884:3951   */\n      tag_202\n        /* \"#utility.yul\":3948:3950   */\n      0x17\n        /* \"#utility.yul\":3943:3946   */\n      dup4\n        /* \"#utility.yul\":3884:3951   */\n      tag_179\n      jump\t// in\n    tag_202:\n        /* \"#utility.yul\":3877:3951   */\n      swap2\n      pop\n        /* \"#utility.yul\":3960:4053   */\n      tag_203\n        /* \"#utility.yul\":4049:4052   */\n      dup3\n        /* \"#utility.yul\":3960:4053   */\n      tag_204\n      jump\t// in\n    tag_203:\n        /* \"#utility.yul\":4078:4080   */\n      0x20\n        /* \"#utility.yul\":4073:4076   */\n      dup3\n        /* \"#utility.yul\":4069:4081   */\n      add\n        /* \"#utility.yul\":4062:4081   */\n      swap1\n      pop\n        /* \"#utility.yul\":3721:4087   */\n      swap2\n      swap1\n      pop\n      jump\t// out\n        /* \"#utility.yul\":4093:4459   */\n    tag_205:\n        /* \"#utility.yul\":4235:4238   */\n      0x00\n        /* \"#utility.yul\":4256:4323   */\n      tag_207\n        /* \"#utility.yul\":4320:4322   */\n      0x1d\n        /* \"#utility.yul\":4315:4318   */\n      dup4\n        /* \"#utility.yul\":4256:4323   */\n      tag_179\n      jump\t// in\n    tag_207:\n        /* \"#utility.yul\":4249:4323   */\n      swap2\n      pop\n        /* \"#utility.yul\":4332:4425   */\n      tag_208\n        /* \"#utility.yul\":4421:4424   */\n      dup3\n        /* \"#utility.yul\":4332:4425   */\n      tag_209\n      jump\t// in\n    tag_208:\n        /* \"#utility.yul\":4450:4452   */\n      0x20\n        /* \"#utility.yul\":4445:4448   */\n      dup3\n        /* \"#utility.yul\":4441:4453   */\n      add\n        /* \"#utility.yul\":4434:4453   */\n      swap1\n      pop\n        /* \"#utility.yul\":4093:4459   */\n      swap2\n      swap1\n      pop\n      jump\t// out\n        /* \"#utility.yul\":4465:4831   */\n    tag_210:\n        /* \"#utility.yul\":4607:4610   */\n      0x00\n        /* \"#utility.yul\":4628:4695   */\n      tag_212\n        /* \"#utility.yul\":4692:4694   */\n      0x31\n        /* \"#utility.yul\":4687:4690   */\n      dup4\n        /* \"#utility.yul\":4628:4695   */\n      tag_179\n      jump\t// in\n    tag_212:\n        /* \"#utility.yul\":4621:4695   */\n      swap2\n      pop\n        /* \"#utility.yul\":4704:4797   */\n      tag_213\n        /* \"#utility.yul\":4793:4796   */\n      dup3\n        /* \"#utility.yul\":4704:4797   */\n      tag_214\n      jump\t// in\n    tag_213:\n        /* \"#utility.yul\":4822:4824   */\n      0x40\n        /* \"#utility.yul\":4817:4820   */\n      dup3\n        /* \"#utility.yul\":4813:4825   */\n      add\n        /* \"#utility.yul\":4806:4825   */\n      swap1\n      pop\n        /* \"#utility.yul\":4465:4831   */\n      swap2\n      swap1\n      pop\n      jump\t// out\n        /* \"#utility.yul\":4837:4955   */\n    tag_215:\n        /* \"#utility.yul\":4924:4948   */\n      tag_217\n        /* \"#utility.yul\":4942:4947   */\n      dup2\n        /* \"#utility.yul\":4924:4948   */\n      tag_218\n      jump\t// in\n    tag_217:\n        /* \"#utility.yul\":4919:4922   */\n      dup3\n        /* \"#utility.yul\":4912:4949   */\n      mstore\n        /* \"#utility.yul\":4837:4955   */\n      pop\n      pop\n      jump\t// out\n        /* \"#utility.yul\":4961:5236   */\n    tag_73:\n        /* \"#utility.yul\":5093:5096   */\n      0x00\n        /* \"#utility.yul\":5115:5210   */\n      tag_220\n        /* \"#utility.yul\":5206:5209   */\n      dup3\n        /* \"#utility.yul\":5197:5203   */\n      dup5\n        /* \"#utility.yul\":5115:5210   */\n      tag_184\n      jump\t// in\n    tag_220:\n        /* \"#utility.yul\":5108:5210   */\n      swap2\n      pop\n        /* \"#utility.yul\":5227:5230   */\n      dup2\n        /* \"#utility.yul\":5220:5230   */\n      swap1\n      pop\n        /* \"#utility.yul\":4961:5236   */\n      swap3\n      swap2\n      pop\n      pop\n      jump\t// out\n        /* \"#utility.yul\":5242:5496   */\n    tag_54:\n        /* \"#utility.yul\":5351:5355   */\n      0x00\n        /* \"#utility.yul\":5389:5391   */\n      0x20\n        /* \"#utility.yul\":5378:5387   */\n      dup3\n        /* \"#utility.yul\":5374:5392   */\n      add\n        /* \"#utility.yul\":5366:5392   */\n      swap1\n      pop\n        /* \"#utility.yul\":5402:5489   */\n      tag_222\n        /* \"#utility.yul\":5486:5487   */\n      0x00\n        /* \"#utility.yul\":5475:5484   */\n      dup4\n        /* \"#utility.yul\":5471:5488   */\n      add\n        /* \"#utility.yul\":5462:5468   */\n      dup5\n        /* \"#utility.yul\":5402:5489   */\n      tag_162\n      jump\t// in\n    tag_222:\n        /* \"#utility.yul\":5242:5496   */\n      swap3\n      swap2\n      pop\n      pop\n      jump\t// out\n        /* \"#utility.yul\":5502:5736   */\n    tag_38:\n        /* \"#utility.yul\":5601:5605   */\n      0x00\n        /* \"#utility.yul\":5639:5641   */\n      0x20\n        /* \"#utility.yul\":5628:5637   */\n      dup3\n        /* \"#utility.yul\":5624:5642   */\n      add\n        /* \"#utility.yul\":5616:5642   */\n      swap1\n      pop\n        /* \"#utility.yul\":5652:5729   */\n      tag_224\n        /* \"#utility.yul\":5726:5727   */\n      0x00\n        /* \"#utility.yul\":5715:5724   */\n      dup4\n        /* \"#utility.yul\":5711:5728   */\n      add\n        /* \"#utility.yul\":5702:5708   */\n      dup5\n        /* \"#utility.yul\":5652:5729   */\n      tag_166\n      jump\t// in\n    tag_224:\n        /* \"#utility.yul\":5502:5736   */\n      swap3\n      swap2\n      pop\n      pop\n      jump\t// out\n        /* \"#utility.yul\":5742:5974   */\n    tag_26:\n        /* \"#utility.yul\":5840:5844   */\n      0x00\n        /* \"#utility.yul\":5878:5880   */\n      0x20\n        /* \"#utility.yul\":5867:5876   */\n      dup3\n        /* \"#utility.yul\":5863:5881   */\n      add\n        /* \"#utility.yul\":5855:5881   */\n      swap1\n      pop\n        /* \"#utility.yul\":5891:5967   */\n      tag_226\n        /* \"#utility.yul\":5964:5965   */\n      0x00\n        /* \"#utility.yul\":5953:5962   */\n      dup4\n        /* \"#utility.yul\":5949:5966   */\n      add\n        /* \"#utility.yul\":5940:5946   */\n      dup5\n        /* \"#utility.yul\":5891:5967   */\n      tag_170\n      jump\t// in\n    tag_226:\n        /* \"#utility.yul\":5742:5974   */\n      swap3\n      swap2\n      pop\n      pop\n      jump\t// out\n        /* \"#utility.yul\":5980:6293   */\n    tag_22:\n        /* \"#utility.yul\":6093:6097   */\n      0x00\n        /* \"#utility.yul\":6131:6133   */\n      0x20\n        /* \"#utility.yul\":6120:6129   */\n      dup3\n        /* \"#utility.yul\":6116:6134   */\n      add\n        /* \"#utility.yul\":6108:6134   */\n      swap1\n      pop\n        /* \"#utility.yul\":6180:6189   */\n      dup2\n        /* \"#utility.yul\":6174:6178   */\n      dup2\n        /* \"#utility.yul\":6170:6190   */\n      sub\n        /* \"#utility.yul\":6166:6167   */\n      0x00\n        /* \"#utility.yul\":6155:6164   */\n      dup4\n        /* \"#utility.yul\":6151:6168   */\n      add\n        /* \"#utility.yul\":6144:6191   */\n      mstore\n        /* \"#utility.yul\":6208:6286   */\n      tag_228\n        /* \"#utility.yul\":6281:6285   */\n      dup2\n        /* \"#utility.yul\":6272:6278   */\n      dup5\n        /* \"#utility.yul\":6208:6286   */\n      tag_174\n      jump\t// in\n    tag_228:\n        /* \"#utility.yul\":6200:6286   */\n      swap1\n      pop\n        /* \"#utility.yul\":5980:6293   */\n      swap3\n      swap2\n      pop\n      pop\n      jump\t// out\n        /* \"#utility.yul\":6299:6718   */\n    tag_80:\n        /* \"#utility.yul\":6465:6469   */\n      0x00\n        /* \"#utility.yul\":6503:6505   */\n      0x20\n        /* \"#utility.yul\":6492:6501   */\n      dup3\n        /* \"#utility.yul\":6488:6506   */\n      add\n        /* \"#utility.yul\":6480:6506   */\n      swap1\n      pop\n        /* \"#utility.yul\":6552:6561   */\n      dup2\n        /* \"#utility.yul\":6546:6550   */\n      dup2\n        /* \"#utility.yul\":6542:6562   */\n      sub\n        /* \"#utility.yul\":6538:6539   */\n      0x00\n        /* \"#utility.yul\":6527:6536   */\n      dup4\n        /* \"#utility.yul\":6523:6540   */\n      add\n        /* \"#utility.yul\":6516:6563   */\n      mstore\n        /* \"#utility.yul\":6580:6711   */\n      tag_230\n        /* \"#utility.yul\":6706:6710   */\n      dup2\n        /* \"#utility.yul\":6580:6711   */\n      tag_190\n      jump\t// in\n    tag_230:\n        /* \"#utility.yul\":6572:6711   */\n      swap1\n      pop\n        /* \"#utility.yul\":6299:6718   */\n      swap2\n      swap1\n      pop\n      jump\t// out\n        /* \"#utility.yul\":6724:7143   */\n    tag_70:\n        /* \"#utility.yul\":6890:6894   */\n      0x00\n        /* \"#utility.yul\":6928:6930   */\n      0x20\n        /* \"#utility.yul\":6917:6926   */\n      dup3\n        /* \"#utility.yul\":6913:6931   */\n      add\n        /* \"#utility.yul\":6905:6931   */\n      swap1\n      pop\n        /* \"#utility.yul\":6977:6986   */\n      dup2\n        /* \"#utility.yul\":6971:6975   */\n      dup2\n        /* \"#utility.yul\":6967:6987   */\n      sub\n        /* \"#utility.yul\":6963:6964   */\n      0x00\n        /* \"#utility.yul\":6952:6961   */\n      dup4\n        /* \"#utility.yul\":6948:6965   */\n      add\n        /* \"#utility.yul\":6941:6988   */\n      mstore\n        /* \"#utility.yul\":7005:7136   */\n      tag_232\n        /* \"#utility.yul\":7131:7135   */\n      dup2\n        /* \"#utility.yul\":7005:7136   */\n      tag_195\n      jump\t// in\n    tag_232:\n        /* \"#utility.yul\":6997:7136   */\n      swap1\n      pop\n        /* \"#utility.yul\":6724:7143   */\n      swap2\n      swap1\n      pop\n      jump\t// out\n        /* \"#utility.yul\":7149:7568   */\n    tag_109:\n        /* \"#utility.yul\":7315:7319   */\n      0x00\n        /* \"#utility.yul\":7353:7355   */\n      0x20\n        /* \"#utility.yul\":7342:7351   */\n      dup3\n        /* \"#utility.yul\":7338:7356   */\n      add\n        /* \"#utility.yul\":7330:7356   */\n      swap1\n      pop\n        /* \"#utility.yul\":7402:7411   */\n      dup2\n        /* \"#utility.yul\":7396:7400   */\n      dup2\n        /* \"#utility.yul\":7392:7412   */\n      sub\n        /* \"#utility.yul\":7388:7389   */\n      0x00\n        /* \"#utility.yul\":7377:7386   */\n      dup4\n        /* \"#utility.yul\":7373:7390   */\n      add\n        /* \"#utility.yul\":7366:7413   */\n      mstore\n        /* \"#utility.yul\":7430:7561   */\n      tag_234\n        /* \"#utility.yul\":7556:7560   */\n      dup2\n        /* \"#utility.yul\":7430:7561   */\n      tag_200\n      jump\t// in\n    tag_234:\n        /* \"#utility.yul\":7422:7561   */\n      swap1\n      pop\n        /* \"#utility.yul\":7149:7568   */\n      swap2\n      swap1\n      pop\n      jump\t// out\n        /* \"#utility.yul\":7574:7993   */\n    tag_100:\n        /* \"#utility.yul\":7740:7744   */\n      0x00\n        /* \"#utility.yul\":7778:7780   */\n      0x20\n        /* \"#utility.yul\":7767:7776   */\n      dup3\n        /* \"#utility.yul\":7763:7781   */\n      add\n        /* \"#utility.yul\":7755:7781   */\n      swap1\n      pop\n        /* \"#utility.yul\":7827:7836   */\n      dup2\n        /* \"#utility.yul\":7821:7825   */\n      dup2\n        /* \"#utility.yul\":7817:7837   */\n      sub\n        /* \"#utility.yul\":7813:7814   */\n      0x00\n        /* \"#utility.yul\":7802:7811   */\n      dup4\n        /* \"#utility.yul\":7798:7815   */\n      add\n        /* \"#utility.yul\":7791:7838   */\n      mstore\n        /* \"#utility.yul\":7855:7986   */\n      tag_236\n        /* \"#utility.yul\":7981:7985   */\n      dup2\n        /* \"#utility.yul\":7855:7986   */\n      tag_205\n      jump\t// in\n    tag_236:\n        /* \"#utility.yul\":7847:7986   */\n      swap1\n      pop\n        /* \"#utility.yul\":7574:7993   */\n      swap2\n      swap1\n      pop\n      jump\t// out\n        /* \"#utility.yul\":7999:8418   */\n    tag_84:\n        /* \"#utility.yul\":8165:8169   */\n      0x00\n        /* \"#utility.yul\":8203:8205   */\n      0x20\n        /* \"#utility.yul\":8192:8201   */\n      dup3\n        /* \"#utility.yul\":8188:8206   */\n      add\n        /* \"#utility.yul\":8180:8206   */\n      swap1\n      pop\n        /* \"#utility.yul\":8252:8261   */\n      dup2\n        /* \"#utility.yul\":8246:8250   */\n      dup2\n        /* \"#utility.yul\":8242:8262   */\n      sub\n        /* \"#utility.yul\":8238:8239   */\n      0x00\n        /* \"#utility.yul\":8227:8236   */\n      dup4\n        /* \"#utility.yul\":8223:8240   */\n      add\n        /* \"#utility.yul\":8216:8263   */\n      mstore\n        /* \"#utility.yul\":8280:8411   */\n      tag_238\n        /* \"#utility.yul\":8406:8410   */\n      dup2\n        /* \"#utility.yul\":8280:8411   */\n      tag_210\n      jump\t// in\n    tag_238:\n        /* \"#utility.yul\":8272:8411   */\n      swap1\n      pop\n        /* \"#utility.yul\":7999:8418   */\n      swap2\n      swap1\n      pop\n      jump\t// out\n        /* \"#utility.yul\":8424:8646   */\n    tag_18:\n        /* \"#utility.yul\":8517:8521   */\n      0x00\n        /* \"#utility.yul\":8555:8557   */\n      0x20\n        /* \"#utility.yul\":8544:8553   */\n      dup3\n        /* \"#utility.yul\":8540:8558   */\n      add\n        /* \"#utility.yul\":8532:8558   */\n      swap1\n      pop\n        /* \"#utility.yul\":8568:8639   */\n      tag_240\n        /* \"#utility.yul\":8636:8637   */\n      0x00\n        /* \"#utility.yul\":8625:8634   */\n      dup4\n        /* \"#utility.yul\":8621:8638   */\n      add\n        /* \"#utility.yul\":8612:8618   */\n      dup5\n        /* \"#utility.yul\":8568:8639   */\n      tag_215\n      jump\t// in\n    tag_240:\n        /* \"#utility.yul\":8424:8646   */\n      swap3\n      swap2\n      pop\n      pop\n      jump\t// out\n        /* \"#utility.yul\":8652:8781   */\n    tag_134:\n        /* \"#utility.yul\":8686:8692   */\n      0x00\n        /* \"#utility.yul\":8713:8733   */\n      tag_242\n      tag_243\n      jump\t// in\n    tag_242:\n        /* \"#utility.yul\":8703:8733   */\n      swap1\n      pop\n        /* \"#utility.yul\":8742:8775   */\n      tag_244\n        /* \"#utility.yul\":8770:8774   */\n      dup3\n        /* \"#utility.yul\":8762:8768   */\n      dup3\n        /* \"#utility.yul\":8742:8775   */\n      tag_245\n      jump\t// in\n    tag_244:\n        /* \"#utility.yul\":8652:8781   */\n      swap2\n      swap1\n      pop\n      jump\t// out\n        /* \"#utility.yul\":8787:8862   */\n    tag_243:\n        /* \"#utility.yul\":8820:8826   */\n      0x00\n        /* \"#utility.yul\":8853:8855   */\n      0x40\n        /* \"#utility.yul\":8847:8856   */\n      mload\n        /* \"#utility.yul\":8837:8856   */\n      swap1\n      pop\n        /* \"#utility.yul\":8787:8862   */\n      swap1\n      jump\t// out\n        /* \"#utility.yul\":8868:9176   */\n    tag_133:\n        /* \"#utility.yul\":8930:8934   */\n      0x00\n        /* \"#utility.yul\":9020:9038   */\n      0xffffffffffffffff\n        /* \"#utility.yul\":9012:9018   */\n      dup3\n        /* \"#utility.yul\":9009:9039   */\n      gt\n        /* \"#utility.yul\":9006:9062   */\n      iszero\n      tag_248\n      jumpi\n        /* \"#utility.yul\":9042:9060   */\n      tag_249\n      tag_250\n      jump\t// in\n    tag_249:\n        /* \"#utility.yul\":9006:9062   */\n    tag_248:\n        /* \"#utility.yul\":9080:9109   */\n      tag_251\n        /* \"#utility.yul\":9102:9108   */\n      dup3\n        /* \"#utility.yul\":9080:9109   */\n      tag_183\n      jump\t// in\n    tag_251:\n        /* \"#utility.yul\":9072:9109   */\n      swap1\n      pop\n        /* \"#utility.yul\":9164:9168   */\n      0x20\n        /* \"#utility.yul\":9158:9162   */\n      dup2\n        /* \"#utility.yul\":9154:9169   */\n      add\n        /* \"#utility.yul\":9146:9169   */\n      swap1\n      pop\n        /* \"#utility.yul\":8868:9176   */\n      swap2\n      swap1\n      pop\n      jump\t// out\n        /* \"#utility.yul\":9182:9281   */\n    tag_177:\n        /* \"#utility.yul\":9234:9240   */\n      0x00\n        /* \"#utility.yul\":9268:9273   */\n      dup2\n        /* \"#utility.yul\":9262:9274   */\n      mload\n        /* \"#utility.yul\":9252:9274   */\n      swap1\n      pop\n        /* \"#utility.yul\":9182:9281   */\n      swap2\n      swap1\n      pop\n      jump\t// out\n        /* \"#utility.yul\":9287:9456   */\n    tag_179:\n        /* \"#utility.yul\":9371:9382   */\n      0x00\n        /* \"#utility.yul\":9405:9411   */\n      dup3\n        /* \"#utility.yul\":9400:9403   */\n      dup3\n        /* \"#utility.yul\":9393:9412   */\n      mstore\n        /* \"#utility.yul\":9445:9449   */\n      0x20\n        /* \"#utility.yul\":9440:9443   */\n      dup3\n        /* \"#utility.yul\":9436:9450   */\n      add\n        /* \"#utility.yul\":9421:9450   */\n      swap1\n      pop\n        /* \"#utility.yul\":9287:9456   */\n      swap3\n      swap2\n      pop\n      pop\n      jump\t// out\n        /* \"#utility.yul\":9462:9610   */\n    tag_188:\n        /* \"#utility.yul\":9564:9575   */\n      0x00\n        /* \"#utility.yul\":9601:9604   */\n      dup2\n        /* \"#utility.yul\":9586:9604   */\n      swap1\n      pop\n        /* \"#utility.yul\":9462:9610   */\n      swap3\n      swap2\n      pop\n      pop\n      jump\t// out\n        /* \"#utility.yul\":9616:9921   */\n    tag_93:\n        /* \"#utility.yul\":9656:9659   */\n      0x00\n        /* \"#utility.yul\":9675:9695   */\n      tag_256\n        /* \"#utility.yul\":9693:9694   */\n      dup3\n        /* \"#utility.yul\":9675:9695   */\n      tag_218\n      jump\t// in\n    tag_256:\n        /* \"#utility.yul\":9670:9695   */\n      swap2\n      pop\n        /* \"#utility.yul\":9709:9729   */\n      tag_257\n        /* \"#utility.yul\":9727:9728   */\n      dup4\n        /* \"#utility.yul\":9709:9729   */\n      tag_218\n      jump\t// in\n    tag_257:\n        /* \"#utility.yul\":9704:9729   */\n      swap3\n      pop\n        /* \"#utility.yul\":9863:9864   */\n      dup3\n        /* \"#utility.yul\":9795:9861   */\n      0xffffffffffffffffffffffffffffffffffffffffffffffffffffffffffffffff\n        /* \"#utility.yul\":9791:9865   */\n      sub\n        /* \"#utility.yul\":9788:9789   */\n      dup3\n        /* \"#utility.yul\":9785:9866   */\n      gt\n        /* \"#utility.yul\":9782:9889   */\n      iszero\n      tag_258\n      jumpi\n        /* \"#utility.yul\":9869:9887   */\n      tag_259\n      tag_260\n      jump\t// in\n    tag_259:\n        /* \"#utility.yul\":9782:9889   */\n    tag_258:\n        /* \"#utility.yul\":9913:9914   */\n      dup3\n        /* \"#utility.yul\":9910:9911   */\n      dup3\n        /* \"#utility.yul\":9906:9915   */\n      add\n        /* \"#utility.yul\":9899:9915   */\n      swap1\n      pop\n        /* \"#utility.yul\":9616:9921   */\n      swap3\n      swap2\n      pop\n      pop\n      jump\t// out\n        /* \"#utility.yul\":9927:10031   */\n    tag_165:\n        /* \"#utility.yul\":9972:9979   */\n      0x00\n        /* \"#utility.yul\":10001:10025   */\n      tag_262\n        /* \"#utility.yul\":10019:10024   */\n      dup3\n        /* \"#utility.yul\":10001:10025   */\n      tag_263\n      jump\t// in\n    tag_262:\n        /* \"#utility.yul\":9990:10025   */\n      swap1\n      pop\n        /* \"#utility.yul\":9927:10031   */\n      swap2\n      swap1\n      pop\n      jump\t// out\n        /* \"#utility.yul\":10037:10164   */\n    tag_264:\n        /* \"#utility.yul\":10082:10089   */\n      0x00\n        /* \"#utility.yul\":10111:10116   */\n      dup2\n        /* \"#utility.yul\":10100:10116   */\n      swap1\n      pop\n        /* \"#utility.yul\":10117:10158   */\n      tag_266\n        /* \"#utility.yul\":10152:10157   */\n      dup3\n        /* \"#utility.yul\":10117:10158   */\n      tag_267\n      jump\t// in\n    tag_266:\n        /* \"#utility.yul\":10037:10164   */\n      swap2\n      swap1\n      pop\n      jump\t// out\n        /* \"#utility.yul\":10170:10295   */\n    tag_268:\n        /* \"#utility.yul\":10214:10221   */\n      0x00\n        /* \"#utility.yul\":10243:10248   */\n      dup2\n        /* \"#utility.yul\":10232:10248   */\n      swap1\n      pop\n        /* \"#utility.yul\":10249:10289   */\n      tag_270\n        /* \"#utility.yul\":10283:10288   */\n      dup3\n        /* \"#utility.yul\":10249:10289   */\n      tag_271\n      jump\t// in\n    tag_270:\n        /* \"#utility.yul\":10170:10295   */\n      swap2\n      swap1\n      pop\n      jump\t// out\n        /* \"#utility.yul\":10301:10427   */\n    tag_263:\n        /* \"#utility.yul\":10338:10345   */\n      0x00\n        /* \"#utility.yul\":10378:10420   */\n      0xffffffffffffffffffffffffffffffffffffffff\n        /* \"#utility.yul\":10371:10376   */\n      dup3\n        /* \"#utility.yul\":10367:10421   */\n      and\n        /* \"#utility.yul\":10356:10421   */\n      swap1\n      pop\n        /* \"#utility.yul\":10301:10427   */\n      swap2\n      swap1\n      pop\n      jump\t// out\n        /* \"#utility.yul\":10433:10510   */\n    tag_218:\n        /* \"#utility.yul\":10470:10477   */\n      0x00\n        /* \"#utility.yul\":10499:10504   */\n      dup2\n        /* \"#utility.yul\":10488:10504   */\n      swap1\n      pop\n        /* \"#utility.yul\":10433:10510   */\n      swap2\n      swap1\n      pop\n      jump\t// out\n        /* \"#utility.yul\":10516:10643   */\n    tag_169:\n        /* \"#utility.yul\":10572:10581   */\n      0x00\n        /* \"#utility.yul\":10605:10637   */\n      tag_275\n        /* \"#utility.yul\":10631:10636   */\n      dup3\n        /* \"#utility.yul\":10605:10637   */\n      tag_264\n      jump\t// in\n    tag_275:\n        /* \"#utility.yul\":10592:10637   */\n      swap1\n      pop\n        /* \"#utility.yul\":10516:10643   */\n      swap2\n      swap1\n      pop\n      jump\t// out\n        /* \"#utility.yul\":10649:10774   */\n    tag_173:\n        /* \"#utility.yul\":10704:10713   */\n      0x00\n        /* \"#utility.yul\":10737:10768   */\n      tag_277\n        /* \"#utility.yul\":10762:10767   */\n      dup3\n        /* \"#utility.yul\":10737:10768   */\n      tag_268\n      jump\t// in\n    tag_277:\n        /* \"#utility.yul\":10724:10768   */\n      swap1\n      pop\n        /* \"#utility.yul\":10649:10774   */\n      swap2\n      swap1\n      pop\n      jump\t// out\n        /* \"#utility.yul\":10780:10934   */\n    tag_139:\n        /* \"#utility.yul\":10864:10870   */\n      dup3\n        /* \"#utility.yul\":10859:10862   */\n      dup2\n        /* \"#utility.yul\":10854:10857   */\n      dup4\n        /* \"#utility.yul\":10841:10871   */\n      calldatacopy\n        /* \"#utility.yul\":10926:10927   */\n      0x00\n        /* \"#utility.yul\":10917:10923   */\n      dup4\n        /* \"#utility.yul\":10912:10915   */\n      dup4\n        /* \"#utility.yul\":10908:10924   */\n      add\n        /* \"#utility.yul\":10901:10928   */\n      mstore\n        /* \"#utility.yul\":10780:10934   */\n      pop\n      pop\n      pop\n      jump\t// out\n        /* \"#utility.yul\":10940:11247   */\n    tag_181:\n        /* \"#utility.yul\":11008:11009   */\n      0x00\n        /* \"#utility.yul\":11018:11131   */\n    tag_280:\n        /* \"#utility.yul\":11032:11038   */\n      dup4\n        /* \"#utility.yul\":11029:11030   */\n      dup2\n        /* \"#utility.yul\":11026:11039   */\n      lt\n        /* \"#utility.yul\":11018:11131   */\n      iszero\n      tag_282\n      jumpi\n        /* \"#utility.yul\":11117:11118   */\n      dup1\n        /* \"#utility.yul\":11112:11115   */\n      dup3\n        /* \"#utility.yul\":11108:11119   */\n      add\n        /* \"#utility.yul\":11102:11120   */\n      mload\n        /* \"#utility.yul\":11098:11099   */\n      dup2\n        /* \"#utility.yul\":11093:11096   */\n      dup5\n        /* \"#utility.yul\":11089:11100   */\n      add\n        /* \"#utility.yul\":11082:11121   */\n      mstore\n        /* \"#utility.yul\":11054:11056   */\n      0x20\n        /* \"#utility.yul\":11051:11052   */\n      dup2\n        /* \"#utility.yul\":11047:11057   */\n      add\n        /* \"#utility.yul\":11042:11057   */\n      swap1\n      pop\n        /* \"#utility.yul\":11018:11131   */\n      jump(tag_280)\n    tag_282:\n        /* \"#utility.yul\":11149:11155   */\n      dup4\n        /* \"#utility.yul\":11146:11147   */\n      dup2\n        /* \"#utility.yul\":11143:11156   */\n      gt\n        /* \"#utility.yul\":11140:11241   */\n      iszero\n      tag_283\n      jumpi\n        /* \"#utility.yul\":11229:11230   */\n      0x00\n        /* \"#utility.yul\":11220:11226   */\n      dup5\n        /* \"#utility.yul\":11215:11218   */\n      dup5\n        /* \"#utility.yul\":11211:11227   */\n      add\n        /* \"#utility.yul\":11204:11231   */\n      mstore\n        /* \"#utility.yul\":11140:11241   */\n    tag_283:\n        /* \"#utility.yul\":10989:11247   */\n      pop\n        /* \"#utility.yul\":10940:11247   */\n      pop\n      pop\n      pop\n      jump\t// out\n        /* \"#utility.yul\":11253:11573   */\n    tag_56:\n        /* \"#utility.yul\":11297:11303   */\n      0x00\n        /* \"#utility.yul\":11334:11335   */\n      0x02\n        /* \"#utility.yul\":11328:11332   */\n      dup3\n        /* \"#utility.yul\":11324:11336   */\n      div\n        /* \"#utility.yul\":11314:11336   */\n      swap1\n      pop\n        /* \"#utility.yul\":11381:11382   */\n      0x01\n        /* \"#utility.yul\":11375:11379   */\n      dup3\n        /* \"#utility.yul\":11371:11383   */\n      and\n        /* \"#utility.yul\":11402:11420   */\n      dup1\n        /* \"#utility.yul\":11392:11473   */\n      tag_285\n      jumpi\n        /* \"#utility.yul\":11458:11462   */\n      0x7f\n        /* \"#utility.yul\":11450:11456   */\n      dup3\n        /* \"#utility.yul\":11446:11463   */\n      and\n        /* \"#utility.yul\":11436:11463   */\n      swap2\n      pop\n        /* \"#utility.yul\":11392:11473   */\n    tag_285:\n        /* \"#utility.yul\":11520:11522   */\n      0x20\n        /* \"#utility.yul\":11512:11518   */\n      dup3\n        /* \"#utility.yul\":11509:11523   */\n      lt\n        /* \"#utility.yul\":11489:11507   */\n      dup2\n        /* \"#utility.yul\":11486:11524   */\n      eq\n        /* \"#utility.yul\":11483:11567   */\n      iszero\n      tag_286\n      jumpi\n        /* \"#utility.yul\":11539:11557   */\n      tag_287\n      tag_288\n      jump\t// in\n    tag_287:\n        /* \"#utility.yul\":11483:11567   */\n    tag_286:\n        /* \"#utility.yul\":11304:11573   */\n      pop\n        /* \"#utility.yul\":11253:11573   */\n      swap2\n      swap1\n      pop\n      jump\t// out\n        /* \"#utility.yul\":11579:11860   */\n    tag_245:\n        /* \"#utility.yul\":11662:11689   */\n      tag_290\n        /* \"#utility.yul\":11684:11688   */\n      dup3\n        /* \"#utility.yul\":11662:11689   */\n      tag_183\n      jump\t// in\n    tag_290:\n        /* \"#utility.yul\":11654:11660   */\n      dup2\n        /* \"#utility.yul\":11650:11690   */\n      add\n        /* \"#utility.yul\":11792:11798   */\n      dup2\n        /* \"#utility.yul\":11780:11790   */\n      dup2\n        /* \"#utility.yul\":11777:11799   */\n      lt\n        /* \"#utility.yul\":11756:11774   */\n      0xffffffffffffffff\n        /* \"#utility.yul\":11744:11754   */\n      dup3\n        /* \"#utility.yul\":11741:11775   */\n      gt\n        /* \"#utility.yul\":11738:11800   */\n      or\n        /* \"#utility.yul\":11735:11823   */\n      iszero\n      tag_291\n      jumpi\n        /* \"#utility.yul\":11803:11821   */\n      tag_292\n      tag_250\n      jump\t// in\n    tag_292:\n        /* \"#utility.yul\":11735:11823   */\n    tag_291:\n        /* \"#utility.yul\":11843:11853   */\n      dup1\n        /* \"#utility.yul\":11839:11841   */\n      0x40\n        /* \"#utility.yul\":11832:11854   */\n      mstore\n        /* \"#utility.yul\":11622:11860   */\n      pop\n        /* \"#utility.yul\":11579:11860   */\n      pop\n      pop\n      jump\t// out\n        /* \"#utility.yul\":11866:12046   */\n    tag_260:\n        /* \"#utility.yul\":11914:11991   */\n      0x4e487b7100000000000000000000000000000000000000000000000000000000\n        /* \"#utility.yul\":11911:11912   */\n      0x00\n        /* \"#utility.yul\":11904:11992   */\n      mstore\n        /* \"#utility.yul\":12011:12015   */\n      0x11\n        /* \"#utility.yul\":12008:12009   */\n      0x04\n        /* \"#utility.yul\":12001:12016   */\n      mstore\n        /* \"#utility.yul\":12035:12039   */\n      0x24\n        /* \"#utility.yul\":12032:12033   */\n      0x00\n        /* \"#utility.yul\":12025:12040   */\n      revert\n        /* \"#utility.yul\":12052:12232   */\n    tag_64:\n        /* \"#utility.yul\":12100:12177   */\n      0x4e487b7100000000000000000000000000000000000000000000000000000000\n        /* \"#utility.yul\":12097:12098   */\n      0x00\n        /* \"#utility.yul\":12090:12178   */\n      mstore\n        /* \"#utility.yul\":12197:12201   */\n      0x21\n        /* \"#utility.yul\":12194:12195   */\n      0x04\n        /* \"#utility.yul\":12187:12202   */\n      mstore\n        /* \"#utility.yul\":12221:12225   */\n      0x24\n        /* \"#utility.yul\":12218:12219   */\n      0x00\n        /* \"#utility.yul\":12211:12226   */\n      revert\n        /* \"#utility.yul\":12238:12418   */\n    tag_288:\n        /* \"#utility.yul\":12286:12363   */\n      0x4e487b7100000000000000000000000000000000000000000000000000000000\n        /* \"#utility.yul\":12283:12284   */\n      0x00\n        /* \"#utility.yul\":12276:12364   */\n      mstore\n        /* \"#utility.yul\":12383:12387   */\n      0x22\n        /* \"#utility.yul\":12380:12381   */\n      0x04\n        /* \"#utility.yul\":12373:12388   */\n      mstore\n        /* \"#utility.yul\":12407:12411   */\n      0x24\n        /* \"#utility.yul\":12404:12405   */\n      0x00\n        /* \"#utility.yul\":12397:12412   */\n      revert\n        /* \"#utility.yul\":12424:12604   */\n    tag_250:\n        /* \"#utility.yul\":12472:12549   */\n      0x4e487b7100000000000000000000000000000000000000000000000000000000\n        /* \"#utility.yul\":12469:12470   */\n      0x00\n        /* \"#utility.yul\":12462:12550   */\n      mstore\n        /* \"#utility.yul\":12569:12573   */\n      0x41\n        /* \"#utility.yul\":12566:12567   */\n      0x04\n        /* \"#utility.yul\":12559:12574   */\n      mstore\n        /* \"#utility.yul\":12593:12597   */\n      0x24\n        /* \"#utility.yul\":12590:12591   */\n      0x00\n        /* \"#utility.yul\":12583:12598   */\n      revert\n        /* \"#utility.yul\":12610:12727   */\n    tag_144:\n        /* \"#utility.yul\":12719:12720   */\n      0x00\n        /* \"#utility.yul\":12716:12717   */\n      dup1\n        /* \"#utility.yul\":12709:12721   */\n      revert\n        /* \"#utility.yul\":12733:12850   */\n    tag_137:\n        /* \"#utility.yul\":12842:12843   */\n      0x00\n        /* \"#utility.yul\":12839:12840   */\n      dup1\n        /* \"#utility.yul\":12832:12844   */\n      revert\n        /* \"#utility.yul\":12856:12973   */\n    tag_156:\n        /* \"#utility.yul\":12965:12966   */\n      0x00\n        /* \"#utility.yul\":12962:12963   */\n      dup1\n        /* \"#utility.yul\":12955:12967   */\n      revert\n        /* \"#utility.yul\":12979:13096   */\n    tag_153:\n        /* \"#utility.yul\":13088:13089   */\n      0x00\n        /* \"#utility.yul\":13085:13086   */\n      dup1\n        /* \"#utility.yul\":13078:13090   */\n      revert\n        /* \"#utility.yul\":13102:13204   */\n    tag_183:\n        /* \"#utility.yul\":13143:13149   */\n      0x00\n        /* \"#utility.yul\":13194:13196   */\n      0x1f\n        /* \"#utility.yul\":13190:13197   */\n      not\n        /* \"#utility.yul\":13185:13187   */\n      0x1f\n        /* \"#utility.yul\":13178:13183   */\n      dup4\n        /* \"#utility.yul\":13174:13188   */\n      add\n        /* \"#utility.yul\":13170:13198   */\n      and\n        /* \"#utility.yul\":13160:13198   */\n      swap1\n      pop\n        /* \"#utility.yul\":13102:13204   */\n      swap2\n      swap1\n      pop\n      jump\t// out\n        /* \"#utility.yul\":13210:13383   */\n    tag_194:\n        /* \"#utility.yul\":13350:13375   */\n      0x54686520706f6c6c20616c726561647920656e6465642e000000000000000000\n        /* \"#utility.yul\":13346:13347   */\n      0x00\n        /* \"#utility.yul\":13338:13344   */\n      dup3\n        /* \"#utility.yul\":13334:13348   */\n      add\n        /* \"#utility.yul\":13327:13376   */\n      mstore\n        /* \"#utility.yul\":13210:13383   */\n      pop\n      jump\t// out\n        /* \"#utility.yul\":13389:13562   */\n    tag_199:\n        /* \"#utility.yul\":13529:13554   */\n      0x546869732069732061207072697661746520706f6c6c2e000000000000000000\n        /* \"#utility.yul\":13525:13526   */\n      0x00\n        /* \"#utility.yul\":13517:13523   */\n      dup3\n        /* \"#utility.yul\":13513:13527   */\n      add\n        /* \"#utility.yul\":13506:13555   */\n      mstore\n        /* \"#utility.yul\":13389:13562   */\n      pop\n      jump\t// out\n        /* \"#utility.yul\":13568:13741   */\n    tag_204:\n        /* \"#utility.yul\":13708:13733   */\n      0x596f75206861766520616c726561647920766f74656421000000000000000000\n        /* \"#utility.yul\":13704:13705   */\n      0x00\n        /* \"#utility.yul\":13696:13702   */\n      dup3\n        /* \"#utility.yul\":13692:13706   */\n      add\n        /* \"#utility.yul\":13685:13734   */\n      mstore\n        /* \"#utility.yul\":13568:13741   */\n      pop\n      jump\t// out\n        /* \"#utility.yul\":13747:13926   */\n    tag_209:\n        /* \"#utility.yul\":13887:13918   */\n      0x54686520706f6c6c20686173206e6f742073746172746564207965742e000000\n        /* \"#utility.yul\":13883:13884   */\n      0x00\n        /* \"#utility.yul\":13875:13881   */\n      dup3\n        /* \"#utility.yul\":13871:13885   */\n      add\n        /* \"#utility.yul\":13864:13919   */\n      mstore\n        /* \"#utility.yul\":13747:13926   */\n      pop\n      jump\t// out\n        /* \"#utility.yul\":13932:14168   */\n    tag_214:\n        /* \"#utility.yul\":14072:14106   */\n      0x4f6e6c79207468652063726561746572206f66207468697320706f6c6c206861\n        /* \"#utility.yul\":14068:14069   */\n      0x00\n        /* \"#utility.yul\":14060:14066   */\n      dup3\n        /* \"#utility.yul\":14056:14070   */\n      add\n        /* \"#utility.yul\":14049:14107   */\n      mstore\n        /* \"#utility.yul\":14141:14160   */\n      0x7320746869732070726976696c6567652e000000000000000000000000000000\n        /* \"#utility.yul\":14136:14138   */\n      0x20\n        /* \"#utility.yul\":14128:14134   */\n      dup3\n        /* \"#utility.yul\":14124:14139   */\n      add\n        /* \"#utility.yul\":14117:14161   */\n      mstore\n        /* \"#utility.yul\":13932:14168   */\n      pop\n      jump\t// out\n        /* \"#utility.yul\":14174:14287   */\n    tag_267:\n        /* \"#utility.yul\":14255:14256   */\n      0x04\n        /* \"#utility.yul\":14248:14253   */\n      dup2\n        /* \"#utility.yul\":14245:14257   */\n      lt\n        /* \"#utility.yul\":14235:14281   */\n      tag_308\n      jumpi\n        /* \"#utility.yul\":14261:14279   */\n      tag_309\n      tag_64\n      jump\t// in\n    tag_309:\n        /* \"#utility.yul\":14235:14281   */\n    tag_308:\n        /* \"#utility.yul\":14174:14287   */\n      pop\n      jump\t// out\n        /* \"#utility.yul\":14293:14405   */\n    tag_271:\n        /* \"#utility.yul\":14373:14374   */\n      0x02\n        /* \"#utility.yul\":14366:14371   */\n      dup2\n        /* \"#utility.yul\":14363:14375   */\n      lt\n        /* \"#utility.yul\":14353:14399   */\n      tag_311\n      jumpi\n        /* \"#utility.yul\":14379:14397   */\n      tag_312\n      tag_64\n      jump\t// in\n    tag_312:\n        /* \"#utility.yul\":14353:14399   */\n    tag_311:\n        /* \"#utility.yul\":14293:14405   */\n      pop\n      jump\t// out\n        /* \"#utility.yul\":14411:14533   */\n    tag_149:\n        /* \"#utility.yul\":14484:14508   */\n      tag_314\n        /* \"#utility.yul\":14502:14507   */\n      dup2\n        /* \"#utility.yul\":14484:14508   */\n      tag_218\n      jump\t// in\n    tag_314:\n        /* \"#utility.yul\":14477:14482   */\n      dup2\n        /* \"#utility.yul\":14474:14509   */\n      eq\n        /* \"#utility.yul\":14464:14527   */\n      tag_315\n      jumpi\n        /* \"#utility.yul\":14523:14524   */\n      0x00\n        /* \"#utility.yul\":14520:14521   */\n      dup1\n        /* \"#utility.yul\":14513:14525   */\n      revert\n        /* \"#utility.yul\":14464:14527   */\n    tag_315:\n        /* \"#utility.yul\":14411:14533   */\n      pop\n      jump\t// out\n\n    auxdata: 0xa2646970667358221220b3f035cbcdbbea76e93e0c22ac4f95ada8880660b348789f359e88d951da746b64736f6c63430008070033\n}\n",
				"bytecode": {
					"linkReferences": {},
					"object": "60806040523480156200001157600080fd5b5060405162001a0938038062001a09833981810160405281019062000037919062000441565b846000806101000a81548173ffffffffffffffffffffffffffffffffffffffff021916908373ffffffffffffffffffffffffffffffffffffffff16021790555083600190805190602001906200008f92919062000216565b504360028190555082600254620000a7919062000658565b6003819055506001600460016101000a81548160ff02191690836003811115620000d657620000d562000812565b5b0217905550604051602001620000ec906200059d565b604051602081830303815290604052805190602001208160405160200162000115919062000584565b60405160208183030381529060405280519060200120141562000166576000600460006101000a81548160ff021916908360018111156200015b576200015a62000812565b5b0217905550620001a4565b6001808111156200017c576200017b62000812565b5b600460009054906101000a900460ff166001811115620001a157620001a062000812565b5b50505b60005b82518110156200020a5760006006848381518110620001cb57620001ca62000870565b5b6020026020010151604051620001e2919062000584565b9081526020016040518091039020819055508080620002019062000795565b915050620001a7565b50505050505062000955565b828054620002249062000729565b90600052602060002090601f01602090048101928262000248576000855562000294565b82601f106200026357805160ff191683800117855562000294565b8280016001018555821562000294579182015b828111156200029357825182559160200191906001019062000276565b5b509050620002a39190620002a7565b5090565b5b80821115620002c2576000816000905550600101620002a8565b5090565b6000620002dd620002d784620005dd565b620005b4565b90508083825260208201905082856020860282011115620003035762000302620008d3565b5b60005b858110156200035857815167ffffffffffffffff8111156200032d576200032c620008ce565b5b8086016200033c8982620003f7565b8552602085019450602084019350505060018101905062000306565b5050509392505050565b60006200037962000373846200060c565b620005b4565b905082815260208101848484011115620003985762000397620008d8565b5b620003a5848285620006f3565b509392505050565b600081519050620003be8162000921565b92915050565b600082601f830112620003dc57620003db620008ce565b5b8151620003ee848260208601620002c6565b91505092915050565b600082601f8301126200040f576200040e620008ce565b5b81516200042184826020860162000362565b91505092915050565b6000815190506200043b816200093b565b92915050565b600080600080600060a0868803121562000460576200045f620008e2565b5b60006200047088828901620003ad565b955050602086015167ffffffffffffffff811115620004945762000493620008dd565b5b620004a288828901620003f7565b9450506040620004b5888289016200042a565b935050606086015167ffffffffffffffff811115620004d957620004d8620008dd565b5b620004e788828901620003c4565b925050608086015167ffffffffffffffff8111156200050b576200050a620008dd565b5b6200051988828901620003f7565b9150509295509295909350565b6000620005338262000642565b6200053f81856200064d565b935062000551818560208601620006f3565b80840191505092915050565b60006200056c6006836200064d565b91506200057982620008f8565b600682019050919050565b600062000592828462000526565b915081905092915050565b6000620005aa826200055d565b9150819050919050565b6000620005c0620005d3565b9050620005ce82826200075f565b919050565b6000604051905090565b600067ffffffffffffffff821115620005fb57620005fa6200089f565b5b602082029050602081019050919050565b600067ffffffffffffffff8211156200062a57620006296200089f565b5b6200063582620008e7565b9050602081019050919050565b600081519050919050565b600081905092915050565b60006200066582620006e9565b91506200067283620006e9565b9250827fffffffffffffffffffffffffffffffffffffffffffffffffffffffffffffffff03821115620006aa57620006a9620007e3565b5b828201905092915050565b6000620006c282620006c9565b9050919050565b600073ffffffffffffffffffffffffffffffffffffffff82169050919050565b6000819050919050565b60005b8381101562000713578082015181840152602081019050620006f6565b8381111562000723576000848401525b50505050565b600060028204905060018216806200074257607f821691505b6020821081141562000759576200075862000841565b5b50919050565b6200076a82620008e7565b810181811067ffffffffffffffff821117156200078c576200078b6200089f565b5b80604052505050565b6000620007a282620006e9565b91507fffffffffffffffffffffffffffffffffffffffffffffffffffffffffffffffff821415620007d857620007d7620007e3565b5b600182019050919050565b7f4e487b7100000000000000000000000000000000000000000000000000000000600052601160045260246000fd5b7f4e487b7100000000000000000000000000000000000000000000000000000000600052602160045260246000fd5b7f4e487b7100000000000000000000000000000000000000000000000000000000600052602260045260246000fd5b7f4e487b7100000000000000000000000000000000000000000000000000000000600052603260045260246000fd5b7f4e487b7100000000000000000000000000000000000000000000000000000000600052604160045260246000fd5b600080fd5b600080fd5b600080fd5b600080fd5b600080fd5b6000601f19601f8301169050919050565b7f5075626c69630000000000000000000000000000000000000000000000000000600082015250565b6200092c81620006b5565b81146200093857600080fd5b50565b6200094681620006e9565b81146200095257600080fd5b50565b6110a480620009656000396000f3fe608060405234801561001057600080fd5b50600436106100a95760003560e01c80638f58d353116100715780638f58d35314610156578063b73b396b14610174578063ba0c45c91461017e578063c04752d81461019a578063c308b0dc146101b6578063cc1e2cb0146101d2576100a9565b8063083c6323146100ae57806318769765146100cc578063237637a8146100ea57806348cd4cb114610108578063498cc70d14610126575b600080fd5b6100b66101f0565b6040516100c39190610c42565b60405180910390f35b6100d46101f6565b6040516100e19190610b80565b60405180910390f35b6100f2610284565b6040516100ff9190610b65565b60405180910390f35b610110610297565b60405161011d9190610c42565b60405180910390f35b610140600480360381019061013b919061094d565b61029d565b60405161014d9190610c42565b60405180910390f35b61015e6103b5565b60405161016b9190610b4a565b60405180910390f35b61017c6103c8565b005b61019860048036038101906101939190610996565b6104c7565b005b6101b460048036038101906101af919061094d565b61056c565b005b6101d060048036038101906101cb919061094d565b610759565b005b6101da610801565b6040516101e79190610b2f565b60405180910390f35b60035481565b6001805461020390610df8565b80601f016020809104026020016040519081016040528092919081815260200182805461022f90610df8565b801561027c5780601f106102515761010080835404028352916020019161027c565b820191906000526020600020905b81548152906001019060200180831161025f57829003601f168201915b505050505081565b600460009054906101000a900460ff1681565b60025481565b60006001808111156102b2576102b1610e8a565b5b600460009054906101000a900460ff1660018111156102d4576102d3610e8a565b5b141561038e573373ffffffffffffffffffffffffffffffffffffffff1660008054906101000a900473ffffffffffffffffffffffffffffffffffffffff1673ffffffffffffffffffffffffffffffffffffffff1614610368576040517f08c379a000000000000000000000000000000000000000000000000000000000815260040161035f90610bc2565b60405180910390fd5b6006826040516103789190610b18565b90815260200160405180910390205490506103b0565b60068260405161039e9190610b18565b90815260200160405180910390205490505b919050565b600460019054906101000a900460ff1681565b600354431061040c576040517f08c379a000000000000000000000000000000000000000000000000000000000815260040161040390610ba2565b60405180910390fd5b3373ffffffffffffffffffffffffffffffffffffffff1660008054906101000a900473ffffffffffffffffffffffffffffffffffffffff1673ffffffffffffffffffffffffffffffffffffffff161461049a576040517f08c379a000000000000000000000000000000000000000000000000000000000815260040161049190610c22565b60405180910390fd5b6002600460016101000a81548160ff021916908360038111156104c0576104bf610e8a565b5b0217905550565b3373ffffffffffffffffffffffffffffffffffffffff1660008054906101000a900473ffffffffffffffffffffffffffffffffffffffff1673ffffffffffffffffffffffffffffffffffffffff1614610555576040517f08c379a000000000000000000000000000000000000000000000000000000000815260040161054c90610c22565b60405180910390fd5b806003546105639190610cda565b60038190555050565b60035443106105b0576040517f08c379a00000000000000000000000000000000000000000000000000000000081526004016105a790610ba2565b60405180910390fd5b60025443116105f4576040517f08c379a00000000000000000000000000000000000000000000000000000000081526004016105eb90610c02565b60405180910390fd5b6002600381111561060857610607610e8a565b5b600460019054906101000a900460ff16600381111561062a57610629610e8a565b5b141561063557600080fd5b6000339050600560008273ffffffffffffffffffffffffffffffffffffffff1673ffffffffffffffffffffffffffffffffffffffff16815260200190815260200160002060009054906101000a900460ff16156106c7576040517f08c379a00000000000000000000000000000000000000000000000000000000081526004016106be90610be2565b60405180910390fd5b6001600560008373ffffffffffffffffffffffffffffffffffffffff1673ffffffffffffffffffffffffffffffffffffffff16815260200190815260200160002060006101000a81548160ff02191690831515021790555060016006836040516107319190610b18565b9081526020016040518091039020600082825461074e9190610cda565b925050819055505050565b3373ffffffffffffffffffffffffffffffffffffffff1660008054906101000a900473ffffffffffffffffffffffffffffffffffffffff1673ffffffffffffffffffffffffffffffffffffffff16146107e7576040517f08c379a00000000000000000000000000000000000000000000000000000000081526004016107de90610c22565b60405180910390fd5b80600190805190602001906107fd929190610825565b5050565b60008054906101000a900473ffffffffffffffffffffffffffffffffffffffff1681565b82805461083190610df8565b90600052602060002090601f016020900481019282610853576000855561089a565b82601f1061086c57805160ff191683800117855561089a565b8280016001018555821561089a579182015b8281111561089957825182559160200191906001019061087e565b5b5090506108a791906108ab565b5090565b5b808211156108c45760008160009055506001016108ac565b5090565b60006108db6108d684610c82565b610c5d565b9050828152602081018484840111156108f7576108f6610f1c565b5b610902848285610db6565b509392505050565b600082601f83011261091f5761091e610f17565b5b813561092f8482602086016108c8565b91505092915050565b60008135905061094781611057565b92915050565b60006020828403121561096357610962610f26565b5b600082013567ffffffffffffffff81111561098157610980610f21565b5b61098d8482850161090a565b91505092915050565b6000602082840312156109ac576109ab610f26565b5b60006109ba84828501610938565b91505092915050565b6109cc81610d30565b82525050565b6109db81610d92565b82525050565b6109ea81610da4565b82525050565b60006109fb82610cb3565b610a058185610cbe565b9350610a15818560208601610dc5565b610a1e81610f2b565b840191505092915050565b6000610a3482610cb3565b610a3e8185610ccf565b9350610a4e818560208601610dc5565b80840191505092915050565b6000610a67601783610cbe565b9150610a7282610f3c565b602082019050919050565b6000610a8a601783610cbe565b9150610a9582610f65565b602082019050919050565b6000610aad601783610cbe565b9150610ab882610f8e565b602082019050919050565b6000610ad0601d83610cbe565b9150610adb82610fb7565b602082019050919050565b6000610af3603183610cbe565b9150610afe82610fe0565b604082019050919050565b610b1281610d88565b82525050565b6000610b248284610a29565b915081905092915050565b6000602082019050610b4460008301846109c3565b92915050565b6000602082019050610b5f60008301846109d2565b92915050565b6000602082019050610b7a60008301846109e1565b92915050565b60006020820190508181036000830152610b9a81846109f0565b905092915050565b60006020820190508181036000830152610bbb81610a5a565b9050919050565b60006020820190508181036000830152610bdb81610a7d565b9050919050565b60006020820190508181036000830152610bfb81610aa0565b9050919050565b60006020820190508181036000830152610c1b81610ac3565b9050919050565b60006020820190508181036000830152610c3b81610ae6565b9050919050565b6000602082019050610c576000830184610b09565b92915050565b6000610c67610c78565b9050610c738282610e2a565b919050565b6000604051905090565b600067ffffffffffffffff821115610c9d57610c9c610ee8565b5b610ca682610f2b565b9050602081019050919050565b600081519050919050565b600082825260208201905092915050565b600081905092915050565b6000610ce582610d88565b9150610cf083610d88565b9250827fffffffffffffffffffffffffffffffffffffffffffffffffffffffffffffffff03821115610d2557610d24610e5b565b5b828201905092915050565b6000610d3b82610d68565b9050919050565b6000819050610d508261102f565b919050565b6000819050610d6382611043565b919050565b600073ffffffffffffffffffffffffffffffffffffffff82169050919050565b6000819050919050565b6000610d9d82610d42565b9050919050565b6000610daf82610d55565b9050919050565b82818337600083830152505050565b60005b83811015610de3578082015181840152602081019050610dc8565b83811115610df2576000848401525b50505050565b60006002820490506001821680610e1057607f821691505b60208210811415610e2457610e23610eb9565b5b50919050565b610e3382610f2b565b810181811067ffffffffffffffff82111715610e5257610e51610ee8565b5b80604052505050565b7f4e487b7100000000000000000000000000000000000000000000000000000000600052601160045260246000fd5b7f4e487b7100000000000000000000000000000000000000000000000000000000600052602160045260246000fd5b7f4e487b7100000000000000000000000000000000000000000000000000000000600052602260045260246000fd5b7f4e487b7100000000000000000000000000000000000000000000000000000000600052604160045260246000fd5b600080fd5b600080fd5b600080fd5b600080fd5b6000601f19601f8301169050919050565b7f54686520706f6c6c20616c726561647920656e6465642e000000000000000000600082015250565b7f546869732069732061207072697661746520706f6c6c2e000000000000000000600082015250565b7f596f75206861766520616c726561647920766f74656421000000000000000000600082015250565b7f54686520706f6c6c20686173206e6f742073746172746564207965742e000000600082015250565b7f4f6e6c79207468652063726561746572206f66207468697320706f6c6c20686160008201527f7320746869732070726976696c6567652e000000000000000000000000000000602082015250565b600481106110405761103f610e8a565b5b50565b6002811061105457611053610e8a565b5b50565b61106081610d88565b811461106b57600080fd5b5056fea2646970667358221220b3f035cbcdbbea76e93e0c22ac4f95ada8880660b348789f359e88d951da746b64736f6c63430008070033",
					"opcodes": "PUSH1 0x80 PUSH1 0x40 MSTORE CALLVALUE DUP1 ISZERO PUSH3 0x11 JUMPI PUSH1 0x0 DUP1 REVERT JUMPDEST POP PUSH1 0x40 MLOAD PUSH3 0x1A09 CODESIZE SUB DUP1 PUSH3 0x1A09 DUP4 CODECOPY DUP2 DUP2 ADD PUSH1 0x40 MSTORE DUP2 ADD SWAP1 PUSH3 0x37 SWAP2 SWAP1 PUSH3 0x441 JUMP JUMPDEST DUP5 PUSH1 0x0 DUP1 PUSH2 0x100 EXP DUP2 SLOAD DUP2 PUSH20 0xFFFFFFFFFFFFFFFFFFFFFFFFFFFFFFFFFFFFFFFF MUL NOT AND SWAP1 DUP4 PUSH20 0xFFFFFFFFFFFFFFFFFFFFFFFFFFFFFFFFFFFFFFFF AND MUL OR SWAP1 SSTORE POP DUP4 PUSH1 0x1 SWAP1 DUP1 MLOAD SWAP1 PUSH1 0x20 ADD SWAP1 PUSH3 0x8F SWAP3 SWAP2 SWAP1 PUSH3 0x216 JUMP JUMPDEST POP NUMBER PUSH1 0x2 DUP2 SWAP1 SSTORE POP DUP3 PUSH1 0x2 SLOAD PUSH3 0xA7 SWAP2 SWAP1 PUSH3 0x658 JUMP JUMPDEST PUSH1 0x3 DUP2 SWAP1 SSTORE POP PUSH1 0x1 PUSH1 0x4 PUSH1 0x1 PUSH2 0x100 EXP DUP2 SLOAD DUP2 PUSH1 0xFF MUL NOT AND SWAP1 DUP4 PUSH1 0x3 DUP2 GT ISZERO PUSH3 0xD6 JUMPI PUSH3 0xD5 PUSH3 0x812 JUMP JUMPDEST JUMPDEST MUL OR SWAP1 SSTORE POP PUSH1 0x40 MLOAD PUSH1 0x20 ADD PUSH3 0xEC SWAP1 PUSH3 0x59D JUMP JUMPDEST PUSH1 0x40 MLOAD PUSH1 0x20 DUP2 DUP4 SUB SUB DUP2 MSTORE SWAP1 PUSH1 0x40 MSTORE DUP1 MLOAD SWAP1 PUSH1 0x20 ADD KECCAK256 DUP2 PUSH1 0x40 MLOAD PUSH1 0x20 ADD PUSH3 0x115 SWAP2 SWAP1 PUSH3 0x584 JUMP JUMPDEST PUSH1 0x40 MLOAD PUSH1 0x20 DUP2 DUP4 SUB SUB DUP2 MSTORE SWAP1 PUSH1 0x40 MSTORE DUP1 MLOAD SWAP1 PUSH1 0x20 ADD KECCAK256 EQ ISZERO PUSH3 0x166 JUMPI PUSH1 0x0 PUSH1 0x4 PUSH1 0x0 PUSH2 0x100 EXP DUP2 SLOAD DUP2 PUSH1 0xFF MUL NOT AND SWAP1 DUP4 PUSH1 0x1 DUP2 GT ISZERO PUSH3 0x15B JUMPI PUSH3 0x15A PUSH3 0x812 JUMP JUMPDEST JUMPDEST MUL OR SWAP1 SSTORE POP PUSH3 0x1A4 JUMP JUMPDEST PUSH1 0x1 DUP1 DUP2 GT ISZERO PUSH3 0x17C JUMPI PUSH3 0x17B PUSH3 0x812 JUMP JUMPDEST JUMPDEST PUSH1 0x4 PUSH1 0x0 SWAP1 SLOAD SWAP1 PUSH2 0x100 EXP SWAP1 DIV PUSH1 0xFF AND PUSH1 0x1 DUP2 GT ISZERO PUSH3 0x1A1 JUMPI PUSH3 0x1A0 PUSH3 0x812 JUMP JUMPDEST JUMPDEST POP POP JUMPDEST PUSH1 0x0 JUMPDEST DUP3 MLOAD DUP2 LT ISZERO PUSH3 0x20A JUMPI PUSH1 0x0 PUSH1 0x6 DUP5 DUP4 DUP2 MLOAD DUP2 LT PUSH3 0x1CB JUMPI PUSH3 0x1CA PUSH3 0x870 JUMP JUMPDEST JUMPDEST PUSH1 0x20 MUL PUSH1 0x20 ADD ADD MLOAD PUSH1 0x40 MLOAD PUSH3 0x1E2 SWAP2 SWAP1 PUSH3 0x584 JUMP JUMPDEST SWAP1 DUP2 MSTORE PUSH1 0x20 ADD PUSH1 0x40 MLOAD DUP1 SWAP2 SUB SWAP1 KECCAK256 DUP2 SWAP1 SSTORE POP DUP1 DUP1 PUSH3 0x201 SWAP1 PUSH3 0x795 JUMP JUMPDEST SWAP2 POP POP PUSH3 0x1A7 JUMP JUMPDEST POP POP POP POP POP POP PUSH3 0x955 JUMP JUMPDEST DUP3 DUP1 SLOAD PUSH3 0x224 SWAP1 PUSH3 0x729 JUMP JUMPDEST SWAP1 PUSH1 0x0 MSTORE PUSH1 0x20 PUSH1 0x0 KECCAK256 SWAP1 PUSH1 0x1F ADD PUSH1 0x20 SWAP1 DIV DUP2 ADD SWAP3 DUP3 PUSH3 0x248 JUMPI PUSH1 0x0 DUP6 SSTORE PUSH3 0x294 JUMP JUMPDEST DUP3 PUSH1 0x1F LT PUSH3 0x263 JUMPI DUP1 MLOAD PUSH1 0xFF NOT AND DUP4 DUP1 ADD OR DUP6 SSTORE PUSH3 0x294 JUMP JUMPDEST DUP3 DUP1 ADD PUSH1 0x1 ADD DUP6 SSTORE DUP3 ISZERO PUSH3 0x294 JUMPI SWAP2 DUP3 ADD JUMPDEST DUP3 DUP2 GT ISZERO PUSH3 0x293 JUMPI DUP3 MLOAD DUP3 SSTORE SWAP2 PUSH1 0x20 ADD SWAP2 SWAP1 PUSH1 0x1 ADD SWAP1 PUSH3 0x276 JUMP JUMPDEST JUMPDEST POP SWAP1 POP PUSH3 0x2A3 SWAP2 SWAP1 PUSH3 0x2A7 JUMP JUMPDEST POP SWAP1 JUMP JUMPDEST JUMPDEST DUP1 DUP3 GT ISZERO PUSH3 0x2C2 JUMPI PUSH1 0x0 DUP2 PUSH1 0x0 SWAP1 SSTORE POP PUSH1 0x1 ADD PUSH3 0x2A8 JUMP JUMPDEST POP SWAP1 JUMP JUMPDEST PUSH1 0x0 PUSH3 0x2DD PUSH3 0x2D7 DUP5 PUSH3 0x5DD JUMP JUMPDEST PUSH3 0x5B4 JUMP JUMPDEST SWAP1 POP DUP1 DUP4 DUP3 MSTORE PUSH1 0x20 DUP3 ADD SWAP1 POP DUP3 DUP6 PUSH1 0x20 DUP7 MUL DUP3 ADD GT ISZERO PUSH3 0x303 JUMPI PUSH3 0x302 PUSH3 0x8D3 JUMP JUMPDEST JUMPDEST PUSH1 0x0 JUMPDEST DUP6 DUP2 LT ISZERO PUSH3 0x358 JUMPI DUP2 MLOAD PUSH8 0xFFFFFFFFFFFFFFFF DUP2 GT ISZERO PUSH3 0x32D JUMPI PUSH3 0x32C PUSH3 0x8CE JUMP JUMPDEST JUMPDEST DUP1 DUP7 ADD PUSH3 0x33C DUP10 DUP3 PUSH3 0x3F7 JUMP JUMPDEST DUP6 MSTORE PUSH1 0x20 DUP6 ADD SWAP5 POP PUSH1 0x20 DUP5 ADD SWAP4 POP POP POP PUSH1 0x1 DUP2 ADD SWAP1 POP PUSH3 0x306 JUMP JUMPDEST POP POP POP SWAP4 SWAP3 POP POP POP JUMP JUMPDEST PUSH1 0x0 PUSH3 0x379 PUSH3 0x373 DUP5 PUSH3 0x60C JUMP JUMPDEST PUSH3 0x5B4 JUMP JUMPDEST SWAP1 POP DUP3 DUP2 MSTORE PUSH1 0x20 DUP2 ADD DUP5 DUP5 DUP5 ADD GT ISZERO PUSH3 0x398 JUMPI PUSH3 0x397 PUSH3 0x8D8 JUMP JUMPDEST JUMPDEST PUSH3 0x3A5 DUP5 DUP3 DUP6 PUSH3 0x6F3 JUMP JUMPDEST POP SWAP4 SWAP3 POP POP POP JUMP JUMPDEST PUSH1 0x0 DUP2 MLOAD SWAP1 POP PUSH3 0x3BE DUP2 PUSH3 0x921 JUMP JUMPDEST SWAP3 SWAP2 POP POP JUMP JUMPDEST PUSH1 0x0 DUP3 PUSH1 0x1F DUP4 ADD SLT PUSH3 0x3DC JUMPI PUSH3 0x3DB PUSH3 0x8CE JUMP JUMPDEST JUMPDEST DUP2 MLOAD PUSH3 0x3EE DUP5 DUP3 PUSH1 0x20 DUP7 ADD PUSH3 0x2C6 JUMP JUMPDEST SWAP2 POP POP SWAP3 SWAP2 POP POP JUMP JUMPDEST PUSH1 0x0 DUP3 PUSH1 0x1F DUP4 ADD SLT PUSH3 0x40F JUMPI PUSH3 0x40E PUSH3 0x8CE JUMP JUMPDEST JUMPDEST DUP2 MLOAD PUSH3 0x421 DUP5 DUP3 PUSH1 0x20 DUP7 ADD PUSH3 0x362 JUMP JUMPDEST SWAP2 POP POP SWAP3 SWAP2 POP POP JUMP JUMPDEST PUSH1 0x0 DUP2 MLOAD SWAP1 POP PUSH3 0x43B DUP2 PUSH3 0x93B JUMP JUMPDEST SWAP3 SWAP2 POP POP JUMP JUMPDEST PUSH1 0x0 DUP1 PUSH1 0x0 DUP1 PUSH1 0x0 PUSH1 0xA0 DUP7 DUP9 SUB SLT ISZERO PUSH3 0x460 JUMPI PUSH3 0x45F PUSH3 0x8E2 JUMP JUMPDEST JUMPDEST PUSH1 0x0 PUSH3 0x470 DUP9 DUP3 DUP10 ADD PUSH3 0x3AD JUMP JUMPDEST SWAP6 POP POP PUSH1 0x20 DUP7 ADD MLOAD PUSH8 0xFFFFFFFFFFFFFFFF DUP2 GT ISZERO PUSH3 0x494 JUMPI PUSH3 0x493 PUSH3 0x8DD JUMP JUMPDEST JUMPDEST PUSH3 0x4A2 DUP9 DUP3 DUP10 ADD PUSH3 0x3F7 JUMP JUMPDEST SWAP5 POP POP PUSH1 0x40 PUSH3 0x4B5 DUP9 DUP3 DUP10 ADD PUSH3 0x42A JUMP JUMPDEST SWAP4 POP POP PUSH1 0x60 DUP7 ADD MLOAD PUSH8 0xFFFFFFFFFFFFFFFF DUP2 GT ISZERO PUSH3 0x4D9 JUMPI PUSH3 0x4D8 PUSH3 0x8DD JUMP JUMPDEST JUMPDEST PUSH3 0x4E7 DUP9 DUP3 DUP10 ADD PUSH3 0x3C4 JUMP JUMPDEST SWAP3 POP POP PUSH1 0x80 DUP7 ADD MLOAD PUSH8 0xFFFFFFFFFFFFFFFF DUP2 GT ISZERO PUSH3 0x50B JUMPI PUSH3 0x50A PUSH3 0x8DD JUMP JUMPDEST JUMPDEST PUSH3 0x519 DUP9 DUP3 DUP10 ADD PUSH3 0x3F7 JUMP JUMPDEST SWAP2 POP POP SWAP3 SWAP6 POP SWAP3 SWAP6 SWAP1 SWAP4 POP JUMP JUMPDEST PUSH1 0x0 PUSH3 0x533 DUP3 PUSH3 0x642 JUMP JUMPDEST PUSH3 0x53F DUP2 DUP6 PUSH3 0x64D JUMP JUMPDEST SWAP4 POP PUSH3 0x551 DUP2 DUP6 PUSH1 0x20 DUP7 ADD PUSH3 0x6F3 JUMP JUMPDEST DUP1 DUP5 ADD SWAP2 POP POP SWAP3 SWAP2 POP POP JUMP JUMPDEST PUSH1 0x0 PUSH3 0x56C PUSH1 0x6 DUP4 PUSH3 0x64D JUMP JUMPDEST SWAP2 POP PUSH3 0x579 DUP3 PUSH3 0x8F8 JUMP JUMPDEST PUSH1 0x6 DUP3 ADD SWAP1 POP SWAP2 SWAP1 POP JUMP JUMPDEST PUSH1 0x0 PUSH3 0x592 DUP3 DUP5 PUSH3 0x526 JUMP JUMPDEST SWAP2 POP DUP2 SWAP1 POP SWAP3 SWAP2 POP POP JUMP JUMPDEST PUSH1 0x0 PUSH3 0x5AA DUP3 PUSH3 0x55D JUMP JUMPDEST SWAP2 POP DUP2 SWAP1 POP SWAP2 SWAP1 POP JUMP JUMPDEST PUSH1 0x0 PUSH3 0x5C0 PUSH3 0x5D3 JUMP JUMPDEST SWAP1 POP PUSH3 0x5CE DUP3 DUP3 PUSH3 0x75F JUMP JUMPDEST SWAP2 SWAP1 POP JUMP JUMPDEST PUSH1 0x0 PUSH1 0x40 MLOAD SWAP1 POP SWAP1 JUMP JUMPDEST PUSH1 0x0 PUSH8 0xFFFFFFFFFFFFFFFF DUP3 GT ISZERO PUSH3 0x5FB JUMPI PUSH3 0x5FA PUSH3 0x89F JUMP JUMPDEST JUMPDEST PUSH1 0x20 DUP3 MUL SWAP1 POP PUSH1 0x20 DUP2 ADD SWAP1 POP SWAP2 SWAP1 POP JUMP JUMPDEST PUSH1 0x0 PUSH8 0xFFFFFFFFFFFFFFFF DUP3 GT ISZERO PUSH3 0x62A JUMPI PUSH3 0x629 PUSH3 0x89F JUMP JUMPDEST JUMPDEST PUSH3 0x635 DUP3 PUSH3 0x8E7 JUMP JUMPDEST SWAP1 POP PUSH1 0x20 DUP2 ADD SWAP1 POP SWAP2 SWAP1 POP JUMP JUMPDEST PUSH1 0x0 DUP2 MLOAD SWAP1 POP SWAP2 SWAP1 POP JUMP JUMPDEST PUSH1 0x0 DUP2 SWAP1 POP SWAP3 SWAP2 POP POP JUMP JUMPDEST PUSH1 0x0 PUSH3 0x665 DUP3 PUSH3 0x6E9 JUMP JUMPDEST SWAP2 POP PUSH3 0x672 DUP4 PUSH3 0x6E9 JUMP JUMPDEST SWAP3 POP DUP3 PUSH32 0xFFFFFFFFFFFFFFFFFFFFFFFFFFFFFFFFFFFFFFFFFFFFFFFFFFFFFFFFFFFFFFFF SUB DUP3 GT ISZERO PUSH3 0x6AA JUMPI PUSH3 0x6A9 PUSH3 0x7E3 JUMP JUMPDEST JUMPDEST DUP3 DUP3 ADD SWAP1 POP SWAP3 SWAP2 POP POP JUMP JUMPDEST PUSH1 0x0 PUSH3 0x6C2 DUP3 PUSH3 0x6C9 JUMP JUMPDEST SWAP1 POP SWAP2 SWAP1 POP JUMP JUMPDEST PUSH1 0x0 PUSH20 0xFFFFFFFFFFFFFFFFFFFFFFFFFFFFFFFFFFFFFFFF DUP3 AND SWAP1 POP SWAP2 SWAP1 POP JUMP JUMPDEST PUSH1 0x0 DUP2 SWAP1 POP SWAP2 SWAP1 POP JUMP JUMPDEST PUSH1 0x0 JUMPDEST DUP4 DUP2 LT ISZERO PUSH3 0x713 JUMPI DUP1 DUP3 ADD MLOAD DUP2 DUP5 ADD MSTORE PUSH1 0x20 DUP2 ADD SWAP1 POP PUSH3 0x6F6 JUMP JUMPDEST DUP4 DUP2 GT ISZERO PUSH3 0x723 JUMPI PUSH1 0x0 DUP5 DUP5 ADD MSTORE JUMPDEST POP POP POP POP JUMP JUMPDEST PUSH1 0x0 PUSH1 0x2 DUP3 DIV SWAP1 POP PUSH1 0x1 DUP3 AND DUP1 PUSH3 0x742 JUMPI PUSH1 0x7F DUP3 AND SWAP2 POP JUMPDEST PUSH1 0x20 DUP3 LT DUP2 EQ ISZERO PUSH3 0x759 JUMPI PUSH3 0x758 PUSH3 0x841 JUMP JUMPDEST JUMPDEST POP SWAP2 SWAP1 POP JUMP JUMPDEST PUSH3 0x76A DUP3 PUSH3 0x8E7 JUMP JUMPDEST DUP2 ADD DUP2 DUP2 LT PUSH8 0xFFFFFFFFFFFFFFFF DUP3 GT OR ISZERO PUSH3 0x78C JUMPI PUSH3 0x78B PUSH3 0x89F JUMP JUMPDEST JUMPDEST DUP1 PUSH1 0x40 MSTORE POP POP POP JUMP JUMPDEST PUSH1 0x0 PUSH3 0x7A2 DUP3 PUSH3 0x6E9 JUMP JUMPDEST SWAP2 POP PUSH32 0xFFFFFFFFFFFFFFFFFFFFFFFFFFFFFFFFFFFFFFFFFFFFFFFFFFFFFFFFFFFFFFFF DUP3 EQ ISZERO PUSH3 0x7D8 JUMPI PUSH3 0x7D7 PUSH3 0x7E3 JUMP JUMPDEST JUMPDEST PUSH1 0x1 DUP3 ADD SWAP1 POP SWAP2 SWAP1 POP JUMP JUMPDEST PUSH32 0x4E487B7100000000000000000000000000000000000000000000000000000000 PUSH1 0x0 MSTORE PUSH1 0x11 PUSH1 0x4 MSTORE PUSH1 0x24 PUSH1 0x0 REVERT JUMPDEST PUSH32 0x4E487B7100000000000000000000000000000000000000000000000000000000 PUSH1 0x0 MSTORE PUSH1 0x21 PUSH1 0x4 MSTORE PUSH1 0x24 PUSH1 0x0 REVERT JUMPDEST PUSH32 0x4E487B7100000000000000000000000000000000000000000000000000000000 PUSH1 0x0 MSTORE PUSH1 0x22 PUSH1 0x4 MSTORE PUSH1 0x24 PUSH1 0x0 REVERT JUMPDEST PUSH32 0x4E487B7100000000000000000000000000000000000000000000000000000000 PUSH1 0x0 MSTORE PUSH1 0x32 PUSH1 0x4 MSTORE PUSH1 0x24 PUSH1 0x0 REVERT JUMPDEST PUSH32 0x4E487B7100000000000000000000000000000000000000000000000000000000 PUSH1 0x0 MSTORE PUSH1 0x41 PUSH1 0x4 MSTORE PUSH1 0x24 PUSH1 0x0 REVERT JUMPDEST PUSH1 0x0 DUP1 REVERT JUMPDEST PUSH1 0x0 DUP1 REVERT JUMPDEST PUSH1 0x0 DUP1 REVERT JUMPDEST PUSH1 0x0 DUP1 REVERT JUMPDEST PUSH1 0x0 DUP1 REVERT JUMPDEST PUSH1 0x0 PUSH1 0x1F NOT PUSH1 0x1F DUP4 ADD AND SWAP1 POP SWAP2 SWAP1 POP JUMP JUMPDEST PUSH32 0x5075626C69630000000000000000000000000000000000000000000000000000 PUSH1 0x0 DUP3 ADD MSTORE POP JUMP JUMPDEST PUSH3 0x92C DUP2 PUSH3 0x6B5 JUMP JUMPDEST DUP2 EQ PUSH3 0x938 JUMPI PUSH1 0x0 DUP1 REVERT JUMPDEST POP JUMP JUMPDEST PUSH3 0x946 DUP2 PUSH3 0x6E9 JUMP JUMPDEST DUP2 EQ PUSH3 0x952 JUMPI PUSH1 0x0 DUP1 REVERT JUMPDEST POP JUMP JUMPDEST PUSH2 0x10A4 DUP1 PUSH3 0x965 PUSH1 0x0 CODECOPY PUSH1 0x0 RETURN INVALID PUSH1 0x80 PUSH1 0x40 MSTORE CALLVALUE DUP1 ISZERO PUSH2 0x10 JUMPI PUSH1 0x0 DUP1 REVERT JUMPDEST POP PUSH1 0x4 CALLDATASIZE LT PUSH2 0xA9 JUMPI PUSH1 0x0 CALLDATALOAD PUSH1 0xE0 SHR DUP1 PUSH4 0x8F58D353 GT PUSH2 0x71 JUMPI DUP1 PUSH4 0x8F58D353 EQ PUSH2 0x156 JUMPI DUP1 PUSH4 0xB73B396B EQ PUSH2 0x174 JUMPI DUP1 PUSH4 0xBA0C45C9 EQ PUSH2 0x17E JUMPI DUP1 PUSH4 0xC04752D8 EQ PUSH2 0x19A JUMPI DUP1 PUSH4 0xC308B0DC EQ PUSH2 0x1B6 JUMPI DUP1 PUSH4 0xCC1E2CB0 EQ PUSH2 0x1D2 JUMPI PUSH2 0xA9 JUMP JUMPDEST DUP1 PUSH4 0x83C6323 EQ PUSH2 0xAE JUMPI DUP1 PUSH4 0x18769765 EQ PUSH2 0xCC JUMPI DUP1 PUSH4 0x237637A8 EQ PUSH2 0xEA JUMPI DUP1 PUSH4 0x48CD4CB1 EQ PUSH2 0x108 JUMPI DUP1 PUSH4 0x498CC70D EQ PUSH2 0x126 JUMPI JUMPDEST PUSH1 0x0 DUP1 REVERT JUMPDEST PUSH2 0xB6 PUSH2 0x1F0 JUMP JUMPDEST PUSH1 0x40 MLOAD PUSH2 0xC3 SWAP2 SWAP1 PUSH2 0xC42 JUMP JUMPDEST PUSH1 0x40 MLOAD DUP1 SWAP2 SUB SWAP1 RETURN JUMPDEST PUSH2 0xD4 PUSH2 0x1F6 JUMP JUMPDEST PUSH1 0x40 MLOAD PUSH2 0xE1 SWAP2 SWAP1 PUSH2 0xB80 JUMP JUMPDEST PUSH1 0x40 MLOAD DUP1 SWAP2 SUB SWAP1 RETURN JUMPDEST PUSH2 0xF2 PUSH2 0x284 JUMP JUMPDEST PUSH1 0x40 MLOAD PUSH2 0xFF SWAP2 SWAP1 PUSH2 0xB65 JUMP JUMPDEST PUSH1 0x40 MLOAD DUP1 SWAP2 SUB SWAP1 RETURN JUMPDEST PUSH2 0x110 PUSH2 0x297 JUMP JUMPDEST PUSH1 0x40 MLOAD PUSH2 0x11D SWAP2 SWAP1 PUSH2 0xC42 JUMP JUMPDEST PUSH1 0x40 MLOAD DUP1 SWAP2 SUB SWAP1 RETURN JUMPDEST PUSH2 0x140 PUSH1 0x4 DUP1 CALLDATASIZE SUB DUP2 ADD SWAP1 PUSH2 0x13B SWAP2 SWAP1 PUSH2 0x94D JUMP JUMPDEST PUSH2 0x29D JUMP JUMPDEST PUSH1 0x40 MLOAD PUSH2 0x14D SWAP2 SWAP1 PUSH2 0xC42 JUMP JUMPDEST PUSH1 0x40 MLOAD DUP1 SWAP2 SUB SWAP1 RETURN JUMPDEST PUSH2 0x15E PUSH2 0x3B5 JUMP JUMPDEST PUSH1 0x40 MLOAD PUSH2 0x16B SWAP2 SWAP1 PUSH2 0xB4A JUMP JUMPDEST PUSH1 0x40 MLOAD DUP1 SWAP2 SUB SWAP1 RETURN JUMPDEST PUSH2 0x17C PUSH2 0x3C8 JUMP JUMPDEST STOP JUMPDEST PUSH2 0x198 PUSH1 0x4 DUP1 CALLDATASIZE SUB DUP2 ADD SWAP1 PUSH2 0x193 SWAP2 SWAP1 PUSH2 0x996 JUMP JUMPDEST PUSH2 0x4C7 JUMP JUMPDEST STOP JUMPDEST PUSH2 0x1B4 PUSH1 0x4 DUP1 CALLDATASIZE SUB DUP2 ADD SWAP1 PUSH2 0x1AF SWAP2 SWAP1 PUSH2 0x94D JUMP JUMPDEST PUSH2 0x56C JUMP JUMPDEST STOP JUMPDEST PUSH2 0x1D0 PUSH1 0x4 DUP1 CALLDATASIZE SUB DUP2 ADD SWAP1 PUSH2 0x1CB SWAP2 SWAP1 PUSH2 0x94D JUMP JUMPDEST PUSH2 0x759 JUMP JUMPDEST STOP JUMPDEST PUSH2 0x1DA PUSH2 0x801 JUMP JUMPDEST PUSH1 0x40 MLOAD PUSH2 0x1E7 SWAP2 SWAP1 PUSH2 0xB2F JUMP JUMPDEST PUSH1 0x40 MLOAD DUP1 SWAP2 SUB SWAP1 RETURN JUMPDEST PUSH1 0x3 SLOAD DUP2 JUMP JUMPDEST PUSH1 0x1 DUP1 SLOAD PUSH2 0x203 SWAP1 PUSH2 0xDF8 JUMP JUMPDEST DUP1 PUSH1 0x1F ADD PUSH1 0x20 DUP1 SWAP2 DIV MUL PUSH1 0x20 ADD PUSH1 0x40 MLOAD SWAP1 DUP2 ADD PUSH1 0x40 MSTORE DUP1 SWAP3 SWAP2 SWAP1 DUP2 DUP2 MSTORE PUSH1 0x20 ADD DUP3 DUP1 SLOAD PUSH2 0x22F SWAP1 PUSH2 0xDF8 JUMP JUMPDEST DUP1 ISZERO PUSH2 0x27C JUMPI DUP1 PUSH1 0x1F LT PUSH2 0x251 JUMPI PUSH2 0x100 DUP1 DUP4 SLOAD DIV MUL DUP4 MSTORE SWAP2 PUSH1 0x20 ADD SWAP2 PUSH2 0x27C JUMP JUMPDEST DUP3 ADD SWAP2 SWAP1 PUSH1 0x0 MSTORE PUSH1 0x20 PUSH1 0x0 KECCAK256 SWAP1 JUMPDEST DUP2 SLOAD DUP2 MSTORE SWAP1 PUSH1 0x1 ADD SWAP1 PUSH1 0x20 ADD DUP1 DUP4 GT PUSH2 0x25F JUMPI DUP3 SWAP1 SUB PUSH1 0x1F AND DUP3 ADD SWAP2 JUMPDEST POP POP POP POP POP DUP2 JUMP JUMPDEST PUSH1 0x4 PUSH1 0x0 SWAP1 SLOAD SWAP1 PUSH2 0x100 EXP SWAP1 DIV PUSH1 0xFF AND DUP2 JUMP JUMPDEST PUSH1 0x2 SLOAD DUP2 JUMP JUMPDEST PUSH1 0x0 PUSH1 0x1 DUP1 DUP2 GT ISZERO PUSH2 0x2B2 JUMPI PUSH2 0x2B1 PUSH2 0xE8A JUMP JUMPDEST JUMPDEST PUSH1 0x4 PUSH1 0x0 SWAP1 SLOAD SWAP1 PUSH2 0x100 EXP SWAP1 DIV PUSH1 0xFF AND PUSH1 0x1 DUP2 GT ISZERO PUSH2 0x2D4 JUMPI PUSH2 0x2D3 PUSH2 0xE8A JUMP JUMPDEST JUMPDEST EQ ISZERO PUSH2 0x38E JUMPI CALLER PUSH20 0xFFFFFFFFFFFFFFFFFFFFFFFFFFFFFFFFFFFFFFFF AND PUSH1 0x0 DUP1 SLOAD SWAP1 PUSH2 0x100 EXP SWAP1 DIV PUSH20 0xFFFFFFFFFFFFFFFFFFFFFFFFFFFFFFFFFFFFFFFF AND PUSH20 0xFFFFFFFFFFFFFFFFFFFFFFFFFFFFFFFFFFFFFFFF AND EQ PUSH2 0x368 JUMPI PUSH1 0x40 MLOAD PUSH32 0x8C379A000000000000000000000000000000000000000000000000000000000 DUP2 MSTORE PUSH1 0x4 ADD PUSH2 0x35F SWAP1 PUSH2 0xBC2 JUMP JUMPDEST PUSH1 0x40 MLOAD DUP1 SWAP2 SUB SWAP1 REVERT JUMPDEST PUSH1 0x6 DUP3 PUSH1 0x40 MLOAD PUSH2 0x378 SWAP2 SWAP1 PUSH2 0xB18 JUMP JUMPDEST SWAP1 DUP2 MSTORE PUSH1 0x20 ADD PUSH1 0x40 MLOAD DUP1 SWAP2 SUB SWAP1 KECCAK256 SLOAD SWAP1 POP PUSH2 0x3B0 JUMP JUMPDEST PUSH1 0x6 DUP3 PUSH1 0x40 MLOAD PUSH2 0x39E SWAP2 SWAP1 PUSH2 0xB18 JUMP JUMPDEST SWAP1 DUP2 MSTORE PUSH1 0x20 ADD PUSH1 0x40 MLOAD DUP1 SWAP2 SUB SWAP1 KECCAK256 SLOAD SWAP1 POP JUMPDEST SWAP2 SWAP1 POP JUMP JUMPDEST PUSH1 0x4 PUSH1 0x1 SWAP1 SLOAD SWAP1 PUSH2 0x100 EXP SWAP1 DIV PUSH1 0xFF AND DUP2 JUMP JUMPDEST PUSH1 0x3 SLOAD NUMBER LT PUSH2 0x40C JUMPI PUSH1 0x40 MLOAD PUSH32 0x8C379A000000000000000000000000000000000000000000000000000000000 DUP2 MSTORE PUSH1 0x4 ADD PUSH2 0x403 SWAP1 PUSH2 0xBA2 JUMP JUMPDEST PUSH1 0x40 MLOAD DUP1 SWAP2 SUB SWAP1 REVERT JUMPDEST CALLER PUSH20 0xFFFFFFFFFFFFFFFFFFFFFFFFFFFFFFFFFFFFFFFF AND PUSH1 0x0 DUP1 SLOAD SWAP1 PUSH2 0x100 EXP SWAP1 DIV PUSH20 0xFFFFFFFFFFFFFFFFFFFFFFFFFFFFFFFFFFFFFFFF AND PUSH20 0xFFFFFFFFFFFFFFFFFFFFFFFFFFFFFFFFFFFFFFFF AND EQ PUSH2 0x49A JUMPI PUSH1 0x40 MLOAD PUSH32 0x8C379A000000000000000000000000000000000000000000000000000000000 DUP2 MSTORE PUSH1 0x4 ADD PUSH2 0x491 SWAP1 PUSH2 0xC22 JUMP JUMPDEST PUSH1 0x40 MLOAD DUP1 SWAP2 SUB SWAP1 REVERT JUMPDEST PUSH1 0x2 PUSH1 0x4 PUSH1 0x1 PUSH2 0x100 EXP DUP2 SLOAD DUP2 PUSH1 0xFF MUL NOT AND SWAP1 DUP4 PUSH1 0x3 DUP2 GT ISZERO PUSH2 0x4C0 JUMPI PUSH2 0x4BF PUSH2 0xE8A JUMP JUMPDEST JUMPDEST MUL OR SWAP1 SSTORE POP JUMP JUMPDEST CALLER PUSH20 0xFFFFFFFFFFFFFFFFFFFFFFFFFFFFFFFFFFFFFFFF AND PUSH1 0x0 DUP1 SLOAD SWAP1 PUSH2 0x100 EXP SWAP1 DIV PUSH20 0xFFFFFFFFFFFFFFFFFFFFFFFFFFFFFFFFFFFFFFFF AND PUSH20 0xFFFFFFFFFFFFFFFFFFFFFFFFFFFFFFFFFFFFFFFF AND EQ PUSH2 0x555 JUMPI PUSH1 0x40 MLOAD PUSH32 0x8C379A000000000000000000000000000000000000000000000000000000000 DUP2 MSTORE PUSH1 0x4 ADD PUSH2 0x54C SWAP1 PUSH2 0xC22 JUMP JUMPDEST PUSH1 0x40 MLOAD DUP1 SWAP2 SUB SWAP1 REVERT JUMPDEST DUP1 PUSH1 0x3 SLOAD PUSH2 0x563 SWAP2 SWAP1 PUSH2 0xCDA JUMP JUMPDEST PUSH1 0x3 DUP2 SWAP1 SSTORE POP POP JUMP JUMPDEST PUSH1 0x3 SLOAD NUMBER LT PUSH2 0x5B0 JUMPI PUSH1 0x40 MLOAD PUSH32 0x8C379A000000000000000000000000000000000000000000000000000000000 DUP2 MSTORE PUSH1 0x4 ADD PUSH2 0x5A7 SWAP1 PUSH2 0xBA2 JUMP JUMPDEST PUSH1 0x40 MLOAD DUP1 SWAP2 SUB SWAP1 REVERT JUMPDEST PUSH1 0x2 SLOAD NUMBER GT PUSH2 0x5F4 JUMPI PUSH1 0x40 MLOAD PUSH32 0x8C379A000000000000000000000000000000000000000000000000000000000 DUP2 MSTORE PUSH1 0x4 ADD PUSH2 0x5EB SWAP1 PUSH2 0xC02 JUMP JUMPDEST PUSH1 0x40 MLOAD DUP1 SWAP2 SUB SWAP1 REVERT JUMPDEST PUSH1 0x2 PUSH1 0x3 DUP2 GT ISZERO PUSH2 0x608 JUMPI PUSH2 0x607 PUSH2 0xE8A JUMP JUMPDEST JUMPDEST PUSH1 0x4 PUSH1 0x1 SWAP1 SLOAD SWAP1 PUSH2 0x100 EXP SWAP1 DIV PUSH1 0xFF AND PUSH1 0x3 DUP2 GT ISZERO PUSH2 0x62A JUMPI PUSH2 0x629 PUSH2 0xE8A JUMP JUMPDEST JUMPDEST EQ ISZERO PUSH2 0x635 JUMPI PUSH1 0x0 DUP1 REVERT JUMPDEST PUSH1 0x0 CALLER SWAP1 POP PUSH1 0x5 PUSH1 0x0 DUP3 PUSH20 0xFFFFFFFFFFFFFFFFFFFFFFFFFFFFFFFFFFFFFFFF AND PUSH20 0xFFFFFFFFFFFFFFFFFFFFFFFFFFFFFFFFFFFFFFFF AND DUP2 MSTORE PUSH1 0x20 ADD SWAP1 DUP2 MSTORE PUSH1 0x20 ADD PUSH1 0x0 KECCAK256 PUSH1 0x0 SWAP1 SLOAD SWAP1 PUSH2 0x100 EXP SWAP1 DIV PUSH1 0xFF AND ISZERO PUSH2 0x6C7 JUMPI PUSH1 0x40 MLOAD PUSH32 0x8C379A000000000000000000000000000000000000000000000000000000000 DUP2 MSTORE PUSH1 0x4 ADD PUSH2 0x6BE SWAP1 PUSH2 0xBE2 JUMP JUMPDEST PUSH1 0x40 MLOAD DUP1 SWAP2 SUB SWAP1 REVERT JUMPDEST PUSH1 0x1 PUSH1 0x5 PUSH1 0x0 DUP4 PUSH20 0xFFFFFFFFFFFFFFFFFFFFFFFFFFFFFFFFFFFFFFFF AND PUSH20 0xFFFFFFFFFFFFFFFFFFFFFFFFFFFFFFFFFFFFFFFF AND DUP2 MSTORE PUSH1 0x20 ADD SWAP1 DUP2 MSTORE PUSH1 0x20 ADD PUSH1 0x0 KECCAK256 PUSH1 0x0 PUSH2 0x100 EXP DUP2 SLOAD DUP2 PUSH1 0xFF MUL NOT AND SWAP1 DUP4 ISZERO ISZERO MUL OR SWAP1 SSTORE POP PUSH1 0x1 PUSH1 0x6 DUP4 PUSH1 0x40 MLOAD PUSH2 0x731 SWAP2 SWAP1 PUSH2 0xB18 JUMP JUMPDEST SWAP1 DUP2 MSTORE PUSH1 0x20 ADD PUSH1 0x40 MLOAD DUP1 SWAP2 SUB SWAP1 KECCAK256 PUSH1 0x0 DUP3 DUP3 SLOAD PUSH2 0x74E SWAP2 SWAP1 PUSH2 0xCDA JUMP JUMPDEST SWAP3 POP POP DUP2 SWAP1 SSTORE POP POP POP JUMP JUMPDEST CALLER PUSH20 0xFFFFFFFFFFFFFFFFFFFFFFFFFFFFFFFFFFFFFFFF AND PUSH1 0x0 DUP1 SLOAD SWAP1 PUSH2 0x100 EXP SWAP1 DIV PUSH20 0xFFFFFFFFFFFFFFFFFFFFFFFFFFFFFFFFFFFFFFFF AND PUSH20 0xFFFFFFFFFFFFFFFFFFFFFFFFFFFFFFFFFFFFFFFF AND EQ PUSH2 0x7E7 JUMPI PUSH1 0x40 MLOAD PUSH32 0x8C379A000000000000000000000000000000000000000000000000000000000 DUP2 MSTORE PUSH1 0x4 ADD PUSH2 0x7DE SWAP1 PUSH2 0xC22 JUMP JUMPDEST PUSH1 0x40 MLOAD DUP1 SWAP2 SUB SWAP1 REVERT JUMPDEST DUP1 PUSH1 0x1 SWAP1 DUP1 MLOAD SWAP1 PUSH1 0x20 ADD SWAP1 PUSH2 0x7FD SWAP3 SWAP2 SWAP1 PUSH2 0x825 JUMP JUMPDEST POP POP JUMP JUMPDEST PUSH1 0x0 DUP1 SLOAD SWAP1 PUSH2 0x100 EXP SWAP1 DIV PUSH20 0xFFFFFFFFFFFFFFFFFFFFFFFFFFFFFFFFFFFFFFFF AND DUP2 JUMP JUMPDEST DUP3 DUP1 SLOAD PUSH2 0x831 SWAP1 PUSH2 0xDF8 JUMP JUMPDEST SWAP1 PUSH1 0x0 MSTORE PUSH1 0x20 PUSH1 0x0 KECCAK256 SWAP1 PUSH1 0x1F ADD PUSH1 0x20 SWAP1 DIV DUP2 ADD SWAP3 DUP3 PUSH2 0x853 JUMPI PUSH1 0x0 DUP6 SSTORE PUSH2 0x89A JUMP JUMPDEST DUP3 PUSH1 0x1F LT PUSH2 0x86C JUMPI DUP1 MLOAD PUSH1 0xFF NOT AND DUP4 DUP1 ADD OR DUP6 SSTORE PUSH2 0x89A JUMP JUMPDEST DUP3 DUP1 ADD PUSH1 0x1 ADD DUP6 SSTORE DUP3 ISZERO PUSH2 0x89A JUMPI SWAP2 DUP3 ADD JUMPDEST DUP3 DUP2 GT ISZERO PUSH2 0x899 JUMPI DUP3 MLOAD DUP3 SSTORE SWAP2 PUSH1 0x20 ADD SWAP2 SWAP1 PUSH1 0x1 ADD SWAP1 PUSH2 0x87E JUMP JUMPDEST JUMPDEST POP SWAP1 POP PUSH2 0x8A7 SWAP2 SWAP1 PUSH2 0x8AB JUMP JUMPDEST POP SWAP1 JUMP JUMPDEST JUMPDEST DUP1 DUP3 GT ISZERO PUSH2 0x8C4 JUMPI PUSH1 0x0 DUP2 PUSH1 0x0 SWAP1 SSTORE POP PUSH1 0x1 ADD PUSH2 0x8AC JUMP JUMPDEST POP SWAP1 JUMP JUMPDEST PUSH1 0x0 PUSH2 0x8DB PUSH2 0x8D6 DUP5 PUSH2 0xC82 JUMP JUMPDEST PUSH2 0xC5D JUMP JUMPDEST SWAP1 POP DUP3 DUP2 MSTORE PUSH1 0x20 DUP2 ADD DUP5 DUP5 DUP5 ADD GT ISZERO PUSH2 0x8F7 JUMPI PUSH2 0x8F6 PUSH2 0xF1C JUMP JUMPDEST JUMPDEST PUSH2 0x902 DUP5 DUP3 DUP6 PUSH2 0xDB6 JUMP JUMPDEST POP SWAP4 SWAP3 POP POP POP JUMP JUMPDEST PUSH1 0x0 DUP3 PUSH1 0x1F DUP4 ADD SLT PUSH2 0x91F JUMPI PUSH2 0x91E PUSH2 0xF17 JUMP JUMPDEST JUMPDEST DUP2 CALLDATALOAD PUSH2 0x92F DUP5 DUP3 PUSH1 0x20 DUP7 ADD PUSH2 0x8C8 JUMP JUMPDEST SWAP2 POP POP SWAP3 SWAP2 POP POP JUMP JUMPDEST PUSH1 0x0 DUP2 CALLDATALOAD SWAP1 POP PUSH2 0x947 DUP2 PUSH2 0x1057 JUMP JUMPDEST SWAP3 SWAP2 POP POP JUMP JUMPDEST PUSH1 0x0 PUSH1 0x20 DUP3 DUP5 SUB SLT ISZERO PUSH2 0x963 JUMPI PUSH2 0x962 PUSH2 0xF26 JUMP JUMPDEST JUMPDEST PUSH1 0x0 DUP3 ADD CALLDATALOAD PUSH8 0xFFFFFFFFFFFFFFFF DUP2 GT ISZERO PUSH2 0x981 JUMPI PUSH2 0x980 PUSH2 0xF21 JUMP JUMPDEST JUMPDEST PUSH2 0x98D DUP5 DUP3 DUP6 ADD PUSH2 0x90A JUMP JUMPDEST SWAP2 POP POP SWAP3 SWAP2 POP POP JUMP JUMPDEST PUSH1 0x0 PUSH1 0x20 DUP3 DUP5 SUB SLT ISZERO PUSH2 0x9AC JUMPI PUSH2 0x9AB PUSH2 0xF26 JUMP JUMPDEST JUMPDEST PUSH1 0x0 PUSH2 0x9BA DUP5 DUP3 DUP6 ADD PUSH2 0x938 JUMP JUMPDEST SWAP2 POP POP SWAP3 SWAP2 POP POP JUMP JUMPDEST PUSH2 0x9CC DUP2 PUSH2 0xD30 JUMP JUMPDEST DUP3 MSTORE POP POP JUMP JUMPDEST PUSH2 0x9DB DUP2 PUSH2 0xD92 JUMP JUMPDEST DUP3 MSTORE POP POP JUMP JUMPDEST PUSH2 0x9EA DUP2 PUSH2 0xDA4 JUMP JUMPDEST DUP3 MSTORE POP POP JUMP JUMPDEST PUSH1 0x0 PUSH2 0x9FB DUP3 PUSH2 0xCB3 JUMP JUMPDEST PUSH2 0xA05 DUP2 DUP6 PUSH2 0xCBE JUMP JUMPDEST SWAP4 POP PUSH2 0xA15 DUP2 DUP6 PUSH1 0x20 DUP7 ADD PUSH2 0xDC5 JUMP JUMPDEST PUSH2 0xA1E DUP2 PUSH2 0xF2B JUMP JUMPDEST DUP5 ADD SWAP2 POP POP SWAP3 SWAP2 POP POP JUMP JUMPDEST PUSH1 0x0 PUSH2 0xA34 DUP3 PUSH2 0xCB3 JUMP JUMPDEST PUSH2 0xA3E DUP2 DUP6 PUSH2 0xCCF JUMP JUMPDEST SWAP4 POP PUSH2 0xA4E DUP2 DUP6 PUSH1 0x20 DUP7 ADD PUSH2 0xDC5 JUMP JUMPDEST DUP1 DUP5 ADD SWAP2 POP POP SWAP3 SWAP2 POP POP JUMP JUMPDEST PUSH1 0x0 PUSH2 0xA67 PUSH1 0x17 DUP4 PUSH2 0xCBE JUMP JUMPDEST SWAP2 POP PUSH2 0xA72 DUP3 PUSH2 0xF3C JUMP JUMPDEST PUSH1 0x20 DUP3 ADD SWAP1 POP SWAP2 SWAP1 POP JUMP JUMPDEST PUSH1 0x0 PUSH2 0xA8A PUSH1 0x17 DUP4 PUSH2 0xCBE JUMP JUMPDEST SWAP2 POP PUSH2 0xA95 DUP3 PUSH2 0xF65 JUMP JUMPDEST PUSH1 0x20 DUP3 ADD SWAP1 POP SWAP2 SWAP1 POP JUMP JUMPDEST PUSH1 0x0 PUSH2 0xAAD PUSH1 0x17 DUP4 PUSH2 0xCBE JUMP JUMPDEST SWAP2 POP PUSH2 0xAB8 DUP3 PUSH2 0xF8E JUMP JUMPDEST PUSH1 0x20 DUP3 ADD SWAP1 POP SWAP2 SWAP1 POP JUMP JUMPDEST PUSH1 0x0 PUSH2 0xAD0 PUSH1 0x1D DUP4 PUSH2 0xCBE JUMP JUMPDEST SWAP2 POP PUSH2 0xADB DUP3 PUSH2 0xFB7 JUMP JUMPDEST PUSH1 0x20 DUP3 ADD SWAP1 POP SWAP2 SWAP1 POP JUMP JUMPDEST PUSH1 0x0 PUSH2 0xAF3 PUSH1 0x31 DUP4 PUSH2 0xCBE JUMP JUMPDEST SWAP2 POP PUSH2 0xAFE DUP3 PUSH2 0xFE0 JUMP JUMPDEST PUSH1 0x40 DUP3 ADD SWAP1 POP SWAP2 SWAP1 POP JUMP JUMPDEST PUSH2 0xB12 DUP2 PUSH2 0xD88 JUMP JUMPDEST DUP3 MSTORE POP POP JUMP JUMPDEST PUSH1 0x0 PUSH2 0xB24 DUP3 DUP5 PUSH2 0xA29 JUMP JUMPDEST SWAP2 POP DUP2 SWAP1 POP SWAP3 SWAP2 POP POP JUMP JUMPDEST PUSH1 0x0 PUSH1 0x20 DUP3 ADD SWAP1 POP PUSH2 0xB44 PUSH1 0x0 DUP4 ADD DUP5 PUSH2 0x9C3 JUMP JUMPDEST SWAP3 SWAP2 POP POP JUMP JUMPDEST PUSH1 0x0 PUSH1 0x20 DUP3 ADD SWAP1 POP PUSH2 0xB5F PUSH1 0x0 DUP4 ADD DUP5 PUSH2 0x9D2 JUMP JUMPDEST SWAP3 SWAP2 POP POP JUMP JUMPDEST PUSH1 0x0 PUSH1 0x20 DUP3 ADD SWAP1 POP PUSH2 0xB7A PUSH1 0x0 DUP4 ADD DUP5 PUSH2 0x9E1 JUMP JUMPDEST SWAP3 SWAP2 POP POP JUMP JUMPDEST PUSH1 0x0 PUSH1 0x20 DUP3 ADD SWAP1 POP DUP2 DUP2 SUB PUSH1 0x0 DUP4 ADD MSTORE PUSH2 0xB9A DUP2 DUP5 PUSH2 0x9F0 JUMP JUMPDEST SWAP1 POP SWAP3 SWAP2 POP POP JUMP JUMPDEST PUSH1 0x0 PUSH1 0x20 DUP3 ADD SWAP1 POP DUP2 DUP2 SUB PUSH1 0x0 DUP4 ADD MSTORE PUSH2 0xBBB DUP2 PUSH2 0xA5A JUMP JUMPDEST SWAP1 POP SWAP2 SWAP1 POP JUMP JUMPDEST PUSH1 0x0 PUSH1 0x20 DUP3 ADD SWAP1 POP DUP2 DUP2 SUB PUSH1 0x0 DUP4 ADD MSTORE PUSH2 0xBDB DUP2 PUSH2 0xA7D JUMP JUMPDEST SWAP1 POP SWAP2 SWAP1 POP JUMP JUMPDEST PUSH1 0x0 PUSH1 0x20 DUP3 ADD SWAP1 POP DUP2 DUP2 SUB PUSH1 0x0 DUP4 ADD MSTORE PUSH2 0xBFB DUP2 PUSH2 0xAA0 JUMP JUMPDEST SWAP1 POP SWAP2 SWAP1 POP JUMP JUMPDEST PUSH1 0x0 PUSH1 0x20 DUP3 ADD SWAP1 POP DUP2 DUP2 SUB PUSH1 0x0 DUP4 ADD MSTORE PUSH2 0xC1B DUP2 PUSH2 0xAC3 JUMP JUMPDEST SWAP1 POP SWAP2 SWAP1 POP JUMP JUMPDEST PUSH1 0x0 PUSH1 0x20 DUP3 ADD SWAP1 POP DUP2 DUP2 SUB PUSH1 0x0 DUP4 ADD MSTORE PUSH2 0xC3B DUP2 PUSH2 0xAE6 JUMP JUMPDEST SWAP1 POP SWAP2 SWAP1 POP JUMP JUMPDEST PUSH1 0x0 PUSH1 0x20 DUP3 ADD SWAP1 POP PUSH2 0xC57 PUSH1 0x0 DUP4 ADD DUP5 PUSH2 0xB09 JUMP JUMPDEST SWAP3 SWAP2 POP POP JUMP JUMPDEST PUSH1 0x0 PUSH2 0xC67 PUSH2 0xC78 JUMP JUMPDEST SWAP1 POP PUSH2 0xC73 DUP3 DUP3 PUSH2 0xE2A JUMP JUMPDEST SWAP2 SWAP1 POP JUMP JUMPDEST PUSH1 0x0 PUSH1 0x40 MLOAD SWAP1 POP SWAP1 JUMP JUMPDEST PUSH1 0x0 PUSH8 0xFFFFFFFFFFFFFFFF DUP3 GT ISZERO PUSH2 0xC9D JUMPI PUSH2 0xC9C PUSH2 0xEE8 JUMP JUMPDEST JUMPDEST PUSH2 0xCA6 DUP3 PUSH2 0xF2B JUMP JUMPDEST SWAP1 POP PUSH1 0x20 DUP2 ADD SWAP1 POP SWAP2 SWAP1 POP JUMP JUMPDEST PUSH1 0x0 DUP2 MLOAD SWAP1 POP SWAP2 SWAP1 POP JUMP JUMPDEST PUSH1 0x0 DUP3 DUP3 MSTORE PUSH1 0x20 DUP3 ADD SWAP1 POP SWAP3 SWAP2 POP POP JUMP JUMPDEST PUSH1 0x0 DUP2 SWAP1 POP SWAP3 SWAP2 POP POP JUMP JUMPDEST PUSH1 0x0 PUSH2 0xCE5 DUP3 PUSH2 0xD88 JUMP JUMPDEST SWAP2 POP PUSH2 0xCF0 DUP4 PUSH2 0xD88 JUMP JUMPDEST SWAP3 POP DUP3 PUSH32 0xFFFFFFFFFFFFFFFFFFFFFFFFFFFFFFFFFFFFFFFFFFFFFFFFFFFFFFFFFFFFFFFF SUB DUP3 GT ISZERO PUSH2 0xD25 JUMPI PUSH2 0xD24 PUSH2 0xE5B JUMP JUMPDEST JUMPDEST DUP3 DUP3 ADD SWAP1 POP SWAP3 SWAP2 POP POP JUMP JUMPDEST PUSH1 0x0 PUSH2 0xD3B DUP3 PUSH2 0xD68 JUMP JUMPDEST SWAP1 POP SWAP2 SWAP1 POP JUMP JUMPDEST PUSH1 0x0 DUP2 SWAP1 POP PUSH2 0xD50 DUP3 PUSH2 0x102F JUMP JUMPDEST SWAP2 SWAP1 POP JUMP JUMPDEST PUSH1 0x0 DUP2 SWAP1 POP PUSH2 0xD63 DUP3 PUSH2 0x1043 JUMP JUMPDEST SWAP2 SWAP1 POP JUMP JUMPDEST PUSH1 0x0 PUSH20 0xFFFFFFFFFFFFFFFFFFFFFFFFFFFFFFFFFFFFFFFF DUP3 AND SWAP1 POP SWAP2 SWAP1 POP JUMP JUMPDEST PUSH1 0x0 DUP2 SWAP1 POP SWAP2 SWAP1 POP JUMP JUMPDEST PUSH1 0x0 PUSH2 0xD9D DUP3 PUSH2 0xD42 JUMP JUMPDEST SWAP1 POP SWAP2 SWAP1 POP JUMP JUMPDEST PUSH1 0x0 PUSH2 0xDAF DUP3 PUSH2 0xD55 JUMP JUMPDEST SWAP1 POP SWAP2 SWAP1 POP JUMP JUMPDEST DUP3 DUP2 DUP4 CALLDATACOPY PUSH1 0x0 DUP4 DUP4 ADD MSTORE POP POP POP JUMP JUMPDEST PUSH1 0x0 JUMPDEST DUP4 DUP2 LT ISZERO PUSH2 0xDE3 JUMPI DUP1 DUP3 ADD MLOAD DUP2 DUP5 ADD MSTORE PUSH1 0x20 DUP2 ADD SWAP1 POP PUSH2 0xDC8 JUMP JUMPDEST DUP4 DUP2 GT ISZERO PUSH2 0xDF2 JUMPI PUSH1 0x0 DUP5 DUP5 ADD MSTORE JUMPDEST POP POP POP POP JUMP JUMPDEST PUSH1 0x0 PUSH1 0x2 DUP3 DIV SWAP1 POP PUSH1 0x1 DUP3 AND DUP1 PUSH2 0xE10 JUMPI PUSH1 0x7F DUP3 AND SWAP2 POP JUMPDEST PUSH1 0x20 DUP3 LT DUP2 EQ ISZERO PUSH2 0xE24 JUMPI PUSH2 0xE23 PUSH2 0xEB9 JUMP JUMPDEST JUMPDEST POP SWAP2 SWAP1 POP JUMP JUMPDEST PUSH2 0xE33 DUP3 PUSH2 0xF2B JUMP JUMPDEST DUP2 ADD DUP2 DUP2 LT PUSH8 0xFFFFFFFFFFFFFFFF DUP3 GT OR ISZERO PUSH2 0xE52 JUMPI PUSH2 0xE51 PUSH2 0xEE8 JUMP JUMPDEST JUMPDEST DUP1 PUSH1 0x40 MSTORE POP POP POP JUMP JUMPDEST PUSH32 0x4E487B7100000000000000000000000000000000000000000000000000000000 PUSH1 0x0 MSTORE PUSH1 0x11 PUSH1 0x4 MSTORE PUSH1 0x24 PUSH1 0x0 REVERT JUMPDEST PUSH32 0x4E487B7100000000000000000000000000000000000000000000000000000000 PUSH1 0x0 MSTORE PUSH1 0x21 PUSH1 0x4 MSTORE PUSH1 0x24 PUSH1 0x0 REVERT JUMPDEST PUSH32 0x4E487B7100000000000000000000000000000000000000000000000000000000 PUSH1 0x0 MSTORE PUSH1 0x22 PUSH1 0x4 MSTORE PUSH1 0x24 PUSH1 0x0 REVERT JUMPDEST PUSH32 0x4E487B7100000000000000000000000000000000000000000000000000000000 PUSH1 0x0 MSTORE PUSH1 0x41 PUSH1 0x4 MSTORE PUSH1 0x24 PUSH1 0x0 REVERT JUMPDEST PUSH1 0x0 DUP1 REVERT JUMPDEST PUSH1 0x0 DUP1 REVERT JUMPDEST PUSH1 0x0 DUP1 REVERT JUMPDEST PUSH1 0x0 DUP1 REVERT JUMPDEST PUSH1 0x0 PUSH1 0x1F NOT PUSH1 0x1F DUP4 ADD AND SWAP1 POP SWAP2 SWAP1 POP JUMP JUMPDEST PUSH32 0x54686520706F6C6C20616C726561647920656E6465642E000000000000000000 PUSH1 0x0 DUP3 ADD MSTORE POP JUMP JUMPDEST PUSH32 0x546869732069732061207072697661746520706F6C6C2E000000000000000000 PUSH1 0x0 DUP3 ADD MSTORE POP JUMP JUMPDEST PUSH32 0x596F75206861766520616C726561647920766F74656421000000000000000000 PUSH1 0x0 DUP3 ADD MSTORE POP JUMP JUMPDEST PUSH32 0x54686520706F6C6C20686173206E6F742073746172746564207965742E000000 PUSH1 0x0 DUP3 ADD MSTORE POP JUMP JUMPDEST PUSH32 0x4F6E6C79207468652063726561746572206F66207468697320706F6C6C206861 PUSH1 0x0 DUP3 ADD MSTORE PUSH32 0x7320746869732070726976696C6567652E000000000000000000000000000000 PUSH1 0x20 DUP3 ADD MSTORE POP JUMP JUMPDEST PUSH1 0x4 DUP2 LT PUSH2 0x1040 JUMPI PUSH2 0x103F PUSH2 0xE8A JUMP JUMPDEST JUMPDEST POP JUMP JUMPDEST PUSH1 0x2 DUP2 LT PUSH2 0x1054 JUMPI PUSH2 0x1053 PUSH2 0xE8A JUMP JUMPDEST JUMPDEST POP JUMP JUMPDEST PUSH2 0x1060 DUP2 PUSH2 0xD88 JUMP JUMPDEST DUP2 EQ PUSH2 0x106B JUMPI PUSH1 0x0 DUP1 REVERT JUMPDEST POP JUMP INVALID LOG2 PUSH5 0x6970667358 0x22 SLT KECCAK256 0xB3 CREATE CALLDATALOAD 0xCB 0xCD 0xBB 0xEA PUSH23 0xE93E0C22AC4F95ADA8880660B348789F359E88D951DA74 PUSH12 0x64736F6C6343000807003300 "
				},
				"gasEstimates": {
					"creation": {
						"codeDepositCost": "852000",
						"executionCost": "infinite",
						"totalCost": "infinite"
					},
					"external": {
						"cancelPoll()": "28792",
						"endBlock()": "2430",
						"getResult(string)": "infinite",
						"increasePollDuration(uint256)": "infinite",
						"org()": "2621",
						"pollName()": "infinite",
						"pollState()": "2610",
						"pollType()": "2605",
						"renamePoll(string)": "infinite",
						"startBlock()": "2496",
						"voteFor(string)": "infinite"
					}
				},
				"methodIdentifiers": {
					"cancelPoll()": "b73b396b",
					"endBlock()": "083c6323",
					"getResult(string)": "498cc70d",
					"increasePollDuration(uint256)": "ba0c45c9",
					"org()": "cc1e2cb0",
					"pollName()": "18769765",
					"pollState()": "8f58d353",
					"pollType()": "237637a8",
					"renamePoll(string)": "c308b0dc",
					"startBlock()": "48cd4cb1",
					"voteFor(string)": "c04752d8"
				}
			},
			"storageLayout": {
				"storage": [
					{
						"astId": 77,
						"contract": "contracts/pollio.sol:Poll",
						"label": "org",
						"offset": 0,
						"slot": "0",
						"type": "t_address_payable"
					},
					{
						"astId": 79,
						"contract": "contracts/pollio.sol:Poll",
						"label": "pollName",
						"offset": 0,
						"slot": "1",
						"type": "t_string_storage"
					},
					{
						"astId": 81,
						"contract": "contracts/pollio.sol:Poll",
						"label": "startBlock",
						"offset": 0,
						"slot": "2",
						"type": "t_uint256"
					},
					{
						"astId": 83,
						"contract": "contracts/pollio.sol:Poll",
						"label": "endBlock",
						"offset": 0,
						"slot": "3",
						"type": "t_uint256"
					},
					{
						"astId": 89,
						"contract": "contracts/pollio.sol:Poll",
						"label": "pollType",
						"offset": 0,
						"slot": "4",
						"type": "t_enum(Type)86"
					},
					{
						"astId": 97,
						"contract": "contracts/pollio.sol:Poll",
						"label": "pollState",
						"offset": 1,
						"slot": "4",
						"type": "t_enum(State)94"
					},
					{
						"astId": 101,
						"contract": "contracts/pollio.sol:Poll",
						"label": "isVoted",
						"offset": 0,
						"slot": "5",
						"type": "t_mapping(t_address,t_bool)"
					},
					{
						"astId": 105,
						"contract": "contracts/pollio.sol:Poll",
						"label": "result",
						"offset": 0,
						"slot": "6",
						"type": "t_mapping(t_string_memory_ptr,t_uint256)"
					}
				],
				"types": {
					"t_address": {
						"encoding": "inplace",
						"label": "address",
						"numberOfBytes": "20"
					},
					"t_address_payable": {
						"encoding": "inplace",
						"label": "address payable",
						"numberOfBytes": "20"
					},
					"t_bool": {
						"encoding": "inplace",
						"label": "bool",
						"numberOfBytes": "1"
					},
					"t_enum(State)94": {
						"encoding": "inplace",
						"label": "enum Poll.State",
						"numberOfBytes": "1"
					},
					"t_enum(Type)86": {
						"encoding": "inplace",
						"label": "enum Poll.Type",
						"numberOfBytes": "1"
					},
					"t_mapping(t_address,t_bool)": {
						"encoding": "mapping",
						"key": "t_address",
						"label": "mapping(address => bool)",
						"numberOfBytes": "32",
						"value": "t_bool"
					},
					"t_mapping(t_string_memory_ptr,t_uint256)": {
						"encoding": "mapping",
						"key": "t_string_memory_ptr",
						"label": "mapping(string => uint256)",
						"numberOfBytes": "32",
						"value": "t_uint256"
					},
					"t_string_memory_ptr": {
						"encoding": "bytes",
						"label": "string",
						"numberOfBytes": "32"
					},
					"t_string_storage": {
						"encoding": "bytes",
						"label": "string",
						"numberOfBytes": "32"
					},
					"t_uint256": {
						"encoding": "inplace",
						"label": "uint256",
						"numberOfBytes": "32"
					}
				}
			},
			"userdoc": {
				"kind": "user",
				"methods": {
					"cancelPoll()": {
						"notice": "Only Org can cancel the poll before the end date"
					},
					"getResult(string)": {
						"notice": "If the poll is Public then it returns the result to allElse if the poll is private then only Org can access the result"
					},
					"increasePollDuration(uint256)": {
						"notice": "Only the Org can increase the Poll duration (End Date)"
					},
					"renamePoll(string)": {
						"notice": "Only the Org can rename the Poll"
					},
					"voteFor(string)": {
						"notice": "Voters can vote between the start date and the end date"
					}
				},
				"notice": "Every time an org creates a new poll, an instance of this contract gets created",
				"version": 1
			}
		}
	}
}