{
	"contracts/pollio.sol": {
		"Poll": {
			"abi": [
				{
					"inputs": [
						{
							"internalType": "address",
							"name": "eoa",
							"type": "address"
						},
						{
							"internalType": "string",
							"name": "_pollName",
							"type": "string"
						},
						{
							"internalType": "uint256",
							"name": "pollDuration",
							"type": "uint256"
						},
						{
							"internalType": "string[]",
							"name": "_candidates",
							"type": "string[]"
						},
						{
							"internalType": "string",
							"name": "_pollType",
							"type": "string"
						}
					],
					"stateMutability": "nonpayable",
					"type": "constructor"
				},
				{
					"inputs": [],
					"name": "cancelPoll",
					"outputs": [],
					"stateMutability": "nonpayable",
					"type": "function"
				},
				{
					"inputs": [
						{
							"internalType": "uint256",
							"name": "",
							"type": "uint256"
						}
					],
					"name": "candidates",
					"outputs": [
						{
							"internalType": "string",
							"name": "",
							"type": "string"
						}
					],
					"stateMutability": "view",
					"type": "function"
				},
				{
					"inputs": [],
					"name": "endBlock",
					"outputs": [
						{
							"internalType": "uint256",
							"name": "",
							"type": "uint256"
						}
					],
					"stateMutability": "view",
					"type": "function"
				},
				{
					"inputs": [
						{
							"internalType": "string",
							"name": "candidate",
							"type": "string"
						}
					],
					"name": "getResult",
					"outputs": [
						{
							"internalType": "uint256",
							"name": "",
							"type": "uint256"
						}
					],
					"stateMutability": "view",
					"type": "function"
				},
				{
					"inputs": [
						{
							"internalType": "uint256",
							"name": "pollDuration",
							"type": "uint256"
						}
					],
					"name": "increasePollDuration",
					"outputs": [],
					"stateMutability": "nonpayable",
					"type": "function"
				},
				{
					"inputs": [],
					"name": "org",
					"outputs": [
						{
							"internalType": "address payable",
							"name": "",
							"type": "address"
						}
					],
					"stateMutability": "view",
					"type": "function"
				},
				{
					"inputs": [],
					"name": "pollName",
					"outputs": [
						{
							"internalType": "string",
							"name": "",
							"type": "string"
						}
					],
					"stateMutability": "view",
					"type": "function"
				},
				{
					"inputs": [],
					"name": "pollState",
					"outputs": [
						{
							"internalType": "enum Poll.State",
							"name": "",
							"type": "uint8"
						}
					],
					"stateMutability": "view",
					"type": "function"
				},
				{
					"inputs": [],
					"name": "pollType",
					"outputs": [
						{
							"internalType": "enum Poll.Type",
							"name": "",
							"type": "uint8"
						}
					],
					"stateMutability": "view",
					"type": "function"
				},
				{
					"inputs": [
						{
							"internalType": "string",
							"name": "name",
							"type": "string"
						}
					],
					"name": "renamePoll",
					"outputs": [],
					"stateMutability": "nonpayable",
					"type": "function"
				},
				{
					"inputs": [],
					"name": "startBlock",
					"outputs": [
						{
							"internalType": "uint256",
							"name": "",
							"type": "uint256"
						}
					],
					"stateMutability": "view",
					"type": "function"
				},
				{
					"inputs": [
						{
							"internalType": "string",
							"name": "candidate",
							"type": "string"
						}
					],
					"name": "voteFor",
					"outputs": [],
					"stateMutability": "nonpayable",
					"type": "function"
				}
			],
			"devdoc": {
				"kind": "dev",
				"methods": {},
				"version": 1
			},
			"evm": {
				"assembly": "    /* \"contracts/pollio.sol\":921:3212  contract Poll {... */\n  mstore(0x40, 0x80)\n    /* \"contracts/pollio.sol\":1321:2015  constructor (... */\n  callvalue\n  dup1\n  iszero\n  tag_1\n  jumpi\n  0x00\n  dup1\n  revert\ntag_1:\n  pop\n  mload(0x40)\n  sub(codesize, bytecodeSize)\n  dup1\n  bytecodeSize\n  dup4\n  codecopy\n  dup2\n  dup2\n  add\n  0x40\n  mstore\n  dup2\n  add\n  swap1\n  tag_2\n  swap2\n  swap1\n  tag_3\n  jump\t// in\ntag_2:\n    /* \"contracts/pollio.sol\":1518:1521  eoa */\n  dup5\n    /* \"contracts/pollio.sol\":1504:1507  org */\n  0x00\n  dup1\n    /* \"contracts/pollio.sol\":1504:1522  org = payable(eoa) */\n  0x0100\n  exp\n  dup2\n  sload\n  dup2\n  0xffffffffffffffffffffffffffffffffffffffff\n  mul\n  not\n  and\n  swap1\n  dup4\n  0xffffffffffffffffffffffffffffffffffffffff\n  and\n  mul\n  or\n  swap1\n  sstore\n  pop\n    /* \"contracts/pollio.sol\":1543:1552  _pollName */\n  dup4\n    /* \"contracts/pollio.sol\":1532:1540  pollName */\n  0x01\n    /* \"contracts/pollio.sol\":1532:1552  pollName = _pollName */\n  swap1\n  dup1\n  mload\n  swap1\n  0x20\n  add\n  swap1\n  tag_6\n  swap3\n  swap2\n  swap1\n  tag_7\n  jump\t// in\ntag_6:\n  pop\n    /* \"contracts/pollio.sol\":1575:1586  _candidates */\n  dup2\n    /* \"contracts/pollio.sol\":1562:1572  candidates */\n  0x02\n    /* \"contracts/pollio.sol\":1562:1586  candidates = _candidates */\n  swap1\n  dup1\n  mload\n  swap1\n  0x20\n  add\n  swap1\n  tag_8\n  swap3\n  swap2\n  swap1\n  tag_9\n  jump\t// in\ntag_8:\n  pop\n    /* \"contracts/pollio.sol\":1609:1621  block.number */\n  number\n    /* \"contracts/pollio.sol\":1596:1606  startBlock */\n  0x03\n    /* \"contracts/pollio.sol\":1596:1621  startBlock = block.number */\n  dup2\n  swap1\n  sstore\n  pop\n    /* \"contracts/pollio.sol\":1655:1667  pollDuration */\n  dup3\n    /* \"contracts/pollio.sol\":1642:1652  startBlock */\n  sload(0x03)\n    /* \"contracts/pollio.sol\":1642:1667  startBlock + pollDuration */\n  tag_10\n  swap2\n  swap1\n  tag_11\n  jump\t// in\ntag_10:\n    /* \"contracts/pollio.sol\":1631:1639  endBlock */\n  0x04\n    /* \"contracts/pollio.sol\":1631:1667  endBlock = startBlock + pollDuration */\n  dup2\n  swap1\n  sstore\n  pop\n    /* \"contracts/pollio.sol\":1689:1702  State.Running */\n  0x01\n    /* \"contracts/pollio.sol\":1677:1686  pollState */\n  0x05\n  0x01\n    /* \"contracts/pollio.sol\":1677:1702  pollState = State.Running */\n  0x0100\n  exp\n  dup2\n  sload\n  dup2\n  0xff\n  mul\n  not\n  and\n  swap1\n  dup4\n  0x03\n  dup2\n  gt\n  iszero\n  tag_12\n  jumpi\n  tag_13\n  tag_14\n  jump\t// in\ntag_13:\ntag_12:\n  mul\n  or\n  swap1\n  sstore\n  pop\n    /* \"contracts/pollio.sol\":1771:1799  abi.encodePacked((\"Public\")) */\n  add(0x20, mload(0x40))\n  tag_15\n  swap1\n  tag_16\n  jump\t// in\ntag_15:\n  mload(0x40)\n  0x20\n  dup2\n  dup4\n  sub\n  sub\n  dup2\n  mstore\n  swap1\n  0x40\n  mstore\n    /* \"contracts/pollio.sol\":1761:1800  keccak256(abi.encodePacked((\"Public\"))) */\n  dup1\n  mload\n  swap1\n  0x20\n  add\n  keccak256\n    /* \"contracts/pollio.sol\":1745:1754  _pollType */\n  dup2\n    /* \"contracts/pollio.sol\":1727:1756  abi.encodePacked((_pollType)) */\n  add(0x20, mload(0x40))\n  tag_17\n  swap2\n  swap1\n  tag_18\n  jump\t// in\ntag_17:\n  mload(0x40)\n  0x20\n  dup2\n  dup4\n  sub\n  sub\n  dup2\n  mstore\n  swap1\n  0x40\n  mstore\n    /* \"contracts/pollio.sol\":1717:1757  keccak256(abi.encodePacked((_pollType))) */\n  dup1\n  mload\n  swap1\n  0x20\n  add\n  keccak256\n    /* \"contracts/pollio.sol\":1717:1800  keccak256(abi.encodePacked((_pollType))) == keccak256(abi.encodePacked((\"Public\"))) */\n  eq\n    /* \"contracts/pollio.sol\":1713:1904  if (keccak256(abi.encodePacked((_pollType))) == keccak256(abi.encodePacked((\"Public\")))) {... */\n  iszero\n  tag_19\n  jumpi\n    /* \"contracts/pollio.sol\":1827:1838  Type.Public */\n  0x00\n    /* \"contracts/pollio.sol\":1816:1824  pollType */\n  0x05\n  0x00\n    /* \"contracts/pollio.sol\":1816:1838  pollType = Type.Public */\n  0x0100\n  exp\n  dup2\n  sload\n  dup2\n  0xff\n  mul\n  not\n  and\n  swap1\n  dup4\n  0x01\n  dup2\n  gt\n  iszero\n  tag_20\n  jumpi\n  tag_21\n  tag_14\n  jump\t// in\ntag_21:\ntag_20:\n  mul\n  or\n  swap1\n  sstore\n  pop\n    /* \"contracts/pollio.sol\":1713:1904  if (keccak256(abi.encodePacked((_pollType))) == keccak256(abi.encodePacked((\"Public\")))) {... */\n  jump(tag_22)\ntag_19:\n    /* \"contracts/pollio.sol\":1881:1893  Type.Private */\n  0x01\n    /* \"contracts/pollio.sol\":1869:1893  pollType == Type.Private */\n  dup1\n  dup2\n  gt\n  iszero\n  tag_23\n  jumpi\n  tag_24\n  tag_14\n  jump\t// in\ntag_24:\ntag_23:\n    /* \"contracts/pollio.sol\":1869:1877  pollType */\n  0x05\n  0x00\n  swap1\n  sload\n  swap1\n  0x0100\n  exp\n  swap1\n  div\n  0xff\n  and\n    /* \"contracts/pollio.sol\":1869:1893  pollType == Type.Private */\n  0x01\n  dup2\n  gt\n  iszero\n  tag_25\n  jumpi\n  tag_26\n  tag_14\n  jump\t// in\ntag_26:\ntag_25:\n  pop\n  pop\n    /* \"contracts/pollio.sol\":1713:1904  if (keccak256(abi.encodePacked((_pollType))) == keccak256(abi.encodePacked((\"Public\")))) {... */\ntag_22:\n    /* \"contracts/pollio.sol\":1919:1925  uint i */\n  0x00\n    /* \"contracts/pollio.sol\":1914:2009  for (uint i = 0; i < candidates.length; i++) {... */\ntag_27:\n    /* \"contracts/pollio.sol\":1935:1945  candidates */\n  0x02\n    /* \"contracts/pollio.sol\":1935:1952  candidates.length */\n  dup1\n  sload\n  swap1\n  pop\n    /* \"contracts/pollio.sol\":1931:1932  i */\n  dup2\n    /* \"contracts/pollio.sol\":1931:1952  i < candidates.length */\n  lt\n    /* \"contracts/pollio.sol\":1914:2009  for (uint i = 0; i < candidates.length; i++) {... */\n  iszero\n  tag_28\n  jumpi\n    /* \"contracts/pollio.sol\":1997:1998  0 */\n  0x00\n    /* \"contracts/pollio.sol\":1973:1979  result */\n  0x07\n    /* \"contracts/pollio.sol\":1980:1990  candidates */\n  0x02\n    /* \"contracts/pollio.sol\":1991:1992  i */\n  dup4\n    /* \"contracts/pollio.sol\":1980:1993  candidates[i] */\n  dup2\n  sload\n  dup2\n  lt\n  tag_30\n  jumpi\n  tag_31\n  tag_32\n  jump\t// in\ntag_31:\ntag_30:\n  swap1\n  0x00\n  mstore\n  keccak256(0x00, 0x20)\n  add\n    /* \"contracts/pollio.sol\":1973:1994  result[candidates[i]] */\n  mload(0x40)\n  tag_34\n  swap2\n  swap1\n  tag_35\n  jump\t// in\ntag_34:\n  swap1\n  dup2\n  mstore\n  0x20\n  add\n  mload(0x40)\n  dup1\n  swap2\n  sub\n  swap1\n  keccak256\n    /* \"contracts/pollio.sol\":1973:1998  result[candidates[i]] = 0 */\n  dup2\n  swap1\n  sstore\n  pop\n    /* \"contracts/pollio.sol\":1954:1957  i++ */\n  dup1\n  dup1\n  tag_36\n  swap1\n  tag_37\n  jump\t// in\ntag_36:\n  swap2\n  pop\n  pop\n    /* \"contracts/pollio.sol\":1914:2009  for (uint i = 0; i < candidates.length; i++) {... */\n  jump(tag_27)\ntag_28:\n  pop\n    /* \"contracts/pollio.sol\":1321:2015  constructor (... */\n  pop\n  pop\n  pop\n  pop\n  pop\n    /* \"contracts/pollio.sol\":921:3212  contract Poll {... */\n  jump(tag_38)\ntag_7:\n  dup3\n  dup1\n  sload\n  tag_39\n  swap1\n  tag_40\n  jump\t// in\ntag_39:\n  swap1\n  0x00\n  mstore\n  keccak256(0x00, 0x20)\n  swap1\n  0x1f\n  add\n  0x20\n  swap1\n  div\n  dup2\n  add\n  swap3\n  dup3\n  tag_42\n  jumpi\n  0x00\n  dup6\n  sstore\n  jump(tag_41)\ntag_42:\n  dup3\n  0x1f\n  lt\n  tag_43\n  jumpi\n  dup1\n  mload\n  not(0xff)\n  and\n  dup4\n  dup1\n  add\n  or\n  dup6\n  sstore\n  jump(tag_41)\ntag_43:\n  dup3\n  dup1\n  add\n  0x01\n  add\n  dup6\n  sstore\n  dup3\n  iszero\n  tag_41\n  jumpi\n  swap2\n  dup3\n  add\ntag_44:\n  dup3\n  dup2\n  gt\n  iszero\n  tag_45\n  jumpi\n  dup3\n  mload\n  dup3\n  sstore\n  swap2\n  0x20\n  add\n  swap2\n  swap1\n  0x01\n  add\n  swap1\n  jump(tag_44)\ntag_45:\ntag_41:\n  pop\n  swap1\n  pop\n  tag_46\n  swap2\n  swap1\n  tag_47\n  jump\t// in\ntag_46:\n  pop\n  swap1\n  jump\t// out\ntag_9:\n  dup3\n  dup1\n  sload\n  dup3\n  dup3\n  sstore\n  swap1\n  0x00\n  mstore\n  keccak256(0x00, 0x20)\n  swap1\n  dup2\n  add\n  swap3\n  dup3\n  iszero\n  tag_48\n  jumpi\n  swap2\n  0x20\n  mul\n  dup3\n  add\ntag_49:\n  dup3\n  dup2\n  gt\n  iszero\n  tag_50\n  jumpi\n  dup3\n  mload\n  dup3\n  swap1\n  dup1\n  mload\n  swap1\n  0x20\n  add\n  swap1\n  tag_51\n  swap3\n  swap2\n  swap1\n  tag_7\n  jump\t// in\ntag_51:\n  pop\n  swap2\n  0x20\n  add\n  swap2\n  swap1\n  0x01\n  add\n  swap1\n  jump(tag_49)\ntag_50:\ntag_48:\n  pop\n  swap1\n  pop\n  tag_52\n  swap2\n  swap1\n  tag_53\n  jump\t// in\ntag_52:\n  pop\n  swap1\n  jump\t// out\ntag_47:\ntag_54:\n  dup1\n  dup3\n  gt\n  iszero\n  tag_55\n  jumpi\n  0x00\n  dup2\n  0x00\n  swap1\n  sstore\n  pop\n  0x01\n  add\n  jump(tag_54)\ntag_55:\n  pop\n  swap1\n  jump\t// out\ntag_53:\ntag_56:\n  dup1\n  dup3\n  gt\n  iszero\n  tag_57\n  jumpi\n  0x00\n  dup2\n  dup2\n  tag_58\n  swap2\n  swap1\n  tag_59\n  jump\t// in\ntag_58:\n  pop\n  0x01\n  add\n  jump(tag_56)\ntag_57:\n  pop\n  swap1\n  jump\t// out\ntag_59:\n  pop\n  dup1\n  sload\n  tag_60\n  swap1\n  tag_40\n  jump\t// in\ntag_60:\n  0x00\n  dup3\n  sstore\n  dup1\n  0x1f\n  lt\n  tag_62\n  jumpi\n  pop\n  jump(tag_61)\ntag_62:\n  0x1f\n  add\n  0x20\n  swap1\n  div\n  swap1\n  0x00\n  mstore\n  keccak256(0x00, 0x20)\n  swap1\n  dup2\n  add\n  swap1\n  tag_63\n  swap2\n  swap1\n  tag_47\n  jump\t// in\ntag_63:\ntag_61:\n  pop\n  jump\t// out\n    /* \"#utility.yul\":23:995   */\ntag_65:\n    /* \"#utility.yul\":140:145   */\n  0x00\n    /* \"#utility.yul\":165:256   */\n  tag_67\n    /* \"#utility.yul\":181:255   */\n  tag_68\n    /* \"#utility.yul\":248:254   */\n  dup5\n    /* \"#utility.yul\":181:255   */\n  tag_69\n  jump\t// in\ntag_68:\n    /* \"#utility.yul\":165:256   */\n  tag_70\n  jump\t// in\ntag_67:\n    /* \"#utility.yul\":156:256   */\n  swap1\n  pop\n    /* \"#utility.yul\":276:281   */\n  dup1\n    /* \"#utility.yul\":305:311   */\n  dup4\n    /* \"#utility.yul\":298:303   */\n  dup3\n    /* \"#utility.yul\":291:312   */\n  mstore\n    /* \"#utility.yul\":339:343   */\n  0x20\n    /* \"#utility.yul\":332:337   */\n  dup3\n    /* \"#utility.yul\":328:344   */\n  add\n    /* \"#utility.yul\":321:344   */\n  swap1\n  pop\n    /* \"#utility.yul\":365:371   */\n  dup3\n    /* \"#utility.yul\":415:418   */\n  dup6\n    /* \"#utility.yul\":407:411   */\n  0x20\n    /* \"#utility.yul\":399:405   */\n  dup7\n    /* \"#utility.yul\":395:412   */\n  mul\n    /* \"#utility.yul\":390:393   */\n  dup3\n    /* \"#utility.yul\":386:413   */\n  add\n    /* \"#utility.yul\":383:419   */\n  gt\n    /* \"#utility.yul\":380:523   */\n  iszero\n  tag_71\n  jumpi\n    /* \"#utility.yul\":434:513   */\n  tag_72\n  tag_73\n  jump\t// in\ntag_72:\n    /* \"#utility.yul\":380:523   */\ntag_71:\n    /* \"#utility.yul\":547:548   */\n  0x00\n    /* \"#utility.yul\":532:989   */\ntag_74:\n    /* \"#utility.yul\":557:563   */\n  dup6\n    /* \"#utility.yul\":554:555   */\n  dup2\n    /* \"#utility.yul\":551:564   */\n  lt\n    /* \"#utility.yul\":532:989   */\n  iszero\n  tag_76\n  jumpi\n    /* \"#utility.yul\":632:635   */\n  dup2\n    /* \"#utility.yul\":626:636   */\n  mload\n    /* \"#utility.yul\":668:686   */\n  0xffffffffffffffff\n    /* \"#utility.yul\":655:666   */\n  dup2\n    /* \"#utility.yul\":652:687   */\n  gt\n    /* \"#utility.yul\":649:771   */\n  iszero\n  tag_77\n  jumpi\n    /* \"#utility.yul\":690:769   */\n  tag_78\n  tag_79\n  jump\t// in\ntag_78:\n    /* \"#utility.yul\":649:771   */\ntag_77:\n    /* \"#utility.yul\":814:825   */\n  dup1\n    /* \"#utility.yul\":806:812   */\n  dup7\n    /* \"#utility.yul\":802:826   */\n  add\n    /* \"#utility.yul\":852:910   */\n  tag_80\n    /* \"#utility.yul\":906:909   */\n  dup10\n    /* \"#utility.yul\":894:904   */\n  dup3\n    /* \"#utility.yul\":852:910   */\n  tag_81\n  jump\t// in\ntag_80:\n    /* \"#utility.yul\":847:850   */\n  dup6\n    /* \"#utility.yul\":840:911   */\n  mstore\n    /* \"#utility.yul\":940:944   */\n  0x20\n    /* \"#utility.yul\":935:938   */\n  dup6\n    /* \"#utility.yul\":931:945   */\n  add\n    /* \"#utility.yul\":924:945   */\n  swap5\n  pop\n    /* \"#utility.yul\":974:978   */\n  0x20\n    /* \"#utility.yul\":969:972   */\n  dup5\n    /* \"#utility.yul\":965:979   */\n  add\n    /* \"#utility.yul\":958:979   */\n  swap4\n  pop\n    /* \"#utility.yul\":592:989   */\n  pop\n  pop\n    /* \"#utility.yul\":579:580   */\n  0x01\n    /* \"#utility.yul\":576:577   */\n  dup2\n    /* \"#utility.yul\":572:581   */\n  add\n    /* \"#utility.yul\":567:581   */\n  swap1\n  pop\n    /* \"#utility.yul\":532:989   */\n  jump(tag_74)\ntag_76:\n    /* \"#utility.yul\":536:550   */\n  pop\n    /* \"#utility.yul\":146:995   */\n  pop\n  pop\n    /* \"#utility.yul\":23:995   */\n  swap4\n  swap3\n  pop\n  pop\n  pop\n  jump\t// out\n    /* \"#utility.yul\":1001:1422   */\ntag_82:\n    /* \"#utility.yul\":1090:1095   */\n  0x00\n    /* \"#utility.yul\":1115:1181   */\n  tag_84\n    /* \"#utility.yul\":1131:1180   */\n  tag_85\n    /* \"#utility.yul\":1173:1179   */\n  dup5\n    /* \"#utility.yul\":1131:1180   */\n  tag_86\n  jump\t// in\ntag_85:\n    /* \"#utility.yul\":1115:1181   */\n  tag_70\n  jump\t// in\ntag_84:\n    /* \"#utility.yul\":1106:1181   */\n  swap1\n  pop\n    /* \"#utility.yul\":1204:1210   */\n  dup3\n    /* \"#utility.yul\":1197:1202   */\n  dup2\n    /* \"#utility.yul\":1190:1211   */\n  mstore\n    /* \"#utility.yul\":1242:1246   */\n  0x20\n    /* \"#utility.yul\":1235:1240   */\n  dup2\n    /* \"#utility.yul\":1231:1247   */\n  add\n    /* \"#utility.yul\":1280:1283   */\n  dup5\n    /* \"#utility.yul\":1271:1277   */\n  dup5\n    /* \"#utility.yul\":1266:1269   */\n  dup5\n    /* \"#utility.yul\":1262:1278   */\n  add\n    /* \"#utility.yul\":1259:1284   */\n  gt\n    /* \"#utility.yul\":1256:1368   */\n  iszero\n  tag_87\n  jumpi\n    /* \"#utility.yul\":1287:1366   */\n  tag_88\n  tag_89\n  jump\t// in\ntag_88:\n    /* \"#utility.yul\":1256:1368   */\ntag_87:\n    /* \"#utility.yul\":1377:1416   */\n  tag_90\n    /* \"#utility.yul\":1409:1415   */\n  dup5\n    /* \"#utility.yul\":1404:1407   */\n  dup3\n    /* \"#utility.yul\":1399:1402   */\n  dup6\n    /* \"#utility.yul\":1377:1416   */\n  tag_91\n  jump\t// in\ntag_90:\n    /* \"#utility.yul\":1096:1422   */\n  pop\n    /* \"#utility.yul\":1001:1422   */\n  swap4\n  swap3\n  pop\n  pop\n  pop\n  jump\t// out\n    /* \"#utility.yul\":1428:1571   */\ntag_92:\n    /* \"#utility.yul\":1485:1490   */\n  0x00\n    /* \"#utility.yul\":1516:1522   */\n  dup2\n    /* \"#utility.yul\":1510:1523   */\n  mload\n    /* \"#utility.yul\":1501:1523   */\n  swap1\n  pop\n    /* \"#utility.yul\":1532:1565   */\n  tag_94\n    /* \"#utility.yul\":1559:1564   */\n  dup2\n    /* \"#utility.yul\":1532:1565   */\n  tag_95\n  jump\t// in\ntag_94:\n    /* \"#utility.yul\":1428:1571   */\n  swap3\n  swap2\n  pop\n  pop\n  jump\t// out\n    /* \"#utility.yul\":1593:1998   */\ntag_96:\n    /* \"#utility.yul\":1685:1690   */\n  0x00\n    /* \"#utility.yul\":1734:1737   */\n  dup3\n    /* \"#utility.yul\":1727:1731   */\n  0x1f\n    /* \"#utility.yul\":1719:1725   */\n  dup4\n    /* \"#utility.yul\":1715:1732   */\n  add\n    /* \"#utility.yul\":1711:1738   */\n  slt\n    /* \"#utility.yul\":1701:1823   */\n  tag_98\n  jumpi\n    /* \"#utility.yul\":1742:1821   */\n  tag_99\n  tag_79\n  jump\t// in\ntag_99:\n    /* \"#utility.yul\":1701:1823   */\ntag_98:\n    /* \"#utility.yul\":1852:1858   */\n  dup2\n    /* \"#utility.yul\":1846:1859   */\n  mload\n    /* \"#utility.yul\":1877:1992   */\n  tag_100\n    /* \"#utility.yul\":1988:1991   */\n  dup5\n    /* \"#utility.yul\":1980:1986   */\n  dup3\n    /* \"#utility.yul\":1973:1977   */\n  0x20\n    /* \"#utility.yul\":1965:1971   */\n  dup7\n    /* \"#utility.yul\":1961:1978   */\n  add\n    /* \"#utility.yul\":1877:1992   */\n  tag_65\n  jump\t// in\ntag_100:\n    /* \"#utility.yul\":1868:1992   */\n  swap2\n  pop\n    /* \"#utility.yul\":1691:1998   */\n  pop\n    /* \"#utility.yul\":1593:1998   */\n  swap3\n  swap2\n  pop\n  pop\n  jump\t// out\n    /* \"#utility.yul\":2018:2373   */\ntag_81:\n    /* \"#utility.yul\":2085:2090   */\n  0x00\n    /* \"#utility.yul\":2134:2137   */\n  dup3\n    /* \"#utility.yul\":2127:2131   */\n  0x1f\n    /* \"#utility.yul\":2119:2125   */\n  dup4\n    /* \"#utility.yul\":2115:2132   */\n  add\n    /* \"#utility.yul\":2111:2138   */\n  slt\n    /* \"#utility.yul\":2101:2223   */\n  tag_102\n  jumpi\n    /* \"#utility.yul\":2142:2221   */\n  tag_103\n  tag_79\n  jump\t// in\ntag_103:\n    /* \"#utility.yul\":2101:2223   */\ntag_102:\n    /* \"#utility.yul\":2252:2258   */\n  dup2\n    /* \"#utility.yul\":2246:2259   */\n  mload\n    /* \"#utility.yul\":2277:2367   */\n  tag_104\n    /* \"#utility.yul\":2363:2366   */\n  dup5\n    /* \"#utility.yul\":2355:2361   */\n  dup3\n    /* \"#utility.yul\":2348:2352   */\n  0x20\n    /* \"#utility.yul\":2340:2346   */\n  dup7\n    /* \"#utility.yul\":2336:2353   */\n  add\n    /* \"#utility.yul\":2277:2367   */\n  tag_82\n  jump\t// in\ntag_104:\n    /* \"#utility.yul\":2268:2367   */\n  swap2\n  pop\n    /* \"#utility.yul\":2091:2373   */\n  pop\n    /* \"#utility.yul\":2018:2373   */\n  swap3\n  swap2\n  pop\n  pop\n  jump\t// out\n    /* \"#utility.yul\":2379:2522   */\ntag_105:\n    /* \"#utility.yul\":2436:2441   */\n  0x00\n    /* \"#utility.yul\":2467:2473   */\n  dup2\n    /* \"#utility.yul\":2461:2474   */\n  mload\n    /* \"#utility.yul\":2452:2474   */\n  swap1\n  pop\n    /* \"#utility.yul\":2483:2516   */\n  tag_107\n    /* \"#utility.yul\":2510:2515   */\n  dup2\n    /* \"#utility.yul\":2483:2516   */\n  tag_108\n  jump\t// in\ntag_107:\n    /* \"#utility.yul\":2379:2522   */\n  swap3\n  swap2\n  pop\n  pop\n  jump\t// out\n    /* \"#utility.yul\":2528:4074   */\ntag_3:\n    /* \"#utility.yul\":2689:2695   */\n  0x00\n    /* \"#utility.yul\":2697:2703   */\n  dup1\n    /* \"#utility.yul\":2705:2711   */\n  0x00\n    /* \"#utility.yul\":2713:2719   */\n  dup1\n    /* \"#utility.yul\":2721:2727   */\n  0x00\n    /* \"#utility.yul\":2770:2773   */\n  0xa0\n    /* \"#utility.yul\":2758:2767   */\n  dup7\n    /* \"#utility.yul\":2749:2756   */\n  dup9\n    /* \"#utility.yul\":2745:2768   */\n  sub\n    /* \"#utility.yul\":2741:2774   */\n  slt\n    /* \"#utility.yul\":2738:2858   */\n  iszero\n  tag_110\n  jumpi\n    /* \"#utility.yul\":2777:2856   */\n  tag_111\n  tag_112\n  jump\t// in\ntag_111:\n    /* \"#utility.yul\":2738:2858   */\ntag_110:\n    /* \"#utility.yul\":2897:2898   */\n  0x00\n    /* \"#utility.yul\":2922:2986   */\n  tag_113\n    /* \"#utility.yul\":2978:2985   */\n  dup9\n    /* \"#utility.yul\":2969:2975   */\n  dup3\n    /* \"#utility.yul\":2958:2967   */\n  dup10\n    /* \"#utility.yul\":2954:2976   */\n  add\n    /* \"#utility.yul\":2922:2986   */\n  tag_92\n  jump\t// in\ntag_113:\n    /* \"#utility.yul\":2912:2986   */\n  swap6\n  pop\n    /* \"#utility.yul\":2868:2996   */\n  pop\n    /* \"#utility.yul\":3056:3058   */\n  0x20\n    /* \"#utility.yul\":3045:3054   */\n  dup7\n    /* \"#utility.yul\":3041:3059   */\n  add\n    /* \"#utility.yul\":3035:3060   */\n  mload\n    /* \"#utility.yul\":3087:3105   */\n  0xffffffffffffffff\n    /* \"#utility.yul\":3079:3085   */\n  dup2\n    /* \"#utility.yul\":3076:3106   */\n  gt\n    /* \"#utility.yul\":3073:3190   */\n  iszero\n  tag_114\n  jumpi\n    /* \"#utility.yul\":3109:3188   */\n  tag_115\n  tag_116\n  jump\t// in\ntag_115:\n    /* \"#utility.yul\":3073:3190   */\ntag_114:\n    /* \"#utility.yul\":3214:3288   */\n  tag_117\n    /* \"#utility.yul\":3280:3287   */\n  dup9\n    /* \"#utility.yul\":3271:3277   */\n  dup3\n    /* \"#utility.yul\":3260:3269   */\n  dup10\n    /* \"#utility.yul\":3256:3278   */\n  add\n    /* \"#utility.yul\":3214:3288   */\n  tag_81\n  jump\t// in\ntag_117:\n    /* \"#utility.yul\":3204:3288   */\n  swap5\n  pop\n    /* \"#utility.yul\":3006:3298   */\n  pop\n    /* \"#utility.yul\":3337:3339   */\n  0x40\n    /* \"#utility.yul\":3363:3427   */\n  tag_118\n    /* \"#utility.yul\":3419:3426   */\n  dup9\n    /* \"#utility.yul\":3410:3416   */\n  dup3\n    /* \"#utility.yul\":3399:3408   */\n  dup10\n    /* \"#utility.yul\":3395:3417   */\n  add\n    /* \"#utility.yul\":3363:3427   */\n  tag_105\n  jump\t// in\ntag_118:\n    /* \"#utility.yul\":3353:3427   */\n  swap4\n  pop\n    /* \"#utility.yul\":3308:3437   */\n  pop\n    /* \"#utility.yul\":3497:3499   */\n  0x60\n    /* \"#utility.yul\":3486:3495   */\n  dup7\n    /* \"#utility.yul\":3482:3500   */\n  add\n    /* \"#utility.yul\":3476:3501   */\n  mload\n    /* \"#utility.yul\":3528:3546   */\n  0xffffffffffffffff\n    /* \"#utility.yul\":3520:3526   */\n  dup2\n    /* \"#utility.yul\":3517:3547   */\n  gt\n    /* \"#utility.yul\":3514:3631   */\n  iszero\n  tag_119\n  jumpi\n    /* \"#utility.yul\":3550:3629   */\n  tag_120\n  tag_116\n  jump\t// in\ntag_120:\n    /* \"#utility.yul\":3514:3631   */\ntag_119:\n    /* \"#utility.yul\":3655:3754   */\n  tag_121\n    /* \"#utility.yul\":3746:3753   */\n  dup9\n    /* \"#utility.yul\":3737:3743   */\n  dup3\n    /* \"#utility.yul\":3726:3735   */\n  dup10\n    /* \"#utility.yul\":3722:3744   */\n  add\n    /* \"#utility.yul\":3655:3754   */\n  tag_96\n  jump\t// in\ntag_121:\n    /* \"#utility.yul\":3645:3754   */\n  swap3\n  pop\n    /* \"#utility.yul\":3447:3764   */\n  pop\n    /* \"#utility.yul\":3824:3827   */\n  0x80\n    /* \"#utility.yul\":3813:3822   */\n  dup7\n    /* \"#utility.yul\":3809:3828   */\n  add\n    /* \"#utility.yul\":3803:3829   */\n  mload\n    /* \"#utility.yul\":3856:3874   */\n  0xffffffffffffffff\n    /* \"#utility.yul\":3848:3854   */\n  dup2\n    /* \"#utility.yul\":3845:3875   */\n  gt\n    /* \"#utility.yul\":3842:3959   */\n  iszero\n  tag_122\n  jumpi\n    /* \"#utility.yul\":3878:3957   */\n  tag_123\n  tag_116\n  jump\t// in\ntag_123:\n    /* \"#utility.yul\":3842:3959   */\ntag_122:\n    /* \"#utility.yul\":3983:4057   */\n  tag_124\n    /* \"#utility.yul\":4049:4056   */\n  dup9\n    /* \"#utility.yul\":4040:4046   */\n  dup3\n    /* \"#utility.yul\":4029:4038   */\n  dup10\n    /* \"#utility.yul\":4025:4047   */\n  add\n    /* \"#utility.yul\":3983:4057   */\n  tag_81\n  jump\t// in\ntag_124:\n    /* \"#utility.yul\":3973:4057   */\n  swap2\n  pop\n    /* \"#utility.yul\":3774:4067   */\n  pop\n    /* \"#utility.yul\":2528:4074   */\n  swap3\n  swap6\n  pop\n  swap3\n  swap6\n  swap1\n  swap4\n  pop\n  jump\t// out\n    /* \"#utility.yul\":4080:4457   */\ntag_125:\n    /* \"#utility.yul\":4186:4189   */\n  0x00\n    /* \"#utility.yul\":4214:4253   */\n  tag_127\n    /* \"#utility.yul\":4247:4252   */\n  dup3\n    /* \"#utility.yul\":4214:4253   */\n  tag_128\n  jump\t// in\ntag_127:\n    /* \"#utility.yul\":4269:4358   */\n  tag_129\n    /* \"#utility.yul\":4351:4357   */\n  dup2\n    /* \"#utility.yul\":4346:4349   */\n  dup6\n    /* \"#utility.yul\":4269:4358   */\n  tag_130\n  jump\t// in\ntag_129:\n    /* \"#utility.yul\":4262:4358   */\n  swap4\n  pop\n    /* \"#utility.yul\":4367:4419   */\n  tag_131\n    /* \"#utility.yul\":4412:4418   */\n  dup2\n    /* \"#utility.yul\":4407:4410   */\n  dup6\n    /* \"#utility.yul\":4400:4404   */\n  0x20\n    /* \"#utility.yul\":4393:4398   */\n  dup7\n    /* \"#utility.yul\":4389:4405   */\n  add\n    /* \"#utility.yul\":4367:4419   */\n  tag_91\n  jump\t// in\ntag_131:\n    /* \"#utility.yul\":4444:4450   */\n  dup1\n    /* \"#utility.yul\":4439:4442   */\n  dup5\n    /* \"#utility.yul\":4435:4451   */\n  add\n    /* \"#utility.yul\":4428:4451   */\n  swap2\n  pop\n    /* \"#utility.yul\":4190:4457   */\n  pop\n    /* \"#utility.yul\":4080:4457   */\n  swap3\n  swap2\n  pop\n  pop\n  jump\t// out\n    /* \"#utility.yul\":4487:5332   */\ntag_132:\n    /* \"#utility.yul\":4590:4593   */\n  0x00\n    /* \"#utility.yul\":4627:4632   */\n  dup2\n    /* \"#utility.yul\":4621:4633   */\n  sload\n    /* \"#utility.yul\":4656:4692   */\n  tag_134\n    /* \"#utility.yul\":4682:4691   */\n  dup2\n    /* \"#utility.yul\":4656:4692   */\n  tag_40\n  jump\t// in\ntag_134:\n    /* \"#utility.yul\":4708:4797   */\n  tag_135\n    /* \"#utility.yul\":4790:4796   */\n  dup2\n    /* \"#utility.yul\":4785:4788   */\n  dup7\n    /* \"#utility.yul\":4708:4797   */\n  tag_130\n  jump\t// in\ntag_135:\n    /* \"#utility.yul\":4701:4797   */\n  swap5\n  pop\n    /* \"#utility.yul\":4828:4829   */\n  0x01\n    /* \"#utility.yul\":4817:4826   */\n  dup3\n    /* \"#utility.yul\":4813:4830   */\n  and\n    /* \"#utility.yul\":4844:4845   */\n  0x00\n    /* \"#utility.yul\":4839:4976   */\n  dup2\n  eq\n  tag_137\n  jumpi\n    /* \"#utility.yul\":4990:4991   */\n  0x01\n    /* \"#utility.yul\":4985:5326   */\n  dup2\n  eq\n  tag_138\n  jumpi\n    /* \"#utility.yul\":4806:5326   */\n  jump(tag_136)\n    /* \"#utility.yul\":4839:4976   */\ntag_137:\n    /* \"#utility.yul\":4923:4927   */\n  0xff\n    /* \"#utility.yul\":4919:4928   */\n  not\n    /* \"#utility.yul\":4908:4917   */\n  dup4\n    /* \"#utility.yul\":4904:4929   */\n  and\n    /* \"#utility.yul\":4899:4902   */\n  dup7\n    /* \"#utility.yul\":4892:4930   */\n  mstore\n    /* \"#utility.yul\":4959:4965   */\n  dup2\n    /* \"#utility.yul\":4954:4957   */\n  dup7\n    /* \"#utility.yul\":4950:4966   */\n  add\n    /* \"#utility.yul\":4943:4966   */\n  swap4\n  pop\n    /* \"#utility.yul\":4839:4976   */\n  jump(tag_136)\n    /* \"#utility.yul\":4985:5326   */\ntag_138:\n    /* \"#utility.yul\":5052:5090   */\n  tag_139\n    /* \"#utility.yul\":5084:5089   */\n  dup6\n    /* \"#utility.yul\":5052:5090   */\n  tag_140\n  jump\t// in\ntag_139:\n    /* \"#utility.yul\":5112:5113   */\n  0x00\n    /* \"#utility.yul\":5126:5280   */\ntag_141:\n    /* \"#utility.yul\":5140:5146   */\n  dup4\n    /* \"#utility.yul\":5137:5138   */\n  dup2\n    /* \"#utility.yul\":5134:5147   */\n  lt\n    /* \"#utility.yul\":5126:5280   */\n  iszero\n  tag_143\n  jumpi\n    /* \"#utility.yul\":5214:5221   */\n  dup2\n    /* \"#utility.yul\":5208:5222   */\n  sload\n    /* \"#utility.yul\":5204:5205   */\n  dup2\n    /* \"#utility.yul\":5199:5202   */\n  dup10\n    /* \"#utility.yul\":5195:5206   */\n  add\n    /* \"#utility.yul\":5188:5223   */\n  mstore\n    /* \"#utility.yul\":5264:5265   */\n  0x01\n    /* \"#utility.yul\":5255:5262   */\n  dup3\n    /* \"#utility.yul\":5251:5266   */\n  add\n    /* \"#utility.yul\":5240:5266   */\n  swap2\n  pop\n    /* \"#utility.yul\":5162:5166   */\n  0x20\n    /* \"#utility.yul\":5159:5160   */\n  dup2\n    /* \"#utility.yul\":5155:5167   */\n  add\n    /* \"#utility.yul\":5150:5167   */\n  swap1\n  pop\n    /* \"#utility.yul\":5126:5280   */\n  jump(tag_141)\ntag_143:\n    /* \"#utility.yul\":5309:5315   */\n  dup4\n    /* \"#utility.yul\":5304:5307   */\n  dup9\n    /* \"#utility.yul\":5300:5316   */\n  add\n    /* \"#utility.yul\":5293:5316   */\n  swap6\n  pop\n    /* \"#utility.yul\":4992:5326   */\n  pop\n  pop\n    /* \"#utility.yul\":4806:5326   */\ntag_136:\n  pop\n    /* \"#utility.yul\":4594:5332   */\n  pop\n  pop\n    /* \"#utility.yul\":4487:5332   */\n  swap3\n  swap2\n  pop\n  pop\n  jump\t// out\n    /* \"#utility.yul\":5338:5738   */\ntag_144:\n    /* \"#utility.yul\":5498:5501   */\n  0x00\n    /* \"#utility.yul\":5519:5603   */\n  tag_146\n    /* \"#utility.yul\":5601:5602   */\n  0x06\n    /* \"#utility.yul\":5596:5599   */\n  dup4\n    /* \"#utility.yul\":5519:5603   */\n  tag_130\n  jump\t// in\ntag_146:\n    /* \"#utility.yul\":5512:5603   */\n  swap2\n  pop\n    /* \"#utility.yul\":5612:5705   */\n  tag_147\n    /* \"#utility.yul\":5701:5704   */\n  dup3\n    /* \"#utility.yul\":5612:5705   */\n  tag_148\n  jump\t// in\ntag_147:\n    /* \"#utility.yul\":5730:5731   */\n  0x06\n    /* \"#utility.yul\":5725:5728   */\n  dup3\n    /* \"#utility.yul\":5721:5732   */\n  add\n    /* \"#utility.yul\":5714:5732   */\n  swap1\n  pop\n    /* \"#utility.yul\":5338:5738   */\n  swap2\n  swap1\n  pop\n  jump\t// out\n    /* \"#utility.yul\":5744:6019   */\ntag_18:\n    /* \"#utility.yul\":5876:5879   */\n  0x00\n    /* \"#utility.yul\":5898:5993   */\n  tag_150\n    /* \"#utility.yul\":5989:5992   */\n  dup3\n    /* \"#utility.yul\":5980:5986   */\n  dup5\n    /* \"#utility.yul\":5898:5993   */\n  tag_125\n  jump\t// in\ntag_150:\n    /* \"#utility.yul\":5891:5993   */\n  swap2\n  pop\n    /* \"#utility.yul\":6010:6013   */\n  dup2\n    /* \"#utility.yul\":6003:6013   */\n  swap1\n  pop\n    /* \"#utility.yul\":5744:6019   */\n  swap3\n  swap2\n  pop\n  pop\n  jump\t// out\n    /* \"#utility.yul\":6025:6294   */\ntag_35:\n    /* \"#utility.yul\":6154:6157   */\n  0x00\n    /* \"#utility.yul\":6176:6268   */\n  tag_152\n    /* \"#utility.yul\":6264:6267   */\n  dup3\n    /* \"#utility.yul\":6255:6261   */\n  dup5\n    /* \"#utility.yul\":6176:6268   */\n  tag_132\n  jump\t// in\ntag_152:\n    /* \"#utility.yul\":6169:6268   */\n  swap2\n  pop\n    /* \"#utility.yul\":6285:6288   */\n  dup2\n    /* \"#utility.yul\":6278:6288   */\n  swap1\n  pop\n    /* \"#utility.yul\":6025:6294   */\n  swap3\n  swap2\n  pop\n  pop\n  jump\t// out\n    /* \"#utility.yul\":6300:6681   */\ntag_16:\n    /* \"#utility.yul\":6485:6488   */\n  0x00\n    /* \"#utility.yul\":6507:6655   */\n  tag_154\n    /* \"#utility.yul\":6651:6654   */\n  dup3\n    /* \"#utility.yul\":6507:6655   */\n  tag_144\n  jump\t// in\ntag_154:\n    /* \"#utility.yul\":6500:6655   */\n  swap2\n  pop\n    /* \"#utility.yul\":6672:6675   */\n  dup2\n    /* \"#utility.yul\":6665:6675   */\n  swap1\n  pop\n    /* \"#utility.yul\":6300:6681   */\n  swap2\n  swap1\n  pop\n  jump\t// out\n    /* \"#utility.yul\":6687:6816   */\ntag_70:\n    /* \"#utility.yul\":6721:6727   */\n  0x00\n    /* \"#utility.yul\":6748:6768   */\n  tag_156\n  tag_157\n  jump\t// in\ntag_156:\n    /* \"#utility.yul\":6738:6768   */\n  swap1\n  pop\n    /* \"#utility.yul\":6777:6810   */\n  tag_158\n    /* \"#utility.yul\":6805:6809   */\n  dup3\n    /* \"#utility.yul\":6797:6803   */\n  dup3\n    /* \"#utility.yul\":6777:6810   */\n  tag_159\n  jump\t// in\ntag_158:\n    /* \"#utility.yul\":6687:6816   */\n  swap2\n  swap1\n  pop\n  jump\t// out\n    /* \"#utility.yul\":6822:6897   */\ntag_157:\n    /* \"#utility.yul\":6855:6861   */\n  0x00\n    /* \"#utility.yul\":6888:6890   */\n  0x40\n    /* \"#utility.yul\":6882:6891   */\n  mload\n    /* \"#utility.yul\":6872:6891   */\n  swap1\n  pop\n    /* \"#utility.yul\":6822:6897   */\n  swap1\n  jump\t// out\n    /* \"#utility.yul\":6903:7224   */\ntag_69:\n    /* \"#utility.yul\":6990:6994   */\n  0x00\n    /* \"#utility.yul\":7080:7098   */\n  0xffffffffffffffff\n    /* \"#utility.yul\":7072:7078   */\n  dup3\n    /* \"#utility.yul\":7069:7099   */\n  gt\n    /* \"#utility.yul\":7066:7122   */\n  iszero\n  tag_162\n  jumpi\n    /* \"#utility.yul\":7102:7120   */\n  tag_163\n  tag_164\n  jump\t// in\ntag_163:\n    /* \"#utility.yul\":7066:7122   */\ntag_162:\n    /* \"#utility.yul\":7152:7156   */\n  0x20\n    /* \"#utility.yul\":7144:7150   */\n  dup3\n    /* \"#utility.yul\":7140:7157   */\n  mul\n    /* \"#utility.yul\":7132:7157   */\n  swap1\n  pop\n    /* \"#utility.yul\":7212:7216   */\n  0x20\n    /* \"#utility.yul\":7206:7210   */\n  dup2\n    /* \"#utility.yul\":7202:7217   */\n  add\n    /* \"#utility.yul\":7194:7217   */\n  swap1\n  pop\n    /* \"#utility.yul\":6903:7224   */\n  swap2\n  swap1\n  pop\n  jump\t// out\n    /* \"#utility.yul\":7230:7538   */\ntag_86:\n    /* \"#utility.yul\":7292:7296   */\n  0x00\n    /* \"#utility.yul\":7382:7400   */\n  0xffffffffffffffff\n    /* \"#utility.yul\":7374:7380   */\n  dup3\n    /* \"#utility.yul\":7371:7401   */\n  gt\n    /* \"#utility.yul\":7368:7424   */\n  iszero\n  tag_166\n  jumpi\n    /* \"#utility.yul\":7404:7422   */\n  tag_167\n  tag_164\n  jump\t// in\ntag_167:\n    /* \"#utility.yul\":7368:7424   */\ntag_166:\n    /* \"#utility.yul\":7442:7471   */\n  tag_168\n    /* \"#utility.yul\":7464:7470   */\n  dup3\n    /* \"#utility.yul\":7442:7471   */\n  tag_169\n  jump\t// in\ntag_168:\n    /* \"#utility.yul\":7434:7471   */\n  swap1\n  pop\n    /* \"#utility.yul\":7526:7530   */\n  0x20\n    /* \"#utility.yul\":7520:7524   */\n  dup2\n    /* \"#utility.yul\":7516:7531   */\n  add\n    /* \"#utility.yul\":7508:7531   */\n  swap1\n  pop\n    /* \"#utility.yul\":7230:7538   */\n  swap2\n  swap1\n  pop\n  jump\t// out\n    /* \"#utility.yul\":7544:7685   */\ntag_140:\n    /* \"#utility.yul\":7593:7597   */\n  0x00\n    /* \"#utility.yul\":7616:7619   */\n  dup2\n    /* \"#utility.yul\":7608:7619   */\n  swap1\n  pop\n    /* \"#utility.yul\":7639:7642   */\n  dup2\n    /* \"#utility.yul\":7636:7637   */\n  0x00\n    /* \"#utility.yul\":7629:7643   */\n  mstore\n    /* \"#utility.yul\":7673:7677   */\n  0x20\n    /* \"#utility.yul\":7670:7671   */\n  0x00\n    /* \"#utility.yul\":7660:7678   */\n  keccak256\n    /* \"#utility.yul\":7652:7678   */\n  swap1\n  pop\n    /* \"#utility.yul\":7544:7685   */\n  swap2\n  swap1\n  pop\n  jump\t// out\n    /* \"#utility.yul\":7691:7790   */\ntag_128:\n    /* \"#utility.yul\":7743:7749   */\n  0x00\n    /* \"#utility.yul\":7777:7782   */\n  dup2\n    /* \"#utility.yul\":7771:7783   */\n  mload\n    /* \"#utility.yul\":7761:7783   */\n  swap1\n  pop\n    /* \"#utility.yul\":7691:7790   */\n  swap2\n  swap1\n  pop\n  jump\t// out\n    /* \"#utility.yul\":7796:7944   */\ntag_130:\n    /* \"#utility.yul\":7898:7909   */\n  0x00\n    /* \"#utility.yul\":7935:7938   */\n  dup2\n    /* \"#utility.yul\":7920:7938   */\n  swap1\n  pop\n    /* \"#utility.yul\":7796:7944   */\n  swap3\n  swap2\n  pop\n  pop\n  jump\t// out\n    /* \"#utility.yul\":7950:8255   */\ntag_11:\n    /* \"#utility.yul\":7990:7993   */\n  0x00\n    /* \"#utility.yul\":8009:8029   */\n  tag_174\n    /* \"#utility.yul\":8027:8028   */\n  dup3\n    /* \"#utility.yul\":8009:8029   */\n  tag_175\n  jump\t// in\ntag_174:\n    /* \"#utility.yul\":8004:8029   */\n  swap2\n  pop\n    /* \"#utility.yul\":8043:8063   */\n  tag_176\n    /* \"#utility.yul\":8061:8062   */\n  dup4\n    /* \"#utility.yul\":8043:8063   */\n  tag_175\n  jump\t// in\ntag_176:\n    /* \"#utility.yul\":8038:8063   */\n  swap3\n  pop\n    /* \"#utility.yul\":8197:8198   */\n  dup3\n    /* \"#utility.yul\":8129:8195   */\n  0xffffffffffffffffffffffffffffffffffffffffffffffffffffffffffffffff\n    /* \"#utility.yul\":8125:8199   */\n  sub\n    /* \"#utility.yul\":8122:8123   */\n  dup3\n    /* \"#utility.yul\":8119:8200   */\n  gt\n    /* \"#utility.yul\":8116:8223   */\n  iszero\n  tag_177\n  jumpi\n    /* \"#utility.yul\":8203:8221   */\n  tag_178\n  tag_179\n  jump\t// in\ntag_178:\n    /* \"#utility.yul\":8116:8223   */\ntag_177:\n    /* \"#utility.yul\":8247:8248   */\n  dup3\n    /* \"#utility.yul\":8244:8245   */\n  dup3\n    /* \"#utility.yul\":8240:8249   */\n  add\n    /* \"#utility.yul\":8233:8249   */\n  swap1\n  pop\n    /* \"#utility.yul\":7950:8255   */\n  swap3\n  swap2\n  pop\n  pop\n  jump\t// out\n    /* \"#utility.yul\":8261:8357   */\ntag_180:\n    /* \"#utility.yul\":8298:8305   */\n  0x00\n    /* \"#utility.yul\":8327:8351   */\n  tag_182\n    /* \"#utility.yul\":8345:8350   */\n  dup3\n    /* \"#utility.yul\":8327:8351   */\n  tag_183\n  jump\t// in\ntag_182:\n    /* \"#utility.yul\":8316:8351   */\n  swap1\n  pop\n    /* \"#utility.yul\":8261:8357   */\n  swap2\n  swap1\n  pop\n  jump\t// out\n    /* \"#utility.yul\":8363:8489   */\ntag_183:\n    /* \"#utility.yul\":8400:8407   */\n  0x00\n    /* \"#utility.yul\":8440:8482   */\n  0xffffffffffffffffffffffffffffffffffffffff\n    /* \"#utility.yul\":8433:8438   */\n  dup3\n    /* \"#utility.yul\":8429:8483   */\n  and\n    /* \"#utility.yul\":8418:8483   */\n  swap1\n  pop\n    /* \"#utility.yul\":8363:8489   */\n  swap2\n  swap1\n  pop\n  jump\t// out\n    /* \"#utility.yul\":8495:8572   */\ntag_175:\n    /* \"#utility.yul\":8532:8539   */\n  0x00\n    /* \"#utility.yul\":8561:8566   */\n  dup2\n    /* \"#utility.yul\":8550:8566   */\n  swap1\n  pop\n    /* \"#utility.yul\":8495:8572   */\n  swap2\n  swap1\n  pop\n  jump\t// out\n    /* \"#utility.yul\":8578:8885   */\ntag_91:\n    /* \"#utility.yul\":8646:8647   */\n  0x00\n    /* \"#utility.yul\":8656:8769   */\ntag_187:\n    /* \"#utility.yul\":8670:8676   */\n  dup4\n    /* \"#utility.yul\":8667:8668   */\n  dup2\n    /* \"#utility.yul\":8664:8677   */\n  lt\n    /* \"#utility.yul\":8656:8769   */\n  iszero\n  tag_189\n  jumpi\n    /* \"#utility.yul\":8755:8756   */\n  dup1\n    /* \"#utility.yul\":8750:8753   */\n  dup3\n    /* \"#utility.yul\":8746:8757   */\n  add\n    /* \"#utility.yul\":8740:8758   */\n  mload\n    /* \"#utility.yul\":8736:8737   */\n  dup2\n    /* \"#utility.yul\":8731:8734   */\n  dup5\n    /* \"#utility.yul\":8727:8738   */\n  add\n    /* \"#utility.yul\":8720:8759   */\n  mstore\n    /* \"#utility.yul\":8692:8694   */\n  0x20\n    /* \"#utility.yul\":8689:8690   */\n  dup2\n    /* \"#utility.yul\":8685:8695   */\n  add\n    /* \"#utility.yul\":8680:8695   */\n  swap1\n  pop\n    /* \"#utility.yul\":8656:8769   */\n  jump(tag_187)\ntag_189:\n    /* \"#utility.yul\":8787:8793   */\n  dup4\n    /* \"#utility.yul\":8784:8785   */\n  dup2\n    /* \"#utility.yul\":8781:8794   */\n  gt\n    /* \"#utility.yul\":8778:8879   */\n  iszero\n  tag_190\n  jumpi\n    /* \"#utility.yul\":8867:8868   */\n  0x00\n    /* \"#utility.yul\":8858:8864   */\n  dup5\n    /* \"#utility.yul\":8853:8856   */\n  dup5\n    /* \"#utility.yul\":8849:8865   */\n  add\n    /* \"#utility.yul\":8842:8869   */\n  mstore\n    /* \"#utility.yul\":8778:8879   */\ntag_190:\n    /* \"#utility.yul\":8627:8885   */\n  pop\n    /* \"#utility.yul\":8578:8885   */\n  pop\n  pop\n  pop\n  jump\t// out\n    /* \"#utility.yul\":8891:9211   */\ntag_40:\n    /* \"#utility.yul\":8935:8941   */\n  0x00\n    /* \"#utility.yul\":8972:8973   */\n  0x02\n    /* \"#utility.yul\":8966:8970   */\n  dup3\n    /* \"#utility.yul\":8962:8974   */\n  div\n    /* \"#utility.yul\":8952:8974   */\n  swap1\n  pop\n    /* \"#utility.yul\":9019:9020   */\n  0x01\n    /* \"#utility.yul\":9013:9017   */\n  dup3\n    /* \"#utility.yul\":9009:9021   */\n  and\n    /* \"#utility.yul\":9040:9058   */\n  dup1\n    /* \"#utility.yul\":9030:9111   */\n  tag_192\n  jumpi\n    /* \"#utility.yul\":9096:9100   */\n  0x7f\n    /* \"#utility.yul\":9088:9094   */\n  dup3\n    /* \"#utility.yul\":9084:9101   */\n  and\n    /* \"#utility.yul\":9074:9101   */\n  swap2\n  pop\n    /* \"#utility.yul\":9030:9111   */\ntag_192:\n    /* \"#utility.yul\":9158:9160   */\n  0x20\n    /* \"#utility.yul\":9150:9156   */\n  dup3\n    /* \"#utility.yul\":9147:9161   */\n  lt\n    /* \"#utility.yul\":9127:9145   */\n  dup2\n    /* \"#utility.yul\":9124:9162   */\n  eq\n    /* \"#utility.yul\":9121:9205   */\n  iszero\n  tag_193\n  jumpi\n    /* \"#utility.yul\":9177:9195   */\n  tag_194\n  tag_195\n  jump\t// in\ntag_194:\n    /* \"#utility.yul\":9121:9205   */\ntag_193:\n    /* \"#utility.yul\":8942:9211   */\n  pop\n    /* \"#utility.yul\":8891:9211   */\n  swap2\n  swap1\n  pop\n  jump\t// out\n    /* \"#utility.yul\":9217:9498   */\ntag_159:\n    /* \"#utility.yul\":9300:9327   */\n  tag_197\n    /* \"#utility.yul\":9322:9326   */\n  dup3\n    /* \"#utility.yul\":9300:9327   */\n  tag_169\n  jump\t// in\ntag_197:\n    /* \"#utility.yul\":9292:9298   */\n  dup2\n    /* \"#utility.yul\":9288:9328   */\n  add\n    /* \"#utility.yul\":9430:9436   */\n  dup2\n    /* \"#utility.yul\":9418:9428   */\n  dup2\n    /* \"#utility.yul\":9415:9437   */\n  lt\n    /* \"#utility.yul\":9394:9412   */\n  0xffffffffffffffff\n    /* \"#utility.yul\":9382:9392   */\n  dup3\n    /* \"#utility.yul\":9379:9413   */\n  gt\n    /* \"#utility.yul\":9376:9438   */\n  or\n    /* \"#utility.yul\":9373:9461   */\n  iszero\n  tag_198\n  jumpi\n    /* \"#utility.yul\":9441:9459   */\n  tag_199\n  tag_164\n  jump\t// in\ntag_199:\n    /* \"#utility.yul\":9373:9461   */\ntag_198:\n    /* \"#utility.yul\":9481:9491   */\n  dup1\n    /* \"#utility.yul\":9477:9479   */\n  0x40\n    /* \"#utility.yul\":9470:9492   */\n  mstore\n    /* \"#utility.yul\":9260:9498   */\n  pop\n    /* \"#utility.yul\":9217:9498   */\n  pop\n  pop\n  jump\t// out\n    /* \"#utility.yul\":9504:9737   */\ntag_37:\n    /* \"#utility.yul\":9543:9546   */\n  0x00\n    /* \"#utility.yul\":9566:9590   */\n  tag_201\n    /* \"#utility.yul\":9584:9589   */\n  dup3\n    /* \"#utility.yul\":9566:9590   */\n  tag_175\n  jump\t// in\ntag_201:\n    /* \"#utility.yul\":9557:9590   */\n  swap2\n  pop\n    /* \"#utility.yul\":9612:9678   */\n  0xffffffffffffffffffffffffffffffffffffffffffffffffffffffffffffffff\n    /* \"#utility.yul\":9605:9610   */\n  dup3\n    /* \"#utility.yul\":9602:9679   */\n  eq\n    /* \"#utility.yul\":9599:9702   */\n  iszero\n  tag_202\n  jumpi\n    /* \"#utility.yul\":9682:9700   */\n  tag_203\n  tag_179\n  jump\t// in\ntag_203:\n    /* \"#utility.yul\":9599:9702   */\ntag_202:\n    /* \"#utility.yul\":9729:9730   */\n  0x01\n    /* \"#utility.yul\":9722:9727   */\n  dup3\n    /* \"#utility.yul\":9718:9731   */\n  add\n    /* \"#utility.yul\":9711:9731   */\n  swap1\n  pop\n    /* \"#utility.yul\":9504:9737   */\n  swap2\n  swap1\n  pop\n  jump\t// out\n    /* \"#utility.yul\":9743:9923   */\ntag_179:\n    /* \"#utility.yul\":9791:9868   */\n  0x4e487b7100000000000000000000000000000000000000000000000000000000\n    /* \"#utility.yul\":9788:9789   */\n  0x00\n    /* \"#utility.yul\":9781:9869   */\n  mstore\n    /* \"#utility.yul\":9888:9892   */\n  0x11\n    /* \"#utility.yul\":9885:9886   */\n  0x04\n    /* \"#utility.yul\":9878:9893   */\n  mstore\n    /* \"#utility.yul\":9912:9916   */\n  0x24\n    /* \"#utility.yul\":9909:9910   */\n  0x00\n    /* \"#utility.yul\":9902:9917   */\n  revert\n    /* \"#utility.yul\":9929:10109   */\ntag_14:\n    /* \"#utility.yul\":9977:10054   */\n  0x4e487b7100000000000000000000000000000000000000000000000000000000\n    /* \"#utility.yul\":9974:9975   */\n  0x00\n    /* \"#utility.yul\":9967:10055   */\n  mstore\n    /* \"#utility.yul\":10074:10078   */\n  0x21\n    /* \"#utility.yul\":10071:10072   */\n  0x04\n    /* \"#utility.yul\":10064:10079   */\n  mstore\n    /* \"#utility.yul\":10098:10102   */\n  0x24\n    /* \"#utility.yul\":10095:10096   */\n  0x00\n    /* \"#utility.yul\":10088:10103   */\n  revert\n    /* \"#utility.yul\":10115:10295   */\ntag_195:\n    /* \"#utility.yul\":10163:10240   */\n  0x4e487b7100000000000000000000000000000000000000000000000000000000\n    /* \"#utility.yul\":10160:10161   */\n  0x00\n    /* \"#utility.yul\":10153:10241   */\n  mstore\n    /* \"#utility.yul\":10260:10264   */\n  0x22\n    /* \"#utility.yul\":10257:10258   */\n  0x04\n    /* \"#utility.yul\":10250:10265   */\n  mstore\n    /* \"#utility.yul\":10284:10288   */\n  0x24\n    /* \"#utility.yul\":10281:10282   */\n  0x00\n    /* \"#utility.yul\":10274:10289   */\n  revert\n    /* \"#utility.yul\":10301:10481   */\ntag_32:\n    /* \"#utility.yul\":10349:10426   */\n  0x4e487b7100000000000000000000000000000000000000000000000000000000\n    /* \"#utility.yul\":10346:10347   */\n  0x00\n    /* \"#utility.yul\":10339:10427   */\n  mstore\n    /* \"#utility.yul\":10446:10450   */\n  0x32\n    /* \"#utility.yul\":10443:10444   */\n  0x04\n    /* \"#utility.yul\":10436:10451   */\n  mstore\n    /* \"#utility.yul\":10470:10474   */\n  0x24\n    /* \"#utility.yul\":10467:10468   */\n  0x00\n    /* \"#utility.yul\":10460:10475   */\n  revert\n    /* \"#utility.yul\":10487:10667   */\ntag_164:\n    /* \"#utility.yul\":10535:10612   */\n  0x4e487b7100000000000000000000000000000000000000000000000000000000\n    /* \"#utility.yul\":10532:10533   */\n  0x00\n    /* \"#utility.yul\":10525:10613   */\n  mstore\n    /* \"#utility.yul\":10632:10636   */\n  0x41\n    /* \"#utility.yul\":10629:10630   */\n  0x04\n    /* \"#utility.yul\":10622:10637   */\n  mstore\n    /* \"#utility.yul\":10656:10660   */\n  0x24\n    /* \"#utility.yul\":10653:10654   */\n  0x00\n    /* \"#utility.yul\":10646:10661   */\n  revert\n    /* \"#utility.yul\":10673:10790   */\ntag_79:\n    /* \"#utility.yul\":10782:10783   */\n  0x00\n    /* \"#utility.yul\":10779:10780   */\n  dup1\n    /* \"#utility.yul\":10772:10784   */\n  revert\n    /* \"#utility.yul\":10796:10913   */\ntag_73:\n    /* \"#utility.yul\":10905:10906   */\n  0x00\n    /* \"#utility.yul\":10902:10903   */\n  dup1\n    /* \"#utility.yul\":10895:10907   */\n  revert\n    /* \"#utility.yul\":10919:11036   */\ntag_89:\n    /* \"#utility.yul\":11028:11029   */\n  0x00\n    /* \"#utility.yul\":11025:11026   */\n  dup1\n    /* \"#utility.yul\":11018:11030   */\n  revert\n    /* \"#utility.yul\":11042:11159   */\ntag_116:\n    /* \"#utility.yul\":11151:11152   */\n  0x00\n    /* \"#utility.yul\":11148:11149   */\n  dup1\n    /* \"#utility.yul\":11141:11153   */\n  revert\n    /* \"#utility.yul\":11165:11282   */\ntag_112:\n    /* \"#utility.yul\":11274:11275   */\n  0x00\n    /* \"#utility.yul\":11271:11272   */\n  dup1\n    /* \"#utility.yul\":11264:11276   */\n  revert\n    /* \"#utility.yul\":11288:11390   */\ntag_169:\n    /* \"#utility.yul\":11329:11335   */\n  0x00\n    /* \"#utility.yul\":11380:11382   */\n  0x1f\n    /* \"#utility.yul\":11376:11383   */\n  not\n    /* \"#utility.yul\":11371:11373   */\n  0x1f\n    /* \"#utility.yul\":11364:11369   */\n  dup4\n    /* \"#utility.yul\":11360:11374   */\n  add\n    /* \"#utility.yul\":11356:11384   */\n  and\n    /* \"#utility.yul\":11346:11384   */\n  swap1\n  pop\n    /* \"#utility.yul\":11288:11390   */\n  swap2\n  swap1\n  pop\n  jump\t// out\n    /* \"#utility.yul\":11396:11552   */\ntag_148:\n    /* \"#utility.yul\":11536:11544   */\n  0x5075626c69630000000000000000000000000000000000000000000000000000\n    /* \"#utility.yul\":11532:11533   */\n  0x00\n    /* \"#utility.yul\":11524:11530   */\n  dup3\n    /* \"#utility.yul\":11520:11534   */\n  add\n    /* \"#utility.yul\":11513:11545   */\n  mstore\n    /* \"#utility.yul\":11396:11552   */\n  pop\n  jump\t// out\n    /* \"#utility.yul\":11558:11680   */\ntag_95:\n    /* \"#utility.yul\":11631:11655   */\n  tag_217\n    /* \"#utility.yul\":11649:11654   */\n  dup2\n    /* \"#utility.yul\":11631:11655   */\n  tag_180\n  jump\t// in\ntag_217:\n    /* \"#utility.yul\":11624:11629   */\n  dup2\n    /* \"#utility.yul\":11621:11656   */\n  eq\n    /* \"#utility.yul\":11611:11674   */\n  tag_218\n  jumpi\n    /* \"#utility.yul\":11670:11671   */\n  0x00\n    /* \"#utility.yul\":11667:11668   */\n  dup1\n    /* \"#utility.yul\":11660:11672   */\n  revert\n    /* \"#utility.yul\":11611:11674   */\ntag_218:\n    /* \"#utility.yul\":11558:11680   */\n  pop\n  jump\t// out\n    /* \"#utility.yul\":11686:11808   */\ntag_108:\n    /* \"#utility.yul\":11759:11783   */\n  tag_220\n    /* \"#utility.yul\":11777:11782   */\n  dup2\n    /* \"#utility.yul\":11759:11783   */\n  tag_175\n  jump\t// in\ntag_220:\n    /* \"#utility.yul\":11752:11757   */\n  dup2\n    /* \"#utility.yul\":11749:11784   */\n  eq\n    /* \"#utility.yul\":11739:11802   */\n  tag_221\n  jumpi\n    /* \"#utility.yul\":11798:11799   */\n  0x00\n    /* \"#utility.yul\":11795:11796   */\n  dup1\n    /* \"#utility.yul\":11788:11800   */\n  revert\n    /* \"#utility.yul\":11739:11802   */\ntag_221:\n    /* \"#utility.yul\":11686:11808   */\n  pop\n  jump\t// out\n    /* \"contracts/pollio.sol\":921:3212  contract Poll {... */\ntag_38:\n  dataSize(sub_0)\n  dup1\n  dataOffset(sub_0)\n  0x00\n  codecopy\n  0x00\n  return\nstop\n\nsub_0: assembly {\n        /* \"contracts/pollio.sol\":921:3212  contract Poll {... */\n      mstore(0x40, 0x80)\n      callvalue\n      dup1\n      iszero\n      tag_1\n      jumpi\n      0x00\n      dup1\n      revert\n    tag_1:\n      pop\n      jumpi(tag_2, lt(calldatasize, 0x04))\n      shr(0xe0, calldataload(0x00))\n      dup1\n      0x8f58d353\n      gt\n      tag_15\n      jumpi\n      dup1\n      0x8f58d353\n      eq\n      tag_9\n      jumpi\n      dup1\n      0xb73b396b\n      eq\n      tag_10\n      jumpi\n      dup1\n      0xba0c45c9\n      eq\n      tag_11\n      jumpi\n      dup1\n      0xc04752d8\n      eq\n      tag_12\n      jumpi\n      dup1\n      0xc308b0dc\n      eq\n      tag_13\n      jumpi\n      dup1\n      0xcc1e2cb0\n      eq\n      tag_14\n      jumpi\n      jump(tag_2)\n    tag_15:\n      dup1\n      0x083c6323\n      eq\n      tag_3\n      jumpi\n      dup1\n      0x18769765\n      eq\n      tag_4\n      jumpi\n      dup1\n      0x237637a8\n      eq\n      tag_5\n      jumpi\n      dup1\n      0x3477ee2e\n      eq\n      tag_6\n      jumpi\n      dup1\n      0x48cd4cb1\n      eq\n      tag_7\n      jumpi\n      dup1\n      0x498cc70d\n      eq\n      tag_8\n      jumpi\n    tag_2:\n      0x00\n      dup1\n      revert\n        /* \"contracts/pollio.sol\":1061:1081  uint public endBlock */\n    tag_3:\n      tag_16\n      tag_17\n      jump\t// in\n    tag_16:\n      mload(0x40)\n      tag_18\n      swap2\n      swap1\n      tag_19\n      jump\t// in\n    tag_18:\n      mload(0x40)\n      dup1\n      swap2\n      sub\n      swap1\n      return\n        /* \"contracts/pollio.sol\":973:995  string public pollName */\n    tag_4:\n      tag_20\n      tag_21\n      jump\t// in\n    tag_20:\n      mload(0x40)\n      tag_22\n      swap2\n      swap1\n      tag_23\n      jump\t// in\n    tag_22:\n      mload(0x40)\n      dup1\n      swap2\n      sub\n      swap1\n      return\n        /* \"contracts/pollio.sol\":1120:1140  Type public pollType */\n    tag_5:\n      tag_24\n      tag_25\n      jump\t// in\n    tag_24:\n      mload(0x40)\n      tag_26\n      swap2\n      swap1\n      tag_27\n      jump\t// in\n    tag_26:\n      mload(0x40)\n      dup1\n      swap2\n      sub\n      swap1\n      return\n        /* \"contracts/pollio.sol\":1001:1027  string[] public candidates */\n    tag_6:\n      tag_28\n      0x04\n      dup1\n      calldatasize\n      sub\n      dup2\n      add\n      swap1\n      tag_29\n      swap2\n      swap1\n      tag_30\n      jump\t// in\n    tag_29:\n      tag_31\n      jump\t// in\n    tag_28:\n      mload(0x40)\n      tag_32\n      swap2\n      swap1\n      tag_23\n      jump\t// in\n    tag_32:\n      mload(0x40)\n      dup1\n      swap2\n      sub\n      swap1\n      return\n        /* \"contracts/pollio.sol\":1033:1055  uint public startBlock */\n    tag_7:\n      tag_33\n      tag_34\n      jump\t// in\n    tag_33:\n      mload(0x40)\n      tag_35\n      swap2\n      swap1\n      tag_19\n      jump\t// in\n    tag_35:\n      mload(0x40)\n      dup1\n      swap2\n      sub\n      swap1\n      return\n        /* \"contracts/pollio.sol\":3067:3210  function getResult(... */\n    tag_8:\n      tag_36\n      0x04\n      dup1\n      calldatasize\n      sub\n      dup2\n      add\n      swap1\n      tag_37\n      swap2\n      swap1\n      tag_38\n      jump\t// in\n    tag_37:\n      tag_39\n      jump\t// in\n    tag_36:\n      mload(0x40)\n      tag_40\n      swap2\n      swap1\n      tag_19\n      jump\t// in\n    tag_40:\n      mload(0x40)\n      dup1\n      swap2\n      sub\n      swap1\n      return\n        /* \"contracts/pollio.sol\":1199:1221  State public pollState */\n    tag_9:\n      tag_41\n      tag_42\n      jump\t// in\n    tag_41:\n      mload(0x40)\n      tag_43\n      swap2\n      swap1\n      tag_44\n      jump\t// in\n    tag_43:\n      mload(0x40)\n      dup1\n      swap2\n      sub\n      swap1\n      return\n        /* \"contracts/pollio.sol\":2980:3061  function cancelPoll() public onlyOrg {... */\n    tag_10:\n      tag_45\n      tag_46\n      jump\t// in\n    tag_45:\n      stop\n        /* \"contracts/pollio.sol\":2568:2683  function increasePollDuration(uint pollDuration) public onlyOrg {... */\n    tag_11:\n      tag_47\n      0x04\n      dup1\n      calldatasize\n      sub\n      dup2\n      add\n      swap1\n      tag_48\n      swap2\n      swap1\n      tag_30\n      jump\t// in\n    tag_48:\n      tag_49\n      jump\t// in\n    tag_47:\n      stop\n        /* \"contracts/pollio.sol\":2689:2974  function voteFor(string memory candidate) public beforeEnd afterStart {... */\n    tag_12:\n      tag_50\n      0x04\n      dup1\n      calldatasize\n      sub\n      dup2\n      add\n      swap1\n      tag_51\n      swap2\n      swap1\n      tag_38\n      jump\t// in\n    tag_51:\n      tag_52\n      jump\t// in\n    tag_50:\n      stop\n        /* \"contracts/pollio.sol\":2475:2562  function renamePoll(string memory name) public onlyOrg {... */\n    tag_13:\n      tag_53\n      0x04\n      dup1\n      calldatasize\n      sub\n      dup2\n      add\n      swap1\n      tag_54\n      swap2\n      swap1\n      tag_38\n      jump\t// in\n    tag_54:\n      tag_55\n      jump\t// in\n    tag_53:\n      stop\n        /* \"contracts/pollio.sol\":941:967  address payable public org */\n    tag_14:\n      tag_56\n      tag_57\n      jump\t// in\n    tag_56:\n      mload(0x40)\n      tag_58\n      swap2\n      swap1\n      tag_59\n      jump\t// in\n    tag_58:\n      mload(0x40)\n      dup1\n      swap2\n      sub\n      swap1\n      return\n        /* \"contracts/pollio.sol\":1061:1081  uint public endBlock */\n    tag_17:\n      sload(0x04)\n      dup2\n      jump\t// out\n        /* \"contracts/pollio.sol\":973:995  string public pollName */\n    tag_21:\n      0x01\n      dup1\n      sload\n      tag_60\n      swap1\n      tag_61\n      jump\t// in\n    tag_60:\n      dup1\n      0x1f\n      add\n      0x20\n      dup1\n      swap2\n      div\n      mul\n      0x20\n      add\n      mload(0x40)\n      swap1\n      dup2\n      add\n      0x40\n      mstore\n      dup1\n      swap3\n      swap2\n      swap1\n      dup2\n      dup2\n      mstore\n      0x20\n      add\n      dup3\n      dup1\n      sload\n      tag_62\n      swap1\n      tag_61\n      jump\t// in\n    tag_62:\n      dup1\n      iszero\n      tag_63\n      jumpi\n      dup1\n      0x1f\n      lt\n      tag_64\n      jumpi\n      0x0100\n      dup1\n      dup4\n      sload\n      div\n      mul\n      dup4\n      mstore\n      swap2\n      0x20\n      add\n      swap2\n      jump(tag_63)\n    tag_64:\n      dup3\n      add\n      swap2\n      swap1\n      0x00\n      mstore\n      keccak256(0x00, 0x20)\n      swap1\n    tag_65:\n      dup2\n      sload\n      dup2\n      mstore\n      swap1\n      0x01\n      add\n      swap1\n      0x20\n      add\n      dup1\n      dup4\n      gt\n      tag_65\n      jumpi\n      dup3\n      swap1\n      sub\n      0x1f\n      and\n      dup3\n      add\n      swap2\n    tag_63:\n      pop\n      pop\n      pop\n      pop\n      pop\n      dup2\n      jump\t// out\n        /* \"contracts/pollio.sol\":1120:1140  Type public pollType */\n    tag_25:\n      0x05\n      0x00\n      swap1\n      sload\n      swap1\n      0x0100\n      exp\n      swap1\n      div\n      0xff\n      and\n      dup2\n      jump\t// out\n        /* \"contracts/pollio.sol\":1001:1027  string[] public candidates */\n    tag_31:\n      0x02\n      dup2\n      dup2\n      sload\n      dup2\n      lt\n      tag_66\n      jumpi\n      0x00\n      dup1\n      revert\n    tag_66:\n      swap1\n      0x00\n      mstore\n      keccak256(0x00, 0x20)\n      add\n      0x00\n      swap2\n      pop\n      swap1\n      pop\n      dup1\n      sload\n      tag_68\n      swap1\n      tag_61\n      jump\t// in\n    tag_68:\n      dup1\n      0x1f\n      add\n      0x20\n      dup1\n      swap2\n      div\n      mul\n      0x20\n      add\n      mload(0x40)\n      swap1\n      dup2\n      add\n      0x40\n      mstore\n      dup1\n      swap3\n      swap2\n      swap1\n      dup2\n      dup2\n      mstore\n      0x20\n      add\n      dup3\n      dup1\n      sload\n      tag_69\n      swap1\n      tag_61\n      jump\t// in\n    tag_69:\n      dup1\n      iszero\n      tag_70\n      jumpi\n      dup1\n      0x1f\n      lt\n      tag_71\n      jumpi\n      0x0100\n      dup1\n      dup4\n      sload\n      div\n      mul\n      dup4\n      mstore\n      swap2\n      0x20\n      add\n      swap2\n      jump(tag_70)\n    tag_71:\n      dup3\n      add\n      swap2\n      swap1\n      0x00\n      mstore\n      keccak256(0x00, 0x20)\n      swap1\n    tag_72:\n      dup2\n      sload\n      dup2\n      mstore\n      swap1\n      0x01\n      add\n      swap1\n      0x20\n      add\n      dup1\n      dup4\n      gt\n      tag_72\n      jumpi\n      dup3\n      swap1\n      sub\n      0x1f\n      and\n      dup3\n      add\n      swap2\n    tag_70:\n      pop\n      pop\n      pop\n      pop\n      pop\n      dup2\n      jump\t// out\n        /* \"contracts/pollio.sol\":1033:1055  uint public startBlock */\n    tag_34:\n      sload(0x03)\n      dup2\n      jump\t// out\n        /* \"contracts/pollio.sol\":3067:3210  function getResult(... */\n    tag_39:\n        /* \"contracts/pollio.sol\":3163:3167  uint */\n      0x00\n        /* \"contracts/pollio.sol\":2324:2336  Type.Private */\n      0x01\n        /* \"contracts/pollio.sol\":2312:2336  pollType == Type.Private */\n      dup1\n      dup2\n      gt\n      iszero\n      tag_74\n      jumpi\n      tag_75\n      tag_76\n      jump\t// in\n    tag_75:\n    tag_74:\n        /* \"contracts/pollio.sol\":2312:2320  pollType */\n      0x05\n      0x00\n      swap1\n      sload\n      swap1\n      0x0100\n      exp\n      swap1\n      div\n      0xff\n      and\n        /* \"contracts/pollio.sol\":2312:2336  pollType == Type.Private */\n      0x01\n      dup2\n      gt\n      iszero\n      tag_77\n      jumpi\n      tag_78\n      tag_76\n      jump\t// in\n    tag_78:\n    tag_77:\n      eq\n        /* \"contracts/pollio.sol\":2308:2463  if (pollType == Type.Private) {... */\n      iszero\n      tag_79\n      jumpi\n        /* \"contracts/pollio.sol\":2367:2377  msg.sender */\n      caller\n        /* \"contracts/pollio.sol\":2360:2377  org == msg.sender */\n      0xffffffffffffffffffffffffffffffffffffffff\n      and\n        /* \"contracts/pollio.sol\":2360:2363  org */\n      0x00\n      dup1\n      sload\n      swap1\n      0x0100\n      exp\n      swap1\n      div\n      0xffffffffffffffffffffffffffffffffffffffff\n      and\n        /* \"contracts/pollio.sol\":2360:2377  org == msg.sender */\n      0xffffffffffffffffffffffffffffffffffffffff\n      and\n      eq\n        /* \"contracts/pollio.sol\":2352:2405  require(org == msg.sender, \"This is a private poll.\") */\n      tag_80\n      jumpi\n      mload(0x40)\n      0x08c379a000000000000000000000000000000000000000000000000000000000\n      dup2\n      mstore\n      0x04\n      add\n      tag_81\n      swap1\n      tag_82\n      jump\t// in\n    tag_81:\n      mload(0x40)\n      dup1\n      swap2\n      sub\n      swap1\n      revert\n    tag_80:\n        /* \"contracts/pollio.sol\":3186:3192  result */\n      0x07\n        /* \"contracts/pollio.sol\":3193:3202  candidate */\n      dup3\n        /* \"contracts/pollio.sol\":3186:3203  result[candidate] */\n      mload(0x40)\n      tag_84\n      swap2\n      swap1\n      tag_85\n      jump\t// in\n    tag_84:\n      swap1\n      dup2\n      mstore\n      0x20\n      add\n      mload(0x40)\n      dup1\n      swap2\n      sub\n      swap1\n      keccak256\n      sload\n        /* \"contracts/pollio.sol\":3179:3203  return result[candidate] */\n      swap1\n      pop\n        /* \"contracts/pollio.sol\":2308:2463  if (pollType == Type.Private) {... */\n      jump(tag_86)\n    tag_79:\n        /* \"contracts/pollio.sol\":3186:3192  result */\n      0x07\n        /* \"contracts/pollio.sol\":3193:3202  candidate */\n      dup3\n        /* \"contracts/pollio.sol\":3186:3203  result[candidate] */\n      mload(0x40)\n      tag_88\n      swap2\n      swap1\n      tag_85\n      jump\t// in\n    tag_88:\n      swap1\n      dup2\n      mstore\n      0x20\n      add\n      mload(0x40)\n      dup1\n      swap2\n      sub\n      swap1\n      keccak256\n      sload\n        /* \"contracts/pollio.sol\":3179:3203  return result[candidate] */\n      swap1\n      pop\n        /* \"contracts/pollio.sol\":2308:2463  if (pollType == Type.Private) {... */\n    tag_86:\n        /* \"contracts/pollio.sol\":3067:3210  function getResult(... */\n      swap2\n      swap1\n      pop\n      jump\t// out\n        /* \"contracts/pollio.sol\":1199:1221  State public pollState */\n    tag_42:\n      0x05\n      0x01\n      swap1\n      sload\n      swap1\n      0x0100\n      exp\n      swap1\n      div\n      0xff\n      and\n      dup2\n      jump\t// out\n        /* \"contracts/pollio.sol\":2980:3061  function cancelPoll() public onlyOrg {... */\n    tag_46:\n        /* \"contracts/pollio.sol\":2063:2073  msg.sender */\n      caller\n        /* \"contracts/pollio.sol\":2056:2073  org == msg.sender */\n      0xffffffffffffffffffffffffffffffffffffffff\n      and\n        /* \"contracts/pollio.sol\":2056:2059  org */\n      0x00\n      dup1\n      sload\n      swap1\n      0x0100\n      exp\n      swap1\n      div\n      0xffffffffffffffffffffffffffffffffffffffff\n      and\n        /* \"contracts/pollio.sol\":2056:2073  org == msg.sender */\n      0xffffffffffffffffffffffffffffffffffffffff\n      and\n      eq\n        /* \"contracts/pollio.sol\":2048:2074  require(org == msg.sender) */\n      tag_90\n      jumpi\n      0x00\n      dup1\n      revert\n    tag_90:\n        /* \"contracts/pollio.sol\":3039:3054  State.Cancelled */\n      0x02\n        /* \"contracts/pollio.sol\":3027:3036  pollState */\n      0x05\n      0x01\n        /* \"contracts/pollio.sol\":3027:3054  pollState = State.Cancelled */\n      0x0100\n      exp\n      dup2\n      sload\n      dup2\n      0xff\n      mul\n      not\n      and\n      swap1\n      dup4\n      0x03\n      dup2\n      gt\n      iszero\n      tag_92\n      jumpi\n      tag_93\n      tag_76\n      jump\t// in\n    tag_93:\n    tag_92:\n      mul\n      or\n      swap1\n      sstore\n      pop\n        /* \"contracts/pollio.sol\":2980:3061  function cancelPoll() public onlyOrg {... */\n      jump\t// out\n        /* \"contracts/pollio.sol\":2568:2683  function increasePollDuration(uint pollDuration) public onlyOrg {... */\n    tag_49:\n        /* \"contracts/pollio.sol\":2063:2073  msg.sender */\n      caller\n        /* \"contracts/pollio.sol\":2056:2073  org == msg.sender */\n      0xffffffffffffffffffffffffffffffffffffffff\n      and\n        /* \"contracts/pollio.sol\":2056:2059  org */\n      0x00\n      dup1\n      sload\n      swap1\n      0x0100\n      exp\n      swap1\n      div\n      0xffffffffffffffffffffffffffffffffffffffff\n      and\n        /* \"contracts/pollio.sol\":2056:2073  org == msg.sender */\n      0xffffffffffffffffffffffffffffffffffffffff\n      and\n      eq\n        /* \"contracts/pollio.sol\":2048:2074  require(org == msg.sender) */\n      tag_95\n      jumpi\n      0x00\n      dup1\n      revert\n    tag_95:\n        /* \"contracts/pollio.sol\":2664:2676  pollDuration */\n      dup1\n        /* \"contracts/pollio.sol\":2653:2661  endBlock */\n      sload(0x04)\n        /* \"contracts/pollio.sol\":2653:2676  endBlock + pollDuration */\n      tag_97\n      swap2\n      swap1\n      tag_98\n      jump\t// in\n    tag_97:\n        /* \"contracts/pollio.sol\":2642:2650  endBlock */\n      0x04\n        /* \"contracts/pollio.sol\":2642:2676  endBlock = endBlock + pollDuration */\n      dup2\n      swap1\n      sstore\n      pop\n        /* \"contracts/pollio.sol\":2568:2683  function increasePollDuration(uint pollDuration) public onlyOrg {... */\n      pop\n      jump\t// out\n        /* \"contracts/pollio.sol\":2689:2974  function voteFor(string memory candidate) public beforeEnd afterStart {... */\n    tag_52:\n        /* \"contracts/pollio.sol\":2150:2158  endBlock */\n      sload(0x04)\n        /* \"contracts/pollio.sol\":2135:2147  block.number */\n      number\n        /* \"contracts/pollio.sol\":2135:2158  block.number < endBlock */\n      lt\n        /* \"contracts/pollio.sol\":2127:2159  require(block.number < endBlock) */\n      tag_100\n      jumpi\n      0x00\n      dup1\n      revert\n    tag_100:\n        /* \"contracts/pollio.sol\":2236:2246  startBlock */\n      sload(0x03)\n        /* \"contracts/pollio.sol\":2221:2233  block.number */\n      number\n        /* \"contracts/pollio.sol\":2221:2246  block.number > startBlock */\n      gt\n        /* \"contracts/pollio.sol\":2213:2247  require(block.number > startBlock) */\n      tag_102\n      jumpi\n      0x00\n      dup1\n      revert\n    tag_102:\n        /* \"contracts/pollio.sol\":2790:2805  State.Cancelled */\n      0x02\n        /* \"contracts/pollio.sol\":2777:2805  pollState != State.Cancelled */\n      0x03\n      dup2\n      gt\n      iszero\n      tag_104\n      jumpi\n      tag_105\n      tag_76\n      jump\t// in\n    tag_105:\n    tag_104:\n        /* \"contracts/pollio.sol\":2777:2786  pollState */\n      0x05\n      0x01\n      swap1\n      sload\n      swap1\n      0x0100\n      exp\n      swap1\n      div\n      0xff\n      and\n        /* \"contracts/pollio.sol\":2777:2805  pollState != State.Cancelled */\n      0x03\n      dup2\n      gt\n      iszero\n      tag_106\n      jumpi\n      tag_107\n      tag_76\n      jump\t// in\n    tag_107:\n    tag_106:\n      eq\n      iszero\n        /* \"contracts/pollio.sol\":2769:2806  require(pollState != State.Cancelled) */\n      tag_108\n      jumpi\n      0x00\n      dup1\n      revert\n    tag_108:\n        /* \"contracts/pollio.sol\":2816:2829  address voter */\n      0x00\n        /* \"contracts/pollio.sol\":2832:2842  msg.sender */\n      caller\n        /* \"contracts/pollio.sol\":2816:2842  address voter = msg.sender */\n      swap1\n      pop\n        /* \"contracts/pollio.sol\":2861:2868  isVoted */\n      0x06\n        /* \"contracts/pollio.sol\":2861:2875  isVoted[voter] */\n      0x00\n        /* \"contracts/pollio.sol\":2869:2874  voter */\n      dup3\n        /* \"contracts/pollio.sol\":2861:2875  isVoted[voter] */\n      0xffffffffffffffffffffffffffffffffffffffff\n      and\n      0xffffffffffffffffffffffffffffffffffffffff\n      and\n      dup2\n      mstore\n      0x20\n      add\n      swap1\n      dup2\n      mstore\n      0x20\n      add\n      0x00\n      keccak256\n      0x00\n      swap1\n      sload\n      swap1\n      0x0100\n      exp\n      swap1\n      div\n      0xff\n      and\n        /* \"contracts/pollio.sol\":2860:2875  !isVoted[voter] */\n      iszero\n        /* \"contracts/pollio.sol\":2852:2903  require(!isVoted[voter], \"You have already voted!\") */\n      tag_109\n      jumpi\n      mload(0x40)\n      0x08c379a000000000000000000000000000000000000000000000000000000000\n      dup2\n      mstore\n      0x04\n      add\n      tag_110\n      swap1\n      tag_111\n      jump\t// in\n    tag_110:\n      mload(0x40)\n      dup1\n      swap2\n      sub\n      swap1\n      revert\n    tag_109:\n        /* \"contracts/pollio.sol\":2931:2935  true */\n      0x01\n        /* \"contracts/pollio.sol\":2914:2921  isVoted */\n      0x06\n        /* \"contracts/pollio.sol\":2914:2928  isVoted[voter] */\n      0x00\n        /* \"contracts/pollio.sol\":2922:2927  voter */\n      dup4\n        /* \"contracts/pollio.sol\":2914:2928  isVoted[voter] */\n      0xffffffffffffffffffffffffffffffffffffffff\n      and\n      0xffffffffffffffffffffffffffffffffffffffff\n      and\n      dup2\n      mstore\n      0x20\n      add\n      swap1\n      dup2\n      mstore\n      0x20\n      add\n      0x00\n      keccak256\n      0x00\n        /* \"contracts/pollio.sol\":2914:2935  isVoted[voter] = true */\n      0x0100\n      exp\n      dup2\n      sload\n      dup2\n      0xff\n      mul\n      not\n      and\n      swap1\n      dup4\n      iszero\n      iszero\n      mul\n      or\n      swap1\n      sstore\n      pop\n        /* \"contracts/pollio.sol\":2966:2967  1 */\n      0x01\n        /* \"contracts/pollio.sol\":2945:2951  result */\n      0x07\n        /* \"contracts/pollio.sol\":2952:2961  candidate */\n      dup4\n        /* \"contracts/pollio.sol\":2945:2962  result[candidate] */\n      mload(0x40)\n      tag_112\n      swap2\n      swap1\n      tag_85\n      jump\t// in\n    tag_112:\n      swap1\n      dup2\n      mstore\n      0x20\n      add\n      mload(0x40)\n      dup1\n      swap2\n      sub\n      swap1\n      keccak256\n      0x00\n        /* \"contracts/pollio.sol\":2945:2967  result[candidate] += 1 */\n      dup3\n      dup3\n      sload\n      tag_113\n      swap2\n      swap1\n      tag_98\n      jump\t// in\n    tag_113:\n      swap3\n      pop\n      pop\n      dup2\n      swap1\n      sstore\n      pop\n        /* \"contracts/pollio.sol\":2759:2974  {... */\n      pop\n        /* \"contracts/pollio.sol\":2689:2974  function voteFor(string memory candidate) public beforeEnd afterStart {... */\n      pop\n      jump\t// out\n        /* \"contracts/pollio.sol\":2475:2562  function renamePoll(string memory name) public onlyOrg {... */\n    tag_55:\n        /* \"contracts/pollio.sol\":2063:2073  msg.sender */\n      caller\n        /* \"contracts/pollio.sol\":2056:2073  org == msg.sender */\n      0xffffffffffffffffffffffffffffffffffffffff\n      and\n        /* \"contracts/pollio.sol\":2056:2059  org */\n      0x00\n      dup1\n      sload\n      swap1\n      0x0100\n      exp\n      swap1\n      div\n      0xffffffffffffffffffffffffffffffffffffffff\n      and\n        /* \"contracts/pollio.sol\":2056:2073  org == msg.sender */\n      0xffffffffffffffffffffffffffffffffffffffff\n      and\n      eq\n        /* \"contracts/pollio.sol\":2048:2074  require(org == msg.sender) */\n      tag_115\n      jumpi\n      0x00\n      dup1\n      revert\n    tag_115:\n        /* \"contracts/pollio.sol\":2551:2555  name */\n      dup1\n        /* \"contracts/pollio.sol\":2540:2548  pollName */\n      0x01\n        /* \"contracts/pollio.sol\":2540:2555  pollName = name */\n      swap1\n      dup1\n      mload\n      swap1\n      0x20\n      add\n      swap1\n      tag_117\n      swap3\n      swap2\n      swap1\n      tag_118\n      jump\t// in\n    tag_117:\n      pop\n        /* \"contracts/pollio.sol\":2475:2562  function renamePoll(string memory name) public onlyOrg {... */\n      pop\n      jump\t// out\n        /* \"contracts/pollio.sol\":941:967  address payable public org */\n    tag_57:\n      0x00\n      dup1\n      sload\n      swap1\n      0x0100\n      exp\n      swap1\n      div\n      0xffffffffffffffffffffffffffffffffffffffff\n      and\n      dup2\n      jump\t// out\n    tag_118:\n      dup3\n      dup1\n      sload\n      tag_119\n      swap1\n      tag_61\n      jump\t// in\n    tag_119:\n      swap1\n      0x00\n      mstore\n      keccak256(0x00, 0x20)\n      swap1\n      0x1f\n      add\n      0x20\n      swap1\n      div\n      dup2\n      add\n      swap3\n      dup3\n      tag_121\n      jumpi\n      0x00\n      dup6\n      sstore\n      jump(tag_120)\n    tag_121:\n      dup3\n      0x1f\n      lt\n      tag_122\n      jumpi\n      dup1\n      mload\n      not(0xff)\n      and\n      dup4\n      dup1\n      add\n      or\n      dup6\n      sstore\n      jump(tag_120)\n    tag_122:\n      dup3\n      dup1\n      add\n      0x01\n      add\n      dup6\n      sstore\n      dup3\n      iszero\n      tag_120\n      jumpi\n      swap2\n      dup3\n      add\n    tag_123:\n      dup3\n      dup2\n      gt\n      iszero\n      tag_124\n      jumpi\n      dup3\n      mload\n      dup3\n      sstore\n      swap2\n      0x20\n      add\n      swap2\n      swap1\n      0x01\n      add\n      swap1\n      jump(tag_123)\n    tag_124:\n    tag_120:\n      pop\n      swap1\n      pop\n      tag_125\n      swap2\n      swap1\n      tag_126\n      jump\t// in\n    tag_125:\n      pop\n      swap1\n      jump\t// out\n    tag_126:\n    tag_127:\n      dup1\n      dup3\n      gt\n      iszero\n      tag_128\n      jumpi\n      0x00\n      dup2\n      0x00\n      swap1\n      sstore\n      pop\n      0x01\n      add\n      jump(tag_127)\n    tag_128:\n      pop\n      swap1\n      jump\t// out\n        /* \"#utility.yul\":7:419   */\n    tag_130:\n        /* \"#utility.yul\":85:90   */\n      0x00\n        /* \"#utility.yul\":110:176   */\n      tag_132\n        /* \"#utility.yul\":126:175   */\n      tag_133\n        /* \"#utility.yul\":168:174   */\n      dup5\n        /* \"#utility.yul\":126:175   */\n      tag_134\n      jump\t// in\n    tag_133:\n        /* \"#utility.yul\":110:176   */\n      tag_135\n      jump\t// in\n    tag_132:\n        /* \"#utility.yul\":101:176   */\n      swap1\n      pop\n        /* \"#utility.yul\":199:205   */\n      dup3\n        /* \"#utility.yul\":192:197   */\n      dup2\n        /* \"#utility.yul\":185:206   */\n      mstore\n        /* \"#utility.yul\":237:241   */\n      0x20\n        /* \"#utility.yul\":230:235   */\n      dup2\n        /* \"#utility.yul\":226:242   */\n      add\n        /* \"#utility.yul\":275:278   */\n      dup5\n        /* \"#utility.yul\":266:272   */\n      dup5\n        /* \"#utility.yul\":261:264   */\n      dup5\n        /* \"#utility.yul\":257:273   */\n      add\n        /* \"#utility.yul\":254:279   */\n      gt\n        /* \"#utility.yul\":251:363   */\n      iszero\n      tag_136\n      jumpi\n        /* \"#utility.yul\":282:361   */\n      tag_137\n      tag_138\n      jump\t// in\n    tag_137:\n        /* \"#utility.yul\":251:363   */\n    tag_136:\n        /* \"#utility.yul\":372:413   */\n      tag_139\n        /* \"#utility.yul\":406:412   */\n      dup5\n        /* \"#utility.yul\":401:404   */\n      dup3\n        /* \"#utility.yul\":396:399   */\n      dup6\n        /* \"#utility.yul\":372:413   */\n      tag_140\n      jump\t// in\n    tag_139:\n        /* \"#utility.yul\":91:419   */\n      pop\n        /* \"#utility.yul\":7:419   */\n      swap4\n      swap3\n      pop\n      pop\n      pop\n      jump\t// out\n        /* \"#utility.yul\":439:779   */\n    tag_141:\n        /* \"#utility.yul\":495:500   */\n      0x00\n        /* \"#utility.yul\":544:547   */\n      dup3\n        /* \"#utility.yul\":537:541   */\n      0x1f\n        /* \"#utility.yul\":529:535   */\n      dup4\n        /* \"#utility.yul\":525:542   */\n      add\n        /* \"#utility.yul\":521:548   */\n      slt\n        /* \"#utility.yul\":511:633   */\n      tag_143\n      jumpi\n        /* \"#utility.yul\":552:631   */\n      tag_144\n      tag_145\n      jump\t// in\n    tag_144:\n        /* \"#utility.yul\":511:633   */\n    tag_143:\n        /* \"#utility.yul\":669:675   */\n      dup2\n        /* \"#utility.yul\":656:676   */\n      calldataload\n        /* \"#utility.yul\":694:773   */\n      tag_146\n        /* \"#utility.yul\":769:772   */\n      dup5\n        /* \"#utility.yul\":761:767   */\n      dup3\n        /* \"#utility.yul\":754:758   */\n      0x20\n        /* \"#utility.yul\":746:752   */\n      dup7\n        /* \"#utility.yul\":742:759   */\n      add\n        /* \"#utility.yul\":694:773   */\n      tag_130\n      jump\t// in\n    tag_146:\n        /* \"#utility.yul\":685:773   */\n      swap2\n      pop\n        /* \"#utility.yul\":501:779   */\n      pop\n        /* \"#utility.yul\":439:779   */\n      swap3\n      swap2\n      pop\n      pop\n      jump\t// out\n        /* \"#utility.yul\":785:924   */\n    tag_147:\n        /* \"#utility.yul\":831:836   */\n      0x00\n        /* \"#utility.yul\":869:875   */\n      dup2\n        /* \"#utility.yul\":856:876   */\n      calldataload\n        /* \"#utility.yul\":847:876   */\n      swap1\n      pop\n        /* \"#utility.yul\":885:918   */\n      tag_149\n        /* \"#utility.yul\":912:917   */\n      dup2\n        /* \"#utility.yul\":885:918   */\n      tag_150\n      jump\t// in\n    tag_149:\n        /* \"#utility.yul\":785:924   */\n      swap3\n      swap2\n      pop\n      pop\n      jump\t// out\n        /* \"#utility.yul\":930:1439   */\n    tag_38:\n        /* \"#utility.yul\":999:1005   */\n      0x00\n        /* \"#utility.yul\":1048:1050   */\n      0x20\n        /* \"#utility.yul\":1036:1045   */\n      dup3\n        /* \"#utility.yul\":1027:1034   */\n      dup5\n        /* \"#utility.yul\":1023:1046   */\n      sub\n        /* \"#utility.yul\":1019:1051   */\n      slt\n        /* \"#utility.yul\":1016:1135   */\n      iszero\n      tag_152\n      jumpi\n        /* \"#utility.yul\":1054:1133   */\n      tag_153\n      tag_154\n      jump\t// in\n    tag_153:\n        /* \"#utility.yul\":1016:1135   */\n    tag_152:\n        /* \"#utility.yul\":1202:1203   */\n      0x00\n        /* \"#utility.yul\":1191:1200   */\n      dup3\n        /* \"#utility.yul\":1187:1204   */\n      add\n        /* \"#utility.yul\":1174:1205   */\n      calldataload\n        /* \"#utility.yul\":1232:1250   */\n      0xffffffffffffffff\n        /* \"#utility.yul\":1224:1230   */\n      dup2\n        /* \"#utility.yul\":1221:1251   */\n      gt\n        /* \"#utility.yul\":1218:1335   */\n      iszero\n      tag_155\n      jumpi\n        /* \"#utility.yul\":1254:1333   */\n      tag_156\n      tag_157\n      jump\t// in\n    tag_156:\n        /* \"#utility.yul\":1218:1335   */\n    tag_155:\n        /* \"#utility.yul\":1359:1422   */\n      tag_158\n        /* \"#utility.yul\":1414:1421   */\n      dup5\n        /* \"#utility.yul\":1405:1411   */\n      dup3\n        /* \"#utility.yul\":1394:1403   */\n      dup6\n        /* \"#utility.yul\":1390:1412   */\n      add\n        /* \"#utility.yul\":1359:1422   */\n      tag_141\n      jump\t// in\n    tag_158:\n        /* \"#utility.yul\":1349:1422   */\n      swap2\n      pop\n        /* \"#utility.yul\":1145:1432   */\n      pop\n        /* \"#utility.yul\":930:1439   */\n      swap3\n      swap2\n      pop\n      pop\n      jump\t// out\n        /* \"#utility.yul\":1445:1774   */\n    tag_30:\n        /* \"#utility.yul\":1504:1510   */\n      0x00\n        /* \"#utility.yul\":1553:1555   */\n      0x20\n        /* \"#utility.yul\":1541:1550   */\n      dup3\n        /* \"#utility.yul\":1532:1539   */\n      dup5\n        /* \"#utility.yul\":1528:1551   */\n      sub\n        /* \"#utility.yul\":1524:1556   */\n      slt\n        /* \"#utility.yul\":1521:1640   */\n      iszero\n      tag_160\n      jumpi\n        /* \"#utility.yul\":1559:1638   */\n      tag_161\n      tag_154\n      jump\t// in\n    tag_161:\n        /* \"#utility.yul\":1521:1640   */\n    tag_160:\n        /* \"#utility.yul\":1679:1680   */\n      0x00\n        /* \"#utility.yul\":1704:1757   */\n      tag_162\n        /* \"#utility.yul\":1749:1756   */\n      dup5\n        /* \"#utility.yul\":1740:1746   */\n      dup3\n        /* \"#utility.yul\":1729:1738   */\n      dup6\n        /* \"#utility.yul\":1725:1747   */\n      add\n        /* \"#utility.yul\":1704:1757   */\n      tag_147\n      jump\t// in\n    tag_162:\n        /* \"#utility.yul\":1694:1757   */\n      swap2\n      pop\n        /* \"#utility.yul\":1650:1767   */\n      pop\n        /* \"#utility.yul\":1445:1774   */\n      swap3\n      swap2\n      pop\n      pop\n      jump\t// out\n        /* \"#utility.yul\":1780:1922   */\n    tag_163:\n        /* \"#utility.yul\":1883:1915   */\n      tag_165\n        /* \"#utility.yul\":1909:1914   */\n      dup2\n        /* \"#utility.yul\":1883:1915   */\n      tag_166\n      jump\t// in\n    tag_165:\n        /* \"#utility.yul\":1878:1881   */\n      dup3\n        /* \"#utility.yul\":1871:1916   */\n      mstore\n        /* \"#utility.yul\":1780:1922   */\n      pop\n      pop\n      jump\t// out\n        /* \"#utility.yul\":1928:2073   */\n    tag_167:\n        /* \"#utility.yul\":2022:2066   */\n      tag_169\n        /* \"#utility.yul\":2060:2065   */\n      dup2\n        /* \"#utility.yul\":2022:2066   */\n      tag_170\n      jump\t// in\n    tag_169:\n        /* \"#utility.yul\":2017:2020   */\n      dup3\n        /* \"#utility.yul\":2010:2067   */\n      mstore\n        /* \"#utility.yul\":1928:2073   */\n      pop\n      pop\n      jump\t// out\n        /* \"#utility.yul\":2079:2222   */\n    tag_171:\n        /* \"#utility.yul\":2172:2215   */\n      tag_173\n        /* \"#utility.yul\":2209:2214   */\n      dup2\n        /* \"#utility.yul\":2172:2215   */\n      tag_174\n      jump\t// in\n    tag_173:\n        /* \"#utility.yul\":2167:2170   */\n      dup3\n        /* \"#utility.yul\":2160:2216   */\n      mstore\n        /* \"#utility.yul\":2079:2222   */\n      pop\n      pop\n      jump\t// out\n        /* \"#utility.yul\":2228:2592   */\n    tag_175:\n        /* \"#utility.yul\":2316:2319   */\n      0x00\n        /* \"#utility.yul\":2344:2383   */\n      tag_177\n        /* \"#utility.yul\":2377:2382   */\n      dup3\n        /* \"#utility.yul\":2344:2383   */\n      tag_178\n      jump\t// in\n    tag_177:\n        /* \"#utility.yul\":2399:2470   */\n      tag_179\n        /* \"#utility.yul\":2463:2469   */\n      dup2\n        /* \"#utility.yul\":2458:2461   */\n      dup6\n        /* \"#utility.yul\":2399:2470   */\n      tag_180\n      jump\t// in\n    tag_179:\n        /* \"#utility.yul\":2392:2470   */\n      swap4\n      pop\n        /* \"#utility.yul\":2479:2531   */\n      tag_181\n        /* \"#utility.yul\":2524:2530   */\n      dup2\n        /* \"#utility.yul\":2519:2522   */\n      dup6\n        /* \"#utility.yul\":2512:2516   */\n      0x20\n        /* \"#utility.yul\":2505:2510   */\n      dup7\n        /* \"#utility.yul\":2501:2517   */\n      add\n        /* \"#utility.yul\":2479:2531   */\n      tag_182\n      jump\t// in\n    tag_181:\n        /* \"#utility.yul\":2556:2585   */\n      tag_183\n        /* \"#utility.yul\":2578:2584   */\n      dup2\n        /* \"#utility.yul\":2556:2585   */\n      tag_184\n      jump\t// in\n    tag_183:\n        /* \"#utility.yul\":2551:2554   */\n      dup5\n        /* \"#utility.yul\":2547:2586   */\n      add\n        /* \"#utility.yul\":2540:2586   */\n      swap2\n      pop\n        /* \"#utility.yul\":2320:2592   */\n      pop\n        /* \"#utility.yul\":2228:2592   */\n      swap3\n      swap2\n      pop\n      pop\n      jump\t// out\n        /* \"#utility.yul\":2598:2975   */\n    tag_185:\n        /* \"#utility.yul\":2704:2707   */\n      0x00\n        /* \"#utility.yul\":2732:2771   */\n      tag_187\n        /* \"#utility.yul\":2765:2770   */\n      dup3\n        /* \"#utility.yul\":2732:2771   */\n      tag_178\n      jump\t// in\n    tag_187:\n        /* \"#utility.yul\":2787:2876   */\n      tag_188\n        /* \"#utility.yul\":2869:2875   */\n      dup2\n        /* \"#utility.yul\":2864:2867   */\n      dup6\n        /* \"#utility.yul\":2787:2876   */\n      tag_189\n      jump\t// in\n    tag_188:\n        /* \"#utility.yul\":2780:2876   */\n      swap4\n      pop\n        /* \"#utility.yul\":2885:2937   */\n      tag_190\n        /* \"#utility.yul\":2930:2936   */\n      dup2\n        /* \"#utility.yul\":2925:2928   */\n      dup6\n        /* \"#utility.yul\":2918:2922   */\n      0x20\n        /* \"#utility.yul\":2911:2916   */\n      dup7\n        /* \"#utility.yul\":2907:2923   */\n      add\n        /* \"#utility.yul\":2885:2937   */\n      tag_182\n      jump\t// in\n    tag_190:\n        /* \"#utility.yul\":2962:2968   */\n      dup1\n        /* \"#utility.yul\":2957:2960   */\n      dup5\n        /* \"#utility.yul\":2953:2969   */\n      add\n        /* \"#utility.yul\":2946:2969   */\n      swap2\n      pop\n        /* \"#utility.yul\":2708:2975   */\n      pop\n        /* \"#utility.yul\":2598:2975   */\n      swap3\n      swap2\n      pop\n      pop\n      jump\t// out\n        /* \"#utility.yul\":2981:3347   */\n    tag_191:\n        /* \"#utility.yul\":3123:3126   */\n      0x00\n        /* \"#utility.yul\":3144:3211   */\n      tag_193\n        /* \"#utility.yul\":3208:3210   */\n      0x17\n        /* \"#utility.yul\":3203:3206   */\n      dup4\n        /* \"#utility.yul\":3144:3211   */\n      tag_180\n      jump\t// in\n    tag_193:\n        /* \"#utility.yul\":3137:3211   */\n      swap2\n      pop\n        /* \"#utility.yul\":3220:3313   */\n      tag_194\n        /* \"#utility.yul\":3309:3312   */\n      dup3\n        /* \"#utility.yul\":3220:3313   */\n      tag_195\n      jump\t// in\n    tag_194:\n        /* \"#utility.yul\":3338:3340   */\n      0x20\n        /* \"#utility.yul\":3333:3336   */\n      dup3\n        /* \"#utility.yul\":3329:3341   */\n      add\n        /* \"#utility.yul\":3322:3341   */\n      swap1\n      pop\n        /* \"#utility.yul\":2981:3347   */\n      swap2\n      swap1\n      pop\n      jump\t// out\n        /* \"#utility.yul\":3353:3719   */\n    tag_196:\n        /* \"#utility.yul\":3495:3498   */\n      0x00\n        /* \"#utility.yul\":3516:3583   */\n      tag_198\n        /* \"#utility.yul\":3580:3582   */\n      0x17\n        /* \"#utility.yul\":3575:3578   */\n      dup4\n        /* \"#utility.yul\":3516:3583   */\n      tag_180\n      jump\t// in\n    tag_198:\n        /* \"#utility.yul\":3509:3583   */\n      swap2\n      pop\n        /* \"#utility.yul\":3592:3685   */\n      tag_199\n        /* \"#utility.yul\":3681:3684   */\n      dup3\n        /* \"#utility.yul\":3592:3685   */\n      tag_200\n      jump\t// in\n    tag_199:\n        /* \"#utility.yul\":3710:3712   */\n      0x20\n        /* \"#utility.yul\":3705:3708   */\n      dup3\n        /* \"#utility.yul\":3701:3713   */\n      add\n        /* \"#utility.yul\":3694:3713   */\n      swap1\n      pop\n        /* \"#utility.yul\":3353:3719   */\n      swap2\n      swap1\n      pop\n      jump\t// out\n        /* \"#utility.yul\":3725:3843   */\n    tag_201:\n        /* \"#utility.yul\":3812:3836   */\n      tag_203\n        /* \"#utility.yul\":3830:3835   */\n      dup2\n        /* \"#utility.yul\":3812:3836   */\n      tag_204\n      jump\t// in\n    tag_203:\n        /* \"#utility.yul\":3807:3810   */\n      dup3\n        /* \"#utility.yul\":3800:3837   */\n      mstore\n        /* \"#utility.yul\":3725:3843   */\n      pop\n      pop\n      jump\t// out\n        /* \"#utility.yul\":3849:4124   */\n    tag_85:\n        /* \"#utility.yul\":3981:3984   */\n      0x00\n        /* \"#utility.yul\":4003:4098   */\n      tag_206\n        /* \"#utility.yul\":4094:4097   */\n      dup3\n        /* \"#utility.yul\":4085:4091   */\n      dup5\n        /* \"#utility.yul\":4003:4098   */\n      tag_185\n      jump\t// in\n    tag_206:\n        /* \"#utility.yul\":3996:4098   */\n      swap2\n      pop\n        /* \"#utility.yul\":4115:4118   */\n      dup2\n        /* \"#utility.yul\":4108:4118   */\n      swap1\n      pop\n        /* \"#utility.yul\":3849:4124   */\n      swap3\n      swap2\n      pop\n      pop\n      jump\t// out\n        /* \"#utility.yul\":4130:4384   */\n    tag_59:\n        /* \"#utility.yul\":4239:4243   */\n      0x00\n        /* \"#utility.yul\":4277:4279   */\n      0x20\n        /* \"#utility.yul\":4266:4275   */\n      dup3\n        /* \"#utility.yul\":4262:4280   */\n      add\n        /* \"#utility.yul\":4254:4280   */\n      swap1\n      pop\n        /* \"#utility.yul\":4290:4377   */\n      tag_208\n        /* \"#utility.yul\":4374:4375   */\n      0x00\n        /* \"#utility.yul\":4363:4372   */\n      dup4\n        /* \"#utility.yul\":4359:4376   */\n      add\n        /* \"#utility.yul\":4350:4356   */\n      dup5\n        /* \"#utility.yul\":4290:4377   */\n      tag_163\n      jump\t// in\n    tag_208:\n        /* \"#utility.yul\":4130:4384   */\n      swap3\n      swap2\n      pop\n      pop\n      jump\t// out\n        /* \"#utility.yul\":4390:4626   */\n    tag_44:\n        /* \"#utility.yul\":4490:4494   */\n      0x00\n        /* \"#utility.yul\":4528:4530   */\n      0x20\n        /* \"#utility.yul\":4517:4526   */\n      dup3\n        /* \"#utility.yul\":4513:4531   */\n      add\n        /* \"#utility.yul\":4505:4531   */\n      swap1\n      pop\n        /* \"#utility.yul\":4541:4619   */\n      tag_210\n        /* \"#utility.yul\":4616:4617   */\n      0x00\n        /* \"#utility.yul\":4605:4614   */\n      dup4\n        /* \"#utility.yul\":4601:4618   */\n      add\n        /* \"#utility.yul\":4592:4598   */\n      dup5\n        /* \"#utility.yul\":4541:4619   */\n      tag_167\n      jump\t// in\n    tag_210:\n        /* \"#utility.yul\":4390:4626   */\n      swap3\n      swap2\n      pop\n      pop\n      jump\t// out\n        /* \"#utility.yul\":4632:4866   */\n    tag_27:\n        /* \"#utility.yul\":4731:4735   */\n      0x00\n        /* \"#utility.yul\":4769:4771   */\n      0x20\n        /* \"#utility.yul\":4758:4767   */\n      dup3\n        /* \"#utility.yul\":4754:4772   */\n      add\n        /* \"#utility.yul\":4746:4772   */\n      swap1\n      pop\n        /* \"#utility.yul\":4782:4859   */\n      tag_212\n        /* \"#utility.yul\":4856:4857   */\n      0x00\n        /* \"#utility.yul\":4845:4854   */\n      dup4\n        /* \"#utility.yul\":4841:4858   */\n      add\n        /* \"#utility.yul\":4832:4838   */\n      dup5\n        /* \"#utility.yul\":4782:4859   */\n      tag_171\n      jump\t// in\n    tag_212:\n        /* \"#utility.yul\":4632:4866   */\n      swap3\n      swap2\n      pop\n      pop\n      jump\t// out\n        /* \"#utility.yul\":4872:5185   */\n    tag_23:\n        /* \"#utility.yul\":4985:4989   */\n      0x00\n        /* \"#utility.yul\":5023:5025   */\n      0x20\n        /* \"#utility.yul\":5012:5021   */\n      dup3\n        /* \"#utility.yul\":5008:5026   */\n      add\n        /* \"#utility.yul\":5000:5026   */\n      swap1\n      pop\n        /* \"#utility.yul\":5072:5081   */\n      dup2\n        /* \"#utility.yul\":5066:5070   */\n      dup2\n        /* \"#utility.yul\":5062:5082   */\n      sub\n        /* \"#utility.yul\":5058:5059   */\n      0x00\n        /* \"#utility.yul\":5047:5056   */\n      dup4\n        /* \"#utility.yul\":5043:5060   */\n      add\n        /* \"#utility.yul\":5036:5083   */\n      mstore\n        /* \"#utility.yul\":5100:5178   */\n      tag_214\n        /* \"#utility.yul\":5173:5177   */\n      dup2\n        /* \"#utility.yul\":5164:5170   */\n      dup5\n        /* \"#utility.yul\":5100:5178   */\n      tag_175\n      jump\t// in\n    tag_214:\n        /* \"#utility.yul\":5092:5178   */\n      swap1\n      pop\n        /* \"#utility.yul\":4872:5185   */\n      swap3\n      swap2\n      pop\n      pop\n      jump\t// out\n        /* \"#utility.yul\":5191:5610   */\n    tag_82:\n        /* \"#utility.yul\":5357:5361   */\n      0x00\n        /* \"#utility.yul\":5395:5397   */\n      0x20\n        /* \"#utility.yul\":5384:5393   */\n      dup3\n        /* \"#utility.yul\":5380:5398   */\n      add\n        /* \"#utility.yul\":5372:5398   */\n      swap1\n      pop\n        /* \"#utility.yul\":5444:5453   */\n      dup2\n        /* \"#utility.yul\":5438:5442   */\n      dup2\n        /* \"#utility.yul\":5434:5454   */\n      sub\n        /* \"#utility.yul\":5430:5431   */\n      0x00\n        /* \"#utility.yul\":5419:5428   */\n      dup4\n        /* \"#utility.yul\":5415:5432   */\n      add\n        /* \"#utility.yul\":5408:5455   */\n      mstore\n        /* \"#utility.yul\":5472:5603   */\n      tag_216\n        /* \"#utility.yul\":5598:5602   */\n      dup2\n        /* \"#utility.yul\":5472:5603   */\n      tag_191\n      jump\t// in\n    tag_216:\n        /* \"#utility.yul\":5464:5603   */\n      swap1\n      pop\n        /* \"#utility.yul\":5191:5610   */\n      swap2\n      swap1\n      pop\n      jump\t// out\n        /* \"#utility.yul\":5616:6035   */\n    tag_111:\n        /* \"#utility.yul\":5782:5786   */\n      0x00\n        /* \"#utility.yul\":5820:5822   */\n      0x20\n        /* \"#utility.yul\":5809:5818   */\n      dup3\n        /* \"#utility.yul\":5805:5823   */\n      add\n        /* \"#utility.yul\":5797:5823   */\n      swap1\n      pop\n        /* \"#utility.yul\":5869:5878   */\n      dup2\n        /* \"#utility.yul\":5863:5867   */\n      dup2\n        /* \"#utility.yul\":5859:5879   */\n      sub\n        /* \"#utility.yul\":5855:5856   */\n      0x00\n        /* \"#utility.yul\":5844:5853   */\n      dup4\n        /* \"#utility.yul\":5840:5857   */\n      add\n        /* \"#utility.yul\":5833:5880   */\n      mstore\n        /* \"#utility.yul\":5897:6028   */\n      tag_218\n        /* \"#utility.yul\":6023:6027   */\n      dup2\n        /* \"#utility.yul\":5897:6028   */\n      tag_196\n      jump\t// in\n    tag_218:\n        /* \"#utility.yul\":5889:6028   */\n      swap1\n      pop\n        /* \"#utility.yul\":5616:6035   */\n      swap2\n      swap1\n      pop\n      jump\t// out\n        /* \"#utility.yul\":6041:6263   */\n    tag_19:\n        /* \"#utility.yul\":6134:6138   */\n      0x00\n        /* \"#utility.yul\":6172:6174   */\n      0x20\n        /* \"#utility.yul\":6161:6170   */\n      dup3\n        /* \"#utility.yul\":6157:6175   */\n      add\n        /* \"#utility.yul\":6149:6175   */\n      swap1\n      pop\n        /* \"#utility.yul\":6185:6256   */\n      tag_220\n        /* \"#utility.yul\":6253:6254   */\n      0x00\n        /* \"#utility.yul\":6242:6251   */\n      dup4\n        /* \"#utility.yul\":6238:6255   */\n      add\n        /* \"#utility.yul\":6229:6235   */\n      dup5\n        /* \"#utility.yul\":6185:6256   */\n      tag_201\n      jump\t// in\n    tag_220:\n        /* \"#utility.yul\":6041:6263   */\n      swap3\n      swap2\n      pop\n      pop\n      jump\t// out\n        /* \"#utility.yul\":6269:6398   */\n    tag_135:\n        /* \"#utility.yul\":6303:6309   */\n      0x00\n        /* \"#utility.yul\":6330:6350   */\n      tag_222\n      tag_223\n      jump\t// in\n    tag_222:\n        /* \"#utility.yul\":6320:6350   */\n      swap1\n      pop\n        /* \"#utility.yul\":6359:6392   */\n      tag_224\n        /* \"#utility.yul\":6387:6391   */\n      dup3\n        /* \"#utility.yul\":6379:6385   */\n      dup3\n        /* \"#utility.yul\":6359:6392   */\n      tag_225\n      jump\t// in\n    tag_224:\n        /* \"#utility.yul\":6269:6398   */\n      swap2\n      swap1\n      pop\n      jump\t// out\n        /* \"#utility.yul\":6404:6479   */\n    tag_223:\n        /* \"#utility.yul\":6437:6443   */\n      0x00\n        /* \"#utility.yul\":6470:6472   */\n      0x40\n        /* \"#utility.yul\":6464:6473   */\n      mload\n        /* \"#utility.yul\":6454:6473   */\n      swap1\n      pop\n        /* \"#utility.yul\":6404:6479   */\n      swap1\n      jump\t// out\n        /* \"#utility.yul\":6485:6793   */\n    tag_134:\n        /* \"#utility.yul\":6547:6551   */\n      0x00\n        /* \"#utility.yul\":6637:6655   */\n      0xffffffffffffffff\n        /* \"#utility.yul\":6629:6635   */\n      dup3\n        /* \"#utility.yul\":6626:6656   */\n      gt\n        /* \"#utility.yul\":6623:6679   */\n      iszero\n      tag_228\n      jumpi\n        /* \"#utility.yul\":6659:6677   */\n      tag_229\n      tag_230\n      jump\t// in\n    tag_229:\n        /* \"#utility.yul\":6623:6679   */\n    tag_228:\n        /* \"#utility.yul\":6697:6726   */\n      tag_231\n        /* \"#utility.yul\":6719:6725   */\n      dup3\n        /* \"#utility.yul\":6697:6726   */\n      tag_184\n      jump\t// in\n    tag_231:\n        /* \"#utility.yul\":6689:6726   */\n      swap1\n      pop\n        /* \"#utility.yul\":6781:6785   */\n      0x20\n        /* \"#utility.yul\":6775:6779   */\n      dup2\n        /* \"#utility.yul\":6771:6786   */\n      add\n        /* \"#utility.yul\":6763:6786   */\n      swap1\n      pop\n        /* \"#utility.yul\":6485:6793   */\n      swap2\n      swap1\n      pop\n      jump\t// out\n        /* \"#utility.yul\":6799:6898   */\n    tag_178:\n        /* \"#utility.yul\":6851:6857   */\n      0x00\n        /* \"#utility.yul\":6885:6890   */\n      dup2\n        /* \"#utility.yul\":6879:6891   */\n      mload\n        /* \"#utility.yul\":6869:6891   */\n      swap1\n      pop\n        /* \"#utility.yul\":6799:6898   */\n      swap2\n      swap1\n      pop\n      jump\t// out\n        /* \"#utility.yul\":6904:7073   */\n    tag_180:\n        /* \"#utility.yul\":6988:6999   */\n      0x00\n        /* \"#utility.yul\":7022:7028   */\n      dup3\n        /* \"#utility.yul\":7017:7020   */\n      dup3\n        /* \"#utility.yul\":7010:7029   */\n      mstore\n        /* \"#utility.yul\":7062:7066   */\n      0x20\n        /* \"#utility.yul\":7057:7060   */\n      dup3\n        /* \"#utility.yul\":7053:7067   */\n      add\n        /* \"#utility.yul\":7038:7067   */\n      swap1\n      pop\n        /* \"#utility.yul\":6904:7073   */\n      swap3\n      swap2\n      pop\n      pop\n      jump\t// out\n        /* \"#utility.yul\":7079:7227   */\n    tag_189:\n        /* \"#utility.yul\":7181:7192   */\n      0x00\n        /* \"#utility.yul\":7218:7221   */\n      dup2\n        /* \"#utility.yul\":7203:7221   */\n      swap1\n      pop\n        /* \"#utility.yul\":7079:7227   */\n      swap3\n      swap2\n      pop\n      pop\n      jump\t// out\n        /* \"#utility.yul\":7233:7538   */\n    tag_98:\n        /* \"#utility.yul\":7273:7276   */\n      0x00\n        /* \"#utility.yul\":7292:7312   */\n      tag_236\n        /* \"#utility.yul\":7310:7311   */\n      dup3\n        /* \"#utility.yul\":7292:7312   */\n      tag_204\n      jump\t// in\n    tag_236:\n        /* \"#utility.yul\":7287:7312   */\n      swap2\n      pop\n        /* \"#utility.yul\":7326:7346   */\n      tag_237\n        /* \"#utility.yul\":7344:7345   */\n      dup4\n        /* \"#utility.yul\":7326:7346   */\n      tag_204\n      jump\t// in\n    tag_237:\n        /* \"#utility.yul\":7321:7346   */\n      swap3\n      pop\n        /* \"#utility.yul\":7480:7481   */\n      dup3\n        /* \"#utility.yul\":7412:7478   */\n      0xffffffffffffffffffffffffffffffffffffffffffffffffffffffffffffffff\n        /* \"#utility.yul\":7408:7482   */\n      sub\n        /* \"#utility.yul\":7405:7406   */\n      dup3\n        /* \"#utility.yul\":7402:7483   */\n      gt\n        /* \"#utility.yul\":7399:7506   */\n      iszero\n      tag_238\n      jumpi\n        /* \"#utility.yul\":7486:7504   */\n      tag_239\n      tag_240\n      jump\t// in\n    tag_239:\n        /* \"#utility.yul\":7399:7506   */\n    tag_238:\n        /* \"#utility.yul\":7530:7531   */\n      dup3\n        /* \"#utility.yul\":7527:7528   */\n      dup3\n        /* \"#utility.yul\":7523:7532   */\n      add\n        /* \"#utility.yul\":7516:7532   */\n      swap1\n      pop\n        /* \"#utility.yul\":7233:7538   */\n      swap3\n      swap2\n      pop\n      pop\n      jump\t// out\n        /* \"#utility.yul\":7544:7648   */\n    tag_166:\n        /* \"#utility.yul\":7589:7596   */\n      0x00\n        /* \"#utility.yul\":7618:7642   */\n      tag_242\n        /* \"#utility.yul\":7636:7641   */\n      dup3\n        /* \"#utility.yul\":7618:7642   */\n      tag_243\n      jump\t// in\n    tag_242:\n        /* \"#utility.yul\":7607:7642   */\n      swap1\n      pop\n        /* \"#utility.yul\":7544:7648   */\n      swap2\n      swap1\n      pop\n      jump\t// out\n        /* \"#utility.yul\":7654:7783   */\n    tag_244:\n        /* \"#utility.yul\":7700:7707   */\n      0x00\n        /* \"#utility.yul\":7729:7734   */\n      dup2\n        /* \"#utility.yul\":7718:7734   */\n      swap1\n      pop\n        /* \"#utility.yul\":7735:7777   */\n      tag_246\n        /* \"#utility.yul\":7771:7776   */\n      dup3\n        /* \"#utility.yul\":7735:7777   */\n      tag_247\n      jump\t// in\n    tag_246:\n        /* \"#utility.yul\":7654:7783   */\n      swap2\n      swap1\n      pop\n      jump\t// out\n        /* \"#utility.yul\":7789:7916   */\n    tag_248:\n        /* \"#utility.yul\":7834:7841   */\n      0x00\n        /* \"#utility.yul\":7863:7868   */\n      dup2\n        /* \"#utility.yul\":7852:7868   */\n      swap1\n      pop\n        /* \"#utility.yul\":7869:7910   */\n      tag_250\n        /* \"#utility.yul\":7904:7909   */\n      dup3\n        /* \"#utility.yul\":7869:7910   */\n      tag_251\n      jump\t// in\n    tag_250:\n        /* \"#utility.yul\":7789:7916   */\n      swap2\n      swap1\n      pop\n      jump\t// out\n        /* \"#utility.yul\":7922:8048   */\n    tag_243:\n        /* \"#utility.yul\":7959:7966   */\n      0x00\n        /* \"#utility.yul\":7999:8041   */\n      0xffffffffffffffffffffffffffffffffffffffff\n        /* \"#utility.yul\":7992:7997   */\n      dup3\n        /* \"#utility.yul\":7988:8042   */\n      and\n        /* \"#utility.yul\":7977:8042   */\n      swap1\n      pop\n        /* \"#utility.yul\":7922:8048   */\n      swap2\n      swap1\n      pop\n      jump\t// out\n        /* \"#utility.yul\":8054:8131   */\n    tag_204:\n        /* \"#utility.yul\":8091:8098   */\n      0x00\n        /* \"#utility.yul\":8120:8125   */\n      dup2\n        /* \"#utility.yul\":8109:8125   */\n      swap1\n      pop\n        /* \"#utility.yul\":8054:8131   */\n      swap2\n      swap1\n      pop\n      jump\t// out\n        /* \"#utility.yul\":8137:8266   */\n    tag_170:\n        /* \"#utility.yul\":8194:8203   */\n      0x00\n        /* \"#utility.yul\":8227:8260   */\n      tag_255\n        /* \"#utility.yul\":8254:8259   */\n      dup3\n        /* \"#utility.yul\":8227:8260   */\n      tag_244\n      jump\t// in\n    tag_255:\n        /* \"#utility.yul\":8214:8260   */\n      swap1\n      pop\n        /* \"#utility.yul\":8137:8266   */\n      swap2\n      swap1\n      pop\n      jump\t// out\n        /* \"#utility.yul\":8272:8399   */\n    tag_174:\n        /* \"#utility.yul\":8328:8337   */\n      0x00\n        /* \"#utility.yul\":8361:8393   */\n      tag_257\n        /* \"#utility.yul\":8387:8392   */\n      dup3\n        /* \"#utility.yul\":8361:8393   */\n      tag_248\n      jump\t// in\n    tag_257:\n        /* \"#utility.yul\":8348:8393   */\n      swap1\n      pop\n        /* \"#utility.yul\":8272:8399   */\n      swap2\n      swap1\n      pop\n      jump\t// out\n        /* \"#utility.yul\":8405:8559   */\n    tag_140:\n        /* \"#utility.yul\":8489:8495   */\n      dup3\n        /* \"#utility.yul\":8484:8487   */\n      dup2\n        /* \"#utility.yul\":8479:8482   */\n      dup4\n        /* \"#utility.yul\":8466:8496   */\n      calldatacopy\n        /* \"#utility.yul\":8551:8552   */\n      0x00\n        /* \"#utility.yul\":8542:8548   */\n      dup4\n        /* \"#utility.yul\":8537:8540   */\n      dup4\n        /* \"#utility.yul\":8533:8549   */\n      add\n        /* \"#utility.yul\":8526:8553   */\n      mstore\n        /* \"#utility.yul\":8405:8559   */\n      pop\n      pop\n      pop\n      jump\t// out\n        /* \"#utility.yul\":8565:8872   */\n    tag_182:\n        /* \"#utility.yul\":8633:8634   */\n      0x00\n        /* \"#utility.yul\":8643:8756   */\n    tag_260:\n        /* \"#utility.yul\":8657:8663   */\n      dup4\n        /* \"#utility.yul\":8654:8655   */\n      dup2\n        /* \"#utility.yul\":8651:8664   */\n      lt\n        /* \"#utility.yul\":8643:8756   */\n      iszero\n      tag_262\n      jumpi\n        /* \"#utility.yul\":8742:8743   */\n      dup1\n        /* \"#utility.yul\":8737:8740   */\n      dup3\n        /* \"#utility.yul\":8733:8744   */\n      add\n        /* \"#utility.yul\":8727:8745   */\n      mload\n        /* \"#utility.yul\":8723:8724   */\n      dup2\n        /* \"#utility.yul\":8718:8721   */\n      dup5\n        /* \"#utility.yul\":8714:8725   */\n      add\n        /* \"#utility.yul\":8707:8746   */\n      mstore\n        /* \"#utility.yul\":8679:8681   */\n      0x20\n        /* \"#utility.yul\":8676:8677   */\n      dup2\n        /* \"#utility.yul\":8672:8682   */\n      add\n        /* \"#utility.yul\":8667:8682   */\n      swap1\n      pop\n        /* \"#utility.yul\":8643:8756   */\n      jump(tag_260)\n    tag_262:\n        /* \"#utility.yul\":8774:8780   */\n      dup4\n        /* \"#utility.yul\":8771:8772   */\n      dup2\n        /* \"#utility.yul\":8768:8781   */\n      gt\n        /* \"#utility.yul\":8765:8866   */\n      iszero\n      tag_263\n      jumpi\n        /* \"#utility.yul\":8854:8855   */\n      0x00\n        /* \"#utility.yul\":8845:8851   */\n      dup5\n        /* \"#utility.yul\":8840:8843   */\n      dup5\n        /* \"#utility.yul\":8836:8852   */\n      add\n        /* \"#utility.yul\":8829:8856   */\n      mstore\n        /* \"#utility.yul\":8765:8866   */\n    tag_263:\n        /* \"#utility.yul\":8614:8872   */\n      pop\n        /* \"#utility.yul\":8565:8872   */\n      pop\n      pop\n      pop\n      jump\t// out\n        /* \"#utility.yul\":8878:9198   */\n    tag_61:\n        /* \"#utility.yul\":8922:8928   */\n      0x00\n        /* \"#utility.yul\":8959:8960   */\n      0x02\n        /* \"#utility.yul\":8953:8957   */\n      dup3\n        /* \"#utility.yul\":8949:8961   */\n      div\n        /* \"#utility.yul\":8939:8961   */\n      swap1\n      pop\n        /* \"#utility.yul\":9006:9007   */\n      0x01\n        /* \"#utility.yul\":9000:9004   */\n      dup3\n        /* \"#utility.yul\":8996:9008   */\n      and\n        /* \"#utility.yul\":9027:9045   */\n      dup1\n        /* \"#utility.yul\":9017:9098   */\n      tag_265\n      jumpi\n        /* \"#utility.yul\":9083:9087   */\n      0x7f\n        /* \"#utility.yul\":9075:9081   */\n      dup3\n        /* \"#utility.yul\":9071:9088   */\n      and\n        /* \"#utility.yul\":9061:9088   */\n      swap2\n      pop\n        /* \"#utility.yul\":9017:9098   */\n    tag_265:\n        /* \"#utility.yul\":9145:9147   */\n      0x20\n        /* \"#utility.yul\":9137:9143   */\n      dup3\n        /* \"#utility.yul\":9134:9148   */\n      lt\n        /* \"#utility.yul\":9114:9132   */\n      dup2\n        /* \"#utility.yul\":9111:9149   */\n      eq\n        /* \"#utility.yul\":9108:9192   */\n      iszero\n      tag_266\n      jumpi\n        /* \"#utility.yul\":9164:9182   */\n      tag_267\n      tag_268\n      jump\t// in\n    tag_267:\n        /* \"#utility.yul\":9108:9192   */\n    tag_266:\n        /* \"#utility.yul\":8929:9198   */\n      pop\n        /* \"#utility.yul\":8878:9198   */\n      swap2\n      swap1\n      pop\n      jump\t// out\n        /* \"#utility.yul\":9204:9485   */\n    tag_225:\n        /* \"#utility.yul\":9287:9314   */\n      tag_270\n        /* \"#utility.yul\":9309:9313   */\n      dup3\n        /* \"#utility.yul\":9287:9314   */\n      tag_184\n      jump\t// in\n    tag_270:\n        /* \"#utility.yul\":9279:9285   */\n      dup2\n        /* \"#utility.yul\":9275:9315   */\n      add\n        /* \"#utility.yul\":9417:9423   */\n      dup2\n        /* \"#utility.yul\":9405:9415   */\n      dup2\n        /* \"#utility.yul\":9402:9424   */\n      lt\n        /* \"#utility.yul\":9381:9399   */\n      0xffffffffffffffff\n        /* \"#utility.yul\":9369:9379   */\n      dup3\n        /* \"#utility.yul\":9366:9400   */\n      gt\n        /* \"#utility.yul\":9363:9425   */\n      or\n        /* \"#utility.yul\":9360:9448   */\n      iszero\n      tag_271\n      jumpi\n        /* \"#utility.yul\":9428:9446   */\n      tag_272\n      tag_230\n      jump\t// in\n    tag_272:\n        /* \"#utility.yul\":9360:9448   */\n    tag_271:\n        /* \"#utility.yul\":9468:9478   */\n      dup1\n        /* \"#utility.yul\":9464:9466   */\n      0x40\n        /* \"#utility.yul\":9457:9479   */\n      mstore\n        /* \"#utility.yul\":9247:9485   */\n      pop\n        /* \"#utility.yul\":9204:9485   */\n      pop\n      pop\n      jump\t// out\n        /* \"#utility.yul\":9491:9671   */\n    tag_240:\n        /* \"#utility.yul\":9539:9616   */\n      0x4e487b7100000000000000000000000000000000000000000000000000000000\n        /* \"#utility.yul\":9536:9537   */\n      0x00\n        /* \"#utility.yul\":9529:9617   */\n      mstore\n        /* \"#utility.yul\":9636:9640   */\n      0x11\n        /* \"#utility.yul\":9633:9634   */\n      0x04\n        /* \"#utility.yul\":9626:9641   */\n      mstore\n        /* \"#utility.yul\":9660:9664   */\n      0x24\n        /* \"#utility.yul\":9657:9658   */\n      0x00\n        /* \"#utility.yul\":9650:9665   */\n      revert\n        /* \"#utility.yul\":9677:9857   */\n    tag_76:\n        /* \"#utility.yul\":9725:9802   */\n      0x4e487b7100000000000000000000000000000000000000000000000000000000\n        /* \"#utility.yul\":9722:9723   */\n      0x00\n        /* \"#utility.yul\":9715:9803   */\n      mstore\n        /* \"#utility.yul\":9822:9826   */\n      0x21\n        /* \"#utility.yul\":9819:9820   */\n      0x04\n        /* \"#utility.yul\":9812:9827   */\n      mstore\n        /* \"#utility.yul\":9846:9850   */\n      0x24\n        /* \"#utility.yul\":9843:9844   */\n      0x00\n        /* \"#utility.yul\":9836:9851   */\n      revert\n        /* \"#utility.yul\":9863:10043   */\n    tag_268:\n        /* \"#utility.yul\":9911:9988   */\n      0x4e487b7100000000000000000000000000000000000000000000000000000000\n        /* \"#utility.yul\":9908:9909   */\n      0x00\n        /* \"#utility.yul\":9901:9989   */\n      mstore\n        /* \"#utility.yul\":10008:10012   */\n      0x22\n        /* \"#utility.yul\":10005:10006   */\n      0x04\n        /* \"#utility.yul\":9998:10013   */\n      mstore\n        /* \"#utility.yul\":10032:10036   */\n      0x24\n        /* \"#utility.yul\":10029:10030   */\n      0x00\n        /* \"#utility.yul\":10022:10037   */\n      revert\n        /* \"#utility.yul\":10049:10229   */\n    tag_230:\n        /* \"#utility.yul\":10097:10174   */\n      0x4e487b7100000000000000000000000000000000000000000000000000000000\n        /* \"#utility.yul\":10094:10095   */\n      0x00\n        /* \"#utility.yul\":10087:10175   */\n      mstore\n        /* \"#utility.yul\":10194:10198   */\n      0x41\n        /* \"#utility.yul\":10191:10192   */\n      0x04\n        /* \"#utility.yul\":10184:10199   */\n      mstore\n        /* \"#utility.yul\":10218:10222   */\n      0x24\n        /* \"#utility.yul\":10215:10216   */\n      0x00\n        /* \"#utility.yul\":10208:10223   */\n      revert\n        /* \"#utility.yul\":10235:10352   */\n    tag_145:\n        /* \"#utility.yul\":10344:10345   */\n      0x00\n        /* \"#utility.yul\":10341:10342   */\n      dup1\n        /* \"#utility.yul\":10334:10346   */\n      revert\n        /* \"#utility.yul\":10358:10475   */\n    tag_138:\n        /* \"#utility.yul\":10467:10468   */\n      0x00\n        /* \"#utility.yul\":10464:10465   */\n      dup1\n        /* \"#utility.yul\":10457:10469   */\n      revert\n        /* \"#utility.yul\":10481:10598   */\n    tag_157:\n        /* \"#utility.yul\":10590:10591   */\n      0x00\n        /* \"#utility.yul\":10587:10588   */\n      dup1\n        /* \"#utility.yul\":10580:10592   */\n      revert\n        /* \"#utility.yul\":10604:10721   */\n    tag_154:\n        /* \"#utility.yul\":10713:10714   */\n      0x00\n        /* \"#utility.yul\":10710:10711   */\n      dup1\n        /* \"#utility.yul\":10703:10715   */\n      revert\n        /* \"#utility.yul\":10727:10829   */\n    tag_184:\n        /* \"#utility.yul\":10768:10774   */\n      0x00\n        /* \"#utility.yul\":10819:10821   */\n      0x1f\n        /* \"#utility.yul\":10815:10822   */\n      not\n        /* \"#utility.yul\":10810:10812   */\n      0x1f\n        /* \"#utility.yul\":10803:10808   */\n      dup4\n        /* \"#utility.yul\":10799:10813   */\n      add\n        /* \"#utility.yul\":10795:10823   */\n      and\n        /* \"#utility.yul\":10785:10823   */\n      swap1\n      pop\n        /* \"#utility.yul\":10727:10829   */\n      swap2\n      swap1\n      pop\n      jump\t// out\n        /* \"#utility.yul\":10835:11008   */\n    tag_195:\n        /* \"#utility.yul\":10975:11000   */\n      0x546869732069732061207072697661746520706f6c6c2e000000000000000000\n        /* \"#utility.yul\":10971:10972   */\n      0x00\n        /* \"#utility.yul\":10963:10969   */\n      dup3\n        /* \"#utility.yul\":10959:10973   */\n      add\n        /* \"#utility.yul\":10952:11001   */\n      mstore\n        /* \"#utility.yul\":10835:11008   */\n      pop\n      jump\t// out\n        /* \"#utility.yul\":11014:11187   */\n    tag_200:\n        /* \"#utility.yul\":11154:11179   */\n      0x596f75206861766520616c726561647920766f74656421000000000000000000\n        /* \"#utility.yul\":11150:11151   */\n      0x00\n        /* \"#utility.yul\":11142:11148   */\n      dup3\n        /* \"#utility.yul\":11138:11152   */\n      add\n        /* \"#utility.yul\":11131:11180   */\n      mstore\n        /* \"#utility.yul\":11014:11187   */\n      pop\n      jump\t// out\n        /* \"#utility.yul\":11193:11307   */\n    tag_247:\n        /* \"#utility.yul\":11275:11276   */\n      0x04\n        /* \"#utility.yul\":11268:11273   */\n      dup2\n        /* \"#utility.yul\":11265:11277   */\n      lt\n        /* \"#utility.yul\":11255:11301   */\n      tag_285\n      jumpi\n        /* \"#utility.yul\":11281:11299   */\n      tag_286\n      tag_76\n      jump\t// in\n    tag_286:\n        /* \"#utility.yul\":11255:11301   */\n    tag_285:\n        /* \"#utility.yul\":11193:11307   */\n      pop\n      jump\t// out\n        /* \"#utility.yul\":11313:11426   */\n    tag_251:\n        /* \"#utility.yul\":11394:11395   */\n      0x02\n        /* \"#utility.yul\":11387:11392   */\n      dup2\n        /* \"#utility.yul\":11384:11396   */\n      lt\n        /* \"#utility.yul\":11374:11420   */\n      tag_288\n      jumpi\n        /* \"#utility.yul\":11400:11418   */\n      tag_289\n      tag_76\n      jump\t// in\n    tag_289:\n        /* \"#utility.yul\":11374:11420   */\n    tag_288:\n        /* \"#utility.yul\":11313:11426   */\n      pop\n      jump\t// out\n        /* \"#utility.yul\":11432:11554   */\n    tag_150:\n        /* \"#utility.yul\":11505:11529   */\n      tag_291\n        /* \"#utility.yul\":11523:11528   */\n      dup2\n        /* \"#utility.yul\":11505:11529   */\n      tag_204\n      jump\t// in\n    tag_291:\n        /* \"#utility.yul\":11498:11503   */\n      dup2\n        /* \"#utility.yul\":11495:11530   */\n      eq\n        /* \"#utility.yul\":11485:11548   */\n      tag_292\n      jumpi\n        /* \"#utility.yul\":11544:11545   */\n      0x00\n        /* \"#utility.yul\":11541:11542   */\n      dup1\n        /* \"#utility.yul\":11534:11546   */\n      revert\n        /* \"#utility.yul\":11485:11548   */\n    tag_292:\n        /* \"#utility.yul\":11432:11554   */\n      pop\n      jump\t// out\n\n    auxdata: 0xa264697066735822122087f002c43d848a6899db2a939cd25de13dcd2edb70709acaad6a627c0b9ede3364736f6c63430008070033\n}\n",
				"bytecode": {
					"linkReferences": {},
					"object": "60806040523480156200001157600080fd5b50604051620019e2380380620019e2833981810160405281019062000037919062000536565b846000806101000a81548173ffffffffffffffffffffffffffffffffffffffff021916908373ffffffffffffffffffffffffffffffffffffffff16021790555083600190805190602001906200008f92919062000236565b508160029080519060200190620000a8929190620002c7565b504360038190555082600354620000c0919062000806565b6004819055506001600560016101000a81548160ff02191690836003811115620000ef57620000ee620009c0565b5b0217905550604051602001620001059062000736565b60405160208183030381529060405280519060200120816040516020016200012e919062000704565b6040516020818303038152906040528051906020012014156200017f576000600560006101000a81548160ff02191690836001811115620001745762000173620009c0565b5b0217905550620001bd565b600180811115620001955762000194620009c0565b5b600560009054906101000a900460ff166001811115620001ba57620001b9620009c0565b5b50505b60005b6002805490508110156200022a576000600760028381548110620001e957620001e862000a1e565b5b906000526020600020016040516200020291906200071d565b9081526020016040518091039020819055508080620002219062000943565b915050620001c0565b50505050505062000b03565b8280546200024490620008d7565b90600052602060002090601f016020900481019282620002685760008555620002b4565b82601f106200028357805160ff1916838001178555620002b4565b82800160010185558215620002b4579182015b82811115620002b357825182559160200191906001019062000296565b5b509050620002c391906200032e565b5090565b8280548282559060005260206000209081019282156200031b579160200282015b828111156200031a5782518290805190602001906200030992919062000236565b5091602001919060010190620002e8565b5b5090506200032a91906200034d565b5090565b5b80821115620003495760008160009055506001016200032f565b5090565b5b8082111562000371576000818162000367919062000375565b506001016200034e565b5090565b5080546200038390620008d7565b6000825580601f10620003975750620003b8565b601f016020900490600052602060002090810190620003b791906200032e565b5b50565b6000620003d2620003cc8462000776565b6200074d565b90508083825260208201905082856020860282011115620003f857620003f762000a81565b5b60005b858110156200044d57815167ffffffffffffffff81111562000422576200042162000a7c565b5b808601620004318982620004ec565b85526020850194506020840193505050600181019050620003fb565b5050509392505050565b60006200046e6200046884620007a5565b6200074d565b9050828152602081018484840111156200048d576200048c62000a86565b5b6200049a848285620008a1565b509392505050565b600081519050620004b38162000acf565b92915050565b600082601f830112620004d157620004d062000a7c565b5b8151620004e3848260208601620003bb565b91505092915050565b600082601f83011262000504576200050362000a7c565b5b81516200051684826020860162000457565b91505092915050565b600081519050620005308162000ae9565b92915050565b600080600080600060a0868803121562000555576200055462000a90565b5b60006200056588828901620004a2565b955050602086015167ffffffffffffffff81111562000589576200058862000a8b565b5b6200059788828901620004ec565b9450506040620005aa888289016200051f565b935050606086015167ffffffffffffffff811115620005ce57620005cd62000a8b565b5b620005dc88828901620004b9565b925050608086015167ffffffffffffffff8111156200060057620005ff62000a8b565b5b6200060e88828901620004ec565b9150509295509295909350565b60006200062882620007f0565b620006348185620007fb565b935062000646818560208601620008a1565b80840191505092915050565b600081546200066181620008d7565b6200066d8186620007fb565b945060018216600081146200068b57600181146200069d57620006d4565b60ff19831686528186019350620006d4565b620006a885620007db565b60005b83811015620006cc57815481890152600182019150602081019050620006ab565b838801955050505b50505092915050565b6000620006ec600683620007fb565b9150620006f98262000aa6565b600682019050919050565b60006200071282846200061b565b915081905092915050565b60006200072b828462000652565b915081905092915050565b60006200074382620006dd565b9150819050919050565b6000620007596200076c565b90506200076782826200090d565b919050565b6000604051905090565b600067ffffffffffffffff82111562000794576200079362000a4d565b5b602082029050602081019050919050565b600067ffffffffffffffff821115620007c357620007c262000a4d565b5b620007ce8262000a95565b9050602081019050919050565b60008190508160005260206000209050919050565b600081519050919050565b600081905092915050565b6000620008138262000897565b9150620008208362000897565b9250827fffffffffffffffffffffffffffffffffffffffffffffffffffffffffffffffff0382111562000858576200085762000991565b5b828201905092915050565b6000620008708262000877565b9050919050565b600073ffffffffffffffffffffffffffffffffffffffff82169050919050565b6000819050919050565b60005b83811015620008c1578082015181840152602081019050620008a4565b83811115620008d1576000848401525b50505050565b60006002820490506001821680620008f057607f821691505b60208210811415620009075762000906620009ef565b5b50919050565b620009188262000a95565b810181811067ffffffffffffffff821117156200093a576200093962000a4d565b5b80604052505050565b6000620009508262000897565b91507fffffffffffffffffffffffffffffffffffffffffffffffffffffffffffffffff82141562000986576200098562000991565b5b600182019050919050565b7f4e487b7100000000000000000000000000000000000000000000000000000000600052601160045260246000fd5b7f4e487b7100000000000000000000000000000000000000000000000000000000600052602160045260246000fd5b7f4e487b7100000000000000000000000000000000000000000000000000000000600052602260045260246000fd5b7f4e487b7100000000000000000000000000000000000000000000000000000000600052603260045260246000fd5b7f4e487b7100000000000000000000000000000000000000000000000000000000600052604160045260246000fd5b600080fd5b600080fd5b600080fd5b600080fd5b600080fd5b6000601f19601f8301169050919050565b7f5075626c69630000000000000000000000000000000000000000000000000000600082015250565b62000ada8162000863565b811462000ae657600080fd5b50565b62000af48162000897565b811462000b0057600080fd5b50565b610ecf8062000b136000396000f3fe608060405234801561001057600080fd5b50600436106100b45760003560e01c80638f58d353116100715780638f58d35314610191578063b73b396b146101af578063ba0c45c9146101b9578063c04752d8146101d5578063c308b0dc146101f1578063cc1e2cb01461020d576100b4565b8063083c6323146100b957806318769765146100d7578063237637a8146100f55780633477ee2e1461011357806348cd4cb114610143578063498cc70d14610161575b600080fd5b6100c161022b565b6040516100ce9190610b0e565b60405180910390f35b6100df610231565b6040516100ec9190610aac565b60405180910390f35b6100fd6102bf565b60405161010a9190610a91565b60405180910390f35b61012d6004803603810190610128919061092b565b6102d2565b60405161013a9190610aac565b60405180910390f35b61014b61037e565b6040516101589190610b0e565b60405180910390f35b61017b600480360381019061017691906108e2565b610384565b6040516101889190610b0e565b60405180910390f35b61019961049c565b6040516101a69190610a76565b60405180910390f35b6101b76104af565b005b6101d360048036038101906101ce919061092b565b610534565b005b6101ef60048036038101906101ea91906108e2565b6105a3565b005b61020b600480360381019061020691906108e2565b610724565b005b610215610796565b6040516102229190610a5b565b60405180910390f35b60045481565b6001805461023e90610cc4565b80601f016020809104026020016040519081016040528092919081815260200182805461026a90610cc4565b80156102b75780601f1061028c576101008083540402835291602001916102b7565b820191906000526020600020905b81548152906001019060200180831161029a57829003601f168201915b505050505081565b600560009054906101000a900460ff1681565b600281815481106102e257600080fd5b9060005260206000200160009150905080546102fd90610cc4565b80601f016020809104026020016040519081016040528092919081815260200182805461032990610cc4565b80156103765780601f1061034b57610100808354040283529160200191610376565b820191906000526020600020905b81548152906001019060200180831161035957829003601f168201915b505050505081565b60035481565b600060018081111561039957610398610d56565b5b600560009054906101000a900460ff1660018111156103bb576103ba610d56565b5b1415610475573373ffffffffffffffffffffffffffffffffffffffff1660008054906101000a900473ffffffffffffffffffffffffffffffffffffffff1673ffffffffffffffffffffffffffffffffffffffff161461044f576040517f08c379a000000000000000000000000000000000000000000000000000000000815260040161044690610ace565b60405180910390fd5b60078260405161045f9190610a44565b9081526020016040518091039020549050610497565b6007826040516104859190610a44565b90815260200160405180910390205490505b919050565b600560019054906101000a900460ff1681565b3373ffffffffffffffffffffffffffffffffffffffff1660008054906101000a900473ffffffffffffffffffffffffffffffffffffffff1673ffffffffffffffffffffffffffffffffffffffff161461050757600080fd5b6002600560016101000a81548160ff0219169083600381111561052d5761052c610d56565b5b0217905550565b3373ffffffffffffffffffffffffffffffffffffffff1660008054906101000a900473ffffffffffffffffffffffffffffffffffffffff1673ffffffffffffffffffffffffffffffffffffffff161461058c57600080fd5b8060045461059a9190610ba6565b60048190555050565b60045443106105b157600080fd5b60035443116105bf57600080fd5b600260038111156105d3576105d2610d56565b5b600560019054906101000a900460ff1660038111156105f5576105f4610d56565b5b141561060057600080fd5b6000339050600660008273ffffffffffffffffffffffffffffffffffffffff1673ffffffffffffffffffffffffffffffffffffffff16815260200190815260200160002060009054906101000a900460ff1615610692576040517f08c379a000000000000000000000000000000000000000000000000000000000815260040161068990610aee565b60405180910390fd5b6001600660008373ffffffffffffffffffffffffffffffffffffffff1673ffffffffffffffffffffffffffffffffffffffff16815260200190815260200160002060006101000a81548160ff02191690831515021790555060016007836040516106fc9190610a44565b908152602001604051809103902060008282546107199190610ba6565b925050819055505050565b3373ffffffffffffffffffffffffffffffffffffffff1660008054906101000a900473ffffffffffffffffffffffffffffffffffffffff1673ffffffffffffffffffffffffffffffffffffffff161461077c57600080fd5b80600190805190602001906107929291906107ba565b5050565b60008054906101000a900473ffffffffffffffffffffffffffffffffffffffff1681565b8280546107c690610cc4565b90600052602060002090601f0160209004810192826107e8576000855561082f565b82601f1061080157805160ff191683800117855561082f565b8280016001018555821561082f579182015b8281111561082e578251825591602001919060010190610813565b5b50905061083c9190610840565b5090565b5b80821115610859576000816000905550600101610841565b5090565b600061087061086b84610b4e565b610b29565b90508281526020810184848401111561088c5761088b610de8565b5b610897848285610c82565b509392505050565b600082601f8301126108b4576108b3610de3565b5b81356108c484826020860161085d565b91505092915050565b6000813590506108dc81610e82565b92915050565b6000602082840312156108f8576108f7610df2565b5b600082013567ffffffffffffffff81111561091657610915610ded565b5b6109228482850161089f565b91505092915050565b60006020828403121561094157610940610df2565b5b600061094f848285016108cd565b91505092915050565b61096181610bfc565b82525050565b61097081610c5e565b82525050565b61097f81610c70565b82525050565b600061099082610b7f565b61099a8185610b8a565b93506109aa818560208601610c91565b6109b381610df7565b840191505092915050565b60006109c982610b7f565b6109d38185610b9b565b93506109e3818560208601610c91565b80840191505092915050565b60006109fc601783610b8a565b9150610a0782610e08565b602082019050919050565b6000610a1f601783610b8a565b9150610a2a82610e31565b602082019050919050565b610a3e81610c54565b82525050565b6000610a5082846109be565b915081905092915050565b6000602082019050610a706000830184610958565b92915050565b6000602082019050610a8b6000830184610967565b92915050565b6000602082019050610aa66000830184610976565b92915050565b60006020820190508181036000830152610ac68184610985565b905092915050565b60006020820190508181036000830152610ae7816109ef565b9050919050565b60006020820190508181036000830152610b0781610a12565b9050919050565b6000602082019050610b236000830184610a35565b92915050565b6000610b33610b44565b9050610b3f8282610cf6565b919050565b6000604051905090565b600067ffffffffffffffff821115610b6957610b68610db4565b5b610b7282610df7565b9050602081019050919050565b600081519050919050565b600082825260208201905092915050565b600081905092915050565b6000610bb182610c54565b9150610bbc83610c54565b9250827fffffffffffffffffffffffffffffffffffffffffffffffffffffffffffffffff03821115610bf157610bf0610d27565b5b828201905092915050565b6000610c0782610c34565b9050919050565b6000819050610c1c82610e5a565b919050565b6000819050610c2f82610e6e565b919050565b600073ffffffffffffffffffffffffffffffffffffffff82169050919050565b6000819050919050565b6000610c6982610c0e565b9050919050565b6000610c7b82610c21565b9050919050565b82818337600083830152505050565b60005b83811015610caf578082015181840152602081019050610c94565b83811115610cbe576000848401525b50505050565b60006002820490506001821680610cdc57607f821691505b60208210811415610cf057610cef610d85565b5b50919050565b610cff82610df7565b810181811067ffffffffffffffff82111715610d1e57610d1d610db4565b5b80604052505050565b7f4e487b7100000000000000000000000000000000000000000000000000000000600052601160045260246000fd5b7f4e487b7100000000000000000000000000000000000000000000000000000000600052602160045260246000fd5b7f4e487b7100000000000000000000000000000000000000000000000000000000600052602260045260246000fd5b7f4e487b7100000000000000000000000000000000000000000000000000000000600052604160045260246000fd5b600080fd5b600080fd5b600080fd5b600080fd5b6000601f19601f8301169050919050565b7f546869732069732061207072697661746520706f6c6c2e000000000000000000600082015250565b7f596f75206861766520616c726561647920766f74656421000000000000000000600082015250565b60048110610e6b57610e6a610d56565b5b50565b60028110610e7f57610e7e610d56565b5b50565b610e8b81610c54565b8114610e9657600080fd5b5056fea264697066735822122087f002c43d848a6899db2a939cd25de13dcd2edb70709acaad6a627c0b9ede3364736f6c63430008070033",
					"opcodes": "PUSH1 0x80 PUSH1 0x40 MSTORE CALLVALUE DUP1 ISZERO PUSH3 0x11 JUMPI PUSH1 0x0 DUP1 REVERT JUMPDEST POP PUSH1 0x40 MLOAD PUSH3 0x19E2 CODESIZE SUB DUP1 PUSH3 0x19E2 DUP4 CODECOPY DUP2 DUP2 ADD PUSH1 0x40 MSTORE DUP2 ADD SWAP1 PUSH3 0x37 SWAP2 SWAP1 PUSH3 0x536 JUMP JUMPDEST DUP5 PUSH1 0x0 DUP1 PUSH2 0x100 EXP DUP2 SLOAD DUP2 PUSH20 0xFFFFFFFFFFFFFFFFFFFFFFFFFFFFFFFFFFFFFFFF MUL NOT AND SWAP1 DUP4 PUSH20 0xFFFFFFFFFFFFFFFFFFFFFFFFFFFFFFFFFFFFFFFF AND MUL OR SWAP1 SSTORE POP DUP4 PUSH1 0x1 SWAP1 DUP1 MLOAD SWAP1 PUSH1 0x20 ADD SWAP1 PUSH3 0x8F SWAP3 SWAP2 SWAP1 PUSH3 0x236 JUMP JUMPDEST POP DUP2 PUSH1 0x2 SWAP1 DUP1 MLOAD SWAP1 PUSH1 0x20 ADD SWAP1 PUSH3 0xA8 SWAP3 SWAP2 SWAP1 PUSH3 0x2C7 JUMP JUMPDEST POP NUMBER PUSH1 0x3 DUP2 SWAP1 SSTORE POP DUP3 PUSH1 0x3 SLOAD PUSH3 0xC0 SWAP2 SWAP1 PUSH3 0x806 JUMP JUMPDEST PUSH1 0x4 DUP2 SWAP1 SSTORE POP PUSH1 0x1 PUSH1 0x5 PUSH1 0x1 PUSH2 0x100 EXP DUP2 SLOAD DUP2 PUSH1 0xFF MUL NOT AND SWAP1 DUP4 PUSH1 0x3 DUP2 GT ISZERO PUSH3 0xEF JUMPI PUSH3 0xEE PUSH3 0x9C0 JUMP JUMPDEST JUMPDEST MUL OR SWAP1 SSTORE POP PUSH1 0x40 MLOAD PUSH1 0x20 ADD PUSH3 0x105 SWAP1 PUSH3 0x736 JUMP JUMPDEST PUSH1 0x40 MLOAD PUSH1 0x20 DUP2 DUP4 SUB SUB DUP2 MSTORE SWAP1 PUSH1 0x40 MSTORE DUP1 MLOAD SWAP1 PUSH1 0x20 ADD KECCAK256 DUP2 PUSH1 0x40 MLOAD PUSH1 0x20 ADD PUSH3 0x12E SWAP2 SWAP1 PUSH3 0x704 JUMP JUMPDEST PUSH1 0x40 MLOAD PUSH1 0x20 DUP2 DUP4 SUB SUB DUP2 MSTORE SWAP1 PUSH1 0x40 MSTORE DUP1 MLOAD SWAP1 PUSH1 0x20 ADD KECCAK256 EQ ISZERO PUSH3 0x17F JUMPI PUSH1 0x0 PUSH1 0x5 PUSH1 0x0 PUSH2 0x100 EXP DUP2 SLOAD DUP2 PUSH1 0xFF MUL NOT AND SWAP1 DUP4 PUSH1 0x1 DUP2 GT ISZERO PUSH3 0x174 JUMPI PUSH3 0x173 PUSH3 0x9C0 JUMP JUMPDEST JUMPDEST MUL OR SWAP1 SSTORE POP PUSH3 0x1BD JUMP JUMPDEST PUSH1 0x1 DUP1 DUP2 GT ISZERO PUSH3 0x195 JUMPI PUSH3 0x194 PUSH3 0x9C0 JUMP JUMPDEST JUMPDEST PUSH1 0x5 PUSH1 0x0 SWAP1 SLOAD SWAP1 PUSH2 0x100 EXP SWAP1 DIV PUSH1 0xFF AND PUSH1 0x1 DUP2 GT ISZERO PUSH3 0x1BA JUMPI PUSH3 0x1B9 PUSH3 0x9C0 JUMP JUMPDEST JUMPDEST POP POP JUMPDEST PUSH1 0x0 JUMPDEST PUSH1 0x2 DUP1 SLOAD SWAP1 POP DUP2 LT ISZERO PUSH3 0x22A JUMPI PUSH1 0x0 PUSH1 0x7 PUSH1 0x2 DUP4 DUP2 SLOAD DUP2 LT PUSH3 0x1E9 JUMPI PUSH3 0x1E8 PUSH3 0xA1E JUMP JUMPDEST JUMPDEST SWAP1 PUSH1 0x0 MSTORE PUSH1 0x20 PUSH1 0x0 KECCAK256 ADD PUSH1 0x40 MLOAD PUSH3 0x202 SWAP2 SWAP1 PUSH3 0x71D JUMP JUMPDEST SWAP1 DUP2 MSTORE PUSH1 0x20 ADD PUSH1 0x40 MLOAD DUP1 SWAP2 SUB SWAP1 KECCAK256 DUP2 SWAP1 SSTORE POP DUP1 DUP1 PUSH3 0x221 SWAP1 PUSH3 0x943 JUMP JUMPDEST SWAP2 POP POP PUSH3 0x1C0 JUMP JUMPDEST POP POP POP POP POP POP PUSH3 0xB03 JUMP JUMPDEST DUP3 DUP1 SLOAD PUSH3 0x244 SWAP1 PUSH3 0x8D7 JUMP JUMPDEST SWAP1 PUSH1 0x0 MSTORE PUSH1 0x20 PUSH1 0x0 KECCAK256 SWAP1 PUSH1 0x1F ADD PUSH1 0x20 SWAP1 DIV DUP2 ADD SWAP3 DUP3 PUSH3 0x268 JUMPI PUSH1 0x0 DUP6 SSTORE PUSH3 0x2B4 JUMP JUMPDEST DUP3 PUSH1 0x1F LT PUSH3 0x283 JUMPI DUP1 MLOAD PUSH1 0xFF NOT AND DUP4 DUP1 ADD OR DUP6 SSTORE PUSH3 0x2B4 JUMP JUMPDEST DUP3 DUP1 ADD PUSH1 0x1 ADD DUP6 SSTORE DUP3 ISZERO PUSH3 0x2B4 JUMPI SWAP2 DUP3 ADD JUMPDEST DUP3 DUP2 GT ISZERO PUSH3 0x2B3 JUMPI DUP3 MLOAD DUP3 SSTORE SWAP2 PUSH1 0x20 ADD SWAP2 SWAP1 PUSH1 0x1 ADD SWAP1 PUSH3 0x296 JUMP JUMPDEST JUMPDEST POP SWAP1 POP PUSH3 0x2C3 SWAP2 SWAP1 PUSH3 0x32E JUMP JUMPDEST POP SWAP1 JUMP JUMPDEST DUP3 DUP1 SLOAD DUP3 DUP3 SSTORE SWAP1 PUSH1 0x0 MSTORE PUSH1 0x20 PUSH1 0x0 KECCAK256 SWAP1 DUP2 ADD SWAP3 DUP3 ISZERO PUSH3 0x31B JUMPI SWAP2 PUSH1 0x20 MUL DUP3 ADD JUMPDEST DUP3 DUP2 GT ISZERO PUSH3 0x31A JUMPI DUP3 MLOAD DUP3 SWAP1 DUP1 MLOAD SWAP1 PUSH1 0x20 ADD SWAP1 PUSH3 0x309 SWAP3 SWAP2 SWAP1 PUSH3 0x236 JUMP JUMPDEST POP SWAP2 PUSH1 0x20 ADD SWAP2 SWAP1 PUSH1 0x1 ADD SWAP1 PUSH3 0x2E8 JUMP JUMPDEST JUMPDEST POP SWAP1 POP PUSH3 0x32A SWAP2 SWAP1 PUSH3 0x34D JUMP JUMPDEST POP SWAP1 JUMP JUMPDEST JUMPDEST DUP1 DUP3 GT ISZERO PUSH3 0x349 JUMPI PUSH1 0x0 DUP2 PUSH1 0x0 SWAP1 SSTORE POP PUSH1 0x1 ADD PUSH3 0x32F JUMP JUMPDEST POP SWAP1 JUMP JUMPDEST JUMPDEST DUP1 DUP3 GT ISZERO PUSH3 0x371 JUMPI PUSH1 0x0 DUP2 DUP2 PUSH3 0x367 SWAP2 SWAP1 PUSH3 0x375 JUMP JUMPDEST POP PUSH1 0x1 ADD PUSH3 0x34E JUMP JUMPDEST POP SWAP1 JUMP JUMPDEST POP DUP1 SLOAD PUSH3 0x383 SWAP1 PUSH3 0x8D7 JUMP JUMPDEST PUSH1 0x0 DUP3 SSTORE DUP1 PUSH1 0x1F LT PUSH3 0x397 JUMPI POP PUSH3 0x3B8 JUMP JUMPDEST PUSH1 0x1F ADD PUSH1 0x20 SWAP1 DIV SWAP1 PUSH1 0x0 MSTORE PUSH1 0x20 PUSH1 0x0 KECCAK256 SWAP1 DUP2 ADD SWAP1 PUSH3 0x3B7 SWAP2 SWAP1 PUSH3 0x32E JUMP JUMPDEST JUMPDEST POP JUMP JUMPDEST PUSH1 0x0 PUSH3 0x3D2 PUSH3 0x3CC DUP5 PUSH3 0x776 JUMP JUMPDEST PUSH3 0x74D JUMP JUMPDEST SWAP1 POP DUP1 DUP4 DUP3 MSTORE PUSH1 0x20 DUP3 ADD SWAP1 POP DUP3 DUP6 PUSH1 0x20 DUP7 MUL DUP3 ADD GT ISZERO PUSH3 0x3F8 JUMPI PUSH3 0x3F7 PUSH3 0xA81 JUMP JUMPDEST JUMPDEST PUSH1 0x0 JUMPDEST DUP6 DUP2 LT ISZERO PUSH3 0x44D JUMPI DUP2 MLOAD PUSH8 0xFFFFFFFFFFFFFFFF DUP2 GT ISZERO PUSH3 0x422 JUMPI PUSH3 0x421 PUSH3 0xA7C JUMP JUMPDEST JUMPDEST DUP1 DUP7 ADD PUSH3 0x431 DUP10 DUP3 PUSH3 0x4EC JUMP JUMPDEST DUP6 MSTORE PUSH1 0x20 DUP6 ADD SWAP5 POP PUSH1 0x20 DUP5 ADD SWAP4 POP POP POP PUSH1 0x1 DUP2 ADD SWAP1 POP PUSH3 0x3FB JUMP JUMPDEST POP POP POP SWAP4 SWAP3 POP POP POP JUMP JUMPDEST PUSH1 0x0 PUSH3 0x46E PUSH3 0x468 DUP5 PUSH3 0x7A5 JUMP JUMPDEST PUSH3 0x74D JUMP JUMPDEST SWAP1 POP DUP3 DUP2 MSTORE PUSH1 0x20 DUP2 ADD DUP5 DUP5 DUP5 ADD GT ISZERO PUSH3 0x48D JUMPI PUSH3 0x48C PUSH3 0xA86 JUMP JUMPDEST JUMPDEST PUSH3 0x49A DUP5 DUP3 DUP6 PUSH3 0x8A1 JUMP JUMPDEST POP SWAP4 SWAP3 POP POP POP JUMP JUMPDEST PUSH1 0x0 DUP2 MLOAD SWAP1 POP PUSH3 0x4B3 DUP2 PUSH3 0xACF JUMP JUMPDEST SWAP3 SWAP2 POP POP JUMP JUMPDEST PUSH1 0x0 DUP3 PUSH1 0x1F DUP4 ADD SLT PUSH3 0x4D1 JUMPI PUSH3 0x4D0 PUSH3 0xA7C JUMP JUMPDEST JUMPDEST DUP2 MLOAD PUSH3 0x4E3 DUP5 DUP3 PUSH1 0x20 DUP7 ADD PUSH3 0x3BB JUMP JUMPDEST SWAP2 POP POP SWAP3 SWAP2 POP POP JUMP JUMPDEST PUSH1 0x0 DUP3 PUSH1 0x1F DUP4 ADD SLT PUSH3 0x504 JUMPI PUSH3 0x503 PUSH3 0xA7C JUMP JUMPDEST JUMPDEST DUP2 MLOAD PUSH3 0x516 DUP5 DUP3 PUSH1 0x20 DUP7 ADD PUSH3 0x457 JUMP JUMPDEST SWAP2 POP POP SWAP3 SWAP2 POP POP JUMP JUMPDEST PUSH1 0x0 DUP2 MLOAD SWAP1 POP PUSH3 0x530 DUP2 PUSH3 0xAE9 JUMP JUMPDEST SWAP3 SWAP2 POP POP JUMP JUMPDEST PUSH1 0x0 DUP1 PUSH1 0x0 DUP1 PUSH1 0x0 PUSH1 0xA0 DUP7 DUP9 SUB SLT ISZERO PUSH3 0x555 JUMPI PUSH3 0x554 PUSH3 0xA90 JUMP JUMPDEST JUMPDEST PUSH1 0x0 PUSH3 0x565 DUP9 DUP3 DUP10 ADD PUSH3 0x4A2 JUMP JUMPDEST SWAP6 POP POP PUSH1 0x20 DUP7 ADD MLOAD PUSH8 0xFFFFFFFFFFFFFFFF DUP2 GT ISZERO PUSH3 0x589 JUMPI PUSH3 0x588 PUSH3 0xA8B JUMP JUMPDEST JUMPDEST PUSH3 0x597 DUP9 DUP3 DUP10 ADD PUSH3 0x4EC JUMP JUMPDEST SWAP5 POP POP PUSH1 0x40 PUSH3 0x5AA DUP9 DUP3 DUP10 ADD PUSH3 0x51F JUMP JUMPDEST SWAP4 POP POP PUSH1 0x60 DUP7 ADD MLOAD PUSH8 0xFFFFFFFFFFFFFFFF DUP2 GT ISZERO PUSH3 0x5CE JUMPI PUSH3 0x5CD PUSH3 0xA8B JUMP JUMPDEST JUMPDEST PUSH3 0x5DC DUP9 DUP3 DUP10 ADD PUSH3 0x4B9 JUMP JUMPDEST SWAP3 POP POP PUSH1 0x80 DUP7 ADD MLOAD PUSH8 0xFFFFFFFFFFFFFFFF DUP2 GT ISZERO PUSH3 0x600 JUMPI PUSH3 0x5FF PUSH3 0xA8B JUMP JUMPDEST JUMPDEST PUSH3 0x60E DUP9 DUP3 DUP10 ADD PUSH3 0x4EC JUMP JUMPDEST SWAP2 POP POP SWAP3 SWAP6 POP SWAP3 SWAP6 SWAP1 SWAP4 POP JUMP JUMPDEST PUSH1 0x0 PUSH3 0x628 DUP3 PUSH3 0x7F0 JUMP JUMPDEST PUSH3 0x634 DUP2 DUP6 PUSH3 0x7FB JUMP JUMPDEST SWAP4 POP PUSH3 0x646 DUP2 DUP6 PUSH1 0x20 DUP7 ADD PUSH3 0x8A1 JUMP JUMPDEST DUP1 DUP5 ADD SWAP2 POP POP SWAP3 SWAP2 POP POP JUMP JUMPDEST PUSH1 0x0 DUP2 SLOAD PUSH3 0x661 DUP2 PUSH3 0x8D7 JUMP JUMPDEST PUSH3 0x66D DUP2 DUP7 PUSH3 0x7FB JUMP JUMPDEST SWAP5 POP PUSH1 0x1 DUP3 AND PUSH1 0x0 DUP2 EQ PUSH3 0x68B JUMPI PUSH1 0x1 DUP2 EQ PUSH3 0x69D JUMPI PUSH3 0x6D4 JUMP JUMPDEST PUSH1 0xFF NOT DUP4 AND DUP7 MSTORE DUP2 DUP7 ADD SWAP4 POP PUSH3 0x6D4 JUMP JUMPDEST PUSH3 0x6A8 DUP6 PUSH3 0x7DB JUMP JUMPDEST PUSH1 0x0 JUMPDEST DUP4 DUP2 LT ISZERO PUSH3 0x6CC JUMPI DUP2 SLOAD DUP2 DUP10 ADD MSTORE PUSH1 0x1 DUP3 ADD SWAP2 POP PUSH1 0x20 DUP2 ADD SWAP1 POP PUSH3 0x6AB JUMP JUMPDEST DUP4 DUP9 ADD SWAP6 POP POP POP JUMPDEST POP POP POP SWAP3 SWAP2 POP POP JUMP JUMPDEST PUSH1 0x0 PUSH3 0x6EC PUSH1 0x6 DUP4 PUSH3 0x7FB JUMP JUMPDEST SWAP2 POP PUSH3 0x6F9 DUP3 PUSH3 0xAA6 JUMP JUMPDEST PUSH1 0x6 DUP3 ADD SWAP1 POP SWAP2 SWAP1 POP JUMP JUMPDEST PUSH1 0x0 PUSH3 0x712 DUP3 DUP5 PUSH3 0x61B JUMP JUMPDEST SWAP2 POP DUP2 SWAP1 POP SWAP3 SWAP2 POP POP JUMP JUMPDEST PUSH1 0x0 PUSH3 0x72B DUP3 DUP5 PUSH3 0x652 JUMP JUMPDEST SWAP2 POP DUP2 SWAP1 POP SWAP3 SWAP2 POP POP JUMP JUMPDEST PUSH1 0x0 PUSH3 0x743 DUP3 PUSH3 0x6DD JUMP JUMPDEST SWAP2 POP DUP2 SWAP1 POP SWAP2 SWAP1 POP JUMP JUMPDEST PUSH1 0x0 PUSH3 0x759 PUSH3 0x76C JUMP JUMPDEST SWAP1 POP PUSH3 0x767 DUP3 DUP3 PUSH3 0x90D JUMP JUMPDEST SWAP2 SWAP1 POP JUMP JUMPDEST PUSH1 0x0 PUSH1 0x40 MLOAD SWAP1 POP SWAP1 JUMP JUMPDEST PUSH1 0x0 PUSH8 0xFFFFFFFFFFFFFFFF DUP3 GT ISZERO PUSH3 0x794 JUMPI PUSH3 0x793 PUSH3 0xA4D JUMP JUMPDEST JUMPDEST PUSH1 0x20 DUP3 MUL SWAP1 POP PUSH1 0x20 DUP2 ADD SWAP1 POP SWAP2 SWAP1 POP JUMP JUMPDEST PUSH1 0x0 PUSH8 0xFFFFFFFFFFFFFFFF DUP3 GT ISZERO PUSH3 0x7C3 JUMPI PUSH3 0x7C2 PUSH3 0xA4D JUMP JUMPDEST JUMPDEST PUSH3 0x7CE DUP3 PUSH3 0xA95 JUMP JUMPDEST SWAP1 POP PUSH1 0x20 DUP2 ADD SWAP1 POP SWAP2 SWAP1 POP JUMP JUMPDEST PUSH1 0x0 DUP2 SWAP1 POP DUP2 PUSH1 0x0 MSTORE PUSH1 0x20 PUSH1 0x0 KECCAK256 SWAP1 POP SWAP2 SWAP1 POP JUMP JUMPDEST PUSH1 0x0 DUP2 MLOAD SWAP1 POP SWAP2 SWAP1 POP JUMP JUMPDEST PUSH1 0x0 DUP2 SWAP1 POP SWAP3 SWAP2 POP POP JUMP JUMPDEST PUSH1 0x0 PUSH3 0x813 DUP3 PUSH3 0x897 JUMP JUMPDEST SWAP2 POP PUSH3 0x820 DUP4 PUSH3 0x897 JUMP JUMPDEST SWAP3 POP DUP3 PUSH32 0xFFFFFFFFFFFFFFFFFFFFFFFFFFFFFFFFFFFFFFFFFFFFFFFFFFFFFFFFFFFFFFFF SUB DUP3 GT ISZERO PUSH3 0x858 JUMPI PUSH3 0x857 PUSH3 0x991 JUMP JUMPDEST JUMPDEST DUP3 DUP3 ADD SWAP1 POP SWAP3 SWAP2 POP POP JUMP JUMPDEST PUSH1 0x0 PUSH3 0x870 DUP3 PUSH3 0x877 JUMP JUMPDEST SWAP1 POP SWAP2 SWAP1 POP JUMP JUMPDEST PUSH1 0x0 PUSH20 0xFFFFFFFFFFFFFFFFFFFFFFFFFFFFFFFFFFFFFFFF DUP3 AND SWAP1 POP SWAP2 SWAP1 POP JUMP JUMPDEST PUSH1 0x0 DUP2 SWAP1 POP SWAP2 SWAP1 POP JUMP JUMPDEST PUSH1 0x0 JUMPDEST DUP4 DUP2 LT ISZERO PUSH3 0x8C1 JUMPI DUP1 DUP3 ADD MLOAD DUP2 DUP5 ADD MSTORE PUSH1 0x20 DUP2 ADD SWAP1 POP PUSH3 0x8A4 JUMP JUMPDEST DUP4 DUP2 GT ISZERO PUSH3 0x8D1 JUMPI PUSH1 0x0 DUP5 DUP5 ADD MSTORE JUMPDEST POP POP POP POP JUMP JUMPDEST PUSH1 0x0 PUSH1 0x2 DUP3 DIV SWAP1 POP PUSH1 0x1 DUP3 AND DUP1 PUSH3 0x8F0 JUMPI PUSH1 0x7F DUP3 AND SWAP2 POP JUMPDEST PUSH1 0x20 DUP3 LT DUP2 EQ ISZERO PUSH3 0x907 JUMPI PUSH3 0x906 PUSH3 0x9EF JUMP JUMPDEST JUMPDEST POP SWAP2 SWAP1 POP JUMP JUMPDEST PUSH3 0x918 DUP3 PUSH3 0xA95 JUMP JUMPDEST DUP2 ADD DUP2 DUP2 LT PUSH8 0xFFFFFFFFFFFFFFFF DUP3 GT OR ISZERO PUSH3 0x93A JUMPI PUSH3 0x939 PUSH3 0xA4D JUMP JUMPDEST JUMPDEST DUP1 PUSH1 0x40 MSTORE POP POP POP JUMP JUMPDEST PUSH1 0x0 PUSH3 0x950 DUP3 PUSH3 0x897 JUMP JUMPDEST SWAP2 POP PUSH32 0xFFFFFFFFFFFFFFFFFFFFFFFFFFFFFFFFFFFFFFFFFFFFFFFFFFFFFFFFFFFFFFFF DUP3 EQ ISZERO PUSH3 0x986 JUMPI PUSH3 0x985 PUSH3 0x991 JUMP JUMPDEST JUMPDEST PUSH1 0x1 DUP3 ADD SWAP1 POP SWAP2 SWAP1 POP JUMP JUMPDEST PUSH32 0x4E487B7100000000000000000000000000000000000000000000000000000000 PUSH1 0x0 MSTORE PUSH1 0x11 PUSH1 0x4 MSTORE PUSH1 0x24 PUSH1 0x0 REVERT JUMPDEST PUSH32 0x4E487B7100000000000000000000000000000000000000000000000000000000 PUSH1 0x0 MSTORE PUSH1 0x21 PUSH1 0x4 MSTORE PUSH1 0x24 PUSH1 0x0 REVERT JUMPDEST PUSH32 0x4E487B7100000000000000000000000000000000000000000000000000000000 PUSH1 0x0 MSTORE PUSH1 0x22 PUSH1 0x4 MSTORE PUSH1 0x24 PUSH1 0x0 REVERT JUMPDEST PUSH32 0x4E487B7100000000000000000000000000000000000000000000000000000000 PUSH1 0x0 MSTORE PUSH1 0x32 PUSH1 0x4 MSTORE PUSH1 0x24 PUSH1 0x0 REVERT JUMPDEST PUSH32 0x4E487B7100000000000000000000000000000000000000000000000000000000 PUSH1 0x0 MSTORE PUSH1 0x41 PUSH1 0x4 MSTORE PUSH1 0x24 PUSH1 0x0 REVERT JUMPDEST PUSH1 0x0 DUP1 REVERT JUMPDEST PUSH1 0x0 DUP1 REVERT JUMPDEST PUSH1 0x0 DUP1 REVERT JUMPDEST PUSH1 0x0 DUP1 REVERT JUMPDEST PUSH1 0x0 DUP1 REVERT JUMPDEST PUSH1 0x0 PUSH1 0x1F NOT PUSH1 0x1F DUP4 ADD AND SWAP1 POP SWAP2 SWAP1 POP JUMP JUMPDEST PUSH32 0x5075626C69630000000000000000000000000000000000000000000000000000 PUSH1 0x0 DUP3 ADD MSTORE POP JUMP JUMPDEST PUSH3 0xADA DUP2 PUSH3 0x863 JUMP JUMPDEST DUP2 EQ PUSH3 0xAE6 JUMPI PUSH1 0x0 DUP1 REVERT JUMPDEST POP JUMP JUMPDEST PUSH3 0xAF4 DUP2 PUSH3 0x897 JUMP JUMPDEST DUP2 EQ PUSH3 0xB00 JUMPI PUSH1 0x0 DUP1 REVERT JUMPDEST POP JUMP JUMPDEST PUSH2 0xECF DUP1 PUSH3 0xB13 PUSH1 0x0 CODECOPY PUSH1 0x0 RETURN INVALID PUSH1 0x80 PUSH1 0x40 MSTORE CALLVALUE DUP1 ISZERO PUSH2 0x10 JUMPI PUSH1 0x0 DUP1 REVERT JUMPDEST POP PUSH1 0x4 CALLDATASIZE LT PUSH2 0xB4 JUMPI PUSH1 0x0 CALLDATALOAD PUSH1 0xE0 SHR DUP1 PUSH4 0x8F58D353 GT PUSH2 0x71 JUMPI DUP1 PUSH4 0x8F58D353 EQ PUSH2 0x191 JUMPI DUP1 PUSH4 0xB73B396B EQ PUSH2 0x1AF JUMPI DUP1 PUSH4 0xBA0C45C9 EQ PUSH2 0x1B9 JUMPI DUP1 PUSH4 0xC04752D8 EQ PUSH2 0x1D5 JUMPI DUP1 PUSH4 0xC308B0DC EQ PUSH2 0x1F1 JUMPI DUP1 PUSH4 0xCC1E2CB0 EQ PUSH2 0x20D JUMPI PUSH2 0xB4 JUMP JUMPDEST DUP1 PUSH4 0x83C6323 EQ PUSH2 0xB9 JUMPI DUP1 PUSH4 0x18769765 EQ PUSH2 0xD7 JUMPI DUP1 PUSH4 0x237637A8 EQ PUSH2 0xF5 JUMPI DUP1 PUSH4 0x3477EE2E EQ PUSH2 0x113 JUMPI DUP1 PUSH4 0x48CD4CB1 EQ PUSH2 0x143 JUMPI DUP1 PUSH4 0x498CC70D EQ PUSH2 0x161 JUMPI JUMPDEST PUSH1 0x0 DUP1 REVERT JUMPDEST PUSH2 0xC1 PUSH2 0x22B JUMP JUMPDEST PUSH1 0x40 MLOAD PUSH2 0xCE SWAP2 SWAP1 PUSH2 0xB0E JUMP JUMPDEST PUSH1 0x40 MLOAD DUP1 SWAP2 SUB SWAP1 RETURN JUMPDEST PUSH2 0xDF PUSH2 0x231 JUMP JUMPDEST PUSH1 0x40 MLOAD PUSH2 0xEC SWAP2 SWAP1 PUSH2 0xAAC JUMP JUMPDEST PUSH1 0x40 MLOAD DUP1 SWAP2 SUB SWAP1 RETURN JUMPDEST PUSH2 0xFD PUSH2 0x2BF JUMP JUMPDEST PUSH1 0x40 MLOAD PUSH2 0x10A SWAP2 SWAP1 PUSH2 0xA91 JUMP JUMPDEST PUSH1 0x40 MLOAD DUP1 SWAP2 SUB SWAP1 RETURN JUMPDEST PUSH2 0x12D PUSH1 0x4 DUP1 CALLDATASIZE SUB DUP2 ADD SWAP1 PUSH2 0x128 SWAP2 SWAP1 PUSH2 0x92B JUMP JUMPDEST PUSH2 0x2D2 JUMP JUMPDEST PUSH1 0x40 MLOAD PUSH2 0x13A SWAP2 SWAP1 PUSH2 0xAAC JUMP JUMPDEST PUSH1 0x40 MLOAD DUP1 SWAP2 SUB SWAP1 RETURN JUMPDEST PUSH2 0x14B PUSH2 0x37E JUMP JUMPDEST PUSH1 0x40 MLOAD PUSH2 0x158 SWAP2 SWAP1 PUSH2 0xB0E JUMP JUMPDEST PUSH1 0x40 MLOAD DUP1 SWAP2 SUB SWAP1 RETURN JUMPDEST PUSH2 0x17B PUSH1 0x4 DUP1 CALLDATASIZE SUB DUP2 ADD SWAP1 PUSH2 0x176 SWAP2 SWAP1 PUSH2 0x8E2 JUMP JUMPDEST PUSH2 0x384 JUMP JUMPDEST PUSH1 0x40 MLOAD PUSH2 0x188 SWAP2 SWAP1 PUSH2 0xB0E JUMP JUMPDEST PUSH1 0x40 MLOAD DUP1 SWAP2 SUB SWAP1 RETURN JUMPDEST PUSH2 0x199 PUSH2 0x49C JUMP JUMPDEST PUSH1 0x40 MLOAD PUSH2 0x1A6 SWAP2 SWAP1 PUSH2 0xA76 JUMP JUMPDEST PUSH1 0x40 MLOAD DUP1 SWAP2 SUB SWAP1 RETURN JUMPDEST PUSH2 0x1B7 PUSH2 0x4AF JUMP JUMPDEST STOP JUMPDEST PUSH2 0x1D3 PUSH1 0x4 DUP1 CALLDATASIZE SUB DUP2 ADD SWAP1 PUSH2 0x1CE SWAP2 SWAP1 PUSH2 0x92B JUMP JUMPDEST PUSH2 0x534 JUMP JUMPDEST STOP JUMPDEST PUSH2 0x1EF PUSH1 0x4 DUP1 CALLDATASIZE SUB DUP2 ADD SWAP1 PUSH2 0x1EA SWAP2 SWAP1 PUSH2 0x8E2 JUMP JUMPDEST PUSH2 0x5A3 JUMP JUMPDEST STOP JUMPDEST PUSH2 0x20B PUSH1 0x4 DUP1 CALLDATASIZE SUB DUP2 ADD SWAP1 PUSH2 0x206 SWAP2 SWAP1 PUSH2 0x8E2 JUMP JUMPDEST PUSH2 0x724 JUMP JUMPDEST STOP JUMPDEST PUSH2 0x215 PUSH2 0x796 JUMP JUMPDEST PUSH1 0x40 MLOAD PUSH2 0x222 SWAP2 SWAP1 PUSH2 0xA5B JUMP JUMPDEST PUSH1 0x40 MLOAD DUP1 SWAP2 SUB SWAP1 RETURN JUMPDEST PUSH1 0x4 SLOAD DUP2 JUMP JUMPDEST PUSH1 0x1 DUP1 SLOAD PUSH2 0x23E SWAP1 PUSH2 0xCC4 JUMP JUMPDEST DUP1 PUSH1 0x1F ADD PUSH1 0x20 DUP1 SWAP2 DIV MUL PUSH1 0x20 ADD PUSH1 0x40 MLOAD SWAP1 DUP2 ADD PUSH1 0x40 MSTORE DUP1 SWAP3 SWAP2 SWAP1 DUP2 DUP2 MSTORE PUSH1 0x20 ADD DUP3 DUP1 SLOAD PUSH2 0x26A SWAP1 PUSH2 0xCC4 JUMP JUMPDEST DUP1 ISZERO PUSH2 0x2B7 JUMPI DUP1 PUSH1 0x1F LT PUSH2 0x28C JUMPI PUSH2 0x100 DUP1 DUP4 SLOAD DIV MUL DUP4 MSTORE SWAP2 PUSH1 0x20 ADD SWAP2 PUSH2 0x2B7 JUMP JUMPDEST DUP3 ADD SWAP2 SWAP1 PUSH1 0x0 MSTORE PUSH1 0x20 PUSH1 0x0 KECCAK256 SWAP1 JUMPDEST DUP2 SLOAD DUP2 MSTORE SWAP1 PUSH1 0x1 ADD SWAP1 PUSH1 0x20 ADD DUP1 DUP4 GT PUSH2 0x29A JUMPI DUP3 SWAP1 SUB PUSH1 0x1F AND DUP3 ADD SWAP2 JUMPDEST POP POP POP POP POP DUP2 JUMP JUMPDEST PUSH1 0x5 PUSH1 0x0 SWAP1 SLOAD SWAP1 PUSH2 0x100 EXP SWAP1 DIV PUSH1 0xFF AND DUP2 JUMP JUMPDEST PUSH1 0x2 DUP2 DUP2 SLOAD DUP2 LT PUSH2 0x2E2 JUMPI PUSH1 0x0 DUP1 REVERT JUMPDEST SWAP1 PUSH1 0x0 MSTORE PUSH1 0x20 PUSH1 0x0 KECCAK256 ADD PUSH1 0x0 SWAP2 POP SWAP1 POP DUP1 SLOAD PUSH2 0x2FD SWAP1 PUSH2 0xCC4 JUMP JUMPDEST DUP1 PUSH1 0x1F ADD PUSH1 0x20 DUP1 SWAP2 DIV MUL PUSH1 0x20 ADD PUSH1 0x40 MLOAD SWAP1 DUP2 ADD PUSH1 0x40 MSTORE DUP1 SWAP3 SWAP2 SWAP1 DUP2 DUP2 MSTORE PUSH1 0x20 ADD DUP3 DUP1 SLOAD PUSH2 0x329 SWAP1 PUSH2 0xCC4 JUMP JUMPDEST DUP1 ISZERO PUSH2 0x376 JUMPI DUP1 PUSH1 0x1F LT PUSH2 0x34B JUMPI PUSH2 0x100 DUP1 DUP4 SLOAD DIV MUL DUP4 MSTORE SWAP2 PUSH1 0x20 ADD SWAP2 PUSH2 0x376 JUMP JUMPDEST DUP3 ADD SWAP2 SWAP1 PUSH1 0x0 MSTORE PUSH1 0x20 PUSH1 0x0 KECCAK256 SWAP1 JUMPDEST DUP2 SLOAD DUP2 MSTORE SWAP1 PUSH1 0x1 ADD SWAP1 PUSH1 0x20 ADD DUP1 DUP4 GT PUSH2 0x359 JUMPI DUP3 SWAP1 SUB PUSH1 0x1F AND DUP3 ADD SWAP2 JUMPDEST POP POP POP POP POP DUP2 JUMP JUMPDEST PUSH1 0x3 SLOAD DUP2 JUMP JUMPDEST PUSH1 0x0 PUSH1 0x1 DUP1 DUP2 GT ISZERO PUSH2 0x399 JUMPI PUSH2 0x398 PUSH2 0xD56 JUMP JUMPDEST JUMPDEST PUSH1 0x5 PUSH1 0x0 SWAP1 SLOAD SWAP1 PUSH2 0x100 EXP SWAP1 DIV PUSH1 0xFF AND PUSH1 0x1 DUP2 GT ISZERO PUSH2 0x3BB JUMPI PUSH2 0x3BA PUSH2 0xD56 JUMP JUMPDEST JUMPDEST EQ ISZERO PUSH2 0x475 JUMPI CALLER PUSH20 0xFFFFFFFFFFFFFFFFFFFFFFFFFFFFFFFFFFFFFFFF AND PUSH1 0x0 DUP1 SLOAD SWAP1 PUSH2 0x100 EXP SWAP1 DIV PUSH20 0xFFFFFFFFFFFFFFFFFFFFFFFFFFFFFFFFFFFFFFFF AND PUSH20 0xFFFFFFFFFFFFFFFFFFFFFFFFFFFFFFFFFFFFFFFF AND EQ PUSH2 0x44F JUMPI PUSH1 0x40 MLOAD PUSH32 0x8C379A000000000000000000000000000000000000000000000000000000000 DUP2 MSTORE PUSH1 0x4 ADD PUSH2 0x446 SWAP1 PUSH2 0xACE JUMP JUMPDEST PUSH1 0x40 MLOAD DUP1 SWAP2 SUB SWAP1 REVERT JUMPDEST PUSH1 0x7 DUP3 PUSH1 0x40 MLOAD PUSH2 0x45F SWAP2 SWAP1 PUSH2 0xA44 JUMP JUMPDEST SWAP1 DUP2 MSTORE PUSH1 0x20 ADD PUSH1 0x40 MLOAD DUP1 SWAP2 SUB SWAP1 KECCAK256 SLOAD SWAP1 POP PUSH2 0x497 JUMP JUMPDEST PUSH1 0x7 DUP3 PUSH1 0x40 MLOAD PUSH2 0x485 SWAP2 SWAP1 PUSH2 0xA44 JUMP JUMPDEST SWAP1 DUP2 MSTORE PUSH1 0x20 ADD PUSH1 0x40 MLOAD DUP1 SWAP2 SUB SWAP1 KECCAK256 SLOAD SWAP1 POP JUMPDEST SWAP2 SWAP1 POP JUMP JUMPDEST PUSH1 0x5 PUSH1 0x1 SWAP1 SLOAD SWAP1 PUSH2 0x100 EXP SWAP1 DIV PUSH1 0xFF AND DUP2 JUMP JUMPDEST CALLER PUSH20 0xFFFFFFFFFFFFFFFFFFFFFFFFFFFFFFFFFFFFFFFF AND PUSH1 0x0 DUP1 SLOAD SWAP1 PUSH2 0x100 EXP SWAP1 DIV PUSH20 0xFFFFFFFFFFFFFFFFFFFFFFFFFFFFFFFFFFFFFFFF AND PUSH20 0xFFFFFFFFFFFFFFFFFFFFFFFFFFFFFFFFFFFFFFFF AND EQ PUSH2 0x507 JUMPI PUSH1 0x0 DUP1 REVERT JUMPDEST PUSH1 0x2 PUSH1 0x5 PUSH1 0x1 PUSH2 0x100 EXP DUP2 SLOAD DUP2 PUSH1 0xFF MUL NOT AND SWAP1 DUP4 PUSH1 0x3 DUP2 GT ISZERO PUSH2 0x52D JUMPI PUSH2 0x52C PUSH2 0xD56 JUMP JUMPDEST JUMPDEST MUL OR SWAP1 SSTORE POP JUMP JUMPDEST CALLER PUSH20 0xFFFFFFFFFFFFFFFFFFFFFFFFFFFFFFFFFFFFFFFF AND PUSH1 0x0 DUP1 SLOAD SWAP1 PUSH2 0x100 EXP SWAP1 DIV PUSH20 0xFFFFFFFFFFFFFFFFFFFFFFFFFFFFFFFFFFFFFFFF AND PUSH20 0xFFFFFFFFFFFFFFFFFFFFFFFFFFFFFFFFFFFFFFFF AND EQ PUSH2 0x58C JUMPI PUSH1 0x0 DUP1 REVERT JUMPDEST DUP1 PUSH1 0x4 SLOAD PUSH2 0x59A SWAP2 SWAP1 PUSH2 0xBA6 JUMP JUMPDEST PUSH1 0x4 DUP2 SWAP1 SSTORE POP POP JUMP JUMPDEST PUSH1 0x4 SLOAD NUMBER LT PUSH2 0x5B1 JUMPI PUSH1 0x0 DUP1 REVERT JUMPDEST PUSH1 0x3 SLOAD NUMBER GT PUSH2 0x5BF JUMPI PUSH1 0x0 DUP1 REVERT JUMPDEST PUSH1 0x2 PUSH1 0x3 DUP2 GT ISZERO PUSH2 0x5D3 JUMPI PUSH2 0x5D2 PUSH2 0xD56 JUMP JUMPDEST JUMPDEST PUSH1 0x5 PUSH1 0x1 SWAP1 SLOAD SWAP1 PUSH2 0x100 EXP SWAP1 DIV PUSH1 0xFF AND PUSH1 0x3 DUP2 GT ISZERO PUSH2 0x5F5 JUMPI PUSH2 0x5F4 PUSH2 0xD56 JUMP JUMPDEST JUMPDEST EQ ISZERO PUSH2 0x600 JUMPI PUSH1 0x0 DUP1 REVERT JUMPDEST PUSH1 0x0 CALLER SWAP1 POP PUSH1 0x6 PUSH1 0x0 DUP3 PUSH20 0xFFFFFFFFFFFFFFFFFFFFFFFFFFFFFFFFFFFFFFFF AND PUSH20 0xFFFFFFFFFFFFFFFFFFFFFFFFFFFFFFFFFFFFFFFF AND DUP2 MSTORE PUSH1 0x20 ADD SWAP1 DUP2 MSTORE PUSH1 0x20 ADD PUSH1 0x0 KECCAK256 PUSH1 0x0 SWAP1 SLOAD SWAP1 PUSH2 0x100 EXP SWAP1 DIV PUSH1 0xFF AND ISZERO PUSH2 0x692 JUMPI PUSH1 0x40 MLOAD PUSH32 0x8C379A000000000000000000000000000000000000000000000000000000000 DUP2 MSTORE PUSH1 0x4 ADD PUSH2 0x689 SWAP1 PUSH2 0xAEE JUMP JUMPDEST PUSH1 0x40 MLOAD DUP1 SWAP2 SUB SWAP1 REVERT JUMPDEST PUSH1 0x1 PUSH1 0x6 PUSH1 0x0 DUP4 PUSH20 0xFFFFFFFFFFFFFFFFFFFFFFFFFFFFFFFFFFFFFFFF AND PUSH20 0xFFFFFFFFFFFFFFFFFFFFFFFFFFFFFFFFFFFFFFFF AND DUP2 MSTORE PUSH1 0x20 ADD SWAP1 DUP2 MSTORE PUSH1 0x20 ADD PUSH1 0x0 KECCAK256 PUSH1 0x0 PUSH2 0x100 EXP DUP2 SLOAD DUP2 PUSH1 0xFF MUL NOT AND SWAP1 DUP4 ISZERO ISZERO MUL OR SWAP1 SSTORE POP PUSH1 0x1 PUSH1 0x7 DUP4 PUSH1 0x40 MLOAD PUSH2 0x6FC SWAP2 SWAP1 PUSH2 0xA44 JUMP JUMPDEST SWAP1 DUP2 MSTORE PUSH1 0x20 ADD PUSH1 0x40 MLOAD DUP1 SWAP2 SUB SWAP1 KECCAK256 PUSH1 0x0 DUP3 DUP3 SLOAD PUSH2 0x719 SWAP2 SWAP1 PUSH2 0xBA6 JUMP JUMPDEST SWAP3 POP POP DUP2 SWAP1 SSTORE POP POP POP JUMP JUMPDEST CALLER PUSH20 0xFFFFFFFFFFFFFFFFFFFFFFFFFFFFFFFFFFFFFFFF AND PUSH1 0x0 DUP1 SLOAD SWAP1 PUSH2 0x100 EXP SWAP1 DIV PUSH20 0xFFFFFFFFFFFFFFFFFFFFFFFFFFFFFFFFFFFFFFFF AND PUSH20 0xFFFFFFFFFFFFFFFFFFFFFFFFFFFFFFFFFFFFFFFF AND EQ PUSH2 0x77C JUMPI PUSH1 0x0 DUP1 REVERT JUMPDEST DUP1 PUSH1 0x1 SWAP1 DUP1 MLOAD SWAP1 PUSH1 0x20 ADD SWAP1 PUSH2 0x792 SWAP3 SWAP2 SWAP1 PUSH2 0x7BA JUMP JUMPDEST POP POP JUMP JUMPDEST PUSH1 0x0 DUP1 SLOAD SWAP1 PUSH2 0x100 EXP SWAP1 DIV PUSH20 0xFFFFFFFFFFFFFFFFFFFFFFFFFFFFFFFFFFFFFFFF AND DUP2 JUMP JUMPDEST DUP3 DUP1 SLOAD PUSH2 0x7C6 SWAP1 PUSH2 0xCC4 JUMP JUMPDEST SWAP1 PUSH1 0x0 MSTORE PUSH1 0x20 PUSH1 0x0 KECCAK256 SWAP1 PUSH1 0x1F ADD PUSH1 0x20 SWAP1 DIV DUP2 ADD SWAP3 DUP3 PUSH2 0x7E8 JUMPI PUSH1 0x0 DUP6 SSTORE PUSH2 0x82F JUMP JUMPDEST DUP3 PUSH1 0x1F LT PUSH2 0x801 JUMPI DUP1 MLOAD PUSH1 0xFF NOT AND DUP4 DUP1 ADD OR DUP6 SSTORE PUSH2 0x82F JUMP JUMPDEST DUP3 DUP1 ADD PUSH1 0x1 ADD DUP6 SSTORE DUP3 ISZERO PUSH2 0x82F JUMPI SWAP2 DUP3 ADD JUMPDEST DUP3 DUP2 GT ISZERO PUSH2 0x82E JUMPI DUP3 MLOAD DUP3 SSTORE SWAP2 PUSH1 0x20 ADD SWAP2 SWAP1 PUSH1 0x1 ADD SWAP1 PUSH2 0x813 JUMP JUMPDEST JUMPDEST POP SWAP1 POP PUSH2 0x83C SWAP2 SWAP1 PUSH2 0x840 JUMP JUMPDEST POP SWAP1 JUMP JUMPDEST JUMPDEST DUP1 DUP3 GT ISZERO PUSH2 0x859 JUMPI PUSH1 0x0 DUP2 PUSH1 0x0 SWAP1 SSTORE POP PUSH1 0x1 ADD PUSH2 0x841 JUMP JUMPDEST POP SWAP1 JUMP JUMPDEST PUSH1 0x0 PUSH2 0x870 PUSH2 0x86B DUP5 PUSH2 0xB4E JUMP JUMPDEST PUSH2 0xB29 JUMP JUMPDEST SWAP1 POP DUP3 DUP2 MSTORE PUSH1 0x20 DUP2 ADD DUP5 DUP5 DUP5 ADD GT ISZERO PUSH2 0x88C JUMPI PUSH2 0x88B PUSH2 0xDE8 JUMP JUMPDEST JUMPDEST PUSH2 0x897 DUP5 DUP3 DUP6 PUSH2 0xC82 JUMP JUMPDEST POP SWAP4 SWAP3 POP POP POP JUMP JUMPDEST PUSH1 0x0 DUP3 PUSH1 0x1F DUP4 ADD SLT PUSH2 0x8B4 JUMPI PUSH2 0x8B3 PUSH2 0xDE3 JUMP JUMPDEST JUMPDEST DUP2 CALLDATALOAD PUSH2 0x8C4 DUP5 DUP3 PUSH1 0x20 DUP7 ADD PUSH2 0x85D JUMP JUMPDEST SWAP2 POP POP SWAP3 SWAP2 POP POP JUMP JUMPDEST PUSH1 0x0 DUP2 CALLDATALOAD SWAP1 POP PUSH2 0x8DC DUP2 PUSH2 0xE82 JUMP JUMPDEST SWAP3 SWAP2 POP POP JUMP JUMPDEST PUSH1 0x0 PUSH1 0x20 DUP3 DUP5 SUB SLT ISZERO PUSH2 0x8F8 JUMPI PUSH2 0x8F7 PUSH2 0xDF2 JUMP JUMPDEST JUMPDEST PUSH1 0x0 DUP3 ADD CALLDATALOAD PUSH8 0xFFFFFFFFFFFFFFFF DUP2 GT ISZERO PUSH2 0x916 JUMPI PUSH2 0x915 PUSH2 0xDED JUMP JUMPDEST JUMPDEST PUSH2 0x922 DUP5 DUP3 DUP6 ADD PUSH2 0x89F JUMP JUMPDEST SWAP2 POP POP SWAP3 SWAP2 POP POP JUMP JUMPDEST PUSH1 0x0 PUSH1 0x20 DUP3 DUP5 SUB SLT ISZERO PUSH2 0x941 JUMPI PUSH2 0x940 PUSH2 0xDF2 JUMP JUMPDEST JUMPDEST PUSH1 0x0 PUSH2 0x94F DUP5 DUP3 DUP6 ADD PUSH2 0x8CD JUMP JUMPDEST SWAP2 POP POP SWAP3 SWAP2 POP POP JUMP JUMPDEST PUSH2 0x961 DUP2 PUSH2 0xBFC JUMP JUMPDEST DUP3 MSTORE POP POP JUMP JUMPDEST PUSH2 0x970 DUP2 PUSH2 0xC5E JUMP JUMPDEST DUP3 MSTORE POP POP JUMP JUMPDEST PUSH2 0x97F DUP2 PUSH2 0xC70 JUMP JUMPDEST DUP3 MSTORE POP POP JUMP JUMPDEST PUSH1 0x0 PUSH2 0x990 DUP3 PUSH2 0xB7F JUMP JUMPDEST PUSH2 0x99A DUP2 DUP6 PUSH2 0xB8A JUMP JUMPDEST SWAP4 POP PUSH2 0x9AA DUP2 DUP6 PUSH1 0x20 DUP7 ADD PUSH2 0xC91 JUMP JUMPDEST PUSH2 0x9B3 DUP2 PUSH2 0xDF7 JUMP JUMPDEST DUP5 ADD SWAP2 POP POP SWAP3 SWAP2 POP POP JUMP JUMPDEST PUSH1 0x0 PUSH2 0x9C9 DUP3 PUSH2 0xB7F JUMP JUMPDEST PUSH2 0x9D3 DUP2 DUP6 PUSH2 0xB9B JUMP JUMPDEST SWAP4 POP PUSH2 0x9E3 DUP2 DUP6 PUSH1 0x20 DUP7 ADD PUSH2 0xC91 JUMP JUMPDEST DUP1 DUP5 ADD SWAP2 POP POP SWAP3 SWAP2 POP POP JUMP JUMPDEST PUSH1 0x0 PUSH2 0x9FC PUSH1 0x17 DUP4 PUSH2 0xB8A JUMP JUMPDEST SWAP2 POP PUSH2 0xA07 DUP3 PUSH2 0xE08 JUMP JUMPDEST PUSH1 0x20 DUP3 ADD SWAP1 POP SWAP2 SWAP1 POP JUMP JUMPDEST PUSH1 0x0 PUSH2 0xA1F PUSH1 0x17 DUP4 PUSH2 0xB8A JUMP JUMPDEST SWAP2 POP PUSH2 0xA2A DUP3 PUSH2 0xE31 JUMP JUMPDEST PUSH1 0x20 DUP3 ADD SWAP1 POP SWAP2 SWAP1 POP JUMP JUMPDEST PUSH2 0xA3E DUP2 PUSH2 0xC54 JUMP JUMPDEST DUP3 MSTORE POP POP JUMP JUMPDEST PUSH1 0x0 PUSH2 0xA50 DUP3 DUP5 PUSH2 0x9BE JUMP JUMPDEST SWAP2 POP DUP2 SWAP1 POP SWAP3 SWAP2 POP POP JUMP JUMPDEST PUSH1 0x0 PUSH1 0x20 DUP3 ADD SWAP1 POP PUSH2 0xA70 PUSH1 0x0 DUP4 ADD DUP5 PUSH2 0x958 JUMP JUMPDEST SWAP3 SWAP2 POP POP JUMP JUMPDEST PUSH1 0x0 PUSH1 0x20 DUP3 ADD SWAP1 POP PUSH2 0xA8B PUSH1 0x0 DUP4 ADD DUP5 PUSH2 0x967 JUMP JUMPDEST SWAP3 SWAP2 POP POP JUMP JUMPDEST PUSH1 0x0 PUSH1 0x20 DUP3 ADD SWAP1 POP PUSH2 0xAA6 PUSH1 0x0 DUP4 ADD DUP5 PUSH2 0x976 JUMP JUMPDEST SWAP3 SWAP2 POP POP JUMP JUMPDEST PUSH1 0x0 PUSH1 0x20 DUP3 ADD SWAP1 POP DUP2 DUP2 SUB PUSH1 0x0 DUP4 ADD MSTORE PUSH2 0xAC6 DUP2 DUP5 PUSH2 0x985 JUMP JUMPDEST SWAP1 POP SWAP3 SWAP2 POP POP JUMP JUMPDEST PUSH1 0x0 PUSH1 0x20 DUP3 ADD SWAP1 POP DUP2 DUP2 SUB PUSH1 0x0 DUP4 ADD MSTORE PUSH2 0xAE7 DUP2 PUSH2 0x9EF JUMP JUMPDEST SWAP1 POP SWAP2 SWAP1 POP JUMP JUMPDEST PUSH1 0x0 PUSH1 0x20 DUP3 ADD SWAP1 POP DUP2 DUP2 SUB PUSH1 0x0 DUP4 ADD MSTORE PUSH2 0xB07 DUP2 PUSH2 0xA12 JUMP JUMPDEST SWAP1 POP SWAP2 SWAP1 POP JUMP JUMPDEST PUSH1 0x0 PUSH1 0x20 DUP3 ADD SWAP1 POP PUSH2 0xB23 PUSH1 0x0 DUP4 ADD DUP5 PUSH2 0xA35 JUMP JUMPDEST SWAP3 SWAP2 POP POP JUMP JUMPDEST PUSH1 0x0 PUSH2 0xB33 PUSH2 0xB44 JUMP JUMPDEST SWAP1 POP PUSH2 0xB3F DUP3 DUP3 PUSH2 0xCF6 JUMP JUMPDEST SWAP2 SWAP1 POP JUMP JUMPDEST PUSH1 0x0 PUSH1 0x40 MLOAD SWAP1 POP SWAP1 JUMP JUMPDEST PUSH1 0x0 PUSH8 0xFFFFFFFFFFFFFFFF DUP3 GT ISZERO PUSH2 0xB69 JUMPI PUSH2 0xB68 PUSH2 0xDB4 JUMP JUMPDEST JUMPDEST PUSH2 0xB72 DUP3 PUSH2 0xDF7 JUMP JUMPDEST SWAP1 POP PUSH1 0x20 DUP2 ADD SWAP1 POP SWAP2 SWAP1 POP JUMP JUMPDEST PUSH1 0x0 DUP2 MLOAD SWAP1 POP SWAP2 SWAP1 POP JUMP JUMPDEST PUSH1 0x0 DUP3 DUP3 MSTORE PUSH1 0x20 DUP3 ADD SWAP1 POP SWAP3 SWAP2 POP POP JUMP JUMPDEST PUSH1 0x0 DUP2 SWAP1 POP SWAP3 SWAP2 POP POP JUMP JUMPDEST PUSH1 0x0 PUSH2 0xBB1 DUP3 PUSH2 0xC54 JUMP JUMPDEST SWAP2 POP PUSH2 0xBBC DUP4 PUSH2 0xC54 JUMP JUMPDEST SWAP3 POP DUP3 PUSH32 0xFFFFFFFFFFFFFFFFFFFFFFFFFFFFFFFFFFFFFFFFFFFFFFFFFFFFFFFFFFFFFFFF SUB DUP3 GT ISZERO PUSH2 0xBF1 JUMPI PUSH2 0xBF0 PUSH2 0xD27 JUMP JUMPDEST JUMPDEST DUP3 DUP3 ADD SWAP1 POP SWAP3 SWAP2 POP POP JUMP JUMPDEST PUSH1 0x0 PUSH2 0xC07 DUP3 PUSH2 0xC34 JUMP JUMPDEST SWAP1 POP SWAP2 SWAP1 POP JUMP JUMPDEST PUSH1 0x0 DUP2 SWAP1 POP PUSH2 0xC1C DUP3 PUSH2 0xE5A JUMP JUMPDEST SWAP2 SWAP1 POP JUMP JUMPDEST PUSH1 0x0 DUP2 SWAP1 POP PUSH2 0xC2F DUP3 PUSH2 0xE6E JUMP JUMPDEST SWAP2 SWAP1 POP JUMP JUMPDEST PUSH1 0x0 PUSH20 0xFFFFFFFFFFFFFFFFFFFFFFFFFFFFFFFFFFFFFFFF DUP3 AND SWAP1 POP SWAP2 SWAP1 POP JUMP JUMPDEST PUSH1 0x0 DUP2 SWAP1 POP SWAP2 SWAP1 POP JUMP JUMPDEST PUSH1 0x0 PUSH2 0xC69 DUP3 PUSH2 0xC0E JUMP JUMPDEST SWAP1 POP SWAP2 SWAP1 POP JUMP JUMPDEST PUSH1 0x0 PUSH2 0xC7B DUP3 PUSH2 0xC21 JUMP JUMPDEST SWAP1 POP SWAP2 SWAP1 POP JUMP JUMPDEST DUP3 DUP2 DUP4 CALLDATACOPY PUSH1 0x0 DUP4 DUP4 ADD MSTORE POP POP POP JUMP JUMPDEST PUSH1 0x0 JUMPDEST DUP4 DUP2 LT ISZERO PUSH2 0xCAF JUMPI DUP1 DUP3 ADD MLOAD DUP2 DUP5 ADD MSTORE PUSH1 0x20 DUP2 ADD SWAP1 POP PUSH2 0xC94 JUMP JUMPDEST DUP4 DUP2 GT ISZERO PUSH2 0xCBE JUMPI PUSH1 0x0 DUP5 DUP5 ADD MSTORE JUMPDEST POP POP POP POP JUMP JUMPDEST PUSH1 0x0 PUSH1 0x2 DUP3 DIV SWAP1 POP PUSH1 0x1 DUP3 AND DUP1 PUSH2 0xCDC JUMPI PUSH1 0x7F DUP3 AND SWAP2 POP JUMPDEST PUSH1 0x20 DUP3 LT DUP2 EQ ISZERO PUSH2 0xCF0 JUMPI PUSH2 0xCEF PUSH2 0xD85 JUMP JUMPDEST JUMPDEST POP SWAP2 SWAP1 POP JUMP JUMPDEST PUSH2 0xCFF DUP3 PUSH2 0xDF7 JUMP JUMPDEST DUP2 ADD DUP2 DUP2 LT PUSH8 0xFFFFFFFFFFFFFFFF DUP3 GT OR ISZERO PUSH2 0xD1E JUMPI PUSH2 0xD1D PUSH2 0xDB4 JUMP JUMPDEST JUMPDEST DUP1 PUSH1 0x40 MSTORE POP POP POP JUMP JUMPDEST PUSH32 0x4E487B7100000000000000000000000000000000000000000000000000000000 PUSH1 0x0 MSTORE PUSH1 0x11 PUSH1 0x4 MSTORE PUSH1 0x24 PUSH1 0x0 REVERT JUMPDEST PUSH32 0x4E487B7100000000000000000000000000000000000000000000000000000000 PUSH1 0x0 MSTORE PUSH1 0x21 PUSH1 0x4 MSTORE PUSH1 0x24 PUSH1 0x0 REVERT JUMPDEST PUSH32 0x4E487B7100000000000000000000000000000000000000000000000000000000 PUSH1 0x0 MSTORE PUSH1 0x22 PUSH1 0x4 MSTORE PUSH1 0x24 PUSH1 0x0 REVERT JUMPDEST PUSH32 0x4E487B7100000000000000000000000000000000000000000000000000000000 PUSH1 0x0 MSTORE PUSH1 0x41 PUSH1 0x4 MSTORE PUSH1 0x24 PUSH1 0x0 REVERT JUMPDEST PUSH1 0x0 DUP1 REVERT JUMPDEST PUSH1 0x0 DUP1 REVERT JUMPDEST PUSH1 0x0 DUP1 REVERT JUMPDEST PUSH1 0x0 DUP1 REVERT JUMPDEST PUSH1 0x0 PUSH1 0x1F NOT PUSH1 0x1F DUP4 ADD AND SWAP1 POP SWAP2 SWAP1 POP JUMP JUMPDEST PUSH32 0x546869732069732061207072697661746520706F6C6C2E000000000000000000 PUSH1 0x0 DUP3 ADD MSTORE POP JUMP JUMPDEST PUSH32 0x596F75206861766520616C726561647920766F74656421000000000000000000 PUSH1 0x0 DUP3 ADD MSTORE POP JUMP JUMPDEST PUSH1 0x4 DUP2 LT PUSH2 0xE6B JUMPI PUSH2 0xE6A PUSH2 0xD56 JUMP JUMPDEST JUMPDEST POP JUMP JUMPDEST PUSH1 0x2 DUP2 LT PUSH2 0xE7F JUMPI PUSH2 0xE7E PUSH2 0xD56 JUMP JUMPDEST JUMPDEST POP JUMP JUMPDEST PUSH2 0xE8B DUP2 PUSH2 0xC54 JUMP JUMPDEST DUP2 EQ PUSH2 0xE96 JUMPI PUSH1 0x0 DUP1 REVERT JUMPDEST POP JUMP INVALID LOG2 PUSH5 0x6970667358 0x22 SLT KECCAK256 DUP8 CREATE MUL 0xC4 RETURNDATASIZE DUP5 DUP11 PUSH9 0x99DB2A939CD25DE13D 0xCD 0x2E 0xDB PUSH17 0x709ACAAD6A627C0B9EDE3364736F6C6343 STOP ADDMOD SMOD STOP CALLER "
				},
				"gasEstimates": {
					"creation": {
						"codeDepositCost": "758200",
						"executionCost": "infinite",
						"totalCost": "infinite"
					},
					"external": {
						"cancelPoll()": "26670",
						"candidates(uint256)": "infinite",
						"endBlock()": "2430",
						"getResult(string)": "infinite",
						"increasePollDuration(uint256)": "infinite",
						"org()": "2621",
						"pollName()": "infinite",
						"pollState()": "2610",
						"pollType()": "2605",
						"renamePoll(string)": "infinite",
						"startBlock()": "2518",
						"voteFor(string)": "infinite"
					}
				},
				"methodIdentifiers": {
					"cancelPoll()": "b73b396b",
					"candidates(uint256)": "3477ee2e",
					"endBlock()": "083c6323",
					"getResult(string)": "498cc70d",
					"increasePollDuration(uint256)": "ba0c45c9",
					"org()": "cc1e2cb0",
					"pollName()": "18769765",
					"pollState()": "8f58d353",
					"pollType()": "237637a8",
					"renamePoll(string)": "c308b0dc",
					"startBlock()": "48cd4cb1",
					"voteFor(string)": "c04752d8"
				}
			},
			"storageLayout": {
				"storage": [
					{
						"astId": 91,
						"contract": "contracts/pollio.sol:Poll",
						"label": "org",
						"offset": 0,
						"slot": "0",
						"type": "t_address_payable"
					},
					{
						"astId": 93,
						"contract": "contracts/pollio.sol:Poll",
						"label": "pollName",
						"offset": 0,
						"slot": "1",
						"type": "t_string_storage"
					},
					{
						"astId": 96,
						"contract": "contracts/pollio.sol:Poll",
						"label": "candidates",
						"offset": 0,
						"slot": "2",
						"type": "t_array(t_string_storage)dyn_storage"
					},
					{
						"astId": 98,
						"contract": "contracts/pollio.sol:Poll",
						"label": "startBlock",
						"offset": 0,
						"slot": "3",
						"type": "t_uint256"
					},
					{
						"astId": 100,
						"contract": "contracts/pollio.sol:Poll",
						"label": "endBlock",
						"offset": 0,
						"slot": "4",
						"type": "t_uint256"
					},
					{
						"astId": 106,
						"contract": "contracts/pollio.sol:Poll",
						"label": "pollType",
						"offset": 0,
						"slot": "5",
						"type": "t_enum(Type)103"
					},
					{
						"astId": 114,
						"contract": "contracts/pollio.sol:Poll",
						"label": "pollState",
						"offset": 1,
						"slot": "5",
						"type": "t_enum(State)111"
					},
					{
						"astId": 118,
						"contract": "contracts/pollio.sol:Poll",
						"label": "isVoted",
						"offset": 0,
						"slot": "6",
						"type": "t_mapping(t_address,t_bool)"
					},
					{
						"astId": 122,
						"contract": "contracts/pollio.sol:Poll",
						"label": "result",
						"offset": 0,
						"slot": "7",
						"type": "t_mapping(t_string_memory_ptr,t_uint256)"
					}
				],
				"types": {
					"t_address": {
						"encoding": "inplace",
						"label": "address",
						"numberOfBytes": "20"
					},
					"t_address_payable": {
						"encoding": "inplace",
						"label": "address payable",
						"numberOfBytes": "20"
					},
					"t_array(t_string_storage)dyn_storage": {
						"base": "t_string_storage",
						"encoding": "dynamic_array",
						"label": "string[]",
						"numberOfBytes": "32"
					},
					"t_bool": {
						"encoding": "inplace",
						"label": "bool",
						"numberOfBytes": "1"
					},
					"t_enum(State)111": {
						"encoding": "inplace",
						"label": "enum Poll.State",
						"numberOfBytes": "1"
					},
					"t_enum(Type)103": {
						"encoding": "inplace",
						"label": "enum Poll.Type",
						"numberOfBytes": "1"
					},
					"t_mapping(t_address,t_bool)": {
						"encoding": "mapping",
						"key": "t_address",
						"label": "mapping(address => bool)",
						"numberOfBytes": "32",
						"value": "t_bool"
					},
					"t_mapping(t_string_memory_ptr,t_uint256)": {
						"encoding": "mapping",
						"key": "t_string_memory_ptr",
						"label": "mapping(string => uint256)",
						"numberOfBytes": "32",
						"value": "t_uint256"
					},
					"t_string_memory_ptr": {
						"encoding": "bytes",
						"label": "string",
						"numberOfBytes": "32"
					},
					"t_string_storage": {
						"encoding": "bytes",
						"label": "string",
						"numberOfBytes": "32"
					},
					"t_uint256": {
						"encoding": "inplace",
						"label": "uint256",
						"numberOfBytes": "32"
					}
				}
			},
			"userdoc": {
				"kind": "user",
				"methods": {},
				"version": 1
			}
		}
	}
}